Component: ARM Compiler 5.05 update 1 (build 106) Tool: armlink [4d0efa]

==============================================================================

Section Cross References

    startup_stm32f10x_hd.o(STACK) refers (Special) to heapauxi.o(.text) for __use_two_region_memory
    startup_stm32f10x_hd.o(HEAP) refers (Special) to heapauxi.o(.text) for __use_two_region_memory
    startup_stm32f10x_hd.o(RESET) refers (Special) to heapauxi.o(.text) for __use_two_region_memory
    startup_stm32f10x_hd.o(RESET) refers to startup_stm32f10x_hd.o(STACK) for __initial_sp
    startup_stm32f10x_hd.o(RESET) refers to startup_stm32f10x_hd.o(.text) for Reset_Handler
    startup_stm32f10x_hd.o(RESET) refers to bsp_timer.o(i.SysTick_Handler) for SysTick_Handler
    startup_stm32f10x_hd.o(RESET) refers to adc.o(i.DMA1_Channel1_IRQHandler) for DMA1_Channel1_IRQHandler
    startup_stm32f10x_hd.o(RESET) refers to plc_com.o(i.DMA1_Channel4_IRQHandler) for DMA1_Channel4_IRQHandler
    startup_stm32f10x_hd.o(RESET) refers to exti.o(i.EXTI9_5_IRQHandler) for EXTI9_5_IRQHandler
    startup_stm32f10x_hd.o(RESET) refers to plc_io.o(i.EXTI9_5_IRQHandler) for EXTI9_5_IRQHandler
    startup_stm32f10x_hd.o(RESET) refers to pwm_output.o(i.TIM1_UP_IRQHandler) for TIM1_UP_IRQHandler
    startup_stm32f10x_hd.o(RESET) refers to encode.o(i.TIM2_IRQHandler) for TIM2_IRQHandler
    startup_stm32f10x_hd.o(RESET) refers to encode.o(i.TIM3_IRQHandler) for TIM3_IRQHandler
    startup_stm32f10x_hd.o(RESET) refers to plc_com.o(i.USART1_IRQHandler) for USART1_IRQHandler
    startup_stm32f10x_hd.o(RESET) refers to bsp_uart_fifo.o(i.USART3_IRQHandler) for USART3_IRQHandler
    startup_stm32f10x_hd.o(RESET) refers to exti.o(i.EXTI15_10_IRQHandler) for EXTI15_10_IRQHandler
    startup_stm32f10x_hd.o(RESET) refers to pwm_output.o(i.TIM8_UP_IRQHandler) for TIM8_UP_IRQHandler
    startup_stm32f10x_hd.o(RESET) refers to bsp_timer.o(i.TIM5_IRQHandler) for TIM5_IRQHandler
    startup_stm32f10x_hd.o(.text) refers (Special) to heapauxi.o(.text) for __use_two_region_memory
    startup_stm32f10x_hd.o(.text) refers to system_stm32f10x.o(i.SystemInit) for SystemInit
    startup_stm32f10x_hd.o(.text) refers to __main.o(!!!main) for __main
    startup_stm32f10x_hd.o(.text) refers to startup_stm32f10x_hd.o(HEAP) for Heap_Mem
    startup_stm32f10x_hd.o(.text) refers to startup_stm32f10x_hd.o(STACK) for Stack_Mem
    stm32f10x_adc.o(i.ADC_DeInit) refers to stm32f10x_rcc.o(i.RCC_APB2PeriphResetCmd) for RCC_APB2PeriphResetCmd
    stm32f10x_bkp.o(i.BKP_DeInit) refers to stm32f10x_rcc.o(i.RCC_BackupResetCmd) for RCC_BackupResetCmd
    stm32f10x_can.o(i.CAN_DeInit) refers to stm32f10x_rcc.o(i.RCC_APB1PeriphResetCmd) for RCC_APB1PeriphResetCmd
    stm32f10x_can.o(i.CAN_GetITStatus) refers to stm32f10x_can.o(i.CheckITStatus) for CheckITStatus
    stm32f10x_cec.o(i.CEC_DeInit) refers to stm32f10x_rcc.o(i.RCC_APB1PeriphResetCmd) for RCC_APB1PeriphResetCmd
    stm32f10x_dac.o(i.DAC_DeInit) refers to stm32f10x_rcc.o(i.RCC_APB1PeriphResetCmd) for RCC_APB1PeriphResetCmd
    stm32f10x_flash.o(i.FLASH_EnableWriteProtection) refers to stm32f10x_flash.o(i.FLASH_WaitForLastOperation) for FLASH_WaitForLastOperation
    stm32f10x_flash.o(i.FLASH_EraseAllBank1Pages) refers to stm32f10x_flash.o(i.FLASH_WaitForLastBank1Operation) for FLASH_WaitForLastBank1Operation
    stm32f10x_flash.o(i.FLASH_EraseAllPages) refers to stm32f10x_flash.o(i.FLASH_WaitForLastOperation) for FLASH_WaitForLastOperation
    stm32f10x_flash.o(i.FLASH_EraseOptionBytes) refers to stm32f10x_flash.o(i.FLASH_GetReadOutProtectionStatus) for FLASH_GetReadOutProtectionStatus
    stm32f10x_flash.o(i.FLASH_EraseOptionBytes) refers to stm32f10x_flash.o(i.FLASH_WaitForLastOperation) for FLASH_WaitForLastOperation
    stm32f10x_flash.o(i.FLASH_ErasePage) refers to stm32f10x_flash.o(i.FLASH_WaitForLastOperation) for FLASH_WaitForLastOperation
    stm32f10x_flash.o(i.FLASH_ProgramHalfWord) refers to stm32f10x_flash.o(i.FLASH_WaitForLastOperation) for FLASH_WaitForLastOperation
    stm32f10x_flash.o(i.FLASH_ProgramOptionByteData) refers to stm32f10x_flash.o(i.FLASH_WaitForLastOperation) for FLASH_WaitForLastOperation
    stm32f10x_flash.o(i.FLASH_ProgramWord) refers to stm32f10x_flash.o(i.FLASH_WaitForLastOperation) for FLASH_WaitForLastOperation
    stm32f10x_flash.o(i.FLASH_ReadOutProtection) refers to stm32f10x_flash.o(i.FLASH_WaitForLastOperation) for FLASH_WaitForLastOperation
    stm32f10x_flash.o(i.FLASH_UserOptionByteConfig) refers to stm32f10x_flash.o(i.FLASH_WaitForLastOperation) for FLASH_WaitForLastOperation
    stm32f10x_flash.o(i.FLASH_WaitForLastBank1Operation) refers to stm32f10x_flash.o(i.FLASH_GetBank1Status) for FLASH_GetBank1Status
    stm32f10x_flash.o(i.FLASH_WaitForLastOperation) refers to stm32f10x_flash.o(i.FLASH_GetBank1Status) for FLASH_GetBank1Status
    stm32f10x_gpio.o(i.GPIO_AFIODeInit) refers to stm32f10x_rcc.o(i.RCC_APB2PeriphResetCmd) for RCC_APB2PeriphResetCmd
    stm32f10x_gpio.o(i.GPIO_DeInit) refers to stm32f10x_rcc.o(i.RCC_APB2PeriphResetCmd) for RCC_APB2PeriphResetCmd
    stm32f10x_i2c.o(i.I2C_DeInit) refers to stm32f10x_rcc.o(i.RCC_APB1PeriphResetCmd) for RCC_APB1PeriphResetCmd
    stm32f10x_i2c.o(i.I2C_Init) refers to stm32f10x_rcc.o(i.RCC_GetClocksFreq) for RCC_GetClocksFreq
    stm32f10x_pwr.o(i.PWR_DeInit) refers to stm32f10x_rcc.o(i.RCC_APB1PeriphResetCmd) for RCC_APB1PeriphResetCmd
    stm32f10x_rcc.o(i.RCC_GetClocksFreq) refers to stm32f10x_rcc.o(.data) for .data
    stm32f10x_rcc.o(i.RCC_WaitForHSEStartUp) refers to stm32f10x_rcc.o(i.RCC_GetFlagStatus) for RCC_GetFlagStatus
    stm32f10x_rtc.o(i.RTC_SetAlarm) refers to stm32f10x_rtc.o(i.RTC_EnterConfigMode) for RTC_EnterConfigMode
    stm32f10x_rtc.o(i.RTC_SetAlarm) refers to stm32f10x_rtc.o(i.RTC_ExitConfigMode) for RTC_ExitConfigMode
    stm32f10x_rtc.o(i.RTC_SetCounter) refers to stm32f10x_rtc.o(i.RTC_EnterConfigMode) for RTC_EnterConfigMode
    stm32f10x_rtc.o(i.RTC_SetCounter) refers to stm32f10x_rtc.o(i.RTC_ExitConfigMode) for RTC_ExitConfigMode
    stm32f10x_rtc.o(i.RTC_SetPrescaler) refers to stm32f10x_rtc.o(i.RTC_EnterConfigMode) for RTC_EnterConfigMode
    stm32f10x_rtc.o(i.RTC_SetPrescaler) refers to stm32f10x_rtc.o(i.RTC_ExitConfigMode) for RTC_ExitConfigMode
    stm32f10x_spi.o(i.I2S_Init) refers to stm32f10x_rcc.o(i.RCC_GetClocksFreq) for RCC_GetClocksFreq
    stm32f10x_spi.o(i.SPI_I2S_DeInit) refers to stm32f10x_rcc.o(i.RCC_APB2PeriphResetCmd) for RCC_APB2PeriphResetCmd
    stm32f10x_spi.o(i.SPI_I2S_DeInit) refers to stm32f10x_rcc.o(i.RCC_APB1PeriphResetCmd) for RCC_APB1PeriphResetCmd
    stm32f10x_tim.o(i.TIM_DeInit) refers to stm32f10x_rcc.o(i.RCC_APB1PeriphResetCmd) for RCC_APB1PeriphResetCmd
    stm32f10x_tim.o(i.TIM_DeInit) refers to stm32f10x_rcc.o(i.RCC_APB2PeriphResetCmd) for RCC_APB2PeriphResetCmd
    stm32f10x_tim.o(i.TIM_ETRClockMode1Config) refers to stm32f10x_tim.o(i.TIM_ETRConfig) for TIM_ETRConfig
    stm32f10x_tim.o(i.TIM_ETRClockMode2Config) refers to stm32f10x_tim.o(i.TIM_ETRConfig) for TIM_ETRConfig
    stm32f10x_tim.o(i.TIM_ICInit) refers to stm32f10x_tim.o(i.TI1_Config) for TI1_Config
    stm32f10x_tim.o(i.TIM_ICInit) refers to stm32f10x_tim.o(i.TIM_SetIC1Prescaler) for TIM_SetIC1Prescaler
    stm32f10x_tim.o(i.TIM_ICInit) refers to stm32f10x_tim.o(i.TI2_Config) for TI2_Config
    stm32f10x_tim.o(i.TIM_ICInit) refers to stm32f10x_tim.o(i.TIM_SetIC2Prescaler) for TIM_SetIC2Prescaler
    stm32f10x_tim.o(i.TIM_ICInit) refers to stm32f10x_tim.o(i.TIM_SetIC3Prescaler) for TIM_SetIC3Prescaler
    stm32f10x_tim.o(i.TIM_ICInit) refers to stm32f10x_tim.o(i.TIM_SetIC4Prescaler) for TIM_SetIC4Prescaler
    stm32f10x_tim.o(i.TIM_ITRxExternalClockConfig) refers to stm32f10x_tim.o(i.TIM_SelectInputTrigger) for TIM_SelectInputTrigger
    stm32f10x_tim.o(i.TIM_PWMIConfig) refers to stm32f10x_tim.o(i.TI2_Config) for TI2_Config
    stm32f10x_tim.o(i.TIM_PWMIConfig) refers to stm32f10x_tim.o(i.TIM_SetIC2Prescaler) for TIM_SetIC2Prescaler
    stm32f10x_tim.o(i.TIM_PWMIConfig) refers to stm32f10x_tim.o(i.TI1_Config) for TI1_Config
    stm32f10x_tim.o(i.TIM_PWMIConfig) refers to stm32f10x_tim.o(i.TIM_SetIC1Prescaler) for TIM_SetIC1Prescaler
    stm32f10x_tim.o(i.TIM_TIxExternalClockConfig) refers to stm32f10x_tim.o(i.TI1_Config) for TI1_Config
    stm32f10x_tim.o(i.TIM_TIxExternalClockConfig) refers to stm32f10x_tim.o(i.TIM_SelectInputTrigger) for TIM_SelectInputTrigger
    stm32f10x_tim.o(i.TIM_TIxExternalClockConfig) refers to stm32f10x_tim.o(i.TI2_Config) for TI2_Config
    stm32f10x_usart.o(i.USART_DeInit) refers to stm32f10x_rcc.o(i.RCC_APB2PeriphResetCmd) for RCC_APB2PeriphResetCmd
    stm32f10x_usart.o(i.USART_DeInit) refers to stm32f10x_rcc.o(i.RCC_APB1PeriphResetCmd) for RCC_APB1PeriphResetCmd
    stm32f10x_usart.o(i.USART_Init) refers to stm32f10x_rcc.o(i.RCC_GetClocksFreq) for RCC_GetClocksFreq
    stm32f10x_wwdg.o(i.WWDG_DeInit) refers to stm32f10x_rcc.o(i.RCC_APB1PeriphResetCmd) for RCC_APB1PeriphResetCmd
    system_stm32f10x.o(i.SystemCoreClockUpdate) refers to system_stm32f10x.o(.data) for .data
    system_stm32f10x.o(i.SystemInit) refers to system_stm32f10x.o(i.SetSysClockTo72) for SetSysClockTo72
    main.o(i._IWDG_Init) refers to stm32f10x_rcc.o(i.RCC_LSICmd) for RCC_LSICmd
    main.o(i._IWDG_Init) refers to stm32f10x_rcc.o(i.RCC_GetFlagStatus) for RCC_GetFlagStatus
    main.o(i._IWDG_Init) refers to stm32f10x_iwdg.o(i.IWDG_WriteAccessCmd) for IWDG_WriteAccessCmd
    main.o(i._IWDG_Init) refers to stm32f10x_iwdg.o(i.IWDG_SetPrescaler) for IWDG_SetPrescaler
    main.o(i._IWDG_Init) refers to stm32f10x_iwdg.o(i.IWDG_SetReload) for IWDG_SetReload
    main.o(i._IWDG_Init) refers to stm32f10x_iwdg.o(i.IWDG_ReloadCounter) for IWDG_ReloadCounter
    main.o(i._IWDG_Init) refers to stm32f10x_iwdg.o(i.IWDG_Enable) for IWDG_Enable
    main.o(i.main) refers to plc_io.o(i.PLC_IO_config) for PLC_IO_config
    main.o(i.main) refers to rtc.o(i.RTC_Init) for RTC_Init
    main.o(i.main) refers to plc_com.o(i.data_init) for data_init
    main.o(i.main) refers to plc_other.o(i.PLC_ReadKeepData) for PLC_ReadKeepData
    main.o(i.main) refers to plc_com.o(i.USART1_Configuration) for USART1_Configuration
    main.o(i.main) refers to bsp.o(i.bsp_Init) for bsp_Init
    main.o(i.main) refers to adc.o(i.ADC_init) for ADC_init
    main.o(i.main) refers to dac.o(i.DAC_out_init) for DAC_out_init
    main.o(i.main) refers to pwm_output.o(i.PWM_Y0_Restore_Config) for PWM_Y0_Restore_Config
    main.o(i.main) refers to pwm_output.o(i.PWM_Y1_Restore_Config) for PWM_Y1_Restore_Config
    main.o(i.main) refers to pwm_output.o(i.PulseOutputInit) for PulseOutputInit
    main.o(i.main) refers to encode.o(i.Cap_PulseInputInit) for Cap_PulseInputInit
    main.o(i.main) refers to encode.o(i.X_Io_Restore) for X_Io_Restore
    main.o(i.main) refers to nvic_interrupt.o(i.NVIC_Confinguration) for NVIC_Confinguration
    main.o(i.main) refers to main.o(i._IWDG_Init) for _IWDG_Init
    main.o(i.main) refers to rtc.o(i.RTC_Get) for RTC_Get
    main.o(i.main) refers to ladder.o(i.PLC_ProInstructParse) for PLC_ProInstructParse
    main.o(i.main) refers to plc_com.o(i.TX_Process) for TX_Process
    main.o(i.main) refers to adc.o(i.ADC_Sample) for ADC_Sample
    main.o(i.main) refers to stm32f10x_iwdg.o(i.IWDG_ReloadCounter) for IWDG_ReloadCounter
    main.o(i.main) refers to plc_com.o(.ARM.__AT_0x20001000) for plc_16BitBuf
    main.o(i.main) refers to bsp_timer.o(.data) for gCommLedFlashFlg
    exti.o(i.EXTI15_10_IRQHandler) refers to stm32f10x_exti.o(i.EXTI_GetITStatus) for EXTI_GetITStatus
    exti.o(i.EXTI15_10_IRQHandler) refers to stm32f10x_exti.o(i.EXTI_ClearITPendingBit) for EXTI_ClearITPendingBit
    exti.o(i.EXTI15_10_IRQHandler) refers to plc_com.o(.ARM.__AT_0x20001000) for plc_16BitBuf
    exti.o(i.EXTI9_5_IRQHandler) refers to stm32f10x_exti.o(i.EXTI_GetITStatus) for EXTI_GetITStatus
    exti.o(i.EXTI9_5_IRQHandler) refers to stm32f10x_exti.o(i.EXTI_ClearITPendingBit) for EXTI_ClearITPendingBit
    exti.o(i.EXTI9_5_IRQHandler) refers to plc_com.o(.ARM.__AT_0x20001000) for plc_16BitBuf
    exti.o(i.RST_C) refers to plc_com.o(.ARM.__AT_0x20001000) for plc_16BitBuf
    rtc.o(i.RTC_Config) refers to stm32f10x_rcc.o(i.RCC_APB1PeriphClockCmd) for RCC_APB1PeriphClockCmd
    rtc.o(i.RTC_Config) refers to stm32f10x_pwr.o(i.PWR_BackupAccessCmd) for PWR_BackupAccessCmd
    rtc.o(i.RTC_Config) refers to stm32f10x_bkp.o(i.BKP_DeInit) for BKP_DeInit
    rtc.o(i.RTC_Config) refers to stm32f10x_rcc.o(i.RCC_LSEConfig) for RCC_LSEConfig
    rtc.o(i.RTC_Config) refers to stm32f10x_rcc.o(i.RCC_GetFlagStatus) for RCC_GetFlagStatus
    rtc.o(i.RTC_Config) refers to stm32f10x_rcc.o(i.RCC_RTCCLKConfig) for RCC_RTCCLKConfig
    rtc.o(i.RTC_Config) refers to stm32f10x_rcc.o(i.RCC_RTCCLKCmd) for RCC_RTCCLKCmd
    rtc.o(i.RTC_Config) refers to stm32f10x_rtc.o(i.RTC_WaitForSynchro) for RTC_WaitForSynchro
    rtc.o(i.RTC_Config) refers to stm32f10x_rtc.o(i.RTC_WaitForLastTask) for RTC_WaitForLastTask
    rtc.o(i.RTC_Config) refers to stm32f10x_rtc.o(i.RTC_ITConfig) for RTC_ITConfig
    rtc.o(i.RTC_Config) refers to stm32f10x_rtc.o(i.RTC_SetPrescaler) for RTC_SetPrescaler
    rtc.o(i.RTC_Get) refers to rtc.o(i.RTC_Set) for RTC_Set
    rtc.o(i.RTC_Get) refers to stm32f10x_rtc.o(i.RTC_GetCounter) for RTC_GetCounter
    rtc.o(i.RTC_Get) refers to rtc.o(i.Is_Leap_Year) for Is_Leap_Year
    rtc.o(i.RTC_Get) refers to rtc.o(i.RTC_Get_Week) for RTC_Get_Week
    rtc.o(i.RTC_Get) refers to ladder.o(.constdata) for PLC_BIT_OR
    rtc.o(i.RTC_Get) refers to plc_com.o(.ARM.__AT_0x20001000) for plc_16BitBuf
    rtc.o(i.RTC_Get) refers to rtc.o(.data) for .data
    rtc.o(i.RTC_Get) refers to rtc.o(.constdata) for .constdata
    rtc.o(i.RTC_Get_Week) refers to rtc.o(.data) for .data
    rtc.o(i.RTC_Init) refers to stm32f10x_bkp.o(i.BKP_ReadBackupRegister) for BKP_ReadBackupRegister
    rtc.o(i.RTC_Init) refers to rtc.o(i.RTC_Config) for RTC_Config
    rtc.o(i.RTC_Init) refers to stm32f10x_bkp.o(i.BKP_WriteBackupRegister) for BKP_WriteBackupRegister
    rtc.o(i.RTC_Init) refers to stm32f10x_rcc.o(i.RCC_APB1PeriphClockCmd) for RCC_APB1PeriphClockCmd
    rtc.o(i.RTC_Init) refers to stm32f10x_rcc.o(i.RCC_GetFlagStatus) for RCC_GetFlagStatus
    rtc.o(i.RTC_Init) refers to stm32f10x_rcc.o(i.RCC_ClearFlag) for RCC_ClearFlag
    rtc.o(i.RTC_Init) refers to stm32f10x_rtc.o(i.RTC_ITConfig) for RTC_ITConfig
    rtc.o(i.RTC_Init) refers to stm32f10x_rtc.o(i.RTC_WaitForLastTask) for RTC_WaitForLastTask
    rtc.o(i.RTC_Init) refers to ladder.o(.constdata) for PLC_BIT_OR
    rtc.o(i.RTC_Set) refers to rtc.o(i.Is_Leap_Year) for Is_Leap_Year
    rtc.o(i.RTC_Set) refers to stm32f10x_pwr.o(i.PWR_BackupAccessCmd) for PWR_BackupAccessCmd
    rtc.o(i.RTC_Set) refers to stm32f10x_rtc.o(i.RTC_WaitForLastTask) for RTC_WaitForLastTask
    rtc.o(i.RTC_Set) refers to stm32f10x_rtc.o(i.RTC_SetCounter) for RTC_SetCounter
    rtc.o(i.RTC_Set) refers to rtc.o(.constdata) for .constdata
    plc_io.o(i.EXTI9_5_IRQHandler) refers to plc_io.o(.data) for .data
    plc_io.o(i.PLC_IO_Refresh) refers to plc_com.o(.ARM.__AT_0x20001000) for plc_16BitBuf
    plc_io.o(i.PLC_IO_Refresh) refers to plc_io.o(.data) for .data
    plc_io.o(i.PLC_IO_config) refers to stm32f10x_rcc.o(i.RCC_APB2PeriphClockCmd) for RCC_APB2PeriphClockCmd
    plc_io.o(i.PLC_IO_config) refers to plc_io.o(i.PLC_Y_config) for PLC_Y_config
    plc_io.o(i.PLC_IO_config) refers to plc_io.o(i.PLC_IO_Refresh) for PLC_IO_Refresh
    plc_io.o(i.PLC_IO_config) refers to plc_io.o(i.PLC_X_config) for PLC_X_config
    plc_io.o(i.PLC_IO_config) refers to plc_io.o(i.PLC_Mode_config) for PLC_Mode_config
    plc_io.o(i.PLC_Mode_config) refers to stm32f10x_gpio.o(i.GPIO_PinRemapConfig) for GPIO_PinRemapConfig
    plc_io.o(i.PLC_Mode_config) refers to stm32f10x_gpio.o(i.GPIO_Init) for GPIO_Init
    plc_io.o(i.PLC_Mode_config) refers to stm32f10x_gpio.o(i.GPIO_EXTILineConfig) for GPIO_EXTILineConfig
    plc_io.o(i.PLC_Mode_config) refers to stm32f10x_exti.o(i.EXTI_ClearITPendingBit) for EXTI_ClearITPendingBit
    plc_io.o(i.PLC_Mode_config) refers to stm32f10x_exti.o(i.EXTI_Init) for EXTI_Init
    plc_io.o(i.PLC_Mode_config) refers to misc.o(i.NVIC_Init) for NVIC_Init
    plc_io.o(i.PLC_X_config) refers to stm32f10x_gpio.o(i.GPIO_Init) for GPIO_Init
    plc_io.o(i.PLC_Y_config) refers to stm32f10x_gpio.o(i.GPIO_Init) for GPIO_Init
    plc_io.o(i.X_filter) refers to plc_com.o(.ARM.__AT_0x20001000) for plc_16BitBuf
    plc_io.o(i.X_filter) refers to plc_io.o(.data) for .data
    plc_io.o(i.X_filter) refers to plc_io.o(.bss) for .bss
    nvic_interrupt.o(i.NVIC_Confinguration) refers to misc.o(i.NVIC_SetVectorTable) for NVIC_SetVectorTable
    nvic_interrupt.o(i.NVIC_Confinguration) refers to misc.o(i.NVIC_PriorityGroupConfig) for NVIC_PriorityGroupConfig
    nvic_interrupt.o(i.NVIC_Confinguration) refers to misc.o(i.NVIC_Init) for NVIC_Init
    plc_timer.o(i.T_100MS) refers to plc_com.o(.ARM.__AT_0x20001000) for plc_16BitBuf
    plc_timer.o(i.T_100MS) refers to ladder.o(.constdata) for PLC_BIT_OR
    plc_timer.o(i.T_100MS) refers to plc_timer.o(.data) for .data
    plc_timer.o(i.T_10MS) refers to plc_com.o(.ARM.__AT_0x20001000) for plc_16BitBuf
    plc_timer.o(i.T_10MS) refers to ladder.o(.constdata) for PLC_BIT_OR
    plc_timer.o(i.T_10MS) refers to plc_timer.o(.data) for .data
    plc_timer.o(i.T_1MS) refers to plc_com.o(.ARM.__AT_0x20001000) for plc_16BitBuf
    plc_timer.o(i.T_1MS) refers to ladder.o(.constdata) for PLC_BIT_OR
    plc_timer.o(i.T_1MS) refers to plc_timer.o(.data) for .data
    plc_timer.o(i.T_H100MS) refers to plc_com.o(.ARM.__AT_0x20001000) for plc_16BitBuf
    plc_timer.o(i.T_H100MS) refers to ladder.o(.constdata) for PLC_BIT_OR
    plc_timer.o(i.T_H100MS) refers to plc_timer.o(.data) for .data
    plc_timer.o(i.timer_disble) refers to plc_com.o(.ARM.__AT_0x20001000) for plc_16BitBuf
    plc_timer.o(i.timer_disble) refers to plc_timer.o(.data) for .data
    plc_timer.o(i.timer_disble) refers to ladder.o(.constdata) for PLC_BIT_AND
    plc_timer.o(i.timer_enable) refers to plc_com.o(.ARM.__AT_0x20001000) for plc_16BitBuf
    plc_timer.o(i.timer_enable) refers to plc_timer.o(.data) for .data
    plc_timer.o(i.timer_enable) refers to ladder.o(.constdata) for PLC_BIT_OR
    plc_other.o(i.Flash_EraseProgramPage) refers to stm32f10x_flash.o(i.FLASH_Unlock) for FLASH_Unlock
    plc_other.o(i.Flash_EraseProgramPage) refers to stm32f10x_flash.o(i.FLASH_GetWriteProtectionOptionByte) for FLASH_GetWriteProtectionOptionByte
    plc_other.o(i.Flash_EraseProgramPage) refers to stm32f10x_flash.o(i.FLASH_ClearFlag) for FLASH_ClearFlag
    plc_other.o(i.Flash_EraseProgramPage) refers to stm32f10x_flash.o(i.FLASH_EraseOptionBytes) for FLASH_EraseOptionBytes
    plc_other.o(i.Flash_EraseProgramPage) refers to stm32f10x_flash.o(i.FLASH_ErasePage) for FLASH_ErasePage
    plc_other.o(i.Flash_EraseProgramPage) refers to stm32f10x_flash.o(i.FLASH_Lock) for FLASH_Lock
    plc_other.o(i.Flash_ReadKeepData) refers to rt_memcpy_v6.o(.text) for __aeabi_memcpy
    plc_other.o(i.Flash_ReadKeepData) refers to plc_other.o(i.IsDataInvalid) for IsDataInvalid
    plc_other.o(i.Flash_ReadKeepData) refers to memcmp.o(.text) for memcmp
    plc_other.o(i.Flash_ReadKeepData) refers to plc_other.o(i.Flash_WriteKeepData_Backup) for Flash_WriteKeepData_Backup
    plc_other.o(i.Flash_ReadKeepData) refers to rt_memclr.o(.text) for __aeabi_memclr
    plc_other.o(i.Flash_ReadKeepData) refers to plc_com.o(.bss) for prog_write_buffer
    plc_other.o(i.Flash_WriteKeepData) refers to plc_other.o(i.Flash_EraseProgramPage) for Flash_EraseProgramPage
    plc_other.o(i.Flash_WriteKeepData) refers to stm32f10x_flash.o(i.FLASH_Unlock) for FLASH_Unlock
    plc_other.o(i.Flash_WriteKeepData) refers to stm32f10x_flash.o(i.FLASH_ProgramWord) for FLASH_ProgramWord
    plc_other.o(i.Flash_WriteKeepData) refers to stm32f10x_flash.o(i.FLASH_ProgramHalfWord) for FLASH_ProgramHalfWord
    plc_other.o(i.Flash_WriteKeepData) refers to stm32f10x_flash.o(i.FLASH_Lock) for FLASH_Lock
    plc_other.o(i.Flash_WriteKeepData) refers to plc_com.o(.bss) for prog_write_buffer
    plc_other.o(i.Flash_WriteKeepData_Backup) refers to plc_other.o(i.Flash_EraseProgramPage) for Flash_EraseProgramPage
    plc_other.o(i.Flash_WriteKeepData_Backup) refers to stm32f10x_flash.o(i.FLASH_Unlock) for FLASH_Unlock
    plc_other.o(i.Flash_WriteKeepData_Backup) refers to stm32f10x_flash.o(i.FLASH_ProgramWord) for FLASH_ProgramWord
    plc_other.o(i.Flash_WriteKeepData_Backup) refers to stm32f10x_flash.o(i.FLASH_ProgramHalfWord) for FLASH_ProgramHalfWord
    plc_other.o(i.Flash_WriteKeepData_Backup) refers to stm32f10x_flash.o(i.FLASH_Lock) for FLASH_Lock
    plc_other.o(i.Flash_WriteKeepData_Backup) refers to plc_com.o(.bss) for prog_write_buffer
    plc_other.o(i.PLC_COMM_ERROR) refers to ladder.o(.constdata) for PLC_BIT_OR
    plc_other.o(i.PLC_COMM_ERROR) refers to plc_com.o(.ARM.__AT_0x20001000) for plc_16BitBuf
    plc_other.o(i.PLC_ReadKeepData) refers to plc_other.o(i.Flash_ReadKeepData) for Flash_ReadKeepData
    plc_other.o(i.PLC_ReadKeepData) refers to plc_com.o(.bss) for prog_write_buffer
    plc_other.o(i.PLC_ReadKeepData) refers to plc_com.o(.ARM.__AT_0x20001000) for plc_16BitBuf
    plc_other.o(i.PLC_SaveKeepData) refers to plc_other.o(i.Flash_WriteKeepData) for Flash_WriteKeepData
    plc_other.o(i.PLC_SaveKeepData) refers to plc_com.o(.ARM.__AT_0x20001000) for plc_16BitBuf
    plc_other.o(i.PLC_SaveKeepData) refers to plc_com.o(.bss) for prog_write_buffer
    plc_other.o(i.RST_T_D_C_M_data) refers to plc_com.o(.ARM.__AT_0x20001000) for plc_16BitBuf
    ladder.o(i.ALT) refers to ladder.o(i.addr_value) for addr_value
    ladder.o(i.ALT) refers to ladder.o(.data) for .data
    ladder.o(i.ALT) refers to ladder.o(.constdata) for .constdata
    ladder.o(i.AND) refers to ladder.o(.constdata) for .constdata
    ladder.o(i.AND) refers to ladder.o(.data) for .data
    ladder.o(i.ANDF) refers to ladder.o(i.PLC_PL_BIT_TEST) for PLC_PL_BIT_TEST
    ladder.o(i.ANDF) refers to ladder.o(i.PLC_LD_BIT) for PLC_LD_BIT
    ladder.o(i.ANDF) refers to ladder.o(.data) for .data
    ladder.o(i.ANDF) refers to plc_com.o(.bss) for step_address
    ladder.o(i.ANDF) refers to ladder.o(.constdata) for .constdata
    ladder.o(i.ANDP) refers to ladder.o(i.PLC_PL_BIT_TEST) for PLC_PL_BIT_TEST
    ladder.o(i.ANDP) refers to ladder.o(i.PLC_LD_BIT) for PLC_LD_BIT
    ladder.o(i.ANDP) refers to ladder.o(.data) for .data
    ladder.o(i.ANDP) refers to plc_com.o(.bss) for step_address
    ladder.o(i.ANDP) refers to ladder.o(.constdata) for .constdata
    ladder.o(i.ANI) refers to ladder.o(.constdata) for .constdata
    ladder.o(i.ANI) refers to ladder.o(.data) for .data
    ladder.o(i.BCD) refers to ladder.o(i.cos_value) for cos_value
    ladder.o(i.BCD) refers to ladder.o(i.target) for target
    ladder.o(i.BCD) refers to ladder.o(.data) for .data
    ladder.o(i.BIN) refers to ladder.o(i.cos_value) for cos_value
    ladder.o(i.BIN) refers to ladder.o(i.target) for target
    ladder.o(i.BIN) refers to ladder.o(.data) for .data
    ladder.o(i.BIT_SET) refers to ladder.o(.data) for .data
    ladder.o(i.BIT_SET) refers to ladder.o(.constdata) for .constdata
    ladder.o(i.BIT_SET) refers to ladder.o(.bss) for .bss
    ladder.o(i.BMOV) refers to ladder.o(i.cos_value) for cos_value
    ladder.o(i.BMOV) refers to ladder.o(i.target) for target
    ladder.o(i.BMOV) refers to ladder.o(.data) for .data
    ladder.o(i.BtoG) refers to ladder.o(i.b2g) for b2g
    ladder.o(i.CALL_EX) refers to ladder.o(.data) for .data
    ladder.o(i.CALL_EX) refers to ladder.o(.bss) for .bss
    ladder.o(i.CJ_EX) refers to ladder.o(.data) for .data
    ladder.o(i.CJ_EX) refers to ladder.o(.bss) for .bss
    ladder.o(i.CMP) refers to ladder.o(i.cos_value) for cos_value
    ladder.o(i.CMP) refers to ladder.o(i.addr_value) for addr_value
    ladder.o(i.CMP) refers to ladder.o(.data) for .data
    ladder.o(i.CMP) refers to ladder.o(.constdata) for .constdata
    ladder.o(i.CMPP) refers to ladder.o(i.PLC_LDP_TEST) for PLC_LDP_TEST
    ladder.o(i.CMPP) refers to ladder.o(i.cos_value) for cos_value
    ladder.o(i.CMPP) refers to ladder.o(i.addr_value) for addr_value
    ladder.o(i.CMPP) refers to ladder.o(.data) for .data
    ladder.o(i.CMPP) refers to ladder.o(.constdata) for .constdata
    ladder.o(i.C_given_value_D) refers to ladder.o(i.enable_C_D) for enable_C_D
    ladder.o(i.C_given_value_D) refers to ladder.o(i.disable_C_D) for disable_C_D
    ladder.o(i.C_given_value_D) refers to ladder.o(.data) for .data
    ladder.o(i.DBCD) refers to ladder.o(i.cos_u32_value) for cos_u32_value
    ladder.o(i.DBCD) refers to ladder.o(i.D_target) for D_target
    ladder.o(i.DBCD) refers to ladder.o(.data) for .data
    ladder.o(i.DBIN) refers to ladder.o(i.cos_u32_value) for cos_u32_value
    ladder.o(i.DBIN) refers to ladder.o(i.D_target) for D_target
    ladder.o(i.DBIN) refers to ladder.o(.data) for .data
    ladder.o(i.DCMP) refers to ladder.o(i.cos_u32_value) for cos_u32_value
    ladder.o(i.DCMP) refers to ladder.o(i.addr_value) for addr_value
    ladder.o(i.DCMP) refers to ladder.o(.data) for .data
    ladder.o(i.DCMP) refers to ladder.o(.constdata) for .constdata
    ladder.o(i.DCMPP) refers to ladder.o(i.PLC_LDP_TEST) for PLC_LDP_TEST
    ladder.o(i.DCMPP) refers to ladder.o(i.cos_u32_value) for cos_u32_value
    ladder.o(i.DCMPP) refers to ladder.o(i.addr_value) for addr_value
    ladder.o(i.DCMPP) refers to ladder.o(.data) for .data
    ladder.o(i.DCMPP) refers to ladder.o(.constdata) for .constdata
    ladder.o(i.DDIV) refers to ladder.o(i.cos_u32_value) for cos_u32_value
    ladder.o(i.DDIV) refers to ladder.o(i.addr_value) for addr_value
    ladder.o(i.DDIV) refers to ladder.o(.data) for .data
    ladder.o(i.DDIV) refers to plc_com.o(.ARM.__AT_0x20001000) for plc_16BitBuf
    ladder.o(i.DECO) refers to ladder.o(i.cos_value) for cos_value
    ladder.o(i.DECO) refers to ladder.o(i.Special_cos_value) for Special_cos_value
    ladder.o(i.DECO) refers to ladder.o(i.SpecialTarget) for SpecialTarget
    ladder.o(i.DECO) refers to ladder.o(.data) for .data
    ladder.o(i.DECO) refers to ladder.o(.constdata) for .constdata
    ladder.o(i.DFMOV) refers to ladder.o(i.cos_u32_value) for cos_u32_value
    ladder.o(i.DFMOV) refers to ladder.o(i.D_target) for D_target
    ladder.o(i.DFMOV) refers to ladder.o(.data) for .data
    ladder.o(i.DINC_P) refers to ladder.o(i.PLC_PL_BIT_TEST) for PLC_PL_BIT_TEST
    ladder.o(i.DINC_P) refers to ladder.o(i.cos_u32_value) for cos_u32_value
    ladder.o(i.DINC_P) refers to ladder.o(i.D_target) for D_target
    ladder.o(i.DINC_P) refers to ladder.o(.data) for .data
    ladder.o(i.DINC_P) refers to plc_com.o(.bss) for step_address
    ladder.o(i.DINC_P) refers to ladder.o(.constdata) for .constdata
    ladder.o(i.DMUL) refers to ladder.o(i.cos_u32_value) for cos_u32_value
    ladder.o(i.DMUL) refers to ladder.o(i.addr_value) for addr_value
    ladder.o(i.DMUL) refers to ladder.o(.data) for .data
    ladder.o(i.DMUL) refers to plc_com.o(.ARM.__AT_0x20001000) for plc_16BitBuf
    ladder.o(i.DZ0_Z3) refers to plc_com.o(.ARM.__AT_0x20001000) for plc_16BitBuf
    ladder.o(i.DZ4_Z7) refers to plc_com.o(.ARM.__AT_0x20001000) for plc_16BitBuf
    ladder.o(i.DZCP) refers to ladder.o(i.cos_u32_value) for cos_u32_value
    ladder.o(i.DZCP) refers to ladder.o(i.addr_value) for addr_value
    ladder.o(i.DZCP) refers to ladder.o(.data) for .data
    ladder.o(i.DZCP) refers to ladder.o(.constdata) for .constdata
    ladder.o(i.D_C_T_addr) refers to ladder.o(.data) for .data
    ladder.o(i.D_target) refers to ladder.o(i.MOV_TO_K_H) for MOV_TO_K_H
    ladder.o(i.D_target) refers to ladder.o(i.DZ0_Z3) for DZ0_Z3
    ladder.o(i.D_target) refers to ladder.o(i.DZ4_Z7) for DZ4_Z7
    ladder.o(i.D_target) refers to ladder.o(.data) for .data
    ladder.o(i.Damount) refers to ladder.o(i.cos_u32_value) for cos_u32_value
    ladder.o(i.Damount) refers to ladder.o(.data) for .data
    ladder.o(i.Damount) refers to ladder.o(.constdata) for .constdata
    ladder.o(i.Dbig) refers to ladder.o(i.cos_u32_value) for cos_u32_value
    ladder.o(i.Dbig) refers to ladder.o(.data) for .data
    ladder.o(i.Dbig) refers to ladder.o(.constdata) for .constdata
    ladder.o(i.Dbig_amount) refers to ladder.o(i.cos_u32_value) for cos_u32_value
    ladder.o(i.Dbig_amount) refers to ladder.o(.data) for .data
    ladder.o(i.Dbig_amount) refers to ladder.o(.constdata) for .constdata
    ladder.o(i.Dless) refers to ladder.o(i.cos_u32_value) for cos_u32_value
    ladder.o(i.Dless) refers to ladder.o(.data) for .data
    ladder.o(i.Dless) refers to ladder.o(.constdata) for .constdata
    ladder.o(i.Dless_amount) refers to ladder.o(i.cos_u32_value) for cos_u32_value
    ladder.o(i.Dless_amount) refers to ladder.o(.data) for .data
    ladder.o(i.Dless_amount) refers to ladder.o(.constdata) for .constdata
    ladder.o(i.Dno_amount) refers to ladder.o(i.cos_u32_value) for cos_u32_value
    ladder.o(i.Dno_amount) refers to ladder.o(.data) for .data
    ladder.o(i.Dno_amount) refers to ladder.o(.constdata) for .constdata
    ladder.o(i.ECMP) refers to ladder.o(i.float_value) for float_value
    ladder.o(i.ECMP) refers to ladder.o(i.addr_value) for addr_value
    ladder.o(i.ECMP) refers to frleqf.o(x$fpl$frleqf) for __aeabi_cfrcmple
    ladder.o(i.ECMP) refers to feqf.o(x$fpl$feqf) for __aeabi_cfcmpeq
    ladder.o(i.ECMP) refers to fleqf.o(x$fpl$fleqf) for __aeabi_cfcmple
    ladder.o(i.ECMP) refers to ladder.o(.data) for .data
    ladder.o(i.ECMP) refers to ladder.o(.constdata) for .constdata
    ladder.o(i.ENCO) refers to ladder.o(i.cos_value) for cos_value
    ladder.o(i.ENCO) refers to ladder.o(i.Special_cos_value) for Special_cos_value
    ladder.o(i.ENCO) refers to ladder.o(i.SpecialTarget) for SpecialTarget
    ladder.o(i.ENCO) refers to ladder.o(.data) for .data
    ladder.o(i.ENCO) refers to ladder.o(.constdata) for .constdata
    ladder.o(i.EZCP) refers to ladder.o(i.float_value) for float_value
    ladder.o(i.EZCP) refers to ladder.o(i.addr_value) for addr_value
    ladder.o(i.EZCP) refers to frleqf.o(x$fpl$frleqf) for __aeabi_cfrcmple
    ladder.o(i.EZCP) refers to fleqf.o(x$fpl$fleqf) for __aeabi_cfcmple
    ladder.o(i.EZCP) refers to ladder.o(.data) for .data
    ladder.o(i.EZCP) refers to ladder.o(.constdata) for .constdata
    ladder.o(i.FMOV) refers to ladder.o(i.cos_value) for cos_value
    ladder.o(i.FMOV) refers to ladder.o(i.target) for target
    ladder.o(i.FMOV) refers to ladder.o(.data) for .data
    ladder.o(i.FNC_AppInstruct) refers to ladder.o(i.PLC_PROG_ERROR) for PLC_PROG_ERROR
    ladder.o(i.FNC_AppInstruct) refers to ladder.o(i.expand_OUT) for expand_OUT
    ladder.o(i.FNC_AppInstruct) refers to ladder.o(i.expand_SET) for expand_SET
    ladder.o(i.FNC_AppInstruct) refers to ladder.o(i.expand_RST) for expand_RST
    ladder.o(i.FNC_AppInstruct) refers to ladder.o(i.LPS) for LPS
    ladder.o(i.FNC_AppInstruct) refers to ladder.o(i.LPF) for LPF
    ladder.o(i.FNC_AppInstruct) refers to ladder.o(i.Func_MC) for Func_MC
    ladder.o(i.FNC_AppInstruct) refers to ladder.o(i.Func_MCR) for Func_MCR
    ladder.o(i.FNC_AppInstruct) refers to ladder.o(i.RESET_C) for RESET_C
    ladder.o(i.FNC_AppInstruct) refers to ladder.o(i.RESET_T) for RESET_T
    ladder.o(i.FNC_AppInstruct) refers to ladder.o(i.RST_D) for RST_D
    ladder.o(i.FNC_AppInstruct) refers to ladder.o(i.CJ_EX) for CJ_EX
    ladder.o(i.FNC_AppInstruct) refers to ladder.o(i.PLC_LDP_TEST) for PLC_LDP_TEST
    ladder.o(i.FNC_AppInstruct) refers to ladder.o(i.CALL_EX) for CALL_EX
    ladder.o(i.FNC_AppInstruct) refers to ladder.o(.data) for .data
    ladder.o(i.FNC_AppInstruct) refers to plc_com.o(.ARM.__AT_0x20001000) for plc_16BitBuf
    ladder.o(i.FNC_AppInstruct) refers to ladder.o(i.FOR) for FOR
    ladder.o(i.FNC_AppInstruct) refers to ladder.o(i.CMP) for CMP
    ladder.o(i.FNC_AppInstruct) refers to ladder.o(i.CMPP) for CMPP
    ladder.o(i.FNC_AppInstruct) refers to ladder.o(i.DCMP) for DCMP
    ladder.o(i.FNC_AppInstruct) refers to ladder.o(i.DCMPP) for DCMPP
    ladder.o(i.FNC_AppInstruct) refers to ladder.o(i.ZCP) for ZCP
    ladder.o(i.FNC_AppInstruct) refers to ladder.o(i.DZCP) for DZCP
    ladder.o(i.FNC_AppInstruct) refers to ladder.o(i.cos_value) for cos_value
    ladder.o(i.FNC_AppInstruct) refers to ladder.o(i.cos_u32_value) for cos_u32_value
    ladder.o(i.FNC_AppInstruct) refers to ladder.o(i.SMOV) for SMOV
    ladder.o(i.FNC_AppInstruct) refers to ladder.o(i.BMOV) for BMOV
    ladder.o(i.FNC_AppInstruct) refers to ladder.o(i.FMOV) for FMOV
    ladder.o(i.FNC_AppInstruct) refers to ladder.o(i.DFMOV) for DFMOV
    ladder.o(i.FNC_AppInstruct) refers to ladder.o(i.D_target) for D_target
    ladder.o(i.FNC_AppInstruct) refers to ladder.o(i.BCD) for BCD
    ladder.o(i.FNC_AppInstruct) refers to ladder.o(i.DBCD) for DBCD
    ladder.o(i.FNC_AppInstruct) refers to ladder.o(i.BIN) for BIN
    ladder.o(i.FNC_AppInstruct) refers to ladder.o(i.DBIN) for DBIN
    ladder.o(i.FNC_AppInstruct) refers to ladder.o(i.addr_value_prog) for addr_value_prog
    ladder.o(i.FNC_AppInstruct) refers to ladder.o(i.DMUL) for DMUL
    ladder.o(i.FNC_AppInstruct) refers to ladder.o(i.addr_value) for addr_value
    ladder.o(i.FNC_AppInstruct) refers to ladder.o(i.DDIV) for DDIV
    ladder.o(i.FNC_AppInstruct) refers to ladder.o(i.DINC_P) for DINC_P
    ladder.o(i.FNC_AppInstruct) refers to ladder.o(i.target) for target
    ladder.o(i.FNC_AppInstruct) refers to ladder.o(.bss) for .bss
    ladder.o(i.FNC_AppInstruct) refers to ladder.o(i.DECO) for DECO
    ladder.o(i.FNC_AppInstruct) refers to ladder.o(i.ENCO) for ENCO
    ladder.o(i.FNC_AppInstruct) refers to ladder.o(i.MEAN) for MEAN
    ladder.o(i.FNC_AppInstruct) refers to dflt_clz.o(x$fpl$dflt) for __aeabi_i2d
    ladder.o(i.FNC_AppInstruct) refers to sqrt.o(i.sqrt) for sqrt
    ladder.o(i.FNC_AppInstruct) refers to dfixu.o(x$fpl$dfixu) for __aeabi_d2uiz
    ladder.o(i.FNC_AppInstruct) refers to fflt_clz.o(x$fpl$fflt) for __aeabi_i2f
    ladder.o(i.FNC_AppInstruct) refers to ladder.o(i.float_target) for float_target
    ladder.o(i.FNC_AppInstruct) refers to ladder.o(i.MTR) for MTR
    ladder.o(i.FNC_AppInstruct) refers to ladder.o(i.PWM) for PWM
    ladder.o(i.FNC_AppInstruct) refers to ladder.o(i.PLSY) for PLSY
    ladder.o(i.FNC_AppInstruct) refers to ladder.o(i.ALT) for ALT
    ladder.o(i.FNC_AppInstruct) refers to ladder.o(i.RS) for RS
    ladder.o(i.FNC_AppInstruct) refers to ladder.o(i.PID) for PID
    ladder.o(i.FNC_AppInstruct) refers to ladder.o(i.ECMP) for ECMP
    ladder.o(i.FNC_AppInstruct) refers to ladder.o(i.EZCP) for EZCP
    ladder.o(i.FNC_AppInstruct) refers to ladder.o(i.float_value) for float_value
    ladder.o(i.FNC_AppInstruct) refers to ffixu.o(x$fpl$ffixu) for __aeabi_f2uiz
    ladder.o(i.FNC_AppInstruct) refers to faddsub_clz.o(x$fpl$fadd) for __aeabi_fadd
    ladder.o(i.FNC_AppInstruct) refers to faddsub_clz.o(x$fpl$fsub) for __aeabi_fsub
    ladder.o(i.FNC_AppInstruct) refers to fdiv.o(x$fpl$fdiv) for __aeabi_fdiv
    ladder.o(i.FNC_AppInstruct) refers to fmul.o(x$fpl$fmul) for __aeabi_fmul
    ladder.o(i.FNC_AppInstruct) refers to f2d.o(x$fpl$f2d) for __aeabi_f2d
    ladder.o(i.FNC_AppInstruct) refers to sin.o(i.sin) for sin
    ladder.o(i.FNC_AppInstruct) refers to cos.o(i.cos) for cos
    ladder.o(i.FNC_AppInstruct) refers to tan.o(i.tan) for tan
    ladder.o(i.FNC_AppInstruct) refers to d2f.o(x$fpl$d2f) for __aeabi_d2f
    ladder.o(i.FNC_AppInstruct) refers to ladder.o(i.TCMP) for TCMP
    ladder.o(i.FNC_AppInstruct) refers to ladder.o(i.TZCP) for TZCP
    ladder.o(i.FNC_AppInstruct) refers to ladder.o(i.TADD) for TADD
    ladder.o(i.FNC_AppInstruct) refers to ladder.o(i.TSUB) for TSUB
    ladder.o(i.FNC_AppInstruct) refers to ladder.o(i.TRD) for TRD
    ladder.o(i.FNC_AppInstruct) refers to ladder.o(i.TWR) for TWR
    ladder.o(i.FNC_AppInstruct) refers to ladder.o(i.BtoG) for BtoG
    ladder.o(i.FNC_AppInstruct) refers to ladder.o(i.GtoB) for GtoB
    ladder.o(i.FNC_AppInstruct) refers to ladder.o(i.expand_LD) for expand_LD
    ladder.o(i.FNC_AppInstruct) refers to ladder.o(i.expand_LDI) for expand_LDI
    ladder.o(i.FNC_AppInstruct) refers to ladder.o(i.expand_AND) for expand_AND
    ladder.o(i.FNC_AppInstruct) refers to ladder.o(i.expand_ANI) for expand_ANI
    ladder.o(i.FNC_AppInstruct) refers to ladder.o(i.expand_OR) for expand_OR
    ladder.o(i.FNC_AppInstruct) refers to ladder.o(i.expand_ORI) for expand_ORI
    ladder.o(i.FNC_AppInstruct) refers to ladder.o(i.LDP) for LDP
    ladder.o(i.FNC_AppInstruct) refers to ladder.o(i.LDF) for LDF
    ladder.o(i.FNC_AppInstruct) refers to ladder.o(i.ANDP) for ANDP
    ladder.o(i.FNC_AppInstruct) refers to ladder.o(i.ANDF) for ANDF
    ladder.o(i.FNC_AppInstruct) refers to ladder.o(i.ORP) for ORP
    ladder.o(i.FNC_AppInstruct) refers to ladder.o(i.ORF) for ORF
    ladder.o(i.FNC_AppInstruct) refers to ladder.o(.constdata) for .constdata
    ladder.o(i.FNC_AppInstruct) refers to plc_io.o(.data) for X_DIY
    ladder.o(i.FNC_AppInstruct) refers to ladder.o(i.amount) for amount
    ladder.o(i.FNC_AppInstruct) refers to ladder.o(i.Damount) for Damount
    ladder.o(i.FNC_AppInstruct) refers to ladder.o(i.big) for big
    ladder.o(i.FNC_AppInstruct) refers to ladder.o(i.Dbig) for Dbig
    ladder.o(i.FNC_AppInstruct) refers to ladder.o(i.less) for less
    ladder.o(i.FNC_AppInstruct) refers to ladder.o(i.Dless) for Dless
    ladder.o(i.FNC_AppInstruct) refers to ladder.o(i.no_amount) for no_amount
    ladder.o(i.FNC_AppInstruct) refers to ladder.o(i.Dno_amount) for Dno_amount
    ladder.o(i.FNC_AppInstruct) refers to ladder.o(i.less_amount) for less_amount
    ladder.o(i.FNC_AppInstruct) refers to ladder.o(i.Dless_amount) for Dless_amount
    ladder.o(i.FNC_AppInstruct) refers to ladder.o(i.big_amount) for big_amount
    ladder.o(i.FNC_AppInstruct) refers to ladder.o(i.Dbig_amount) for Dbig_amount
    ladder.o(i.FOR) refers to ladder.o(i.cos_value) for cos_value
    ladder.o(i.FOR) refers to ladder.o(.data) for .data
    ladder.o(i.FOR) refers to ladder.o(.bss) for .bss
    ladder.o(i.Func_MC) refers to ladder.o(.data) for .data
    ladder.o(i.Func_MCR) refers to ladder.o(.data) for .data
    ladder.o(i.GtoB) refers to ladder.o(i.g2b) for g2b
    ladder.o(i.LD) refers to ladder.o(.data) for .data
    ladder.o(i.LD) refers to ladder.o(.constdata) for .constdata
    ladder.o(i.LDF) refers to ladder.o(i.PLC_PL_BIT_TEST) for PLC_PL_BIT_TEST
    ladder.o(i.LDF) refers to ladder.o(i.PLC_LD_BIT) for PLC_LD_BIT
    ladder.o(i.LDF) refers to ladder.o(.data) for .data
    ladder.o(i.LDF) refers to plc_com.o(.bss) for step_address
    ladder.o(i.LDF) refers to ladder.o(.constdata) for .constdata
    ladder.o(i.LDI) refers to ladder.o(.data) for .data
    ladder.o(i.LDI) refers to ladder.o(.constdata) for .constdata
    ladder.o(i.LDP) refers to ladder.o(i.PLC_PL_BIT_TEST) for PLC_PL_BIT_TEST
    ladder.o(i.LDP) refers to ladder.o(i.PLC_LD_BIT) for PLC_LD_BIT
    ladder.o(i.LDP) refers to ladder.o(.data) for .data
    ladder.o(i.LDP) refers to plc_com.o(.bss) for step_address
    ladder.o(i.LDP) refers to ladder.o(.constdata) for .constdata
    ladder.o(i.LPF) refers to ladder.o(i.PLC_PL_BIT_TEST) for PLC_PL_BIT_TEST
    ladder.o(i.LPF) refers to ladder.o(.data) for .data
    ladder.o(i.LPF) refers to plc_com.o(.bss) for step_address
    ladder.o(i.LPF) refers to ladder.o(.constdata) for .constdata
    ladder.o(i.LPS) refers to ladder.o(i.PLC_PL_BIT_TEST) for PLC_PL_BIT_TEST
    ladder.o(i.LPS) refers to ladder.o(.data) for .data
    ladder.o(i.LPS) refers to plc_com.o(.bss) for step_address
    ladder.o(i.LPS) refers to ladder.o(.constdata) for .constdata
    ladder.o(i.MEAN) refers to ladder.o(i.addr_value_prog) for addr_value_prog
    ladder.o(i.MEAN) refers to ladder.o(i.cos_value) for cos_value
    ladder.o(i.MEAN) refers to lludivv7m.o(.text) for __aeabi_uldivmod
    ladder.o(i.MEAN) refers to ladder.o(i.target) for target
    ladder.o(i.MEAN) refers to ladder.o(.data) for .data
    ladder.o(i.MOV_K) refers to llushr.o(.text) for __aeabi_llsr
    ladder.o(i.MOV_K) refers to ladder.o(.data) for .data
    ladder.o(i.MOV_TO_K_H) refers to llshl.o(.text) for __aeabi_llsl
    ladder.o(i.MOV_TO_K_H) refers to ladder.o(.data) for .data
    ladder.o(i.MTR) refers to ladder.o(i.addr_value) for addr_value
    ladder.o(i.MTR) refers to ladder.o(i.cos_value) for cos_value
    ladder.o(i.MTR) refers to ladder.o(.data) for .data
    ladder.o(i.MTR) refers to ladder.o(.constdata) for .constdata
    ladder.o(i.OR) refers to ladder.o(.constdata) for .constdata
    ladder.o(i.OR) refers to ladder.o(.data) for .data
    ladder.o(i.ORF) refers to ladder.o(i.PLC_PL_BIT_TEST) for PLC_PL_BIT_TEST
    ladder.o(i.ORF) refers to ladder.o(i.PLC_LD_BIT) for PLC_LD_BIT
    ladder.o(i.ORF) refers to ladder.o(.data) for .data
    ladder.o(i.ORF) refers to plc_com.o(.bss) for step_address
    ladder.o(i.ORF) refers to ladder.o(.constdata) for .constdata
    ladder.o(i.ORI) refers to ladder.o(.constdata) for .constdata
    ladder.o(i.ORI) refers to ladder.o(.data) for .data
    ladder.o(i.ORP) refers to ladder.o(i.PLC_PL_BIT_TEST) for PLC_PL_BIT_TEST
    ladder.o(i.ORP) refers to ladder.o(i.PLC_LD_BIT) for PLC_LD_BIT
    ladder.o(i.ORP) refers to ladder.o(.data) for .data
    ladder.o(i.ORP) refers to plc_com.o(.bss) for step_address
    ladder.o(i.ORP) refers to ladder.o(.constdata) for .constdata
    ladder.o(i.OUT) refers to ladder.o(.data) for .data
    ladder.o(i.OUT) refers to ladder.o(.constdata) for .constdata
    ladder.o(i.OUT) refers to ladder.o(.bss) for .bss
    ladder.o(i.PID) refers to ladder.o(i.addr_value_prog) for addr_value_prog
    ladder.o(i.PID) refers to ladder.o(.data) for .data
    ladder.o(i.PLC_LDP_TEST) refers to ladder.o(i.PLC_PL_BIT_TEST) for PLC_PL_BIT_TEST
    ladder.o(i.PLC_LDP_TEST) refers to ladder.o(.data) for .data
    ladder.o(i.PLC_LDP_TEST) refers to plc_com.o(.bss) for step_address
    ladder.o(i.PLC_LDP_TEST) refers to ladder.o(.constdata) for .constdata
    ladder.o(i.PLC_LD_BIT) refers to ladder.o(.constdata) for .constdata
    ladder.o(i.PLC_PL_BIT_TEST) refers to plc_com.o(.bss) for step_address
    ladder.o(i.PLC_PL_BIT_TEST) refers to ladder.o(.constdata) for .constdata
    ladder.o(i.PLC_PROG_ERROR) refers to plc_com.o(.ARM.__AT_0x20001000) for plc_16BitBuf
    ladder.o(i.PLC_PROG_ERROR) refers to ladder.o(.data) for .data
    ladder.o(i.PLC_ProInstructParse) refers to ladder.o(i.PLC_StopDefaultInit) for PLC_StopDefaultInit
    ladder.o(i.PLC_ProInstructParse) refers to ladder.o(i.find_p) for find_p
    ladder.o(i.PLC_ProInstructParse) refers to ladder.o(i.find_toend) for find_toend
    ladder.o(i.PLC_ProInstructParse) refers to plc_io.o(i.PLC_IO_Refresh) for PLC_IO_Refresh
    ladder.o(i.PLC_ProInstructParse) refers to ladder.o(i.enable_T_K) for enable_T_K
    ladder.o(i.PLC_ProInstructParse) refers to ladder.o(i.disable_T) for disable_T
    ladder.o(i.PLC_ProInstructParse) refers to ladder.o(i.T_given_value_D) for T_given_value_D
    ladder.o(i.PLC_ProInstructParse) refers to ladder.o(i.enable_C_K) for enable_C_K
    ladder.o(i.PLC_ProInstructParse) refers to ladder.o(i.disable_C_K) for disable_C_K
    ladder.o(i.PLC_ProInstructParse) refers to ladder.o(i.C_given_value_D) for C_given_value_D
    ladder.o(i.PLC_ProInstructParse) refers to ladder.o(i.LD) for LD
    ladder.o(i.PLC_ProInstructParse) refers to ladder.o(i.LDI) for LDI
    ladder.o(i.PLC_ProInstructParse) refers to ladder.o(i.AND) for AND
    ladder.o(i.PLC_ProInstructParse) refers to ladder.o(i.ANI) for ANI
    ladder.o(i.PLC_ProInstructParse) refers to ladder.o(i.OR) for OR
    ladder.o(i.PLC_ProInstructParse) refers to ladder.o(i.ORI) for ORI
    ladder.o(i.PLC_ProInstructParse) refers to ladder.o(i.OUT) for OUT
    ladder.o(i.PLC_ProInstructParse) refers to ladder.o(i.BIT_SET) for BIT_SET
    ladder.o(i.PLC_ProInstructParse) refers to ladder.o(i.RST) for RST
    ladder.o(i.PLC_ProInstructParse) refers to ladder.o(i.STL) for STL
    ladder.o(i.PLC_ProInstructParse) refers to ladder.o(i.other_function) for other_function
    ladder.o(i.PLC_ProInstructParse) refers to ladder.o(i.FNC_AppInstruct) for FNC_AppInstruct
    ladder.o(i.PLC_ProInstructParse) refers to ladder.o(i.RST_Y) for RST_Y
    ladder.o(i.PLC_ProInstructParse) refers to plc_other.o(i.RST_T_D_C_M_data) for RST_T_D_C_M_data
    ladder.o(i.PLC_ProInstructParse) refers to bsp_timer.o(.data) for plc_scan_time
    ladder.o(i.PLC_ProInstructParse) refers to ladder.o(.data) for .data
    ladder.o(i.PLC_ProInstructParse) refers to plc_com.o(.ARM.__AT_0x20001000) for plc_16BitBuf
    ladder.o(i.PLC_StopDefaultInit) refers to pwm_output.o(i.PWM_Y0_Restore_Config) for PWM_Y0_Restore_Config
    ladder.o(i.PLC_StopDefaultInit) refers to pwm_output.o(i.PWM_Y1_Restore_Config) for PWM_Y1_Restore_Config
    ladder.o(i.PLC_StopDefaultInit) refers to pwm_output.o(i.PulseOutputInit) for PulseOutputInit
    ladder.o(i.PLC_StopDefaultInit) refers to encode.o(i.Cap_PulseInputInit) for Cap_PulseInputInit
    ladder.o(i.PLC_StopDefaultInit) refers to encode.o(i.X_Io_Restore) for X_Io_Restore
    ladder.o(i.PLC_StopDefaultInit) refers to plc_com.o(.ARM.__AT_0x20001000) for plc_16BitBuf
    ladder.o(i.PLC_StopDefaultInit) refers to ladder.o(.data) for .data
    ladder.o(i.PLC_StopDefaultInit) refers to bsp_timer.o(.data) for gCommLedFlashFlg
    ladder.o(i.PLSY) refers to ladder.o(i.cos_value) for cos_value
    ladder.o(i.PLSY) refers to pwm_output.o(i.PLSY_Plc_Pro) for PLSY_Plc_Pro
    ladder.o(i.PLSY) refers to rt_memclr_w.o(.text) for __aeabi_memclr4
    ladder.o(i.PLSY) refers to ladder.o(.data) for .data
    ladder.o(i.PLSY) refers to pwm_output.o(.bss) for gPulse_Pro
    ladder.o(i.PLSY) refers to ladder.o(.constdata) for .constdata
    ladder.o(i.PWM) refers to ladder.o(i.cos_value) for cos_value
    ladder.o(i.PWM) refers to pwm_output.o(i.PWM_Plc_Pro) for PWM_Plc_Pro
    ladder.o(i.PWM) refers to rt_memclr_w.o(.text) for __aeabi_memclr4
    ladder.o(i.PWM) refers to ladder.o(.data) for .data
    ladder.o(i.PWM) refers to pwm_output.o(.bss) for gPulse_Pro
    ladder.o(i.RESET_C) refers to encode.o(i.Encoder_A0_Restore) for Encoder_A0_Restore
    ladder.o(i.RESET_C) refers to encode.o(i.Encoder_A1_Restore) for Encoder_A1_Restore
    ladder.o(i.RESET_C) refers to encode.o(i.Encoder_AB0_Restore) for Encoder_AB0_Restore
    ladder.o(i.RESET_C) refers to encode.o(i.Encoder_AB1_Restore) for Encoder_AB1_Restore
    ladder.o(i.RESET_C) refers to ladder.o(i.OUT) for OUT
    ladder.o(i.RESET_C) refers to ladder.o(.data) for .data
    ladder.o(i.RESET_C) refers to plc_com.o(.ARM.__AT_0x20001000) for plc_16BitBuf
    ladder.o(i.RESET_C) refers to ladder.o(.constdata) for .constdata
    ladder.o(i.RESET_C) refers to encode.o(.bss) for S_Cap_Pulse_Pro
    ladder.o(i.RESET_T) refers to ladder.o(.data) for .data
    ladder.o(i.RESET_T) refers to ladder.o(.constdata) for .constdata
    ladder.o(i.RESET_T) refers to plc_com.o(.ARM.__AT_0x20001000) for plc_16BitBuf
    ladder.o(i.RS) refers to ladder.o(i.cos_value) for cos_value
    ladder.o(i.RS) refers to modbus_host.o(i.ModHostMode_SendDeal) for ModHostMode_SendDeal
    ladder.o(i.RS) refers to ladder.o(.data) for .data
    ladder.o(i.RS) refers to modbus_host.o(.bss) for g_tModH
    ladder.o(i.RS) refers to plc_com.o(.ARM.__AT_0x20001000) for plc_16BitBuf
    ladder.o(i.RST) refers to ladder.o(.data) for .data
    ladder.o(i.RST) refers to ladder.o(.constdata) for .constdata
    ladder.o(i.RST_D) refers to ladder.o(i.PLC_PROG_ERROR) for PLC_PROG_ERROR
    ladder.o(i.RST_D) refers to ladder.o(.data) for .data
    ladder.o(i.RST_D) refers to plc_com.o(.ARM.__AT_0x20001000) for plc_16BitBuf
    ladder.o(i.RST_Y) refers to plc_com.o(.ARM.__AT_0x20001000) for plc_16BitBuf
    ladder.o(i.SMOV) refers to ladder.o(i.cos_value) for cos_value
    ladder.o(i.SMOV) refers to ladder.o(i.addr_value) for addr_value
    ladder.o(i.SMOV) refers to ladder.o(.data) for .data
    ladder.o(i.SMOV) refers to plc_com.o(.ARM.__AT_0x20001000) for plc_16BitBuf
    ladder.o(i.STL) refers to ladder.o(.data) for .data
    ladder.o(i.STL) refers to ladder.o(.constdata) for .constdata
    ladder.o(i.SpecialTarget) refers to ladder.o(i.MOV_TO_K_H) for MOV_TO_K_H
    ladder.o(i.SpecialTarget) refers to ladder.o(i.V0_V3) for V0_V3
    ladder.o(i.SpecialTarget) refers to ladder.o(i.Z4_Z7) for Z4_Z7
    ladder.o(i.SpecialTarget) refers to ladder.o(i.Z0_Z3) for Z0_Z3
    ladder.o(i.SpecialTarget) refers to ladder.o(i.V4_V7) for V4_V7
    ladder.o(i.SpecialTarget) refers to ladder.o(.data) for .data
    ladder.o(i.Special_cos_value) refers to ladder.o(i.MOV_K) for MOV_K
    ladder.o(i.Special_cos_value) refers to ladder.o(i.V0_V3) for V0_V3
    ladder.o(i.Special_cos_value) refers to ladder.o(i.V4_V7) for V4_V7
    ladder.o(i.Special_cos_value) refers to ladder.o(.data) for .data
    ladder.o(i.Special_cos_value) refers to plc_com.o(.ARM.__AT_0x20001000) for plc_16BitBuf
    ladder.o(i.Special_cos_value) refers to ladder.o(i.Z0_Z3) for Z0_Z3
    ladder.o(i.Special_cos_value) refers to ladder.o(i.Z4_Z7) for Z4_Z7
    ladder.o(i.TADD) refers to ladder.o(i.addr_value) for addr_value
    ladder.o(i.TADD) refers to ladder.o(.data) for .data
    ladder.o(i.TADD) refers to plc_com.o(.ARM.__AT_0x20001000) for plc_16BitBuf
    ladder.o(i.TCMP) refers to ladder.o(i.cos_value) for cos_value
    ladder.o(i.TCMP) refers to ladder.o(i.addr_value) for addr_value
    ladder.o(i.TCMP) refers to ladder.o(.data) for .data
    ladder.o(i.TCMP) refers to ladder.o(.constdata) for .constdata
    ladder.o(i.TCMP) refers to plc_com.o(.ARM.__AT_0x20001000) for plc_16BitBuf
    ladder.o(i.TRD) refers to ladder.o(i.addr_value) for addr_value
    ladder.o(i.TRD) refers to ladder.o(.data) for .data
    ladder.o(i.TRD) refers to plc_com.o(.ARM.__AT_0x20001000) for plc_16BitBuf
    ladder.o(i.TSUB) refers to ladder.o(i.addr_value) for addr_value
    ladder.o(i.TSUB) refers to ladder.o(.data) for .data
    ladder.o(i.TSUB) refers to plc_com.o(.ARM.__AT_0x20001000) for plc_16BitBuf
    ladder.o(i.TWR) refers to ladder.o(i.addr_value) for addr_value
    ladder.o(i.TWR) refers to rtc.o(i.RTC_Set) for RTC_Set
    ladder.o(i.TWR) refers to ladder.o(.data) for .data
    ladder.o(i.TWR) refers to plc_com.o(.ARM.__AT_0x20001000) for plc_16BitBuf
    ladder.o(i.TZCP) refers to ladder.o(i.addr_value) for addr_value
    ladder.o(i.TZCP) refers to ladder.o(.data) for .data
    ladder.o(i.TZCP) refers to plc_com.o(.ARM.__AT_0x20001000) for plc_16BitBuf
    ladder.o(i.TZCP) refers to ladder.o(.constdata) for .constdata
    ladder.o(i.T_given_value_D) refers to plc_timer.o(i.timer_enable) for timer_enable
    ladder.o(i.T_given_value_D) refers to ladder.o(i.OUT) for OUT
    ladder.o(i.T_given_value_D) refers to ladder.o(i.disable_T) for disable_T
    ladder.o(i.T_given_value_D) refers to ladder.o(.data) for .data
    ladder.o(i.T_given_value_D) refers to plc_com.o(.ARM.__AT_0x20001000) for plc_16BitBuf
    ladder.o(i.V0_V3) refers to plc_com.o(.ARM.__AT_0x20001000) for plc_16BitBuf
    ladder.o(i.V4_V7) refers to plc_com.o(.ARM.__AT_0x20001000) for plc_16BitBuf
    ladder.o(i.Z0_Z3) refers to plc_com.o(.ARM.__AT_0x20001000) for plc_16BitBuf
    ladder.o(i.Z4_Z7) refers to plc_com.o(.ARM.__AT_0x20001000) for plc_16BitBuf
    ladder.o(i.ZCP) refers to ladder.o(i.cos_value) for cos_value
    ladder.o(i.ZCP) refers to ladder.o(i.addr_value) for addr_value
    ladder.o(i.ZCP) refers to ladder.o(.data) for .data
    ladder.o(i.ZCP) refers to ladder.o(.constdata) for .constdata
    ladder.o(i.addr_value) refers to ladder.o(i.D_C_T_addr) for D_C_T_addr
    ladder.o(i.addr_value) refers to ladder.o(.data) for .data
    ladder.o(i.addr_value_prog) refers to ladder.o(i.MOV_K) for MOV_K
    ladder.o(i.addr_value_prog) refers to ladder.o(.data) for .data
    ladder.o(i.amount) refers to ladder.o(i.cos_value) for cos_value
    ladder.o(i.amount) refers to ladder.o(.data) for .data
    ladder.o(i.amount) refers to ladder.o(.constdata) for .constdata
    ladder.o(i.big) refers to ladder.o(i.cos_value) for cos_value
    ladder.o(i.big) refers to ladder.o(.data) for .data
    ladder.o(i.big) refers to ladder.o(.constdata) for .constdata
    ladder.o(i.big_amount) refers to ladder.o(i.cos_value) for cos_value
    ladder.o(i.big_amount) refers to ladder.o(.data) for .data
    ladder.o(i.big_amount) refers to ladder.o(.constdata) for .constdata
    ladder.o(i.cos_u32_value) refers to ladder.o(i.cos_value) for cos_value
    ladder.o(i.cos_u32_value) refers to ladder.o(i.MOV_K) for MOV_K
    ladder.o(i.cos_u32_value) refers to ladder.o(i.DZ0_Z3) for DZ0_Z3
    ladder.o(i.cos_u32_value) refers to ladder.o(i.DZ4_Z7) for DZ4_Z7
    ladder.o(i.cos_u32_value) refers to ladder.o(.data) for .data
    ladder.o(i.cos_u32_value) refers to plc_com.o(.ARM.__AT_0x20001000) for plc_16BitBuf
    ladder.o(i.cos_u32_value) refers to ladder.o(i.PLC_PROG_ERROR) for PLC_PROG_ERROR
    ladder.o(i.cos_value) refers to ladder.o(i.MOV_K) for MOV_K
    ladder.o(i.cos_value) refers to ladder.o(i.V0_V3) for V0_V3
    ladder.o(i.cos_value) refers to ladder.o(i.V4_V7) for V4_V7
    ladder.o(i.cos_value) refers to ladder.o(.data) for .data
    ladder.o(i.cos_value) refers to plc_com.o(.ARM.__AT_0x20001000) for plc_16BitBuf
    ladder.o(i.cos_value) refers to ladder.o(i.Z0_Z3) for Z0_Z3
    ladder.o(i.cos_value) refers to ladder.o(i.Z4_Z7) for Z4_Z7
    ladder.o(i.disable_C_D) refers to encode.o(i.Encoder_A0_Restore) for Encoder_A0_Restore
    ladder.o(i.disable_C_D) refers to encode.o(i.Encoder_A1_Restore) for Encoder_A1_Restore
    ladder.o(i.disable_C_D) refers to encode.o(i.Encoder_AB0_Restore) for Encoder_AB0_Restore
    ladder.o(i.disable_C_D) refers to encode.o(i.Encoder_AB1_Restore) for Encoder_AB1_Restore
    ladder.o(i.disable_C_D) refers to ladder.o(i.OUT) for OUT
    ladder.o(i.disable_C_D) refers to ladder.o(.data) for .data
    ladder.o(i.disable_C_D) refers to ladder.o(.constdata) for .constdata
    ladder.o(i.disable_C_D) refers to plc_com.o(.ARM.__AT_0x20001000) for plc_16BitBuf
    ladder.o(i.disable_C_D) refers to encode.o(.bss) for S_Cap_Pulse_Pro
    ladder.o(i.disable_C_K) refers to encode.o(i.Encoder_A0_Restore) for Encoder_A0_Restore
    ladder.o(i.disable_C_K) refers to encode.o(i.Encoder_A1_Restore) for Encoder_A1_Restore
    ladder.o(i.disable_C_K) refers to encode.o(i.Encoder_AB0_Restore) for Encoder_AB0_Restore
    ladder.o(i.disable_C_K) refers to encode.o(i.Encoder_AB1_Restore) for Encoder_AB1_Restore
    ladder.o(i.disable_C_K) refers to ladder.o(i.OUT) for OUT
    ladder.o(i.disable_C_K) refers to ladder.o(.data) for .data
    ladder.o(i.disable_C_K) refers to ladder.o(.constdata) for .constdata
    ladder.o(i.disable_C_K) refers to encode.o(.bss) for S_Cap_Pulse_Pro
    ladder.o(i.disable_C_K) refers to plc_com.o(.ARM.__AT_0x20001000) for plc_16BitBuf
    ladder.o(i.disable_T) refers to plc_timer.o(i.timer_disble) for timer_disble
    ladder.o(i.disable_T) refers to ladder.o(i.OUT) for OUT
    ladder.o(i.disable_T) refers to ladder.o(.data) for .data
    ladder.o(i.enable_C_D) refers to encode.o(i.Encoder_A0_Configuration) for Encoder_A0_Configuration
    ladder.o(i.enable_C_D) refers to encode.o(i.Encoder_A1_Configuration) for Encoder_A1_Configuration
    ladder.o(i.enable_C_D) refers to encode.o(i.Encoder_AB0_Configration) for Encoder_AB0_Configration
    ladder.o(i.enable_C_D) refers to encode.o(i.Encoder_AB1_Configration) for Encoder_AB1_Configration
    ladder.o(i.enable_C_D) refers to ladder.o(i.OUT) for OUT
    ladder.o(i.enable_C_D) refers to plc_com.o(.ARM.__AT_0x20001000) for plc_16BitBuf
    ladder.o(i.enable_C_D) refers to ladder.o(.data) for .data
    ladder.o(i.enable_C_D) refers to ladder.o(.constdata) for .constdata
    ladder.o(i.enable_C_D) refers to encode.o(.bss) for S_Cap_Pulse_Pro
    ladder.o(i.enable_C_K) refers to encode.o(i.Encoder_A0_Configuration) for Encoder_A0_Configuration
    ladder.o(i.enable_C_K) refers to encode.o(i.Encoder_A1_Configuration) for Encoder_A1_Configuration
    ladder.o(i.enable_C_K) refers to encode.o(i.Encoder_AB0_Configration) for Encoder_AB0_Configration
    ladder.o(i.enable_C_K) refers to encode.o(i.Encoder_AB1_Configration) for Encoder_AB1_Configration
    ladder.o(i.enable_C_K) refers to ladder.o(i.OUT) for OUT
    ladder.o(i.enable_C_K) refers to ladder.o(.data) for .data
    ladder.o(i.enable_C_K) refers to ladder.o(.constdata) for .constdata
    ladder.o(i.enable_C_K) refers to plc_com.o(.ARM.__AT_0x20001000) for plc_16BitBuf
    ladder.o(i.enable_C_K) refers to encode.o(.bss) for S_Cap_Pulse_Pro
    ladder.o(i.enable_T_K) refers to plc_timer.o(i.timer_enable) for timer_enable
    ladder.o(i.enable_T_K) refers to ladder.o(i.OUT) for OUT
    ladder.o(i.enable_T_K) refers to ladder.o(.data) for .data
    ladder.o(i.enable_T_K) refers to plc_com.o(.ARM.__AT_0x20001000) for plc_16BitBuf
    ladder.o(i.expand_AND) refers to ladder.o(i.AND) for AND
    ladder.o(i.expand_AND) refers to ladder.o(.data) for .data
    ladder.o(i.expand_ANI) refers to ladder.o(i.ANI) for ANI
    ladder.o(i.expand_ANI) refers to ladder.o(.data) for .data
    ladder.o(i.expand_LD) refers to ladder.o(i.LD) for LD
    ladder.o(i.expand_LD) refers to ladder.o(.data) for .data
    ladder.o(i.expand_LDI) refers to ladder.o(i.LDI) for LDI
    ladder.o(i.expand_LDI) refers to ladder.o(.data) for .data
    ladder.o(i.expand_OR) refers to ladder.o(i.OR) for OR
    ladder.o(i.expand_OR) refers to ladder.o(.data) for .data
    ladder.o(i.expand_ORI) refers to ladder.o(i.ORI) for ORI
    ladder.o(i.expand_ORI) refers to ladder.o(.data) for .data
    ladder.o(i.expand_OUT) refers to ladder.o(i.OUT) for OUT
    ladder.o(i.expand_OUT) refers to ladder.o(.data) for .data
    ladder.o(i.expand_RST) refers to ladder.o(i.RST) for RST
    ladder.o(i.expand_RST) refers to ladder.o(.data) for .data
    ladder.o(i.expand_SET) refers to ladder.o(i.BIT_SET) for BIT_SET
    ladder.o(i.expand_SET) refers to ladder.o(.data) for .data
    ladder.o(i.find_p) refers to ladder.o(.data) for .data
    ladder.o(i.find_p) refers to ladder.o(.bss) for .bss
    ladder.o(i.find_toend) refers to ladder.o(.data) for .data
    ladder.o(i.float_target) refers to ladder.o(i.addr_value) for addr_value
    ladder.o(i.float_target) refers to ladder.o(.data) for .data
    ladder.o(i.float_target) refers to plc_com.o(.ARM.__AT_0x20001000) for plc_16BitBuf
    ladder.o(i.float_value) refers to fflt_clz.o(x$fpl$fflt) for __aeabi_i2f
    ladder.o(i.float_value) refers to ladder.o(.data) for .data
    ladder.o(i.less) refers to ladder.o(i.cos_value) for cos_value
    ladder.o(i.less) refers to ladder.o(.data) for .data
    ladder.o(i.less) refers to ladder.o(.constdata) for .constdata
    ladder.o(i.less_amount) refers to ladder.o(i.cos_value) for cos_value
    ladder.o(i.less_amount) refers to ladder.o(.data) for .data
    ladder.o(i.less_amount) refers to ladder.o(.constdata) for .constdata
    ladder.o(i.no_amount) refers to ladder.o(i.cos_value) for cos_value
    ladder.o(i.no_amount) refers to ladder.o(.data) for .data
    ladder.o(i.no_amount) refers to ladder.o(.constdata) for .constdata
    ladder.o(i.other_function) refers to ladder.o(i.PLC_PROG_ERROR) for PLC_PROG_ERROR
    ladder.o(i.other_function) refers to ladder.o(.data) for .data
    ladder.o(i.target) refers to ladder.o(i.V0_V3) for V0_V3
    ladder.o(i.target) refers to ladder.o(i.V4_V7) for V4_V7
    ladder.o(i.target) refers to ladder.o(i.Z0_Z3) for Z0_Z3
    ladder.o(i.target) refers to ladder.o(i.Z4_Z7) for Z4_Z7
    ladder.o(i.target) refers to ladder.o(i.MOV_TO_K_H) for MOV_TO_K_H
    ladder.o(i.target) refers to ladder.o(.data) for .data
    pwm_output.o(i.PLSR_Plc_Pro) refers to pwm_output.o(i.Y0_Tim_Mode_Config_DIASBLE) for Y0_Tim_Mode_Config_DIASBLE
    pwm_output.o(i.PLSR_Plc_Pro) refers to pwm_output.o(i.PWM_Y0_Restore_Config) for PWM_Y0_Restore_Config
    pwm_output.o(i.PLSR_Plc_Pro) refers to pwm_output.o(i.PWM_Y0_Set_Config) for PWM_Y0_Set_Config
    pwm_output.o(i.PLSR_Plc_Pro) refers to pwm_output.o(i.Y0_Tim_Mode_Config) for Y0_Tim_Mode_Config
    pwm_output.o(i.PLSR_Plc_Pro) refers to pwm_output.o(i.PWM_Y1_Set_Config) for PWM_Y1_Set_Config
    pwm_output.o(i.PLSR_Plc_Pro) refers to pwm_output.o(i.Y1_Tim_Mode_Config) for Y1_Tim_Mode_Config
    pwm_output.o(i.PLSR_Plc_Pro) refers to pwm_output.o(i.Y1_Tim_Mode_Config_DIASBLE) for Y1_Tim_Mode_Config_DIASBLE
    pwm_output.o(i.PLSR_Plc_Pro) refers to pwm_output.o(i.PWM_Y1_Restore_Config) for PWM_Y1_Restore_Config
    pwm_output.o(i.PLSR_Plc_Pro) refers to pwm_output.o(.bss) for .bss
    pwm_output.o(i.PLSY_Plc_Pro) refers to pwm_output.o(i.Y0_Tim_Mode_Config_DIASBLE) for Y0_Tim_Mode_Config_DIASBLE
    pwm_output.o(i.PLSY_Plc_Pro) refers to pwm_output.o(i.PWM_Y0_Restore_Config) for PWM_Y0_Restore_Config
    pwm_output.o(i.PLSY_Plc_Pro) refers to pwm_output.o(i.PWM_Y0_Set_Config) for PWM_Y0_Set_Config
    pwm_output.o(i.PLSY_Plc_Pro) refers to pwm_output.o(i.Y0_Tim_Mode_Config) for Y0_Tim_Mode_Config
    pwm_output.o(i.PLSY_Plc_Pro) refers to pwm_output.o(i.PWM_Y1_Set_Config) for PWM_Y1_Set_Config
    pwm_output.o(i.PLSY_Plc_Pro) refers to pwm_output.o(i.Y1_Tim_Mode_Config) for Y1_Tim_Mode_Config
    pwm_output.o(i.PLSY_Plc_Pro) refers to pwm_output.o(i.Y1_Tim_Mode_Config_DIASBLE) for Y1_Tim_Mode_Config_DIASBLE
    pwm_output.o(i.PLSY_Plc_Pro) refers to pwm_output.o(i.PWM_Y1_Restore_Config) for PWM_Y1_Restore_Config
    pwm_output.o(i.PLSY_Plc_Pro) refers to pwm_output.o(.bss) for .bss
    pwm_output.o(i.PTO_Plc_Plan_Pro) refers to fflt_clz.o(x$fpl$ffltu) for __aeabi_ui2f
    pwm_output.o(i.PTO_Plc_Plan_Pro) refers to fdiv.o(x$fpl$fdiv) for __aeabi_fdiv
    pwm_output.o(i.PTO_Plc_Plan_Pro) refers to ffixu.o(x$fpl$ffixu) for __aeabi_f2uiz
    pwm_output.o(i.PTO_Plc_Plan_Pro) refers to fmul.o(x$fpl$fmul) for __aeabi_fmul
    pwm_output.o(i.PTO_Plc_Plan_Pro) refers to f2d.o(x$fpl$f2d) for __aeabi_f2d
    pwm_output.o(i.PTO_Plc_Plan_Pro) refers to ddiv.o(x$fpl$ddiv) for __aeabi_ddiv
    pwm_output.o(i.PTO_Plc_Plan_Pro) refers to dfixu.o(x$fpl$dfixu) for __aeabi_d2uiz
    pwm_output.o(i.PTO_Plc_Plan_Pro) refers to dflt_clz.o(x$fpl$dfltu) for __aeabi_ui2d
    pwm_output.o(i.PTO_Plc_Plan_Pro) refers to dmul.o(x$fpl$dmul) for __aeabi_dmul
    pwm_output.o(i.PTO_Plc_Plan_Pro) refers to pwm_output.o(i.PLSR_Plc_Pro) for PLSR_Plc_Pro
    pwm_output.o(i.PWM_Plc_Pro) refers to pwm_output.o(i.Y0_Tim_Mode_Config_DIASBLE) for Y0_Tim_Mode_Config_DIASBLE
    pwm_output.o(i.PWM_Plc_Pro) refers to pwm_output.o(i.PWM_Y0_Restore_Config) for PWM_Y0_Restore_Config
    pwm_output.o(i.PWM_Plc_Pro) refers to pwm_output.o(i.PWM_Y0_Set_Config) for PWM_Y0_Set_Config
    pwm_output.o(i.PWM_Plc_Pro) refers to pwm_output.o(i.Y0_Tim_Mode_Config) for Y0_Tim_Mode_Config
    pwm_output.o(i.PWM_Plc_Pro) refers to pwm_output.o(i.PWM_Y1_Set_Config) for PWM_Y1_Set_Config
    pwm_output.o(i.PWM_Plc_Pro) refers to pwm_output.o(i.Y1_Tim_Mode_Config) for Y1_Tim_Mode_Config
    pwm_output.o(i.PWM_Plc_Pro) refers to pwm_output.o(i.Y1_Tim_Mode_Config_DIASBLE) for Y1_Tim_Mode_Config_DIASBLE
    pwm_output.o(i.PWM_Plc_Pro) refers to pwm_output.o(i.PWM_Y1_Restore_Config) for PWM_Y1_Restore_Config
    pwm_output.o(i.PWM_Plc_Pro) refers to pwm_output.o(.bss) for .bss
    pwm_output.o(i.PWM_Y0_Restore_Config) refers to stm32f10x_tim.o(i.TIM_OC4PreloadConfig) for TIM_OC4PreloadConfig
    pwm_output.o(i.PWM_Y0_Restore_Config) refers to stm32f10x_rcc.o(i.RCC_APB2PeriphClockCmd) for RCC_APB2PeriphClockCmd
    pwm_output.o(i.PWM_Y0_Restore_Config) refers to stm32f10x_gpio.o(i.GPIO_Init) for GPIO_Init
    pwm_output.o(i.PWM_Y0_Restore_Config) refers to stm32f10x_gpio.o(i.GPIO_ResetBits) for GPIO_ResetBits
    pwm_output.o(i.PWM_Y0_Set_Config) refers to stm32f10x_rcc.o(i.RCC_APB2PeriphClockCmd) for RCC_APB2PeriphClockCmd
    pwm_output.o(i.PWM_Y0_Set_Config) refers to stm32f10x_gpio.o(i.GPIO_Init) for GPIO_Init
    pwm_output.o(i.PWM_Y1_Restore_Config) refers to stm32f10x_tim.o(i.TIM_OC1PreloadConfig) for TIM_OC1PreloadConfig
    pwm_output.o(i.PWM_Y1_Restore_Config) refers to stm32f10x_rcc.o(i.RCC_APB2PeriphClockCmd) for RCC_APB2PeriphClockCmd
    pwm_output.o(i.PWM_Y1_Restore_Config) refers to stm32f10x_gpio.o(i.GPIO_Init) for GPIO_Init
    pwm_output.o(i.PWM_Y1_Restore_Config) refers to stm32f10x_gpio.o(i.GPIO_ResetBits) for GPIO_ResetBits
    pwm_output.o(i.PWM_Y1_Set_Config) refers to stm32f10x_rcc.o(i.RCC_APB2PeriphClockCmd) for RCC_APB2PeriphClockCmd
    pwm_output.o(i.PWM_Y1_Set_Config) refers to stm32f10x_gpio.o(i.GPIO_Init) for GPIO_Init
    pwm_output.o(i.PulseOutputInit) refers to rt_memclr_w.o(.text) for __aeabi_memclr4
    pwm_output.o(i.PulseOutputInit) refers to pwm_output.o(.bss) for .bss
    pwm_output.o(i.TIM1_NVIC_Configuration) refers to misc.o(i.NVIC_Init) for NVIC_Init
    pwm_output.o(i.TIM1_UP_IRQHandler) refers to stm32f10x_tim.o(i.TIM_GetITStatus) for TIM_GetITStatus
    pwm_output.o(i.TIM1_UP_IRQHandler) refers to pwm_output.o(i.Y1_Tim_Mode_Config_DIASBLE) for Y1_Tim_Mode_Config_DIASBLE
    pwm_output.o(i.TIM1_UP_IRQHandler) refers to pwm_output.o(i.PWM_Y1_Restore_Config) for PWM_Y1_Restore_Config
    pwm_output.o(i.TIM1_UP_IRQHandler) refers to rt_memclr_w.o(.text) for __aeabi_memclr4
    pwm_output.o(i.TIM1_UP_IRQHandler) refers to pwm_output.o(i.Y0_Tim_Mode_Config_DIASBLE) for Y0_Tim_Mode_Config_DIASBLE
    pwm_output.o(i.TIM1_UP_IRQHandler) refers to dflt_clz.o(x$fpl$dfltu) for __aeabi_ui2d
    pwm_output.o(i.TIM1_UP_IRQHandler) refers to ddiv.o(x$fpl$ddiv) for __aeabi_ddiv
    pwm_output.o(i.TIM1_UP_IRQHandler) refers to dmul.o(x$fpl$dmul) for __aeabi_dmul
    pwm_output.o(i.TIM1_UP_IRQHandler) refers to dfixu.o(x$fpl$dfixu) for __aeabi_d2uiz
    pwm_output.o(i.TIM1_UP_IRQHandler) refers to pwm_output.o(i.PLSR_Plc_Pro) for PLSR_Plc_Pro
    pwm_output.o(i.TIM1_UP_IRQHandler) refers to stm32f10x_tim.o(i.TIM_ClearITPendingBit) for TIM_ClearITPendingBit
    pwm_output.o(i.TIM1_UP_IRQHandler) refers to pwm_output.o(.bss) for .bss
    pwm_output.o(i.TIM1_UP_IRQHandler) refers to ladder.o(.constdata) for PLC_BIT_OR
    pwm_output.o(i.TIM1_UP_IRQHandler) refers to plc_com.o(.ARM.__AT_0x20001000) for plc_16BitBuf
    pwm_output.o(i.TIM1_UP_IRQHandler) refers to pwm_output.o(.data) for .data
    pwm_output.o(i.TIM8_NVIC_Configuration) refers to misc.o(i.NVIC_Init) for NVIC_Init
    pwm_output.o(i.TIM8_UP_IRQHandler) refers to stm32f10x_tim.o(i.TIM_GetITStatus) for TIM_GetITStatus
    pwm_output.o(i.TIM8_UP_IRQHandler) refers to pwm_output.o(i.Y0_Tim_Mode_Config_DIASBLE) for Y0_Tim_Mode_Config_DIASBLE
    pwm_output.o(i.TIM8_UP_IRQHandler) refers to pwm_output.o(i.PWM_Y0_Restore_Config) for PWM_Y0_Restore_Config
    pwm_output.o(i.TIM8_UP_IRQHandler) refers to rt_memclr_w.o(.text) for __aeabi_memclr4
    pwm_output.o(i.TIM8_UP_IRQHandler) refers to dflt_clz.o(x$fpl$dfltu) for __aeabi_ui2d
    pwm_output.o(i.TIM8_UP_IRQHandler) refers to ddiv.o(x$fpl$ddiv) for __aeabi_ddiv
    pwm_output.o(i.TIM8_UP_IRQHandler) refers to dmul.o(x$fpl$dmul) for __aeabi_dmul
    pwm_output.o(i.TIM8_UP_IRQHandler) refers to dfixu.o(x$fpl$dfixu) for __aeabi_d2uiz
    pwm_output.o(i.TIM8_UP_IRQHandler) refers to pwm_output.o(i.PLSR_Plc_Pro) for PLSR_Plc_Pro
    pwm_output.o(i.TIM8_UP_IRQHandler) refers to stm32f10x_tim.o(i.TIM_ClearITPendingBit) for TIM_ClearITPendingBit
    pwm_output.o(i.TIM8_UP_IRQHandler) refers to pwm_output.o(.bss) for .bss
    pwm_output.o(i.TIM8_UP_IRQHandler) refers to ladder.o(.constdata) for PLC_BIT_OR
    pwm_output.o(i.TIM8_UP_IRQHandler) refers to plc_com.o(.ARM.__AT_0x20001000) for plc_16BitBuf
    pwm_output.o(i.TIM8_UP_IRQHandler) refers to pwm_output.o(.data) for .data
    pwm_output.o(i.Y0_Tim_Mode_Config) refers to stm32f10x_tim.o(i.TIM_DeInit) for TIM_DeInit
    pwm_output.o(i.Y0_Tim_Mode_Config) refers to stm32f10x_rcc.o(i.RCC_APB2PeriphClockCmd) for RCC_APB2PeriphClockCmd
    pwm_output.o(i.Y0_Tim_Mode_Config) refers to stm32f10x_tim.o(i.TIM_TimeBaseInit) for TIM_TimeBaseInit
    pwm_output.o(i.Y0_Tim_Mode_Config) refers to stm32f10x_tim.o(i.TIM_OC4Init) for TIM_OC4Init
    pwm_output.o(i.Y0_Tim_Mode_Config) refers to stm32f10x_tim.o(i.TIM_OC4PreloadConfig) for TIM_OC4PreloadConfig
    pwm_output.o(i.Y0_Tim_Mode_Config) refers to stm32f10x_tim.o(i.TIM_BDTRConfig) for TIM_BDTRConfig
    pwm_output.o(i.Y0_Tim_Mode_Config) refers to stm32f10x_tim.o(i.TIM_ITConfig) for TIM_ITConfig
    pwm_output.o(i.Y0_Tim_Mode_Config) refers to pwm_output.o(i.TIM8_NVIC_Configuration) for TIM8_NVIC_Configuration
    pwm_output.o(i.Y0_Tim_Mode_Config) refers to stm32f10x_tim.o(i.TIM_ARRPreloadConfig) for TIM_ARRPreloadConfig
    pwm_output.o(i.Y0_Tim_Mode_Config) refers to stm32f10x_tim.o(i.TIM_Cmd) for TIM_Cmd
    pwm_output.o(i.Y0_Tim_Mode_Config) refers to stm32f10x_tim.o(i.TIM_CtrlPWMOutputs) for TIM_CtrlPWMOutputs
    pwm_output.o(i.Y0_Tim_Mode_Config_DIASBLE) refers to stm32f10x_tim.o(i.TIM_ITConfig) for TIM_ITConfig
    pwm_output.o(i.Y0_Tim_Mode_Config_DIASBLE) refers to stm32f10x_rcc.o(i.RCC_APB2PeriphClockCmd) for RCC_APB2PeriphClockCmd
    pwm_output.o(i.Y0_Tim_Mode_Config_DIASBLE) refers to stm32f10x_tim.o(i.TIM_Cmd) for TIM_Cmd
    pwm_output.o(i.Y0_Tim_Mode_Config_DIASBLE) refers to stm32f10x_tim.o(i.TIM_CtrlPWMOutputs) for TIM_CtrlPWMOutputs
    pwm_output.o(i.Y1_Tim_Mode_Config) refers to stm32f10x_tim.o(i.TIM_DeInit) for TIM_DeInit
    pwm_output.o(i.Y1_Tim_Mode_Config) refers to stm32f10x_rcc.o(i.RCC_APB2PeriphClockCmd) for RCC_APB2PeriphClockCmd
    pwm_output.o(i.Y1_Tim_Mode_Config) refers to stm32f10x_tim.o(i.TIM_TimeBaseInit) for TIM_TimeBaseInit
    pwm_output.o(i.Y1_Tim_Mode_Config) refers to stm32f10x_tim.o(i.TIM_ARRPreloadConfig) for TIM_ARRPreloadConfig
    pwm_output.o(i.Y1_Tim_Mode_Config) refers to stm32f10x_tim.o(i.TIM_OC1Init) for TIM_OC1Init
    pwm_output.o(i.Y1_Tim_Mode_Config) refers to stm32f10x_tim.o(i.TIM_OC1PreloadConfig) for TIM_OC1PreloadConfig
    pwm_output.o(i.Y1_Tim_Mode_Config) refers to stm32f10x_tim.o(i.TIM_BDTRConfig) for TIM_BDTRConfig
    pwm_output.o(i.Y1_Tim_Mode_Config) refers to stm32f10x_tim.o(i.TIM_ITConfig) for TIM_ITConfig
    pwm_output.o(i.Y1_Tim_Mode_Config) refers to pwm_output.o(i.TIM1_NVIC_Configuration) for TIM1_NVIC_Configuration
    pwm_output.o(i.Y1_Tim_Mode_Config) refers to stm32f10x_tim.o(i.TIM_Cmd) for TIM_Cmd
    pwm_output.o(i.Y1_Tim_Mode_Config) refers to stm32f10x_tim.o(i.TIM_CtrlPWMOutputs) for TIM_CtrlPWMOutputs
    pwm_output.o(i.Y1_Tim_Mode_Config_DIASBLE) refers to stm32f10x_tim.o(i.TIM_ITConfig) for TIM_ITConfig
    pwm_output.o(i.Y1_Tim_Mode_Config_DIASBLE) refers to stm32f10x_rcc.o(i.RCC_APB2PeriphClockCmd) for RCC_APB2PeriphClockCmd
    pwm_output.o(i.Y1_Tim_Mode_Config_DIASBLE) refers to stm32f10x_tim.o(i.TIM_Cmd) for TIM_Cmd
    pwm_output.o(i.Y1_Tim_Mode_Config_DIASBLE) refers to stm32f10x_tim.o(i.TIM_CtrlPWMOutputs) for TIM_CtrlPWMOutputs
    encode.o(i.Cap_PulseInputInit) refers to encode.o(.bss) for .bss
    encode.o(i.ENC_Get_AB0_Electrical_Angle) refers to encode.o(.data) for .data
    encode.o(i.ENC_Get_AB1_Electrical_Angle) refers to encode.o(.data) for .data
    encode.o(i.Encode_Pro_Callback) refers to encode.o(i.Get_A0_Count) for Get_A0_Count
    encode.o(i.Encode_Pro_Callback) refers to encode.o(i.Get_AB0_Count) for Get_AB0_Count
    encode.o(i.Encode_Pro_Callback) refers to encode.o(i.Get_AB1_Count) for Get_AB1_Count
    encode.o(i.Encode_Pro_Callback) refers to encode.o(i.Get_A1_Count) for Get_A1_Count
    encode.o(i.Encode_Pro_Callback) refers to encode.o(.bss) for .bss
    encode.o(i.Encoder_A0_Configuration) refers to stm32f10x_rcc.o(i.RCC_APB2PeriphClockCmd) for RCC_APB2PeriphClockCmd
    encode.o(i.Encoder_A0_Configuration) refers to stm32f10x_rcc.o(i.RCC_APB1PeriphClockCmd) for RCC_APB1PeriphClockCmd
    encode.o(i.Encoder_A0_Configuration) refers to stm32f10x_gpio.o(i.GPIO_PinRemapConfig) for GPIO_PinRemapConfig
    encode.o(i.Encoder_A0_Configuration) refers to stm32f10x_gpio.o(i.GPIO_Init) for GPIO_Init
    encode.o(i.Encoder_A0_Configuration) refers to misc.o(i.NVIC_PriorityGroupConfig) for NVIC_PriorityGroupConfig
    encode.o(i.Encoder_A0_Configuration) refers to misc.o(i.NVIC_Init) for NVIC_Init
    encode.o(i.Encoder_A0_Configuration) refers to stm32f10x_tim.o(i.TIM_DeInit) for TIM_DeInit
    encode.o(i.Encoder_A0_Configuration) refers to stm32f10x_tim.o(i.TIM_TimeBaseInit) for TIM_TimeBaseInit
    encode.o(i.Encoder_A0_Configuration) refers to stm32f10x_tim.o(i.TIM_TIxExternalClockConfig) for TIM_TIxExternalClockConfig
    encode.o(i.Encoder_A0_Configuration) refers to stm32f10x_tim.o(i.TIM_ClearFlag) for TIM_ClearFlag
    encode.o(i.Encoder_A0_Configuration) refers to stm32f10x_tim.o(i.TIM_ITConfig) for TIM_ITConfig
    encode.o(i.Encoder_A0_Configuration) refers to stm32f10x_tim.o(i.TIM_SetCounter) for TIM_SetCounter
    encode.o(i.Encoder_A0_Configuration) refers to stm32f10x_tim.o(i.TIM_Cmd) for TIM_Cmd
    encode.o(i.Encoder_A0_Configuration) refers to encode.o(.bss) for .bss
    encode.o(i.Encoder_A0_Restore) refers to stm32f10x_tim.o(i.TIM_DeInit) for TIM_DeInit
    encode.o(i.Encoder_A0_Restore) refers to stm32f10x_tim.o(i.TIM_Cmd) for TIM_Cmd
    encode.o(i.Encoder_A0_Restore) refers to stm32f10x_rcc.o(i.RCC_APB2PeriphClockCmd) for RCC_APB2PeriphClockCmd
    encode.o(i.Encoder_A0_Restore) refers to stm32f10x_gpio.o(i.GPIO_PinRemapConfig) for GPIO_PinRemapConfig
    encode.o(i.Encoder_A0_Restore) refers to stm32f10x_gpio.o(i.GPIO_Init) for GPIO_Init
    encode.o(i.Encoder_A0_Restore) refers to encode.o(.data) for .data
    encode.o(i.Encoder_A1_Configuration) refers to stm32f10x_rcc.o(i.RCC_APB2PeriphClockCmd) for RCC_APB2PeriphClockCmd
    encode.o(i.Encoder_A1_Configuration) refers to stm32f10x_rcc.o(i.RCC_APB1PeriphClockCmd) for RCC_APB1PeriphClockCmd
    encode.o(i.Encoder_A1_Configuration) refers to stm32f10x_gpio.o(i.GPIO_Init) for GPIO_Init
    encode.o(i.Encoder_A1_Configuration) refers to misc.o(i.NVIC_PriorityGroupConfig) for NVIC_PriorityGroupConfig
    encode.o(i.Encoder_A1_Configuration) refers to misc.o(i.NVIC_Init) for NVIC_Init
    encode.o(i.Encoder_A1_Configuration) refers to stm32f10x_tim.o(i.TIM_DeInit) for TIM_DeInit
    encode.o(i.Encoder_A1_Configuration) refers to stm32f10x_tim.o(i.TIM_TimeBaseInit) for TIM_TimeBaseInit
    encode.o(i.Encoder_A1_Configuration) refers to stm32f10x_tim.o(i.TIM_SetCounter) for TIM_SetCounter
    encode.o(i.Encoder_A1_Configuration) refers to stm32f10x_tim.o(i.TIM_TIxExternalClockConfig) for TIM_TIxExternalClockConfig
    encode.o(i.Encoder_A1_Configuration) refers to stm32f10x_tim.o(i.TIM_ClearFlag) for TIM_ClearFlag
    encode.o(i.Encoder_A1_Configuration) refers to stm32f10x_tim.o(i.TIM_ITConfig) for TIM_ITConfig
    encode.o(i.Encoder_A1_Configuration) refers to stm32f10x_tim.o(i.TIM_Cmd) for TIM_Cmd
    encode.o(i.Encoder_A1_Configuration) refers to encode.o(.bss) for .bss
    encode.o(i.Encoder_A1_Restore) refers to stm32f10x_tim.o(i.TIM_DeInit) for TIM_DeInit
    encode.o(i.Encoder_A1_Restore) refers to stm32f10x_tim.o(i.TIM_Cmd) for TIM_Cmd
    encode.o(i.Encoder_A1_Restore) refers to stm32f10x_rcc.o(i.RCC_APB2PeriphClockCmd) for RCC_APB2PeriphClockCmd
    encode.o(i.Encoder_A1_Restore) refers to stm32f10x_gpio.o(i.GPIO_Init) for GPIO_Init
    encode.o(i.Encoder_A1_Restore) refers to encode.o(.data) for .data
    encode.o(i.Encoder_AB0_Configration) refers to stm32f10x_rcc.o(i.RCC_APB2PeriphClockCmd) for RCC_APB2PeriphClockCmd
    encode.o(i.Encoder_AB0_Configration) refers to stm32f10x_rcc.o(i.RCC_APB1PeriphClockCmd) for RCC_APB1PeriphClockCmd
    encode.o(i.Encoder_AB0_Configration) refers to stm32f10x_gpio.o(i.GPIO_PinRemapConfig) for GPIO_PinRemapConfig
    encode.o(i.Encoder_AB0_Configration) refers to stm32f10x_gpio.o(i.GPIO_Init) for GPIO_Init
    encode.o(i.Encoder_AB0_Configration) refers to stm32f10x_tim.o(i.TIM_DeInit) for TIM_DeInit
    encode.o(i.Encoder_AB0_Configration) refers to stm32f10x_tim.o(i.TIM_TimeBaseInit) for TIM_TimeBaseInit
    encode.o(i.Encoder_AB0_Configration) refers to stm32f10x_tim.o(i.TIM_EncoderInterfaceConfig) for TIM_EncoderInterfaceConfig
    encode.o(i.Encoder_AB0_Configration) refers to stm32f10x_tim.o(i.TIM_ICStructInit) for TIM_ICStructInit
    encode.o(i.Encoder_AB0_Configration) refers to stm32f10x_tim.o(i.TIM_ICInit) for TIM_ICInit
    encode.o(i.Encoder_AB0_Configration) refers to stm32f10x_tim.o(i.TIM_SetCounter) for TIM_SetCounter
    encode.o(i.Encoder_AB0_Configration) refers to stm32f10x_tim.o(i.TIM_Cmd) for TIM_Cmd
    encode.o(i.Encoder_AB0_Configration) refers to encode.o(.bss) for .bss
    encode.o(i.Encoder_AB0_Restore) refers to stm32f10x_rcc.o(i.RCC_APB2PeriphClockCmd) for RCC_APB2PeriphClockCmd
    encode.o(i.Encoder_AB0_Restore) refers to stm32f10x_tim.o(i.TIM_Cmd) for TIM_Cmd
    encode.o(i.Encoder_AB0_Restore) refers to stm32f10x_gpio.o(i.GPIO_PinRemapConfig) for GPIO_PinRemapConfig
    encode.o(i.Encoder_AB0_Restore) refers to stm32f10x_gpio.o(i.GPIO_Init) for GPIO_Init
    encode.o(i.Encoder_AB0_Restore) refers to encode.o(.data) for .data
    encode.o(i.Encoder_AB1_Configration) refers to stm32f10x_rcc.o(i.RCC_APB2PeriphClockCmd) for RCC_APB2PeriphClockCmd
    encode.o(i.Encoder_AB1_Configration) refers to stm32f10x_rcc.o(i.RCC_APB1PeriphClockCmd) for RCC_APB1PeriphClockCmd
    encode.o(i.Encoder_AB1_Configration) refers to stm32f10x_gpio.o(i.GPIO_Init) for GPIO_Init
    encode.o(i.Encoder_AB1_Configration) refers to stm32f10x_tim.o(i.TIM_DeInit) for TIM_DeInit
    encode.o(i.Encoder_AB1_Configration) refers to stm32f10x_tim.o(i.TIM_TimeBaseInit) for TIM_TimeBaseInit
    encode.o(i.Encoder_AB1_Configration) refers to stm32f10x_tim.o(i.TIM_EncoderInterfaceConfig) for TIM_EncoderInterfaceConfig
    encode.o(i.Encoder_AB1_Configration) refers to stm32f10x_tim.o(i.TIM_ICStructInit) for TIM_ICStructInit
    encode.o(i.Encoder_AB1_Configration) refers to stm32f10x_tim.o(i.TIM_ICInit) for TIM_ICInit
    encode.o(i.Encoder_AB1_Configration) refers to stm32f10x_tim.o(i.TIM_SetCounter) for TIM_SetCounter
    encode.o(i.Encoder_AB1_Configration) refers to stm32f10x_tim.o(i.TIM_Cmd) for TIM_Cmd
    encode.o(i.Encoder_AB1_Configration) refers to encode.o(.bss) for .bss
    encode.o(i.Encoder_AB1_Restore) refers to stm32f10x_tim.o(i.TIM_Cmd) for TIM_Cmd
    encode.o(i.Encoder_AB1_Restore) refers to stm32f10x_rcc.o(i.RCC_APB2PeriphClockCmd) for RCC_APB2PeriphClockCmd
    encode.o(i.Encoder_AB1_Restore) refers to stm32f10x_gpio.o(i.GPIO_Init) for GPIO_Init
    encode.o(i.Encoder_AB1_Restore) refers to encode.o(.data) for .data
    encode.o(i.Get_A0_Count) refers to stm32f10x_tim.o(i.TIM_GetCounter) for TIM_GetCounter
    encode.o(i.Get_A0_Count) refers to encode.o(.data) for .data
    encode.o(i.Get_A1_Count) refers to stm32f10x_tim.o(i.TIM_GetCounter) for TIM_GetCounter
    encode.o(i.Get_A1_Count) refers to encode.o(.data) for .data
    encode.o(i.Get_AB0_Count) refers to encode.o(i.ENC_Get_AB0_Electrical_Angle) for ENC_Get_AB0_Electrical_Angle
    encode.o(i.Get_AB0_Count) refers to encode.o(.data) for .data
    encode.o(i.Get_AB0_Count) refers to ladder.o(.constdata) for PLC_BIT_OR
    encode.o(i.Get_AB1_Count) refers to encode.o(i.ENC_Get_AB1_Electrical_Angle) for ENC_Get_AB1_Electrical_Angle
    encode.o(i.Get_AB1_Count) refers to encode.o(.data) for .data
    encode.o(i.Get_AB1_Count) refers to ladder.o(.constdata) for PLC_BIT_OR
    encode.o(i.TIM2_IRQHandler) refers to stm32f10x_tim.o(i.TIM_SetCounter) for TIM_SetCounter
    encode.o(i.TIM2_IRQHandler) refers to encode.o(.data) for .data
    encode.o(i.TIM3_IRQHandler) refers to stm32f10x_tim.o(i.TIM_SetCounter) for TIM_SetCounter
    encode.o(i.TIM3_IRQHandler) refers to encode.o(.data) for .data
    encode.o(i.X_Io_Restore) refers to stm32f10x_rcc.o(i.RCC_APB2PeriphClockCmd) for RCC_APB2PeriphClockCmd
    encode.o(i.X_Io_Restore) refers to stm32f10x_gpio.o(i.GPIO_Init) for GPIO_Init
    dac.o(i.DAC_data) refers to stm32f10x_dac.o(i.DAC_SetChannel1Data) for DAC_SetChannel1Data
    dac.o(i.DAC_data) refers to stm32f10x_dac.o(i.DAC_SetChannel2Data) for DAC_SetChannel2Data
    dac.o(i.DAC_data) refers to stm32f10x_dac.o(i.DAC_SoftwareTriggerCmd) for DAC_SoftwareTriggerCmd
    dac.o(i.DAC_data) refers to plc_com.o(.ARM.__AT_0x20001000) for plc_16BitBuf
    dac.o(i.DAC_out_init) refers to stm32f10x_rcc.o(i.RCC_APB2PeriphClockCmd) for RCC_APB2PeriphClockCmd
    dac.o(i.DAC_out_init) refers to stm32f10x_rcc.o(i.RCC_APB1PeriphClockCmd) for RCC_APB1PeriphClockCmd
    dac.o(i.DAC_out_init) refers to stm32f10x_gpio.o(i.GPIO_Init) for GPIO_Init
    dac.o(i.DAC_out_init) refers to stm32f10x_dac.o(i.DAC_Init) for DAC_Init
    dac.o(i.DAC_out_init) refers to stm32f10x_dac.o(i.DAC_Cmd) for DAC_Cmd
    dac.o(i.DAC_out_init) refers to stm32f10x_dac.o(i.DAC_SoftwareTriggerCmd) for DAC_SoftwareTriggerCmd
    dac.o(i.DAC_out_init) refers to stm32f10x_dac.o(i.DAC_SetChannel1Data) for DAC_SetChannel1Data
    dac.o(i.DAC_out_init) refers to stm32f10x_dac.o(i.DAC_SetChannel2Data) for DAC_SetChannel2Data
    adc.o(i.ADC_Sample) refers to adc.o(.data) for .data
    adc.o(i.ADC_Sample) refers to adc.o(.bss) for .bss
    adc.o(i.ADC_Sample) refers to plc_com.o(.ARM.__AT_0x20001000) for plc_16BitBuf
    adc.o(i.ADC_init) refers to stm32f10x_rcc.o(i.RCC_APB2PeriphClockCmd) for RCC_APB2PeriphClockCmd
    adc.o(i.ADC_init) refers to stm32f10x_rcc.o(i.RCC_AHBPeriphClockCmd) for RCC_AHBPeriphClockCmd
    adc.o(i.ADC_init) refers to stm32f10x_gpio.o(i.GPIO_Init) for GPIO_Init
    adc.o(i.ADC_init) refers to stm32f10x_dma.o(i.DMA_DeInit) for DMA_DeInit
    adc.o(i.ADC_init) refers to stm32f10x_dma.o(i.DMA_Init) for DMA_Init
    adc.o(i.ADC_init) refers to stm32f10x_dma.o(i.DMA_ITConfig) for DMA_ITConfig
    adc.o(i.ADC_init) refers to stm32f10x_dma.o(i.DMA_Cmd) for DMA_Cmd
    adc.o(i.ADC_init) refers to stm32f10x_adc.o(i.ADC_Init) for ADC_Init
    adc.o(i.ADC_init) refers to stm32f10x_adc.o(i.ADC_RegularChannelConfig) for ADC_RegularChannelConfig
    adc.o(i.ADC_init) refers to stm32f10x_adc.o(i.ADC_Cmd) for ADC_Cmd
    adc.o(i.ADC_init) refers to stm32f10x_adc.o(i.ADC_ResetCalibration) for ADC_ResetCalibration
    adc.o(i.ADC_init) refers to stm32f10x_adc.o(i.ADC_GetResetCalibrationStatus) for ADC_GetResetCalibrationStatus
    adc.o(i.ADC_init) refers to stm32f10x_adc.o(i.ADC_StartCalibration) for ADC_StartCalibration
    adc.o(i.ADC_init) refers to stm32f10x_adc.o(i.ADC_GetCalibrationStatus) for ADC_GetCalibrationStatus
    adc.o(i.ADC_init) refers to stm32f10x_adc.o(i.ADC_DMACmd) for ADC_DMACmd
    adc.o(i.ADC_init) refers to misc.o(i.NVIC_PriorityGroupConfig) for NVIC_PriorityGroupConfig
    adc.o(i.ADC_init) refers to misc.o(i.NVIC_Init) for NVIC_Init
    adc.o(i.ADC_init) refers to adc.o(.data) for .data
    adc.o(i.ClacNTC) refers to adc.o(.constdata) for .constdata
    adc.o(i.DMA1_Channel1_IRQHandler) refers to stm32f10x_dma.o(i.DMA_ClearITPendingBit) for DMA_ClearITPendingBit
    adc.o(i.DMA1_Channel1_IRQHandler) refers to adc.o(.data) for .data
    adc.o(i.DMA1_Channel1_IRQHandler) refers to adc.o(.bss) for .bss
    adc.o(i.GetNTC) refers to adc.o(i.ClacNTC) for ClacNTC
    plc_com.o(i.DMA1_Channel4_IRQHandler) refers to plc_com.o(.data) for .data
    plc_com.o(i.EPC_FORCE_OFF) refers to plc_com.o(i.PLC_Com_BIT) for PLC_Com_BIT
    plc_com.o(i.EPC_FORCE_OFF) refers to plc_com.o(.data) for .data
    plc_com.o(i.EPC_FORCE_OFF) refers to ladder.o(.constdata) for PLC_BIT_AND
    plc_com.o(i.EPC_FORCE_OFF) refers to plc_com.o(.bss) for .bss
    plc_com.o(i.EPC_FORCE_ON) refers to plc_com.o(i.PLC_Com_BIT) for PLC_Com_BIT
    plc_com.o(i.EPC_FORCE_ON) refers to plc_com.o(.data) for .data
    plc_com.o(i.EPC_FORCE_ON) refers to ladder.o(.constdata) for PLC_BIT_OR
    plc_com.o(i.EPC_FORCE_ON) refers to plc_com.o(.bss) for .bss
    plc_com.o(i.ErasurePLC) refers to plc_com.o(i.backup_block) for backup_block
    plc_com.o(i.ErasurePLC) refers to stm32f10x_flash.o(i.FLASH_Unlock) for FLASH_Unlock
    plc_com.o(i.ErasurePLC) refers to stm32f10x_flash.o(i.FLASH_ErasePage) for FLASH_ErasePage
    plc_com.o(i.ErasurePLC) refers to plc_com.o(i.write_block) for write_block
    plc_com.o(i.ErasurePLC) refers to stm32f10x_flash.o(i.FLASH_Lock) for FLASH_Lock
    plc_com.o(i.ErasurePLC) refers to plc_com.o(.bss) for .bss
    plc_com.o(i.ErasurePLC) refers to plc_com.o(.ARM.__AT_0x20001000) for .ARM.__AT_0x20001000
    plc_com.o(i.ErasurePLC) refers to plc_com.o(.data) for .data
    plc_com.o(i.PC_FORCE_OFF) refers to plc_com.o(.bss) for .bss
    plc_com.o(i.PC_FORCE_OFF) refers to plc_com.o(.data) for .data
    plc_com.o(i.PC_FORCE_ON) refers to plc_com.o(.bss) for .bss
    plc_com.o(i.PC_FORCE_ON) refers to plc_com.o(.data) for .data
    plc_com.o(i.PC_OPTION_PROG) refers to plc_com.o(i.setup_LH) for setup_LH
    plc_com.o(i.PC_OPTION_PROG) refers to plc_com.o(i.EPC_FORCE_OFF) for EPC_FORCE_OFF
    plc_com.o(i.PC_OPTION_PROG) refers to plc_com.o(i.EPC_FORCE_ON) for EPC_FORCE_ON
    plc_com.o(i.PC_OPTION_PROG) refers to plc_com.o(i.PC_READ_Parameter) for PC_READ_Parameter
    plc_com.o(i.PC_OPTION_PROG) refers to plc_com.o(i.PC_WRITE_Parameter) for PC_WRITE_Parameter
    plc_com.o(i.PC_OPTION_PROG) refers to plc_com.o(i.PC_READ_PORG) for PC_READ_PORG
    plc_com.o(i.PC_OPTION_PROG) refers to plc_com.o(i.PC_WRITE_PORG) for PC_WRITE_PORG
    plc_com.o(i.PC_OPTION_PROG) refers to plc_com.o(i.all_flash_lock) for all_flash_lock
    plc_com.o(i.PC_OPTION_PROG) refers to plc_com.o(i.find_data_address) for find_data_address
    plc_com.o(i.PC_OPTION_PROG) refers to plc_com.o(i.all_flash_unlock) for all_flash_unlock
    plc_com.o(i.PC_OPTION_PROG) refers to plc_com.o(i.ErasurePLC) for ErasurePLC
    plc_com.o(i.PC_OPTION_PROG) refers to plc_com.o(.data) for .data
    plc_com.o(i.PC_OPTION_PROG) refers to plc_com.o(.bss) for .bss
    plc_com.o(i.PC_OPTION_PROG) refers to plc_com.o(.constdata) for .constdata
    plc_com.o(i.PC_READ_PORG) refers to plc_com.o(.bss) for .bss
    plc_com.o(i.PC_READ_PORG) refers to plc_com.o(.data) for .data
    plc_com.o(i.PC_READ_PORG) refers to plc_com.o(.constdata) for .constdata
    plc_com.o(i.PC_READ_PORG) refers to plc_com.o(.ARM.__AT_0x08006000) for .ARM.__AT_0x08006000
    plc_com.o(i.PC_READ_Parameter) refers to plc_com.o(i.PLC_Comm_Byte) for PLC_Comm_Byte
    plc_com.o(i.PC_READ_Parameter) refers to plc_com.o(i.PLC_Com_BIT) for PLC_Com_BIT
    plc_com.o(i.PC_READ_Parameter) refers to plc_com.o(.bss) for .bss
    plc_com.o(i.PC_READ_Parameter) refers to plc_com.o(.data) for .data
    plc_com.o(i.PC_READ_Parameter) refers to plc_com.o(.ARM.__AT_0x20001000) for .ARM.__AT_0x20001000
    plc_com.o(i.PC_READ_Parameter) refers to plc_com.o(.constdata) for .constdata
    plc_com.o(i.PC_READ_byte) refers to plc_com.o(i.read_other_data) for read_other_data
    plc_com.o(i.PC_READ_byte) refers to plc_com.o(i.read_plc_tyte) for read_plc_tyte
    plc_com.o(i.PC_READ_byte) refers to plc_com.o(.bss) for .bss
    plc_com.o(i.PC_READ_byte) refers to plc_com.o(.data) for .data
    plc_com.o(i.PC_WRITE_PORG) refers to plc_com.o(i.write_block) for write_block
    plc_com.o(i.PC_WRITE_PORG) refers to plc_com.o(i.backup_block) for backup_block
    plc_com.o(i.PC_WRITE_PORG) refers to plc_com.o(.bss) for .bss
    plc_com.o(i.PC_WRITE_PORG) refers to plc_com.o(.data) for .data
    plc_com.o(i.PC_WRITE_PORG) refers to ladder.o(.data) for edit_prog
    plc_com.o(i.PC_WRITE_Parameter) refers to plc_com.o(i.PLC_Comm_Byte) for PLC_Comm_Byte
    plc_com.o(i.PC_WRITE_Parameter) refers to plc_com.o(.bss) for .bss
    plc_com.o(i.PC_WRITE_Parameter) refers to plc_com.o(.data) for .data
    plc_com.o(i.PC_WRITE_byte) refers to plc_com.o(.bss) for .bss
    plc_com.o(i.PC_WRITE_byte) refers to plc_com.o(.data) for .data
    plc_com.o(i.PLC_1BIT_State) refers to plc_com.o(i.PLC_Com_BIT) for PLC_Com_BIT
    plc_com.o(i.PLC_1BIT_State) refers to plc_com.o(.bss) for .bss
    plc_com.o(i.PLC_1BIT_State) refers to ladder.o(.constdata) for PLC_BIT_OR
    plc_com.o(i.PLC_1BIT_State) refers to plc_com.o(.constdata) for .constdata
    plc_com.o(i.PLC_1BIT_State) refers to plc_com.o(.data) for .data
    plc_com.o(i.PLC_Download) refers to plc_com.o(i.READ_plc_programCodeBuf) for READ_plc_programCodeBuf
    plc_com.o(i.PLC_Download) refers to plc_com.o(i.PLC_1BIT_State) for PLC_1BIT_State
    plc_com.o(i.PLC_Download) refers to plc_com.o(.bss) for .bss
    plc_com.o(i.PLC_Download) refers to plc_com.o(.data) for .data
    plc_com.o(i.PLC_E_Expand) refers to plc_com.o(i.setup_LH) for setup_LH
    plc_com.o(i.PLC_E_Expand) refers to plc_com.o(i.PLC_Download) for PLC_Download
    plc_com.o(i.PLC_E_Expand) refers to plc_com.o(i.PLC_Upload) for PLC_Upload
    plc_com.o(i.PLC_E_Expand) refers to plc_com.o(i.online_write_data) for online_write_data
    plc_com.o(i.PLC_E_Expand) refers to plc_com.o(.bss) for .bss
    plc_com.o(i.PLC_E_Expand) refers to plc_com.o(.data) for .data
    plc_com.o(i.PLC_Upload) refers to plc_com.o(.bss) for .bss
    plc_com.o(i.PLC_Upload) refers to plc_com.o(.constdata) for .constdata
    plc_com.o(i.PLC_Upload) refers to plc_com.o(.data) for .data
    plc_com.o(i.Process_switch) refers to plc_com.o(i.switch_read_data) for switch_read_data
    plc_com.o(i.Process_switch) refers to plc_com.o(i.PC_READ_byte) for PC_READ_byte
    plc_com.o(i.Process_switch) refers to plc_com.o(i.PC_WRITE_byte) for PC_WRITE_byte
    plc_com.o(i.Process_switch) refers to plc_com.o(i.find_end) for find_end
    plc_com.o(i.Process_switch) refers to plc_com.o(i.setup_HL) for setup_HL
    plc_com.o(i.Process_switch) refers to plc_com.o(i.PC_FORCE_ON) for PC_FORCE_ON
    plc_com.o(i.Process_switch) refers to plc_com.o(i.PC_FORCE_OFF) for PC_FORCE_OFF
    plc_com.o(i.Process_switch) refers to plc_com.o(i.all_flash_lock) for all_flash_lock
    plc_com.o(i.Process_switch) refers to plc_com.o(i.PLC_E_Expand) for PLC_E_Expand
    plc_com.o(i.Process_switch) refers to plc_com.o(i.PC_OPTION_PROG) for PC_OPTION_PROG
    plc_com.o(i.Process_switch) refers to plc_com.o(.bss) for .bss
    plc_com.o(i.Process_switch) refers to plc_com.o(.data) for .data
    plc_com.o(i.READ_plc_programCodeBuf) refers to plc_com.o(.bss) for .bss
    plc_com.o(i.READ_plc_programCodeBuf) refers to plc_com.o(.constdata) for .constdata
    plc_com.o(i.READ_plc_programCodeBuf) refers to plc_com.o(.data) for .data
    plc_com.o(i.TX_Process) refers to plc_com.o(.data) for .data
    plc_com.o(i.USART1_Configuration) refers to stm32f10x_rcc.o(i.RCC_APB2PeriphClockCmd) for RCC_APB2PeriphClockCmd
    plc_com.o(i.USART1_Configuration) refers to stm32f10x_rcc.o(i.RCC_AHBPeriphClockCmd) for RCC_AHBPeriphClockCmd
    plc_com.o(i.USART1_Configuration) refers to stm32f10x_dma.o(i.DMA_DeInit) for DMA_DeInit
    plc_com.o(i.USART1_Configuration) refers to stm32f10x_dma.o(i.DMA_Init) for DMA_Init
    plc_com.o(i.USART1_Configuration) refers to stm32f10x_dma.o(i.DMA_ITConfig) for DMA_ITConfig
    plc_com.o(i.USART1_Configuration) refers to plc_com.o(i.usart) for usart
    plc_com.o(i.USART1_Configuration) refers to stm32f10x_usart.o(i.USART_ITConfig) for USART_ITConfig
    plc_com.o(i.USART1_Configuration) refers to stm32f10x_usart.o(i.USART_DMACmd) for USART_DMACmd
    plc_com.o(i.USART1_Configuration) refers to stm32f10x_usart.o(i.USART_Cmd) for USART_Cmd
    plc_com.o(i.USART1_Configuration) refers to stm32f10x_gpio.o(i.GPIO_Init) for GPIO_Init
    plc_com.o(i.USART1_Configuration) refers to plc_com.o(.bss) for .bss
    plc_com.o(i.USART1_IRQHandler) refers to stm32f10x_usart.o(i.USART_GetITStatus) for USART_GetITStatus
    plc_com.o(i.USART1_IRQHandler) refers to stm32f10x_usart.o(i.USART_ClearITPendingBit) for USART_ClearITPendingBit
    plc_com.o(i.USART1_IRQHandler) refers to plc_com.o(i.TX_Process) for TX_Process
    plc_com.o(i.USART1_IRQHandler) refers to plc_com.o(i.check) for check
    plc_com.o(i.USART1_IRQHandler) refers to plc_com.o(i.Process_switch) for Process_switch
    plc_com.o(i.USART1_IRQHandler) refers to stm32f10x_usart.o(i.USART_GetFlagStatus) for USART_GetFlagStatus
    plc_com.o(i.USART1_IRQHandler) refers to stm32f10x_usart.o(i.USART_ReceiveData) for USART_ReceiveData
    plc_com.o(i.USART1_IRQHandler) refers to plc_com.o(.bss) for .bss
    plc_com.o(i.USART1_IRQHandler) refers to plc_com.o(.data) for .data
    plc_com.o(i.USART1_IRQHandler) refers to plc_com.o(.constdata) for .constdata
    plc_com.o(i.all_flash_lock) refers to plc_com.o(i.write_block) for write_block
    plc_com.o(i.all_flash_lock) refers to stm32f10x_flash.o(i.FLASH_Lock) for FLASH_Lock
    plc_com.o(i.all_flash_lock) refers to plc_com.o(.data) for .data
    plc_com.o(i.all_flash_lock) refers to plc_com.o(.bss) for .bss
    plc_com.o(i.all_flash_unlock) refers to plc_com.o(.data) for .data
    plc_com.o(i.all_flash_unlock) refers to plc_com.o(.bss) for .bss
    plc_com.o(i.backup_block) refers to plc_com.o(.ARM.__AT_0x08006000) for .ARM.__AT_0x08006000
    plc_com.o(i.backup_block) refers to plc_com.o(.bss) for .bss
    plc_com.o(i.check) refers to plc_com.o(.data) for .data
    plc_com.o(i.data_init) refers to plc_com.o(.data) for .data
    plc_com.o(i.data_init) refers to plc_com.o(.constdata) for .constdata
    plc_com.o(i.data_init) refers to plc_com.o(.ARM.__AT_0x20001000) for .ARM.__AT_0x20001000
    plc_com.o(i.data_init) refers to plc_com.o(.ARM.__AT_0x08006000) for .ARM.__AT_0x08006000
    plc_com.o(i.find_data) refers to plc_com.o(.ARM.__AT_0x08006000) for .ARM.__AT_0x08006000
    plc_com.o(i.find_data_address) refers to plc_com.o(i.find_data) for find_data
    plc_com.o(i.find_data_address) refers to plc_com.o(.bss) for .bss
    plc_com.o(i.find_data_address) refers to plc_com.o(.data) for .data
    plc_com.o(i.find_data_address) refers to plc_com.o(.constdata) for .constdata
    plc_com.o(i.find_end) refers to plc_com.o(.data) for .data
    plc_com.o(i.find_end) refers to plc_com.o(.bss) for .bss
    plc_com.o(i.mov_flash) refers to plc_com.o(i.find_data) for find_data
    plc_com.o(i.mov_flash) refers to plc_com.o(i.backup_block) for backup_block
    plc_com.o(i.mov_flash) refers to plc_com.o(i.write_block) for write_block
    plc_com.o(i.mov_flash) refers to plc_com.o(.data) for .data
    plc_com.o(i.mov_flash) refers to plc_com.o(.bss) for .bss
    plc_com.o(i.mov_flash) refers to plc_com.o(.ARM.__AT_0x08006000) for .ARM.__AT_0x08006000
    plc_com.o(i.online_write_data) refers to plc_com.o(i.mov_flash) for mov_flash
    plc_com.o(i.online_write_data) refers to plc_com.o(i.write_block) for write_block
    plc_com.o(i.online_write_data) refers to plc_com.o(i.backup_block) for backup_block
    plc_com.o(i.online_write_data) refers to plc_com.o(i.find_data) for find_data
    plc_com.o(i.online_write_data) refers to plc_com.o(.bss) for .bss
    plc_com.o(i.online_write_data) refers to plc_com.o(.data) for .data
    plc_com.o(i.online_write_data) refers to ladder.o(.data) for edit_prog
    plc_com.o(i.online_write_data) refers to plc_com.o(.ARM.__AT_0x08006000) for .ARM.__AT_0x08006000
    plc_com.o(i.read_other_data) refers to plc_com.o(.bss) for .bss
    plc_com.o(i.read_other_data) refers to plc_com.o(.constdata) for .constdata
    plc_com.o(i.read_other_data) refers to plc_com.o(.data) for .data
    plc_com.o(i.read_plc_tyte) refers to plc_com.o(.constdata) for .constdata
    plc_com.o(i.read_plc_tyte) refers to plc_com.o(.bss) for .bss
    plc_com.o(i.read_plc_tyte) refers to plc_com.o(.data) for .data
    plc_com.o(i.setup_HL) refers to plc_com.o(.bss) for .bss
    plc_com.o(i.setup_HL) refers to plc_com.o(.data) for .data
    plc_com.o(i.setup_LH) refers to plc_com.o(.bss) for .bss
    plc_com.o(i.setup_LH) refers to plc_com.o(.data) for .data
    plc_com.o(i.switch_read_data) refers to plc_com.o(.bss) for .bss
    plc_com.o(i.switch_read_data) refers to plc_com.o(.constdata) for .constdata
    plc_com.o(i.switch_read_data) refers to plc_com.o(.data) for .data
    plc_com.o(i.usart) refers to stm32f10x_usart.o(i.USART_Init) for USART_Init
    plc_com.o(i.write_block) refers to stm32f10x_flash.o(i.FLASH_Unlock) for FLASH_Unlock
    plc_com.o(i.write_block) refers to stm32f10x_flash.o(i.FLASH_ErasePage) for FLASH_ErasePage
    plc_com.o(i.write_block) refers to stm32f10x_flash.o(i.FLASH_ProgramHalfWord) for FLASH_ProgramHalfWord
    plc_com.o(i.write_block) refers to stm32f10x_flash.o(i.FLASH_Lock) for FLASH_Lock
    plc_com.o(i.write_block) refers to plc_com.o(.bss) for .bss
    bsp.o(i.bsp_Idle) refers to modbus_slave.o(i.MODS_Poll) for MODS_Poll
    bsp.o(i.bsp_Init) refers to misc.o(i.NVIC_PriorityGroupConfig) for NVIC_PriorityGroupConfig
    bsp.o(i.bsp_Init) refers to bsp_uart_fifo.o(i.bsp_InitUart) for bsp_InitUart
    bsp.o(i.bsp_Init) refers to bsp_timer.o(i.bsp_InitTimer) for bsp_InitTimer
    bsp_led.o(i.bsp_InitLed) refers to stm32f10x_rcc.o(i.RCC_APB2PeriphClockCmd) for RCC_APB2PeriphClockCmd
    bsp_led.o(i.bsp_InitLed) refers to bsp_led.o(i.bsp_LedOff) for bsp_LedOff
    bsp_led.o(i.bsp_InitLed) refers to stm32f10x_gpio.o(i.GPIO_Init) for GPIO_Init
    bsp_msg.o(i.bsp_ClearMsg) refers to bsp_msg.o(.bss) for .bss
    bsp_msg.o(i.bsp_GetMsg) refers to bsp_msg.o(.bss) for .bss
    bsp_msg.o(i.bsp_GetMsg2) refers to bsp_msg.o(.bss) for .bss
    bsp_msg.o(i.bsp_InitMsg) refers to bsp_msg.o(i.bsp_ClearMsg) for bsp_ClearMsg
    bsp_msg.o(i.bsp_PutMsg) refers to bsp_msg.o(.bss) for .bss
    bsp_timer.o(i.SysTick_Handler) refers to bsp_timer.o(i.SysTick_ISR) for SysTick_ISR
    bsp_timer.o(i.SysTick_ISR) refers to plc_io.o(i.X_filter) for X_filter
    bsp_timer.o(i.SysTick_ISR) refers to encode.o(i.Encode_Pro_Callback) for Encode_Pro_Callback
    bsp_timer.o(i.SysTick_ISR) refers to plc_timer.o(i.T_1MS) for T_1MS
    bsp_timer.o(i.SysTick_ISR) refers to plc_timer.o(i.T_10MS) for T_10MS
    bsp_timer.o(i.SysTick_ISR) refers to plc_timer.o(i.T_100MS) for T_100MS
    bsp_timer.o(i.SysTick_ISR) refers to plc_timer.o(i.T_H100MS) for T_H100MS
    bsp_timer.o(i.SysTick_ISR) refers to dac.o(i.DAC_data) for DAC_data
    bsp_timer.o(i.SysTick_ISR) refers to stm32f10x_adc.o(i.ADC_SoftwareStartConvCmd) for ADC_SoftwareStartConvCmd
    bsp_timer.o(i.SysTick_ISR) refers to bsp.o(i.bsp_Idle) for bsp_Idle
    bsp_timer.o(i.SysTick_ISR) refers to ladder.o(i.RST_Y) for RST_Y
    bsp_timer.o(i.SysTick_ISR) refers to plc_other.o(i.PLC_SaveKeepData) for PLC_SaveKeepData
    bsp_timer.o(i.SysTick_ISR) refers to bsp_timer.o(.data) for .data
    bsp_timer.o(i.SysTick_ISR) refers to bsp_timer.o(.bss) for .bss
    bsp_timer.o(i.SysTick_ISR) refers to ladder.o(.constdata) for PLC_BIT_OR
    bsp_timer.o(i.SysTick_ISR) refers to plc_io.o(.data) for powerDownFlg
    bsp_timer.o(i.SysTick_ISR) refers to plc_com.o(.ARM.__AT_0x20001000) for plc_16BitBuf
    bsp_timer.o(i.SysTick_ISR) refers to plc_io.o(.data) for powerDownCnt
    bsp_timer.o(i.TIM5_IRQHandler) refers to stm32f10x_tim.o(i.TIM_GetITStatus) for TIM_GetITStatus
    bsp_timer.o(i.TIM5_IRQHandler) refers to stm32f10x_tim.o(i.TIM_ClearITPendingBit) for TIM_ClearITPendingBit
    bsp_timer.o(i.TIM5_IRQHandler) refers to stm32f10x_tim.o(i.TIM_ITConfig) for TIM_ITConfig
    bsp_timer.o(i.TIM5_IRQHandler) refers to bsp_timer.o(.data) for .data
    bsp_timer.o(i.bsp_CheckRunTime) refers to bsp_timer.o(.data) for .data
    bsp_timer.o(i.bsp_CheckTimer) refers to bsp_timer.o(.bss) for .bss
    bsp_timer.o(i.bsp_DelayMS) refers to bsp.o(i.bsp_Idle) for bsp_Idle
    bsp_timer.o(i.bsp_DelayMS) refers to bsp_timer.o(.data) for .data
    bsp_timer.o(i.bsp_DelayUS) refers to system_stm32f10x.o(.data) for SystemCoreClock
    bsp_timer.o(i.bsp_GetRunTime) refers to bsp_timer.o(.data) for .data
    bsp_timer.o(i.bsp_InitHardTimer) refers to stm32f10x_rcc.o(i.RCC_APB1PeriphClockCmd) for RCC_APB1PeriphClockCmd
    bsp_timer.o(i.bsp_InitHardTimer) refers to stm32f10x_tim.o(i.TIM_TimeBaseInit) for TIM_TimeBaseInit
    bsp_timer.o(i.bsp_InitHardTimer) refers to stm32f10x_tim.o(i.TIM_Cmd) for TIM_Cmd
    bsp_timer.o(i.bsp_InitHardTimer) refers to misc.o(i.NVIC_Init) for NVIC_Init
    bsp_timer.o(i.bsp_InitHardTimer) refers to system_stm32f10x.o(.data) for SystemCoreClock
    bsp_timer.o(i.bsp_InitTimer) refers to bsp_timer.o(i.bsp_InitHardTimer) for bsp_InitHardTimer
    bsp_timer.o(i.bsp_InitTimer) refers to bsp_timer.o(.bss) for .bss
    bsp_timer.o(i.bsp_InitTimer) refers to system_stm32f10x.o(.data) for SystemCoreClock
    bsp_timer.o(i.bsp_StartAutoTimer) refers to _printf_percent.o(.ARM.Collect$$_printf_percent$$00000000) for _printf_percent
    bsp_timer.o(i.bsp_StartAutoTimer) refers to _printf_s.o(.ARM.Collect$$_printf_percent$$00000014) for _printf_s
    bsp_timer.o(i.bsp_StartAutoTimer) refers to _printf_str.o(.text) for _printf_str
    bsp_timer.o(i.bsp_StartAutoTimer) refers to noretval__2printf.o(.text) for __2printf
    bsp_timer.o(i.bsp_StartAutoTimer) refers to bsp_timer.o(.constdata) for .constdata
    bsp_timer.o(i.bsp_StartAutoTimer) refers to bsp_timer.o(.bss) for .bss
    bsp_timer.o(i.bsp_StartHardTimer) refers to stm32f10x_tim.o(i.TIM_GetCounter) for TIM_GetCounter
    bsp_timer.o(i.bsp_StartHardTimer) refers to stm32f10x_tim.o(i.TIM_SetCompare4) for TIM_SetCompare4
    bsp_timer.o(i.bsp_StartHardTimer) refers to stm32f10x_tim.o(i.TIM_ClearITPendingBit) for TIM_ClearITPendingBit
    bsp_timer.o(i.bsp_StartHardTimer) refers to stm32f10x_tim.o(i.TIM_ITConfig) for TIM_ITConfig
    bsp_timer.o(i.bsp_StartHardTimer) refers to stm32f10x_tim.o(i.TIM_SetCompare1) for TIM_SetCompare1
    bsp_timer.o(i.bsp_StartHardTimer) refers to stm32f10x_tim.o(i.TIM_SetCompare2) for TIM_SetCompare2
    bsp_timer.o(i.bsp_StartHardTimer) refers to stm32f10x_tim.o(i.TIM_SetCompare3) for TIM_SetCompare3
    bsp_timer.o(i.bsp_StartHardTimer) refers to bsp_timer.o(.data) for .data
    bsp_timer.o(i.bsp_StartTimer) refers to _printf_percent.o(.ARM.Collect$$_printf_percent$$00000000) for _printf_percent
    bsp_timer.o(i.bsp_StartTimer) refers to _printf_s.o(.ARM.Collect$$_printf_percent$$00000014) for _printf_s
    bsp_timer.o(i.bsp_StartTimer) refers to _printf_str.o(.text) for _printf_str
    bsp_timer.o(i.bsp_StartTimer) refers to noretval__2printf.o(.text) for __2printf
    bsp_timer.o(i.bsp_StartTimer) refers to bsp_timer.o(.constdata) for .constdata
    bsp_timer.o(i.bsp_StartTimer) refers to bsp_timer.o(.bss) for .bss
    bsp_timer.o(i.bsp_StopTimer) refers to _printf_percent.o(.ARM.Collect$$_printf_percent$$00000000) for _printf_percent
    bsp_timer.o(i.bsp_StopTimer) refers to _printf_s.o(.ARM.Collect$$_printf_percent$$00000014) for _printf_s
    bsp_timer.o(i.bsp_StopTimer) refers to _printf_str.o(.text) for _printf_str
    bsp_timer.o(i.bsp_StopTimer) refers to noretval__2printf.o(.text) for __2printf
    bsp_timer.o(i.bsp_StopTimer) refers to bsp_timer.o(.constdata) for .constdata
    bsp_timer.o(i.bsp_StopTimer) refers to bsp_timer.o(.bss) for .bss
    bsp_uart_fifo.o(i.ComToUart) refers to bsp_uart_fifo.o(.bss) for .bss
    bsp_uart_fifo.o(i.InitHardUart) refers to stm32f10x_rcc.o(i.RCC_APB2PeriphClockCmd) for RCC_APB2PeriphClockCmd
    bsp_uart_fifo.o(i.InitHardUart) refers to stm32f10x_rcc.o(i.RCC_APB1PeriphClockCmd) for RCC_APB1PeriphClockCmd
    bsp_uart_fifo.o(i.InitHardUart) refers to stm32f10x_gpio.o(i.GPIO_Init) for GPIO_Init
    bsp_uart_fifo.o(i.InitHardUart) refers to stm32f10x_usart.o(i.USART_Init) for USART_Init
    bsp_uart_fifo.o(i.InitHardUart) refers to stm32f10x_usart.o(i.USART_ITConfig) for USART_ITConfig
    bsp_uart_fifo.o(i.InitHardUart) refers to stm32f10x_usart.o(i.USART_Cmd) for USART_Cmd
    bsp_uart_fifo.o(i.InitHardUart) refers to stm32f10x_usart.o(i.USART_ClearFlag) for USART_ClearFlag
    bsp_uart_fifo.o(i.RS485_InitTXE) refers to stm32f10x_rcc.o(i.RCC_APB2PeriphClockCmd) for RCC_APB2PeriphClockCmd
    bsp_uart_fifo.o(i.RS485_InitTXE) refers to stm32f10x_gpio.o(i.GPIO_Init) for GPIO_Init
    bsp_uart_fifo.o(i.RS485_ReciveNew) refers to modbus_host.o(i.MODH_ReciveNew) for MODH_ReciveNew
    bsp_uart_fifo.o(i.RS485_ReciveNew) refers to modbus_slave.o(i.MODS_ReciveNew) for MODS_ReciveNew
    bsp_uart_fifo.o(i.RS485_ReciveNew) refers to modbus_slave.o(.constdata) for config
    bsp_uart_fifo.o(i.RS485_SendBefor) refers to modbus_slave.o(.constdata) for config
    bsp_uart_fifo.o(i.RS485_SendBuf) refers to bsp_uart_fifo.o(i.comSendBuf) for comSendBuf
    bsp_uart_fifo.o(i.RS485_SendOver) refers to modbus_slave.o(.constdata) for config
    bsp_uart_fifo.o(i.RS485_SendStr) refers to strlen.o(.text) for strlen
    bsp_uart_fifo.o(i.RS485_SendStr) refers to bsp_uart_fifo.o(i.RS485_SendBuf) for RS485_SendBuf
    bsp_uart_fifo.o(i.USART3_IRQHandler) refers to bsp_uart_fifo.o(i.UartIRQ) for UartIRQ
    bsp_uart_fifo.o(i.USART3_IRQHandler) refers to bsp_uart_fifo.o(.bss) for .bss
    bsp_uart_fifo.o(i.UartIRQ) refers to stm32f10x_usart.o(i.USART_GetITStatus) for USART_GetITStatus
    bsp_uart_fifo.o(i.UartIRQ) refers to stm32f10x_usart.o(i.USART_ClearITPendingBit) for USART_ClearITPendingBit
    bsp_uart_fifo.o(i.UartIRQ) refers to stm32f10x_usart.o(i.USART_ReceiveData) for USART_ReceiveData
    bsp_uart_fifo.o(i.UartIRQ) refers to stm32f10x_usart.o(i.USART_SendData) for USART_SendData
    bsp_uart_fifo.o(i.UartIRQ) refers to stm32f10x_usart.o(i.USART_ITConfig) for USART_ITConfig
    bsp_uart_fifo.o(i.UartIRQ) refers to stm32f10x_usart.o(i.USART_ClearFlag) for USART_ClearFlag
    bsp_uart_fifo.o(i.UartVarInit) refers to bsp_uart_fifo.o(.bss) for .bss
    bsp_uart_fifo.o(i.UartVarInit) refers to bsp_uart_fifo.o(i.RS485_SendBefor) for RS485_SendBefor
    bsp_uart_fifo.o(i.UartVarInit) refers to bsp_uart_fifo.o(i.RS485_SendOver) for RS485_SendOver
    bsp_uart_fifo.o(i.UartVarInit) refers to bsp_uart_fifo.o(i.RS485_ReciveNew) for RS485_ReciveNew
    bsp_uart_fifo.o(i.bsp_InitUart) refers to bsp_uart_fifo.o(i.UartVarInit) for UartVarInit
    bsp_uart_fifo.o(i.bsp_InitUart) refers to bsp_uart_fifo.o(i.InitHardUart) for InitHardUart
    bsp_uart_fifo.o(i.bsp_InitUart) refers to bsp_uart_fifo.o(i.RS485_InitTXE) for RS485_InitTXE
    bsp_uart_fifo.o(i.bsp_InitUart) refers to misc.o(i.NVIC_Init) for NVIC_Init
    bsp_uart_fifo.o(i.bsp_SetUartBaud) refers to stm32f10x_usart.o(i.USART_Init) for USART_Init
    bsp_uart_fifo.o(i.comClearRxFifo) refers to bsp_uart_fifo.o(i.ComToUart) for ComToUart
    bsp_uart_fifo.o(i.comClearTxFifo) refers to bsp_uart_fifo.o(i.ComToUart) for ComToUart
    bsp_uart_fifo.o(i.comGetChar) refers to bsp_uart_fifo.o(i.ComToUart) for ComToUart
    bsp_uart_fifo.o(i.comSendBuf) refers to bsp_uart_fifo.o(i.ComToUart) for ComToUart
    bsp_uart_fifo.o(i.comSendBuf) refers to stm32f10x_usart.o(i.USART_ITConfig) for USART_ITConfig
    bsp_uart_fifo.o(i.comSendChar) refers to bsp_uart_fifo.o(i.comSendBuf) for comSendBuf
    bsp_uart_fifo.o(i.fgetc) refers to stm32f10x_usart.o(i.USART_GetFlagStatus) for USART_GetFlagStatus
    bsp_uart_fifo.o(i.fgetc) refers to stm32f10x_usart.o(i.USART_ReceiveData) for USART_ReceiveData
    bsp_uart_fifo.o(i.fputc) refers to stm32f10x_usart.o(i.USART_SendData) for USART_SendData
    bsp_uart_fifo.o(i.fputc) refers to stm32f10x_usart.o(i.USART_GetFlagStatus) for USART_GetFlagStatus
    bsp_user_lib.o(i.CRC16_Modbus) refers to bsp_user_lib.o(.constdata) for .constdata
    bsp_user_lib.o(i.CaculTwoPoint) refers to llsdiv.o(.text) for __aeabi_ldivmod
    bsp_user_lib.o(i.HexToAscll) refers to bsp_user_lib.o(i.BcdToChar) for BcdToChar
    bsp_user_lib.o(i.int_to_str) refers to bsp_user_lib.o(i.mem_set) for mem_set
    modbus_host.o(i.MODH_AnalyzeApp) refers to modbus_host.o(i.MODH_Read_03H) for MODH_Read_03H
    modbus_host.o(i.MODH_AnalyzeApp) refers to modbus_host.o(i.MODH_Read_01H) for MODH_Read_01H
    modbus_host.o(i.MODH_AnalyzeApp) refers to modbus_host.o(i.MODH_Read_02H) for MODH_Read_02H
    modbus_host.o(i.MODH_AnalyzeApp) refers to modbus_host.o(.bss) for .bss
    modbus_host.o(i.MODH_AnalyzeApp) refers to plc_com.o(.ARM.__AT_0x20001000) for plc_16BitBuf
    modbus_host.o(i.MODH_Poll) refers to bsp_user_lib.o(i.CRC16_Modbus) for CRC16_Modbus
    modbus_host.o(i.MODH_Poll) refers to modbus_host.o(i.MODH_AnalyzeApp) for MODH_AnalyzeApp
    modbus_host.o(i.MODH_Poll) refers to modbus_host.o(.bss) for .bss
    modbus_host.o(i.MODH_Poll) refers to bsp_timer.o(.data) for gCommLedFlashFlg
    modbus_host.o(i.MODH_Read_01H) refers to modbus_slave.o(i.GetBitOffset) for GetBitOffset
    modbus_host.o(i.MODH_Read_01H) refers to modbus_slave.o(i.xMBUtilSetBits) for xMBUtilSetBits
    modbus_host.o(i.MODH_Read_01H) refers to modbus_slave.o(.bss) for gModbusBitBuf
    modbus_host.o(i.MODH_Read_01H) refers to modbus_host.o(.bss) for .bss
    modbus_host.o(i.MODH_Read_02H) refers to modbus_slave.o(i.GetBitOffset) for GetBitOffset
    modbus_host.o(i.MODH_Read_02H) refers to modbus_slave.o(i.xMBUtilSetBits) for xMBUtilSetBits
    modbus_host.o(i.MODH_Read_02H) refers to modbus_slave.o(.bss) for gModbusBitBuf
    modbus_host.o(i.MODH_Read_02H) refers to modbus_host.o(.bss) for .bss
    modbus_host.o(i.MODH_Read_03H) refers to bsp_user_lib.o(i.BEBufToUint16) for BEBufToUint16
    modbus_host.o(i.MODH_Read_03H) refers to modbus_host.o(.bss) for .bss
    modbus_host.o(i.MODH_Read_03H) refers to plc_com.o(.ARM.__AT_0x20001000) for plc_16BitBuf
    modbus_host.o(i.MODH_ReciveNew) refers to bsp_timer.o(i.bsp_StartHardTimer) for bsp_StartHardTimer
    modbus_host.o(i.MODH_ReciveNew) refers to modbus_host.o(.bss) for .bss
    modbus_host.o(i.MODH_ReciveNew) refers to modbus_host.o(i.MODH_RxTimeOut) for MODH_RxTimeOut
    modbus_host.o(i.MODH_RxTimeOut) refers to modbus_host.o(.bss) for .bss
    modbus_host.o(i.MODH_SendAckWithCRC) refers to bsp_user_lib.o(i.CRC16_Modbus) for CRC16_Modbus
    modbus_host.o(i.MODH_SendAckWithCRC) refers to modbus_host.o(i.MODH_SendPacket) for MODH_SendPacket
    modbus_host.o(i.MODH_SendAckWithCRC) refers to modbus_host.o(.bss) for .bss
    modbus_host.o(i.MODH_SendPacket) refers to bsp_uart_fifo.o(i.RS485_SendBuf) for RS485_SendBuf
    modbus_host.o(i.MODH_SendPacket) refers to modbus_slave.o(.constdata) for config
    modbus_host.o(i.MODH_Send_01To04H) refers to modbus_host.o(i.MODH_SendAckWithCRC) for MODH_SendAckWithCRC
    modbus_host.o(i.MODH_Send_01To04H) refers to modbus_host.o(.bss) for .bss
    modbus_host.o(i.MODH_Send_05H) refers to modbus_host.o(i.MODH_SendAckWithCRC) for MODH_SendAckWithCRC
    modbus_host.o(i.MODH_Send_05H) refers to modbus_host.o(.bss) for .bss
    modbus_host.o(i.MODH_Send_05H) refers to plc_com.o(.ARM.__AT_0x20001000) for plc_16BitBuf
    modbus_host.o(i.MODH_Send_06H) refers to modbus_host.o(i.MODH_SendAckWithCRC) for MODH_SendAckWithCRC
    modbus_host.o(i.MODH_Send_06H) refers to modbus_host.o(.bss) for .bss
    modbus_host.o(i.MODH_Send_06H) refers to plc_com.o(.ARM.__AT_0x20001000) for plc_16BitBuf
    modbus_host.o(i.MODH_Send_0FH) refers to modbus_slave.o(i.GetBitOffset) for GetBitOffset
    modbus_host.o(i.MODH_Send_0FH) refers to modbus_slave.o(i.xMBUtilGetBits) for xMBUtilGetBits
    modbus_host.o(i.MODH_Send_0FH) refers to modbus_host.o(i.MODH_SendAckWithCRC) for MODH_SendAckWithCRC
    modbus_host.o(i.MODH_Send_0FH) refers to modbus_slave.o(.bss) for gModbusBitBuf
    modbus_host.o(i.MODH_Send_0FH) refers to modbus_host.o(.bss) for .bss
    modbus_host.o(i.MODH_Send_10H) refers to modbus_host.o(i.MODH_SendAckWithCRC) for MODH_SendAckWithCRC
    modbus_host.o(i.MODH_Send_10H) refers to modbus_host.o(.bss) for .bss
    modbus_host.o(i.MODH_Send_10H) refers to plc_com.o(.ARM.__AT_0x20001000) for plc_16BitBuf
    modbus_host.o(i.ModHostMode_SendDeal) refers to modbus_host.o(i.MODH_Send_01To04H) for MODH_Send_01To04H
    modbus_host.o(i.ModHostMode_SendDeal) refers to modbus_host.o(i.MODH_Send_05H) for MODH_Send_05H
    modbus_host.o(i.ModHostMode_SendDeal) refers to modbus_host.o(i.MODH_Send_06H) for MODH_Send_06H
    modbus_host.o(i.ModHostMode_SendDeal) refers to modbus_host.o(i.MODH_Send_0FH) for MODH_Send_0FH
    modbus_host.o(i.ModHostMode_SendDeal) refers to modbus_host.o(i.MODH_Send_10H) for MODH_Send_10H
    modbus_host.o(i.ModHostMode_SendDeal) refers to plc_com.o(.ARM.__AT_0x20001000) for plc_16BitBuf
    modbus_host.o(i.ModHostMode_SendDeal) refers to modbus_host.o(.bss) for .bss
    modbus_slave.o(i.MODS_01H) refers to bsp_user_lib.o(i.BEBufToUint16) for BEBufToUint16
    modbus_slave.o(i.MODS_01H) refers to modbus_slave.o(i.GetBitOffset) for GetBitOffset
    modbus_slave.o(i.MODS_01H) refers to modbus_slave.o(i.xMBUtilGetBits) for xMBUtilGetBits
    modbus_slave.o(i.MODS_01H) refers to modbus_slave.o(i.MODS_SendAckErr) for MODS_SendAckErr
    modbus_slave.o(i.MODS_01H) refers to modbus_slave.o(i.MODS_SendWithCRC) for MODS_SendWithCRC
    modbus_slave.o(i.MODS_01H) refers to modbus_slave.o(.bss) for .bss
    modbus_slave.o(i.MODS_02H) refers to bsp_user_lib.o(i.BEBufToUint16) for BEBufToUint16
    modbus_slave.o(i.MODS_02H) refers to modbus_slave.o(i.GetBitOffset) for GetBitOffset
    modbus_slave.o(i.MODS_02H) refers to modbus_slave.o(i.xMBUtilGetBits) for xMBUtilGetBits
    modbus_slave.o(i.MODS_02H) refers to modbus_slave.o(i.MODS_SendAckErr) for MODS_SendAckErr
    modbus_slave.o(i.MODS_02H) refers to modbus_slave.o(i.MODS_SendWithCRC) for MODS_SendWithCRC
    modbus_slave.o(i.MODS_02H) refers to modbus_slave.o(.bss) for .bss
    modbus_slave.o(i.MODS_03H) refers to bsp_user_lib.o(i.BEBufToUint16) for BEBufToUint16
    modbus_slave.o(i.MODS_03H) refers to modbus_slave.o(i.MODS_SendWithCRC) for MODS_SendWithCRC
    modbus_slave.o(i.MODS_03H) refers to modbus_slave.o(i.MODS_SendAckErr) for MODS_SendAckErr
    modbus_slave.o(i.MODS_03H) refers to modbus_slave.o(.bss) for .bss
    modbus_slave.o(i.MODS_03H) refers to plc_com.o(.ARM.__AT_0x20001000) for plc_16BitBuf
    modbus_slave.o(i.MODS_05H) refers to bsp_user_lib.o(i.BEBufToUint16) for BEBufToUint16
    modbus_slave.o(i.MODS_05H) refers to modbus_slave.o(i.GetBitOffset) for GetBitOffset
    modbus_slave.o(i.MODS_05H) refers to modbus_slave.o(i.MODS_SendAckErr) for MODS_SendAckErr
    modbus_slave.o(i.MODS_05H) refers to modbus_slave.o(i.MODS_SendAckOk) for MODS_SendAckOk
    modbus_slave.o(i.MODS_05H) refers to modbus_slave.o(.bss) for .bss
    modbus_slave.o(i.MODS_06H) refers to bsp_user_lib.o(i.BEBufToUint16) for BEBufToUint16
    modbus_slave.o(i.MODS_06H) refers to modbus_slave.o(i.MODS_SendAckErr) for MODS_SendAckErr
    modbus_slave.o(i.MODS_06H) refers to modbus_slave.o(i.MODS_SendAckOk) for MODS_SendAckOk
    modbus_slave.o(i.MODS_06H) refers to modbus_slave.o(.bss) for .bss
    modbus_slave.o(i.MODS_06H) refers to plc_com.o(.ARM.__AT_0x20001000) for plc_16BitBuf
    modbus_slave.o(i.MODS_0FH) refers to bsp_user_lib.o(i.BEBufToUint16) for BEBufToUint16
    modbus_slave.o(i.MODS_0FH) refers to modbus_slave.o(i.GetBitOffset) for GetBitOffset
    modbus_slave.o(i.MODS_0FH) refers to modbus_slave.o(i.xMBUtilSetBits) for xMBUtilSetBits
    modbus_slave.o(i.MODS_0FH) refers to modbus_slave.o(i.MODS_SendAckErr) for MODS_SendAckErr
    modbus_slave.o(i.MODS_0FH) refers to modbus_slave.o(i.MODS_SendAckOk) for MODS_SendAckOk
    modbus_slave.o(i.MODS_0FH) refers to modbus_slave.o(.bss) for .bss
    modbus_slave.o(i.MODS_10H) refers to bsp_user_lib.o(i.BEBufToUint16) for BEBufToUint16
    modbus_slave.o(i.MODS_10H) refers to modbus_slave.o(i.MODS_SendAckErr) for MODS_SendAckErr
    modbus_slave.o(i.MODS_10H) refers to modbus_slave.o(i.MODS_SendAckOk) for MODS_SendAckOk
    modbus_slave.o(i.MODS_10H) refers to modbus_slave.o(.bss) for .bss
    modbus_slave.o(i.MODS_10H) refers to plc_com.o(.ARM.__AT_0x20001000) for plc_16BitBuf
    modbus_slave.o(i.MODS_AnalyzeApp) refers to modbus_slave.o(i.MODS_SendAckErr) for MODS_SendAckErr
    modbus_slave.o(i.MODS_AnalyzeApp) refers to modbus_slave.o(i.MODS_01H) for MODS_01H
    modbus_slave.o(i.MODS_AnalyzeApp) refers to modbus_slave.o(i.MODS_02H) for MODS_02H
    modbus_slave.o(i.MODS_AnalyzeApp) refers to modbus_slave.o(i.MODS_03H) for MODS_03H
    modbus_slave.o(i.MODS_AnalyzeApp) refers to modbus_slave.o(i.MODS_05H) for MODS_05H
    modbus_slave.o(i.MODS_AnalyzeApp) refers to modbus_slave.o(i.MODS_06H) for MODS_06H
    modbus_slave.o(i.MODS_AnalyzeApp) refers to modbus_slave.o(i.MODS_0FH) for MODS_0FH
    modbus_slave.o(i.MODS_AnalyzeApp) refers to modbus_slave.o(i.MODS_10H) for MODS_10H
    modbus_slave.o(i.MODS_AnalyzeApp) refers to modbus_slave.o(.bss) for .bss
    modbus_slave.o(i.MODS_Poll) refers to bsp_user_lib.o(i.CRC16_Modbus) for CRC16_Modbus
    modbus_slave.o(i.MODS_Poll) refers to modbus_slave.o(i.MODS_AnalyzeApp) for MODS_AnalyzeApp
    modbus_slave.o(i.MODS_Poll) refers to modbus_slave.o(.bss) for .bss
    modbus_slave.o(i.MODS_Poll) refers to plc_com.o(.ARM.__AT_0x20001000) for plc_16BitBuf
    modbus_slave.o(i.MODS_Poll) refers to bsp_timer.o(.data) for gCommLedFlashFlg
    modbus_slave.o(i.MODS_ReciveNew) refers to bsp_timer.o(i.bsp_StartHardTimer) for bsp_StartHardTimer
    modbus_slave.o(i.MODS_ReciveNew) refers to modbus_slave.o(.bss) for .bss
    modbus_slave.o(i.MODS_ReciveNew) refers to modbus_slave.o(i.MODS_RxTimeOut) for MODS_RxTimeOut
    modbus_slave.o(i.MODS_RxTimeOut) refers to modbus_slave.o(.bss) for .bss
    modbus_slave.o(i.MODS_SendAckErr) refers to modbus_slave.o(i.MODS_SendWithCRC) for MODS_SendWithCRC
    modbus_slave.o(i.MODS_SendAckErr) refers to modbus_slave.o(.bss) for .bss
    modbus_slave.o(i.MODS_SendAckOk) refers to modbus_slave.o(i.MODS_SendWithCRC) for MODS_SendWithCRC
    modbus_slave.o(i.MODS_SendAckOk) refers to modbus_slave.o(.bss) for .bss
    modbus_slave.o(i.MODS_SendWithCRC) refers to rt_memcpy_v6.o(.text) for __aeabi_memcpy
    modbus_slave.o(i.MODS_SendWithCRC) refers to bsp_user_lib.o(i.CRC16_Modbus) for CRC16_Modbus
    modbus_slave.o(i.MODS_SendWithCRC) refers to bsp_uart_fifo.o(i.RS485_SendBuf) for RS485_SendBuf
    modbus_slave.o(i.MODS_SendWithCRC) refers to modbus_slave.o(.constdata) for .constdata
    llsdiv.o(.text) refers to lludivv7m.o(.text) for __aeabi_uldivmod
    __2printf.o(.text) refers to _printf_char_file.o(.text) for _printf_char_file
    __2printf.o(.text) refers to stdio_streams.o(.bss) for __stdout
    noretval__2printf.o(.text) refers to _printf_char_file.o(.text) for _printf_char_file
    noretval__2printf.o(.text) refers to stdio_streams.o(.bss) for __stdout
    __printf.o(.text) refers to _printf_percent.o(.ARM.Collect$$_printf_percent$$00000000) for _printf_percent
    _printf_str.o(.text) refers (Special) to _printf_char.o(.text) for _printf_cs_common
    __printf_flags.o(.text) refers to _printf_percent.o(.ARM.Collect$$_printf_percent$$00000000) for _printf_percent
    __printf_flags.o(.text) refers to __printf_flags.o(.constdata) for .constdata
    __printf_ss.o(.text) refers to _printf_percent.o(.ARM.Collect$$_printf_percent$$00000000) for _printf_percent
    __printf_flags_ss.o(.text) refers to _printf_percent.o(.ARM.Collect$$_printf_percent$$00000000) for _printf_percent
    __printf_flags_ss.o(.text) refers to __printf_flags_ss.o(.constdata) for .constdata
    __printf_wp.o(.text) refers to __printf_wp.o(i._is_digit) for _is_digit
    __printf_wp.o(.text) refers to _printf_percent.o(.ARM.Collect$$_printf_percent$$00000000) for _printf_percent
    __printf_flags_wp.o(.text) refers to __printf_wp.o(i._is_digit) for _is_digit
    __printf_flags_wp.o(.text) refers to _printf_percent.o(.ARM.Collect$$_printf_percent$$00000000) for _printf_percent
    __printf_flags_wp.o(.text) refers to __printf_flags_wp.o(.constdata) for .constdata
    __printf_ss_wp.o(.text) refers to __printf_wp.o(i._is_digit) for _is_digit
    __printf_ss_wp.o(.text) refers to _printf_percent.o(.ARM.Collect$$_printf_percent$$00000000) for _printf_percent
    __printf_flags_ss_wp.o(.text) refers to __printf_wp.o(i._is_digit) for _is_digit
    __printf_flags_ss_wp.o(.text) refers to _printf_percent.o(.ARM.Collect$$_printf_percent$$00000000) for _printf_percent
    __printf_flags_ss_wp.o(.text) refers to __printf_flags_ss_wp.o(.constdata) for .constdata
    _printf_s.o(.ARM.Collect$$_printf_percent$$00000014) refers (Weak) to _printf_char.o(.text) for _printf_string
    _printf_percent.o(.ARM.Collect$$_printf_percent$$00000000) refers (Special) to _printf_percent_end.o(.ARM.Collect$$_printf_percent$$00000017) for _printf_percent_end
    rt_memcpy_v6.o(.text) refers to rt_memcpy_w.o(.text) for __aeabi_memcpy4
    rt_memclr.o(.text) refers to rt_memclr_w.o(.text) for _memset_w
    __main.o(!!!main) refers to __rtentry.o(.ARM.Collect$$rtentry$$00000000) for __rt_entry
    d2f.o(x$fpl$d2f) refers (Special) to usenofp.o(x$fpl$usenofp) for __I$use$fp
    d2f.o(x$fpl$d2f) refers to fretinf.o(x$fpl$fretinf) for __fpl_fretinf
    d2f.o(x$fpl$d2f) refers to dnaninf.o(x$fpl$dnaninf) for __fpl_dnaninf
    ddiv.o(x$fpl$drdiv) refers (Special) to usenofp.o(x$fpl$usenofp) for __I$use$fp
    ddiv.o(x$fpl$drdiv) refers to ddiv.o(x$fpl$ddiv) for ddiv_entry
    ddiv.o(x$fpl$ddiv) refers (Special) to usenofp.o(x$fpl$usenofp) for __I$use$fp
    ddiv.o(x$fpl$ddiv) refers to dretinf.o(x$fpl$dretinf) for __fpl_dretinf
    ddiv.o(x$fpl$ddiv) refers to dnaninf.o(x$fpl$dnaninf) for __fpl_dnaninf
    dfixu.o(x$fpl$dfixu) refers (Special) to usenofp.o(x$fpl$usenofp) for __I$use$fp
    dfixu.o(x$fpl$dfixu) refers to dnaninf.o(x$fpl$dnaninf) for __fpl_dnaninf
    dfixu.o(x$fpl$dfixur) refers (Special) to usenofp.o(x$fpl$usenofp) for __I$use$fp
    dfixu.o(x$fpl$dfixur) refers to dnaninf.o(x$fpl$dnaninf) for __fpl_dnaninf
    dflt_clz.o(x$fpl$dfltu) refers (Special) to usenofp.o(x$fpl$usenofp) for __I$use$fp
    dflt_clz.o(x$fpl$dflt) refers (Special) to usenofp.o(x$fpl$usenofp) for __I$use$fp
    dflt_clz.o(x$fpl$dfltn) refers (Special) to usenofp.o(x$fpl$usenofp) for __I$use$fp
    dmul.o(x$fpl$dmul) refers (Special) to usenofp.o(x$fpl$usenofp) for __I$use$fp
    dmul.o(x$fpl$dmul) refers to dretinf.o(x$fpl$dretinf) for __fpl_dretinf
    dmul.o(x$fpl$dmul) refers to dnaninf.o(x$fpl$dnaninf) for __fpl_dnaninf
    f2d.o(x$fpl$f2d) refers (Special) to usenofp.o(x$fpl$usenofp) for __I$use$fp
    f2d.o(x$fpl$f2d) refers to fnaninf.o(x$fpl$fnaninf) for __fpl_fnaninf
    f2d.o(x$fpl$f2d) refers to dretinf.o(x$fpl$dretinf) for __fpl_dretinf
    faddsub_clz.o(x$fpl$fadd) refers (Special) to usenofp.o(x$fpl$usenofp) for __I$use$fp
    faddsub_clz.o(x$fpl$fadd) refers to faddsub_clz.o(x$fpl$fsub) for _fsub1
    faddsub_clz.o(x$fpl$fadd) refers to fretinf.o(x$fpl$fretinf) for __fpl_fretinf
    faddsub_clz.o(x$fpl$fadd) refers to fnaninf.o(x$fpl$fnaninf) for __fpl_fnaninf
    faddsub_clz.o(x$fpl$frsb) refers (Special) to usenofp.o(x$fpl$usenofp) for __I$use$fp
    faddsub_clz.o(x$fpl$frsb) refers to faddsub_clz.o(x$fpl$fadd) for _fadd1
    faddsub_clz.o(x$fpl$frsb) refers to faddsub_clz.o(x$fpl$fsub) for _fsub1
    faddsub_clz.o(x$fpl$fsub) refers (Special) to usenofp.o(x$fpl$usenofp) for __I$use$fp
    faddsub_clz.o(x$fpl$fsub) refers to faddsub_clz.o(x$fpl$fadd) for _fadd1
    faddsub_clz.o(x$fpl$fsub) refers to fnaninf.o(x$fpl$fnaninf) for __fpl_fnaninf
    fdiv.o(x$fpl$frdiv) refers (Special) to usenofp.o(x$fpl$usenofp) for __I$use$fp
    fdiv.o(x$fpl$frdiv) refers to fdiv.o(x$fpl$fdiv) for _fdiv1
    fdiv.o(x$fpl$fdiv) refers (Special) to usenofp.o(x$fpl$usenofp) for __I$use$fp
    fdiv.o(x$fpl$fdiv) refers to fretinf.o(x$fpl$fretinf) for __fpl_fretinf
    fdiv.o(x$fpl$fdiv) refers to fnaninf.o(x$fpl$fnaninf) for __fpl_fnaninf
    feqf.o(x$fpl$feqf) refers (Special) to usenofp.o(x$fpl$usenofp) for __I$use$fp
    feqf.o(x$fpl$feqf) refers to fnaninf.o(x$fpl$fnaninf) for __fpl_fnaninf
    feqf.o(x$fpl$feqf) refers to fcmpi.o(x$fpl$fcmpinf) for __fpl_fcmp_Inf
    ffixu.o(x$fpl$ffixu) refers (Special) to usenofp.o(x$fpl$usenofp) for __I$use$fp
    ffixu.o(x$fpl$ffixu) refers to fnaninf.o(x$fpl$fnaninf) for __fpl_fnaninf
    ffixu.o(x$fpl$ffixur) refers (Special) to usenofp.o(x$fpl$usenofp) for __I$use$fp
    ffixu.o(x$fpl$ffixur) refers to fnaninf.o(x$fpl$fnaninf) for __fpl_fnaninf
    fflt_clz.o(x$fpl$ffltu) refers (Special) to usenofp.o(x$fpl$usenofp) for __I$use$fp
    fflt_clz.o(x$fpl$fflt) refers (Special) to usenofp.o(x$fpl$usenofp) for __I$use$fp
    fflt_clz.o(x$fpl$ffltn) refers (Special) to usenofp.o(x$fpl$usenofp) for __I$use$fp
    fleqf.o(x$fpl$fleqf) refers (Special) to usenofp.o(x$fpl$usenofp) for __I$use$fp
    fleqf.o(x$fpl$fleqf) refers to fnaninf.o(x$fpl$fnaninf) for __fpl_fnaninf
    fleqf.o(x$fpl$fleqf) refers to fcmpi.o(x$fpl$fcmpinf) for __fpl_fcmp_Inf
    fmul.o(x$fpl$fmul) refers (Special) to usenofp.o(x$fpl$usenofp) for __I$use$fp
    fmul.o(x$fpl$fmul) refers to fretinf.o(x$fpl$fretinf) for __fpl_fretinf
    fmul.o(x$fpl$fmul) refers to fnaninf.o(x$fpl$fnaninf) for __fpl_fnaninf
    frleqf.o(x$fpl$frleqf) refers (Special) to usenofp.o(x$fpl$usenofp) for __I$use$fp
    frleqf.o(x$fpl$frleqf) refers to fleqf.o(x$fpl$fleqf) for __fpl_fcmple_InfNaN
    cos.o(i.__softfp_cos) refers (Special) to usenofp.o(x$fpl$usenofp) for __I$use$fp
    cos.o(i.__softfp_cos) refers to cos.o(i.cos) for cos
    cos.o(i.cos) refers (Special) to usenofp.o(x$fpl$usenofp) for __I$use$fp
    cos.o(i.cos) refers to _rserrno.o(.text) for __set_errno
    cos.o(i.cos) refers to dunder.o(i.__mathlib_dbl_invalid) for __mathlib_dbl_invalid
    cos.o(i.cos) refers to dunder.o(i.__mathlib_dbl_infnan) for __mathlib_dbl_infnan
    cos.o(i.cos) refers to rred.o(i.__ieee754_rem_pio2) for __ieee754_rem_pio2
    cos.o(i.cos) refers to sin_i.o(i.__kernel_sin) for __kernel_sin
    cos.o(i.cos) refers to cos_i.o(i.__kernel_cos) for __kernel_cos
    cos_x.o(i.____softfp_cos$lsc) refers (Special) to usenofp.o(x$fpl$usenofp) for __I$use$fp
    cos_x.o(i.____softfp_cos$lsc) refers to cos_x.o(i.__cos$lsc) for __cos$lsc
    cos_x.o(i.__cos$lsc) refers (Special) to usenofp.o(x$fpl$usenofp) for __I$use$fp
    cos_x.o(i.__cos$lsc) refers to _rserrno.o(.text) for __set_errno
    cos_x.o(i.__cos$lsc) refers to dunder.o(i.__mathlib_dbl_infnan) for __mathlib_dbl_infnan
    cos_x.o(i.__cos$lsc) refers to rred.o(i.__ieee754_rem_pio2) for __ieee754_rem_pio2
    cos_x.o(i.__cos$lsc) refers to sin_i.o(i.__kernel_sin) for __kernel_sin
    cos_x.o(i.__cos$lsc) refers to cos_i.o(i.__kernel_cos) for __kernel_cos
    sin.o(i.__softfp_sin) refers (Special) to usenofp.o(x$fpl$usenofp) for __I$use$fp
    sin.o(i.__softfp_sin) refers to sin.o(i.sin) for sin
    sin.o(i.sin) refers (Special) to usenofp.o(x$fpl$usenofp) for __I$use$fp
    sin.o(i.sin) refers to _rserrno.o(.text) for __set_errno
    sin.o(i.sin) refers to dunder.o(i.__mathlib_dbl_invalid) for __mathlib_dbl_invalid
    sin.o(i.sin) refers to dunder.o(i.__mathlib_dbl_infnan) for __mathlib_dbl_infnan
    sin.o(i.sin) refers to rred.o(i.__ieee754_rem_pio2) for __ieee754_rem_pio2
    sin.o(i.sin) refers to cos_i.o(i.__kernel_cos) for __kernel_cos
    sin.o(i.sin) refers to sin_i.o(i.__kernel_sin) for __kernel_sin
    sin_x.o(i.____softfp_sin$lsc) refers (Special) to usenofp.o(x$fpl$usenofp) for __I$use$fp
    sin_x.o(i.____softfp_sin$lsc) refers to sin_x.o(i.__sin$lsc) for __sin$lsc
    sin_x.o(i.__sin$lsc) refers (Special) to usenofp.o(x$fpl$usenofp) for __I$use$fp
    sin_x.o(i.__sin$lsc) refers to _rserrno.o(.text) for __set_errno
    sin_x.o(i.__sin$lsc) refers to dunder.o(i.__mathlib_dbl_infnan) for __mathlib_dbl_infnan
    sin_x.o(i.__sin$lsc) refers to rred.o(i.__ieee754_rem_pio2) for __ieee754_rem_pio2
    sin_x.o(i.__sin$lsc) refers to cos_i.o(i.__kernel_cos) for __kernel_cos
    sin_x.o(i.__sin$lsc) refers to sin_i.o(i.__kernel_sin) for __kernel_sin
    sqrt.o(i.__softfp_sqrt) refers (Special) to usenofp.o(x$fpl$usenofp) for __I$use$fp
    sqrt.o(i.__softfp_sqrt) refers to dsqrt_noumaal.o(x$fpl$dsqrt) for _dsqrt
    sqrt.o(i.__softfp_sqrt) refers to _rserrno.o(.text) for __set_errno
    sqrt.o(i.sqrt) refers (Special) to usenofp.o(x$fpl$usenofp) for __I$use$fp
    sqrt.o(i.sqrt) refers to dsqrt_noumaal.o(x$fpl$dsqrt) for _dsqrt
    sqrt.o(i.sqrt) refers to _rserrno.o(.text) for __set_errno
    sqrt_x.o(i.____softfp_sqrt$lsc) refers (Special) to usenofp.o(x$fpl$usenofp) for __I$use$fp
    sqrt_x.o(i.____softfp_sqrt$lsc) refers to dleqf.o(x$fpl$dleqf) for __aeabi_cdcmple
    sqrt_x.o(i.____softfp_sqrt$lsc) refers to _rserrno.o(.text) for __set_errno
    sqrt_x.o(i.____softfp_sqrt$lsc) refers to dsqrt_noumaal.o(x$fpl$dsqrt) for _dsqrt
    sqrt_x.o(i.__sqrt$lsc) refers (Special) to usenofp.o(x$fpl$usenofp) for __I$use$fp
    sqrt_x.o(i.__sqrt$lsc) refers to dleqf.o(x$fpl$dleqf) for __aeabi_cdcmple
    sqrt_x.o(i.__sqrt$lsc) refers to _rserrno.o(.text) for __set_errno
    sqrt_x.o(i.__sqrt$lsc) refers to dsqrt_noumaal.o(x$fpl$dsqrt) for _dsqrt
    tan.o(i.__softfp_tan) refers (Special) to usenofp.o(x$fpl$usenofp) for __I$use$fp
    tan.o(i.__softfp_tan) refers to _rserrno.o(.text) for __set_errno
    tan.o(i.__softfp_tan) refers to dunder.o(i.__mathlib_dbl_invalid) for __mathlib_dbl_invalid
    tan.o(i.__softfp_tan) refers to dunder.o(i.__mathlib_dbl_infnan) for __mathlib_dbl_infnan
    tan.o(i.__softfp_tan) refers to rred.o(i.__ieee754_rem_pio2) for __ieee754_rem_pio2
    tan.o(i.__softfp_tan) refers to tan_i.o(i.__kernel_tan) for __kernel_tan
    tan.o(i.tan) refers (Special) to usenofp.o(x$fpl$usenofp) for __I$use$fp
    tan.o(i.tan) refers to _rserrno.o(.text) for __set_errno
    tan.o(i.tan) refers to dunder.o(i.__mathlib_dbl_invalid) for __mathlib_dbl_invalid
    tan.o(i.tan) refers to dunder.o(i.__mathlib_dbl_infnan) for __mathlib_dbl_infnan
    tan.o(i.tan) refers to rred.o(i.__ieee754_rem_pio2) for __ieee754_rem_pio2
    tan.o(i.tan) refers to tan_i.o(i.__kernel_tan) for __kernel_tan
    tan_x.o(i.____softfp_tan$lsc) refers (Special) to usenofp.o(x$fpl$usenofp) for __I$use$fp
    tan_x.o(i.____softfp_tan$lsc) refers to _rserrno.o(.text) for __set_errno
    tan_x.o(i.____softfp_tan$lsc) refers to dunder.o(i.__mathlib_dbl_infnan) for __mathlib_dbl_infnan
    tan_x.o(i.____softfp_tan$lsc) refers to rred.o(i.__ieee754_rem_pio2) for __ieee754_rem_pio2
    tan_x.o(i.____softfp_tan$lsc) refers to tan_i.o(i.__kernel_tan) for __kernel_tan
    tan_x.o(i.__tan$lsc) refers (Special) to usenofp.o(x$fpl$usenofp) for __I$use$fp
    tan_x.o(i.__tan$lsc) refers to _rserrno.o(.text) for __set_errno
    tan_x.o(i.__tan$lsc) refers to dunder.o(i.__mathlib_dbl_infnan) for __mathlib_dbl_infnan
    tan_x.o(i.__tan$lsc) refers to rred.o(i.__ieee754_rem_pio2) for __ieee754_rem_pio2
    tan_x.o(i.__tan$lsc) refers to tan_i.o(i.__kernel_tan) for __kernel_tan
    __rtentry.o(.ARM.Collect$$rtentry$$00000000) refers (Special) to __rtentry2.o(.ARM.Collect$$rtentry$$0000000A) for __rt_entry_li
    __rtentry.o(.ARM.Collect$$rtentry$$00000000) refers (Special) to __rtentry2.o(.ARM.Collect$$rtentry$$0000000D) for __rt_entry_main
    __rtentry.o(.ARM.Collect$$rtentry$$00000000) refers (Special) to __rtentry2.o(.ARM.Collect$$rtentry$$0000000C) for __rt_entry_postli_1
    __rtentry.o(.ARM.Collect$$rtentry$$00000000) refers (Special) to __rtentry2.o(.ARM.Collect$$rtentry$$00000009) for __rt_entry_postsh_1
    __rtentry.o(.ARM.Collect$$rtentry$$00000000) refers (Special) to __rtentry2.o(.ARM.Collect$$rtentry$$00000002) for __rt_entry_presh_1
    __rtentry.o(.ARM.Collect$$rtentry$$00000000) refers (Special) to __rtentry4.o(.ARM.Collect$$rtentry$$00000004) for __rt_entry_sh
    aeabi_ldiv0_sigfpe.o(.text) refers to rt_div0.o(.text) for __rt_div0
    _rserrno.o(.text) refers to rt_errno_addr_intlibspace.o(.text) for __aeabi_errno_addr
    _printf_char.o(.text) refers (Weak) to _printf_str.o(.text) for _printf_str
    _printf_char_file.o(.text) refers to _printf_char_common.o(.text) for _printf_char_common
    _printf_char_file.o(.text) refers to ferror.o(.text) for ferror
    _printf_char_file.o(.text) refers to bsp_uart_fifo.o(i.fputc) for fputc
    stdio_streams.o(.bss) refers (Special) to initio.o(.text) for _initio
    stdio_streams.o(.bss) refers (Special) to initio.o(.text) for _initio
    stdio_streams.o(.bss) refers (Special) to initio.o(.text) for _initio
    stdio_streams.o(.data) refers (Special) to initio.o(.text) for _initio
    stdio_streams.o(.data) refers (Special) to initio.o(.text) for _initio
    stdio_streams.o(.data) refers (Special) to initio.o(.text) for _initio
    dleqf.o(x$fpl$dleqf) refers (Special) to usenofp.o(x$fpl$usenofp) for __I$use$fp
    dleqf.o(x$fpl$dleqf) refers to dnaninf.o(x$fpl$dnaninf) for __fpl_dnaninf
    dleqf.o(x$fpl$dleqf) refers to dcmpi.o(x$fpl$dcmpinf) for __fpl_dcmp_Inf
    dnaninf.o(x$fpl$dnaninf) refers (Special) to usenofp.o(x$fpl$usenofp) for __I$use$fp
    dretinf.o(x$fpl$dretinf) refers (Special) to usenofp.o(x$fpl$usenofp) for __I$use$fp
    dsqrt_noumaal.o(x$fpl$dsqrt) refers (Special) to usenofp.o(x$fpl$usenofp) for __I$use$fp
    dsqrt_noumaal.o(x$fpl$dsqrt) refers to dnaninf.o(x$fpl$dnaninf) for __fpl_dnaninf
    fcmpi.o(x$fpl$fcmpinf) refers (Special) to usenofp.o(x$fpl$usenofp) for __I$use$fp
    fnaninf.o(x$fpl$fnaninf) refers (Special) to usenofp.o(x$fpl$usenofp) for __I$use$fp
    fretinf.o(x$fpl$fretinf) refers (Special) to usenofp.o(x$fpl$usenofp) for __I$use$fp
    cos_i.o(i.__kernel_cos) refers (Special) to usenofp.o(x$fpl$usenofp) for __I$use$fp
    cos_i.o(i.__kernel_cos) refers to dfix.o(x$fpl$dfix) for __aeabi_d2iz
    cos_i.o(i.__kernel_cos) refers to dmul.o(x$fpl$dmul) for __aeabi_dmul
    cos_i.o(i.__kernel_cos) refers to poly.o(i.__kernel_poly) for __kernel_poly
    cos_i.o(i.__kernel_cos) refers to daddsub_clz.o(x$fpl$dsub) for __aeabi_dsub
    cos_i.o(i.__kernel_cos) refers to scalbn.o(x$fpl$scalbn) for __ARM_scalbn
    cos_i.o(i.__kernel_cos) refers to daddsub_clz.o(x$fpl$drsb) for __aeabi_drsub
    cos_i.o(i.__kernel_cos) refers to cos_i.o(.constdata) for .constdata
    cos_i.o(.constdata) refers (Special) to usenofp.o(x$fpl$usenofp) for __I$use$fp
    dunder.o(i.__mathlib_dbl_divzero) refers to ddiv.o(x$fpl$ddiv) for __aeabi_ddiv
    dunder.o(i.__mathlib_dbl_infnan) refers to scalbn.o(x$fpl$scalbn) for __ARM_scalbn
    dunder.o(i.__mathlib_dbl_infnan2) refers to daddsub_clz.o(x$fpl$dadd) for __aeabi_dadd
    dunder.o(i.__mathlib_dbl_invalid) refers to ddiv.o(x$fpl$ddiv) for __aeabi_ddiv
    dunder.o(i.__mathlib_dbl_overflow) refers to scalbn.o(x$fpl$scalbn) for __ARM_scalbn
    dunder.o(i.__mathlib_dbl_posinfnan) refers to dmul.o(x$fpl$dmul) for __aeabi_dmul
    dunder.o(i.__mathlib_dbl_underflow) refers to scalbn.o(x$fpl$scalbn) for __ARM_scalbn
    rred.o(i.__ieee754_rem_pio2) refers (Special) to usenofp.o(x$fpl$usenofp) for __I$use$fp
    rred.o(i.__ieee754_rem_pio2) refers to daddsub_clz.o(x$fpl$dsub) for __aeabi_dsub
    rred.o(i.__ieee754_rem_pio2) refers to daddsub_clz.o(x$fpl$dadd) for __aeabi_dadd
    rred.o(i.__ieee754_rem_pio2) refers to dmul.o(x$fpl$dmul) for __aeabi_dmul
    rred.o(i.__ieee754_rem_pio2) refers to dfix.o(x$fpl$dfix) for __aeabi_d2iz
    rred.o(i.__ieee754_rem_pio2) refers to dflt_clz.o(x$fpl$dflt) for __aeabi_i2d
    rred.o(i.__ieee754_rem_pio2) refers to daddsub_clz.o(x$fpl$drsb) for __aeabi_drsub
    rred.o(i.__ieee754_rem_pio2) refers to dflt_clz.o(x$fpl$dfltu) for __aeabi_ui2d
    rred.o(i.__ieee754_rem_pio2) refers to scalbn.o(x$fpl$scalbn) for __ARM_scalbn
    rred.o(i.__ieee754_rem_pio2) refers to rred.o(.constdata) for .constdata
    rred.o(i.__use_accurate_range_reduction) refers (Special) to usenofp.o(x$fpl$usenofp) for __I$use$fp
    rred.o(.constdata) refers (Special) to usenofp.o(x$fpl$usenofp) for __I$use$fp
    sin_i.o(i.__kernel_sin) refers (Special) to usenofp.o(x$fpl$usenofp) for __I$use$fp
    sin_i.o(i.__kernel_sin) refers to fpclassify.o(i.__ARM_fpclassify) for __ARM_fpclassify
    sin_i.o(i.__kernel_sin) refers to dunder.o(i.__mathlib_dbl_underflow) for __mathlib_dbl_underflow
    sin_i.o(i.__kernel_sin) refers to dmul.o(x$fpl$dmul) for __aeabi_dmul
    sin_i.o(i.__kernel_sin) refers to poly.o(i.__kernel_poly) for __kernel_poly
    sin_i.o(i.__kernel_sin) refers to scalbn.o(x$fpl$scalbn) for __ARM_scalbn
    sin_i.o(i.__kernel_sin) refers to daddsub_clz.o(x$fpl$dsub) for __aeabi_dsub
    sin_i.o(i.__kernel_sin) refers to daddsub_clz.o(x$fpl$drsb) for __aeabi_drsub
    sin_i.o(i.__kernel_sin) refers to daddsub_clz.o(x$fpl$dadd) for __aeabi_dadd
    sin_i.o(i.__kernel_sin) refers to sin_i.o(.constdata) for .constdata
    sin_i.o(.constdata) refers (Special) to usenofp.o(x$fpl$usenofp) for __I$use$fp
    sin_i_x.o(i.____kernel_sin$lsc) refers (Special) to usenofp.o(x$fpl$usenofp) for __I$use$fp
    sin_i_x.o(i.____kernel_sin$lsc) refers to dmul.o(x$fpl$dmul) for __aeabi_dmul
    sin_i_x.o(i.____kernel_sin$lsc) refers to poly.o(i.__kernel_poly) for __kernel_poly
    sin_i_x.o(i.____kernel_sin$lsc) refers to scalbn.o(x$fpl$scalbn) for __ARM_scalbn
    sin_i_x.o(i.____kernel_sin$lsc) refers to daddsub_clz.o(x$fpl$dsub) for __aeabi_dsub
    sin_i_x.o(i.____kernel_sin$lsc) refers to daddsub_clz.o(x$fpl$drsb) for __aeabi_drsub
    sin_i_x.o(i.____kernel_sin$lsc) refers to daddsub_clz.o(x$fpl$dadd) for __aeabi_dadd
    sin_i_x.o(i.____kernel_sin$lsc) refers to sin_i_x.o(.constdata) for .constdata
    sin_i_x.o(.constdata) refers (Special) to usenofp.o(x$fpl$usenofp) for __I$use$fp
    tan_i.o(i.__kernel_tan) refers (Special) to usenofp.o(x$fpl$usenofp) for __I$use$fp
    tan_i.o(i.__kernel_tan) refers to dfix.o(x$fpl$dfix) for __aeabi_d2iz
    tan_i.o(i.__kernel_tan) refers to daddsub_clz.o(x$fpl$drsb) for __aeabi_drsub
    tan_i.o(i.__kernel_tan) refers to daddsub_clz.o(x$fpl$dsub) for __aeabi_dsub
    tan_i.o(i.__kernel_tan) refers to daddsub_clz.o(x$fpl$dadd) for __aeabi_dadd
    tan_i.o(i.__kernel_tan) refers to dmul.o(x$fpl$dmul) for __aeabi_dmul
    tan_i.o(i.__kernel_tan) refers to poly.o(i.__kernel_poly) for __kernel_poly
    tan_i.o(i.__kernel_tan) refers to dflt_clz.o(x$fpl$dflt) for __aeabi_i2d
    tan_i.o(i.__kernel_tan) refers to ddiv.o(x$fpl$ddiv) for __aeabi_ddiv
    tan_i.o(i.__kernel_tan) refers to scalbn.o(x$fpl$scalbn) for __ARM_scalbn
    tan_i.o(i.__kernel_tan) refers to fpclassify.o(i.__ARM_fpclassify) for __ARM_fpclassify
    tan_i.o(i.__kernel_tan) refers to dunder.o(i.__mathlib_dbl_underflow) for __mathlib_dbl_underflow
    tan_i.o(i.__kernel_tan) refers to tan_i.o(.constdata) for .constdata
    tan_i.o(.constdata) refers (Special) to usenofp.o(x$fpl$usenofp) for __I$use$fp
    tan_i_x.o(i.____kernel_tan$lsc) refers (Special) to usenofp.o(x$fpl$usenofp) for __I$use$fp
    tan_i_x.o(i.____kernel_tan$lsc) refers to dfix.o(x$fpl$dfix) for __aeabi_d2iz
    tan_i_x.o(i.____kernel_tan$lsc) refers to daddsub_clz.o(x$fpl$drsb) for __aeabi_drsub
    tan_i_x.o(i.____kernel_tan$lsc) refers to daddsub_clz.o(x$fpl$dsub) for __aeabi_dsub
    tan_i_x.o(i.____kernel_tan$lsc) refers to daddsub_clz.o(x$fpl$dadd) for __aeabi_dadd
    tan_i_x.o(i.____kernel_tan$lsc) refers to dmul.o(x$fpl$dmul) for __aeabi_dmul
    tan_i_x.o(i.____kernel_tan$lsc) refers to poly.o(i.__kernel_poly) for __kernel_poly
    tan_i_x.o(i.____kernel_tan$lsc) refers to dflt_clz.o(x$fpl$dflt) for __aeabi_i2d
    tan_i_x.o(i.____kernel_tan$lsc) refers to ddiv.o(x$fpl$ddiv) for __aeabi_ddiv
    tan_i_x.o(i.____kernel_tan$lsc) refers to scalbn.o(x$fpl$scalbn) for __ARM_scalbn
    tan_i_x.o(i.____kernel_tan$lsc) refers to tan_i_x.o(.constdata) for .constdata
    tan_i_x.o(.constdata) refers (Special) to usenofp.o(x$fpl$usenofp) for __I$use$fp
    __rtentry2.o(.ARM.Collect$$rtentry$$00000008) refers to boardinit2.o(.text) for _platform_post_stackheap_init
    __rtentry2.o(.ARM.Collect$$rtentry$$0000000A) refers to libinit.o(.ARM.Collect$$libinit$$00000000) for __rt_lib_init
    __rtentry2.o(.ARM.Collect$$rtentry$$0000000B) refers to boardinit3.o(.text) for _platform_post_lib_init
    __rtentry2.o(.ARM.Collect$$rtentry$$0000000D) refers to main.o(i.main) for main
    __rtentry2.o(.ARM.Collect$$rtentry$$0000000D) refers to exit.o(.text) for exit
    __rtentry2.o(.ARM.exidx) refers to __rtentry2.o(.ARM.Collect$$rtentry$$00000001) for .ARM.Collect$$rtentry$$00000001
    __rtentry2.o(.ARM.exidx) refers to __rtentry2.o(.ARM.Collect$$rtentry$$00000008) for .ARM.Collect$$rtentry$$00000008
    __rtentry2.o(.ARM.exidx) refers to __rtentry2.o(.ARM.Collect$$rtentry$$0000000A) for .ARM.Collect$$rtentry$$0000000A
    __rtentry2.o(.ARM.exidx) refers to __rtentry2.o(.ARM.Collect$$rtentry$$0000000B) for .ARM.Collect$$rtentry$$0000000B
    __rtentry2.o(.ARM.exidx) refers to __rtentry2.o(.ARM.Collect$$rtentry$$0000000D) for .ARM.Collect$$rtentry$$0000000D
    __rtentry4.o(.ARM.Collect$$rtentry$$00000004) refers to sys_stackheap_outer.o(.text) for __user_setup_stackheap
    __rtentry4.o(.ARM.exidx) refers to __rtentry4.o(.ARM.Collect$$rtentry$$00000004) for .ARM.Collect$$rtentry$$00000004
    rt_div0.o(.text) refers to defsig_fpe_outer.o(.text) for __rt_SIGFPE
    rt_errno_addr.o(.text) refers to rt_errno_addr.o(.bss) for __aeabi_errno_addr_data
    rt_errno_addr_intlibspace.o(.text) refers to libspace.o(.bss) for __libspace_start
    _printf_char_common.o(.text) refers to __printf.o(.text) for __printf
    initio.o(.text) refers (Special) to libinit2.o(.ARM.Collect$$libinit$$00000024) for __rt_lib_init_stdio_2
    initio.o(.text) refers (Special) to libshutdown2.o(.ARM.Collect$$libshutdown$$00000002) for __rt_lib_shutdown_stdio_2
    initio.o(.text) refers to rt_memclr_w.o(.text) for __aeabi_memclr4
    initio.o(.text) refers to fopen.o(.text) for freopen
    initio.o(.text) refers to defsig_rtred_outer.o(.text) for __rt_SIGRTRED
    initio.o(.text) refers to setvbuf.o(.text) for setvbuf
    initio.o(.text) refers to fclose.o(.text) for _fclose_internal
    initio.o(.text) refers to h1_free.o(.text) for free
    initio.o(.text) refers to stdio_streams.o(.bss) for __stdin
    initio.o(.text) refers to stdio_streams.o(.bss) for __stdout
    initio.o(.text) refers to stdio_streams.o(.bss) for __stderr
    initio.o(.text) refers to stdio_streams.o(.data) for __aeabi_stdin
    initio.o(.text) refers to stdio_streams.o(.data) for __aeabi_stdout
    initio.o(.text) refers to stdio_streams.o(.data) for __aeabi_stderr
    initio.o(.text) refers to sys_io.o(.constdata) for __stdin_name
    initio.o(.text) refers to sys_io.o(.constdata) for __stdout_name
    initio.o(.text) refers to sys_io.o(.constdata) for __stderr_name
    initio_locked.o(.text) refers (Special) to libinit2.o(.ARM.Collect$$libinit$$00000024) for __rt_lib_init_stdio_2
    initio_locked.o(.text) refers (Special) to libshutdown2.o(.ARM.Collect$$libshutdown$$00000002) for __rt_lib_shutdown_stdio_2
    initio_locked.o(.text) refers to rt_memclr_w.o(.text) for __aeabi_memclr4
    initio_locked.o(.text) refers to fopen.o(.text) for freopen
    initio_locked.o(.text) refers to defsig_rtred_outer.o(.text) for __rt_SIGRTRED
    initio_locked.o(.text) refers to setvbuf.o(.text) for setvbuf
    initio_locked.o(.text) refers to fclose.o(.text) for _fclose_internal
    initio_locked.o(.text) refers to h1_free.o(.text) for free
    initio_locked.o(.text) refers to stdio_streams.o(.bss) for __stdin
    initio_locked.o(.text) refers to stdio_streams.o(.bss) for __stdout
    initio_locked.o(.text) refers to stdio_streams.o(.bss) for __stderr
    initio_locked.o(.text) refers to stdio_streams.o(.data) for __aeabi_stdin
    initio_locked.o(.text) refers to stdio_streams.o(.data) for __aeabi_stdout
    initio_locked.o(.text) refers to stdio_streams.o(.data) for __aeabi_stderr
    initio_locked.o(.text) refers to streamlock.o(.data) for _stream_list_lock
    initio_locked.o(.text) refers to sys_io.o(.constdata) for __stdin_name
    initio_locked.o(.text) refers to sys_io.o(.constdata) for __stdout_name
    initio_locked.o(.text) refers to sys_io.o(.constdata) for __stderr_name
    daddsub_clz.o(x$fpl$dadd) refers (Special) to usenofp.o(x$fpl$usenofp) for __I$use$fp
    daddsub_clz.o(x$fpl$dadd) refers to daddsub_clz.o(x$fpl$dsub) for _dsub1
    daddsub_clz.o(x$fpl$dadd) refers to dretinf.o(x$fpl$dretinf) for __fpl_dretinf
    daddsub_clz.o(x$fpl$dadd) refers to dnaninf.o(x$fpl$dnaninf) for __fpl_dnaninf
    daddsub_clz.o(x$fpl$drsb) refers (Special) to usenofp.o(x$fpl$usenofp) for __I$use$fp
    daddsub_clz.o(x$fpl$drsb) refers to daddsub_clz.o(x$fpl$dadd) for _dadd1
    daddsub_clz.o(x$fpl$drsb) refers to daddsub_clz.o(x$fpl$dsub) for _dsub1
    daddsub_clz.o(x$fpl$dsub) refers (Special) to usenofp.o(x$fpl$usenofp) for __I$use$fp
    daddsub_clz.o(x$fpl$dsub) refers to daddsub_clz.o(x$fpl$dadd) for _dadd1
    daddsub_clz.o(x$fpl$dsub) refers to dnaninf.o(x$fpl$dnaninf) for __fpl_dnaninf
    dcmpi.o(x$fpl$dcmpinf) refers (Special) to usenofp.o(x$fpl$usenofp) for __I$use$fp
    dfix.o(x$fpl$dfix) refers (Special) to usenofp.o(x$fpl$usenofp) for __I$use$fp
    dfix.o(x$fpl$dfix) refers to dnaninf.o(x$fpl$dnaninf) for __fpl_dnaninf
    dfix.o(x$fpl$dfixr) refers (Special) to usenofp.o(x$fpl$usenofp) for __I$use$fp
    dfix.o(x$fpl$dfixr) refers to dnaninf.o(x$fpl$dnaninf) for __fpl_dnaninf
    scalbn.o(x$fpl$scalbn) refers (Special) to usenofp.o(x$fpl$usenofp) for __I$use$fp
    scalbn.o(x$fpl$scalbn) refers to dcheck1.o(x$fpl$dcheck1) for __fpl_dcheck_NaN1
    fpclassify.o(i.__ARM_fpclassify) refers (Special) to usenofp.o(x$fpl$usenofp) for __I$use$fp
    poly.o(i.__kernel_poly) refers (Special) to usenofp.o(x$fpl$usenofp) for __I$use$fp
    poly.o(i.__kernel_poly) refers to dmul.o(x$fpl$dmul) for __aeabi_dmul
    poly.o(i.__kernel_poly) refers to daddsub_clz.o(x$fpl$dadd) for __aeabi_dadd
    sys_io.o(.text) refers (Special) to use_no_semi.o(.text) for __I$use$semihosting
    sys_io.o(.text) refers (Special) to indicate_semi.o(.text) for __semihosting_library_function
    sys_io.o(.text) refers to strlen.o(.text) for strlen
    sys_io.o(.constdata) refers (Special) to use_no_semi.o(.text) for __I$use$semihosting
    sys_io.o(.constdata) refers (Special) to indicate_semi.o(.text) for __semihosting_library_function
    sys_io.o(.constdata) refers (Special) to use_no_semi.o(.text) for __I$use$semihosting
    sys_io.o(.constdata) refers (Special) to indicate_semi.o(.text) for __semihosting_library_function
    sys_io.o(.constdata) refers (Special) to use_no_semi.o(.text) for __I$use$semihosting
    sys_io.o(.constdata) refers (Special) to indicate_semi.o(.text) for __semihosting_library_function
    libspace.o(.text) refers to libspace.o(.bss) for __libspace_start
    sys_stackheap_outer.o(.text) refers to libspace.o(.text) for __user_perproc_libspace
    sys_stackheap_outer.o(.text) refers to startup_stm32f10x_hd.o(.text) for __user_initial_stackheap
    free.o(.text) refers (Special) to hguard.o(.text) for __heap$guard
    free.o(.text) refers to rt_heap_descriptor_intlibspace.o(.text) for __rt_heap_descriptor
    free.o(.text) refers to heapstubs.o(.text) for __Heap_Free
    h1_free.o(.text) refers to rt_heap_descriptor_intlibspace.o(.text) for __rt_heap_descriptor
    h1_free_mt.o(.text) refers to rt_heap_descriptor_intlibspace.o(.text) for __rt_heap_descriptor
    heap2.o(i._FDIterate) refers to heap2.o(.conststring) for .conststring
    heap2.o(i.___Heap_ProvideMemory$realtime) refers to fdtree.o(i._FDTree_Delete) for _FDTree_Delete
    heap2.o(i.___Heap_ProvideMemory$realtime) refers to fdtree.o(i._FDTree_Insert) for _FDTree_Insert
    heap2.o(i.___Heap_Stats$realtime) refers to heap2.o(i._Heap2_StatsIterate) for _Heap2_StatsIterate
    heap2.o(i.___Heap_Valid$realtime) refers to heap2.o(i._FDIterate) for _FDIterate
    heap2.o(i.___Heap_Valid$realtime) refers to heap2.o(.conststring) for .conststring
    heap2.o(i._free$realtime) refers to rt_heap_descriptor_intlibspace.o(.text) for __rt_heap_descriptor
    heap2.o(i._free$realtime) refers to fdtree.o(i._FDTree_Delete) for _FDTree_Delete
    heap2.o(i._free$realtime) refers to fdtree.o(i._FDTree_Insert) for _FDTree_Insert
    heap2.o(i._malloc$realtime) refers to rt_heap_descriptor_intlibspace.o(.text) for __rt_heap_descriptor
    heap2.o(i._malloc$realtime) refers to fdtree.o(i._FDTree_FindFirst) for _FDTree_FindFirst
    heap2.o(i._malloc$realtime) refers to init_alloc.o(.text) for __Heap_Full
    heap2.o(i._malloc$realtime) refers to fdtree.o(i._FDTree_RemoveNode) for _FDTree_RemoveNode
    heap2.o(i._malloc$realtime) refers to fdtree.o(i._FDTree_Insert) for _FDTree_Insert
    heap2.o(i._posix_memalign$realtime) refers to rt_heap_descriptor_intlibspace.o(.text) for __rt_heap_descriptor
    heap2.o(i._posix_memalign$realtime) refers to fdtree.o(i._FDTree_FindFirst) for _FDTree_FindFirst
    heap2.o(i._posix_memalign$realtime) refers to init_alloc.o(.text) for __Heap_Full
    heap2.o(i._posix_memalign$realtime) refers to fdtree.o(i._FDTree_RemoveNode) for _FDTree_RemoveNode
    heap2.o(i._posix_memalign$realtime) refers to fdtree.o(i._FDTree_Insert) for _FDTree_Insert
    heap2.o(i._realloc$realtime) refers to rt_heap_descriptor_intlibspace.o(.text) for __rt_heap_descriptor
    heap2.o(i._realloc$realtime) refers to fdtree.o(i._FDTree_Insert) for _FDTree_Insert
    heap2.o(i._realloc$realtime) refers to h1_free.o(.text) for free
    heap2.o(i._realloc$realtime) refers to h1_alloc.o(.text) for malloc
    heap2.o(i._realloc$realtime) refers to fdtree.o(i._FDTree_Delete) for _FDTree_Delete
    heap2.o(i._realloc$realtime) refers to rt_memcpy_w.o(.text) for __aeabi_memcpy4
    heap2mt.o(i._FDIterate) refers to heap2mt.o(.conststring) for .conststring
    heap2mt.o(i.___Heap_Initialize$realtime$concurrent) refers to mutex_dummy.o(.text) for _mutex_initialize
    heap2mt.o(i.___Heap_ProvideMemory$realtime$concurrent) refers to fdtree.o(i._FDTree_Delete) for _FDTree_Delete
    heap2mt.o(i.___Heap_ProvideMemory$realtime$concurrent) refers to fdtree.o(i._FDTree_Insert) for _FDTree_Insert
    heap2mt.o(i.___Heap_Stats$realtime$concurrent) refers to heap2mt.o(i._Heap2_StatsIterate) for _Heap2_StatsIterate
    heap2mt.o(i.___Heap_Valid$realtime$concurrent) refers to heap2mt.o(i._FDIterate) for _FDIterate
    heap2mt.o(i.___Heap_Valid$realtime$concurrent) refers to heap2mt.o(.conststring) for .conststring
    heap2mt.o(i._free$realtime$concurrent) refers to rt_heap_descriptor_intlibspace.o(.text) for __rt_heap_descriptor
    heap2mt.o(i._free$realtime$concurrent) refers to fdtree.o(i._FDTree_Delete) for _FDTree_Delete
    heap2mt.o(i._free$realtime$concurrent) refers to fdtree.o(i._FDTree_Insert) for _FDTree_Insert
    heap2mt.o(i._malloc$realtime$concurrent) refers to rt_heap_descriptor_intlibspace.o(.text) for __rt_heap_descriptor
    heap2mt.o(i._malloc$realtime$concurrent) refers to fdtree.o(i._FDTree_FindFirst) for _FDTree_FindFirst
    heap2mt.o(i._malloc$realtime$concurrent) refers to init_alloc.o(.text) for __Heap_Full
    heap2mt.o(i._malloc$realtime$concurrent) refers to fdtree.o(i._FDTree_RemoveNode) for _FDTree_RemoveNode
    heap2mt.o(i._malloc$realtime$concurrent) refers to fdtree.o(i._FDTree_Insert) for _FDTree_Insert
    heap2mt.o(i._posix_memalign$realtime$concurrent) refers to rt_heap_descriptor_intlibspace.o(.text) for __rt_heap_descriptor
    heap2mt.o(i._posix_memalign$realtime$concurrent) refers to fdtree.o(i._FDTree_FindFirst) for _FDTree_FindFirst
    heap2mt.o(i._posix_memalign$realtime$concurrent) refers to init_alloc.o(.text) for __Heap_Full
    heap2mt.o(i._posix_memalign$realtime$concurrent) refers to fdtree.o(i._FDTree_RemoveNode) for _FDTree_RemoveNode
    heap2mt.o(i._posix_memalign$realtime$concurrent) refers to fdtree.o(i._FDTree_Insert) for _FDTree_Insert
    heap2mt.o(i._realloc$realtime$concurrent) refers to rt_heap_descriptor_intlibspace.o(.text) for __rt_heap_descriptor
    heap2mt.o(i._realloc$realtime$concurrent) refers to fdtree.o(i._FDTree_Insert) for _FDTree_Insert
    heap2mt.o(i._realloc$realtime$concurrent) refers to h1_free.o(.text) for free
    heap2mt.o(i._realloc$realtime$concurrent) refers to h1_alloc.o(.text) for malloc
    heap2mt.o(i._realloc$realtime$concurrent) refers to fdtree.o(i._FDTree_Delete) for _FDTree_Delete
    heap2mt.o(i._realloc$realtime$concurrent) refers to rt_memcpy_w.o(.text) for __aeabi_memcpy4
    streamlock.o(.data) refers (Special) to initio.o(.text) for _initio
    fopen.o(.text) refers to fclose.o(.text) for _fclose_internal
    fopen.o(.text) refers to sys_io.o(.text) for _sys_open
    fopen.o(.text) refers to fseek.o(.text) for _fseek
    fopen.o(.text) refers to h1_alloc.o(.text) for malloc
    fopen.o(.text) refers to rt_memclr_w.o(.text) for __aeabi_memclr4
    fopen.o(.text) refers to stdio_streams.o(.bss) for __stdin
    fclose.o(.text) refers to stdio.o(.text) for _fflush
    fclose.o(.text) refers to sys_io.o(.text) for _sys_close
    fclose.o(.text) refers to h1_free.o(.text) for free
    fclose.o(.text) refers to rt_memclr_w.o(.text) for __aeabi_memclr4
    fopen_locked.o(.text) refers to fclose.o(.text) for _fclose_internal
    fopen_locked.o(.text) refers to sys_io.o(.text) for _sys_open
    fopen_locked.o(.text) refers to fseek.o(.text) for _fseek
    fopen_locked.o(.text) refers to h1_alloc.o(.text) for malloc
    fopen_locked.o(.text) refers to rt_memclr_w.o(.text) for __aeabi_memclr4
    fopen_locked.o(.text) refers to streamlock.o(.data) for _stream_list_lock
    fopen_locked.o(.text) refers to stdio_streams.o(.bss) for __stdin
    exit.o(.text) refers to rtexit.o(.ARM.Collect$$rtexit$$00000000) for __rt_exit
    defsig_fpe_outer.o(.text) refers to defsig_fpe_inner.o(.text) for __rt_SIGFPE_inner
    defsig_fpe_outer.o(.text) refers to defsig_exit.o(.text) for __sig_exit
    defsig_fpe_formal.o(.text) refers to rt_raise.o(.text) for __rt_raise
    defsig_rtred_outer.o(.text) refers to defsig_rtred_inner.o(.text) for __rt_SIGRTRED_inner
    defsig_rtred_outer.o(.text) refers to defsig_exit.o(.text) for __sig_exit
    defsig_rtred_formal.o(.text) refers to rt_raise.o(.text) for __rt_raise
    libinit.o(.ARM.Collect$$libinit$$00000000) refers (Special) to libinit2.o(.ARM.Collect$$libinit$$0000002E) for __rt_lib_init_alloca_1
    libinit.o(.ARM.Collect$$libinit$$00000000) refers (Special) to libinit2.o(.ARM.Collect$$libinit$$0000002C) for __rt_lib_init_argv_1
    libinit.o(.ARM.Collect$$libinit$$00000000) refers (Special) to libinit2.o(.ARM.Collect$$libinit$$0000001B) for __rt_lib_init_atexit_1
    libinit.o(.ARM.Collect$$libinit$$00000000) refers (Special) to libinit2.o(.ARM.Collect$$libinit$$00000021) for __rt_lib_init_clock_1
    libinit.o(.ARM.Collect$$libinit$$00000000) refers (Special) to libinit2.o(.ARM.Collect$$libinit$$00000032) for __rt_lib_init_cpp_1
    libinit.o(.ARM.Collect$$libinit$$00000000) refers (Special) to libinit2.o(.ARM.Collect$$libinit$$00000030) for __rt_lib_init_exceptions_1
    libinit.o(.ARM.Collect$$libinit$$00000000) refers (Special) to libinit2.o(.ARM.Collect$$libinit$$00000002) for __rt_lib_init_fp_1
    libinit.o(.ARM.Collect$$libinit$$00000000) refers (Special) to libinit2.o(.ARM.Collect$$libinit$$0000001F) for __rt_lib_init_fp_trap_1
    libinit.o(.ARM.Collect$$libinit$$00000000) refers (Special) to libinit2.o(.ARM.Collect$$libinit$$00000023) for __rt_lib_init_getenv_1
    libinit.o(.ARM.Collect$$libinit$$00000000) refers (Special) to libinit2.o(.ARM.Collect$$libinit$$0000000A) for __rt_lib_init_heap_1
    libinit.o(.ARM.Collect$$libinit$$00000000) refers (Special) to libinit2.o(.ARM.Collect$$libinit$$00000011) for __rt_lib_init_lc_collate_1
    libinit.o(.ARM.Collect$$libinit$$00000000) refers (Special) to libinit2.o(.ARM.Collect$$libinit$$00000013) for __rt_lib_init_lc_ctype_1
    libinit.o(.ARM.Collect$$libinit$$00000000) refers (Special) to libinit2.o(.ARM.Collect$$libinit$$00000015) for __rt_lib_init_lc_monetary_1
    libinit.o(.ARM.Collect$$libinit$$00000000) refers (Special) to libinit2.o(.ARM.Collect$$libinit$$00000017) for __rt_lib_init_lc_numeric_1
    libinit.o(.ARM.Collect$$libinit$$00000000) refers (Special) to libinit2.o(.ARM.Collect$$libinit$$00000019) for __rt_lib_init_lc_time_1
    libinit.o(.ARM.Collect$$libinit$$00000000) refers (Special) to libinit2.o(.ARM.Collect$$libinit$$00000004) for __rt_lib_init_preinit_1
    libinit.o(.ARM.Collect$$libinit$$00000000) refers (Special) to libinit2.o(.ARM.Collect$$libinit$$0000000E) for __rt_lib_init_rand_1
    libinit.o(.ARM.Collect$$libinit$$00000000) refers (Special) to libinit2.o(.ARM.Collect$$libinit$$00000033) for __rt_lib_init_return
    libinit.o(.ARM.Collect$$libinit$$00000000) refers (Special) to libinit2.o(.ARM.Collect$$libinit$$0000001D) for __rt_lib_init_signal_1
    libinit.o(.ARM.Collect$$libinit$$00000000) refers (Special) to libinit2.o(.ARM.Collect$$libinit$$00000025) for __rt_lib_init_stdio_1
    libinit.o(.ARM.Collect$$libinit$$00000000) refers (Special) to libinit2.o(.ARM.Collect$$libinit$$0000000C) for __rt_lib_init_user_alloc_1
    libinit2.o(.ARM.Collect$$libinit$$00000005) refers (Weak) to init_alloc.o(.text) for _init_alloc
    libinit2.o(.ARM.Collect$$libinit$$00000010) refers to libinit2.o(.ARM.Collect$$libinit$$0000000F) for .ARM.Collect$$libinit$$0000000F
    libinit2.o(.ARM.Collect$$libinit$$00000012) refers to libinit2.o(.ARM.Collect$$libinit$$0000000F) for .ARM.Collect$$libinit$$0000000F
    libinit2.o(.ARM.Collect$$libinit$$00000014) refers to libinit2.o(.ARM.Collect$$libinit$$0000000F) for .ARM.Collect$$libinit$$0000000F
    libinit2.o(.ARM.Collect$$libinit$$00000016) refers to libinit2.o(.ARM.Collect$$libinit$$0000000F) for .ARM.Collect$$libinit$$0000000F
    libinit2.o(.ARM.Collect$$libinit$$00000018) refers to libinit2.o(.ARM.Collect$$libinit$$0000000F) for .ARM.Collect$$libinit$$0000000F
    libinit2.o(.ARM.Collect$$libinit$$00000024) refers (Weak) to initio.o(.text) for _initio
    libinit2.o(.ARM.Collect$$libinit$$00000026) refers to argv_veneer.o(.emb_text) for __ARM_argv_veneer
    libinit2.o(.ARM.Collect$$libinit$$00000027) refers to argv_veneer.o(.emb_text) for __ARM_argv_veneer
    libshutdown2.o(.ARM.Collect$$libshutdown$$00000002) refers (Weak) to initio.o(.text) for _terminateio
    libshutdown2.o(.ARM.Collect$$libshutdown$$0000000C) refers (Weak) to term_alloc.o(.text) for _terminate_alloc
    dcheck1.o(x$fpl$dcheck1) refers (Special) to usenofp.o(x$fpl$usenofp) for __I$use$fp
    dcheck1.o(x$fpl$dcheck1) refers to retnan.o(x$fpl$retnan) for __fpl_return_NaN
    rtexit.o(.ARM.Collect$$rtexit$$00000000) refers (Special) to rtexit2.o(.ARM.Collect$$rtexit$$00000004) for __rt_exit_exit
    rtexit.o(.ARM.Collect$$rtexit$$00000000) refers (Special) to rtexit2.o(.ARM.Collect$$rtexit$$00000003) for __rt_exit_ls
    rtexit.o(.ARM.Collect$$rtexit$$00000000) refers (Special) to rtexit2.o(.ARM.Collect$$rtexit$$00000002) for __rt_exit_prels_1
    rtexit.o(.ARM.exidx) refers (Special) to rtexit2.o(.ARM.Collect$$rtexit$$00000004) for __rt_exit_exit
    rtexit.o(.ARM.exidx) refers (Special) to rtexit2.o(.ARM.Collect$$rtexit$$00000003) for __rt_exit_ls
    rtexit.o(.ARM.exidx) refers (Special) to rtexit2.o(.ARM.Collect$$rtexit$$00000002) for __rt_exit_prels_1
    rtexit.o(.ARM.exidx) refers to rtexit.o(.ARM.Collect$$rtexit$$00000000) for .ARM.Collect$$rtexit$$00000000
    rt_raise.o(.text) refers to __raise.o(.text) for __raise
    rt_raise.o(.text) refers to sys_exit.o(.text) for _sys_exit
    rt_heap_descriptor.o(.text) refers to rt_heap_descriptor.o(.bss) for __rt_heap_descriptor_data
    rt_heap_descriptor_intlibspace.o(.text) refers to libspace.o(.bss) for __libspace_start
    init_alloc.o(.text) refers (Special) to hguard.o(.text) for __heap$guard
    init_alloc.o(.text) refers (Special) to libinit2.o(.ARM.Collect$$libinit$$00000005) for __rt_lib_init_heap_2
    init_alloc.o(.text) refers (Special) to maybetermalloc1.o(.emb_text) for _maybe_terminate_alloc
    init_alloc.o(.text) refers to h1_extend.o(.text) for __Heap_ProvideMemory
    init_alloc.o(.text) refers to defsig_rtmem_outer.o(.text) for __rt_SIGRTMEM
    init_alloc.o(.text) refers to rt_heap_descriptor_intlibspace.o(.text) for __rt_heap_descriptor
    init_alloc.o(.text) refers to h1_init.o(.text) for __Heap_Initialize
    malloc.o(.text) refers (Special) to hguard.o(.text) for __heap$guard
    malloc.o(.text) refers (Special) to init_alloc.o(.text) for _init_alloc
    malloc.o(.text) refers to rt_heap_descriptor_intlibspace.o(.text) for __rt_heap_descriptor
    malloc.o(.text) refers to heapstubs.o(.text) for __Heap_Alloc
    h1_alloc.o(.text) refers (Special) to h1_init.o(.text) for __Heap_Initialize
    h1_alloc.o(.text) refers to rt_heap_descriptor_intlibspace.o(.text) for __rt_heap_descriptor
    h1_alloc.o(.text) refers to init_alloc.o(.text) for __Heap_Full
    h1_alloc_mt.o(.text) refers (Special) to h1_init.o(.text) for __Heap_Initialize
    h1_alloc_mt.o(.text) refers to init_alloc.o(.text) for __Heap_Full
    h1_alloc_mt.o(.text) refers to rt_heap_descriptor_intlibspace.o(.text) for __rt_heap_descriptor
    fseek.o(.text) refers to sys_io.o(.text) for _sys_istty
    fseek.o(.text) refers to ftell.o(.text) for _ftell_internal
    fseek.o(.text) refers to stdio.o(.text) for _seterr
    stdio.o(.text) refers to sys_io.o(.text) for _sys_seek
    defsig_exit.o(.text) refers to sys_exit.o(.text) for _sys_exit
    defsig_fpe_inner.o(.text) refers to defsig_general.o(.text) for __default_signal_display
    defsig_rtred_inner.o(.text) refers to defsig_general.o(.text) for __default_signal_display
    argv_veneer.o(.emb_text) refers to no_argv.o(.text) for __ARM_get_argv
    retnan.o(x$fpl$retnan) refers (Special) to usenofp.o(x$fpl$usenofp) for __I$use$fp
    retnan.o(x$fpl$retnan) refers to trapv.o(x$fpl$trapveneer) for __fpl_cmpreturn
    sys_exit.o(.text) refers (Special) to use_no_semi.o(.text) for __I$use$semihosting
    sys_exit.o(.text) refers (Special) to indicate_semi.o(.text) for __semihosting_library_function
    rtexit2.o(.ARM.Collect$$rtexit$$00000003) refers to libshutdown.o(.ARM.Collect$$libshutdown$$00000000) for __rt_lib_shutdown
    rtexit2.o(.ARM.Collect$$rtexit$$00000004) refers to sys_exit.o(.text) for _sys_exit
    rtexit2.o(.ARM.exidx) refers to rtexit2.o(.ARM.Collect$$rtexit$$00000001) for .ARM.Collect$$rtexit$$00000001
    rtexit2.o(.ARM.exidx) refers to rtexit2.o(.ARM.Collect$$rtexit$$00000003) for .ARM.Collect$$rtexit$$00000003
    rtexit2.o(.ARM.exidx) refers to rtexit2.o(.ARM.Collect$$rtexit$$00000004) for .ARM.Collect$$rtexit$$00000004
    maybetermalloc2.o(.emb_text) refers (Special) to term_alloc.o(.text) for _terminate_alloc
    h1_extend.o(.text) refers to h1_free.o(.text) for free
    h1_init_mt.o(.text) refers to mutex_dummy.o(.text) for _mutex_initialize
    h1_extend_mt.o(.text) refers to h1_free_mt.o(.text) for _free_internal
    ftell.o(.text) refers to rt_errno_addr_intlibspace.o(.text) for __aeabi_errno_addr
    __raise.o(.text) refers to defsig.o(CL$$defsig) for __default_signal_handler
    defsig_general.o(.text) refers to sys_wrch.o(.text) for _ttywrch
    defsig_rtmem_outer.o(.text) refers to defsig_rtmem_inner.o(.text) for __rt_SIGRTMEM_inner
    defsig_rtmem_outer.o(.text) refers to defsig_exit.o(.text) for __sig_exit
    defsig_rtmem_formal.o(.text) refers to rt_raise.o(.text) for __rt_raise
    heapauxa.o(.text) refers to heapauxa.o(.data) for .data
    _get_argv.o(.text) refers (Special) to hrguard.o(.text) for __heap_region$guard
    _get_argv.o(.text) refers to h1_alloc.o(.text) for malloc
    _get_argv.o(.text) refers to defsig_rtmem_outer.o(.text) for __rt_SIGRTMEM
    _get_argv.o(.text) refers to sys_command.o(.text) for _sys_command_string
    _get_argv_nomalloc.o(.text) refers (Special) to hrguard.o(.text) for __heap_region$guard
    _get_argv_nomalloc.o(.text) refers to defsig_rtmem_outer.o(.text) for __rt_SIGRTMEM
    _get_argv_nomalloc.o(.text) refers to sys_command.o(.text) for _sys_command_string
    trapv.o(x$fpl$trapveneer) refers (Special) to usenofp.o(x$fpl$usenofp) for __I$use$fp
    sys_wrch.o(.text) refers (Special) to use_no_semi.o(.text) for __I$use$semihosting
    sys_wrch.o(.text) refers (Special) to indicate_semi.o(.text) for __semihosting_library_function
    sys_command.o(.text) refers (Special) to use_no_semi.o(.text) for __I$use$semihosting
    sys_command.o(.text) refers (Special) to indicate_semi.o(.text) for __semihosting_library_function
    term_alloc.o(.text) refers (Special) to libshutdown2.o(.ARM.Collect$$libshutdown$$0000000D) for __rt_lib_shutdown_heap_2
    term_alloc.o(.text) refers to rt_heap_descriptor_intlibspace.o(.text) for __rt_heap_descriptor
    term_alloc.o(.text) refers to h1_final.o(.text) for __Heap_Finalize
    defsig_rtmem_inner.o(.text) refers to defsig_general.o(.text) for __default_signal_display
    defsig.o(CL$$defsig) refers to defsig_fpe_inner.o(.text) for __rt_SIGFPE_inner
    defsig.o(CL$$defsig) refers to defsig_rtred_inner.o(.text) for __rt_SIGRTRED_inner
    defsig.o(CL$$defsig) refers to defsig_rtmem_inner.o(.text) for __rt_SIGRTMEM_inner
    libshutdown.o(.ARM.Collect$$libshutdown$$00000000) refers (Special) to libshutdown2.o(.ARM.Collect$$libshutdown$$00000006) for __rt_lib_shutdown_fp_trap_1
    libshutdown.o(.ARM.Collect$$libshutdown$$00000000) refers (Special) to libshutdown2.o(.ARM.Collect$$libshutdown$$0000000E) for __rt_lib_shutdown_heap_1
    libshutdown.o(.ARM.Collect$$libshutdown$$00000000) refers (Special) to libshutdown2.o(.ARM.Collect$$libshutdown$$0000000F) for __rt_lib_shutdown_return
    libshutdown.o(.ARM.Collect$$libshutdown$$00000000) refers (Special) to libshutdown2.o(.ARM.Collect$$libshutdown$$00000009) for __rt_lib_shutdown_signal_1
    libshutdown.o(.ARM.Collect$$libshutdown$$00000000) refers (Special) to libshutdown2.o(.ARM.Collect$$libshutdown$$00000003) for __rt_lib_shutdown_stdio_1
    libshutdown.o(.ARM.Collect$$libshutdown$$00000000) refers (Special) to libshutdown2.o(.ARM.Collect$$libshutdown$$0000000B) for __rt_lib_shutdown_user_alloc_1
    defsig_abrt_inner.o(.text) refers to defsig_general.o(.text) for __default_signal_display
    defsig_stak_inner.o(.text) refers to defsig_general.o(.text) for __default_signal_display
    defsig_pvfn_inner.o(.text) refers to defsig_general.o(.text) for __default_signal_display
    defsig_cppl_inner.o(.text) refers to defsig_general.o(.text) for __default_signal_display
    defsig_segv_inner.o(.text) refers to defsig_general.o(.text) for __default_signal_display
    defsig_other.o(.text) refers to defsig_general.o(.text) for __default_signal_display

