Component: ARM Compiler 5.05 update 1 (build 106) Tool: armlink [4d0efa]

==============================================================================

Section Cross References

    startup_stm32f10x_hd.o(STACK) refers (Special) to heapauxi.o(.text) for __use_two_region_memory
    startup_stm32f10x_hd.o(HEAP) refers (Special) to heapauxi.o(.text) for __use_two_region_memory
    startup_stm32f10x_hd.o(RESET) refers (Special) to heapauxi.o(.text) for __use_two_region_memory
    startup_stm32f10x_hd.o(RESET) refers to startup_stm32f10x_hd.o(STACK) for __initial_sp
    startup_stm32f10x_hd.o(RESET) refers to startup_stm32f10x_hd.o(.text) for Reset_Handler
    startup_stm32f10x_hd.o(RESET) refers to plc_com.o(i.DMA1_Channel4_IRQHandler) for DMA1_Channel4_IRQHandler
    startup_stm32f10x_hd.o(RESET) refers to exti.o(i.EXTI9_5_IRQHandler) for EXTI9_5_IRQHandler
    startup_stm32f10x_hd.o(RESET) refers to plc_timer.o(i.TIM2_IRQHandler) for TIM2_IRQHandler
    startup_stm32f10x_hd.o(RESET) refers to pulse.o(i.TIM3_IRQHandler) for TIM3_IRQHandler
    startup_stm32f10x_hd.o(RESET) refers to plc_com.o(i.USART1_IRQHandler) for USART1_IRQHandler
    startup_stm32f10x_hd.o(RESET) refers to exti.o(i.EXTI15_10_IRQHandler) for EXTI15_10_IRQHandler
    startup_stm32f10x_hd.o(.text) refers (Special) to heapauxi.o(.text) for __use_two_region_memory
    startup_stm32f10x_hd.o(.text) refers to system_stm32f10x.o(i.SystemInit) for SystemInit
    startup_stm32f10x_hd.o(.text) refers to __main.o(!!!main) for __main
    startup_stm32f10x_hd.o(.text) refers to startup_stm32f10x_hd.o(HEAP) for Heap_Mem
    startup_stm32f10x_hd.o(.text) refers to startup_stm32f10x_hd.o(STACK) for Stack_Mem
    stm32f10x_adc.o(i.ADC_DeInit) refers to stm32f10x_rcc.o(i.RCC_APB2PeriphResetCmd) for RCC_APB2PeriphResetCmd
    stm32f10x_bkp.o(i.BKP_DeInit) refers to stm32f10x_rcc.o(i.RCC_BackupResetCmd) for RCC_BackupResetCmd
==============================================================================

Removing Unused input sections from the image.

    Removing misc.o(i.NVIC_SystemLPConfig), (24 bytes).
    Removing misc.o(i.SysTick_CLKSourceConfig), (24 bytes).
    Removing stm32f10x_adc.o(i.ADC_AnalogWatchdogCmd), (16 bytes).
    Removing stm32f10x_adc.o(i.ADC_AnalogWatchdogSingleChannelConfig), (12 bytes).
    Removing stm32f10x_adc.o(i.ADC_AnalogWatchdogThresholdsConfig), (6 bytes).
    Removing stm32f10x_adc.o(i.ADC_AutoInjectedConvCmd), (20 bytes).
    Removing stm32f10x_adc.o(i.ADC_ClearFlag), (6 bytes).
    Removing stm32f10x_adc.o(i.ADC_ClearITPendingBit), (8 bytes).
    Removing stm32f10x_adc.o(i.ADC_Cmd), (20 bytes).
    Removing stm32f10x_adc.o(i.ADC_DMACmd), (20 bytes).
    Removing stm32f10x_adc.o(i.ADC_DeInit), (68 bytes).
    Removing stm32f10x_adc.o(i.ADC_DiscModeChannelCountConfig), (16 bytes).
    Removing stm32f10x_adc.o(i.ADC_DiscModeCmd), (20 bytes).
    Removing stm32f10x_adc.o(i.ADC_ExternalTrigConvCmd), (20 bytes).
    Removing stm32f10x_adc.o(i.ADC_ExternalTrigInjectedConvCmd), (20 bytes).
    Removing stm32f10x_adc.o(i.ADC_ExternalTrigInjectedConvConfig), (12 bytes).
    Removing stm32f10x_adc.o(i.ADC_GetCalibrationStatus), (14 bytes).
    Removing stm32f10x_adc.o(i.ADC_GetConversionValue), (6 bytes).
==============================================================================

Image Symbol Table

    Local Symbols

    Symbol Name                              Value     Ov Type        Size  Object(Section)

    ../clib/angel/boardlib.s                 0x00000000   Number         0  boardinit2.o ABSOLUTE
    ../clib/angel/boardlib.s                 0x00000000   Number         0  boardshut.o ABSOLUTE
    ../clib/angel/boardlib.s                 0x00000000   Number         0  boardinit3.o ABSOLUTE
    ../clib/angel/boardlib.s                 0x00000000   Number         0  boardinit1.o ABSOLUTE
    ../clib/angel/handlers.s                 0x00000000   Number         0  __scatter_copy.o ABSOLUTE
    ../clib/angel/handlers.s                 0x00000000   Number         0  __scatter_zi.o ABSOLUTE
    ../clib/angel/kernel.s                   0x00000000   Number         0  __rtentry.o ABSOLUTE
    ../clib/angel/kernel.s                   0x00000000   Number         0  rtexit2.o ABSOLUTE
    ../clib/angel/kernel.s                   0x00000000   Number         0  __rtentry4.o ABSOLUTE
    ../clib/angel/kernel.s                   0x00000000   Number         0  rtexit.o ABSOLUTE
    ../clib/angel/kernel.s                   0x00000000   Number         0  __rtentry2.o ABSOLUTE
    ../clib/angel/rt.s                       0x00000000   Number         0  rt_errno_addr_intlibspace.o ABSOLUTE
    ../clib/angel/rt.s                       0x00000000   Number         0  aeabi_ldiv0_sigfpe.o ABSOLUTE
    ../clib/angel/rt.s                       0x00000000   Number         0  rt_errno_addr.o ABSOLUTE
    ../clib/angel/rt.s                       0x00000000   Number         0  rt_div0.o ABSOLUTE
    ../clib/angel/rt.s                       0x00000000   Number         0  rt_raise.o ABSOLUTE
    ../clib/angel/rt.s                       0x00000000   Number         0  aeabi_ldiv0.o ABSOLUTE
    ../clib/angel/scatter.s                  0x00000000   Number         0  __scatter.o ABSOLUTE
    ../clib/angel/startup.s                  0x00000000   Number         0  __main.o ABSOLUTE
    ../clib/angel/sys.s                      0x00000000   Number         0  indicate_semi.o ABSOLUTE
    ../clib/angel/sys.s                      0x00000000   Number         0  use_no_semi.o ABSOLUTE
    ../clib/angel/sys.s                      0x00000000   Number         0  sys_stackheap_outer.o ABSOLUTE
    ../clib/angel/sys.s                      0x00000000   Number         0  libspace.o ABSOLUTE
    ../clib/angel/sysapp.c                   0x00000000   Number         0  sys_command.o ABSOLUTE
    ../clib/angel/sysapp.c                   0x00000000   Number         0  sys_exit.o ABSOLUTE
    ../clib/angel/sysapp.c                   0x00000000   Number         0  sys_wrch.o ABSOLUTE
    ../clib/armsys.c                         0x00000000   Number         0  _get_argv_nomalloc.o ABSOLUTE
    ../clib/armsys.c                         0x00000000   Number         0  no_argv.o ABSOLUTE
    ../clib/armsys.c                         0x00000000   Number         0  argv_veneer.o ABSOLUTE
    ../clib/armsys.c                         0x00000000   Number         0  argv_veneer.o ABSOLUTE
    ../clib/fenv.c                           0x00000000   Number         0  _rserrno.o ABSOLUTE
    ../clib/heapalloc.c                      0x00000000   Number         0  hrguard.o ABSOLUTE
    ../clib/heapaux.c                        0x00000000   Number         0  heapauxi.o ABSOLUTE
    ../clib/libinit.s                        0x00000000   Number         0  libinit2.o ABSOLUTE
    ../clib/libinit.s                        0x00000000   Number         0  libshutdown2.o ABSOLUTE
    ../clib/libinit.s                        0x00000000   Number         0  libinit.o ABSOLUTE
    ../clib/libinit.s                        0x00000000   Number         0  libshutdown.o ABSOLUTE
    ../clib/longlong.s                       0x00000000   Number         0  lludivv7m.o ABSOLUTE
    ../clib/longlong.s                       0x00000000   Number         0  llshl.o ABSOLUTE
    ../clib/longlong.s                       0x00000000   Number         0  llushr.o ABSOLUTE
    ../clib/signal.c                         0x00000000   Number         0  defsig_stak_inner.o ABSOLUTE
    ../clib/signal.c                         0x00000000   Number         0  defsig_pvfn_inner.o ABSOLUTE
    ../clib/signal.c                         0x00000000   Number         0  defsig_segv_inner.o ABSOLUTE
    ../clib/signal.c                         0x00000000   Number         0  defsig_other.o ABSOLUTE
    ../clib/signal.c                         0x00000000   Number         0  defsig_fpe_outer.o ABSOLUTE
    ../clib/signal.c                         0x00000000   Number         0  defsig_cppl_inner.o ABSOLUTE
    ../clib/signal.c                         0x00000000   Number         0  defsig_exit.o ABSOLUTE
    ../clib/signal.c                         0x00000000   Number         0  defsig_fpe_inner.o ABSOLUTE
    ../clib/signal.c                         0x00000000   Number         0  __raise.o ABSOLUTE
    ../clib/signal.c                         0x00000000   Number         0  defsig_general.o ABSOLUTE
    ../clib/signal.c                         0x00000000   Number         0  defsig_fpe_formal.o ABSOLUTE
    ../clib/signal.c                         0x00000000   Number         0  defsig_abrt_inner.o ABSOLUTE
    ../clib/signal.c                         0x00000000   Number         0  defsig_rtred_inner.o ABSOLUTE
    ../clib/signal.c                         0x00000000   Number         0  defsig_rtmem_inner.o ABSOLUTE
    ../clib/signal.c                         0x00000000   Number         0  defsig_rtmem_outer.o ABSOLUTE
    ../clib/signal.c                         0x00000000   Number         0  defsig_rtmem_formal.o ABSOLUTE
    ../clib/signal.s                         0x00000000   Number         0  defsig.o ABSOLUTE
    ../clib/stdlib.c                         0x00000000   Number         0  exit.o ABSOLUTE
    ../fplib/d2f.s                           0x00000000   Number         0  d2f.o ABSOLUTE
    ../fplib/daddsub.s                       0x00000000   Number         0  daddsub_clz.o ABSOLUTE
    ../fplib/dcheck1.s                       0x00000000   Number         0  dcheck1.o ABSOLUTE
    ../fplib/dcmpi.s                         0x00000000   Number         0  dcmpi.o ABSOLUTE
    ../fplib/ddiv.s                          0x00000000   Number         0  ddiv.o ABSOLUTE
    ../fplib/dfix.s                          0x00000000   Number         0  dfix.o ABSOLUTE
    ../fplib/dfixu.s                         0x00000000   Number         0  dfixu.o ABSOLUTE
    ../fplib/dflt.s                          0x00000000   Number         0  dflt_clz.o ABSOLUTE
    ../fplib/dleqf.s                         0x00000000   Number         0  dleqf.o ABSOLUTE
    ../fplib/dmul.s                          0x00000000   Number         0  dmul.o ABSOLUTE
    ../fplib/dnaninf.s                       0x00000000   Number         0  dnaninf.o ABSOLUTE
    ../fplib/dretinf.s                       0x00000000   Number         0  dretinf.o ABSOLUTE
    ../fplib/dsqrt.s                         0x00000000   Number         0  dsqrt_noumaal.o ABSOLUTE
    ../fplib/f2d.s                           0x00000000   Number         0  f2d.o ABSOLUTE
    ../fplib/faddsub.s                       0x00000000   Number         0  faddsub_clz.o ABSOLUTE
    ../fplib/fcmpi.s                         0x00000000   Number         0  fcmpi.o ABSOLUTE
    ../fplib/fdiv.s                          0x00000000   Number         0  fdiv.o ABSOLUTE
    ../fplib/feqf.s                          0x00000000   Number         0  feqf.o ABSOLUTE
    ../fplib/ffixu.s                         0x00000000   Number         0  ffixu.o ABSOLUTE
    ../fplib/fflt.s                          0x00000000   Number         0  fflt_clz.o ABSOLUTE
    ../fplib/fleqf.s                         0x00000000   Number         0  fleqf.o ABSOLUTE
    ../fplib/fmul.s                          0x00000000   Number         0  fmul.o ABSOLUTE
    ../fplib/fnaninf.s                       0x00000000   Number         0  fnaninf.o ABSOLUTE
    ../fplib/fpinit.s                        0x00000000   Number         0  fpinit.o ABSOLUTE
    ../fplib/fretinf.s                       0x00000000   Number         0  fretinf.o ABSOLUTE
    ../fplib/frleqf.s                        0x00000000   Number         0  frleqf.o ABSOLUTE
    ../fplib/retnan.s                        0x00000000   Number         0  retnan.o ABSOLUTE
    ../fplib/scalbn.s                        0x00000000   Number         0  scalbn.o ABSOLUTE
    ../fplib/trapv.s                         0x00000000   Number         0  trapv.o ABSOLUTE
    ../fplib/usenofp.s                       0x00000000   Number         0  usenofp.o ABSOLUTE
    ../mathlib/cos.c                         0x00000000   Number         0  cos_x.o ABSOLUTE
    ../mathlib/cos.c                         0x00000000   Number         0  cos.o ABSOLUTE
    ../mathlib/cos_i.c                       0x00000000   Number         0  cos_i.o ABSOLUTE
    ../mathlib/dunder.c                      0x00000000   Number         0  dunder.o ABSOLUTE
    ../mathlib/fpclassify.c                  0x00000000   Number         0  fpclassify.o ABSOLUTE
    ../mathlib/poly.c                        0x00000000   Number         0  poly.o ABSOLUTE
    ../mathlib/rred.c                        0x00000000   Number         0  rred.o ABSOLUTE
    ../mathlib/sin.c                         0x00000000   Number         0  sin.o ABSOLUTE
    ../mathlib/sin.c                         0x00000000   Number         0  sin_x.o ABSOLUTE
    ../mathlib/sin_i.c                       0x00000000   Number         0  sin_i_x.o ABSOLUTE
    ../mathlib/sin_i.c                       0x00000000   Number         0  sin_i.o ABSOLUTE
    ../mathlib/sqrt.c                        0x00000000   Number         0  sqrt.o ABSOLUTE
    ../mathlib/sqrt.c                        0x00000000   Number         0  sqrt_x.o ABSOLUTE
    ../mathlib/tan.c                         0x00000000   Number         0  tan_x.o ABSOLUTE
    ../mathlib/tan.c                         0x00000000   Number         0  tan.o ABSOLUTE
    ../mathlib/tan_i.c                       0x00000000   Number         0  tan_i.o ABSOLUTE
    ../mathlib/tan_i.c                       0x00000000   Number         0  tan_i_x.o ABSOLUTE
    ..\CMSIS\core_cm3.c                      0x00000000   Number         0  core_cm3.o ABSOLUTE
    ..\CMSIS\startup_stm32f10x_hd.s          0x00000000   Number         0  startup_stm32f10x_hd.o ABSOLUTE
    ..\CMSIS\system_stm32f10x.c              0x00000000   Number         0  system_stm32f10x.o ABSOLUTE
    ..\Libraries\src\misc.c                  0x00000000   Number         0  misc.o ABSOLUTE
    ..\Libraries\src\stm32f10x_adc.c         0x00000000   Number         0  stm32f10x_adc.o ABSOLUTE
    ..\Libraries\src\stm32f10x_bkp.c         0x00000000   Number         0  stm32f10x_bkp.o ABSOLUTE
    ..\Libraries\src\stm32f10x_can.c         0x00000000   Number         0  stm32f10x_can.o ABSOLUTE
    ..\Libraries\src\stm32f10x_cec.c         0x00000000   Number         0  stm32f10x_cec.o ABSOLUTE
    ..\Libraries\src\stm32f10x_crc.c         0x00000000   Number         0  stm32f10x_crc.o ABSOLUTE
    ..\Libraries\src\stm32f10x_dac.c         0x00000000   Number         0  stm32f10x_dac.o ABSOLUTE
    ..\Libraries\src\stm32f10x_dbgmcu.c      0x00000000   Number         0  stm32f10x_dbgmcu.o ABSOLUTE
    ..\Libraries\src\stm32f10x_dma.c         0x00000000   Number         0  stm32f10x_dma.o ABSOLUTE
    ..\Libraries\src\stm32f10x_exti.c        0x00000000   Number         0  stm32f10x_exti.o ABSOLUTE
    ..\Libraries\src\stm32f10x_flash.c       0x00000000   Number         0  stm32f10x_flash.o ABSOLUTE
    ..\Libraries\src\stm32f10x_fsmc.c        0x00000000   Number         0  stm32f10x_fsmc.o ABSOLUTE
    ..\Libraries\src\stm32f10x_gpio.c        0x00000000   Number         0  stm32f10x_gpio.o ABSOLUTE
    ..\Libraries\src\stm32f10x_i2c.c         0x00000000   Number         0  stm32f10x_i2c.o ABSOLUTE
    ..\Libraries\src\stm32f10x_iwdg.c        0x00000000   Number         0  stm32f10x_iwdg.o ABSOLUTE
    ..\Libraries\src\stm32f10x_pwr.c         0x00000000   Number         0  stm32f10x_pwr.o ABSOLUTE
    ..\Libraries\src\stm32f10x_rcc.c         0x00000000   Number         0  stm32f10x_rcc.o ABSOLUTE
    ..\Libraries\src\stm32f10x_rtc.c         0x00000000   Number         0  stm32f10x_rtc.o ABSOLUTE
    ..\Libraries\src\stm32f10x_sdio.c        0x00000000   Number         0  stm32f10x_sdio.o ABSOLUTE
    ..\Libraries\src\stm32f10x_spi.c         0x00000000   Number         0  stm32f10x_spi.o ABSOLUTE
    ..\Libraries\src\stm32f10x_tim.c         0x00000000   Number         0  stm32f10x_tim.o ABSOLUTE
    ..\Libraries\src\stm32f10x_usart.c       0x00000000   Number         0  stm32f10x_usart.o ABSOLUTE
    ..\Libraries\src\stm32f10x_wwdg.c        0x00000000   Number         0  stm32f10x_wwdg.o ABSOLUTE
    ..\\CMSIS\\core_cm3.c                    0x00000000   Number         0  core_cm3.o ABSOLUTE
    ..\users\ADC.C                           0x00000000   Number         0  adc.o ABSOLUTE
    ..\users\DAC.C                           0x00000000   Number         0  dac.o ABSOLUTE
    ..\users\EXTI.C                          0x00000000   Number         0  exti.o ABSOLUTE
    ..\users\Encoder.c                       0x00000000   Number         0  encoder.o ABSOLUTE
    ..\users\NVIC_interrupt.c                0x00000000   Number         0  nvic_interrupt.o ABSOLUTE
    ..\users\PLC_Com.c                       0x00000000   Number         0  plc_com.o ABSOLUTE
    ..\users\PLC_IO.C                        0x00000000   Number         0  plc_io.o ABSOLUTE
    ..\users\PLC_Other.C                     0x00000000   Number         0  plc_other.o ABSOLUTE
    ..\users\PLC_process.c                   0x00000000   Number         0  plc_process.o ABSOLUTE
    ..\users\PLC_timer.c                     0x00000000   Number         0  plc_timer.o ABSOLUTE
    ..\users\Pulse.c                         0x00000000   Number         0  pulse.o ABSOLUTE
    ..\users\RTC.C                           0x00000000   Number         0  rtc.o ABSOLUTE
    ..\users\main.c                          0x00000000   Number         0  main.o ABSOLUTE
    dc.s                                     0x00000000   Number         0  dc.o ABSOLUTE
    RESET                                    0x08000000   Section      304  startup_stm32f10x_hd.o(RESET)
    !!!main                                  0x08000130   Section        8  __main.o(!!!main)
    !!!scatter                               0x08000138   Section       52  __scatter.o(!!!scatter)
    !!handler_copy                           0x0800016c   Section       26  __scatter_copy.o(!!handler_copy)
    !!handler_zi                             0x08000188   Section       28  __scatter_zi.o(!!handler_zi)
    .ARM.Collect$$libinit$$00000000          0x080001a4   Section        2  libinit.o(.ARM.Collect$$libinit$$00000000)
    .ARM.Collect$$libinit$$00000002          0x080001a6   Section        0  libinit2.o(.ARM.Collect$$libinit$$00000002)
    .ARM.Collect$$libinit$$00000004          0x080001a6   Section        0  libinit2.o(.ARM.Collect$$libinit$$00000004)
    .ARM.Collect$$libinit$$0000000A          0x080001a6   Section        0  libinit2.o(.ARM.Collect$$libinit$$0000000A)
    .ARM.Collect$$libinit$$0000000C          0x080001a6   Section        0  libinit2.o(.ARM.Collect$$libinit$$0000000C)
    .ARM.Collect$$libinit$$0000000E          0x080001a6   Section        0  libinit2.o(.ARM.Collect$$libinit$$0000000E)
    .ARM.Collect$$libinit$$00000011          0x080001a6   Section        0  libinit2.o(.ARM.Collect$$libinit$$00000011)
    .ARM.Collect$$libinit$$00000013          0x080001a6   Section        0  libinit2.o(.ARM.Collect$$libinit$$00000013)
    .ARM.Collect$$libinit$$00000015          0x080001a6   Section        0  libinit2.o(.ARM.Collect$$libinit$$00000015)
    .ARM.Collect$$libinit$$00000017          0x080001a6   Section        0  libinit2.o(.ARM.Collect$$libinit$$00000017)
    .ARM.Collect$$libinit$$00000019          0x080001a6   Section        0  libinit2.o(.ARM.Collect$$libinit$$00000019)
    .ARM.Collect$$libinit$$0000001B          0x080001a6   Section        0  libinit2.o(.ARM.Collect$$libinit$$0000001B)
    .ARM.Collect$$libinit$$0000001D          0x080001a6   Section        0  libinit2.o(.ARM.Collect$$libinit$$0000001D)
    .ARM.Collect$$libinit$$0000001F          0x080001a6   Section        0  libinit2.o(.ARM.Collect$$libinit$$0000001F)
    .ARM.Collect$$libinit$$00000021          0x080001a6   Section        0  libinit2.o(.ARM.Collect$$libinit$$00000021)
    .ARM.Collect$$libinit$$00000023          0x080001a6   Section        0  libinit2.o(.ARM.Collect$$libinit$$00000023)
    .ARM.Collect$$libinit$$00000025          0x080001a6   Section        0  libinit2.o(.ARM.Collect$$libinit$$00000025)
    .ARM.Collect$$libinit$$0000002C          0x080001a6   Section        0  libinit2.o(.ARM.Collect$$libinit$$0000002C)
    .ARM.Collect$$libinit$$0000002E          0x080001a6   Section        0  libinit2.o(.ARM.Collect$$libinit$$0000002E)
    .ARM.Collect$$libinit$$00000030          0x080001a6   Section        0  libinit2.o(.ARM.Collect$$libinit$$00000030)
    .ARM.Collect$$libinit$$00000032          0x080001a6   Section        0  libinit2.o(.ARM.Collect$$libinit$$00000032)
    .ARM.Collect$$libinit$$00000033          0x080001a6   Section        2  libinit2.o(.ARM.Collect$$libinit$$00000033)
    .ARM.Collect$$libshutdown$$00000000      0x080001a8   Section        2  libshutdown.o(.ARM.Collect$$libshutdown$$00000000)
    .ARM.Collect$$libshutdown$$00000003      0x080001aa   Section        0  libshutdown2.o(.ARM.Collect$$libshutdown$$00000003)
    .ARM.Collect$$libshutdown$$00000006      0x080001aa   Section        0  libshutdown2.o(.ARM.Collect$$libshutdown$$00000006)
    .ARM.Collect$$libshutdown$$00000009      0x080001aa   Section        0  libshutdown2.o(.ARM.Collect$$libshutdown$$00000009)
    .ARM.Collect$$libshutdown$$0000000B      0x080001aa   Section        0  libshutdown2.o(.ARM.Collect$$libshutdown$$0000000B)
    .ARM.Collect$$libshutdown$$0000000E      0x080001aa   Section        0  libshutdown2.o(.ARM.Collect$$libshutdown$$0000000E)
    .ARM.Collect$$libshutdown$$0000000F      0x080001aa   Section        2  libshutdown2.o(.ARM.Collect$$libshutdown$$0000000F)
    .ARM.Collect$$rtentry$$00000000          0x080001ac   Section        0  __rtentry.o(.ARM.Collect$$rtentry$$00000000)
    .ARM.Collect$$rtentry$$00000002          0x080001ac   Section        0  __rtentry2.o(.ARM.Collect$$rtentry$$00000002)
    .ARM.Collect$$rtentry$$00000004          0x080001ac   Section        6  __rtentry4.o(.ARM.Collect$$rtentry$$00000004)
    .ARM.Collect$$rtentry$$00000009          0x080001b2   Section        0  __rtentry2.o(.ARM.Collect$$rtentry$$00000009)
    .ARM.Collect$$rtentry$$0000000A          0x080001b2   Section        4  __rtentry2.o(.ARM.Collect$$rtentry$$0000000A)
    .ARM.Collect$$rtentry$$0000000C          0x080001b6   Section        0  __rtentry2.o(.ARM.Collect$$rtentry$$0000000C)
    .ARM.Collect$$rtentry$$0000000D          0x080001b6   Section        8  __rtentry2.o(.ARM.Collect$$rtentry$$0000000D)
    .ARM.Collect$$rtexit$$00000000           0x080001be   Section        2  rtexit.o(.ARM.Collect$$rtexit$$00000000)
    .ARM.Collect$$rtexit$$00000002           0x080001c0   Section        0  rtexit2.o(.ARM.Collect$$rtexit$$00000002)
    .ARM.Collect$$rtexit$$00000003           0x080001c0   Section        4  rtexit2.o(.ARM.Collect$$rtexit$$00000003)
    .ARM.Collect$$rtexit$$00000004           0x080001c4   Section        6  rtexit2.o(.ARM.Collect$$rtexit$$00000004)
    .text                                    0x080001cc   Section       64  startup_stm32f10x_hd.o(.text)
    .text                                    0x0800020c   Section      238  lludivv7m.o(.text)
    .text                                    0x080002fa   Section       38  llshl.o(.text)
    .text                                    0x08000320   Section       38  llushr.o(.text)
    .text                                    0x08000346   Section        0  heapauxi.o(.text)
    .text                                    0x0800034c   Section        0  _rserrno.o(.text)
    .text                                    0x08000364   Section        8  rt_errno_addr_intlibspace.o(.text)
    .text                                    0x0800036c   Section        8  libspace.o(.text)
    .text                                    0x08000374   Section       74  sys_stackheap_outer.o(.text)
    .text                                    0x080003be   Section        0  exit.o(.text)
    .text                                    0x080003cc   Section        0  sys_exit.o(.text)
    .text                                    0x080003d8   Section        2  use_no_semi.o(.text)
    .text                                    0x080003da   Section        0  indicate_semi.o(.text)
    i.ALT                                    0x080003dc   Section        0  plc_process.o(i.ALT)
    ALT                                      0x080003dd   Thumb Code    66  plc_process.o(i.ALT)
    i.AND                                    0x0800042c   Section        0  plc_process.o(i.AND)
    i.ANDF                                   0x08000464   Section        0  plc_process.o(i.ANDF)
    ANDF                                     0x08000465   Thumb Code   160  plc_process.o(i.ANDF)
    i.ANDP                                   0x08000514   Section        0  plc_process.o(i.ANDP)
    ANDP                                     0x08000515   Thumb Code   160  plc_process.o(i.ANDP)
    i.ANI                                    0x080005c4   Section        0  plc_process.o(i.ANI)
    ANI                                      0x080005c5   Thumb Code    42  plc_process.o(i.ANI)
    i.BCD                                    0x080005fc   Section        0  plc_process.o(i.BCD)
    BCD                                      0x080005fd   Thumb Code    94  plc_process.o(i.BCD)
    i.BIN                                    0x08000660   Section        0  plc_process.o(i.BIN)
    BIN                                      0x08000661   Thumb Code    82  plc_process.o(i.BIN)
    i.BIT_SET                                0x080006b8   Section        0  plc_process.o(i.BIT_SET)
    BIT_SET                                  0x080006b9   Thumb Code   142  plc_process.o(i.BIT_SET)
    i.BMOV                                   0x08000758   Section        0  plc_process.o(i.BMOV)
    BMOV                                     0x08000759   Thumb Code   124  plc_process.o(i.BMOV)
    i.BtoG                                   0x080007d8   Section        0  plc_process.o(i.BtoG)
    i.CALL_EX                                0x080007f8   Section        0  plc_process.o(i.CALL_EX)
    CALL_EX                                  0x080007f9   Thumb Code    74  plc_process.o(i.CALL_EX)
    i.CALL_P                                 0x08000850   Section        0  plc_process.o(i.CALL_P)
    CALL_P                                   0x08000851   Thumb Code   134  plc_process.o(i.CALL_P)
    i.CJ_EX                                  0x080008e8   Section        0  plc_process.o(i.CJ_EX)
    CJ_EX                                    0x080008e9   Thumb Code    32  plc_process.o(i.CJ_EX)
    i.CJ_P                                   0x08000910   Section        0  plc_process.o(i.CJ_P)
    CJ_P                                     0x08000911   Thumb Code   134  plc_process.o(i.CJ_P)
    i.CMP                                    0x080009a8   Section        0  plc_process.o(i.CMP)
    CMP                                      0x080009a9   Thumb Code   204  plc_process.o(i.CMP)
    i.CMP_P                                  0x08000a80   Section        0  plc_process.o(i.CMP_P)
    CMP_P                                    0x08000a81   Thumb Code   300  plc_process.o(i.CMP_P)
    i.C_given_value_D                        0x08000bc0   Section        0  plc_process.o(i.C_given_value_D)
    C_given_value_D                          0x08000bc1   Thumb Code    64  plc_process.o(i.C_given_value_D)
    i.DAC_SetChannel1Data                    0x08000c04   Section        0  stm32f10x_dac.o(i.DAC_SetChannel1Data)
    i.DAC_SetChannel2Data                    0x08000c18   Section        0  stm32f10x_dac.o(i.DAC_SetChannel2Data)
    i.DAC_SoftwareTriggerCmd                 0x08000c2c   Section        0  stm32f10x_dac.o(i.DAC_SoftwareTriggerCmd)
    i.DAC_data                               0x08000c48   Section        0  dac.o(i.DAC_data)
    i.DBCD                                   0x08000c78   Section        0  plc_process.o(i.DBCD)
    DBCD                                     0x08000c79   Thumb Code   186  plc_process.o(i.DBCD)
    i.DBIN                                   0x08000d44   Section        0  plc_process.o(i.DBIN)
    DBIN                                     0x08000d45   Thumb Code   248  plc_process.o(i.DBIN)
    i.DCMP                                   0x08000e44   Section        0  plc_process.o(i.DCMP)
    DCMP                                     0x08000e45   Thumb Code   200  plc_process.o(i.DCMP)
    i.DCMP_P                                 0x08000f18   Section        0  plc_process.o(i.DCMP_P)
    DCMP_P                                   0x08000f19   Thumb Code   312  plc_process.o(i.DCMP_P)
    i.DDIV                                   0x08001064   Section        0  plc_process.o(i.DDIV)
    DDIV                                     0x08001065   Thumb Code    90  plc_process.o(i.DDIV)
    i.DEC_P                                  0x080010c8   Section        0  plc_process.o(i.DEC_P)
    DEC_P                                    0x080010c9   Thumb Code   136  plc_process.o(i.DEC_P)
    i.DE_target                              0x08001160   Section        0  plc_process.o(i.DE_target)
    DE_target                                0x08001161   Thumb Code    24  plc_process.o(i.DE_target)
    i.DFMOV                                  0x0800117c   Section        0  plc_process.o(i.DFMOV)
    DFMOV                                    0x0800117d   Thumb Code    92  plc_process.o(i.DFMOV)
    i.DINC_P                                 0x080011dc   Section        0  plc_process.o(i.DINC_P)
    DINC_P                                   0x080011dd   Thumb Code   136  plc_process.o(i.DINC_P)
    i.DMA1_Channel4_IRQHandler               0x08001274   Section        0  plc_com.o(i.DMA1_Channel4_IRQHandler)
    i.DMA_DeInit                             0x08001298   Section        0  stm32f10x_dma.o(i.DMA_DeInit)
    i.DMA_ITConfig                           0x0800137c   Section        0  stm32f10x_dma.o(i.DMA_ITConfig)
    i.DMA_Init                               0x0800138c   Section        0  stm32f10x_dma.o(i.DMA_Init)
    i.DMUL                                   0x080013c8   Section        0  plc_process.o(i.DMUL)
    DMUL                                     0x080013c9   Thumb Code    78  plc_process.o(i.DMUL)
    i.DZ0_Z3                                 0x08001420   Section        0  plc_process.o(i.DZ0_Z3)
    i.DZ4_Z7                                 0x08001468   Section        0  plc_process.o(i.DZ4_Z7)
    i.DZCP                                   0x080014b4   Section        0  plc_process.o(i.DZCP)
    DZCP                                     0x080014b5   Thumb Code   206  plc_process.o(i.DZCP)
    i.D_C_T_addr                             0x08001590   Section        0  plc_process.o(i.D_C_T_addr)
    i.D_target                               0x080015fc   Section        0  plc_process.o(i.D_target)
    D_target                                 0x080015fd   Thumb Code   532  plc_process.o(i.D_target)
    i.Damount                                0x0800181c   Section        0  plc_process.o(i.Damount)
    Damount                                  0x0800181d   Thumb Code    72  plc_process.o(i.Damount)
    i.Dbig                                   0x08001870   Section        0  plc_process.o(i.Dbig)
    Dbig                                     0x08001871   Thumb Code    72  plc_process.o(i.Dbig)
    i.Dbig_amount                            0x080018c4   Section        0  plc_process.o(i.Dbig_amount)
    Dbig_amount                              0x080018c5   Thumb Code    72  plc_process.o(i.Dbig_amount)
    i.Dless                                  0x08001918   Section        0  plc_process.o(i.Dless)
    Dless                                    0x08001919   Thumb Code    72  plc_process.o(i.Dless)
    i.Dless_amount                           0x0800196c   Section        0  plc_process.o(i.Dless_amount)
    Dless_amount                             0x0800196d   Thumb Code    72  plc_process.o(i.Dless_amount)
    i.Dno_amount                             0x080019c0   Section        0  plc_process.o(i.Dno_amount)
    Dno_amount                               0x080019c1   Thumb Code    72  plc_process.o(i.Dno_amount)
    i.ECMP                                   0x08001a14   Section        0  plc_process.o(i.ECMP)
    ECMP                                     0x08001a15   Thumb Code   224  plc_process.o(i.ECMP)
    i.EPC_FORCE_OFF                          0x08001b00   Section        0  plc_com.o(i.EPC_FORCE_OFF)
    i.EPC_FORCE_ON                           0x08001b40   Section        0  plc_com.o(i.EPC_FORCE_ON)
    i.EXTI15_10_IRQHandler                   0x08001ba4   Section        0  exti.o(i.EXTI15_10_IRQHandler)
    i.EXTI9_5_IRQHandler                     0x08001c78   Section        0  exti.o(i.EXTI9_5_IRQHandler)
    i.EXTI_ClearITPendingBit                 0x08001dac   Section        0  stm32f10x_exti.o(i.EXTI_ClearITPendingBit)
    i.EXTI_GetITStatus                       0x08001db8   Section        0  stm32f10x_exti.o(i.EXTI_GetITStatus)
    i.EZCP                                   0x08001dd8   Section        0  plc_process.o(i.EZCP)
    EZCP                                     0x08001dd9   Thumb Code   190  plc_process.o(i.EZCP)
    i.Encoder_A                              0x08001ea4   Section        0  encoder.o(i.Encoder_A)
    i.Encoder_B                              0x08001ee0   Section        0  encoder.o(i.Encoder_B)
    i.ErasurePLC                             0x08001f1c   Section        0  plc_com.o(i.ErasurePLC)
    i.FLASH_ErasePage                        0x08001fd0   Section        0  stm32f10x_flash.o(i.FLASH_ErasePage)
    i.FLASH_GetBank1Status                   0x0800200c   Section        0  stm32f10x_flash.o(i.FLASH_GetBank1Status)
    i.FLASH_Lock                             0x08002034   Section        0  stm32f10x_flash.o(i.FLASH_Lock)
    i.FLASH_ProgramHalfWord                  0x08002044   Section        0  stm32f10x_flash.o(i.FLASH_ProgramHalfWord)
    i.FLASH_Unlock                           0x08002078   Section        0  stm32f10x_flash.o(i.FLASH_Unlock)
    i.FLASH_WaitForLastOperation             0x08002090   Section        0  stm32f10x_flash.o(i.FLASH_WaitForLastOperation)
    i.FMOV                                   0x080020b4   Section        0  plc_process.o(i.FMOV)
    FMOV                                     0x080020b5   Thumb Code   100  plc_process.o(i.FMOV)
    i.FOR                                    0x0800211c   Section        0  plc_process.o(i.FOR)
    FOR                                      0x0800211d   Thumb Code    72  plc_process.o(i.FOR)
    i.GPIO_Init                              0x0800216c   Section        0  stm32f10x_gpio.o(i.GPIO_Init)
    i.GPIO_PinRemapConfig                    0x08002208   Section        0  stm32f10x_gpio.o(i.GPIO_PinRemapConfig)
    i.GPIO_ReadInputDataBit                  0x08002260   Section        0  stm32f10x_gpio.o(i.GPIO_ReadInputDataBit)
    i.GtoB                                   0x0800226e   Section        0  plc_process.o(i.GtoB)
    i.INC_P                                  0x08002290   Section        0  plc_process.o(i.INC_P)
    INC_P                                    0x08002291   Thumb Code   136  plc_process.o(i.INC_P)
    i.Is_Leap_Year                           0x08002328   Section        0  rtc.o(i.Is_Leap_Year)
    i.LD                                     0x08002350   Section        0  plc_process.o(i.LD)
    LD                                       0x08002351   Thumb Code    72  plc_process.o(i.LD)
    i.LDF                                    0x080023a4   Section        0  plc_process.o(i.LDF)
    LDF                                      0x080023a5   Thumb Code   208  plc_process.o(i.LDF)
    i.LDI                                    0x08002488   Section        0  plc_process.o(i.LDI)
    LDI                                      0x08002489   Thumb Code    74  plc_process.o(i.LDI)
    i.LDP                                    0x080024e0   Section        0  plc_process.o(i.LDP)
    LDP                                      0x080024e1   Thumb Code   190  plc_process.o(i.LDP)
    i.LPF                                    0x080025b4   Section        0  plc_process.o(i.LPF)
    LPF                                      0x080025b5   Thumb Code   182  plc_process.o(i.LPF)
    i.LPS                                    0x08002680   Section        0  plc_process.o(i.LPS)
    LPS                                      0x08002681   Thumb Code   158  plc_process.o(i.LPS)
    i.MEAN                                   0x08002734   Section        0  plc_process.o(i.MEAN)
    i.MOV_K                                  0x080027f0   Section        0  plc_process.o(i.MOV_K)
    MOV_K                                    0x080027f1   Thumb Code    48  plc_process.o(i.MOV_K)
    i.MOV_TO_K_H                             0x08002828   Section        0  plc_process.o(i.MOV_TO_K_H)
    MOV_TO_K_H                               0x08002829   Thumb Code   270  plc_process.o(i.MOV_TO_K_H)
    i.MTR                                    0x08002944   Section        0  plc_process.o(i.MTR)
    MTR                                      0x08002945   Thumb Code   170  plc_process.o(i.MTR)
    i.NCIC_Confinguration                    0x080029fc   Section        0  nvic_interrupt.o(i.NCIC_Confinguration)
    i.NVIC_Init                              0x08002b00   Section        0  misc.o(i.NVIC_Init)
    i.NVIC_PriorityGroupConfig               0x08002b64   Section        0  misc.o(i.NVIC_PriorityGroupConfig)
    i.NVIC_SetVectorTable                    0x08002b78   Section        0  misc.o(i.NVIC_SetVectorTable)
    i.OR                                     0x08002b8c   Section        0  plc_process.o(i.OR)
    OR                                       0x08002b8d   Thumb Code    44  plc_process.o(i.OR)
    i.ORF                                    0x08002bc4   Section        0  plc_process.o(i.ORF)
    ORF                                      0x08002bc5   Thumb Code   160  plc_process.o(i.ORF)
    i.ORI                                    0x08002c74   Section        0  plc_process.o(i.ORI)
    ORI                                      0x08002c75   Thumb Code    46  plc_process.o(i.ORI)
    i.ORP                                    0x08002cb0   Section        0  plc_process.o(i.ORP)
    ORP                                      0x08002cb1   Thumb Code   160  plc_process.o(i.ORP)
    i.OUT                                    0x08002d60   Section        0  plc_process.o(i.OUT)
    i.PC_FORCE_OFF                           0x08002e04   Section        0  plc_com.o(i.PC_FORCE_OFF)
    i.PC_FORCE_ON                            0x08002e48   Section        0  plc_com.o(i.PC_FORCE_ON)
    i.PC_OPTION_PROG                         0x08002e84   Section        0  plc_com.o(i.PC_OPTION_PROG)
    i.PC_READ_PORG                           0x08002f74   Section        0  plc_com.o(i.PC_READ_PORG)
    i.PC_READ_Parameter                      0x08003008   Section        0  plc_com.o(i.PC_READ_Parameter)
    i.PC_READ_byte                           0x080031b0   Section        0  plc_com.o(i.PC_READ_byte)
    i.PC_WRITE_PORG                          0x080031e4   Section        0  plc_com.o(i.PC_WRITE_PORG)
    i.PC_WRITE_Parameter                     0x08003270   Section        0  plc_com.o(i.PC_WRITE_Parameter)
    i.PC_WRITE_byte                          0x080032b8   Section        0  plc_com.o(i.PC_WRITE_byte)
    i.PID                                    0x080032fc   Section        0  plc_process.o(i.PID)
    PID                                      0x080032fd   Thumb Code   216  plc_process.o(i.PID)
    i.PLC_1BIT_State                         0x080033dc   Section        0  plc_com.o(i.PLC_1BIT_State)
    i.PLC_Com_BIT                            0x08003454   Section        0  plc_com.o(i.PLC_Com_BIT)
    PLC_Com_BIT                              0x08003455   Thumb Code   164  plc_com.o(i.PLC_Com_BIT)
    i.PLC_Comm_Byte                          0x080034f8   Section        0  plc_com.o(i.PLC_Comm_Byte)
    i.PLC_DATA_KEEP                          0x080035a0   Section        0  plc_other.o(i.PLC_DATA_KEEP)
    i.PLC_Download                           0x08003624   Section        0  plc_com.o(i.PLC_Download)
    i.PLC_E_Expand                           0x0800364c   Section        0  plc_com.o(i.PLC_E_Expand)
    i.PLC_IO_Refresh                         0x08003694   Section        0  plc_io.o(i.PLC_IO_Refresh)
    i.PLC_IO_config                          0x08003754   Section        0  plc_io.o(i.PLC_IO_config)
    i.PLC_LD_BIT                             0x08003794   Section        0  plc_process.o(i.PLC_LD_BIT)
    PLC_LD_BIT                               0x08003795   Thumb Code    28  plc_process.o(i.PLC_LD_BIT)
    i.PLC_Mode_config                        0x080037b8   Section        0  plc_io.o(i.PLC_Mode_config)
    i.PLC_PL_BIT_TEST                        0x08003814   Section        0  plc_process.o(i.PLC_PL_BIT_TEST)
    PLC_PL_BIT_TEST                          0x08003815   Thumb Code    28  plc_process.o(i.PLC_PL_BIT_TEST)
    i.PLC_PROG_ERROR                         0x08003838   Section        0  plc_process.o(i.PLC_PROG_ERROR)
    i.PLC_PowerUpReset                       0x0800388c   Section        0  plc_other.o(i.PLC_PowerUpReset)
    i.PLC_ProInstructParse                   0x08003910   Section        0  plc_process.o(i.PLC_ProInstructParse)
    i.PLC_Timer                              0x08003c18   Section        0  plc_timer.o(i.PLC_Timer)
    i.PLC_Upload                             0x08003c64   Section        0  plc_com.o(i.PLC_Upload)
    i.PLC_X_config                           0x08003ce0   Section        0  plc_io.o(i.PLC_X_config)
    i.PLC_Y_config                           0x08003d54   Section        0  plc_io.o(i.PLC_Y_config)
    i.PLSY                                   0x08003dac   Section        0  plc_process.o(i.PLSY)
    i.PWR_BackupAccessCmd                    0x08003f24   Section        0  stm32f10x_pwr.o(i.PWR_BackupAccessCmd)
    i.Process_switch                         0x08003f30   Section        0  plc_com.o(i.Process_switch)
    i.RCC_AHBPeriphClockCmd                  0x08003fcc   Section        0  stm32f10x_rcc.o(i.RCC_AHBPeriphClockCmd)
    i.RCC_APB1PeriphClockCmd                 0x08003fe4   Section        0  stm32f10x_rcc.o(i.RCC_APB1PeriphClockCmd)
    i.RCC_APB1PeriphResetCmd                 0x08003ffc   Section        0  stm32f10x_rcc.o(i.RCC_APB1PeriphResetCmd)
    i.RCC_APB2PeriphClockCmd                 0x08004014   Section        0  stm32f10x_rcc.o(i.RCC_APB2PeriphClockCmd)
    i.RCC_APB2PeriphResetCmd                 0x0800402c   Section        0  stm32f10x_rcc.o(i.RCC_APB2PeriphResetCmd)
    i.RCC_GetClocksFreq                      0x08004044   Section        0  stm32f10x_rcc.o(i.RCC_GetClocksFreq)
    i.READ_PLC_ROM                           0x080040d8   Section        0  plc_com.o(i.READ_PLC_ROM)
    i.RESET_C                                0x08004110   Section        0  plc_process.o(i.RESET_C)
    RESET_C                                  0x08004111   Thumb Code    74  plc_process.o(i.RESET_C)
    i.RST                                    0x0800416c   Section        0  plc_process.o(i.RST)
    RST                                      0x0800416d   Thumb Code    30  plc_process.o(i.RST)
    i.RST_D                                  0x08004198   Section        0  plc_process.o(i.RST_D)
    RST_D                                    0x08004199   Thumb Code    92  plc_process.o(i.RST_D)
    i.RST_T_C                                0x080041fc   Section        0  plc_process.o(i.RST_T_C)
    RST_T_C                                  0x080041fd   Thumb Code    56  plc_process.o(i.RST_T_C)
    i.RST_Y                                  0x08004238   Section        0  plc_process.o(i.RST_Y)
    i.RTC_EnterConfigMode                    0x0800424c   Section        0  stm32f10x_rtc.o(i.RTC_EnterConfigMode)
    i.RTC_ExitConfigMode                     0x0800425c   Section        0  stm32f10x_rtc.o(i.RTC_ExitConfigMode)
    i.RTC_Get                                0x0800426c   Section        0  rtc.o(i.RTC_Get)
    i.RTC_GetCounter                         0x080043a0   Section        0  stm32f10x_rtc.o(i.RTC_GetCounter)
    i.RTC_Get_Week                           0x080043b4   Section        0  rtc.o(i.RTC_Get_Week)
    i.RTC_Set                                0x0800440c   Section        0  rtc.o(i.RTC_Set)
    i.RTC_SetCounter                         0x080044d0   Section        0  stm32f10x_rtc.o(i.RTC_SetCounter)
    i.RTC_WaitForLastTask                    0x080044f0   Section        0  stm32f10x_rtc.o(i.RTC_WaitForLastTask)
    i.Read_data                              0x08004500   Section        0  plc_other.o(i.Read_data)
    i.SMOV                                   0x08004538   Section        0  plc_process.o(i.SMOV)
    SMOV                                     0x08004539   Thumb Code   166  plc_process.o(i.SMOV)
    i.STL                                    0x080045e8   Section        0  plc_process.o(i.STL)
    i.SetSysClockTo72                        0x08004624   Section        0  system_stm32f10x.o(i.SetSysClockTo72)
    SetSysClockTo72                          0x08004625   Thumb Code   160  system_stm32f10x.o(i.SetSysClockTo72)
    i.SystemInit                             0x080046cc   Section        0  system_stm32f10x.o(i.SystemInit)
    i.TADD                                   0x0800471c   Section        0  plc_process.o(i.TADD)
    TADD                                     0x0800471d   Thumb Code    72  plc_process.o(i.TADD)
    i.TCMP                                   0x0800476c   Section        0  plc_process.o(i.TCMP)
    TCMP                                     0x0800476d   Thumb Code   270  plc_process.o(i.TCMP)
    i.TIM2_IRQHandler                        0x0800488c   Section        0  plc_timer.o(i.TIM2_IRQHandler)
    i.TIM3_IRQHandler                        0x080049ac   Section        0  pulse.o(i.TIM3_IRQHandler)
    i.TIM_ClearFlag                          0x08004a04   Section        0  stm32f10x_tim.o(i.TIM_ClearFlag)
    i.TIM_ClearITPendingBit                  0x08004a0a   Section        0  stm32f10x_tim.o(i.TIM_ClearITPendingBit)
    i.TIM_Cmd                                0x08004a10   Section        0  stm32f10x_tim.o(i.TIM_Cmd)
    i.TIM_DeInit                             0x08004a24   Section        0  stm32f10x_tim.o(i.TIM_DeInit)
    i.TIM_ITConfig                           0x08004b94   Section        0  stm32f10x_tim.o(i.TIM_ITConfig)
    i.TIM_TimeBaseInit                       0x08004ba4   Section        0  stm32f10x_tim.o(i.TIM_TimeBaseInit)
    i.TRD                                    0x08004c40   Section        0  plc_process.o(i.TRD)
    TRD                                      0x08004c41   Thumb Code    74  plc_process.o(i.TRD)
    i.TSUB                                   0x08004c94   Section        0  plc_process.o(i.TSUB)
    TSUB                                     0x08004c95   Thumb Code    72  plc_process.o(i.TSUB)
    i.TWR                                    0x08004ce4   Section        0  plc_process.o(i.TWR)
    TWR                                      0x08004ce5   Thumb Code    52  plc_process.o(i.TWR)
    i.TX_Process                             0x08004d20   Section        0  plc_com.o(i.TX_Process)
    i.TZCP                                   0x08004d48   Section        0  plc_process.o(i.TZCP)
    TZCP                                     0x08004d49   Thumb Code   300  plc_process.o(i.TZCP)
    i.T_100MS                                0x08004e84   Section        0  plc_timer.o(i.T_100MS)
    i.T_10MS                                 0x08004ef4   Section        0  plc_timer.o(i.T_10MS)
    i.T_1MS                                  0x08004f6c   Section        0  plc_timer.o(i.T_1MS)
    i.T_H100MS                               0x08004fdc   Section        0  plc_timer.o(i.T_H100MS)
    i.T_given_value_D                        0x0800504c   Section        0  plc_process.o(i.T_given_value_D)
    T_given_value_D                          0x0800504d   Thumb Code   112  plc_process.o(i.T_given_value_D)
    i.USART1_Configuration                   0x080050c4   Section        0  plc_com.o(i.USART1_Configuration)
    i.USART1_IRQHandler                      0x08005184   Section        0  plc_com.o(i.USART1_IRQHandler)
    i.USART_ClearITPendingBit                0x08005270   Section        0  stm32f10x_usart.o(i.USART_ClearITPendingBit)
    i.USART_Cmd                              0x0800527c   Section        0  stm32f10x_usart.o(i.USART_Cmd)
    i.USART_DMACmd                           0x08005290   Section        0  stm32f10x_usart.o(i.USART_DMACmd)
    i.USART_GetFlagStatus                    0x080052a0   Section        0  stm32f10x_usart.o(i.USART_GetFlagStatus)
    i.USART_GetITStatus                      0x080052ae   Section        0  stm32f10x_usart.o(i.USART_GetITStatus)
    i.USART_ITConfig                         0x080052ec   Section        0  stm32f10x_usart.o(i.USART_ITConfig)
    i.USART_Init                             0x0800531c   Section        0  stm32f10x_usart.o(i.USART_Init)
    i.USART_ReceiveData                      0x080053c8   Section        0  stm32f10x_usart.o(i.USART_ReceiveData)
    i.V0_V3                                  0x080053d0   Section        0  plc_process.o(i.V0_V3)
    i.V4_V7                                  0x08005404   Section        0  plc_process.o(i.V4_V7)
    i.X_filter                               0x08005438   Section        0  plc_io.o(i.X_filter)
    i.Z0_Z3                                  0x080057a4   Section        0  plc_process.o(i.Z0_Z3)
    i.Z4_Z7                                  0x080057d8   Section        0  plc_process.o(i.Z4_Z7)
    i.ZCP                                    0x0800580c   Section        0  plc_process.o(i.ZCP)
    ZCP                                      0x0800580d   Thumb Code   208  plc_process.o(i.ZCP)
    i.__ARM_fpclassify                       0x080058e8   Section        0  fpclassify.o(i.__ARM_fpclassify)
    i.__ieee754_rem_pio2                     0x08005910   Section        0  rred.o(i.__ieee754_rem_pio2)
    i.__kernel_cos                           0x08005c98   Section        0  cos_i.o(i.__kernel_cos)
    i.__kernel_poly                          0x08005d94   Section        0  poly.o(i.__kernel_poly)
    i.__kernel_sin                           0x08005e40   Section        0  sin_i.o(i.__kernel_sin)
    i.__mathlib_dbl_infnan                   0x08005f2c   Section        0  dunder.o(i.__mathlib_dbl_infnan)
    i.__mathlib_dbl_invalid                  0x08005f32   Section        0  dunder.o(i.__mathlib_dbl_invalid)
    i.__mathlib_dbl_underflow                0x08005f40   Section        0  dunder.o(i.__mathlib_dbl_underflow)
    i.addr_value                             0x08005f50   Section        0  plc_process.o(i.addr_value)
    addr_value                               0x08005f51   Thumb Code    60  plc_process.o(i.addr_value)
    i.all_flash_lock                         0x08005f90   Section        0  plc_com.o(i.all_flash_lock)
    i.all_flash_unlock                       0x08005fbc   Section        0  plc_com.o(i.all_flash_unlock)
    i.expand_AND                             0x08005fdc   Section        0  plc_process.o(i.expand_AND)
    x$fpl$usenofp                            0x08005ff8   Section        0  usenofp.o(x$fpl$usenofp)
    .ARM.__AT_0x08006000                     0x08006000   Section    34000  plc_com.o(.ARM.__AT_0x08006000)
    i.__kernel_tan                           0x0800e4d0   Section        0  tan_i.o(i.__kernel_tan)
    i.addr_value_prog                        0x0800e74c   Section        0  plc_process.o(i.addr_value_prog)
    addr_value_prog                          0x0800e74d   Thumb Code   232  plc_process.o(i.addr_value_prog)
    i.amount                                 0x0800e848   Section        0  plc_process.o(i.amount)
    amount                                   0x0800e849   Thumb Code    72  plc_process.o(i.amount)
    i.b2g                                    0x0800e89c   Section        0  plc_process.o(i.b2g)
    i.backup_block                           0x0800e8d4   Section        0  plc_com.o(i.backup_block)
    i.big                                    0x0800e904   Section        0  plc_process.o(i.big)
    big                                      0x0800e905   Thumb Code    72  plc_process.o(i.big)
    i.big_amount                             0x0800e958   Section        0  plc_process.o(i.big_amount)
    big_amount                               0x0800e959   Thumb Code    72  plc_process.o(i.big_amount)
    i.check                                  0x0800e9ac   Section        0  plc_com.o(i.check)
    i.cos                                    0x0800e9d4   Section        0  cos.o(i.cos)
    i.cos_float_value                        0x0800ea70   Section        0  plc_process.o(i.cos_float_value)
    cos_float_value                          0x0800ea71   Thumb Code   156  plc_process.o(i.cos_float_value)
    i.cos_u32_value                          0x0800eb18   Section        0  plc_process.o(i.cos_u32_value)
    cos_u32_value                            0x0800eb19   Thumb Code  1268  plc_process.o(i.cos_u32_value)
    i.cos_value                              0x0800f010   Section        0  plc_process.o(i.cos_value)
    cos_value                                0x0800f011   Thumb Code  1182  plc_process.o(i.cos_value)
    i.data_init                              0x0800f4b0   Section        0  plc_com.o(i.data_init)
    i.disable_C_D                            0x0800f510   Section        0  plc_process.o(i.disable_C_D)
    disable_C_D                              0x0800f511   Thumb Code   148  plc_process.o(i.disable_C_D)
    i.disable_C_K                            0x0800f5b8   Section        0  plc_process.o(i.disable_C_K)
    disable_C_K                              0x0800f5b9   Thumb Code   126  plc_process.o(i.disable_C_K)
    i.disable_T                              0x0800f64c   Section        0  plc_process.o(i.disable_T)
    disable_T                                0x0800f64d   Thumb Code    34  plc_process.o(i.disable_T)
    i.enable_C_D                             0x0800f674   Section        0  plc_process.o(i.enable_C_D)
    enable_C_D                               0x0800f675   Thumb Code   232  plc_process.o(i.enable_C_D)
    i.enable_C_K                             0x0800f770   Section        0  plc_process.o(i.enable_C_K)
    enable_C_K                               0x0800f771   Thumb Code   192  plc_process.o(i.enable_C_K)
    i.enable_T_K                             0x0800f844   Section        0  plc_process.o(i.enable_T_K)
    enable_T_K                               0x0800f845   Thumb Code    54  plc_process.o(i.enable_T_K)
    i.expand_ANI                             0x0800f884   Section        0  plc_process.o(i.expand_ANI)
    i.expand_LD                              0x0800f8a0   Section        0  plc_process.o(i.expand_LD)
    i.expand_LDI                             0x0800f8bc   Section        0  plc_process.o(i.expand_LDI)
    i.expand_OR                              0x0800f8d8   Section        0  plc_process.o(i.expand_OR)
    i.expand_ORI                             0x0800f8f4   Section        0  plc_process.o(i.expand_ORI)
    i.expand_OUT                             0x0800f910   Section        0  plc_process.o(i.expand_OUT)
    i.expand_RST                             0x0800f92c   Section        0  plc_process.o(i.expand_RST)
    i.expand_SET                             0x0800f948   Section        0  plc_process.o(i.expand_SET)
    i.extend_function                        0x0800f964   Section        0  plc_process.o(i.extend_function)
    extend_function                          0x0800f965   Thumb Code  3408  plc_process.o(i.extend_function)
    i.filter                                 0x080106b4   Section        0  adc.o(i.filter)
    i.find_data                              0x080106f8   Section        0  plc_com.o(i.find_data)
    find_data                                0x080106f9   Thumb Code    58  plc_com.o(i.find_data)
    i.find_data_address                      0x08010738   Section        0  plc_com.o(i.find_data_address)
    find_data_address                        0x08010739   Thumb Code   112  plc_com.o(i.find_data_address)
    i.find_end                               0x080107b4   Section        0  plc_com.o(i.find_end)
    i.find_p                                 0x080107d4   Section        0  plc_process.o(i.find_p)
    i.find_toend                             0x08010810   Section        0  plc_process.o(i.find_toend)
    i.g2b                                    0x0801083c   Section        0  plc_process.o(i.g2b)
    i.less                                   0x08010878   Section        0  plc_process.o(i.less)
    less                                     0x08010879   Thumb Code    72  plc_process.o(i.less)
    i.main                                   0x080108cc   Section        0  main.o(i.main)
    i.mov_flash                              0x08010954   Section        0  plc_com.o(i.mov_flash)
    mov_flash                                0x08010955   Thumb Code   224  plc_com.o(i.mov_flash)
    i.no_amount                              0x08010a44   Section        0  plc_process.o(i.no_amount)
    no_amount                                0x08010a45   Thumb Code    72  plc_process.o(i.no_amount)
    i.online_write_data                      0x08010a98   Section        0  plc_com.o(i.online_write_data)
    i.other_function                         0x08010bd8   Section        0  plc_process.o(i.other_function)
    other_function                           0x08010bd9   Thumb Code    96  plc_process.o(i.other_function)
    i.read_other_data                        0x08010c3c   Section        0  plc_com.o(i.read_other_data)
    i.read_plc_tyte                          0x08010cc8   Section        0  plc_com.o(i.read_plc_tyte)
    i.setup_HL                               0x08010d48   Section        0  plc_com.o(i.setup_HL)
    i.setup_LH                               0x08010d60   Section        0  plc_com.o(i.setup_LH)
    i.sin                                    0x08010d78   Section        0  sin.o(i.sin)
    i.sqrt                                   0x08010e18   Section        0  sqrt.o(i.sqrt)
    i.switch_read_data                       0x08010e64   Section        0  plc_com.o(i.switch_read_data)
    i.tan                                    0x08010ea4   Section        0  tan.o(i.tan)
    i.target                                 0x08010f08   Section        0  plc_process.o(i.target)
    target                                   0x08010f09   Thumb Code   632  plc_process.o(i.target)
    i.timer_disble                           0x0801118c   Section        0  plc_timer.o(i.timer_disble)
    i.timer_enable                           0x08011204   Section        0  plc_timer.o(i.timer_enable)
    i.usart                                  0x0801128c   Section        0  plc_com.o(i.usart)
    i.write_block                            0x080112bc   Section        0  plc_com.o(i.write_block)
    i.write_data                             0x08011318   Section        0  plc_other.o(i.write_data)
    x$fpl$d2f                                0x08011368   Section       98  d2f.o(x$fpl$d2f)
    x$fpl$dadd                               0x080113cc   Section      336  daddsub_clz.o(x$fpl$dadd)
    _dadd1                                   0x080113dd   Thumb Code     0  daddsub_clz.o(x$fpl$dadd)
    x$fpl$dcheck1                            0x0801151c   Section       16  dcheck1.o(x$fpl$dcheck1)
    x$fpl$ddiv                               0x0801152c   Section      688  ddiv.o(x$fpl$ddiv)
    ddiv_entry                               0x08011533   Thumb Code     0  ddiv.o(x$fpl$ddiv)
    x$fpl$dfix                               0x080117dc   Section       94  dfix.o(x$fpl$dfix)
    x$fpl$dfixu                              0x0801183c   Section       90  dfixu.o(x$fpl$dfixu)
    x$fpl$dflt                               0x08011896   Section       46  dflt_clz.o(x$fpl$dflt)
    x$fpl$dfltu                              0x080118c4   Section       38  dflt_clz.o(x$fpl$dfltu)
    x$fpl$dmul                               0x080118ec   Section      340  dmul.o(x$fpl$dmul)
    x$fpl$dnaninf                            0x08011a40   Section      156  dnaninf.o(x$fpl$dnaninf)
    x$fpl$dretinf                            0x08011adc   Section       12  dretinf.o(x$fpl$dretinf)
    x$fpl$drsb                               0x08011ae8   Section       22  daddsub_clz.o(x$fpl$drsb)
    x$fpl$dsqrt                              0x08011b00   Section      460  dsqrt_noumaal.o(x$fpl$dsqrt)
    x$fpl$dsub                               0x08011ccc   Section      468  daddsub_clz.o(x$fpl$dsub)
    _dsub1                                   0x08011cdd   Thumb Code     0  daddsub_clz.o(x$fpl$dsub)
    x$fpl$f2d                                0x08011ea0   Section       86  f2d.o(x$fpl$f2d)
    x$fpl$fadd                               0x08011ef8   Section      196  faddsub_clz.o(x$fpl$fadd)
    _fadd1                                   0x08011f07   Thumb Code     0  faddsub_clz.o(x$fpl$fadd)
    x$fpl$fcmpinf                            0x08011fbc   Section       24  fcmpi.o(x$fpl$fcmpinf)
    x$fpl$fdiv                               0x08011fd4   Section      388  fdiv.o(x$fpl$fdiv)
    _fdiv1                                   0x08011fd5   Thumb Code     0  fdiv.o(x$fpl$fdiv)
    x$fpl$feqf                               0x08012158   Section      104  feqf.o(x$fpl$feqf)
    x$fpl$ffixu                              0x080121c0   Section       62  ffixu.o(x$fpl$ffixu)
    x$fpl$fflt                               0x08012200   Section       48  fflt_clz.o(x$fpl$fflt)
    x$fpl$fleqf                              0x08012230   Section      104  fleqf.o(x$fpl$fleqf)
    x$fpl$fmul                               0x08012298   Section      258  fmul.o(x$fpl$fmul)
    x$fpl$fnaninf                            0x0801239a   Section      140  fnaninf.o(x$fpl$fnaninf)
    x$fpl$fretinf                            0x08012426   Section       10  fretinf.o(x$fpl$fretinf)
    x$fpl$frleqf                             0x08012430   Section       98  frleqf.o(x$fpl$frleqf)
    x$fpl$fsub                               0x08012494   Section      234  faddsub_clz.o(x$fpl$fsub)
    _fsub1                                   0x080124a3   Thumb Code     0  faddsub_clz.o(x$fpl$fsub)
    x$fpl$retnan                             0x0801257e   Section      100  retnan.o(x$fpl$retnan)
    x$fpl$scalbn                             0x080125e2   Section       92  scalbn.o(x$fpl$scalbn)
    x$fpl$trapveneer                         0x0801263e   Section       48  trapv.o(x$fpl$trapveneer)
    .constdata                               0x0801266e   Section      609  plc_com.o(.constdata)
    .constdata                               0x080128cf   Section       12  rtc.o(.constdata)
    .constdata                               0x080128db   Section       16  plc_process.o(.constdata)
    .constdata                               0x080128f0   Section       48  cos_i.o(.constdata)
    C                                        0x080128f0   Data          48  cos_i.o(.constdata)
    .constdata                               0x08012920   Section      200  rred.o(.constdata)
    pio2s                                    0x08012920   Data          48  rred.o(.constdata)
    twooverpi                                0x08012950   Data         152  rred.o(.constdata)
    .constdata                               0x080129e8   Section       40  sin_i.o(.constdata)
    S                                        0x080129e8   Data          40  sin_i.o(.constdata)
    .constdata                               0x08012a10   Section       96  tan_i.o(.constdata)
    Todd                                     0x08012a10   Data          48  tan_i.o(.constdata)
    Teven                                    0x08012a40   Data          48  tan_i.o(.constdata)
    .data                                    0x20000000   Section       20  stm32f10x_rcc.o(.data)
    ADCPrescTable                            0x20000000   Data           4  stm32f10x_rcc.o(.data)
    APBAHBPrescTable                         0x20000004   Data          16  stm32f10x_rcc.o(.data)
    .data                                    0x20000014   Section        2  main.o(.data)
    .data                                    0x20000016   Section       20  plc_com.o(.data)
    Flag_Uart_Send                           0x20000016   Data           1  plc_com.o(.data)
    offset                                   0x20000017   Data           1  plc_com.o(.data)
    sum                                      0x20000018   Data           1  plc_com.o(.data)
    temp                                     0x2000001c   Data           2  plc_com.o(.data)
    Size                                     0x2000001e   Data           2  plc_com.o(.data)
    .data                                    0x2000002a   Section        1  pulse.o(.data)
    .data                                    0x2000002c   Section        2  pulse.o(.data)
    .data                                    0x2000002e   Section       15  rtc.o(.data)
    daycnt                                   0x2000002e   Data           2  rtc.o(.data)
    .data                                    0x20000040   Section      136  plc_process.o(.data)
    temp                                     0x20000041   Data           1  plc_process.o(.data)
    addr                                     0x20000042   Data           1  plc_process.o(.data)
    puls                                     0x20000043   Data           1  plc_process.o(.data)
    PLC_ACC_BIT                              0x20000044   Data           1  plc_process.o(.data)
    PLC_MPS_BIT                              0x20000045   Data           1  plc_process.o(.data)
    T_number                                 0x20000046   Data           1  plc_process.o(.data)
    C_number                                 0x20000047   Data           1  plc_process.o(.data)
    PLC_STL_Status                           0x2000004b   Data           1  plc_process.o(.data)
    PLC_STL_CMD                              0x2000004c   Data           1  plc_process.o(.data)
    PLC_STL_Count                            0x2000004d   Data           1  plc_process.o(.data)
    LL_BIT                                   0x20000050   Data           2  plc_process.o(.data)
    JOB_ADDR                                 0x20000052   Data           2  plc_process.o(.data)
    temp                                     0x20000054   Data           2  plc_process.o(.data)
    temp1                                    0x20000056   Data           2  plc_process.o(.data)
    temp                                     0x20000058   Data           2  plc_process.o(.data)
    T_value                                  0x2000005a   Data           2  plc_process.o(.data)
    C_value                                  0x2000005c   Data           2  plc_process.o(.data)
    PLC_STL_Addr                             0x2000005e   Data           2  plc_process.o(.data)
    p_data                                   0x20000060   Data           4  plc_process.o(.data)
    temp                                     0x20000064   Data           4  plc_process.o(.data)
    temp1                                    0x20000068   Data           4  plc_process.o(.data)
    temp2                                    0x2000006c   Data           4  plc_process.o(.data)
    temp1                                    0x20000070   Data           4  plc_process.o(.data)
    temp2                                    0x20000074   Data           4  plc_process.o(.data)
    temp1                                    0x20000078   Data           4  plc_process.o(.data)
    temp2                                    0x2000007c   Data           4  plc_process.o(.data)
    p_data                                   0x20000080   Data           4  plc_process.o(.data)
    p_data                                   0x20000084   Data           4  plc_process.o(.data)
    p_data                                   0x20000088   Data           4  plc_process.o(.data)
    p_data                                   0x2000008c   Data           4  plc_process.o(.data)
    p_data                                   0x20000090   Data           4  plc_process.o(.data)
    PLC_Addr                                 0x20000094   Data           4  plc_process.o(.data)
    PLC_Err                                  0x20000098   Data           4  plc_process.o(.data)
    mov_d_addr                               0x2000009c   Data           4  plc_process.o(.data)
    MOV_DATA_64BIT                           0x200000b8   Data           8  plc_process.o(.data)
    .data                                    0x200000c8   Section       16  plc_timer.o(.data)
    all_clock                                0x200000c8   Data           1  plc_timer.o(.data)
    minute                                   0x200000ca   Data           2  plc_timer.o(.data)
    .data                                    0x200000d8   Section        1  plc_io.o(.data)
    .bss                                     0x200000dc   Section     1732  plc_process.o(.bss)
    PLC_P_Addr                               0x200000dc   Data         516  plc_process.o(.bss)
    p_save                                   0x200002e0   Data         516  plc_process.o(.bss)
    PLC_STL_Coil                             0x200005a0   Data         512  plc_process.o(.bss)
    .bss                                     0x200007a0   Section     1200  adc.o(.bss)
    .bss                                     0x20000c50   Section       33  plc_io.o(.bss)
    x_buffer                                 0x20000c50   Data          33  plc_io.o(.bss)
    .bss                                     0x20000c74   Section       96  libspace.o(.bss)
    HEAP                                     0x20000cd8   Section      512  startup_stm32f10x_hd.o(HEAP)
    Heap_Mem                                 0x20000cd8   Data         512  startup_stm32f10x_hd.o(HEAP)
    .ARM.__AT_0x20001000                     0x20001000   Section    24200  plc_com.o(.ARM.__AT_0x20001000)
    .bss                                     0x20006e88   Section     7320  plc_com.o(.bss)
    STACK                                    0x20008b20   Section     1024  startup_stm32f10x_hd.o(STACK)
    Stack_Mem                                0x20008b20   Data        1024  startup_stm32f10x_hd.o(STACK)
    __initial_sp                             0x20008f20   Data           0  startup_stm32f10x_hd.o(STACK)

    Global Symbols

    Symbol Name                              Value     Ov Type        Size  Object(Section)

    BuildAttributes$$THM_ISAv4$P$D$K$B$S$PE$A:L22UL41UL21$X:L11$S22US41US21$IEEE1$IW$USESV6$~STKCKD$USESV7$~SHL$OTIME$ROPI$IEEEX$EBA8$UX$STANDARDLIB$REQ8$PRES8$EABIv2 0x00000000   Number         0  anon$$obj.o ABSOLUTE
    __ARM_use_no_argv                        0x00000000   Number         0  main.o ABSOLUTE
    __ARM_exceptions_init                     - Undefined Weak Reference
    __alloca_initialize                       - Undefined Weak Reference
    __arm_preinit_                            - Undefined Weak Reference
    __cpp_initialize__aeabi_                  - Undefined Weak Reference
    __cxa_finalize                            - Undefined Weak Reference
    __rt_locale                               - Undefined Weak Reference
    __sigvec_lookup                           - Undefined Weak Reference
    _atexit_init                              - Undefined Weak Reference
    _call_atexit_fns                          - Undefined Weak Reference
    _clock_init                               - Undefined Weak Reference
    _fp_trap_init                             - Undefined Weak Reference
    _fp_trap_shutdown                         - Undefined Weak Reference
    _get_lc_collate                           - Undefined Weak Reference
    _get_lc_ctype                             - Undefined Weak Reference
    _get_lc_monetary                          - Undefined Weak Reference
    _get_lc_numeric                           - Undefined Weak Reference
    _get_lc_time                              - Undefined Weak Reference
    _getenv_init                              - Undefined Weak Reference
    _handle_redirection                       - Undefined Weak Reference
    _init_alloc                               - Undefined Weak Reference
    _init_user_alloc                          - Undefined Weak Reference
    _initio                                   - Undefined Weak Reference
    _rand_init                                - Undefined Weak Reference
    _signal_finish                            - Undefined Weak Reference
    _signal_init                              - Undefined Weak Reference
    _terminate_alloc                          - Undefined Weak Reference
    _terminate_user_alloc                     - Undefined Weak Reference
    _terminateio                              - Undefined Weak Reference
    __Vectors_Size                           0x00000130   Number         0  startup_stm32f10x_hd.o ABSOLUTE
    __Vectors                                0x08000000   Data           4  startup_stm32f10x_hd.o(RESET)
    __Vectors_End                            0x08000130   Data           0  startup_stm32f10x_hd.o(RESET)
    __main                                   0x08000131   Thumb Code     8  __main.o(!!!main)
    __scatterload                            0x08000139   Thumb Code     0  __scatter.o(!!!scatter)
    __scatterload_rt2                        0x08000139   Thumb Code    44  __scatter.o(!!!scatter)
    __scatterload_rt2_thumb_only             0x08000139   Thumb Code     0  __scatter.o(!!!scatter)
    __scatterload_null                       0x08000147   Thumb Code     0  __scatter.o(!!!scatter)
    __scatterload_copy                       0x0800016d   Thumb Code    26  __scatter_copy.o(!!handler_copy)
    __scatterload_zeroinit                   0x08000189   Thumb Code    28  __scatter_zi.o(!!handler_zi)
    __rt_lib_init                            0x080001a5   Thumb Code     0  libinit.o(.ARM.Collect$$libinit$$00000000)
    __rt_lib_init_alloca_1                   0x080001a7   Thumb Code     0  libinit2.o(.ARM.Collect$$libinit$$0000002E)
    __rt_lib_init_argv_1                     0x080001a7   Thumb Code     0  libinit2.o(.ARM.Collect$$libinit$$0000002C)
    __rt_lib_init_atexit_1                   0x080001a7   Thumb Code     0  libinit2.o(.ARM.Collect$$libinit$$0000001B)
    __rt_lib_init_clock_1                    0x080001a7   Thumb Code     0  libinit2.o(.ARM.Collect$$libinit$$00000021)
    __rt_lib_init_cpp_1                      0x080001a7   Thumb Code     0  libinit2.o(.ARM.Collect$$libinit$$00000032)
    __rt_lib_init_exceptions_1               0x080001a7   Thumb Code     0  libinit2.o(.ARM.Collect$$libinit$$00000030)
    __rt_lib_init_fp_1                       0x080001a7   Thumb Code     0  libinit2.o(.ARM.Collect$$libinit$$00000002)
    __rt_lib_init_fp_trap_1                  0x080001a7   Thumb Code     0  libinit2.o(.ARM.Collect$$libinit$$0000001F)
    __rt_lib_init_getenv_1                   0x080001a7   Thumb Code     0  libinit2.o(.ARM.Collect$$libinit$$00000023)
    __rt_lib_init_heap_1                     0x080001a7   Thumb Code     0  libinit2.o(.ARM.Collect$$libinit$$0000000A)
    __rt_lib_init_lc_collate_1               0x080001a7   Thumb Code     0  libinit2.o(.ARM.Collect$$libinit$$00000011)
    __rt_lib_init_lc_ctype_1                 0x080001a7   Thumb Code     0  libinit2.o(.ARM.Collect$$libinit$$00000013)
    __rt_lib_init_lc_monetary_1              0x080001a7   Thumb Code     0  libinit2.o(.ARM.Collect$$libinit$$00000015)
    __rt_lib_init_lc_numeric_1               0x080001a7   Thumb Code     0  libinit2.o(.ARM.Collect$$libinit$$00000017)
    __rt_lib_init_lc_time_1                  0x080001a7   Thumb Code     0  libinit2.o(.ARM.Collect$$libinit$$00000019)
    __rt_lib_init_preinit_1                  0x080001a7   Thumb Code     0  libinit2.o(.ARM.Collect$$libinit$$00000004)
    __rt_lib_init_rand_1                     0x080001a7   Thumb Code     0  libinit2.o(.ARM.Collect$$libinit$$0000000E)
    __rt_lib_init_return                     0x080001a7   Thumb Code     0  libinit2.o(.ARM.Collect$$libinit$$00000033)
    __rt_lib_init_signal_1                   0x080001a7   Thumb Code     0  libinit2.o(.ARM.Collect$$libinit$$0000001D)
    __rt_lib_init_stdio_1                    0x080001a7   Thumb Code     0  libinit2.o(.ARM.Collect$$libinit$$00000025)
    __rt_lib_init_user_alloc_1               0x080001a7   Thumb Code     0  libinit2.o(.ARM.Collect$$libinit$$0000000C)
    __rt_lib_shutdown                        0x080001a9   Thumb Code     0  libshutdown.o(.ARM.Collect$$libshutdown$$00000000)
    __rt_lib_shutdown_fp_trap_1              0x080001ab   Thumb Code     0  libshutdown2.o(.ARM.Collect$$libshutdown$$00000006)
    __rt_lib_shutdown_heap_1                 0x080001ab   Thumb Code     0  libshutdown2.o(.ARM.Collect$$libshutdown$$0000000E)
    __rt_lib_shutdown_return                 0x080001ab   Thumb Code     0  libshutdown2.o(.ARM.Collect$$libshutdown$$0000000F)
    __rt_lib_shutdown_signal_1               0x080001ab   Thumb Code     0  libshutdown2.o(.ARM.Collect$$libshutdown$$00000009)
    __rt_lib_shutdown_stdio_1                0x080001ab   Thumb Code     0  libshutdown2.o(.ARM.Collect$$libshutdown$$00000003)
    __rt_lib_shutdown_user_alloc_1           0x080001ab   Thumb Code     0  libshutdown2.o(.ARM.Collect$$libshutdown$$0000000B)
    __rt_entry                               0x080001ad   Thumb Code     0  __rtentry.o(.ARM.Collect$$rtentry$$00000000)
    __rt_entry_presh_1                       0x080001ad   Thumb Code     0  __rtentry2.o(.ARM.Collect$$rtentry$$00000002)
    __rt_entry_sh                            0x080001ad   Thumb Code     0  __rtentry4.o(.ARM.Collect$$rtentry$$00000004)
    __rt_entry_li                            0x080001b3   Thumb Code     0  __rtentry2.o(.ARM.Collect$$rtentry$$0000000A)
    __rt_entry_postsh_1                      0x080001b3   Thumb Code     0  __rtentry2.o(.ARM.Collect$$rtentry$$00000009)
    __rt_entry_main                          0x080001b7   Thumb Code     0  __rtentry2.o(.ARM.Collect$$rtentry$$0000000D)
    __rt_entry_postli_1                      0x080001b7   Thumb Code     0  __rtentry2.o(.ARM.Collect$$rtentry$$0000000C)
    __rt_exit                                0x080001bf   Thumb Code     0  rtexit.o(.ARM.Collect$$rtexit$$00000000)
    __rt_exit_ls                             0x080001c1   Thumb Code     0  rtexit2.o(.ARM.Collect$$rtexit$$00000003)
    __rt_exit_prels_1                        0x080001c1   Thumb Code     0  rtexit2.o(.ARM.Collect$$rtexit$$00000002)
    __rt_exit_exit                           0x080001c5   Thumb Code     0  rtexit2.o(.ARM.Collect$$rtexit$$00000004)
    Reset_Handler                            0x080001cd   Thumb Code     8  startup_stm32f10x_hd.o(.text)
    NMI_Handler                              0x080001d5   Thumb Code     2  startup_stm32f10x_hd.o(.text)
    HardFault_Handler                        0x080001d7   Thumb Code     2  startup_stm32f10x_hd.o(.text)
    MemManage_Handler                        0x080001d9   Thumb Code     2  startup_stm32f10x_hd.o(.text)
    BusFault_Handler                         0x080001db   Thumb Code     2  startup_stm32f10x_hd.o(.text)
    UsageFault_Handler                       0x080001dd   Thumb Code     2  startup_stm32f10x_hd.o(.text)
    SVC_Handler                              0x080001df   Thumb Code     2  startup_stm32f10x_hd.o(.text)
    DebugMon_Handler                         0x080001e1   Thumb Code     2  startup_stm32f10x_hd.o(.text)
    PendSV_Handler                           0x080001e3   Thumb Code     2  startup_stm32f10x_hd.o(.text)
    SysTick_Handler                          0x080001e5   Thumb Code     2  startup_stm32f10x_hd.o(.text)
    ADC1_2_IRQHandler                        0x080001e7   Thumb Code     0  startup_stm32f10x_hd.o(.text)
    ADC3_IRQHandler                          0x080001e7   Thumb Code     0  startup_stm32f10x_hd.o(.text)
    CAN1_RX1_IRQHandler                      0x080001e7   Thumb Code     0  startup_stm32f10x_hd.o(.text)
    CAN1_SCE_IRQHandler                      0x080001e7   Thumb Code     0  startup_stm32f10x_hd.o(.text)
    DMA1_Channel1_IRQHandler                 0x080001e7   Thumb Code     0  startup_stm32f10x_hd.o(.text)
    DMA1_Channel2_IRQHandler                 0x080001e7   Thumb Code     0  startup_stm32f10x_hd.o(.text)
    DMA1_Channel3_IRQHandler                 0x080001e7   Thumb Code     0  startup_stm32f10x_hd.o(.text)
    DMA1_Channel5_IRQHandler                 0x080001e7   Thumb Code     0  startup_stm32f10x_hd.o(.text)
    DMA1_Channel6_IRQHandler                 0x080001e7   Thumb Code     0  startup_stm32f10x_hd.o(.text)
    DMA1_Channel7_IRQHandler                 0x080001e7   Thumb Code     0  startup_stm32f10x_hd.o(.text)
    DMA2_Channel1_IRQHandler                 0x080001e7   Thumb Code     0  startup_stm32f10x_hd.o(.text)
    DMA2_Channel2_IRQHandler                 0x080001e7   Thumb Code     0  startup_stm32f10x_hd.o(.text)
    DMA2_Channel3_IRQHandler                 0x080001e7   Thumb Code     0  startup_stm32f10x_hd.o(.text)
    DMA2_Channel4_5_IRQHandler               0x080001e7   Thumb Code     0  startup_stm32f10x_hd.o(.text)
    EXTI0_IRQHandler                         0x080001e7   Thumb Code     0  startup_stm32f10x_hd.o(.text)
    EXTI1_IRQHandler                         0x080001e7   Thumb Code     0  startup_stm32f10x_hd.o(.text)
    EXTI2_IRQHandler                         0x080001e7   Thumb Code     0  startup_stm32f10x_hd.o(.text)
    EXTI3_IRQHandler                         0x080001e7   Thumb Code     0  startup_stm32f10x_hd.o(.text)
    EXTI4_IRQHandler                         0x080001e7   Thumb Code     0  startup_stm32f10x_hd.o(.text)
    FLASH_IRQHandler                         0x080001e7   Thumb Code     0  startup_stm32f10x_hd.o(.text)
    FSMC_IRQHandler                          0x080001e7   Thumb Code     0  startup_stm32f10x_hd.o(.text)
    I2C1_ER_IRQHandler                       0x080001e7   Thumb Code     0  startup_stm32f10x_hd.o(.text)
    I2C1_EV_IRQHandler                       0x080001e7   Thumb Code     0  startup_stm32f10x_hd.o(.text)
    I2C2_ER_IRQHandler                       0x080001e7   Thumb Code     0  startup_stm32f10x_hd.o(.text)
    I2C2_EV_IRQHandler                       0x080001e7   Thumb Code     0  startup_stm32f10x_hd.o(.text)
    PVD_IRQHandler                           0x080001e7   Thumb Code     0  startup_stm32f10x_hd.o(.text)
    RCC_IRQHandler                           0x080001e7   Thumb Code     0  startup_stm32f10x_hd.o(.text)
    RTCAlarm_IRQHandler                      0x080001e7   Thumb Code     0  startup_stm32f10x_hd.o(.text)
    RTC_IRQHandler                           0x080001e7   Thumb Code     0  startup_stm32f10x_hd.o(.text)
    SDIO_IRQHandler                          0x080001e7   Thumb Code     0  startup_stm32f10x_hd.o(.text)
    SPI1_IRQHandler                          0x080001e7   Thumb Code     0  startup_stm32f10x_hd.o(.text)
    SPI2_IRQHandler                          0x080001e7   Thumb Code     0  startup_stm32f10x_hd.o(.text)
    SPI3_IRQHandler                          0x080001e7   Thumb Code     0  startup_stm32f10x_hd.o(.text)
    TAMPER_IRQHandler                        0x080001e7   Thumb Code     0  startup_stm32f10x_hd.o(.text)
    TIM1_BRK_IRQHandler                      0x080001e7   Thumb Code     0  startup_stm32f10x_hd.o(.text)
    TIM1_CC_IRQHandler                       0x080001e7   Thumb Code     0  startup_stm32f10x_hd.o(.text)
    TIM1_TRG_COM_IRQHandler                  0x080001e7   Thumb Code     0  startup_stm32f10x_hd.o(.text)
    TIM1_UP_IRQHandler                       0x080001e7   Thumb Code     0  startup_stm32f10x_hd.o(.text)
    TIM4_IRQHandler                          0x080001e7   Thumb Code     0  startup_stm32f10x_hd.o(.text)
    TIM5_IRQHandler                          0x080001e7   Thumb Code     0  startup_stm32f10x_hd.o(.text)
    TIM6_IRQHandler                          0x080001e7   Thumb Code     0  startup_stm32f10x_hd.o(.text)
    TIM7_IRQHandler                          0x080001e7   Thumb Code     0  startup_stm32f10x_hd.o(.text)
    TIM8_BRK_IRQHandler                      0x080001e7   Thumb Code     0  startup_stm32f10x_hd.o(.text)
    TIM8_CC_IRQHandler                       0x080001e7   Thumb Code     0  startup_stm32f10x_hd.o(.text)
    TIM8_TRG_COM_IRQHandler                  0x080001e7   Thumb Code     0  startup_stm32f10x_hd.o(.text)
    TIM8_UP_IRQHandler                       0x080001e7   Thumb Code     0  startup_stm32f10x_hd.o(.text)
    UART4_IRQHandler                         0x080001e7   Thumb Code     0  startup_stm32f10x_hd.o(.text)
    UART5_IRQHandler                         0x080001e7   Thumb Code     0  startup_stm32f10x_hd.o(.text)
    USART2_IRQHandler                        0x080001e7   Thumb Code     0  startup_stm32f10x_hd.o(.text)
    USART3_IRQHandler                        0x080001e7   Thumb Code     0  startup_stm32f10x_hd.o(.text)
    USBWakeUp_IRQHandler                     0x080001e7   Thumb Code     0  startup_stm32f10x_hd.o(.text)
    USB_HP_CAN1_TX_IRQHandler                0x080001e7   Thumb Code     0  startup_stm32f10x_hd.o(.text)
    USB_LP_CAN1_RX0_IRQHandler               0x080001e7   Thumb Code     0  startup_stm32f10x_hd.o(.text)
    WWDG_IRQHandler                          0x080001e7   Thumb Code     0  startup_stm32f10x_hd.o(.text)
    __user_initial_stackheap                 0x080001e9   Thumb Code     0  startup_stm32f10x_hd.o(.text)
    __aeabi_uldivmod                         0x0800020d   Thumb Code     0  lludivv7m.o(.text)
    _ll_udiv                                 0x0800020d   Thumb Code   238  lludivv7m.o(.text)
    __aeabi_llsl                             0x080002fb   Thumb Code     0  llshl.o(.text)
    _ll_shift_l                              0x080002fb   Thumb Code    38  llshl.o(.text)
    __aeabi_llsr                             0x08000321   Thumb Code     0  llushr.o(.text)
    _ll_ushift_r                             0x08000321   Thumb Code    38  llushr.o(.text)
    __use_two_region_memory                  0x08000347   Thumb Code     2  heapauxi.o(.text)
    __rt_heap_escrow$2region                 0x08000349   Thumb Code     2  heapauxi.o(.text)
    __rt_heap_expand$2region                 0x0800034b   Thumb Code     2  heapauxi.o(.text)
    __read_errno                             0x0800034d   Thumb Code    10  _rserrno.o(.text)
    __set_errno                              0x08000357   Thumb Code    12  _rserrno.o(.text)
    __aeabi_errno_addr                       0x08000365   Thumb Code     8  rt_errno_addr_intlibspace.o(.text)
    __errno$intlibspace                      0x08000365   Thumb Code     0  rt_errno_addr_intlibspace.o(.text)
    __rt_errno_addr$intlibspace              0x08000365   Thumb Code     0  rt_errno_addr_intlibspace.o(.text)
    __user_libspace                          0x0800036d   Thumb Code     8  libspace.o(.text)
    __user_perproc_libspace                  0x0800036d   Thumb Code     0  libspace.o(.text)
    __user_perthread_libspace                0x0800036d   Thumb Code     0  libspace.o(.text)
    __user_setup_stackheap                   0x08000375   Thumb Code    74  sys_stackheap_outer.o(.text)
    exit                                     0x080003bf   Thumb Code    12  exit.o(.text)
    _sys_exit                                0x080003cd   Thumb Code     8  sys_exit.o(.text)
    __I$use$semihosting                      0x080003d9   Thumb Code     0  use_no_semi.o(.text)
    __use_no_semihosting_swi                 0x080003d9   Thumb Code     2  use_no_semi.o(.text)
    __semihosting_library_function           0x080003db   Thumb Code     0  indicate_semi.o(.text)
    AND                                      0x0800042d   Thumb Code    42  plc_process.o(i.AND)
    BtoG                                     0x080007d9   Thumb Code    32  plc_process.o(i.BtoG)
    DAC_SetChannel1Data                      0x08000c05   Thumb Code    14  stm32f10x_dac.o(i.DAC_SetChannel1Data)
    DAC_SetChannel2Data                      0x08000c19   Thumb Code    14  stm32f10x_dac.o(i.DAC_SetChannel2Data)
    DAC_SoftwareTriggerCmd                   0x08000c2d   Thumb Code    24  stm32f10x_dac.o(i.DAC_SoftwareTriggerCmd)
    DAC_data                                 0x08000c49   Thumb Code    44  dac.o(i.DAC_data)
    DMA1_Channel4_IRQHandler                 0x08001275   Thumb Code    28  plc_com.o(i.DMA1_Channel4_IRQHandler)
    DMA_DeInit                               0x08001299   Thumb Code   218  stm32f10x_dma.o(i.DMA_DeInit)
    DMA_ITConfig                             0x0800137d   Thumb Code    16  stm32f10x_dma.o(i.DMA_ITConfig)
    DMA_Init                                 0x0800138d   Thumb Code    58  stm32f10x_dma.o(i.DMA_Init)
    DZ0_Z3                                   0x08001421   Thumb Code    66  plc_process.o(i.DZ0_Z3)
    DZ4_Z7                                   0x08001469   Thumb Code    70  plc_process.o(i.DZ4_Z7)
    D_C_T_addr                               0x08001591   Thumb Code   102  plc_process.o(i.D_C_T_addr)
    EPC_FORCE_OFF                            0x08001b01   Thumb Code    48  plc_com.o(i.EPC_FORCE_OFF)
    EPC_FORCE_ON                             0x08001b41   Thumb Code    82  plc_com.o(i.EPC_FORCE_ON)
    EXTI15_10_IRQHandler                     0x08001ba5   Thumb Code   188  exti.o(i.EXTI15_10_IRQHandler)
    EXTI9_5_IRQHandler                       0x08001c79   Thumb Code   276  exti.o(i.EXTI9_5_IRQHandler)
    EXTI_ClearITPendingBit                   0x08001dad   Thumb Code     6  stm32f10x_exti.o(i.EXTI_ClearITPendingBit)
    EXTI_GetITStatus                         0x08001db9   Thumb Code    28  stm32f10x_exti.o(i.EXTI_GetITStatus)
    Encoder_A                                0x08001ea5   Thumb Code    52  encoder.o(i.Encoder_A)
    Encoder_B                                0x08001ee1   Thumb Code    52  encoder.o(i.Encoder_B)
    ErasurePLC                               0x08001f1d   Thumb Code   154  plc_com.o(i.ErasurePLC)
    FLASH_ErasePage                          0x08001fd1   Thumb Code    56  stm32f10x_flash.o(i.FLASH_ErasePage)
    FLASH_GetBank1Status                     0x0800200d   Thumb Code    34  stm32f10x_flash.o(i.FLASH_GetBank1Status)
    FLASH_Lock                               0x08002035   Thumb Code    12  stm32f10x_flash.o(i.FLASH_Lock)
    FLASH_ProgramHalfWord                    0x08002045   Thumb Code    48  stm32f10x_flash.o(i.FLASH_ProgramHalfWord)
    FLASH_Unlock                             0x08002079   Thumb Code    12  stm32f10x_flash.o(i.FLASH_Unlock)
    FLASH_WaitForLastOperation               0x08002091   Thumb Code    34  stm32f10x_flash.o(i.FLASH_WaitForLastOperation)
    GPIO_Init                                0x0800216d   Thumb Code   156  stm32f10x_gpio.o(i.GPIO_Init)
    GPIO_PinRemapConfig                      0x08002209   Thumb Code    82  stm32f10x_gpio.o(i.GPIO_PinRemapConfig)
    GPIO_ReadInputDataBit                    0x08002261   Thumb Code    14  stm32f10x_gpio.o(i.GPIO_ReadInputDataBit)
    GtoB                                     0x0800226f   Thumb Code    32  plc_process.o(i.GtoB)
    Is_Leap_Year                             0x08002329   Thumb Code    38  rtc.o(i.Is_Leap_Year)
    MEAN                                     0x08002735   Thumb Code   184  plc_process.o(i.MEAN)
    NCIC_Confinguration                      0x080029fd   Thumb Code   260  nvic_interrupt.o(i.NCIC_Confinguration)
    NVIC_Init                                0x08002b01   Thumb Code    94  misc.o(i.NVIC_Init)
    NVIC_PriorityGroupConfig                 0x08002b65   Thumb Code    10  misc.o(i.NVIC_PriorityGroupConfig)
    NVIC_SetVectorTable                      0x08002b79   Thumb Code    12  misc.o(i.NVIC_SetVectorTable)
    OUT                                      0x08002d61   Thumb Code   148  plc_process.o(i.OUT)
    PC_FORCE_OFF                             0x08002e05   Thumb Code    56  plc_com.o(i.PC_FORCE_OFF)
    PC_FORCE_ON                              0x08002e49   Thumb Code    48  plc_com.o(i.PC_FORCE_ON)
    PC_OPTION_PROG                           0x08002e85   Thumb Code   222  plc_com.o(i.PC_OPTION_PROG)
    PC_READ_PORG                             0x08002f75   Thumb Code   130  plc_com.o(i.PC_READ_PORG)
    PC_READ_Parameter                        0x08003009   Thumb Code   398  plc_com.o(i.PC_READ_Parameter)
    PC_READ_byte                             0x080031b1   Thumb Code    42  plc_com.o(i.PC_READ_byte)
    PC_WRITE_PORG                            0x080031e5   Thumb Code   124  plc_com.o(i.PC_WRITE_PORG)
    PC_WRITE_Parameter                       0x08003271   Thumb Code    58  plc_com.o(i.PC_WRITE_Parameter)
    PC_WRITE_byte                            0x080032b9   Thumb Code    56  plc_com.o(i.PC_WRITE_byte)
    PLC_1BIT_State                           0x080033dd   Thumb Code   100  plc_com.o(i.PLC_1BIT_State)
    PLC_Comm_Byte                            0x080034f9   Thumb Code   168  plc_com.o(i.PLC_Comm_Byte)
    PLC_DATA_KEEP                            0x080035a1   Thumb Code   122  plc_other.o(i.PLC_DATA_KEEP)
    PLC_Download                             0x08003625   Thumb Code    32  plc_com.o(i.PLC_Download)
    PLC_E_Expand                             0x0800364d   Thumb Code    60  plc_com.o(i.PLC_E_Expand)
    PLC_IO_Refresh                           0x08003695   Thumb Code   174  plc_io.o(i.PLC_IO_Refresh)
    PLC_IO_config                            0x08003755   Thumb Code    54  plc_io.o(i.PLC_IO_config)
    PLC_Mode_config                          0x080037b9   Thumb Code    78  plc_io.o(i.PLC_Mode_config)
    PLC_PROG_ERROR                           0x08003839   Thumb Code    64  plc_process.o(i.PLC_PROG_ERROR)
    PLC_PowerUpReset                         0x0800388d   Thumb Code   122  plc_other.o(i.PLC_PowerUpReset)
    PLC_ProInstructParse                     0x08003911   Thumb Code   746  plc_process.o(i.PLC_ProInstructParse)
    PLC_Timer                                0x08003c19   Thumb Code    74  plc_timer.o(i.PLC_Timer)
    PLC_Upload                               0x08003c65   Thumb Code   108  plc_com.o(i.PLC_Upload)
    PLC_X_config                             0x08003ce1   Thumb Code    98  plc_io.o(i.PLC_X_config)
    PLC_Y_config                             0x08003d55   Thumb Code    76  plc_io.o(i.PLC_Y_config)
    PLSY                                     0x08003dad   Thumb Code   340  plc_process.o(i.PLSY)
    PWR_BackupAccessCmd                      0x08003f25   Thumb Code     6  stm32f10x_pwr.o(i.PWR_BackupAccessCmd)
    Process_switch                           0x08003f31   Thumb Code   144  plc_com.o(i.Process_switch)
    RCC_AHBPeriphClockCmd                    0x08003fcd   Thumb Code    18  stm32f10x_rcc.o(i.RCC_AHBPeriphClockCmd)
    RCC_APB1PeriphClockCmd                   0x08003fe5   Thumb Code    18  stm32f10x_rcc.o(i.RCC_APB1PeriphClockCmd)
    RCC_APB1PeriphResetCmd                   0x08003ffd   Thumb Code    18  stm32f10x_rcc.o(i.RCC_APB1PeriphResetCmd)
    RCC_APB2PeriphClockCmd                   0x08004015   Thumb Code    18  stm32f10x_rcc.o(i.RCC_APB2PeriphClockCmd)
    RCC_APB2PeriphResetCmd                   0x0800402d   Thumb Code    18  stm32f10x_rcc.o(i.RCC_APB2PeriphResetCmd)
    RCC_GetClocksFreq                        0x08004045   Thumb Code   132  stm32f10x_rcc.o(i.RCC_GetClocksFreq)
    READ_PLC_ROM                             0x080040d9   Thumb Code    42  plc_com.o(i.READ_PLC_ROM)
    RST_Y                                    0x08004239   Thumb Code    14  plc_process.o(i.RST_Y)
    RTC_EnterConfigMode                      0x0800424d   Thumb Code    12  stm32f10x_rtc.o(i.RTC_EnterConfigMode)
    RTC_ExitConfigMode                       0x0800425d   Thumb Code    12  stm32f10x_rtc.o(i.RTC_ExitConfigMode)
    RTC_Get                                  0x0800426d   Thumb Code   282  rtc.o(i.RTC_Get)
    RTC_GetCounter                           0x080043a1   Thumb Code    16  stm32f10x_rtc.o(i.RTC_GetCounter)
    RTC_Get_Week                             0x080043b5   Thumb Code    84  rtc.o(i.RTC_Get_Week)
    RTC_Set                                  0x0800440d   Thumb Code   180  rtc.o(i.RTC_Set)
    RTC_SetCounter                           0x080044d1   Thumb Code    26  stm32f10x_rtc.o(i.RTC_SetCounter)
    RTC_WaitForLastTask                      0x080044f1   Thumb Code    10  stm32f10x_rtc.o(i.RTC_WaitForLastTask)
    Read_data                                0x08004501   Thumb Code    48  plc_other.o(i.Read_data)
    STL                                      0x080045e9   Thumb Code    48  plc_process.o(i.STL)
    SystemInit                               0x080046cd   Thumb Code    64  system_stm32f10x.o(i.SystemInit)
    TIM2_IRQHandler                          0x0800488d   Thumb Code   272  plc_timer.o(i.TIM2_IRQHandler)
    TIM3_IRQHandler                          0x080049ad   Thumb Code    66  pulse.o(i.TIM3_IRQHandler)
    TIM_ClearFlag                            0x08004a05   Thumb Code     6  stm32f10x_tim.o(i.TIM_ClearFlag)
    TIM_ClearITPendingBit                    0x08004a0b   Thumb Code     6  stm32f10x_tim.o(i.TIM_ClearITPendingBit)
    TIM_Cmd                                  0x08004a11   Thumb Code    20  stm32f10x_tim.o(i.TIM_Cmd)
    TIM_DeInit                               0x08004a25   Thumb Code   304  stm32f10x_tim.o(i.TIM_DeInit)
    TIM_ITConfig                             0x08004b95   Thumb Code    16  stm32f10x_tim.o(i.TIM_ITConfig)
    TIM_TimeBaseInit                         0x08004ba5   Thumb Code   114  stm32f10x_tim.o(i.TIM_TimeBaseInit)
    TX_Process                               0x08004d21   Thumb Code    30  plc_com.o(i.TX_Process)
    T_100MS                                  0x08004e85   Thumb Code    94  plc_timer.o(i.T_100MS)
    T_10MS                                   0x08004ef5   Thumb Code   102  plc_timer.o(i.T_10MS)
    T_1MS                                    0x08004f6d   Thumb Code    94  plc_timer.o(i.T_1MS)
    T_H100MS                                 0x08004fdd   Thumb Code    94  plc_timer.o(i.T_H100MS)
    USART1_Configuration                     0x080050c5   Thumb Code   176  plc_com.o(i.USART1_Configuration)
    USART1_IRQHandler                        0x08005185   Thumb Code   218  plc_com.o(i.USART1_IRQHandler)
    USART_ClearITPendingBit                  0x08005271   Thumb Code    12  stm32f10x_usart.o(i.USART_ClearITPendingBit)
    USART_Cmd                                0x0800527d   Thumb Code    20  stm32f10x_usart.o(i.USART_Cmd)
    USART_DMACmd                             0x08005291   Thumb Code    16  stm32f10x_usart.o(i.USART_DMACmd)
    USART_GetFlagStatus                      0x080052a1   Thumb Code    14  stm32f10x_usart.o(i.USART_GetFlagStatus)
    USART_GetITStatus                        0x080052af   Thumb Code    62  stm32f10x_usart.o(i.USART_GetITStatus)
    USART_ITConfig                           0x080052ed   Thumb Code    48  stm32f10x_usart.o(i.USART_ITConfig)
    USART_Init                               0x0800531d   Thumb Code   166  stm32f10x_usart.o(i.USART_Init)
    USART_ReceiveData                        0x080053c9   Thumb Code     8  stm32f10x_usart.o(i.USART_ReceiveData)
    V0_V3                                    0x080053d1   Thumb Code    46  plc_process.o(i.V0_V3)
    V4_V7                                    0x08005405   Thumb Code    46  plc_process.o(i.V4_V7)
    X_filter                                 0x08005439   Thumb Code   844  plc_io.o(i.X_filter)
    Z0_Z3                                    0x080057a5   Thumb Code    46  plc_process.o(i.Z0_Z3)
    Z4_Z7                                    0x080057d9   Thumb Code    46  plc_process.o(i.Z4_Z7)
    __ARM_fpclassify                         0x080058e9   Thumb Code    40  fpclassify.o(i.__ARM_fpclassify)
    __ieee754_rem_pio2                       0x08005911   Thumb Code   828  rred.o(i.__ieee754_rem_pio2)
    __kernel_cos                             0x08005c99   Thumb Code   230  cos_i.o(i.__kernel_cos)
    __kernel_poly                            0x08005d95   Thumb Code   170  poly.o(i.__kernel_poly)
    __kernel_sin                             0x08005e41   Thumb Code   224  sin_i.o(i.__kernel_sin)
    __mathlib_dbl_infnan                     0x08005f2d   Thumb Code     6  dunder.o(i.__mathlib_dbl_infnan)
    __mathlib_dbl_invalid                    0x08005f33   Thumb Code    12  dunder.o(i.__mathlib_dbl_invalid)
    __mathlib_dbl_underflow                  0x08005f41   Thumb Code    10  dunder.o(i.__mathlib_dbl_underflow)
    all_flash_lock                           0x08005f91   Thumb Code    36  plc_com.o(i.all_flash_lock)
    all_flash_unlock                         0x08005fbd   Thumb Code    24  plc_com.o(i.all_flash_unlock)
    expand_AND                               0x08005fdd   Thumb Code    24  plc_process.o(i.expand_AND)
    __I$use$fp                               0x08005ff8   Number         0  usenofp.o(x$fpl$usenofp)
    PLC_ROM                                  0x08006000   Data       34000  plc_com.o(.ARM.__AT_0x08006000)
    __kernel_tan                             0x0800e4d1   Thumb Code   586  tan_i.o(i.__kernel_tan)
    b2g                                      0x0800e89d   Thumb Code    54  plc_process.o(i.b2g)
    backup_block                             0x0800e8d5   Thumb Code    38  plc_com.o(i.backup_block)
    check                                    0x0800e9ad   Thumb Code    36  plc_com.o(i.check)
    cos                                      0x0800e9d5   Thumb Code   148  cos.o(i.cos)
    data_init                                0x0800f4b1   Thumb Code    72  plc_com.o(i.data_init)
    expand_ANI                               0x0800f885   Thumb Code    24  plc_process.o(i.expand_ANI)
    expand_LD                                0x0800f8a1   Thumb Code    24  plc_process.o(i.expand_LD)
    expand_LDI                               0x0800f8bd   Thumb Code    24  plc_process.o(i.expand_LDI)
    expand_OR                                0x0800f8d9   Thumb Code    24  plc_process.o(i.expand_OR)
    expand_ORI                               0x0800f8f5   Thumb Code    24  plc_process.o(i.expand_ORI)
    expand_OUT                               0x0800f911   Thumb Code    24  plc_process.o(i.expand_OUT)
    expand_RST                               0x0800f92d   Thumb Code    24  plc_process.o(i.expand_RST)
    expand_SET                               0x0800f949   Thumb Code    24  plc_process.o(i.expand_SET)
    filter                                   0x080106b5   Thumb Code    60  adc.o(i.filter)
    find_end                                 0x080107b5   Thumb Code    22  plc_com.o(i.find_end)
    find_p                                   0x080107d5   Thumb Code    48  plc_process.o(i.find_p)
    find_toend                               0x08010811   Thumb Code    34  plc_process.o(i.find_toend)
    g2b                                      0x0801083d   Thumb Code    60  plc_process.o(i.g2b)
    main                                     0x080108cd   Thumb Code   116  main.o(i.main)
    online_write_data                        0x08010a99   Thumb Code   298  plc_com.o(i.online_write_data)
    read_other_data                          0x08010c3d   Thumb Code   124  plc_com.o(i.read_other_data)
    read_plc_tyte                            0x08010cc9   Thumb Code   112  plc_com.o(i.read_plc_tyte)
    setup_HL                                 0x08010d49   Thumb Code    16  plc_com.o(i.setup_HL)
    setup_LH                                 0x08010d61   Thumb Code    16  plc_com.o(i.setup_LH)
    sin                                      0x08010d79   Thumb Code   150  sin.o(i.sin)
    sqrt                                     0x08010e19   Thumb Code    76  sqrt.o(i.sqrt)
    switch_read_data                         0x08010e65   Thumb Code    50  plc_com.o(i.switch_read_data)
    tan                                      0x08010ea5   Thumb Code    90  tan.o(i.tan)
    timer_disble                             0x0801118d   Thumb Code   102  plc_timer.o(i.timer_disble)
    timer_enable                             0x08011205   Thumb Code   116  plc_timer.o(i.timer_enable)
    usart                                    0x0801128d   Thumb Code    42  plc_com.o(i.usart)
    write_block                              0x080112bd   Thumb Code    82  plc_com.o(i.write_block)
    write_data                               0x08011319   Thumb Code    70  plc_other.o(i.write_data)
    __aeabi_d2f                              0x08011369   Thumb Code     0  d2f.o(x$fpl$d2f)
    _d2f                                     0x08011369   Thumb Code    98  d2f.o(x$fpl$d2f)
    __aeabi_dadd                             0x080113cd   Thumb Code     0  daddsub_clz.o(x$fpl$dadd)
    _dadd                                    0x080113cd   Thumb Code   332  daddsub_clz.o(x$fpl$dadd)
    __fpl_dcheck_NaN1                        0x0801151d   Thumb Code    10  dcheck1.o(x$fpl$dcheck1)
    __aeabi_ddiv                             0x0801152d   Thumb Code     0  ddiv.o(x$fpl$ddiv)
    _ddiv                                    0x0801152d   Thumb Code   552  ddiv.o(x$fpl$ddiv)
    __aeabi_d2iz                             0x080117dd   Thumb Code     0  dfix.o(x$fpl$dfix)
    _dfix                                    0x080117dd   Thumb Code    94  dfix.o(x$fpl$dfix)
    __aeabi_d2uiz                            0x0801183d   Thumb Code     0  dfixu.o(x$fpl$dfixu)
    _dfixu                                   0x0801183d   Thumb Code    90  dfixu.o(x$fpl$dfixu)
    __aeabi_i2d                              0x08011897   Thumb Code     0  dflt_clz.o(x$fpl$dflt)
    _dflt                                    0x08011897   Thumb Code    46  dflt_clz.o(x$fpl$dflt)
    __aeabi_ui2d                             0x080118c5   Thumb Code     0  dflt_clz.o(x$fpl$dfltu)
    _dfltu                                   0x080118c5   Thumb Code    38  dflt_clz.o(x$fpl$dfltu)
    __aeabi_dmul                             0x080118ed   Thumb Code     0  dmul.o(x$fpl$dmul)
    _dmul                                    0x080118ed   Thumb Code   332  dmul.o(x$fpl$dmul)
    __fpl_dnaninf                            0x08011a41   Thumb Code   156  dnaninf.o(x$fpl$dnaninf)
    __fpl_dretinf                            0x08011add   Thumb Code    12  dretinf.o(x$fpl$dretinf)
    __aeabi_drsub                            0x08011ae9   Thumb Code     0  daddsub_clz.o(x$fpl$drsb)
    _drsb                                    0x08011ae9   Thumb Code    22  daddsub_clz.o(x$fpl$drsb)
    _dsqrt                                   0x08011b01   Thumb Code   456  dsqrt_noumaal.o(x$fpl$dsqrt)
    __aeabi_dsub                             0x08011ccd   Thumb Code     0  daddsub_clz.o(x$fpl$dsub)
    _dsub                                    0x08011ccd   Thumb Code   464  daddsub_clz.o(x$fpl$dsub)
    __aeabi_f2d                              0x08011ea1   Thumb Code     0  f2d.o(x$fpl$f2d)
    _f2d                                     0x08011ea1   Thumb Code    86  f2d.o(x$fpl$f2d)
    __aeabi_fadd                             0x08011ef9   Thumb Code     0  faddsub_clz.o(x$fpl$fadd)
    _fadd                                    0x08011ef9   Thumb Code   196  faddsub_clz.o(x$fpl$fadd)
    __fpl_fcmp_Inf                           0x08011fbd   Thumb Code    24  fcmpi.o(x$fpl$fcmpinf)
    __aeabi_fdiv                             0x08011fd5   Thumb Code     0  fdiv.o(x$fpl$fdiv)
    _fdiv                                    0x08011fd5   Thumb Code   384  fdiv.o(x$fpl$fdiv)
    __aeabi_cfcmpeq                          0x08012159   Thumb Code     0  feqf.o(x$fpl$feqf)
    _fcmpeq                                  0x08012159   Thumb Code   104  feqf.o(x$fpl$feqf)
    __aeabi_f2uiz                            0x080121c1   Thumb Code     0  ffixu.o(x$fpl$ffixu)
    _ffixu                                   0x080121c1   Thumb Code    62  ffixu.o(x$fpl$ffixu)
    __aeabi_i2f                              0x08012201   Thumb Code     0  fflt_clz.o(x$fpl$fflt)
    _fflt                                    0x08012201   Thumb Code    48  fflt_clz.o(x$fpl$fflt)
    __aeabi_cfcmple                          0x08012231   Thumb Code     0  fleqf.o(x$fpl$fleqf)
    _fcmple                                  0x08012231   Thumb Code   104  fleqf.o(x$fpl$fleqf)
    __fpl_fcmple_InfNaN                      0x08012283   Thumb Code     0  fleqf.o(x$fpl$fleqf)
    __aeabi_fmul                             0x08012299   Thumb Code     0  fmul.o(x$fpl$fmul)
    _fmul                                    0x08012299   Thumb Code   258  fmul.o(x$fpl$fmul)
    __fpl_fnaninf                            0x0801239b   Thumb Code   140  fnaninf.o(x$fpl$fnaninf)
    __fpl_fretinf                            0x08012427   Thumb Code    10  fretinf.o(x$fpl$fretinf)
    __aeabi_cfrcmple                         0x08012431   Thumb Code     0  frleqf.o(x$fpl$frleqf)
    _frcmple                                 0x08012431   Thumb Code    98  frleqf.o(x$fpl$frleqf)
    __aeabi_fsub                             0x08012495   Thumb Code     0  faddsub_clz.o(x$fpl$fsub)
    _fsub                                    0x08012495   Thumb Code   234  faddsub_clz.o(x$fpl$fsub)
    __fpl_return_NaN                         0x0801257f   Thumb Code   100  retnan.o(x$fpl$retnan)
    __ARM_scalbn                             0x080125e3   Thumb Code    92  scalbn.o(x$fpl$scalbn)
    __fpl_cmpreturn                          0x0801263f   Thumb Code    48  trapv.o(x$fpl$trapveneer)
    special_d                                0x0801266e   Data         512  plc_com.o(.constdata)
    Ascll                                    0x0801286e   Data          20  plc_com.o(.constdata)
    hex                                      0x08012882   Data          77  plc_com.o(.constdata)
    mon_table                                0x080128cf   Data          12  rtc.o(.constdata)
    PLC_BIT_OR                               0x080128db   Data           8  plc_process.o(.constdata)
    PLC_BIT_AND                              0x080128e3   Data           8  plc_process.o(.constdata)
    Region$$Table$$Base                      0x08012a70   Number         0  anon$$obj.o(Region$$Table)
    Region$$Table$$Limit                     0x08012a90   Number         0  anon$$obj.o(Region$$Table)
    power_down                               0x20000014   Data           2  main.o(.data)
    data_size                                0x20000019   Data           1  plc_com.o(.data)
    rx_end                                   0x2000001a   Data           1  plc_com.o(.data)
    rx_count                                 0x20000020   Data           2  plc_com.o(.data)
    tx_count                                 0x20000022   Data           2  plc_com.o(.data)
    prog_address                             0x20000024   Data           2  plc_com.o(.data)
    data_address                             0x20000026   Data           2  plc_com.o(.data)
    block_contol                             0x20000028   Data           2  plc_com.o(.data)
    Y0P                                      0x2000002a   Data           1  pulse.o(.data)
    Plus_CMP0                                0x2000002c   Data           2  pulse.o(.data)
    week_tab                                 0x20000030   Data          13  rtc.o(.data)
    Flag_bit                                 0x20000040   Data           1  plc_process.o(.data)
    Transfer_bit                             0x20000048   Data           1  plc_process.o(.data)
    Transfer_bit1                            0x20000049   Data           1  plc_process.o(.data)
    edit_prog                                0x2000004a   Data           1  plc_process.o(.data)
    Transfer                                 0x2000004e   Data           2  plc_process.o(.data)
    trade                                    0x200000a0   Data           4  plc_process.o(.data)
    FLOAT                                    0x200000a4   Data           4  plc_process.o(.data)
    u32data                                  0x200000a8   Data           4  plc_process.o(.data)
    u32data1                                 0x200000ac   Data           4  plc_process.o(.data)
    bcd                                      0x200000b0   Data           8  plc_process.o(.data)
    u64data                                  0x200000c0   Data           8  plc_process.o(.data)
    PLC_RUN_TIME                             0x200000cc   Data           2  plc_timer.o(.data)
    p_data_given                             0x200000d0   Data           4  plc_timer.o(.data)
    p_value                                  0x200000d4   Data           4  plc_timer.o(.data)
    X_DIY                                    0x200000d8   Data           1  plc_io.o(.data)
    process                                  0x200004e4   Data         128  plc_process.o(.bss)
    FOR_CMD                                  0x20000564   Data          60  plc_process.o(.bss)
    ADCConvertedValue                        0x200007a0   Data        1200  adc.o(.bss)
    __libspace_start                         0x20000c74   Data          96  libspace.o(.bss)
    __temporary_stack_top$libspace           0x20000cd4   Data           0  libspace.o(.bss)
    PLC_16BIT                                0x20001000   Data       24200  plc_com.o(.ARM.__AT_0x20001000)
    prog_write_buffer                        0x20006e88   Data        4100  plc_com.o(.bss)
    tx_data                                  0x20007e8c   Data         610  plc_com.o(.bss)
    rx_data                                  0x200080ee   Data         610  plc_com.o(.bss)
    Step_Address                             0x20008350   Data        2000  plc_com.o(.bss)



==============================================================================

Memory Map of the image

  Image Entry point : 0x08000131

  Load Region LR_IROM1 (Base: 0x08000000, Size: 0x00012b6c, Max: 0x00080000, ABSOLUTE)

    Execution Region ER_IROM1 (Base: 0x08000000, Size: 0x00012a90, Max: 0x00080000, ABSOLUTE)

    Base Addr    Size         Type   Attr      Idx    E Section Name        Object

    0x08000000   0x00000130   Data   RO            3    RESET               startup_stm32f10x_hd.o
    0x08000130   0x00000008   Code   RO         4363  * !!!main             c_w.l(__main.o)
    0x08000138   0x00000034   Code   RO         4689    !!!scatter          c_w.l(__scatter.o)
    0x0800016c   0x0000001a   Code   RO         4691    !!handler_copy      c_w.l(__scatter_copy.o)
    0x08000186   0x00000002   PAD
    0x08000188   0x0000001c   Code   RO         4693    !!handler_zi        c_w.l(__scatter_zi.o)
    0x080001a4   0x00000002   Code   RO         4557    .ARM.Collect$$libinit$$00000000  c_w.l(libinit.o)
    0x080001a6   0x00000000   Code   RO         4569    .ARM.Collect$$libinit$$00000002  c_w.l(libinit2.o)
    0x080001a6   0x00000000   Code   RO         4571    .ARM.Collect$$libinit$$00000004  c_w.l(libinit2.o)
    0x080001a6   0x00000000   Code   RO         4574    .ARM.Collect$$libinit$$0000000A  c_w.l(libinit2.o)
    0x080001a6   0x00000000   Code   RO         4576    .ARM.Collect$$libinit$$0000000C  c_w.l(libinit2.o)
    0x080001a6   0x00000000   Code   RO         4578    .ARM.Collect$$libinit$$0000000E  c_w.l(libinit2.o)
    0x080001a6   0x00000000   Code   RO         4581    .ARM.Collect$$libinit$$00000011  c_w.l(libinit2.o)
    0x080001a6   0x00000000   Code   RO         4583    .ARM.Collect$$libinit$$00000013  c_w.l(libinit2.o)
    0x080001a6   0x00000000   Code   RO         4585    .ARM.Collect$$libinit$$00000015  c_w.l(libinit2.o)
    0x080001a6   0x00000000   Code   RO         4587    .ARM.Collect$$libinit$$00000017  c_w.l(libinit2.o)
    0x080001a6   0x00000000   Code   RO         4589    .ARM.Collect$$libinit$$00000019  c_w.l(libinit2.o)
    0x080001a6   0x00000000   Code   RO         4591    .ARM.Collect$$libinit$$0000001B  c_w.l(libinit2.o)
    0x080001a6   0x00000000   Code   RO         4593    .ARM.Collect$$libinit$$0000001D  c_w.l(libinit2.o)
    0x080001a6   0x00000000   Code   RO         4595    .ARM.Collect$$libinit$$0000001F  c_w.l(libinit2.o)
    0x080001a6   0x00000000   Code   RO         4597    .ARM.Collect$$libinit$$00000021  c_w.l(libinit2.o)
    0x080001a6   0x00000000   Code   RO         4599    .ARM.Collect$$libinit$$00000023  c_w.l(libinit2.o)
    0x080001a6   0x00000000   Code   RO         4601    .ARM.Collect$$libinit$$00000025  c_w.l(libinit2.o)
    0x080001a6   0x00000000   Code   RO         4605    .ARM.Collect$$libinit$$0000002C  c_w.l(libinit2.o)
    0x080001a6   0x00000000   Code   RO         4607    .ARM.Collect$$libinit$$0000002E  c_w.l(libinit2.o)
    0x080001a6   0x00000000   Code   RO         4609    .ARM.Collect$$libinit$$00000030  c_w.l(libinit2.o)
    0x080001a6   0x00000000   Code   RO         4611    .ARM.Collect$$libinit$$00000032  c_w.l(libinit2.o)
    0x080001a6   0x00000002   Code   RO         4612    .ARM.Collect$$libinit$$00000033  c_w.l(libinit2.o)
    0x080001a8   0x00000002   Code   RO         4647    .ARM.Collect$$libshutdown$$00000000  c_w.l(libshutdown.o)
    0x080001aa   0x00000000   Code   RO         4674    .ARM.Collect$$libshutdown$$00000003  c_w.l(libshutdown2.o)
    0x080001aa   0x00000000   Code   RO         4677    .ARM.Collect$$libshutdown$$00000006  c_w.l(libshutdown2.o)
    0x080001aa   0x00000000   Code   RO         4680    .ARM.Collect$$libshutdown$$00000009  c_w.l(libshutdown2.o)
    0x080001aa   0x00000000   Code   RO         4682    .ARM.Collect$$libshutdown$$0000000B  c_w.l(libshutdown2.o)
    0x080001aa   0x00000000   Code   RO         4685    .ARM.Collect$$libshutdown$$0000000E  c_w.l(libshutdown2.o)
    0x080001aa   0x00000002   Code   RO         4686    .ARM.Collect$$libshutdown$$0000000F  c_w.l(libshutdown2.o)
    0x080001ac   0x00000000   Code   RO         4439    .ARM.Collect$$rtentry$$00000000  c_w.l(__rtentry.o)
    0x080001ac   0x00000000   Code   RO         4496    .ARM.Collect$$rtentry$$00000002  c_w.l(__rtentry2.o)
    0x080001ac   0x00000006   Code   RO         4508    .ARM.Collect$$rtentry$$00000004  c_w.l(__rtentry4.o)
    0x080001b2   0x00000000   Code   RO         4498    .ARM.Collect$$rtentry$$00000009  c_w.l(__rtentry2.o)
    0x080001b2   0x00000004   Code   RO         4499    .ARM.Collect$$rtentry$$0000000A  c_w.l(__rtentry2.o)
    0x080001b6   0x00000000   Code   RO         4501    .ARM.Collect$$rtentry$$0000000C  c_w.l(__rtentry2.o)
    0x080001b6   0x00000008   Code   RO         4502    .ARM.Collect$$rtentry$$0000000D  c_w.l(__rtentry2.o)
    0x080001be   0x00000002   Code   RO         4560    .ARM.Collect$$rtexit$$00000000  c_w.l(rtexit.o)
    0x080001c0   0x00000000   Code   RO         4618    .ARM.Collect$$rtexit$$00000002  c_w.l(rtexit2.o)
    0x080001c0   0x00000004   Code   RO         4619    .ARM.Collect$$rtexit$$00000003  c_w.l(rtexit2.o)
    0x080001c4   0x00000006   Code   RO         4620    .ARM.Collect$$rtexit$$00000004  c_w.l(rtexit2.o)
    0x080001ca   0x00000002   PAD
    0x080001cc   0x00000040   Code   RO            4    .text               startup_stm32f10x_hd.o
    0x0800020c   0x000000ee   Code   RO         4355    .text               c_w.l(lludivv7m.o)
    0x080002fa   0x00000026   Code   RO         4357    .text               c_w.l(llshl.o)
    0x08000320   0x00000026   Code   RO         4359    .text               c_w.l(llushr.o)
    0x08000346   0x00000006   Code   RO         4361    .text               c_w.l(heapauxi.o)
    0x0800034c   0x00000016   Code   RO         4444    .text               c_w.l(_rserrno.o)
    0x08000362   0x00000002   PAD
    0x08000364   0x00000008   Code   RO         4515    .text               c_w.l(rt_errno_addr_intlibspace.o)
    0x0800036c   0x00000008   Code   RO         4541    .text               c_w.l(libspace.o)
    0x08000374   0x0000004a   Code   RO         4544    .text               c_w.l(sys_stackheap_outer.o)
    0x080003be   0x0000000c   Code   RO         4546    .text               c_w.l(exit.o)
    0x080003ca   0x00000002   PAD
    0x080003cc   0x0000000c   Code   RO         4615    .text               c_w.l(sys_exit.o)
    0x080003d8   0x00000002   Code   RO         4636    .text               c_w.l(use_no_semi.o)
    0x080003da   0x00000000   Code   RO         4638    .text               c_w.l(indicate_semi.o)
    0x080003da   0x00000002   PAD
    0x080003dc   0x00000050   Code   RO         3507    i.ALT               plc_process.o
    0x0800042c   0x00000038   Code   RO         3508    i.AND               plc_process.o
    0x08000464   0x000000b0   Code   RO         3509    i.ANDF              plc_process.o
    0x08000514   0x000000b0   Code   RO         3510    i.ANDP              plc_process.o
    0x080005c4   0x00000038   Code   RO         3511    i.ANI               plc_process.o
    0x080005fc   0x00000064   Code   RO         3512    i.BCD               plc_process.o
    0x08000660   0x00000058   Code   RO         3513    i.BIN               plc_process.o
    0x080006b8   0x000000a0   Code   RO         3514    i.BIT_SET           plc_process.o
    0x08000758   0x00000080   Code   RO         3515    i.BMOV              plc_process.o
    0x080007d8   0x00000020   Code   RO         3516    i.BtoG              plc_process.o
    0x080007f8   0x00000058   Code   RO         3517    i.CALL_EX           plc_process.o
    0x08000850   0x00000098   Code   RO         3518    i.CALL_P            plc_process.o
    0x080008e8   0x00000028   Code   RO         3519    i.CJ_EX             plc_process.o
    0x08000910   0x00000098   Code   RO         3520    i.CJ_P              plc_process.o
    0x080009a8   0x000000d8   Code   RO         3521    i.CMP               plc_process.o
    0x08000a80   0x00000140   Code   RO         3522    i.CMP_P             plc_process.o
    0x08000bc0   0x00000044   Code   RO         3523    i.C_given_value_D   plc_process.o
    0x08000c04   0x00000014   Code   RO          726    i.DAC_SetChannel1Data  stm32f10x_dac.o
    0x08000c18   0x00000014   Code   RO          727    i.DAC_SetChannel2Data  stm32f10x_dac.o
    0x08000c2c   0x0000001c   Code   RO          729    i.DAC_SoftwareTriggerCmd  stm32f10x_dac.o
    0x08000c48   0x00000030   Code   RO         4248    i.DAC_data          dac.o
    0x08000c78   0x000000cc   Code   RO         3524    i.DBCD              plc_process.o
    0x08000d44   0x00000100   Code   RO         3525    i.DBIN              plc_process.o
    0x08000e44   0x000000d4   Code   RO         3526    i.DCMP              plc_process.o
    0x08000f18   0x0000014c   Code   RO         3527    i.DCMP_P            plc_process.o
    0x08001064   0x00000064   Code   RO         3528    i.DDIV              plc_process.o
    0x080010c8   0x00000098   Code   RO         3529    i.DEC_P             plc_process.o
    0x08001160   0x0000001c   Code   RO         3530    i.DE_target         plc_process.o
    0x0800117c   0x00000060   Code   RO         3531    i.DFMOV             plc_process.o
    0x080011dc   0x00000098   Code   RO         3532    i.DINC_P            plc_process.o
    0x08001274   0x00000024   Code   RO         3127    i.DMA1_Channel4_IRQHandler  plc_com.o
    0x08001298   0x000000e4   Code   RO          825    i.DMA_DeInit        stm32f10x_dma.o
    0x0800137c   0x00000010   Code   RO          829    i.DMA_ITConfig      stm32f10x_dma.o
    0x0800138c   0x0000003a   Code   RO          830    i.DMA_Init          stm32f10x_dma.o
    0x080013c6   0x00000002   PAD
    0x080013c8   0x00000058   Code   RO         3533    i.DMUL              plc_process.o
    0x08001420   0x00000048   Code   RO         3534    i.DZ0_Z3            plc_process.o
    0x08001468   0x0000004c   Code   RO         3535    i.DZ4_Z7            plc_process.o
    0x080014b4   0x000000dc   Code   RO         3536    i.DZCP              plc_process.o
    0x08001590   0x0000006c   Code   RO         3537    i.D_C_T_addr        plc_process.o
    0x080015fc   0x00000220   Code   RO         3538    i.D_target          plc_process.o
    0x0800181c   0x00000054   Code   RO         3539    i.Damount           plc_process.o
    0x08001870   0x00000054   Code   RO         3540    i.Dbig              plc_process.o
    0x080018c4   0x00000054   Code   RO         3541    i.Dbig_amount       plc_process.o
    0x08001918   0x00000054   Code   RO         3542    i.Dless             plc_process.o
    0x0800196c   0x00000054   Code   RO         3543    i.Dless_amount      plc_process.o
    0x080019c0   0x00000054   Code   RO         3544    i.Dno_amount        plc_process.o
    0x08001a14   0x000000ec   Code   RO         3545    i.ECMP              plc_process.o
    0x08001b00   0x00000040   Code   RO         3128    i.EPC_FORCE_OFF     plc_com.o
    0x08001b40   0x00000064   Code   RO         3129    i.EPC_FORCE_ON      plc_com.o
    0x08001ba4   0x000000d4   Code   RO         3385    i.EXTI15_10_IRQHandler  exti.o
    0x08001c78   0x00000134   Code   RO         3386    i.EXTI9_5_IRQHandler  exti.o
    0x08001dac   0x0000000c   Code   RO          895    i.EXTI_ClearITPendingBit  stm32f10x_exti.o
    0x08001db8   0x00000020   Code   RO          899    i.EXTI_GetITStatus  stm32f10x_exti.o
    0x08001dd8   0x000000cc   Code   RO         3546    i.EZCP              plc_process.o
    0x08001ea4   0x0000003c   Code   RO         3410    i.Encoder_A         encoder.o
    0x08001ee0   0x0000003c   Code   RO         3411    i.Encoder_B         encoder.o
    0x08001f1c   0x000000b4   Code   RO         3130    i.ErasurePLC        plc_com.o
    0x08001fd0   0x0000003c   Code   RO          953    i.FLASH_ErasePage   stm32f10x_flash.o
    0x0800200c   0x00000028   Code   RO          954    i.FLASH_GetBank1Status  stm32f10x_flash.o
    0x08002034   0x00000010   Code   RO          963    i.FLASH_Lock        stm32f10x_flash.o
    0x08002044   0x00000034   Code   RO          966    i.FLASH_ProgramHalfWord  stm32f10x_flash.o
    0x08002078   0x00000018   Code   RO          971    i.FLASH_Unlock      stm32f10x_flash.o
    0x08002090   0x00000022   Code   RO          975    i.FLASH_WaitForLastOperation  stm32f10x_flash.o
    0x080020b2   0x00000002   PAD
    0x080020b4   0x00000068   Code   RO         3547    i.FMOV              plc_process.o
    0x0800211c   0x00000050   Code   RO         3548    i.FOR               plc_process.o
    0x0800216c   0x0000009c   Code   RO         1246    i.GPIO_Init         stm32f10x_gpio.o
    0x08002208   0x00000058   Code   RO         1248    i.GPIO_PinRemapConfig  stm32f10x_gpio.o
    0x08002260   0x0000000e   Code   RO         1250    i.GPIO_ReadInputDataBit  stm32f10x_gpio.o
    0x0800226e   0x00000020   Code   RO         3549    i.GtoB              plc_process.o
    0x0800228e   0x00000002   PAD
    0x08002290   0x00000098   Code   RO         3550    i.INC_P             plc_process.o
    0x08002328   0x00000026   Code   RO         3457    i.Is_Leap_Year      rtc.o
    0x0800234e   0x00000002   PAD
    0x08002350   0x00000054   Code   RO         3551    i.LD                plc_process.o
    0x080023a4   0x000000e4   Code   RO         3552    i.LDF               plc_process.o
    0x08002488   0x00000058   Code   RO         3553    i.LDI               plc_process.o
    0x080024e0   0x000000d4   Code   RO         3554    i.LDP               plc_process.o
    0x080025b4   0x000000cc   Code   RO         3555    i.LPF               plc_process.o
    0x08002680   0x000000b4   Code   RO         3556    i.LPS               plc_process.o
    0x08002734   0x000000bc   Code   RO         3557    i.MEAN              plc_process.o
    0x080027f0   0x00000038   Code   RO         3558    i.MOV_K             plc_process.o
    0x08002828   0x0000011c   Code   RO         3559    i.MOV_TO_K_H        plc_process.o
    0x08002944   0x000000b8   Code   RO         3560    i.MTR               plc_process.o
    0x080029fc   0x00000104   Code   RO         4236    i.NCIC_Confinguration  nvic_interrupt.o
    0x08002b00   0x00000064   Code   RO           10    i.NVIC_Init         misc.o
    0x08002b64   0x00000014   Code   RO           11    i.NVIC_PriorityGroupConfig  misc.o
    0x08002b78   0x00000014   Code   RO           12    i.NVIC_SetVectorTable  misc.o
    0x08002b8c   0x00000038   Code   RO         3561    i.OR                plc_process.o
    0x08002bc4   0x000000b0   Code   RO         3562    i.ORF               plc_process.o
    0x08002c74   0x0000003c   Code   RO         3563    i.ORI               plc_process.o
    0x08002cb0   0x000000b0   Code   RO         3564    i.ORP               plc_process.o
    0x08002d60   0x000000a4   Code   RO         3565    i.OUT               plc_process.o
    0x08002e04   0x00000044   Code   RO         3131    i.PC_FORCE_OFF      plc_com.o
    0x08002e48   0x0000003c   Code   RO         3132    i.PC_FORCE_ON       plc_com.o
    0x08002e84   0x000000f0   Code   RO         3133    i.PC_OPTION_PROG    plc_com.o
    0x08002f74   0x00000094   Code   RO         3134    i.PC_READ_PORG      plc_com.o
    0x08003008   0x000001a8   Code   RO         3135    i.PC_READ_Parameter  plc_com.o
    0x080031b0   0x00000034   Code   RO         3136    i.PC_READ_byte      plc_com.o
    0x080031e4   0x0000008c   Code   RO         3137    i.PC_WRITE_PORG     plc_com.o
    0x08003270   0x00000048   Code   RO         3138    i.PC_WRITE_Parameter  plc_com.o
    0x080032b8   0x00000044   Code   RO         3139    i.PC_WRITE_byte     plc_com.o
    0x080032fc   0x000000e0   Code   RO         3566    i.PID               plc_process.o
    0x080033dc   0x00000078   Code   RO         3140    i.PLC_1BIT_State    plc_com.o
    0x08003454   0x000000a4   Code   RO         3141    i.PLC_Com_BIT       plc_com.o
    0x080034f8   0x000000a8   Code   RO         3142    i.PLC_Comm_Byte     plc_com.o
    0x080035a0   0x00000084   Code   RO         4200    i.PLC_DATA_KEEP     plc_other.o
    0x08003624   0x00000028   Code   RO         3143    i.PLC_Download      plc_com.o
    0x0800364c   0x00000048   Code   RO         3144    i.PLC_E_Expand      plc_com.o
    0x08003694   0x000000c0   Code   RO         4296    i.PLC_IO_Refresh    plc_io.o
    0x08003754   0x00000040   Code   RO         4297    i.PLC_IO_config     plc_io.o
    0x08003794   0x00000024   Code   RO         3567    i.PLC_LD_BIT        plc_process.o
    0x080037b8   0x0000005c   Code   RO         4298    i.PLC_Mode_config   plc_io.o
    0x08003814   0x00000024   Code   RO         3568    i.PLC_PL_BIT_TEST   plc_process.o
    0x08003838   0x00000054   Code   RO         3569    i.PLC_PROG_ERROR    plc_process.o
    0x0800388c   0x00000084   Code   RO         4201    i.PLC_PowerUpReset  plc_other.o
    0x08003910   0x00000308   Code   RO         3570    i.PLC_ProInstructParse  plc_process.o
    0x08003c18   0x0000004a   Code   RO         4135    i.PLC_Timer         plc_timer.o
    0x08003c62   0x00000002   PAD
    0x08003c64   0x0000007c   Code   RO         3145    i.PLC_Upload        plc_com.o
    0x08003ce0   0x00000074   Code   RO         4299    i.PLC_X_config      plc_io.o
    0x08003d54   0x00000058   Code   RO         4300    i.PLC_Y_config      plc_io.o
    0x08003dac   0x00000178   Code   RO         3571    i.PLSY              plc_process.o
    0x08003f24   0x0000000c   Code   RO         1600    i.PWR_BackupAccessCmd  stm32f10x_pwr.o
    0x08003f30   0x0000009c   Code   RO         3146    i.Process_switch    plc_com.o
    0x08003fcc   0x00000018   Code   RO         1661    i.RCC_AHBPeriphClockCmd  stm32f10x_rcc.o
    0x08003fe4   0x00000018   Code   RO         1662    i.RCC_APB1PeriphClockCmd  stm32f10x_rcc.o
    0x08003ffc   0x00000018   Code   RO         1663    i.RCC_APB1PeriphResetCmd  stm32f10x_rcc.o
    0x08004014   0x00000018   Code   RO         1664    i.RCC_APB2PeriphClockCmd  stm32f10x_rcc.o
    0x0800402c   0x00000018   Code   RO         1665    i.RCC_APB2PeriphResetCmd  stm32f10x_rcc.o
    0x08004044   0x00000094   Code   RO         1672    i.RCC_GetClocksFreq  stm32f10x_rcc.o
    0x080040d8   0x00000038   Code   RO         3147    i.READ_PLC_ROM      plc_com.o
    0x08004110   0x0000005c   Code   RO         3572    i.RESET_C           plc_process.o
    0x0800416c   0x0000002c   Code   RO         3573    i.RST               plc_process.o
    0x08004198   0x00000064   Code   RO         3574    i.RST_D             plc_process.o
    0x080041fc   0x0000003c   Code   RO         3575    i.RST_T_C           plc_process.o
    0x08004238   0x00000014   Code   RO         3576    i.RST_Y             plc_process.o
    0x0800424c   0x00000010   Code   RO         1862    i.RTC_EnterConfigMode  stm32f10x_rtc.o
    0x0800425c   0x00000010   Code   RO         1863    i.RTC_ExitConfigMode  stm32f10x_rtc.o
    0x0800426c   0x00000134   Code   RO         3459    i.RTC_Get           rtc.o
    0x080043a0   0x00000014   Code   RO         1864    i.RTC_GetCounter    stm32f10x_rtc.o
    0x080043b4   0x00000058   Code   RO         3460    i.RTC_Get_Week      rtc.o
    0x0800440c   0x000000c4   Code   RO         3462    i.RTC_Set           rtc.o
    0x080044d0   0x00000020   Code   RO         1870    i.RTC_SetCounter    stm32f10x_rtc.o
    0x080044f0   0x00000010   Code   RO         1872    i.RTC_WaitForLastTask  stm32f10x_rtc.o
    0x08004500   0x00000038   Code   RO         4202    i.Read_data         plc_other.o
    0x08004538   0x000000b0   Code   RO         3577    i.SMOV              plc_process.o
    0x080045e8   0x0000003c   Code   RO         3578    i.STL               plc_process.o
    0x08004624   0x000000a8   Code   RO         3056    i.SetSysClockTo72   system_stm32f10x.o
    0x080046cc   0x00000050   Code   RO         3058    i.SystemInit        system_stm32f10x.o
    0x0800471c   0x00000050   Code   RO         3579    i.TADD              plc_process.o
    0x0800476c   0x00000120   Code   RO         3580    i.TCMP              plc_process.o
    0x0800488c   0x00000120   Code   RO         4136    i.TIM2_IRQHandler   plc_timer.o
    0x080049ac   0x00000058   Code   RO         3432    i.TIM3_IRQHandler   pulse.o
    0x08004a04   0x00000006   Code   RO         2287    i.TIM_ClearFlag     stm32f10x_tim.o
    0x08004a0a   0x00000006   Code   RO         2288    i.TIM_ClearITPendingBit  stm32f10x_tim.o
    0x08004a10   0x00000014   Code   RO         2293    i.TIM_Cmd           stm32f10x_tim.o
    0x08004a24   0x00000170   Code   RO         2298    i.TIM_DeInit        stm32f10x_tim.o
    0x08004b94   0x00000010   Code   RO         2318    i.TIM_ITConfig      stm32f10x_tim.o
    0x08004ba4   0x0000009c   Code   RO         2364    i.TIM_TimeBaseInit  stm32f10x_tim.o
    0x08004c40   0x00000054   Code   RO         3581    i.TRD               plc_process.o
    0x08004c94   0x00000050   Code   RO         3582    i.TSUB              plc_process.o
    0x08004ce4   0x0000003c   Code   RO         3583    i.TWR               plc_process.o
    0x08004d20   0x00000028   Code   RO         3148    i.TX_Process        plc_com.o
    0x08004d48   0x0000013c   Code   RO         3584    i.TZCP              plc_process.o
    0x08004e84   0x00000070   Code   RO         4137    i.T_100MS           plc_timer.o
    0x08004ef4   0x00000078   Code   RO         4138    i.T_10MS            plc_timer.o
    0x08004f6c   0x00000070   Code   RO         4139    i.T_1MS             plc_timer.o
    0x08004fdc   0x00000070   Code   RO         4140    i.T_H100MS          plc_timer.o
    0x0800504c   0x00000078   Code   RO         3585    i.T_given_value_D   plc_process.o
    0x080050c4   0x000000c0   Code   RO         3149    i.USART1_Configuration  plc_com.o
    0x08005184   0x000000ec   Code   RO         3150    i.USART1_IRQHandler  plc_com.o
    0x08005270   0x0000000c   Code   RO         2813    i.USART_ClearITPendingBit  stm32f10x_usart.o
    0x0800527c   0x00000014   Code   RO         2816    i.USART_Cmd         stm32f10x_usart.o
    0x08005290   0x00000010   Code   RO         2817    i.USART_DMACmd      stm32f10x_usart.o
    0x080052a0   0x0000000e   Code   RO         2819    i.USART_GetFlagStatus  stm32f10x_usart.o
    0x080052ae   0x0000003e   Code   RO         2820    i.USART_GetITStatus  stm32f10x_usart.o
    0x080052ec   0x00000030   Code   RO         2822    i.USART_ITConfig    stm32f10x_usart.o
    0x0800531c   0x000000ac   Code   RO         2823    i.USART_Init        stm32f10x_usart.o
    0x080053c8   0x00000008   Code   RO         2830    i.USART_ReceiveData  stm32f10x_usart.o
    0x080053d0   0x00000034   Code   RO         3586    i.V0_V3             plc_process.o
    0x08005404   0x00000034   Code   RO         3587    i.V4_V7             plc_process.o
    0x08005438   0x0000036c   Code   RO         4301    i.X_filter          plc_io.o
    0x080057a4   0x00000034   Code   RO         3588    i.Z0_Z3             plc_process.o
    0x080057d8   0x00000034   Code   RO         3589    i.Z4_Z7             plc_process.o
    0x0800580c   0x000000dc   Code   RO         3590    i.ZCP               plc_process.o
    0x080058e8   0x00000028   Code   RO         4537    i.__ARM_fpclassify  m_ws.l(fpclassify.o)
    0x08005910   0x00000388   Code   RO         4478    i.__ieee754_rem_pio2  m_ws.l(rred.o)
    0x08005c98   0x000000fc   Code   RO         4461    i.__kernel_cos      m_ws.l(cos_i.o)
    0x08005d94   0x000000aa   Code   RO         4539    i.__kernel_poly     m_ws.l(poly.o)
    0x08005e3e   0x00000002   PAD
    0x08005e40   0x000000ec   Code   RO         4483    i.__kernel_sin      m_ws.l(sin_i.o)
    0x08005f2c   0x00000006   Code   RO         4465    i.__mathlib_dbl_infnan  m_ws.l(dunder.o)
    0x08005f32   0x0000000c   Code   RO         4467    i.__mathlib_dbl_invalid  m_ws.l(dunder.o)
    0x08005f3e   0x00000002   PAD
    0x08005f40   0x00000010   Code   RO         4470    i.__mathlib_dbl_underflow  m_ws.l(dunder.o)
    0x08005f50   0x00000040   Code   RO         3591    i.addr_value        plc_process.o
    0x08005f90   0x0000002c   Code   RO         3151    i.all_flash_lock    plc_com.o
    0x08005fbc   0x00000020   Code   RO         3152    i.all_flash_unlock  plc_com.o
    0x08005fdc   0x0000001c   Code   RO         3606    i.expand_AND        plc_process.o
    0x08005ff8   0x00000000   Code   RO         4460    x$fpl$usenofp       fz_ws.l(usenofp.o)
    0x08005ff8   0x00000008   PAD
    0x08006000   0x000084d0   Data   RO         3168    .ARM.__AT_0x08006000  plc_com.o
    0x0800e4d0   0x0000027c   Code   RO         4489    i.__kernel_tan      m_ws.l(tan_i.o)
    0x0800e74c   0x000000fc   Code   RO         3592    i.addr_value_prog   plc_process.o
    0x0800e848   0x00000054   Code   RO         3593    i.amount            plc_process.o
    0x0800e89c   0x00000036   Code   RO         3594    i.b2g               plc_process.o
    0x0800e8d2   0x00000002   PAD
    0x0800e8d4   0x00000030   Code   RO         3153    i.backup_block      plc_com.o
    0x0800e904   0x00000054   Code   RO         3595    i.big               plc_process.o
    0x0800e958   0x00000054   Code   RO         3596    i.big_amount        plc_process.o
    0x0800e9ac   0x00000028   Code   RO         3154    i.check             plc_com.o
    0x0800e9d4   0x0000009c   Code   RO         4408    i.cos               m_ws.l(cos.o)
    0x0800ea70   0x000000a8   Code   RO         3597    i.cos_float_value   plc_process.o
    0x0800eb18   0x000004f8   Code   RO         3598    i.cos_u32_value     plc_process.o
    0x0800f010   0x0000049e   Code   RO         3599    i.cos_value         plc_process.o
    0x0800f4ae   0x00000002   PAD
    0x0800f4b0   0x00000060   Code   RO         3155    i.data_init         plc_com.o
    0x0800f510   0x000000a8   Code   RO         3600    i.disable_C_D       plc_process.o
    0x0800f5b8   0x00000094   Code   RO         3601    i.disable_C_K       plc_process.o
    0x0800f64c   0x00000028   Code   RO         3602    i.disable_T         plc_process.o
    0x0800f674   0x000000fc   Code   RO         3603    i.enable_C_D        plc_process.o
    0x0800f770   0x000000d4   Code   RO         3604    i.enable_C_K        plc_process.o
    0x0800f844   0x00000040   Code   RO         3605    i.enable_T_K        plc_process.o
    0x0800f884   0x0000001c   Code   RO         3607    i.expand_ANI        plc_process.o
    0x0800f8a0   0x0000001c   Code   RO         3608    i.expand_LD         plc_process.o
    0x0800f8bc   0x0000001c   Code   RO         3609    i.expand_LDI        plc_process.o
    0x0800f8d8   0x0000001c   Code   RO         3610    i.expand_OR         plc_process.o
    0x0800f8f4   0x0000001c   Code   RO         3611    i.expand_ORI        plc_process.o
    0x0800f910   0x0000001c   Code   RO         3612    i.expand_OUT        plc_process.o
    0x0800f92c   0x0000001c   Code   RO         3613    i.expand_RST        plc_process.o
    0x0800f948   0x0000001c   Code   RO         3614    i.expand_SET        plc_process.o
    0x0800f964   0x00000d50   Code   RO         3615    i.extend_function   plc_process.o
    0x080106b4   0x00000044   Code   RO         4268    i.filter            adc.o
    0x080106f8   0x00000040   Code   RO         3156    i.find_data         plc_com.o
    0x08010738   0x0000007c   Code   RO         3157    i.find_data_address  plc_com.o
    0x080107b4   0x00000020   Code   RO         3158    i.find_end          plc_com.o
    0x080107d4   0x0000003c   Code   RO         3616    i.find_p            plc_process.o
    0x08010810   0x0000002c   Code   RO         3617    i.find_toend        plc_process.o
    0x0801083c   0x0000003c   Code   RO         3618    i.g2b               plc_process.o
    0x08010878   0x00000054   Code   RO         3619    i.less              plc_process.o
    0x080108cc   0x00000088   Code   RO         3085    i.main              main.o
    0x08010954   0x000000f0   Code   RO         3159    i.mov_flash         plc_com.o
    0x08010a44   0x00000054   Code   RO         3620    i.no_amount         plc_process.o
    0x08010a98   0x00000140   Code   RO         3160    i.online_write_data  plc_com.o
    0x08010bd8   0x00000064   Code   RO         3621    i.other_function    plc_process.o
    0x08010c3c   0x0000008c   Code   RO         3161    i.read_other_data   plc_com.o
    0x08010cc8   0x00000080   Code   RO         3162    i.read_plc_tyte     plc_com.o
    0x08010d48   0x00000018   Code   RO         3163    i.setup_HL          plc_com.o
    0x08010d60   0x00000018   Code   RO         3164    i.setup_LH          plc_com.o
    0x08010d78   0x000000a0   Code   RO         4416    i.sin               m_ws.l(sin.o)
    0x08010e18   0x0000004c   Code   RO         4424    i.sqrt              m_ws.l(sqrt.o)
    0x08010e64   0x00000040   Code   RO         3165    i.switch_read_data  plc_com.o
    0x08010ea4   0x00000064   Code   RO         4432    i.tan               m_ws.l(tan.o)
    0x08010f08   0x00000284   Code   RO         3622    i.target            plc_process.o
    0x0801118c   0x00000078   Code   RO         4141    i.timer_disble      plc_timer.o
    0x08011204   0x00000088   Code   RO         4142    i.timer_enable      plc_timer.o
    0x0801128c   0x00000030   Code   RO         3166    i.usart             plc_com.o
    0x080112bc   0x0000005c   Code   RO         3167    i.write_block       plc_com.o
    0x08011318   0x00000050   Code   RO         4203    i.write_data        plc_other.o
    0x08011368   0x00000062   Code   RO         4365    x$fpl$d2f           fz_ws.l(d2f.o)
    0x080113ca   0x00000002   PAD
    0x080113cc   0x00000150   Code   RO         4517    x$fpl$dadd          fz_ws.l(daddsub_clz.o)
    0x0801151c   0x00000010   Code   RO         4558    x$fpl$dcheck1       fz_ws.l(dcheck1.o)
    0x0801152c   0x000002b0   Code   RO         4526    x$fpl$ddiv          fz_ws.l(ddiv.o)
    0x080117dc   0x0000005e   Code   RO         4529    x$fpl$dfix          fz_ws.l(dfix.o)
    0x0801183a   0x00000002   PAD
    0x0801183c   0x0000005a   Code   RO         4367    x$fpl$dfixu         fz_ws.l(dfixu.o)
    0x08011896   0x0000002e   Code   RO         4372    x$fpl$dflt          fz_ws.l(dflt_clz.o)
    0x080118c4   0x00000026   Code   RO         4371    x$fpl$dfltu         fz_ws.l(dflt_clz.o)
    0x080118ea   0x00000002   PAD
    0x080118ec   0x00000154   Code   RO         4533    x$fpl$dmul          fz_ws.l(dmul.o)
    0x08011a40   0x0000009c   Code   RO         4448    x$fpl$dnaninf       fz_ws.l(dnaninf.o)
    0x08011adc   0x0000000c   Code   RO         4450    x$fpl$dretinf       fz_ws.l(dretinf.o)
    0x08011ae8   0x00000016   Code   RO         4518    x$fpl$drsb          fz_ws.l(daddsub_clz.o)
    0x08011afe   0x00000002   PAD
    0x08011b00   0x000001cc   Code   RO         4452    x$fpl$dsqrt         fz_ws.l(dsqrt_noumaal.o)
    0x08011ccc   0x000001d4   Code   RO         4519    x$fpl$dsub          fz_ws.l(daddsub_clz.o)
    0x08011ea0   0x00000056   Code   RO         4377    x$fpl$f2d           fz_ws.l(f2d.o)
    0x08011ef6   0x00000002   PAD
    0x08011ef8   0x000000c4   Code   RO         4379    x$fpl$fadd          fz_ws.l(faddsub_clz.o)
    0x08011fbc   0x00000018   Code   RO         4454    x$fpl$fcmpinf       fz_ws.l(fcmpi.o)
    0x08011fd4   0x00000184   Code   RO         4386    x$fpl$fdiv          fz_ws.l(fdiv.o)
    0x08012158   0x00000068   Code   RO         4389    x$fpl$feqf          fz_ws.l(feqf.o)
    0x080121c0   0x0000003e   Code   RO         4391    x$fpl$ffixu         fz_ws.l(ffixu.o)
    0x080121fe   0x00000002   PAD
    0x08012200   0x00000030   Code   RO         4396    x$fpl$fflt          fz_ws.l(fflt_clz.o)
    0x08012230   0x00000068   Code   RO         4401    x$fpl$fleqf         fz_ws.l(fleqf.o)
    0x08012298   0x00000102   Code   RO         4403    x$fpl$fmul          fz_ws.l(fmul.o)
    0x0801239a   0x0000008c   Code   RO         4456    x$fpl$fnaninf       fz_ws.l(fnaninf.o)
    0x08012426   0x0000000a   Code   RO         4458    x$fpl$fretinf       fz_ws.l(fretinf.o)
    0x08012430   0x00000062   Code   RO         4405    x$fpl$frleqf        fz_ws.l(frleqf.o)
    0x08012492   0x00000002   PAD
    0x08012494   0x000000ea   Code   RO         4381    x$fpl$fsub          fz_ws.l(faddsub_clz.o)
    0x0801257e   0x00000064   Code   RO         4613    x$fpl$retnan        fz_ws.l(retnan.o)
    0x080125e2   0x0000005c   Code   RO         4535    x$fpl$scalbn        fz_ws.l(scalbn.o)
    0x0801263e   0x00000030   Code   RO         4632    x$fpl$trapveneer    fz_ws.l(trapv.o)
    0x0801266e   0x00000261   Data   RO         3171    .constdata          plc_com.o
    0x080128cf   0x0000000c   Data   RO         3463    .constdata          rtc.o
    0x080128db   0x00000010   Data   RO         3624    .constdata          plc_process.o
    0x080128eb   0x00000005   PAD
    0x080128f0   0x00000030   Data   RO         4462    .constdata          m_ws.l(cos_i.o)
    0x08012920   0x000000c8   Data   RO         4480    .constdata          m_ws.l(rred.o)
    0x080129e8   0x00000028   Data   RO         4484    .constdata          m_ws.l(sin_i.o)
    0x08012a10   0x00000060   Data   RO         4490    .constdata          m_ws.l(tan_i.o)
    0x08012a70   0x00000020   Data   RO         4687    Region$$Table       anon$$obj.o


    Execution Region RW_IRAM1 (Base: 0x20000000, Size: 0x00008f20, Max: 0x00010000, ABSOLUTE)

    Base Addr    Size         Type   Attr      Idx    E Section Name        Object

    0x20000000   0x00000014   Data   RW         1692    .data               stm32f10x_rcc.o
    0x20000014   0x00000002   Data   RW         3086    .data               main.o
    0x20000016   0x00000014   Data   RW         3172    .data               plc_com.o
    0x2000002a   0x00000001   Data   RW         3433    .data               pulse.o
    0x2000002b   0x00000001   PAD
    0x2000002c   0x00000002   Data   RW         3435    .data               pulse.o
    0x2000002e   0x0000000f   Data   RW         3464    .data               rtc.o
    0x2000003d   0x00000003   PAD
    0x20000040   0x00000088   Data   RW         3625    .data               plc_process.o
    0x200000c8   0x00000010   Data   RW         4144    .data               plc_timer.o
    0x200000d8   0x00000001   Data   RW         4303    .data               plc_io.o
    0x200000d9   0x00000003   PAD
    0x200000dc   0x000006c4   Zero   RW         3623    .bss                plc_process.o
    0x200007a0   0x000004b0   Zero   RW         4269    .bss                adc.o
    0x20000c50   0x00000021   Zero   RW         4302    .bss                plc_io.o
    0x20000c71   0x00000003   PAD
    0x20000c74   0x00000060   Zero   RW         4542    .bss                c_w.l(libspace.o)
    0x20000cd4   0x00000004   PAD
    0x20000cd8   0x00000200   Zero   RW            2    HEAP                startup_stm32f10x_hd.o
    0x20000ed8   0x00000128   PAD
    0x20001000   0x00005e88   Zero   RW         3169    .ARM.__AT_0x20001000  plc_com.o
    0x20006e88   0x00001c98   Zero   RW         3170    .bss                plc_com.o
    0x20008b20   0x00000400   Zero   RW            1    STACK               startup_stm32f10x_hd.o


==============================================================================

Image component sizes


      Code (inc. data)   RO Data    RW Data    ZI Data      Debug   Object Name

        68          8          0          0       1200       1285   adc.o
        48          4          0          0          0        435   dac.o
       120         16          0          0          0        960   encoder.o
       520         56          0          0          0       1376   exti.o
       136         20          0          2          0        756   main.o
       140         24          0          0          0     275317   misc.o
       260          0          0          0          0        726   nvic_interrupt.o
      4580        530      34609         20      31520      24300   plc_com.o
      1428        104          0          1         33       3832   plc_io.o
       400         38          0          0          0       2332   plc_other.o
     20784       1652         16        136       1732      79598   plc_process.o
      1074        126          0         16          0       5084   plc_timer.o
        88         22          0          3          0        820   pulse.o
       630         46         12         15          0       3087   rtc.o
        64         26        304          0       1536        824   startup_stm32f10x_hd.o
        68         16          0          0          0       2173   stm32f10x_dac.o
       302         10          0          0          0       3283   stm32f10x_dma.o
        44         10          0          0          0       1032   stm32f10x_exti.o
       226         30          0          0          0       4875   stm32f10x_flash.o
       258          6          0          0          0       2942   stm32f10x_gpio.o
        12          6          0          0          0        466   stm32f10x_pwr.o
       268         46          0         20          0       5780   stm32f10x_rcc.o
       100         24          0          0          0       2717   stm32f10x_rtc.o
       572        106          0          0          0       4696   stm32f10x_tim.o
       352          6          0          0          0       6049   stm32f10x_usart.o
       248         24          0          0          0       1497   system_stm32f10x.o

    ----------------------------------------------------------------------
     32804       2956      34978        220      36320     436242   Object Totals
         0          0         32          0          0          0   (incl. Generated)
        14          0          5          7        299          0   (incl. Padding)

    ----------------------------------------------------------------------

      Code (inc. data)   RO Data    RW Data    ZI Data      Debug   Library Member Name

         8          0          0          0          0         68   __main.o
         0          0          0          0          0          0   __rtentry.o
        12          0          0          0          0          0   __rtentry2.o
         6          0          0          0          0          0   __rtentry4.o
        52          8          0          0          0          0   __scatter.o
        26          0          0          0          0          0   __scatter_copy.o
        28          0          0          0          0          0   __scatter_zi.o
        22          0          0          0          0        100   _rserrno.o
        12          0          0          0          0         72   exit.o
         6          0          0          0          0        152   heapauxi.o
         0          0          0          0          0          0   indicate_semi.o
         2          0          0          0          0          0   libinit.o
         2          0          0          0          0          0   libinit2.o
         2          0          0          0          0          0   libshutdown.o
         2          0          0          0          0          0   libshutdown2.o
         8          4          0          0         96         68   libspace.o
        38          0          0          0          0         68   llshl.o
       238          0          0          0          0        100   lludivv7m.o
        38          0          0          0          0         68   llushr.o
         8          4          0          0          0         68   rt_errno_addr_intlibspace.o
         2          0          0          0          0          0   rtexit.o
        10          0          0          0          0          0   rtexit2.o
        12          4          0          0          0         68   sys_exit.o
        74          0          0          0          0         80   sys_stackheap_outer.o
         2          0          0          0          0         68   use_no_semi.o
        98          4          0          0          0         92   d2f.o
       826         16          0          0          0        348   daddsub_clz.o
        16          4          0          0          0         68   dcheck1.o
       688        140          0          0          0        208   ddiv.o
        94          4          0          0          0         92   dfix.o
        90          4          0          0          0         92   dfixu.o
        84          0          0          0          0        136   dflt_clz.o
       340         12          0          0          0        104   dmul.o
       156          4          0          0          0         92   dnaninf.o
        12          0          0          0          0         68   dretinf.o
       460         56          0          0          0        120   dsqrt_noumaal.o
        86          4          0          0          0         84   f2d.o
       430          8          0          0          0        168   faddsub_clz.o
        24          0          0          0          0         68   fcmpi.o
       388         76          0          0          0         96   fdiv.o
       104          4          0          0          0         84   feqf.o
        62          4          0          0          0         84   ffixu.o
        48          0          0          0          0         68   fflt_clz.o
       104          4          0          0          0         84   fleqf.o
       258          4          0          0          0         84   fmul.o
       140          4          0          0          0         84   fnaninf.o
        10          0          0          0          0         68   fretinf.o
        98          0          0          0          0         68   frleqf.o
       100          0          0          0          0         68   retnan.o
        92          0          0          0          0         68   scalbn.o
        48          0          0          0          0         68   trapv.o
         0          0          0          0          0          0   usenofp.o
       156          8          0          0          0        104   cos.o
       252         22         48          0          0        124   cos_i.o
        34          6          0          0          0        204   dunder.o
        40          0          0          0          0         68   fpclassify.o
       170          0          0          0          0         96   poly.o
       904         76        200          0          0        140   rred.o
       160         10          0          0          0        108   sin.o
       236         12         40          0          0        128   sin_i.o
        76          0          0          0          0         84   sqrt.o
       100         10          0          0          0         96   tan.o
       636         50         96          0          0        168   tan_i.o

    ----------------------------------------------------------------------
      8266        566        384          0        100       4964   Library Totals
        36          0          0          0          4          0   (incl. Padding)

    ----------------------------------------------------------------------

      Code (inc. data)   RO Data    RW Data    ZI Data      Debug   Library Name

       610         20          0          0         96        980   c_w.l
      4856        352          0          0          0       2664   fz_ws.l
      2764        194        384          0          0       1320   m_ws.l

    ----------------------------------------------------------------------
      8266        566        384          0        100       4964   Library Totals

    ----------------------------------------------------------------------

==============================================================================


      Code (inc. data)   RO Data    RW Data    ZI Data      Debug   

     41070       3522      35362        220      36420     426590   Grand Totals
     41070       3522      35362        220      36420     426590   ELF Image Totals
     41070       3522      35362        220          0          0   ROM Totals

==============================================================================

    Total RO  Size (Code + RO Data)                76432 (  74.64kB)
    Total RW  Size (RW Data + ZI Data)             36640 (  35.78kB)
    Total ROM Size (Code + RO Data + RW Data)      76652 (  74.86kB)

==============================================================================

