:020000040800F2
:10000000208F0020CD010008D5010008D70100088D
:10001000D9010008DB010008DD0100080000000034
:10002000000000000000000000000000DF010008E8
:10003000E101000800000000E3010008E5010008FC
:10004000E7010008E7010008E7010008E7010008F0
:10005000E7010008E7010008E7010008E7010008E0
:10006000E7010008E7010008E7010008E7010008D0
:10007000E7010008E7010008A9120008E7010008ED
:10008000E7010008E7010008E7010008E7010008B0
:10009000E7010008E7010008E7010008AD1C0008BF
:1000A000E7010008E7010008E7010008E701000890
:1000B0002D4900084D4A0008E7010008E701000843
:1000C000E7010008E7010008E7010008E701000870
:1000D000E701000825520008E7010008E7010008D1
:1000E000D91B0008E7010008E7010008E701000844
:1000F000E7010008E7010008E7010008E701000840
:10010000E7010008E7010008E7010008E70100082F
:10011000E7010008E7010008E7010008E70100081F
:10012000E7010008E7010008E7010008E70100080F
:1001300000F002F800F03AF80AA090E8000C8244BF
:100140008344AAF10107DA4501D100F02FF8AFF29C
:10015000090EBAE80F0013F0010F18BFFB1A43F0A5
:10016000010318473429010054290100103A24BF23
:1001700078C878C1FAD8520724BF30C830C144BF0C
:1001800004680C607047000000230024002500264E
:10019000103A28BF78C1FBD8520728BF30C148BFEA
:1001A0000B6070471FB51FBD10B510BD00F0E2F821
:1001B0001146FFF7F7FF10F0E5FB00F000F903B47C
:1001C000FFF7F2FF03BC00F001F900000948804787
:1001D00009480047FEE7FEE7FEE7FEE7FEE7FEE729
:1001E000FEE7FEE7FEE7FEE704480549054A064B41
:1001F000704700006D47000831010008D80C00204E
:10020000208F0020D80E0020208B002053EA020C03
:1002100000F069802DE9F04B4FF00006002B1FBF66
:10022000B3FA83F503FA05F424FA05F65E4012BF2B
:100230001643B2FA82F502FA05F4C5F120051EBF95
:1002400022FA05FC44EA0C04203556EA044C4FEA35
:10025000144418BF641C4FF000084FF0000990428E
:1002600071EB030C39D3002919BFB1FA81F701FAF8
:1002700007F6B0FA80F700FA07F6C7F120071EBFAD
:1002800020FA07FC46EA0C062037B6FBF4FCA7EB85
:100290000507103F07F01F0BCBF120060CFA0BFBF4
:1002A0002CFA06F644BFB3460026202FA4BF5E46B4
:1002B0004FF0000B5BEA060C08BF4FF0010B19EB87
:1002C0000B09ABFB027C48EB0608C01B06FB02CC0B
:1002D0000BFB03CC71EB0C01C1E70B460246414618
:1002E0004846BDE8F08B13B54FF000004FF0000119
:1002F000AFF30080BDE81C407047B2F120030AD57F
:10030000C2F1200301FA02F120FA03F300FA02F02D
:1003100041EA0301704700FA03F14FF00000704713
:10032000B2F120030AD5C2F1200320FA02F001FA4B
:1003300003F321FA02F140EA0300704721FA03F0C7
:100340004FF00001704770477047704710B500F0DC
:1003500009F8006810BD10B5044600F003F8046009
:1003600010BD000000487047740C00200048704722
:10037000740C00207546FFF7F9FFAE46050069468C
:10038000534620F00700854618B020B5FFF72CFF34
:10039000BDE820404FF000064FF000074FF0000886
:1003A0004FF0000B21F00701AC46ACE8C009ACE807
:1003B000C009ACE8C009ACE8C0098D4670470446E6
:1003C000AFF300802046FFF7FAFE00000149182035
:1003D000ABBEFEE72600020070470000104810B5D3
:1003E0000179C90717D00EF0B9F9C11700EB5173A5
:1003F0000C4901EBE30223F00703C31A0A48117802
:10040000185C014204D008480830185C014000E044
:100410000143117010BD416D091D416510BD000003
:100420004000002000100020072901080A4A02EBC2
:10043000D00100F007000A780849085C0849024228
:10044000087904D0C20702D040F0010001E000F0BA
:10045000FE00087170470000001000200729010805
:10046000400000202DE9F041264D274F686D3844AB
:10047000C0F34F0003F0A6F9244ED0B1686D008898
:1004800020F4504003F05EF908B100242BE0686DC1
:100490000124C1194810C21700EB527006EBE002AC
:1004A00020F00700C0EB610019491378405C03405D
:1004B00018E0686D0024008820F4504003F042F9F1
:1004C00088B1686DC1194810C21700EB527006EB75
:1004D000E00220F00700C0EB61000D4913780839F5
:1004E000405C034313702879C10703D014B140F076
:1004F000010001E000F0FE002871686D801C686555
:10050000BDE8F08140000020A49FFFF75083002049
:100510000F2901082DE9F041264D274F686D384419
:10052000C0F34F0003F04EF9244EC0B1686D0024B3
:10053000008820F4504003F005F950BB686DC119E4
:100540004810C21700EB527006EBE00220F00700E3
:10055000C0EB61001A491378405C034018E0686DF5
:10056000008820F4504003F0EDF898B1686D012444
:10057000C1194810C21700EB527006EBE00220F0E0
:100580000700C0EB61000E4913780839405C034353
:10059000137000E000242879C10703D014B140F0A3
:1005A000010001E000F0FE002871686D801C6865A4
:1005B000BDE8F08140000020A49FFFF75083002099
:1005C0000F2901080A4A02EBD00100F007000A785F
:1005D0000849085C08490242087904D1C20702D0E0
:1005E00040F0010001E000F0FE00087170470000DB
:1005F00000100020072901084000002010B5174C0A
:100600002079C1072046406D24D0A0650EF04EFD34
:100610004FF47A7190FBF1F290FBF1F301FB1300C0
:10062000642190FBF1F3120342EA032290FBF1F301
:1006300001FB13000A2190FBF1F342EA031290FB45
:10064000F1F301FB130012B202432266BDE8104031
:1006500010F098BC0830606510BD0000400000201C
:1006600010B5144C2079C1072046406D1ED0A065FE
:100670000EF01CFDC0F303324FF47A714A43C0F30D
:10068000032101EBC10303EB011102EB8102C0F373
:10069000031101EB810102EB410100F00F0008445E
:1006A00000B22066BDE8104010F06CBC08306065F8
:1006B00010BD0000400000202DE9F047DFF888C0A1
:1006C0009CF80410C9070FD09CF80B10204FDFF8DE
:1006D0007C9000F0070507EBD002012906D01078C6
:1006E00019F8051008431070BDE8F087DFF85C804A
:1006F000002008F10808DFF85CA09CF80D600CE011
:100700003AF8103007EBD30103F007030C7818F820
:1007100003301C40401C0C70C0B2B042F0D9BCF891
:100720001E0007EBD00100F007000B7818F800005E
:1007300003400B70117819F8050001431170002077
:100740008CF80D00D0E700004000002007290108C8
:1007500000100020A005002010B5012003F006FCC9
:10076000BDE81040002003F001BC000008B50249BC
:1007700008440090008808BD006C004008B5024A9B
:1007800010440090016008BD006C00402DE9F0416C
:100790001D4D2879C00733D00EF088FC286610F074
:1007A000F1FB0EF083FC0746686D4FF6FF76001FE5
:1007B0000124686515E0687A01281BD006EA440028
:1007C000E881686D083868650EF070FC2866287A44
:1007D000012812D006EA4400E88110F0D3FB641C23
:1007E00024B2BC42E7DB686D001D68650020E8812B
:1007F000BDE8F08106EA0410E2E706EA0410EBE740
:10080000686D0C306865F3E7400000200346012165
:1008100001E05B084900002BFBD121B1024600201A
:10082000491E0EF089B84FF0FF307047F0B5124DF9
:1008300080236A6D921C6A651188B3EB112F19D160
:100840000E4B3E21A3F5017403EB410733F8116011
:100850007E8054F8216004EB8107491E7E6011F010
:10086000FF01F1D12979198005494008226051F82A
:1008700020006865F0BD000040000020E404002076
:10088000DC00002070B5214C214D606D2844C0F380
:100890004F0002F097FF002820791E4B4FEAC070EE
:1008A00001D0E0B12DE060B3616D4A195010C4175A
:1008B00000EB547003EBE00320F00700C0EB620094
:1008C000154A1C78805C04431C7008888821B1EBB1
:1008D000102F19D1BDE87040C0B2FFF7A7BF606DFF
:1008E00041194810C21700EB527003EBE00220F0F0
:1008F0000700C0EB6100084913780831405C0340F1
:100900001370606D001D606570BD00004000002028
:10091000A49FFFF75083002007290108074A80237E
:10092000516D891C51650988B3EB112F05D104491C
:10093000400851F82000801C50657047400000209E
:10094000DC00002070B5214C214D606D2844C0F3BF
:100950004F0002F037FF002820791E4B4FEAC0708D
:1009600001D0E0B12DE060B3616D4A195010C41799
:1009700000EB547003EBE00320F00700C0EB6200D3
:10098000154A1C78805C04431C7008888821B1EBF0
:10099000102F19D1BDE87040C0B2FFF7BFBF606D26
:1009A00041194810C21700EB527003EBE00220F02F
:1009B0000700C0EB6100084913780831405C034030
:1009C0001370606D001D606570BD00004000002068
:1009D000A49FFFF750830020072901082DE9F04765
:1009E000314C2079C0075AD00EF060FB81460EF0E2
:1009F0005DFB80460DF0B2FEFF2100B22170C117F1
:100A00002A4D00EB517105EBE10421F00701284A62
:100A1000471A2378B95C00F1010C0B402370411C8C
:100A2000CB1701EB537605EBE60326F00706ACEB9C
:100A30000606197816F802C001EA0C011970811C2B
:100A40004FEAE17C01EB5C7105EBE10521F0070168
:100A5000801C411A95F800C0885C4246DFF850803F
:100A60000CEA000C85F800C0A8F10808914507DDE4
:100A7000207817F8081040EA01002070BDE8F087E0
:100A800006D1187816F8081040EA01001870F5E74A
:100A900011F808004CEA000C85F800C0EEE7606D24
:100AA00000F10C006065E9E7400000200010002024
:100AB0000F2901082DE9F047494E4A4C706D20443A
:100AC000C0F34F0002F07EFE00283079464A474DC1
:100AD0004FEAC07002D0002869D07CE000287AD0AC
:100AE000706D01194810C31700EB537002EBE00260
:100AF0003E4C20F00700C0EB6100083C1378005D1D
:100B0000034313700EF0D2FA82460EF0CFFA8046FD
:100B10000DF024FEFF2100B23170C117344A00EB02
:100B2000517102EBE10321F00701A0EB01091E78EE
:100B300019F8051000F1010C0E401E70411CCE1773
:100B400001EB567702EBE70627F00707ACEB070748
:100B5000317817F805C001EA0C013170811C4FEAA9
:100B6000E17C01EB5C7102EBE10221F00701801CEA
:100B7000411A92F800C0485DC2450CEA000C82F8A8
:100B800000C007DD187819F8041040EA0100187059
:100B9000BDE8F08705D13078395D40EA010030705A
:100BA000F6E7085D4CEA000C82F800C0F0E7706DD3
:100BB00000EB04014FEA61004FEAE07300EB537071
:100BC00002EBE00220F00700C0EB61001378405D0B
:100BD00003EA00031370706D00F10C007065D7E735
:100BE00040000020A49FFFF7508300200F29010838
:100BF000001000200F4B596D11F8020BC0F3460096
:100C00009883596509880A0A862A02D0882A0AD157
:100C100003E0C9B200EBC11004E0C9B200EBC1109F
:100C200000F57A7098831879C00701D00EF070BD76
:100C30000EF0BCBC40000020034A08B51044083048
:100C40000090016008BD000000740040034A08B530
:100C5000104414300090016008BD00000074004092
:100C60000209054B012090400029196801D0014379
:100C700000E08143196070470474004010B50A4CCD
:100C80000020B4F8A018FFF7D7FFB4F8A21800208E
:100C9000FFF7DCFF01210020FFF7E2FF0121BDE8A3
:100CA00010401020FFF7DCBF002000202DE9F047A6
:100CB0002D490879C2070846406D50D0894688659D
:100CC0000DF078FF0A2190FBF1F393FBF1F401FBA7
:100CD0001433642490FBF4F494FBF1F501FB154408
:100CE0004FF47A7590FBF5F595FBF1F601FB16557F
:100CF00042F2107690FBF6F696FBF1F701FB1766D1
:100D00001A4F90FBF1F290FBF7F797FBF1FC01FB18
:100D10001C77DFF85CC001FB120290FBFCFC9CFB23
:100D2000F1F801FB18CCDFF84C8090FBF8F090FB59
:100D3000F1F801FB18000CEB0010000600EB075067
:100D400000EB064000EB053000EB042000EB031045
:100D50008118C9F86010BDE8F04700F069BC103098
:100D60004865BDE8F087000040000020A086010033
:100D700040420F00809698002DE9F0473C490879E1
:100D8000C2070846406D6FD0894688650DF012FF96
:100D9000C21700EB127121F00F03C51A0911CB170E
:100DA00001EB137323F00F03CE1A00EB126109124B
:100DB000CB1701EB137323F00F03CF1A00EB125183
:100DC0000913CB1701EB137300EB124023F00F0351
:100DD0000014A1EB030CC21700EB127121F00F03FA
:100DE0000911CC1701EB147424F00F040C1B00EB59
:100DF0001261C31A00EB12500013C21700EB1272FB
:100E000022F00F020912801A4FEAE178194A01EB29
:100E1000187828F00F085043A1EB080143F6095257
:100E2000514300EB811040F635414C4340F27121B3
:100E30004B4300EB44100CEB4C0100EB0310C1EBF7
:100E4000CC1100EBC10007EBC70101EB071100EB70
:100E5000810006EB860100EB41004119C9F86010E2
:100E6000BDE8F04700F0E4BB10304865BDE8F0870E
:100E700040000020809698002DE9F041304C207908
:100E8000C00758D00DF096FE20630DF093FE60630E
:100E90000DF064FCFF2100B22170C11700EB51720C
:100EA0002849471C01EBE20322F00702A0EB020EE7
:100EB000254A1D781EF8026035401D70451CEE174E
:100EC00005EB567601EBE60526F00706BE1B95F806
:100ED00000C0B75C0CEA070C871C85F800C04FEA1D
:100EE000E77C07EB5C7701EBE70127F00707801C45
:100EF000C01B91F800C0825C0CEA020C81F800C0B3
:100F0000D4E90C74104A083AA74207DD18781EF895
:100F1000021040EA01001870BDE8F08105D1287880
:100F2000B15C40EA01002870F6E7805C4CEA000CF6
:100F300081F800C0F0E7606D00F118006065EBE734
:100F400040000020001000200F2901082DE9F04783
:100F50004C4C4D4D606D2844C0F34F0002F032FC04
:100F600000282079494A4A4E4FEAC07002D0002832
:100F70006DD082E000287CD0606D41194810C31705
:100F800000EB537002EBE002414D20F00700C0EB94
:100F90006100083D1378405D034313700DF00AFEB5
:100FA000A0630DF007FEE0630DF0D8FBFF2100B257
:100FB0002170C11700EB5177364901EBE70327F0A9
:100FC0000707A0EB070A1A781AF806703A401A7059
:100FD000421CD71702EB577801EBE802471C28F0B8
:100FE0000708A7EB080892F800C018F806700CEA8A
:100FF000070C871C82F800C04FEAE77C07EB5C7C9B
:101000002CF00707801C01EBEC01C01B91F800904D
:10101000865D09EA060981F80090D4E90E64A642CB
:1010200007DD18781AF8051040EA01001870BDE8CD
:10103000F08706D1107818F8051040EA010010700A
:10104000F5E7405D49EA000981F80090EFE7606D3F
:1010500000EB05014FEA61004FEAE07300EB5370CB
:1010600002EBE00220F00700C0EB61001378805D26
:1010700000E002E003EA00031370606D00F1180065
:101080006065D4E740000020A49FFFF75083002054
:101090000F2901080010002070B5164D2879C007EF
:1010A00023D00DF087FD04B20DF084FD00B294FB57
:1010B000F0F105F16806316094FBF0F100FB11409E
:1010C000341D20600DF04AFB696D00B2091D696591
:1010D0000949328821F8102001EB400072884280D3
:1010E000218881806188C18070BD686D1830686515
:1010F00070BD0000400000200010002070B5214CA1
:10110000214D606D2844C0F34F0002F05BFB0028C6
:1011100020791E4A4FEAC07001D0E8B12EE068B3D2
:10112000606D41194810C31700EB537002EBE002E9
:1011300020F00700C0EB610015491378405C0343C1
:1011400013700DF0B3FF401E2066606D001F6065D8
:10115000BDE870400FF016BF606D41194810C3170D
:1011600000EB537002EBE00220F00700C0EB6100DF
:10117000074913780831405C03401370606D001D0F
:10118000606570BD40000020A49FFFF750830020E1
:101190000729010810B50DF001FB04490968016039
:1011A00002486438416D091D416510BDA40000204E
:1011B0002DE9F041154D2879C00722D00DF0FAFC39
:1011C000286600F035FA0DF0F5FC06B2686D4FF6B2
:1011D000FF770838012468650CE0287A012812D0CE
:1011E00007EA8400E881686D0838686500F020FA35
:1011F000641C24B2B442F0DB686D001D68650020F9
:10120000E881BDE8F08107EA4410EBE740000020E8
:1012100070B5214C214D606D2844C0F34F0002F0A1
:10122000D1FA002820791E4A4FEAC07001D0E8B1F7
:101230002EE068B3606D41194810C31700EB53707E
:1012400002EBE00220F00700C0EB610015491378C3
:10125000405C034313700DF0ADFC616D0839801CD8
:1012600061652066BDE8704000F0E2B9606D41192B
:101270004810C31700EB537002EBE00220F00700A8
:10128000C0EB6100074913780831405C03401370DC
:10129000606D0830606570BD40000020A49FFFF7BE
:1012A00050830020072901080648416841F4005195
:1012B0004160416C4FF6FE721140416402490120C9
:1012C00008707047000002401600002001684FF6C9
:1012D000FE72114001600021016041608160C160C7
:1012E0003149314A0839904203D1486840F00F0033
:1012F00006E02D4A1432904204D1486840F0F000D4
:1013000048607047284A2832904203D1486840F428
:101310007060F5E7244A3C32904203D1486840F4BB
:101320007040EDE7204A5032904203D1486840F4C3
:101330007020E5E71C4A6432904203D1486840F4CB
:101340007000DDE7184A7832904203D1486840F0D7
:101350007060D5E7154A111F904203D1086840F02C
:101360000F0006E0114A1432904204D1086840F0A0
:10137000F000086070470D4A2832904203D1086897
:1013800040F47060F5E7094A3C32904203D10868A6
:1013900040F47040EDE7054A50329042EAD10868C7
:1013A00040F47020E5E70000080002400804024015
:1013B000002A026801D00A4300E08A4302607047B5
:1013C00030B5026847F6F0739A430C6A8B68234382
:1013D000D1E904452C4323438C692343CC6923433F
:1013E0004C6A23438C6A234313430360CA684260F8
:1013F0000A6882604968C16030BD000070B5134E54
:101400003079C0071DD00DF0D5FB05460DF0D2FB9D
:10141000454306F18004E817C4E900500DF09EF939
:10142000716D00B2091D71650949228821F81020EB
:1014300001EB400062884280A1888180E188C18000
:1014400070BD706D1830706570BD000040000020E8
:1014500000100020810B104807D001290AD0022972
:101460000DD0032910D000207047B0F83818B0F81C
:101470003A080DE0B0F86C19B0F86E0908E0B0F861
:10148000700900EB00407047B0F87419B0F87209A9
:1014900001EB00407047000000200020810B114844
:1014A0000AD001290DD002460229B2F882290FD0B4
:1014B000032910D000207047B0F8781990F87A0905
:1014C00003E0B0F87C1990F87E0901EB004006E0DB
:1014D000B0F8800901E0B0F8840900EB024080B266
:1014E00070470000002000202DE9F05F324E307977
:1014F000C0075CD00DF05EFB83460DF05BFB05463C
:101500000DF058FB04460DF029F9FF213170C11789
:101510002A4B00EB517103EBE10221F00701284E49
:10152000A0EB010A17781AF806100F401770411C3B
:10153000CF1701EB577803EBE801471C28F00708A9
:10154000A7EB080891F800C018F806700CEA070C21
:10155000871C81F800C04FEAE77C07EB5C7C2CF02D
:101560000707801C03EBEC03C01B93F80090865D1B
:1015700009EA0609124E83F80090083EA34506DDED
:1015800010781AF8061008431070BDE8F09FAC42BE
:1015900005DC087818F8062010430870F5E7A54226
:1015A000F3DA805D49EA000983F80090EDE7706D99
:1015B00020307065E9E700004000002000100020A6
:1015C0000F29010830B5194B596D31F8022B140A57
:1015D000803C092C15D2DFE804F005140B14161416
:1015E0001C14220000EB022080B24FF4E06204E001
:1015F00000EB022080B24FF4006202EB50009882B0
:101600005965988A30BD00EB022080B24FF4A06289
:10161000F3E700EB022080B24FF48052EDE700EBDD
:10162000022080B241F2E832E7E7000040000020EB
:101630002DE9F047834DDFF81092DFF810826A6DD4
:1016400032F8021B6A65108801F47F4343EA1024D4
:101650004FF6FF7303EA0026CBB2EB6533434AF241
:101660008746A11BB4426ED043DC2F4648F2826C01
:10167000396EFF89A4EB0C0664456BD021DC48F27F
:101680008A48A4EB080C4FF00106444558D00BDC07
:10169000A4F28244B4F5004440D0022C41D0042C82
:1016A00048D0062C78D148E0BCF1020F48D0BCF1FC
:1016B000040F45D0BCF1060F42D0BCF5FB7F6BD1C7
:1016C00042E041F6016CA6EB0C0066456DD009DCEA
:1016D000022E46D0042E4AD0062E4DD0B6F5F05F2D
:1016E0005AD15EE001285CD002285ED0032853D195
:1016F00057E00A2959D007DC4ED2DFE801F04D52FD
:101700005652565256525652A1F2FB11082943D254
:10171000DFE801F04F53616574788589C2B2822099
:1017200001E0C2B2842001F099F8686D801C686500
:101730002E7231E0C2B28620F5E7C2B28820F2E70D
:10174000C2B2E0B2EFE730E0D81900F12020C0F8D3
:10175000001803E0D81900F120200BE0921C6A6504
:101760001AE03B4403EB0900C0F8001AF6E73B44DB
:1017700003EB08000160F1E73B4403EB0800C0F80D
:10178000D017EBE7E865E0B2C3F30522296E01F05C
:1017900065F8686D801C6865686D001D6865BDE84A
:1017A000F0871846FFF756FEECE71846FFF776FE7F
:1017B000E8E71846FFF74EFE02E01846FFF76EFE18
:1017C000C3F30D0101EB4000B5F8601000F12020DB
:1017D00089B20160DDE71846FFF73CFE02E01846DB
:1017E000FFF75CFEC3F30D0101EB4001B5F86000AB
:1017F00082B201EB0900C0F8002ACAE71846FFF7D9
:1018000029FE02E01846FFF749FEC3F30D0101EB84
:101810004001B5F8600082B241F80820B9E71846E7
:10182000FFF718FE02E01846FFF738FEC3F30D017C
:1018300001EB4001B5F8600082B201EB0800C0F88E
:10184000D027A6E740000020001000200030002034
:1018500010B50DF0AFF904460DF0ACF90E4AD17A8F
:10186000012911794FEA41614FEA1161117102D0EA
:1018700084420DD010BD8442FCD1D08B074C04EBC8
:10188000D003074C00F007001B78205C0342F1D026
:1018900041F00100107110BD400000200010002038
:1018A0000729010810B50DF085F904460DF082F9FD
:1018B0000E4AD17A012911794FEA41614FEA11614B
:1018C000117102D084420DDB10BD8442FCDDD08B4F
:1018D000074C04EBD003074C00F007001B78205C9A
:1018E0000342F1D041F00100107110BD4000002012
:1018F000001000200729010810B50DF05BF904461F
:101900000DF058F90E4AD17A012911794FEA416157
:101910004FEA1161117102D084420DDA10BD844288
:10192000FCDBD08B074C04EBD003074C00F0070026
:101930001B78205C0342F1D041F00100107110BD12
:1019400040000020001000200729010810B50DF00C
:1019500031F904460DF02EF90E4AD17A0129117998
:101960004FEA41614FEA1161117102D084420DDBEF
:1019700010BD8442FCDAD08B074C04EBD003074C3B
:1019800000F007001B78205C0342F1D041F0010019
:10199000107110BD40000020001000200729010830
:1019A00010B50DF007F904460DF004F90E4AD17A8E
:1019B000012911794FEA41614FEA1161117102D099
:1019C00084420DDD10BD8442FCDCD08B074C04EB5F
:1019D000D003074C00F007001B78205C0342F1D0D5
:1019E00041F00100107110BD4000002000100020E7
:1019F0000729010810B50DF0DDF804460DF0DAF8FE
:101A00000E4AD17A012911794FEA41614FEA1161F9
:101A1000117102D084420DD110BD8442FCD0D08B14
:101A2000074C04EBD003074C00F007001B78205C48
:101A30000342F1D041F00100107110BD40000020C0
:101A400000100020072901082DE9F05F364CDFF86F
:101A5000DC80374D2079C00762D00DF057F8A062C6
:101A60000DF054F8E0620CF079FEFF2100B2217015
:101A7000C11700EB517105EBE10721F00701A0EB65
:101A8000010B08F108013A781BF801301A403A704E
:101A9000421CD31702EB537205EBE206431C22F003
:101AA0000702A3EB020A96F800C01AF801200CEA1C
:101AB000020C821CD31702EB537205EBE20522F0F5
:101AC0000702801C86F800C0A0EB020995F800C050
:101AD00019F801000CEA000C85F800C0D4E90A01ED
:101AE00010F0BCFC06D238781BF808100843387098
:101AF000BDE8F09FD4E90A0110F044FB05D130782D
:101B00001AF8081008433070F2E7D4E90A0110F01F
:101B1000A5FBEDD2287819F8081008432870E7E7EC
:101B2000606D18306065E3E7400000200729010878
:101B30000010002070B50B4DE88901F0A5FC0A49A2
:101B400001EBD004E88901F09FFC084900F0070090
:101B5000085C217808400649207006204870012062
:101B6000A88170BD16000020001000200F29010878
:101B70008C7E002070B5144D0922144CE98908466A
:101B80002339B1F5C04117D0012915D0022916D04B
:101B900001F07AFC04EBD004E88901F075FC0C49F3
:101BA00000F00700085C21780843207009490620EE
:101BB00048700120A88170BD84F8E021F6E70A2072
:101BC00084F8E001F2E70000160000200010002079
:101BD000072901088C7E00202DE9F0414FF4805840
:101BE000404600F003F92C4D2B4F2A4C2E1D0C378C
:101BF00068B300F071F9B4F8DC0101052748016809
:101C000001D4491E00E0491C0160B4F8DE012449FA
:101C100082070A6801D4521E00E0521C0A6094F840
:101C20004012490607D5C1061E48016801D4491E65
:101C300000E0491C01602868401C28603068401C96
:101C400030603868401C3860404600F0C9F84FF4F6
:101C50000068404600F0CAF8002819D000F05AF990
:101C6000B4F8DC01C1041048016801D4491E00E049
:101C7000491C01602868401E28603068401E3060A2
:101C80003868401E38604046BDE8F04100F0A8B812
:101C9000BDE8F08100100020BC5C0020905C0020BA
:101CA000A85C0020B45C0020945C00202DE9F04189
:101CB0004FF40075284600F099F8414C10B3B4F881
:101CC000DC0181043F48016801D4491E00E0491C41
:101CD0000160B4F8DE113C484A07026801D4521E84
:101CE00000E0521C026094F84002000607D5374815
:101CF0008906016801D4491E00E0491C016028469C
:101D000000F06EF84FF48077384600F06FF82F4DF2
:101D10002E4E0C351436B0B1B4F8DC0141042C4819
:101D2000016801D4491E00E0491C01602868401C7C
:101D3000286094F84002000602D53068401C3060EC
:101D4000384600F04DF8802000F050F810B3B4F899
:101D50004002410609D5B4F8DC110A041D490A689D
:101D600001D4521E00E0521C0A6094F8DE110A07EA
:101D700019490A6801D4521E00E0521C0A60296801
:101D8000491E2960000602D53068401E3060802060
:101D900000F026F8402000F029F800280ED094F832
:101DA000DE01C1070D48016806D0491C0160BDE88D
:101DB000F041402000F014B8491EF7E7BDE8F0817B
:101DC00000100020985C0020AC5C0020B85C002073
:101DD0009C5C0020A05C0020B05C0020A45C002083
:101DE000014908607047000014040140064A01469A
:101DF00000201268044B0A4014331B680B4202D0C7
:101E0000002A00D001207047000401402DE9FC5F4A
:101E10002E4D2F4F2F4C2879C00752D00CF076FE54
:101E200001900CF073FE00900CF070FE83460CF0F5
:101E300095FCFF21297004EBD00600F0070A07F19A
:101E40000802337812F80A100B40411C337004EB7F
:101E5000D10501F007092B7812F80910801C0B40FE
:101E60002B7004EBD00400F00708217812F808006A
:101E7000014021705946019810F0F0FA06D23178ED
:101E800017F80A0001433170BDE8FC9F59460198DC
:101E900010F0E4F90AD85846009910F0DFF905D897
:101EA000287817F8091008432870EDE7594600987C
:101EB00010F0D4F9E8D2207817F808100843207001
:101EC000E2E7686D20306865DEE700004000002032
:101ED000072901080010002070B50C4D4FF4805107
:101EE000284600F0D7F9E914094C0028284603D009
:101EF00000F0D0F918B106E000F0CCF918B1206874
:101F0000401C206070BD2068401EFAE700080140B8
:101F1000D05C002070B50C4D4FF40061284600F0F5
:101F2000B9F9A914094C0028284603D000F0B2F9E9
:101F300018B106E000F0AEF918B12068401E20602C
:101F400070BD2068401CFAE700080140D05C00200A
:101F50002DE9F04100260546012827D100200CF08C
:101F600007FD22480F214FF6FF72A0F8B810A0F825
:101F7000BA605E214FF4006320F81120491C89B239
:101F80009942F9D300F092F8194800F03BF800208C
:101F90000FF0D2F9174F012407EBC42000F032F8FC
:101FA000641CA4B20A2CF7D300F05EF81249022D8B
:101FB00008D1680347F67E6221F81060801C80B269
:101FC0009042F9D3032D06D1002021F81060801C27
:101FD00080B2BE28F9D3094906204870084801217B
:101FE000818105210171BDE8F0810000886E00202B
:101FF0000068000800600008001000208C7E0020AF
:102000001600002070B505464FF43026304600F02B
:1020100059F8042811D1094C206940F002002061D0
:102020006561206940F040002061304600F04AF8C8
:10203000216941F6FD721140216170BD002002400E
:1020400008490420CA68D20701D001207047CA6835
:10205000520701D502207047C968C906FBD5032085
:1020600070470000002002400248016941F08001F1
:102070000161704700200240F0B506464FF400575A
:102080000D46384600F01EF804280CD1064C206995
:1020900040F0010020613580384600F013F82169D6
:1020A000BA1E11402161F0BD0020024003480249E0
:1020B00041600349416070472301674500200240A9
:1020C000AB89EFCD00B50346FFF7BAFF02E0FFF79B
:1020D000B7FF5B1E012803D0002B00D1052000BDF7
:1020E000002BF4D1FAE700002DE9F041174D2879D3
:1020F000C00727D00CF0DAFF28660EF043FF0CF083
:10210000D5FF0646686D4FF6FF77001F012468650E
:102110000CE0287A012812D007EA4400E881686DB3
:10212000001F68650EF02EFF641C24B2B442F0DB81
:10213000686D001D68650020E881BDE8F08107EA50
:102140000410EBE7686D0C306865F6E7400000208E
:1021500070B5114D2879C0071DD0104C002694F899
:102160003800062803D2401C84F8380001E084F8C7
:1021700038600CF09BFF94F83810401E04EB4101CE
:10218000488594F83810686D44F8210094F83800B8
:1021900004EB4000868370BD4000002064050020F1
:1021A000F0B5CC78002204F00F03E40601D58C785A
:1021B00023430C784FF00F0C14F0FF0F4FF0010E7B
:1021C0001BD005680E880EFA02F42640A64210D1F4
:1021D00096000CFA06F725EA070703FA06F5CE780B
:1021E0003D43282E02D0482E02D002E0446100E098
:1021F0000461521C082AE5D305600A88FF2A1CD90D
:102200004468002202F108060EFA06F50E882E40F8
:10221000AE420ED196000CFA06F7BC4303FA06F75D
:10222000CE783C43282E00D14561CE78482E00D18F
:102230000561521C082AE5D34460F0BDF0B5144C8A
:10224000002801DAE36900E06368450D2E0185B2DC
:10225000C0F30157B540C0F30342032F05D0C602B7
:102260000AD503269640B34307E023F07062636803
:1022700023F07063636002E0AB4343F0706201B12E
:102280002A43002801DAE261F0BD6260F0BD00007F
:10229000000001400246002092680A4200D001205E
:1022A00070470346012101E05B084900002BFBD188
:1022B00021B102460020491E0EF01CBB4FF0FF303A
:1022C0007047000070B5214C214D606D2844C0F36B
:1022D0004F0001F077FA002820791E4A4FEAC070BB
:1022E00001D0E8B12EE068B3606D41194810C31702
:1022F00000EB537002EBE00220F00700C0EB61003E
:1023000015491378405C034313700CF0CFFE616DE8
:10231000091F401C61652066BDE870400EF032BEAA
:10232000606D41194810C31700EB537002EBE002D7
:1023300020F00700C0EB6100074913780831405CCA
:1023400003401370606D001D606570BD400000208B
:10235000A49FFFF7508300200729010881070CD1B3
:102360006421B0FBF1F201FB120141B94FF4C871D5
:10237000B0FBF1F201FB120008B100207047012010
:102380007047000070B5124C104A04EBD00100F009
:10239000070310460F4D007909784006EB5CD67AAA
:1023A000000E1940012E107101D059B970BD0029DD
:1023B000FCD0D18B04EBD10301F007011B78695CE1
:1023C0000B42F3D040F00100107170BD40000020BE
:1023D00000100020072901082DE9F041324C334F4D
:1023E000606D3844C0F34F0001F0ECF9304D314ED0
:1023F000B0B3E07A012820794FEA40002071606D87
:10240000008820F4504003D001F09CF990B146E0E0
:1024100001F098F9E8BBE08B274A02EBD00100F00D
:1024200007000978305C014239D0207940F0010082
:10243000207122E0207940F001002071606DC11907
:102440004810C21700EB527005EBE00220F00700C5
:10245000C0EB6100174913780831405C03401DE070
:10246000FFE72079400000F0FE002071606D0088D9
:1024700020F4504001F066F958B1606DC119481060
:10248000C21700EB527005EBE00220F00700137852
:1024900000E004E0C0EB6100805D03431370606DF9
:1024A000801C6065BDE8F08140000020A49FFFF71C
:1024B00050830020072901080010002070B5134C3C
:1024C000114A04EBD00100F007031046104D0079CB
:1024D00009784006EB5CD67A000E1940012E107187
:1024E00002D000290ED10AE000290BD1D18B04EBD8
:1024F000D10301F007011B78695C0B4202D040F068
:102500000100107170BD000040000020001000208C
:10251000072901082DE9F0412E4C2F4F606D3844FA
:10252000C0F34F0001F04EF92C4DD0B1207940009E
:102530002071606D008820F4504001F003F9A0BBC9
:10254000606DC1194810C21700EB527005EBE00234
:1025500020F00700C0EB610021491378405C034084
:1025600022E01F4EE07A083E012820794FEA400021
:102570002071606D008820F450401BD001F0E2F81B
:1025800098B1207940F001002071606DC1194810A8
:10259000C21700EB527005EBE00220F00700C0EB21
:1025A00061001378805D03431370606D801C60656B
:1025B000BDE8F08101F0C6F80028F6D0E08B094AAA
:1025C00002EBD00100F007000978305C0142D8D15D
:1025D000EBE7000040000020A49FFFF7508300209D
:1025E0000F290108001000202DE9F0412C4C2F4F3D
:1025F0002C4D20792C4EC1072046406D3844C0F345
:102600004F0013D001F0DEF8C0BB606DC119481057
:10261000C21700EB527005EBE00220F00700C0EBA0
:1026200061001378805D0343137033E001F0CAF852
:102630001D4B1F4A08336FF4D05100B3D4F854C077
:10264000674478104FEAE07E00EB5E7005EBE00532
:1026500020F00700C0EB670095F800E0C05C0EEAD0
:10266000000E85F800E0BCF8000001EAD00111443A
:1026700000F007000A78305C02430AE00AE0606D6F
:10268000008801EAD001114400F007000A78185CC4
:1026900002400A70606D801C6065BDE8F08100003A
:1026A000400000205083002007290108A49FFFF765
:1026B000001000202DE9F041264C294F264D2079AD
:1026C000264EC1072046406D38442FD0C0F34F003E
:1026D00001F078F8234B6FF4D05258B1606D008848
:1026E00002EAD001194400F007000A78305C024089
:1026F0000A7029E0616DCE197010C71700EB577092
:1027000005EBE00520F00700C0EB6600134E2F78C4
:10271000083E805D07432F70088802EAD001194403
:1027200000F007000A78305C0243E1E74110CA1765
:1027300001EB527105EBE10221F00701C1EB6000F2
:102740001378805D03401370606D801C6065BDE888
:10275000F081000040000020508300200F29010874
:10276000A49FFFF7001000202DE9F0472C4F387987
:10277000C00751D00CF012F80646786DB846001D1F
:1027800078650CF093FC87B298F800000021FF28D0
:102790000BD00C46D8F85410B5B208390126A14622
:1027A0004FF6FF7AC8F8541021E0002007E036F910
:1027B000101000F101004D1944EBE17480B2B842F1
:1027C000F5D3D8F854000838C8F8540014E0D8F805
:1027D0005410091FC8F854100AEA0611A8F80E1080
:1027E0000BF0DCFF451949EB0404761CB6B2BE427F
:1027F000EDD3FF2188F800103A46002328462146F1
:10280000FDF704FD4446C8F860000EF0BBFB606DA8
:10281000001D6065BDE8F087786D0C307865F9E7DC
:10282000400000200B4910B5CA6D4FF6FC7342EA18
:102830000020CA89104400F01F02C86503EAD003D3
:102840000A824B8204490448194418584968FDF724
:1028500067FD10BD40000020001000202DE9F04170
:10286000DFF808E14FF6FC76A0F1820CDEF85C4060
:10287000002744EA0222BEF80E40BCF10F0F2244AA
:1028800002F01F0406EAD206CEF85C2059D2DFE837
:102890000CF0085811581C5826582F5838584258D0
:1028A0004C0001F00F0039462246FDF726FD034695
:1028B0000F2006E0C8B239462246FDF71EFD03464A
:1028C000FF20A040C043C51740E0C1F30B003946CC
:1028D0002246FDF712FD034640F6FF70F1E788B28D
:1028E00039462246FDF709FD03464FF6FF70E8E73B
:1028F000C1F3130039462246FDF7FFFC03461C488E
:10290000DFE721F07F4039462246FDF7F6FC03461B
:102910006FF07F40D5E721F0704039462246FDF741
:10292000ECFC03466FF07040CBE708463D4622467C
:102930003946FDF7E2FC03464FF0FF30A040C043AC
:1029400004E0DEF85420921DCEF85420094A094CC8
:10295000B25834440240074864681A4332502C404D
:1029600030440C434460BDE8F0810000400000208A
:10297000FFFF0F00001000202DE9F05F29490879C2
:10298000C0074AD00BF0EAFE04460BF0E7FE834690
:102990000BF0E4FE82460CF089FB1FFA80F900225E
:1029A000214FDFF888C034E00BEB02010CEBD100C3
:1029B00001F007010578795CC2EBC2030D43057095
:1029C0000021534465180CEBD50005F0070500788D
:1029D0007D5D284209D05D180CEBD50005F0070598
:1029E00006787D5D2E4306700DE058180CEBD0057F
:1029F000DFF8348000F0070008F108082E7818F896
:102A0000000006402E70491CC9B20729DAD9521CB1
:102A1000D2B24A45C8D3BDE8F09F486D1030486532
:102A2000F9E70000400000200729010800100020FD
:102A30002DE9F843044600214FF0006000F0B6F89D
:102A40004FF4806000F0A8F825208DF800000025E4
:102A50008DF801508DF802508DF80340684600F063
:102A600069F80E208DF800004FF003088DF8018002
:102A700002208DF8020001268DF80360684600F000
:102A800059F81D208DF8000005208DF801008DF803
:102A900002508DF80340684600F04CF81E208DF877
:102AA000000004278DF801708DF802508DF8034066
:102AB000684600F03FF832208DF8000006208DF8BF
:102AC00001008DF802508DF80340684600F032F89E
:102AD0002E208DF800008DF801508DF802608DF8E1
:102AE0000360684600F026F81C208DF800008DF881
:102AF00001508DF802508DF80340684600F01AF836
:102B000028208DF800008DF801708DF802508DF8A6
:102B10000340684600F00EF817208DF800008DF88D
:102B200001808DF802508DF80340684600F002F8ED
:102B3000BDE8F88330B50F23C27801780125F2B1E2
:102B4000144A126801F1E02102F4E062C2F5E06289
:102B5000120AC2F10404D3404278A24084781C4097
:102B60001443220181F80024007800F01F018D40F9
:102B70004009800000F1E020C0F8005130BD01F0B4
:102B80001F0085404809800000F1E020C0F8805116
:102B900030BD00000CED00E0024908430249086026
:102BA000704700000000FA050CED00E0024A1140F9
:102BB000014302480160704780FFFF1F08ED00E0FD
:102BC0000A4A02EBD00100F007000A780849085CC5
:102BD00008490240087900F001031A4302D040F08E
:102BE000010001E000F0FE000871704700100020B5
:102BF00007290108400000202DE9F041264D274F0C
:102C0000686D3844C0F34F0000F0DCFD244ED0B1B5
:102C1000686D008820F4504000F094FD08B1002455
:102C20002BE0686D0124C1194810C21700EB5270E7
:102C300006EBE00220F00700C0EB610019491378B1
:102C4000405C034018E0686D0024008820F4504088
:102C500000F078FD88B1686DC1194810C21700EB0B
:102C6000527006EBE00220F00700C0EB61000D4956
:102C700013780839405C034313702879C10700D1E9
:102C800014B140F0010001E020F001002871686DEE
:102C9000801C6865BDE8F08140000020A49FFFF71C
:102CA000508300200F2901080B4A02EBD00100F0ED
:102CB00007000A780949085C09490240087900F0D0
:102CC00001035B1E1A4202D140F0010001E000F056
:102CD000FE0008717047000000100020072901085D
:102CE000400000202DE9F041264D274F686D384403
:102CF000C0F34F0000F066FD244EC0B1686D0024A3
:102D0000008820F4504000F01DFD50BB686DC119D3
:102D10004810C21700EB527006EBE00220F00700EB
:102D2000C0EB61001A491378405C034018E0686DFD
:102D3000008820F4504000F005FD98B1686D012432
:102D4000C1194810C21700EB527006EBE00220F0E8
:102D50000700C0EB61000E4913780839405C03435B
:102D6000137000E000242879C10700D114B140F0AD
:102D7000010001E000F0FE002871686D801C6865AC
:102D8000BDE8F08140000020A49FFFF750830020A1
:102D90000F290108F0B5DFF890E0244E71469EF847
:102DA0000C500B79224900F00702A6F1080401EB50
:102DB000D001012D2ED19EF80B50012D04D00A28F0
:102DC00028D2D80728D1F0BD174DDFF864C00A28F3
:102DD000EF8B07F007050CEBD70706D2D807F2D028
:102DE0003878735D1840387016E03F78655D2F4283
:102DF000E9D0DB0714D00B78A25C13430B700D4AAB
:102E00009EF80D1022F81100491C8EF80D10F0BD2F
:102E10000870F0BDD80703D00878A25C1043F7E72C
:102E20000878B25C1040F3E7400000200F29010849
:102E300000100020A005002070B50E4A0E4C0C4872
:102E4000D1789378012601EB032189B2E18100EB6F
:102E5000D10001F00701057816FA01F306D0002130
:102E60000D40057006205070A68170BD0121F7E766
:102E7000001000208C7E00201600002070B50C4A47
:102E80000A480C4CD1789378012501EB032189B2D3
:102E900000EBD100E181037901F0070605FA06F1A4
:102EA0000B43037106205070A58170BD00100020F7
:102EB0008C7E00201600002070B5374B58890B28F7
:102EC00005D13649087937280FD038280DD00DF0B4
:102ED00085FF33498878602854D025DC102839D004
:102EE0001DDC90B301282BD138E02E4A8C794D7926
:102EF000145D555D04EB0514CD79097A555D515C7F
:102F00002D0305EB01212144D981372803D0BDE8E9
:102F10007040FEF70FBEBDE87040FEF72BBE1128D3
:102F200020D041280CD125E063282DD004DC612875
:102F300024D0622804D129E077281FD0872815D013
:102F4000152048700120988170BDFFE7BDE87040F2
:102F500000F074B8BDE8704000F0A4B9BDE870405E
:102F600000F022B8BDE8704000F056B9BDE87040EE
:102F70000BF092BCBDE870400DF03ABCBDE870406B
:102F80000BF0A0BC012002E0022000E00320BDE81D
:102F90007040FEF7DDBF000016000020EE8000202C
:102FA0008C7E0020AE2801082DE9F043DFF87CC0BC
:102FB000DFF87C8002208CF80100B8F810000021B6
:102FC000A0F5004087B2A8F810700846194DDFF848
:102FD000689098F8036011E03B1819F803400CEB77
:102FE000400305EB141204F00F0412789A702C5D64
:102FF000401C22441144DC70C9B280B2B042EBD311
:103000000CEB40020323C91C9370C9B205EB1113EA
:1030100001F00F011B78D370695C1171042101EB81
:103020004000A8F80C00BDE8F08300008C7E002072
:10303000160000209A280108006000082DE9F05FC2
:10304000DFF888A1022100248AF801109AF8041000
:103050009AF8030001EB002080B200F067FADFF875
:1030600070B141F290718842ABF80E0003D0A0F528
:10307000B852D03A74D1884272D1564800252E46B3
:103080000778DFF8548128E008EB460000F580500F
:103090004346B0F8040400F049FA4008A0F5FE41A8
:1030A000E03924D003EB450202F5805233F81010CA
:1030B000A2F890176D1CA0F5C061ADB26E290AD8B8
:1030C00003EB4000418803EB450000F580506D1C88
:1030D000A0F89017ADB2761CF6B2BE42D4D33D48EC
:1030E000801C1035AFB290F80090002536E0761CB9
:1030F000F6B203EB460000F5805003EB4502B0F852
:10310000040402F580526D1C33F81010A2F89017D9
:10311000ADB2CFE7711908EB410000F58050B0F86F
:10312000040400F0B1F9020900F00F0038F8122091
:10313000012101FA00F3934307EB151208EB42005B
:1031400000F5805005F00F03B0F8902701FA03F165
:1031500010D08A436D1CA0F89027EDB24D45D9D30D
:1031600000201E4DD446DFF87890BBF80E709BF817
:10317000036013E00A43EDE73A180CEB400312F842
:103180000910401C05EB111201F00F0112789A7022
:10319000695CD97011442144CCB280B2B042EBD307
:1031A0000AEB400103228A70E41CE2B205EB121321
:1031B00002F00F021B78CB70AA5C0A71042101EBAC
:1031C0004000ABF80C00BDE8F09F00008C7E0020B2
:1031D0001600002000240020001000209A2801087A
:1031E000001000200A48C178807801EB00200949CE
:1031F00080B2C881A0F56060023805D0C82801D02F
:103200000DF05ABD652000E001200DF09BBD0000CF
:103210008C7E0020160000202DE9F0411D4F1F4A32
:103220001D4E3879F97806F1120500EB01200021D6
:103230001170A0F50040F0810C46DFF8648020E0BA
:10324000F0890219D10A29706878814207D13819AA
:103250008379484202EBC02128F811300FE00EF0CC
:103260006BF828780BF084FB28786870F28939199C
:103270002244404202EBC022897928F81210641CD3
:10328000A4B2F0788442DBD3062078700120B081AC
:10329000BDE8F0818C7E0020160000204A0000204E
:1032A000886E002070B50E4D0E4C00232879E97809
:1032B0000D4E00EB0120E08109E0E089184480B266
:1032C00000F034F9E9185B1C897981559BB2E078EC
:1032D0008342F2D3062068700120A08170BD0000F7
:1032E0008C7E0020160000200010002030B50D4913
:1032F00004238A78C87803EB022210440A4A0B4B55
:10330000D081002006E0D5890C1805446479401C62
:10331000EC5480B2D478A042F5D306204870012046
:10332000908130BD8C7E002016000020001000200F
:103330002DE9F04734480079C00763D00BF02EFA2E
:10334000B0F800900BF02AFAB0F900A00BF026FAC2
:1033500004460BF023FAB4F90050B4F90860B4F94C
:10336000188095FBF6FCB4F90E60E7880CFB068C20
:10337000B4F81080B4F90A30B4F90C20A6EB0806B2
:1033800066447E43A683678A04F10E01A7EB090613
:10339000E681B4F90440B1F90660C4F1010766435F
:1033A00007FB0A6403FB025592FBF5F624B28C80FE
:1033B0005343B1F9087093FBF5F23C44B1F9067040
:1033C000B1F90C307F4204EB4704664302FB036211
:1033D0004A81B0F90020B1F90E301A4447F6FE7365
:1033E0009A4201DD5A1C04E0084B9A4201DC03803A
:1033F00000E0028048898881C88808818888C88060
:1034000008884880BDE8F087400000200080FFFF6A
:1034100070B5184C022060702079617900EB0120B2
:1034200080B200F031F8144901EBD00061790578E1
:10343000207900EB012080B200F026F80F4900F05F
:103440000700085C054201D0312000E03020A07068
:103450000320E070A0780A49C01CC0B201EB101232
:1034600000F00F0012782271085C06496071052097
:10347000888170BD8C7E0020001000200729010883
:103480009A28010816000020A0F58041B1F5C06F10
:1034900002D2A0F5605047E0A0F58C41B1F5C05FC5
:1034A00002D2A0F5F0503FE0A0F5BC41FF2902D8C0
:1034B000A0F5B24038E0A0F5C0414FF4007291424F
:1034C00002D2A0F5A2402FE0A0F5CA41FF2902D800
:1034D000A0F5C24028E0A0F5CE41B1F5806F01D241
:1034E00088B27047A0F5D641B1F5406F02D2A0F581
:1034F000AE4019E0A0F51843A0F5E44189B293422B
:1035000003D3A0F51743FF2B01D808467047A0F559
:10351000C641914202D2A0F5BA4005E0A0F5C441EF
:10352000FF29F3D8A0F5A84080B27047A0F58041EC
:10353000B1F57A5F02D2A0F5005038E0A0F5004264
:10354000A0F5D04189B2B2F5407F06D34FF6C072E4
:10355000904204D3B0F5034F01D208467047A0F55E
:103560000C41E0397F2901D888B27047A0F50D41A0
:103570006039B1F5C07F02D2A0F52E6006E0A0F55B
:103580000C41A0395F2904D8A0F54260A0F50040A5
:103590000DE0A0F50B41C0393F2902D8A0F53260FB
:1035A000F4E7A0F50841BF2903D8A0F5074080B291
:1035B0007047A0F50841C03940F2FA22914202D882
:1035C000A0F57070E2E7A0F50C413F29F0D8A0F516
:1035D0002260DBE70749C878102809D0112805D0F8
:1035E00015204870044901208881704700F04CBDC7
:1035F000FFF70EBF8C7E0020160000200E4810B58D
:1036000002790DF0EBFB352A0AD0382A0CD0432A78
:103610000ED00A490620487009490120888110BD52
:10362000BDE81040FFF7D6BFBDE8104000F0AEBACD
:10363000BDE810400DF06EBAEE8000208C7E0020B8
:103640001600002010B52B4C2B4A14F8A00F00F0E8
:103650000101C943C2F88411C0F34001C943C2F853
:103660008811C0F38001C943C2F88C11C0F3C001B6
:10367000C943C2F89811C0F30011C943C2F89C11A4
:103680001E4BC0F34011C943C3F89011C0F3801121
:10369000C943C3F894111A496FEAD010C1F88001E8
:1036A000607800F00104E443C1F88441C0F34004B1
:1036B000E443C1F8A841C0F38004E443C1F8AC413D
:1036C000C0F3C004E443C1F8B041C0F30014E443C4
:1036D000C1F8B441C0F34014E443C1F8B841C0F3A9
:1036E0008011C943C2F894116FEAD010C3F8980151
:1036F00010BD000000100020000021420000224206
:103700000080214210B501213C2000F017FC01216E
:10371000084600F013FC01210848FEF78FFD084918
:103720000120C1F8A40100F0A9FAFFF78BFF00F017
:103730006BFABDE8104000F017B80000000430003C
:1037400000802142064A02EBD001064A00F0070041
:103750000978105C014201D00120704700207047B9
:10376000001000200729010838B50120ADF800003D
:1037700004258DF8035002248DF8024069460E4856
:10378000FEF70EFD2003ADF800008DF803508DF814
:10379000024069460948FEF703FD4FF44070ADF85A
:1037A000000014208DF803008DF80240694604489B
:1037B000FEF7F6FC38BD0000000801400010014093
:1037C000000C01400649074A01EBD00100F0070058
:1037D0000978105C014201D0012070470020704739
:1037E00050830020072901080F4A10B502EBD002D0
:1037F0000E4C00F007001378205C03430C48137054
:103800000022A0F81828B0F8882842B9A0F8861835
:103810000849094A896D11444908A0F88818B0F888
:103820008818A0F88A1810BD001000200729010888
:103830000020002040000020A39FFFF72DE9F04763
:10384000B84EB94B002296F8E0010127B74DB84CAD
:10385000092817D000F0C8FC96F8E00100F0FE003F
:1038600040F0020086F8E001A4F81828AA72EA7075
:10387000C3F8A071EA722A73AE491020A1F8020EB3
:10388000BDE8F0874FF009099046C3F8A021A87A57
:1038900058B90CF0FBFFAF720DF016F843F67E61DD
:1038A000884202D986F8E09127E1E87838B996F89D
:1038B000E00100F0F70040F0040086F8E0019E48C7
:1038C0006865FFF7BFFE696D0888020A5E2A6ED040
:1038D00031DC6DD2DFE802F0EF6C6C6C6C6C996CD3
:1038E0006C6C6C6C6C6CB26C6C6C6C6C6C6C6C6CD2
:1038F0006C6C6C6C6C6C6C6CC9C9C9C9C9C9C9C920
:10390000C9C9C9C9C9C9C9C9CECECECECECECECEFF
:10391000CECECECECECECECED3D3D3D3D3D3D3D39F
:10392000D3D3D3D3D3D3D3D3D9D9D9D9D9D9D9D937
:10393000D9D9D9D9D9D97F2A71D015DCA2F15F02A2
:10394000202A35D2DFE802F0A1A6A6A6A6A6A6A642
:10395000A6A6A6A6A6A6A6A6A6ADADADADADADADD6
:10396000ADADADADADADADADDC2A1FD028DCCC2A00
:103970000BD012DCC82A08D008DCB02A71D0C52AC6
:1039800003D0C62A01D0C72A12D18FE0C92A03D09A
:10399000CA2A01D0CB2A0BD188E0D82A06D008DC6D
:1039A000CD2A71D0CF2A6FD0D52A01D184E06CE026
:1039B00075E0D92A03D0DA2A7ED0DB2A6FD17BE0EA
:1039C000EC2A7ED010DCE82A7BD006DCDD2A73D01E
:1039D000DF2A71D0E52A62D173E0E92A71D0EA2AA0
:1039E0006FD0EB2A5BD16CE0F12A6FD006DCED2AB8
:1039F00067D0EF2A65D0F02A7CD167E0F22A65D043
:103A0000F32A63D0FF2A75D165E0A871891C696526
:103A10000888000A802803D086285FD10BE040E0A8
:103A20002879C00702D00BF05BFF57E0891C69655D
:103A30000BF05AFE52E001F059FB4FE0E871891C8F
:103A400069650888000A802802D0862846D109E0E6
:103A50002879C00702D00BF0D9FE3FE00BF0FAFD49
:103A60003CE03FE0FDF7C6F838E0C0F30B00FEF79E
:103A700089FC33E0C0F30B00FEF720FD2EE0C0F31D
:103A80000B00FCF7D3FC29E010E0C0F30B00FCF7BF
:103A900099FD23E0C0F30B00FFF792F81EE029E048
:103AA0000AE0C0F30B00FFF7FFF817E0C0F30B00CC
:103AB000FFF770F912E018E0C0F30B00FCF7FCFD13
:103AC0000CE0C0F30B0000F029FB07E0C0F30B0093
:103AD00000F0DAFD02E0C0B20DF0BCF8686D801CA9
:103AE0006865F0E6891C6965EDE6C0B21C2804D063
:103AF0000F2802D00BF092FFE5E610490888A4F8E1
:103B00001808A4F81608A4F81408A1F80080EF70AB
:103B100096F8E00100F0FB0040F0080086F8E001B4
:103B2000AAE6000000100020008021424000002092
:103B300000200020001000205C600008CC00002065
:103B40003EB50121084600F0E1F948F6A040ADF885
:103B500004000120ADF800000020ADF80600ADF82B
:103B600002004FF080446946204601F06BF80121C5
:103B7000204600F09AFF01221146204601F05AF833
:103B80000121204600F094FF3EBD000070B51A49A7
:103B900048F25A00801C31F8022F80B20F2AF9D166
:103BA00016490222C3B24A7031228A70020A1448AE
:103BB00000EB121402F00F022478CC70865C00EB4C
:103BC00013120E71157803F00F024D71825C8A7129
:103BD0000323CB71313433192B441A44D21CD2B293
:103BE00000EB121302F00F021B780B72805C48721C
:103BF00004490920888170BD5A6000088C7E00202D
:103C00009A2801081600002038B54FF47940ADF825
:103C1000000004248DF8034002258DF80250694607
:103C20001248FEF7BDFAF820ADF800008DF8034009
:103C30008DF8025069460E48FEF7B2FA4FF4FC5078
:103C4000ADF800008DF803408DF802506946094830
:103C5000FEF7A6FAADF800408DF803408DF802504B
:103C600069460548FEF79CFA38BD0000000801408F
:103C7000000C0140001001400014014038B5CE2076
:103C8000ADF8000001248DF8024010258DF8035096
:103C900069460D48FEF784FA4FF60340ADF8000080
:103CA0008DF802408DF8035069460848FEF778FA0F
:103CB0007020ADF800008DF802408DF80350694681
:103CC0000348FEF76DFA38BD00080140000C0140C2
:103CD000001001402DE9FF5F534DDFF85081544C37
:103CE0002879544EC0074FF000074FF003094FF0FA
:103CF000100A64D00BF0DAF983460BF0D7F9696D3E
:103D000011F8042B12F0FF02AA70696555D194F8DE
:103D1000F211890751D4317800294ED114F8A01F2F
:103D200041F00101217094F8431101F0DF0184F8A2
:103D30004311414904F243140F60012131703F499E
:103D400008800BEBCB003E49000191FBF0F5802091
:103D5000ADF800008DF802908DF803A0694639484F
:103D60006D1EFEF71DFA0121022000F0CFF8464635
:103D7000404600F0A7FE4720ADF80400ADF808501B
:103D8000ADF80A70ADF8067001A9304600F05AFF90
:103D90000121304600F086FE01221146304600F037
:103DA00049FF0121304600F083FE0121022000F08E
:103DB000ADF8E07B40F00800E073BDE8FF9F686D60
:103DC000017A00F10C0011F0FF01A9706865F4D1CF
:103DD00030780128F1D11C4800F06AFE00214546E8
:103DE000404600F065FE0121284600F05BFE0022FF
:103DF0000121284600F01EFF0420ADF800008DF8D8
:103E000003A08DF8029069460E48FEF7C9F9377095
:103E100014F8A00F00F0FE00207094F8520100F09A
:103E2000F70084F85201C8E7400000200004004079
:103E3000001000202A0000201C5F00202C00002021
:103E400000A24A0400080140000C00400149086239
:103E50007047000000000E4270B50DF041F8224896
:103E6000224C234DC078382822D008DC30280DD0D1
:103E7000312810D0342813D0372828D113E0422815
:103E80001BD045281FD0462821D119E02079E870A1
:103E9000FFF7A8F91BE02079E870FFF727FA16E092
:103EA0000CF0E4FC13E00CF08DFFFEF7E7FF0EE0F2
:103EB0000CF088FFFEF7C0FF09E00AF0EDFC06E019
:103EC000FFF79CFB03E06079E870FEF7F5FFA98936
:103ED000688901434FF0010002D115216170A8816A
:103EE00028710020688170BDEE8000208C7E00204B
:103EF00016000020044A0029516901D0014300E066
:103F0000814351617047000000100240044A0029BB
:103F1000D16901D0014300E08143D16170470000C5
:103F200000100240044A0029116901D0014300E059
:103F3000814311617047000000100240044A0029CB
:103F4000916901D0014300E0814391617047000015
:103F500000100240044A0029D16801D0014300E06A
:103F60008143D160704700000010024001490860A1
:103F700070470000400442420248416A41F08071AB
:103F8000416270470010024030B5204A5168204B12
:103F900011F00C0103D0042901D0082901D00360DD
:103FA00012E05168536801F470114FF0020413F4E9
:103FB000803F04EB914102D053689B0301D5154B20
:103FC00000E0134B5943016051680F2303EA1111BC
:103FD000114B5C5C0168E14041605468072505EACB
:103FE00014241C5D21FA04F48460546805EAD42486
:103FF0001B5DD940C1605268032303EA9232064B2D
:104000001B1F9A5CB1FBF2F1016130BD0010024050
:1040100000127A0000093D00040000200346002041
:104020005909094A01290AD002290AD0516A03F024
:104030001F02012393400B4200D0012070471168FA
:10404000F5E7116AF3E7000000100240064900227C
:1040500081F8202081F82020012802D0042802D1F4
:10406000052081F8200070470010024001490860D7
:10407000704700003C04424202490A6A02430A6255
:1040800070470000001002400A48022141703121AF
:1040900081703021C1700171417103218171064924
:1040A000097BC1710449097901720449082088819A
:1040B000704700008C7E00209A280108160000201E
:1040C000F0B4124C2179C9071AD01149DFF844C065
:1040D00001EB400200F1E001A0F1C807002501F06A
:1040E00007030D4E0CEBD10102F52062372F01D8EA
:1040F00022F8025B226215800A78F35C1A400A708B
:10410000F0BC00F55C50FEF745BE0000400000200A
:1041100000100020001000200F290108074909792C
:10412000C90709D00649074B01EBD00100F0070091
:104130000A78185C02400A707047000040000020B6
:10414000001000200F290108164A10B41079C10789
:104150001046406D23D010F8021B506500880023E4
:10416000020A114C862A0AD0882A08D0802A0BD04D
:1041700010BC41F6651140F64170FFF735BB01EB0D
:104180000020C0B2002103E001EB0020C0B2E82112
:1041900001EB5000C0B224F8103010BC7047001D75
:1041A0005065FAE7400000200010002010B50D4CCB
:1041B000606D0088010A862905D08E2911D1C0B210
:1041C000FFF77EFF0AE02179C0B2C90702D00DF0E7
:1041D0001BF803E000F56050FEF7DCFD606D801C0D
:1041E000606510BD4000002003490020A1F8A20036
:1041F000A1F8A000704700000010002010B50121B8
:104200004FF0C050FFF782FE0120FFF71FFEFCF7C2
:10421000A3FA0120FFF71AFF4120FFF7FFFE002855
:10422000FAD04FF48070FFF727FF0120FFF71EFF41
:1042300000F0C6F900F0BCF90121084600F0EAF8E8
:1042400000F0B6F947F6FF7000F0A2F9BDE81040A3
:1042500000F0AEB90248018841F0100101807047BA
:10426000042800400248018821F0100101807047B5
:10427000042800402DE9FC47454A4649464C92F83F
:10428000E101CB79184211D094F81A1894F81C085F
:10429000CDE9000194F81E3894F8202894F82218EB
:1042A000B4F8240800F002F9BDE8FC8792F8E201B6
:1042B00089780842F8D000F077F8DFF8E080064609
:1042C000B0FBF8F336480188994233D0038040F2BE
:1042D000D1754FF4B7774FF4B6790FE02846FEF763
:1042E0003DF838B1BB4202D3A3F5B77304E06D1CAF
:1042F000ADB205E0A3F26D136D1CADB24B45EDD828
:10430000A4F824580025274F0CE0B4F82208FEF743
:1043100025F808B1012D36D0785D984204D81B1AD3
:104320006D1CADB21C2BF0D26D1CA4F822585B1C86
:10433000A4F82038B6FBF8F108FB11604FF4616176
:10434000B0FBF1F2A4F81E28B0FBF1F201FB12035E
:104350003C22B3FBF2F3A4F81C38B0FBF1F301FBF1
:104360001300B0FBF2F102FB1100A4F81A0894F854
:10437000202894F82218B4F8240804F61A0400F04F
:104380001DF8A08190E71D2BCED31D3BC8E7000090
:1043900000100020072901080020002080510100A2
:1043A0002E000020FB280108034800880249091F4D
:1043B000098840EA014070471C28004030B54FF49E
:1043C000C87303290FD2840706D14FF47A74B0FB67
:1043D000F4F504FB150424B9B0FBF3F403FB140457
:1043E0000CB9521ED2B2B0FBF3F3024402EB9002BE
:1043F0001A446423B0FBF3F0101A054A801E515C86
:104400000844072190FBF1F201FB1200C0B230BD5D
:1044100030000020044A0029118801D0014300E047
:1044200081431180704700000028004010B504202F
:10443000FCF79CF945F65A24A04206D0FFF7DEFEB1
:1044400021460420FCF79AF91AE001214FF0C050F0
:10445000FFF75CFD002041F28831401C80B28842A9
:10446000FBD37B20FFF7DAFD10B97A20FFF7D6FDEA
:10447000FFF782FD01210846FFF7CCFF00F098F816
:104480000748084A90F8E21192781143064A80F8EA
:10449000E21190F8E111D279114080F8E11110BDDC
:1044A00000100020072901080F2901082DE9F05FFD
:1044B0009A4605460023A0F2D170DDF828B0914657
:1044C0008846882802D30120BDE8F09F40F2D174CD
:1044D000234E244F08E02046FDF740FF08B1334447
:1044E00000E03B44641CA4B2AC42F4D3A8F1010048
:1044F000C6B200241C4FDFF874800EE0385D40F235
:10450000A321484303EBC0132846FDF727FF10B152
:10451000012C00D14344641CA4B2B442EED340F257
:10452000A32109FB01F0114903EBC01049420144EA
:10453000CAEB4A12C2EB0A2001EB0011CBEB0B10C5
:1045400001EB80000B9944180120FFF77FFC00F07D
:104550002FF8204600F00CF800F02AF80020B3E70E
:104560000085E2018033E101FB2801088051010050
:1045700000B50246FFF76EFE0449100C0880081DC6
:1045800002805DF804EBFFF76DBE000018280040C4
:1045900000B50246FFF75EFE0449C2F303400880FF
:1045A000081D02805DF804EBFFF75CBE08280040A0
:1045B000024801888906FCD57047000004280040A5
:1045C0000448018821F00801018001880907FCD511
:1045D00070470000042800402DE9F0472849087979
:1045E000C00748D00AF062FD87B20AF05FFD84B2CE
:1045F0000AF05CFD86B20AF0B1F805460AF056FDF5
:10460000DFF87C9080B209F17009DFF8788039F822
:104610001410B7FBF1F201FB127200211CE0641EC2
:10462000A4B2401E39F8143080B2B2FBF3F739F867
:1046300010C0012C07FB0CF738F815C047EA0C072F
:10464000BFB228F8157001D1012809D0B2FBF3F7E9
:1046500003FB1722491C89B2B142E0D3BDE8F087C1
:10466000B9F8023002F00F015943394328F8151008
:10467000711C89B2EEE7486D14304865EEE7000022
:10468000400000200010002010B50B4901220B4C07
:104690000A73CA72C8830A7904EBD0035206120E59
:1046A000074C0A7100F007001B78205C034202D01F
:1046B00042F00100087110BD4000002000100020F1
:1046C000072901080CB500222648009201920168D2
:1046D00041F4803101604FF4A063016801F40031BE
:1046E00001910099491C0091019911B900999942D1
:1046F000F3D10168890333D5012101911A490A6870
:1047000042F010020A600A6822F003020A600A6896
:1047100042F002020A6041684160416841604168BC
:1047200041F480614160416821F47C11416041683D
:1047300041F4E8114160016841F080710160016855
:104740008901FCD5416821F003014160416841F0D5
:10475000020141604168C1F381010229FAD10CBD17
:1047600001920CBD00100240002002400F4810B51D
:10477000016841F00101016041680D4A114041604A
:1047800001680C4A11400160016821F48021016038
:10479000416821F4FE0141604FF41F018160FFF781
:1047A00091FF05494FF00060086010BD0010024005
:1047B0000000FFF8FFFFF6FE08ED00E070B51148BD
:1047C0000079C0071DD009F0C9FF054609F0C6FFF2
:1047D000044609F0C3FF0C4931F8152031F81430B4
:1047E0001A4421F8102001EB450201EB44035588DF
:1047F0005C8801EB40002C44448091889A881144E5
:10480000818070BD40000020001000202DE9FC5F79
:10481000DFF8088198F80400C00778D00AF046FC59
:1048200087B20AF043FC86B20AF040FC85B209F078
:1048300095FF044609F092FFFF22DFF8E49088F824
:10484000002009EBD002DFF8DCC0117800F007038C
:1048500001931CF803301940431C117009EBD3017C
:1048600003F0070391F8008000931CF80330801CCC
:1048700008EA030881F8008009EBD00800F0070E71
:1048800098F800901CF80E00274B09EA000988F8F8
:10489000009033F81400C246CB46ACF1080CB84285
:1048A00011D803EB4409B9F80280B0450BD8B9F828
:1048B0000480A84507D2019910781CF8011008431C
:1048C0001070BDE8FC9FB8420FD103EB4402B2F870
:1048D0000280B04509D19288AA4206D100980A7890
:1048E0001CF8000002430A70EBE7B842E9D303EB7F
:1048F00044004188B142E4D38088A842E1D91CF841
:104900000E104BEA01008AF80000DAE7FFE7D8F85A
:1049100054101431C8F85410D3E7000040000020B0
:10492000001000200F290108001000202DE9F04799
:104930004FF080414FF00008A1F810803F4FB88839
:104940000A30B8803878401C387000F0C5FD3878DF
:104950003B4C3C4D632809D987F8008094F8E1016D
:104960002979084384F8E10100F050FB39784FF0D1
:104970000A09B1FBF9F209FB1210334E072807D1DF
:1049800000F008FB94F8E101F178084084F8E101B7
:104990003878B0FBF9F209FB1201022905D194F82D
:1049A000E111EA78114384F8E111322807D100F0CF
:1049B000B9FA94F8E1013179084084F8E1013878D6
:1049C0005A2804D100F05AFB7888401C7880387847
:1049D00000F00F00022801D1FCF750F97888494611
:1049E000B0FBF1F209FB1202052A05D194F8E1218E
:1049F00073791A4084F8E121B0FBF1F209FB12014E
:104A000029B994F8E1116A79114384F8E111B0F5FC
:104A1000967F07D058B1B0F5167F01D3A7F8028072
:104A2000BDE8F08794F8E101B179084003E094F81B
:104A3000E101A979084384F8E101F1E7C800002009
:104A400000100020072901080F29010810B510489F
:104A5000002404800F4890F8D20180070ED50E483C
:104A6000D0F80C1131B1C0F88C410C480168491CD8
:104A7000016010BD0121C0F88C1110BD0448002256
:104A80000121103800F0D6F80548047010BD000070
:104A90001004004000100020000021421C5F002094
:104AA0002A000020C94301827047C9430182704730
:104AB0000029018802D041F0010101E021F001014B
:104AC000018070474B4910B5884202D10121C414BE
:104AD00086E0B0F1804F09D0474988420DD10121CD
:104AE0000220FFF71FFA0021022064E0012108469E
:104AF000FFF718FA002101205DE04049884206D105
:104B000001210420FFF70EFA0021042053E03C4964
:104B1000884206D101210820FFF704FA002108206D
:104B200049E03849884206D101211020FFF7FAF9FF
:104B3000002110203FE03449884206D10121202085
:104B4000FFF7F0F90021202035E03049884202D1FA
:104B50000121441444E02E49884202D10121CC04B1
:104B60003EE02C49884202D101210C0538E02A4957
:104B7000884202D101214C0532E02849884206D101
:104B800001214020FFF7CEF90021402013E0244905
:104B9000884206D101218020FFF7C4F9002180203E
:104BA00009E0204988420AD1841501212046FFF7F7
:104BB000B9F900212046BDE81040FFF7B3B91A4902
:104BC000884202D101210C040AE01849884202D12E
:104BD00001214C0404E0164988420AD101218C04C9
:104BE0002046FFF7B7F92046BDE810400021FFF747
:104BF000B1B910BD002C0140000400400008004085
:104C0000000C00400010004000140040003401403F
:104C1000004C014000500140005401400018004089
:104C2000001C0040002000400040014000440140C2
:104C300000480140002A828901D00A4300E08A43EB
:104C40008281704730B502881B4C1C4DA0420DD0AC
:104C5000A8420BD0B0F1804F08D0194B984205D034
:104C6000184B984202D0184B984203D122F070039F
:104C70004A881A43154B984206D0154B984203D0E8
:104C800022F44073CA881A4302808A8882850A887F
:104C90000285A0420AD0A84208D00E4A904205D010
:104CA0000D4A904202D00D4A904201D1097A018604
:104CB0000121818230BD0000002C01400034014000
:104CC0000004004000080040000C004000100040BC
:104CD00000140040004001400044014000480140F1
:104CE000124810B50179C9071BD009F037FD1049EA
:104CF000B1F8242E21F8102001EB4000B1F8222E4B
:104D00004280B1F8202E8280B1F81E2EC280B1F808
:104D10001C2E0281B1F81A2E4281B1F8261E818123
:104D200010BD416D091D416510BD0000400000200F
:104D30000010002070B511480079C0071DD009F09F
:104D40000DFD054609F00AFD044609F007FD0C4972
:104D500031F8152031F81430D21A21F8102001EB67
:104D6000450201EB440355885C8801EB40002C1B95
:104D7000448091889A88891A818070BD4000002003
:104D8000001000201CB50C480179C90710D009F0AB
:104D9000E5FC0A4C04EB40018A7A0B7ACDE900323B
:104DA0008B790A79897834F81000FFF77FFB1CBDF6
:104DB000416D091D41651CBD400000200010002010
:104DC00007490878002809D00020087008710548B4
:104DD00089898164416C41F00101416470470000A0
:104DE00016000020000002402DE9F04FDFF824817A
:104DF00085B098F80400C0075CD009F0AFFC464DC0
:104E000035F810B005EB40004788868809F0A6FC0D
:104E100035F8101005EB4000019141880091B0F881
:104E200004A009F09BFC044609F098FCFF22DFF87F
:104E3000ECE088F800200EEBD002DFF8E4C0117837
:104E400000F0070304931CF8033000F10109194036
:104E500011700EEBD90109F0070391F8008003935C
:104E60001CF80330801C08EA03080EEBD00381F81D
:104E7000008093F8008000F0070002901CF800000A
:104E8000994608EA000883F8008035F81400ACF170
:104E90000803584511D805EB440EBEF802C0BC45C6
:104EA0000BD8BEF804C0B44507D204991078595CF9
:104EB0000843107005B0BDE8F08F584517D305EBD7
:104EC000440CBCF80220BA4211D3B2420FD3019E67
:104ED000B0420CD8009EB24209D8BCF804605645D6
:104EE00005D8039A08789A5C10430870E2E70199A4
:104EF0008842DFD305EB4400009942888A42D9D327
:104F000081885145D6D90298185C48EA000889F88A
:104F10000080CFE74000002000100020001000209B
:104F20000F290108F0B5DFF85CC0174C174D184E7B
:104F300000200CEB400101F5905300F5B05201F553
:104F400080511746C6E9023104EBD20207F0070789
:104F50001278EF5D3A420FD00A881B889A420BD232
:104F600000F5C06304EBD30703F007033F78EB5C65
:104F70001F4201D1521C0A80401C80B2C828D8D3DD
:104F8000F0BD0000001000200010002007290108DB
:104F9000C80000202DE9F0410BF0E8FBDFF85CC011
:104FA000174C184D184EC8200CEB400101F59053DA
:104FB00000F5B05201F580511746C6E9023104EB05
:104FC000D20207F007071278EF5D3A420FD00A8845
:104FD0001B889A420BD200F5C06304EBD30703F0A1
:104FE00007033F78EB5C1F4201D1521C0A80401C32
:104FF00080B2F628D8D3BDE8F08100000010002070
:105000000010002007290108C8000020F0B5DFF8D3
:105010005CC0174C174D184EF6200CEB400101F503
:10502000905300F5B05201F580511746C6E90231A0
:1050300004EBD20207F007071278EF5D3A420FD077
:105040000A881B889A420BD200F5C06304EBD30791
:1050500003F007033F78EB5C1F4201D1521C0A802A
:10506000401C80B2FA28D8D3F0BD00000010002008
:105070000010002007290108C8000020F0B5DFF863
:105080005CC0174C174D184EFA200CEB400101F58F
:10509000905300F5B05201F580511746C6E9023130
:1050A00004EBD20207F007071278EF5D3A420FD007
:1050B0000A881B889A420BD200F5C06304EBD30721
:1050C00003F007033F78EB5C1F4201D1521C0A80BA
:1050D000401C80B2FF28D8D9F0BD0000001000208D
:1050E0000010002007290108C800002010B51B4C43
:1050F000616D11F8020BC0F3460060836165098899
:105100000A0A862A02D0882A0AD103E0C9B200EB33
:10511000C11004E0C9B200EBC11000F57A706083E1
:105120002079C00716D00E49608B01EB400000F5D6
:1051300000500288A07901EB400101F58051A1F8EF
:1051400000220CF09DF8A079BDE8104000F5B050A9
:10515000FDF720BEBDE810400AF0C6BA40000020AE
:105160000010002010B501218CB08803FEF7E6FE88
:1051700001210846FEF7BEFE264C2046FCF7A6F8A5
:1051800026492548CDE90001102002908F200021FA
:10519000CDE903018020CDE905018001CDE90810AA
:1051A00007910A9169462046FCF70AF9012202217B
:1051B0002046FCF7FDF84FF416400CF0A5F8164C0D
:1051C0000122241F40F22551204600F0DFF8012281
:1051D0008021204600F0ACF80121204600F09EF826
:1051E0006015ADF82C0003208DF82E0018200C4C13
:1051F0008DF82F000BA92046FCF7D2FF2115ADF842
:105200002C1004218DF82F100BA92046FCF7C8FFA5
:105210000CB010BD44000240043801408D7E0020D7
:10522000000801402DE9F041DFF8D48040F2255418
:105230002146404600F08BF801284FD121464046D8
:1052400000F066F808F1040000882E4E00F07F00A0
:10525000002201252C4C3070A6F26227052802D0CE
:10526000022815D005E0628106207870A581FFF73D
:10527000A7FD608960B36089401C80B2608131788D
:10528000315440F26221884204D9A281628125E032
:105290006581F0E7032821D9304410F8020C032877
:1052A0001CD1184809F0D0FBA0706189721812F85F
:1052B000013C164A02EB101C9CF800C0634508D163
:1052C00000F00F00715C105C814202D1FEF7C4FD5A
:1052D00004E015207870A581FFF772FD082144468F
:1052E000404600F02DF8002807D04FF6F771204611
:1052F0002180BDE8F04100F0B7B8BDE8F0810000C2
:1053000000380140EE800020160000209A28010895
:105310000A0A01219140C94301807047002981890F
:1053200002D041F4005101E021F400518181704725
:10533000002A828A01D00A4300E08A4382827047B1
:105340000246002012880A4200D00120704770B542
:1053500001F01F0501260024C1F3421306FA05F2ED
:10536000012B0FD0022B0FD0838A4FEA1121008826
:10537000134206FA01F600EA060001D000B101244A
:10538000204670BD8389F0E7038AEEE710B5C1F3CC
:10539000421301F01F040121A140012B07D0022B71
:1053A00007D01430002A026805D00A4304E00C300C
:1053B000F8E71030F6E78A43026010BD30B50446C6
:1053C000008A85B00D464CF6FF710840E98801431C
:1053D0002182A0894EF6F3110840A9882A89114339
:1053E0006A8902431143A181A08A4FF6FF41084018
:1053F000A9890143A1826846FEF7C6FD1948844287
:1054000001D1039800E00298A189090400EBC001D2
:1054100001EB0010296801D5490000E08900B0FBCC
:10542000F1F06422B0FBF2F109010B096FF01805ED
:105430006B4300EB8300A3891D044FF0320306D5B4
:1054400003EBC000B0FBF2F000F0070005E003EB57
:105450000010B0FBF2F000F00F000843208105B00F
:1054600030BD0000003801408088C0F3080070475C
:10547000810B0B4807D0012908D0022909D0032944
:105480000AD000207047B0F83A087047B0F86E09AB
:105490007047B0F872097047B0F87609704700009D
:1054A00000200020810B0B4807D0012908D00229D9
:1054B00009D003290AD000207047B0F87A09704754
:1054C000B0F87E097047B0F882097047B0F88609D5
:1054D0007047000000200020F0B5D84ED6F81C51CF
:1054E000D748D8490023027891F88040D6481DB1AA
:1054F000037024F0010408E090F90050954202DAAC
:105500006D1C057003E044F0010481F88040D6F87A
:1055100018412CB1437091F8804024F002040AE055
:1055200090F90140944202DA641C447005E091F85D
:10553000804044F0020481F88040D6F814412CB138
:10554000837091F8804024F004040AE090F902404E
:10555000944202DA641C847005E091F8804044F0C3
:10556000040481F88040D6F810412CB1C37091F842
:10557000804024F008040AE090F90340944202DAE3
:10558000641CC47005E091F8804044F0080481F880
:105590008040D6F80C412CB1037191F8804024F082
:1055A00010040AE090F90440944202DA641C047189
:1055B00005E091F8804044F0100481F88040A34C4D
:1055C000D4F808412CB1437191F8804024F02004B4
:1055D0000AE090F90540944202DA641C447105E047
:1055E00091F8804044F0200481F88040984FD7F82B
:1055F00030412CB1837191F8804024F040040AE0DE
:1056000090F90640944202DA641C847105E091F836
:10561000804044F0400481F88040D7F82C412CB100
:10562000C37191F8802022F080020AE090F90740CF
:10563000944202DA641CC47105E091F8802042F0C3
:10564000800281F88020D7F828517E4A92F8814064
:10565000B2F8282E1DB1037224F0010408E090F97D
:105660000850954202DA6D1C057203E044F0010413
:1056700081F88140774ED6F83C412CB1437291F8C5
:10568000814024F002040AE090F90940944202DAD1
:10569000641C447205E091F8814044F0020481F8F2
:1056A0008140D6F838412CB1837291F8814024F0C2
:1056B00004040AE090F90A40944202DA641C8472FD
:1056C00005E091F8814044F0040481F88140D6F867
:1056D00034412CB1C37291F8814024F008040AE0EF
:1056E00090F90B40944202DA641CC47205E091F810
:1056F000814044F0080481F88140D6F830412CB153
:10570000037391F8814024F010040AE090F90C40F2
:10571000944202DA641C047305E091F8814044F07D
:10572000100481F88140D6F82C412CB1437391F8D4
:10573000814024F020040AE090F90D40944202DAFE
:10574000641C447305E091F8814044F0200481F822
:105750008140D6F820412CB1837391F8814024F028
:1057600040040AE090F90E40944202DA641C84730B
:1057700005E091F8814044F0400481F88140D7F879
:1057800024412CB1C37391F8814024F080040AE0D5
:1057900090F90F40944202DA641CC47305E091F85A
:1057A000814044F0800481F88140D7F82051254C95
:1057B00094F882401DB1037424F0010408E090F9CC
:1057C0001050954202DA6D1C057403E044F00104A8
:1057D00081F88240D7F81C412CB1437411F8822F14
:1057E00022F002020AE090F91140944202DA641CAD
:1057F000447404E011F8822F42F002020A70D6F8D5
:105800000041154A11781CB1072904D8491C01E050
:1058100009B1491E1170D7F8342110494AB190F8E6
:105820002020002A04D080F82030092081F8E001EF
:10583000F0BD012280F820200A20F7E700802142F5
:10584000D800002000100020500C002000802242D0
:10585000000022420000214214000020001000201D
:10586000810B0B4807D0012908D0022909D0032950
:105870000AD000207047B0F838087047B0F86C09BB
:105880007047B0F870097047B0F8740970470000AD
:1058900000200020810B0B4807D0012908D00229E5
:1058A00009D003290AD000207047B0F87809704762
:1058B000B0F87C097047B0F880097047B0F88409E7
:1058C00070470000002000202DE9F05F324E307953
:1058D000C0075DD009F0EAFB834609F0E7FB054607
:1058E00009F0E4FB044608F039FF01B2FF203070F4
:1058F000C81701EB5072294800EBE20622F00702BC
:10590000A1EB020A264A33781AF802703B40337042
:105910004B1CDF1703EB577800EBE8034F1C28F014
:105920000708A7EB080893F800C018F802700CEA03
:10593000070C8F1C83F800C04FEAE77C07EB5C7C08
:105940002CF00707891CC91B00EBEC008A5C90F85F
:105950000090134F09EA0209083F80F80090A34520
:1059600006DD30781AF8071008433070BDE8F09F64
:10597000AC4205DC187818F8071008431870F5E7F2
:10598000A542F3DAC95D49EA010980F80090EDE724
:10599000706D10307065E9E74000002000100020B5
:1059A0000F290108490050EAC12018BF04204A0D00
:1059B00018BF40F0010040F2FF72B2EB515F08BF28
:1059C00040F00200012808BF052070472DE9F74F7D
:1059D000144694B00021C4E902111599079121F0F1
:1059E0000045C9498D4206DC1599C4E9000117B08C
:1059F0000020BDE8F08FC549DFF814A3A9423CDDC3
:105A00000799C44E0029C44FC44A1599534619DD5D
:105A10000CF072F9554506D0C14AC24B0CF06CF936
:105A2000C4E900010AE04FF0D352BE4B0CF064F918
:105A300032463B460CF060F9C4E9000117B0012082
:105A4000BDE8F08F0BF0D8FC554506D0B44AB54BF5
:105A50000BF0D2FCC4E900010AE04FF0D352B14B85
:105A60000BF0CAFC32463B460BF0C6FCC4E9000111
:105A700017B04FF0FF30BDE8F08FAB49A942159940
:105A800078DB21F0004183468846A84AA84B0BF0FA
:105A900043FF0022A74B0BF0AFFC0BF0B5FE0990C3
:105AA0000BF00FFF06460F469C4A53460BF034FF9F
:105AB00043465A460CF02EF880468A46984A994B3F
:105AC000304639460BF028FF2A0D01250B9242463D
:105AD00053460CF01FF8032DC4E9000139D00B9890
:105AE000C1F30A51401A05EB45111139814230DAF0
:105AF0009148C346784400EB0510CDF80CA00C90FB
:105B0000D0E90023304639460BF006FF02460B462B
:105B100004910690584603990CF0EEF880468A46A8
:105B200002460B46584603990CF0E6F8049B069A89
:105B30000CF0E2F883460C9803913946D0E9022331
:105B400030460BF0E9FE5A46039B0CF0D5F86D1C6D
:105B5000BDE707980028A2BF099817B0BDE8F08FED
:105B6000616881F000416160099817B04042BDE86A
:105B7000F08FFFE784461598C1F31301C0F30A5074
:105B8000A0F2F5304FEA601800F01F06C6F12000C1
:105B9000139000200690079041F4801E05206D466A
:105BA00076B1664A08EB00017A4452F8213002EBE4
:105BB0008101B3404A68139922FA01F1194305E0C3
:105BC0005F4908EB0002794451F82210A1FB0E272F
:105BD000A1FB0C131A449A4234BF0123002303EBA8
:105BE000070A05EB8003D3E901B70F448F4234BFA6
:105BF0000121002193448B4411B1934502D903E064
:105C0000934501D2012100E00021C3E901B75144CD
:105C100045F82010011EA0F10100C1DC0298059F8B
:105C200000F10050800F12900298DDE903568000C9
:105C30000BF047FE834628460D910BF059FE6FF09E
:105C40001D020CF0E4FCCDE90E0130460BF050FED5
:105C50006FF03D020CF0DBFC80468A4638460BF0C4
:105C600047FE6FF05D020CF0D2FC074642465346F9
:105C700011910BF0C1FBDDE90E230BF0BDFB5A4681
:105C80000D9B0BF0B9FB00250E465A4628460D9B8E
:105C90000CF032F8DDE90E230CF02EF842465346A4
:105CA0000CF02AF83A46119B0BF034FFDFF898A06D
:105CB000244A53460BF030FE07468846234A244BBD
:105CC000314628460BF028FE3A4643460BF094FB3B
:105CD000074688464FF0A8425346314628460BF007
:105CE0001BFE3A4643460BF087FB159A12F0004F15
:105CF00004D0129A81F0004152421292C4E900018C
:105D0000129817B0BDE8F08FFB21E93F7CD9024023
:105D1000FB21F93F7370032E8A19A33B0000405406
:105D20003163621A61B4D03DFB21394183C8C96D2A
:105D3000305FE43F0000E03F50CE0000CCCD0000DB
:105D4000AECD0000182D4454FB21F93D3326A61199
:105D5000460B113C2DE9FF4D21F0004807460C464B
:105D6000B8F1795F08DA0BF04FFD002801BF002081
:105D7000324904B0BDE8F08D3A4623461046194634
:105D80000BF0CAFD054602462D480E460B4606217D
:105D9000784400F05DF82A4633460BF0BDFDDDE99E
:105DA000022382468B46384621460BF0B5FD044659
:105DB0000F4652465B46284631460BF0ADFD224663
:105DC0003B460BF099FF07468A464FF0FF322846C4
:105DD00031460CF01CFC1B4A90450ADA3A46534601
:105DE0000BF08AFF04B00022BDE8F04D134B0BF01E
:105DF00091BE154A4245A8BFA8F500154FF0000412
:105E0000B8BF124D22462B460BF076FF0646884659
:105E100022462B46002009490BF06EFF04460D4632
:105E20003A465346304641460BF066FF04B02246E0
:105E30002B46BDE8F04D0BF06DBE00000000F03FBA
:105E400084CB00003333D33F0000E93F0000D23F52
:105E50002DE9F0414F1E00EBC7010446D1E90001D6
:105E600015461E4637F006020DD02A4633460BF083
:105E700053FD7F1E04EBC703D3E900230BF0BCFAEC
:105E800037F00602F1D1022F25D0042F13D0062FB0
:105E900018BFBDE8F0812A4633460BF03DFDD4E93A
:105EA0000A230BF0A9FA2A4633460BF035FDD4E954
:105EB00008230BF0A1FA2A4633460BF02DFDD4E956
:105EC00006230BF099FA2A4633460BF025FDD4E958
:105ED00004230BF091FA2A4633460BF01DFDD4E95A
:105EE00002230BF089FA2A4633460BF015FDD4E95C
:105EF0000023BDE8F0410BF07FBA00002DE9FF4D13
:105F0000054621F0004084B00C46B0F1795F0BDA11
:105F10002846FFF747FD042808BF08F017FC28466D
:105F200008B02146BDE8F08D2A460B4610460BF01E
:105F3000F3FC06460F462A4623460BF0EDFC80464E
:105F400026488A4632463B4605217844FFF780FFC3
:105F500083461098029160B3214A224B4046514635
:105F60000BF0DAFCCDE900015A4640465146029B4F
:105F70000BF0D2FC82468846DDE906014FF0FF3285
:105F80000CF045FB524643460BF0B6FE32463B460C
:105F90000BF0C2FCDDE906230BF0AEFEDDE90023C9
:105FA0000BF0AAFE08B02A462346BDE8F04D0BF0E0
:105FB000B1BD0B465A46304639460BF0ADFC084A97
:105FC000084B0BF019FA424653460BF0A5FC08B0FB
:105FD0002A462346BDE8F04D0BF00EBAC2CA0000B7
:105FE000495555555555C5BF01220CF010BB00222F
:105FF0001346104611460BF0AFBA00000000000037
:106000001000D8BA000000002020202020202020EE
:106010002020202020202020202020202020202080
:106020002020202020202020202020202020202070
:10603000F409FF0BF401E703640EC70EDC0EFF0E3C
:106040009001FE03000000000000000000000000BE
:106050008300000000000000000000000F00FFFFB0
:10606000FFFFFFFFFFFFFFFFFFFFFFFFFFFFFFFF40
:10607000FFFFFFFFFF000000000000000000000025
:106080000000000000000000000000000000000010
:106090000000000000000000000000000000000000
:1060A00000000000000000000000000000000000F0
:1060B00000000000000000000000000000000000E0
:10E4D0002DE9F04D04468CB0904821F000471646D7
:10E4E00098460D460991874206DA2046294603F0F0
:10E4F0008BF9002800F0AE808948B8421CDC0998EE
:10E500000028BCBF85F0004588F00048854A864B4E
:10E510002046294603F0FEFA04460D46324643469D
:10E520008248834903F0E8FB22462B4602F064FF51
:10E53000002604460D46B04622462B461046194694
:10E5400003F0EAF98B46824602460B4603F0E4F9F3
:10E550000246089077480B46009106217844F7F769
:10E5600077FCCDE90310744806217844009B089A93
:10E57000F7F76EFC52465B4603F0CEF9CDE9051085
:10E5800052465B462046294603F0C6F907910090A3
:10E59000DDE90310DDE9053202F02EFF079B009A4A
:10E5A00003F0BAF93246434602F026FF52465B4674
:10E5B00003F0B2F93246434602F01EFF80460E4693
:10E5C0005E4A5F4B0799009803F0A6F9424633462E
:10E5D00002F012FF82468B4622462B4602F00CFFC9
:10E5E00080464F480E46B84214985BDC03F069F948
:10E5F000074642463346059102F0FEFECDE9011082
:10E60000424633461046194603F086F9DDE90132E9
:10E6100002F0A2FF52465B4603F06EFB22462B46F9
:10E6200003F078FA012203F0F2FF3A46059B03F06B
:10E6300071FA04460D460998022101EAA070C0F162
:10E64000010003F03EF90CB022462B46BDE8F04D28
:10E6500003F062B91498401C384320430BD014983F
:10E66000012812D00CB022462B46BDE8F04D002008
:10E67000344902F071BF0CB025F000432246BDE8DA
:10E68000F04D0020304902F067BF20462946F7F7D9
:10E6900089F9042808BF00F059F820460CB0294633
:10E6A000BDE8F08D012802BF40460CB0BDE8F08DFA
:10E6B00000270B463A462046294603F02BFA5246DD
:10E6C0005B4603F027FA04460D46424633460020D7
:10E6D0001C4902F041FF83463A46884633461046BD
:10E6E00003F01AF90022184B02F086FE06468A460D
:10E6F00022462B463846414603F00EF93246534631
:10E7000002F07AFE5A46434603F006F90CB03A4648
:10E710004346BDE8F04D02F06FBE00000000303E01
:10E720002894E53F182D4454FB21E93F075C14333E
:10E7300026A6813CD8440000FA4400006355555594
:10E740005555D53F0000F0BF0000F03F024A0020C1
:10E75000110703F05CBF000001FDFFFF10B50E4C78
:10E76000616D31F8020B020A842A02D0862A11D187
:10E770000AE0C0B2607011F8022B40EA0220E08289
:10E7800000206165207005E0C0B260706165F2F73D
:10E7900019FFE082E08A10BD4000002070B5394CBE
:10E7A0004FF6FF75626D32F8023B6265118803F423
:10E7B0007F40DBB205EA0125E36540EA11202B43E7
:10E7C000A0F50645803D1BD0AD1E1BD0AD1E1DD053
:10E7D000AD1E1DD0AD1E1DD00025A0F50442823A0D
:10E7E0001ED0921E22D0921E25D0921E29D0921E9B
:10E7F0002CD0921E30D0921E34D0921E38D03FE0E2
:10E80000214808E003F12023636206E01F4802E08C
:10E810001F4800E01F4818446062921C62652FE0A8
:10E82000C8B2F3F7FFFF00F00F0024E0C8B2F3F71F
:10E83000F9FFC0B21FE0C8B2F3F7F4FFC0F30B005A
:10E8400019E0C8B2F3F7EEFF80B214E0C8B2F3F7F4
:10E85000E9FFC0F313000EE0C8B2F3F7E3FF20F0C6
:10E860007F4008E0C8B2F3F7DDFF20F0704002E01F
:10E87000C8B2F3F7D7FF60622570606D801C6065D9
:10E88000606A70BD40000020001E0020001A0020B9
:10E8900000300020D037002010B5084C607802F01E
:10E8A0004BFDC82060702070F3F7DEFB04490620A2
:10E8B0004870A4F112010120888110BD28000020B9
:10E8C0008C7E00200548C821417001700449062053
:10E8D00048700249012012398881704728000020C1
:10E8E0008C7E002010B500F0E1FB044600F0DEFB5A
:10E8F0000E4AD17A012911794FEA41614FEA11613B
:10E90000117102D084420DD010BD8442FCD1D08B55
:10E91000074C04EBD003074C00F007001B78205C89
:10E920000342F1D041F00100107110BD4000002001
:10E93000001000200729010830B50023012412E04F
:10E940000D186D1E6D08AA4206D81CB9091A491C7B
:10E9500003EB51032946F1E71CB1081A401C03EBF5
:10E960005003681C00248842EAD3184630BD0000DA
:10E9700030B511280ED2084B084C00214FF4006529
:10E9800001EBC02292B29A5C24F81120491C89B292
:10E99000A942F5D330BD000000600008886E002059
:10E9A00010B500F083FB044600F080FB0E4AD17ADC
:10E9B000012911794FEA41614FEA1161117102D0C9
:10E9C00084420DDB10BD8442FCDDD08B074C04EB90
:10E9D000D003074C00F007001B78205C0342F1D005
:10E9E00041F00100107110BD400000200010002017
:10E9F0000729010810B500F059FB044600F056FB4A
:10EA00000E4AD17A012911794FEA41614FEA116129
:10EA1000117102D084420DDA10BD8442FCDBD08B30
:10EA2000074C04EBD003074C00F007001B78205C78
:10EA30000342F1D041F00100107110BD40000020F0
:10EA40000010002007290108084B10B55B8900223F
:10EA50000321C01C5B1E05E010F8014B491C224439
:10EA6000D2B289B29942F7DB104610BD16000020E1
:10EA700000B5244B21F0004287B09A42DCBF00224F
:10EA8000134629DD204B9A4208D140B94FF00100CE
:10EA9000F1F761FCF7F7ABFA07B000BD03DBF7F75E
:10EAA000A3FA07B000BD02AAF6F790FF10F0030129
:10EAB00004BF0DF1080C9CE80F000DD001200129C6
:10EAC0000ED0022914D00DF1080C00909CE80F0024
:10EAD000F7F714FA07B000BDF7F73CF907B000BD2F
:10EAE0000DF1080C00909CE80F00F7F707FA05E01D
:10EAF0000DF1080C9CE80F00F7F72CF907B081F036
:10EB0000004100BDFB21E93F0000F07F2DE9F0410D
:10EB1000254D4FF6FF7C6C6D34F8022B34F8020B58
:10EB200002F47F4114F8023B41EA10210CEA00276D
:10EB3000D0B26C652688DAB20CEA06263843324336
:10EB400005F168031E1FA1F50047803F11D0B7F5FE
:10EB500000770ED0B7F5806211D0144AA1F50643B4
:10EB6000823B11D09B1E11D09B1E0DD09B1E12D03C
:10EB700017E018805A80186803F058FB0EE000F187
:10EB80002020D0F8000809E0805807E00849084430
:10EB9000D0F8000A02E01044D0F8D007A41C30607E
:10EBA0006C653068BDE8F081400000200030002036
:10EBB000001000202DE9FC5FFB4D4FF6FF74696DDE
:10EBC00031F8023B69650A8803F47F40DBB204EA4E
:10EBD0000224EB6540EA12202343A0F5004605F12C
:10EBE0006804803E7ED0B6F500767BD00126A0F585
:10EBF0000447823F77D0BF1E76D0BF1E75D0BF1EA0
:10EC000074D0BF1E73D0BF1E72D0BF1E71D0BF1E86
:10EC100070D0B7F5F8726ED0921E6DD0921E6CD087
:10EC2000E24F921E6AD0921E69D0E14EA0F52042BA
:10EC3000803AB6F838C8CDF804C07DD03246A0F589
:10EC4000204CB2F86C290092BCF1810C75D0324690
:10EC5000BCF1010CB2F870E970D0B2F874B9BCF133
:10EC6000010C6CD0B2F878A9BCF1010C68D0B2F8F4
:10EC70007C99BCF1010C7DD09446A0F52042BCF8F3
:10EC80008089863A77D03246A0F5204CB2F88429A4
:10EC9000BCF1870C70D0A0F5004CBCF50A5C6CD0C0
:10ECA000BCF1010C6AD0BCF1010C47D0BCF1010CE5
:10ECB00045D0BCF1010C43D0BCF1010C5AD0BCF1E1
:10ECC000010C58D0BCF1010C56D0A0F5244182397A
:10ECD00073D0491E72D0491E71D0491E70D0491E92
:10ECE0006FD00DE04BE050E055E05BE060E069E0A4
:10ECF0006EE073E083E086E08AE08DE091E092E0F0
:10ED0000491E71D0491E70D0491E6FD0491E6ED069
:10ED1000491E6DD0491E6CD0491E6BD0491E6AD069
:10ED2000491E69D0491E68D0491E67D000264FF49D
:10ED3000FF7841F6322904E084E08AE08BE094E039
:10ED40009DE0A0F5264140F6437A823972D0491EF3
:10ED500071D0491E70D0491E6FD043F67E68491E9F
:10ED60006CD0491E6BD043F2AE68491E68D0491E74
:10ED700067D08FE18DE096E09FE0A7E0B0E02380D0
:10ED8000891C696500F092F95FE0D0B2F3F74AFDA3
:10ED900000F00F0003E0D0B2F3F744FDC0B22060F2
:10EDA0006E7253E1D0B2F3F73DFDC0F30B00F6E70E
:10EDB000D0B2F3F737FD80B2F1E79CE09FE0AAE024
:10EDC000ADE0B6E0D0B2F3F72DFDC0F31300E6E7F7
:10EDD000D0B2F3F727FD20F07F40E0E7D0B2F3F7A1
:10EDE00021FD20F07040DAE7A7E0B1E0B4E0BDE03B
:10EDF000C0E0CAE0CDE0DFE0E2E0ECE0EFE0D0B27E
:10EE0000F3F710FDCBE703F12023D3F800080DE062
:10EE100003F12023186809E066481844D0F8000A76
:10EE200004E0D85902E0D819D0F8D007891C206036
:10EE300069652FE1DCE0E2E0ECE0EFE0FDE009E114
:10EE400015E118E10CEB030042E06080686D001FE3
:10EE5000FEE0D01846E00EEB03002080891C6965B7
:10EE600000F024F9B6F8721943E00BEB03002080A0
:10EE7000891C696500F01AF9B6F8761939E00AEBD1
:10EE800003002080891C696500F010F9B6F87A1932
:10EE90002FE009EB03002080891C696500F006F96A
:10EEA000B6F87E1925E008EB03002080891C69650F
:10EEB00000F0FCF8B6F882191BE0D0182080891CFD
:10EEC000696500F0F3F8B6F8861912E00198184465
:10EED0002080891C696500F0E9F8B6F83A1808E066
:10EEE000009818442080891C696500F0DFF8B6F8A6
:10EEF0006E190844A9E71846F2F7ACFA02E0184682
:10EF0000F2F7CCFAE865C3F30520F3F78BFC00F0C9
:10EF10000F0020609AE01846F2F79CFA02E01846CB
:10EF2000F2F7BCFAE865C3F30520F3F77BFCC0B247
:10EF3000EFE71846F2F78EFA02E01846F2F7AEFA5B
:10EF4000E865C3F30520F3F76DFCC0F30B00E0E7C1
:10EF50001846F2F77FFA02E01846F2F79FFAE865E2
:10EF6000C3F30520F3F75EFC80B2D2E71846F2F750
:10EF700071FA02E01846F2F791FAE865C3F305204A
:10EF8000F3F750FCC0F31300C3E71846F2F762FA38
:10EF900002E01846F2F782FAE865C3F30520F3F7BA
:10EFA00041FC20F07F40B4E740000020003000200A
:10EFB00000200020001000201846F2F74BFA02E073
:10EFC0001846F2F76BFAE865C3F30520F3F72AFC5D
:10EFD00020F070409DE71846F2F73CFA02E0184630
:10EFE000F2F75CFAE865C3F30520F3F71BFC90E742
:10EFF0001846F2F72FFA05E000F1202035E0184618
:10F00000F2F74CFAC3F30D0101EB400080B240452A
:10F010003BD2F1E71846F2F71DFA02E01846F2F784
:10F020003DFAC3F30D0101EB400080B240452CD204
:10F030001D490844D0F8000A6BE71846F2F70AFAAF
:10F040000BE049465046F4F7CFFB2660686D801C04
:10F0500068651FE01846F2F721FAC3F30D0101EBD2
:10F06000400080B24045ECD23844006851E7184671
:10F07000F2F7F0F902E01846F2F710FAC3F30D01C7
:10F0800001EB400080B240450AD349465046F4F7B0
:10F09000ABFB2660686D001D68652068BDE8FC9FBD
:10F0A0003844D0F8D00734E7001000202DE9F84F9D
:10F0B000F74C4FF6FF75606D30F8022B60650388E2
:10F0C00002F47F41D2B205EA0325E26541EA132149
:10F0D0002A43A1F50045803D7ED0B5F50075FBD0F3
:10F0E0000125A1F50446823E77D0B61E76D0B61E25
:10F0F00075D0B61E74D02546A1F50643EE89803B37
:10F100006FD0E44BA1F50645823D6BD0E24DA1F5F1
:10F110000647843F67D0BF1EF7D0BF1E7ED0DF4EAC
:10F12000A1F51047803FB6F83AE878D0B6F86EB946
:10F130007F1E75D0B6F8726900967F1E71D0D74ECB
:10F140007F1EB6F876996DD0B6F87AA97F1E6AD080
:10F150003746A1F51046B7F87E89853E7DD0B7F8D1
:10F160008279761E7AD0CD4EA1F5104CBCF1870C79
:10F17000B6F88669E2D0A1F5004CBCF5945CD4D019
:10F18000BCF1010CD5D0BCF1010C68D0BCF1010C74
:10F19000D9D0BCF1010CDAD0BCF1010CDED0BCF14D
:10F1A000010CDFD0BCF10107C8D0BCF5FE767DD0E4
:10F1B000761E7CD0761E7BD0761E7AD0761E79D0D5
:10F1C000761E78D0761E77D0761E76D0BCF57F7608
:10F1D00074D0761E73D007E098E09CE0A1E0A8E030
:10F1E000ADE0B0E0C3E0B7E0761E69D0761E68D02F
:10F1F000761E67D0761E66D0761E7DD0761E7CD0B9
:10F20000A64EA1F52047803FB6F83868009695D005
:10F21000A24E7F1EB6F86CE901D005E0AAE09AE0A4
:10F2200076E096E076E074E0B6F870B97F1E6FD0B5
:10F23000B6F874A97F1E6CD0B6F878997F1E69D095
:10F240003746A1F52046B7F87C89853E05D0B7F84A
:10F250008079761E02D0914E02E090E090E079E055
:10F26000B6F88469A1F5204CBCF1870C71D0A1F5EA
:10F27000004CBCF50A5C6DD0BCF1010C6BD0BCF14C
:10F28000010C45D0BCF1010C43D0BCF1010C41D0C4
:10F29000BCF1010C73D0BCF1010C71D0BCF10107C1
:10F2A00057D0BCF5FE706CD0401E0DE06AE06DE0FA
:10F2B00077E082E092E095E09FE0A2E0AAE0ADE096
:10F2C000B2E0B5E0BFE0C2E06FD0401E6ED0401E9D
:10F2D0006DD0401E6CD0401E6BD0401E6AD0401EC8
:10F2E00069D0BCF57F7067D0401E70D0401E6FD0D3
:10F2F000401E6ED0401E01E0ADE0B0E06AD0401E7E
:10F3000069D0401E68D0401E67D02CE0228328E0E0
:10F31000B7E0B9E0C4E0D8B2F3F784FA00F00F0028
:10F3200003E0D8B2F3F77EFAC0B220836572606D55
:10F3300017E0D8B2F3F776FAC0F30B00F5E7D8B2CE
:10F34000F3F770FAF1E7911901F12021B1F80018F3
:10F3500006E0ADE08FE091E091192944B1F8001A80
:10F360002183801C6065B4F91800BDE8F88F9119FD
:10F37000C95AF5E791191944B1F8D017F0E792E0AE
:10F3800094E097E01046F6F773F802E01046F6F7BF
:10F3900089F8E065C2F30520F3F744FA00F00F00A6
:10F3A00067E01046F6F764F80AE087E08AE08DE04F
:10F3B00090E093E096E099E09CE01046F6F772F852
:10F3C000E065C2F30520F3F72DFAC0B251E095E0F5
:10F3D0009EE0A1E0A4E0A7E0AFE0B2E01046F6F7BF
:10F3E00047F802E01046F6F75DF8E065C2F3052045
:10F3F000F3F718FAC0F30B003BE01046F6F738F8C5
:10F4000002E01046F6F74EF8E065C2F30520F3F788
:10F4100009FA2EE01046F6F72BF872E01046F6F7E0
:10F4200041F86EE0008824E01046F6F721F802E08B
:10F430001046F6F737F8C2F30D0101EB40002844FF
:10F44000B0F8000A15E01046F6F712F86FE0104623
:10F45000F6F728F86BE01046F6F70AF802E01046D7
:10F46000F6F720F8C2F30D0101EB40001844B0F8A4
:10F47000D00720835BE70099114471E70EEB02018E
:10F480006EE70BEB02016BE70AEB020168E7000095
:10F49000400000200030002000100020002000204C
:10F4A00009EB02015CE708EB020159E7B91857E7DD
:10F4B000B11855E71046F6F7D3F96AE71046F6F7A4
:10F4C000E9F966E71046F6F7CBF979E71046F6F763
:10F4D000E1F975E71046F6F7C3F986E71046F6F747
:10F4E000D9F982E71046F6F7BBF98DE71046F6F733
:10F4F000D1F989E71046F6F7B3F902E01046F6F7BE
:10F50000C9F9C2F30D0101EB400000F1202089E7A9
:10F510001046F6F7A5F98EE71046F6F7BBF98AE72D
:10F520001046F6F79DF902E01046F6F7B3F9C2F37C
:10F530000D0101EB4000184474E71046F6F790F90E
:10F5400090E71046F6F7A6F98CE7000070B5114871
:10F550005224114AC481114B4FF4406100200E180F
:10F5600032F81050401C80B223F816507E28F6D393
:10F570000B4A105D224401020A485278114301806F
:10F580000949092081F8E0010248C82112300170C0
:10F59000417070BD160000209A260108001000205E
:10F5A000006000080050002000100020F0B5244D3D
:10F5B000DFF894C02A46E879928B24490CEB42028A
:10F5C00000F5606E02F5005201EBDE031D4E14885B
:10F5D0001978A6F108070EF00702C82819D30CEB1A
:10F5E000440C0CF5005C9CF802C004EB0C44DFF802
:10F5F00060C0A4B2AC835CF820C0A44502DAB25C5F
:10F60000114001E0BA5C11431970696D091D69650B
:10F6100010E00CEB400CAC830CF5206CC5F850C02E
:10F62000BCF80050A54202D2B25C114001E0BA5CC5
:10F6300011431970BDE8F04000F51C50F3F7AABB68
:10F64000400000200F2901080010002000100020B9
:10F65000E0180020F0B51F4E1F4F746DA7F1080C85
:10F6600014F8020B7465217800EB01201FFA80FE6C
:10F67000A6F81CE0F079194900F5606501EBD503A7
:10F6800005F007021978C82819D3241D7465247859
:10F69000002505EB0464124DA4B2B48355F8205044
:10F6A000A54202DABA5C114002E01CF802201143C4
:10F6B0001970BDE8F04000F51C50F3F76BBB094C26
:10F6C00004EB400404F52064F46424887445ECD20F
:10F6D000E8E70000400000200F290108001000208A
:10F6E000E01800200010002010B5084CA07901F0AF
:10F6F0008BFDA07900F5B050F3F74CFBA079BDE885
:10F70000104000F5C060F3F745BB0000400000204A
:10F710002DE9F003DFF8E4C0374E0125BCF81C00EA
:10F72000324606EB400000F50050DFF8D480048834
:10F73000ACF81C409CF80700A8F10809010902EB8D
:10F74000410300F00F022F49954000F5606707F074
:10F75000070201EBD70103F59C63C82829D306EB08
:10F76000440606F50056AFB2B67804EB0644A6B2DE
:10F77000254CACF81C6004EB80042568B54204DA23
:10F780001B889F4301D06D1C2560DCF848301B8826
:10F79000B3420B7803D218F80220134002E019F8A4
:10F7A000022013430B70DCF85410091DCCF85410E0
:10F7B0001CE006EB400606F52066AFB2CCF84860C8
:10F7C0003588A54204D21B889F4301D06D1C35802B
:10F7D000ABB2A34205D80B7818F8022013400B7087
:10F7E00004E00C7819F8022014430C70BDE8F00313
:10F7F00000F51C50F3F7CEBA0010002040000020A6
:10F800000F29010800100020E01800202DE9F00762
:10F810002E4DDFF8C08001246E6DDFF8B4902E4FBE
:10F8200016F8020B6E653178A9F1080A00EB012089
:10F8300082B2AA83E879010908EB410300F00F01C5
:10F840008C4000F5606C0CF0070107EBDC0703F55A
:10F850009C63C82828D396F802C0361D6E6536789A
:10F8600002EB0C4202EB066296B21C4AAE8302EB3C
:10F870008002A5B21468B44204DA1B889D4301D00B
:10F88000641C1460B44204DA3A7819F801100A4092
:10F8900003E03A781AF801100A433A70BDE8F0071D
:10F8A00000F51C50F3F776BA08EB400606F5206623
:10F8B0006E64A5B23488944204D21B889D4301D063
:10F8C000641C3480A3B29342E3D2DDE74000002001
:10F8D0000F2901080010002000100020E01800206F
:10F8E00010B50D4C0D4A606D10F8021B6065007874
:10F8F00001EB00216183A07902EB400202F59052F6
:10F900002264118001F0BCFCA079BDE8104000F534
:10F91000B050F3F73FBA0000400000200010002074
:10F92000054B00B5586D008820F45040F0F77EFD7F
:10F93000586D801C586500BD4000002010B5054C76
:10F94000606D008820F45040F0F73CFE606D801C34
:10F95000606510BD4000002010B5054C606D00884A
:10F9600020F45040F2F70EFD606D801C606510BD04
:10F970004000002010B5054C606D008820F4504018
:10F98000F2F79CFD606D801C606510BD400000209A
:10F9900010B5054C606D008820F45040F3F710F965
:10F9A000606D801C606510BD4000002010B5054CE6
:10F9B000606D008820F45040F3F776F9606D801C8C
:10F9C000606510BD4000002010B5054C606D0088DA
:10F9D00020F45040F3F7DEF9606D801C606510BDC7
:10F9E0004000002010B5054C606D008820F45040A8
:10F9F000F4F794FB606D801C606510BD4000002032
:10FA000010B5054C606D008820F45040F0F754FEAE
:10FA1000606D801C606510BD400000202DE9F04144
:10FA2000FD4C40F203162146606D0027097930F83D
:10FA3000023B04F16405A3F20312B3427ED068DCFA
:10FA40003B2B7CD024DCA3F102034FF08802392B3E
:10FA500076D2DFE803F0E5E4E3E5E4E3E2E175759F
:10FA6000E0DF75DEDD75DC75DB75757575757575D3
:10FA7000DE757575DA75D975D8D7D6D5D4D3D27564
:10FA8000D1D0CF75CECDCCCBCAC9C8C7C674C5003E
:10FA9000E24E4F2B73D00FDCA3F13C03132B4FD25C
:10FAA000DFE803F0D9D8D7D6D5D4D3D2D1D0CFCEB2
:10FAB000CDCCCBCAC9C8C700732B78D014DC602B5F
:10FAC00076D008DC502B74D0512B73D0522B72D0CF
:10FAD000532B35D175E36A2B6ED0702B6DD0712B03
:10FAE0006CD0722B2CD19EE3C02B68D008DC762B17
:10FAF00066D0782B65D0822B64D0942B20D1B8E3CC
:10FB0000ED2B60D0EE2B5FD0A3F58073013B17D1B6
:10FB1000BEE3D52A59D042DC642A57D030DC342ADF
:10FB200055D017DC102A53D00BDC022A51D0042AFE
:10FB300050D00C2A4FD00F2A02D1E4E3B5E304E2FF
:10FB40004DE0122A48D0142A47D0162A46D0332A2C
:10FB500045D1EAE3592A64D008DC4D2A62D04F2A05
:10FB600061D0512A60D0532A39D1F3E35B2A5CD0AB
:10FB7000612A5BD0622A5AD0632A30D1EBE3E8E2F3
:10FB8000BF3A142A2BD2DFE802F0FDFCFBFAF9F8A9
:10FB90009F9FF7F6F5F4F3F2F1F0EFEEEDECEE2ABD
:10FBA00046D068DCA2F1D602182A18D255E047E305
:10FBB00011E3E0E2E9E2F2E230E3E2E3EEE3DBE389
:10FBC00046E351E3F6E359E35DE3F4E3F4E3F4E3FE
:10FBD000A2E382E375E38CE3A8E3B1E3BCE373E063
:10FBE000C0E1A8E1A2E19CE196E190E17EE172E151
:10FBF0006CE166E160E157E14EE148E141E13AE163
:10FC000034E12EE101E1F6E0E4E0DEE0C4E09AE078
:10FC100085E091E07EE078E072E06CE066E060E034
:10FC20005AE0F2E3E0E3E4E3E8E3EFE3EFE3EFE3FA
:10FC3000F0E37DE272E262E259E24AE23CE231E262
:10FC400026E218E20DE202E2F3E1E4E1D7E1C7E1E6
:10FC5000C1E1A7E1A1E190E10DE0DFE802F0F5F4F8
:10FC6000F3F2F13535F0EFEEEDECEB3535EAE9E89E
:10FC7000E7E6E53535E4FA2A72D00BDCA2F1EF02B3
:10FC80000B2A21D2DFE802F0E86CE7E62020E5E469
:10FC9000E3E2E10040F63D73A2F63D719A4272D074
:10FCA00009DC11F1300249D0022A58D0142A6BD055
:10FCB000152A09D1AEE0012967D0022966D0A1F248
:10FCC000BF71B1F5604F7DD0022140F64170F3F76E
:10FCD0008BFD606D801C2EE06065BDE8F041FFF794
:10FCE00073BE6065BDE8F041FFF78ABE6065BDE8A0
:10FCF000F041FFF777BE6065BDE8F041F2F7DABC8E
:10FD00006065BDE8F041F2F76FBC6065BDE8F041A9
:10FD1000F4F74CBA6065BDE8F041F4F715BA6065D8
:10FD2000C9077FD00088B2EB102F05D1BDE8F041A4
:10FD3000C0B2F0F7F3BD6065BDE8F0816065BDE875
:10FD4000F041F0F7FFBD6065C907EAD00088B2EB6B
:10FD5000102FF1D1BDE8F041C0B2F0F767BD16E059
:10FD6000FEE3E1E3DBE3D5E3CFE3C9E3C3E3BDE3D4
:10FD7000B7E3B1E3ABE3A5E39FE399E393E38DE35B
:10FD800087E381E37BE335E13AE03FE14CE1606505
:10FD9000BDE8F041F0F776BD2149A1F50172087880
:10FDA0002071106860653E2001EB40035B8821F8FC
:10FDB000103002EB80035B6842F82030401E10F0E8
:10FDC000FF0000E0EFE3EFD1B6E76065BDE8F0418A
:10FDD000F2F7BEB9124B6065803393F8382003EB1D
:10FDE0004200818B458DA942A6D253F82220491C9E
:10FDF00062658183A0E76065BDE8F041F0F7EEBD84
:10FE00006065BDE8F041F0F755BE6065BDE8F041C2
:10FE1000F1F732B8606520E04000002000100020BB
:10FE2000E404002052E1DCE3F2E3F2E3F2E3F2E384
:10FE3000F2E3F2E3E3E3DBE3CAE3C2E3B8E3ABE319
:10FE4000A5E39FE399E37EE378E3E7E3E7E3E7E312
:10FE5000E7E3E7E3E7E3E7E3E7E3BDE8F041F1F7F2
:10FE600075B86065BDE8F041F5F72EBD6065BDE889
:10FE7000F041F1F739BB6065C90771D0FFF716F99A
:10FE800010E06065C9076CD0FEF794FE12E0606573
:10FE9000BDE8F041F4F7A0BB6065C907EDD0FFF7FE
:10FEA00005F9C04320661EE16065C907EBD0FEF787
:10FEB00081FEC0432066C6E06065BDE8F041F0F712
:10FEC00065BC6065BDE8F041F2F70EB96065BDE85C
:10FED000F041F1F76DB96065C907CED0FFF7E6F8DC
:10FEE0000546FFF7E3F8616D08390AE06065C80769
:10FEF0003FF46AAFFEF75EFE0546FEF75BFE616DFE
:10FF0000103961652066F1F793FB25669BE060651B
:10FF1000BDE8F041F0F772BB6065BDE8F041F0F775
:10FF2000C5BE6065BDE8F041F0F79ABB6065BDE80D
:10FF3000F041F0F721BF6065C90773D0FFF7B6F84D
:10FF40000546FFF7B3F82844ACE76065C9076AD0F7
:10FF5000A065FEF72FFE0546FEF72CFE2844A9E714
:10FF6000CCE0E1E16065C9075CD0A065FFF79EF8D1
:10FF70000546FFF79BF8281A94E76065C90751D03A
:10FF8000A065FFF793F80446FFF790F80546FEF7E3
:10FF900005FC04FB05F10160CEE66065BDE8F041BB
:10FFA000F1F72CBA6065C90770D0A065FFF77EF83D
:10FFB0000546FFF77BF80446FEF7D0FB01B295FB40
:10FFC000F4F095FBF4F226F8110004FB125006EB56
:10FFD00041014880B0E66065BDE8F041F1F75CB8EA
:10FFE0006065C90772D0FFF761F8616D091F401C99
:10FFF000616557E76065BDE8F041F2F763B9606598
:020000040801F1
:10000000C9077BD0FEF7D6FD401C18E06065BDE84F
:10001000F041F1F7FDB86065C90757D0FFF746F822
:10002000401E5CE032E052E06065BDE8F041F1F76F
:1000300065B86065C907E4D0FEF7BCFD401E2066C8
:10004000606D08386065BDE8F041F1F7F1BA6065B0
:10005000C9071BD0FFF72AF80546FFF727F8054028
:1000600012E06065C90732D0FEF7A4FD0546FEF731
:10007000A1FD054049E76065C90707D0FFF716F8FD
:100080000546FFF713F8054325662CE00C3052E6D1
:100090006065C9071BD0FEF78DFD0546FEF78AFD9A
:1000A000054332E76065C907F0D0FEF7FFFF05465C
:1000B000FEF7FCFF4540E7E76065C90707D0FEF79C
:1000C00079FD0546FEF776FD45401EE777E01830DE
:1000D00031E66065C90772D0FEF7E8FF404220664E
:1000E000606D001F6065BDE8F04100F04BBF6065CA
:1000F000C90786D0FEF75EFD4042A0E7B0E060652C
:10010000C90798D0FEF7D2FF85B2FEF7CFFF80B2C5
:1001100025FA00F1C0F11000854017E06065C807BE
:100120003FF452AEFEF746FD0546FEF743FD19E0EB
:100130006065C907DDD0FEF7B9FF85B2FEF7B6FFEF
:1001400080B205FA00F1C0F11000C54029432166D4
:100150002FE06065C807E3D0FEF72CFD0546FEF7EB
:1001600029FD4042C5412566606D10386065F1F794
:100170005FFA606D72E16065C90771D0FEF796FFA6
:1001800085B2FEF793FFC54012E06065C807C7D08F
:10019000FEF710FD0546FEF70DFDC540E3E760657F
:1001A000C9075DD0FEF782FF85B2FEF77FFF85406D
:1001B0002566606D0838606500F0E4FE606D001D26
:1001C000B9E56065C807ABD0FEF7F4FC0546FEF75D
:1001D000F1FC8540C7E76065C90741D0FEF7BEFA6C
:1001E0000546FEF7BBFA0146207858B113E002EB52
:1001F000D50005F007060378A65D33406D1C03703B
:10020000ADB201E0F74AF84C8D42F0D994E526F8FA
:1002100015706D1CADB28D42F9D98DE56065BDE8F4
:10022000F041F2F7A1BA6065C90719D0FEF73EFFA9
:1002300001F0FCFF2860F0F7ADFF606D001F7AE56C
:100240006065C90770D0FEF7B5FC01F0EFFF8EE0E6
:10025000E64D6065C90704D0FEF728FF28706BE5FE
:10026000D2E00A212970AAE76065BDE8F041F2F703
:1002700083BB6065BDE8F041F0F7B0B86065BDE8EC
:10028000F041F1F7E1BB6065BDE8F041F1F7BEBDBB
:100290006065C9073FF41BAFFEF738FC0446FEF764
:1002A00035FC214601F03EFE61E06065C907F1D0F2
:1002B000FEF72CFC0446FEF729FC214602F000F96B
:1002C00055E06065C907E5D0FEF720FC0446FEF75F
:1002D0001DFC214601F094FE49E06065C907D9D0B4
:1002E000FEF714FC0446FEF711FC214601F0EAFF7C
:1002F0003DE06065C90717D0FEF708FC01F0E6FD98
:1003000000F0C8FD31E06065C9077DD0FEF7FEFB57
:1003100001F06CFF80B2E2E66065C90704D0FEF729
:10032000F5FB01F063FFC5E573E04CE06065C907CC
:100330006FD0FEF7EBFB01F0C9FD00F05BFD14E0B0
:100340006065C90765D0FEF7E1FB01F0BFFDFEF770
:100350008FFB0AE057E078E06065C90759D0FEF7E7
:10036000D5FB01F0B3FD00F0DBFD01F013F82860D0
:10037000BDE8F041F0F70EBF6065BDE8F041F2F76F
:10038000D7BF6065C8073FF41FADFEF78FFE01F0D1
:1003900098FA00F07FFD01F067FA5DE06065C8073C
:1003A000F1D0FEF707FC01F08CFA00F073FD01F0CC
:1003B0005BFA77E502E0BCE052E00DE06065BDE885
:1003C000F041F3F787BC6065C90747D0FEF76EFEC2
:1003D000011241EA002082E66065C807D3D0FEF72B
:1003E000E9FB4FEA30402AE66065BDE8F041F4F7EA
:1003F0000DBA6065BDE8F041F4F7F6BC6065BDE894
:10040000F041F4F7DBB906E028E009E032E00CE067
:1004100013E02DE051E16065BDE8F041F4F78ABCDE
:100420006065BDE8F041F4F75BBC6065C90715D0B5
:10043000FEF73CFEF0F7EAF90EE06065C90717D059
:10044000FEF734FEF0F7E2F934E56065C90705D040
:10045000FEF72CFEF1F725FF80B223E508306AE4B1
:100460006065C90704D0FEF721FEF1F71AFF21E508
:10047000103060E46065BDE8F041F4F783BC60656E
:10048000BDE8F041FFF768BA6065BDE8F041FFF7ED
:1004900071BA6065BDE8F041FFF742BA6065BDE83A
:1004A000F041FFF74BBA6065BDE8F041FFF770BA65
:1004B0006065BDE8F041FFF779BA6065BDE8F041DD
:1004C000F2F728B86065BDE8F041F1F785BF6065D7
:1004D000BDE8F041F0F71EB86065BDE8F041EFF708
:1004E000C1BF6065BDE8F041F2F7FCBB6065BDE8E7
:1004F000F041F2F781BB6065BDE8F041FEF7F2B96B
:100500006065BDE8F041F1F7A3B96065BDE8F04171
:10051000FEF746BA6065BDE8F041F1F7C3B9606522
:10052000BDE8F04100F004BA6065BDE8F041F1F7C4
:100530000DBA6065BDE8F04100F0C2BA6065BDE883
:10054000F041F1F757BA6065FEF7B0FD0546FEF7DA
:10055000ADFDE17A01290CD021794906090E00E0B0
:10056000F7E0217185423FF72FAC41F00100207187
:100570002AE48542FCDD2079F2E06065BDE8F041C7
:10058000F1F70EBA6065BDE8F041FEF733BA606579
:10059000BDE8F041F1F7B0B96065FEF787FD0546AB
:1005A000FEF784FD0AE0DEE02079C10777D171E033
:1005B0006065FEF7FFFA0546FEF7FCFA8542F3D0C8
:1005C00068E06065FEF772FD0546FEF76FFD05E029
:1005D0006065FEF7EFFA0546FEF7ECFA8542E3DCCC
:1005E00058E05FE0001000200F290108D80000202B
:1005F0006065FEF75BFD0546FEF758FD05E06065AA
:10060000FEF7D8FA0546FEF7D5FA8542CCDB41E085
:1006100038E030E026E019E00FE007E08FE085E009
:100620007DE073E06BE061E059E04FE06065FEF76C
:100630003DFD0546FEF73AFD05E06065FEF7BAFAB6
:100640000546FEF7B7FA8542AED123E06065FEF7B6
:100650002DFD0546FEF72AFD85428CDC2079C10779
:100660001DD188E76065FEF7A5FA0546FEF7A2FAF8
:10067000854299DD0EE06065FEF718FD0546FEF740
:1006800015FD05E06065FEF795FA0546FEF792FA5E
:10069000854289DA207920F0010068E7FFE740F021
:1006A000010064E76065FEF701FD0546FEF7FEFC0C
:1006B00009E02079C1074AD152E06065FEF77AFA75
:1006C0000546FEF777FA854241D0F2E76065FEF70E
:1006D000EDFC0546FEF7EAFC854238DCE9E760659B
:1006E000FEF7E4FC0546FEF7E1FC05E06065FEF779
:1006F00061FA0546FEF75EFA854228DBD9E76065B8
:10070000FEF7D4FC0546FEF7D1FC05E06065FEF778
:1007100051FA0546FEF74EFA854218D1C9E76065E1
:10072000FEF7C4FC0546FEF7C1FC05E06065FEF778
:1007300041FA0546FEF73EFA854208DDB9E76065F5
:10074000FEF7B4FC0546FEF7B1FC8542B1DB20792B
:10075000A5E76065FEF72EFA0546FEF72BFAF4E7EB
:1007600000F0FE0003E76065E77215E470B5002253
:100770000D4B0E4D11466424002000EB400603EBA8
:10078000860636F81160401CC0B232446428F4D3A7
:1007900092FBF4F005EB4102491CA2F83C0E00224A
:1007A000C9B20629E8D370BDA007002000100020C0
:1007B00070B505220C0ACBB2A0F500400B4980B2FF
:1007C00047F65C550E5C9E4205D10E187678A6421F
:1007D00001D1002201E0801C80B2A84201D8032A86
:1007E000F0D800F5004080B270BD00000060000845
:1007F0002DE9F0411A4C1B4D6179A07901EB0020E5
:1008000081B2288AFFF7D4FF28820221617031214A
:10081000A170010AC2B21448032700EB111301F0C2
:100820000F011B78E370415C217100EB121602F09E
:100830000F0236786671825C3133194431441144B9
:10084000A271C91CC9B200EB1112E771127801F054
:100850000F012272405C60720920A881BDE8F0811E
:100860008C7E0020160000209A28010830B505482B
:10087000054A0623458901215370052481810471AD
:1008800030BD0000160000208C7E002070B50C4B9F
:100890000A480C4D58650020B02443F67F66596D18
:1008A0000A88B4EB122F02D1D2B245F82210891C6B
:1008B000401C80B25965B042F1D370BD5C60000845
:1008C00040000020DC000020094A084843F67E630F
:1008D00050650020516D401C891C5165098880B20B
:1008E0000F2901D09842F5D3704700005A600008E4
:1008F0004000002070B50025012310E00C1A641C94
:1009000005EB5404A24201D2012600E000269E42DB
:1009100008D003B125460844401C40080023884203
:10092000ECD370BD03B925460144491E4908E3E7ED
:1009300010B5FEF7BBFB0446FEF7B8FB0E4AD17AB2
:10094000012911794FEA41614FEA1161117102D019
:1009500084420DDB10BD8442FCD1D08B074C04EBEC
:10096000D003074C00F007001B78205C0342F1D055
:1009700041F00100107110BD400000200010002067
:10098000072901080F490A200870F2F7BBFEF3F7A8
:100990004DFDFEF7DBFDF4F7E5FBF3F7D1F80120A1
:1009A000F2F746F8084D094E0124C5F8A441F3F7C3
:1009B00061FCF2F743FF30780028F6D0F4F700FA34
:1009C000F3E7000014000020008021421A000020FC
:1009D0002DE9F84F364E05468946717000F5004006
:1009E00080B20F21FFF7E4FE4844A0F5004084B236
:1009F0005B2D24D9A5F15C0001044FEA115C7178EC
:100A0000A4F15C004908C0F34E00C00801F00703E0
:100A1000CF087370274903E0C619401E8A5580B27B
:100A200001EB00020E5C12F8012C604502EB06227D
:100A300002FA03F24FEA1222EED138440A544FEA86
:100A4000D42BE00A0090B0EBD52F02D1C5F30A06F3
:100A500000E00026BBEBD42F03D1C4F30A077F1CB0
:100A600001E04FF400670098FDF782FFE30ADB0224
:100A70003046DFF844C0DFF844A07A1C0AE003EBFC
:100A80000008A8EB090189B21CF801802AF810803F
:100A9000401C80B29042F2D3009800F04DFCB81B8D
:100AA000201A84B205EB0900A042CAD3BDE8F88F32
:100AB000160000205083002000600008886E00208F
:100AC00010B5FEF7F3FA0446FEF7F0FA0E4AD17AB3
:100AD000012911794FEA41614FEA1161117102D088
:100AE00084420DD110BD8442FCD0D08B074C04EB66
:100AF000D003074C00F007001B78205C0342F1D0C4
:100B000041F00100107110BD4000002000100020D5
:100B1000072901082DE9F047494E4A4DB079317A4D
:100B20000C1A002C06DD288AE1B2A0F5004080B244
:100B3000FFF74EFF44480022B0460270317A30463B
:100B4000E970404E642112364FF4004331707170E9
:100B5000017998F803003D4F03EB00200844E88139
:100B6000EA8024E0E8894318DA0A32707078824219
:100B700008D108EB0100514203EBC121407A27F86C
:100B8000110011E000F0D8FB3078FDF7F1FE30786D
:100B90007070E988EB8908EB01021944404201EBCF
:100BA000C020527A27F81020E888401CE880E988A5
:100BB000E8788142D6D3307800F0BEFB002C37DADB
:100BC00064420F214FF40040FFF7F2FDE989DFF89E
:100BD0008090401A288124E0E9890144CA0A3270D1
:100BE0007078824208D10B19524201EBC22119F8E8
:100BF000030027F8110011E000F09EFB3078FDF7AC
:100C0000B7FE30787070E989EA8811440B194042C8
:100C100001EBC02019F8032027F81020E888401CB9
:100C2000E880E88829898842D6D3307800F084FBB0
:100C3000062188F801100120A881BDE8F087000096
:100C40008C7E0020160000204A000020886E0020C4
:100C50000060000870B4174AF838082855791179EF
:100C600005F0010601F0FE0444EA06031CD2DFE8A9
:100C700000F00409101414161B0E01EA510000F0D4
:100C8000010003E001F0010040EA5100107170BC66
:100C9000704765F35F015171F9E71371F7E70120C0
:100CA000884304431471F2E770BC02214FF474606E
:100CB000F2F79ABD400000202DE9F043DFF874C040
:100CC0000220DFF878808CF80100002108461A4DD8
:100CD000DFF86C9098F80370B8F80E6013E0831991
:100CE00003EB09040CEB40032278401C05EB1212C5
:100CF00080B212789A70247804F00F042C5DDC70B6
:100D000022441144C9B2B842E9D30CEB4002032398
:100D1000C91C9370C9B205EB111301F00F011B78C8
:100D2000D370695C1171042101EB4000A8F80C003C
:100D3000BDE8F0838C7E00209A2801081600002070
:100D400000100020F8B51B491B4FDFF874C031F8C4
:100D5000100000900220787000210846174DEE46E2
:100D60009CF8036010E01EF8004007EB400305EB21
:100D7000141204F00F0412789A702C5D401C224467
:100D80001144DC70C9B280B2B042ECD307EB400230
:100D90000323C91C9370C9B205EB111301F00F01B5
:100DA0001B78D370695C1171042101EB4000ACF831
:100DB0000C00F8BD9A2601088C7E00209A280108B4
:100DC000160000200349C878897801EB0020024909
:100DD000C88170478C7E0020160000200349C87827
:100DE000097901EB00200249088270478C7E0020BF
:100DF0001600002000B5254B21F0004287B09A4232
:100E000003DC0022134600922BE0214B9A4208D1CA
:100E100040B94FF00100EFF79EFAF5F7E8F807B098
:100E200000BD03DBF5F7E0F807B000BD02AAF4F758
:100E3000CDFD10F003014FF001000DD0012914D0B9
:100E400002291AD00DF1080C9CE80F00F4F782FF7C
:100E500007B081F0004100BD0DF1080C00909CE846
:100E60000F00F5F74BF807B000BD0DF1080C9CE83A
:100E70000F00F4F76FFF07B000BD0DF1080C0090F4
:100E80009CE80F00F5F73AF8E2E70000FB21E93FA4
:100E90000000F07F2DE9F04106460F4600F046FEC7
:100EA00004000D4618BF0120284320F00040C0F187
:100EB0007F6000F1E040C00F0ED0301C18BF012051
:100EC000384320F00040C0F17F6000F1E040C00FE7
:100ED00004BF0120EFF73FFA20462946BDE8F08124
:100EE000F0B50E490B4C04204B890B4DA4F2622641
:100EF0009B1E0BE02718215C7F7806EB5002695C93
:100F0000EF5D801C07EB0111117080B29842F1DB9C
:100F1000F0BD0000EE800020AE2801081600002081
:100F200010B5164B21F00042012486B09A4203DC32
:100F30000022134600941CE0114B9A4208D140B99C
:100F40004FF00100EFF707FAF5F751F806B010BDC2
:100F500003DBF5F749F806B010BD02AAF4F736FD39
:100F600000F00100A4EB40000DF1080C00909CE89B
:100F70000F00FDF7ADFA06B010BD0000FB21E93F00
:100F80000000F07F2DE9F0419C4C666D36F8020BB5
:100F90006665318800F47F4242EA11234FF6FF7202
:100FA00002EA0125C2B2E26520462A430125006E0D
:100FB000A3F50447823F71D0BF1E6FD0BF1E6DD016
:100FC000BF1E6BD02046B7F5FC75B0F86010C08925
:100FD00009B271D0AD1E75D0894FAD1E7DD0894D3F
:100FE000A3F5064CBCF1860C7CD0BCF1020C7DD084
:100FF000A3F5144082387ED0401E6AD0401E7AD0BD
:10100000401E66D0401E76D0401E62D0401E72D078
:10101000401E5ED0A3F51640823870D0401E6FD0BF
:10102000401E6ED0401E6DD0401E6CD0401E6BD056
:10103000401E6AD0401E69D0A3F5244082386ED08D
:10104000401E6DD0401E6AD0401E69D0401E66D042
:10105000401E65D0401E62D0401E61D0A3F52640E0
:1010600082386ED0401E6DD0401E6CD0401E6BD0BA
:10107000401E6AD0401E69D0401E68D0401E16D166
:101080001046F4F707FCC2F30D0101EB40012944BF
:10109000B4F86000A1F8D00739E0FFE7CAB281B226
:1010A000D8B2F1F7DBFB606D801C60652572BDE88E
:1010B000F08101E006E010E0104400F12020A0F8EB
:1010C000001807E0104400F120200DE00AE00DE0D8
:1010D00011E020E0B61C6665E9E710443844A0F84A
:1010E000001AF7E7104428440180F3E7104428442D
:1010F000A0F8D017EEE71046F4F7BAF93FE010E099
:1011000013E016E019E023E026E029E02CE0606D12
:10111000801C6065CBE71046F4F7C4F92FE027E0A8
:101120002AE01046F4F7A4F93AE01046F4F7BAF9C9
:1011300036E01046F4F79CF943E01046F4F7B2F9B4
:101140003FE026E029E035E038E044E047E051E0C8
:101150001046F4F78DF945E01046F4F7A3F941E0A5
:101160001046F4F785F98EE71046F4F79BF98AE705
:101170001046F4F775FB02E01046F4F78BFBE065D0
:10118000B4F86000C2F3052281B2D8B2F1F766FB71
:10119000BDE71046F4F764FB02E01046F4F77AFB73
:1011A000C2F30D0101EB400000F12020B4F8601003
:1011B0000180ACE71046F4F753FB02E01046F4F769
:1011C00069FBC2F30D0101EB40013944B4F8600042
:1011D000A1F8000A9BE71046F4F742FB02E0104634
:1011E000F4F758FBC2F30D0101EB4001B4F86000C5
:1011F00048538CE71046F4F733FB44E740000020E7
:101200000010002000300020F0B51949194A01EB08
:10121000400404F5905104F58054C2E902140B46D1
:1012200000F5C0610C46144D04F00707134C05EBA4
:10123000D1010E78E75D3E400E7000F5B0510E46CC
:1012400005EBD10106F007060F78A65D00F56050AA
:1012500037400F7005EBD00100F007000D78205CDF
:1012600005400D7000201880D1680880F0BD000096
:1012700000100020C8000020001000200F290108E5
:10128000F0B51C491C4A01EB400303F5905103F5EE
:101290008053C2E90213B1F800C000F5C06101F04B
:1012A0000705CC081649154F0C441E887A5D217835
:1012B00066451CD2114200F56050DFF844C000F0D2
:1012C00007020CEBD00003D00178BA5C11430CE0AC
:1012D0000C4E755D294021700178BC5C214205D01F
:1012E000002119800178B25C11400170F0BD1143FA
:1012F0002170F0BD00100020C8000020072901085F
:10130000001000200F2901081FB54FF480610090E4
:101310000020ADF80400ADF80600ADF80810ADF8F7
:101320000C000C20ADF80A0069460248F4F746F8B4
:101330001FBD0000003801402DE9F041054611288D
:1013400021D2F0F7B3FE114E06EBC520F0F75AFE9E
:1013500000240F4FED024FF4806807EB840237F84A
:101360002410927805EB4400304401EB022180B256
:1013700089B2F0F781FE641CA4B24445EDD3BDE808
:10138000F041F0F771BEBDE8F08100000060000898
:10139000886E002021F00042A2F16052B2F5801F59
:1013A00001F0004328BFD2F17F6C0BD95FEA001C2B
:1013B00043EAC20242EB507018BF704728BF20F0CA
:1013C00001007047B2F5801FBCBF184670474FEA56
:1013D000410C1CF5001F02D2084601F03AB870B566
:1013E00000F044FB00000089FFF7F6BF4FF000401B
:1013F000A0F580007047000010B591EA030F48BFC8
:1014000083F0004300F18084841A71EB030C05D251
:10141000121943EB0C03001B61EB0C01DFF824E114
:101420004FEA1154A4EB135C1EEA430F18BF9EEA67
:10143000445F73D023EA0E03DCF1200E21EA04514D
:1014400043F4801332D322FA0CFE10EB0E0023FA81
:101450000CFE41EB0E01CCF1200E03FA0EFE10EB58
:101460000E0051F10001B1F5801FCCF1200E32D2F7
:1014700001EB045112FA0EF2BDE8104058BF70475C
:10148000401C38BF5FEA420218BF7047002814BFF3
:1014900020F0010041F100014FEA410313F5001F64
:1014A00038BF7047A1F1C04100F02EBB012A43EBC9
:1014B0000302ACF1200CDCF11F0E32BF4FF0000E26
:1014C00023FA0CF310EB030041EB0451B4EB115F72
:1014D000D0D0A1EB045101F5801149085FEA30003A
:1014E00001EB04510ED350F1000038BF12FA0EFE8A
:1014F00008D1BDE81040C9E7401C38BF5FEA42028E
:10150000CAD1C3E7BDE810404FEA410313F5001FFD
:1015100038BF7047A1F1C04100F0F6BA9EEA445FBF
:1015200008D011EA5E0FBDE8104004BF01F0004191
:1015300000207047BDE8104070B500F097FA00BF7A
:1015400064FBBE3E0000E0FF02494FF0000001F0E6
:101550002CB800BF0000F87F2DE9C04130B4DFF89F
:10156000A0C23CEA111418BF3CEA131400F0EC804E
:1015700081EA03051CEA111444EAD57418BF1CEA79
:10158000131500F0C780A4EB05044FF0004545EAB1
:10159000C12145EAC32341EA505143EA525304F1C1
:1015A0007F74994204F500344FEAC0204FEAC2220A
:1015B00008BF904200F09C804FEA13650FF240167E
:1015C000765D4FEA134506FB05F7C7F1807706FB0A
:1015D00007F74FEAD737A7FB03687642C8F580388C
:1015E000A7FB06CE38BFA8F1010807FB08E64FF0BD
:1015F000000EA6FB028CE6FB03CEDCF1000CCEF164
:10160000004E38BFAEF1010EA6FB0C584FF000079C
:101610004FF00005E6FB0E87A1FB08C6A0FB07CE36
:1016200016EB0E0645F10005E1FB076515F1E04EEE
:101630007EBFA4F580345FEA46066D4116F180074F
:1016400045F100054FEA17274FEA066647EA0567A6
:10165000A6F1DE46B6F1805F4FEA15251FD9384660
:1016600024F0010C05EBC471BCF1FE6F01EB0C1111
:1016700002D8F0BCBDE8008124425CBF01F5801EA9
:101680009EEAC47F02D4F0BCBDE80081244238D475
:10169000F0BCA1F1C041BDE8004100F035BA4FEA0D
:1016A000D22242EA43524FEAD323A7FB02864FEAF3
:1016B000D02040EA415007FB03661EEA0E0F4FEAB6
:1016C000D12105FB026658BFA6EB0056B6EB0056CB
:1016D0004FEA520E4EEAC37E18EB0E0E56EB530E37
:1016E000BDD518EB02085E417F1C55F10005B6E739
:1016F0004FF480154FF000074FF000064FF0000840
:10170000ADE7F0BC4FF0000001F1C04101F0004135
:10171000BDE8008111EA0C1F0CEA131500D00CE0A3
:1017200013EA0C1F00F025804FF00000F0BC81EAA6
:10173000030101F00041BDE80081F0BCBDE80041BB
:1017400081EA030100F0E0B9F0BCBDE8004170B5EA
:1017500000F08CF9097EFC3E00F007B881EA030135
:101760004FF0000001F00041704781EA030100F0F2
:10177000CBB9F0BCBDE800414FF0000021497047F3
:10178000FFFDFBF9F7F5F4F2F0EEEDEBE9E8E6E446
:10179000E3E1E0DEDDDBDAD8D7D5D4D3D1D0CFCDCD
:1017A000CCCBCAC8C7C6C5C4C2C1C0BFBEBDBCBB06
:1017B000BAB9B8B7B6B5B4B3B2B1B0AFAEADACAB01
:1017C000AAA9A8A8A7A6A5A4A3A3A2A1A09F9F9EDB
:1017D0009D9C9C9B9A99999897979695959493938D
:1017E000929191908F8F8E8E8D8C8C8B8B8A898924
:1017F00088888787868585848483838282818180A7
:101800000000FF070000F87F4FEA41034FEA5353FF
:10181000A3F58063D3F11E03C8BFD3F1210C0CDD07
:101820004FF0004242EAC12242EA505232FA03FC2F
:101830008CEAE17CACEBE1707047102BC4BF002058
:10184000704703F5787CBCF1FF3F04D06FF0004295
:1018500082EA2100704770B500F008F949922480AF
:1018600000207047F2E700004FEA1153A3F58063B0
:10187000D3F11E03A8BFD3F1200C08DB4FF00042C8
:1018800042EAC12252EA505232FA03F0704709424A
:101890000BD4102BC4BF0020704703F5787CBCF13B
:1018A000FF3F05D04FF0FF3070474FF0000070470A
:1018B00070B500F0DBF800BF49922480002070472B
:1018C000F0E710F0004248BF4042B0FA80F310FA4F
:1018D00003F10AD0C3F11D0303F580634FEA4150C1
:1018E00002EB035202EBD12170474FF0000070472A
:1018F000B0FA80F310FA03F10AD0C3F11D0303F527
:1019000080634FEA41504FEA035202EBD121704706
:101910004FF0000070470000DFF848C170B51CEAC6
:10192000111E1EBF1CEA13159EEA0C0F95EA0C0F40
:1019300000F06F8081EA030423EA4C134EEAD47E60
:1019400021EA4C1141F4801143F48013AE44A1FB11
:10195000024CA0FB0365AEF17F7E361955EB0C05FA
:10196000A1FB034C4CF10003A0FB021C16EB0C0680
:10197000654153F10003094218BF46F0010613F414
:10198000007F0BD14FEA03314FEA0530340341EABF
:10199000155140EA16506FF003020AE04FEAC321E6
:1019A0004FEAC520F40241EA555140EA56506FF023
:1019B000020202EB2E4201EB025585EACE710AD0FB
:1019C0005FEA440C18BF24F0004450F1000041F1DC
:1019D000000120EAD47040F2FE7C624500D270BD66
:1019E000A84214BF4FF080444FF04044002E08BF7F
:1019F0000024BEF1806FA8BFA1F1C041BDE87040D6
:101A000080F282804FF0000001F1C04101F00041FE
:101A100070479EEA0C0F0CEA131518BF95EA0C0FDD
:101A200006D04FF0000081EA030E0EF0004170BDB9
:101A300000F01CF88900013E00F007B800F009B87A
:101A40004FEA430C5FEA5C5C08D081EA030100F0D6
:101A50005BB84FEA410C5FEA5C5CF6D14FF00000E6
:101A6000014970470000FF070000F87F0EF1020EE9
:101A70002EF0030E5EF8046B364205D4012A43EBC8
:101A8000030515F5001F12D8012841EB010C1CF5C8
:101A9000001F0CD80ED14FEAD17C15F5001F0CEBBE
:101AA0004C0C0CF1020C08BF4CEBD37C04E04FF063
:101AB000080C01E04FEAD37C0CEB4C0526FA05F646
:101AC00006F00706B6F1040C06D20EEB860CBDE854
:101AD00070404CF0010C6047DFE80CF0090B02028B
:101AE0004FF000414FF00000A1F5002170BD1946F4
:101AF0001046012851EB010418BFD4F5001484BF2F
:101B0000002001F0004170BD0808A0F500114FEA67
:101B10003101704791EA030F10B581F000413FF5A4
:101B200073AC83F0004300F0EFB800002DE9F04102
:101B300001F5801CBCF5001FC0F2C3804FEA115CA8
:101B400021EA0C510CF1FD0C41F480115FEA5C0CB0
:101B50000CF5C07C01D3400049413DA4890241EA13
:101B6000905187028E0E0A0CA45D04FB04F602FB62
:101B700006F6C6F14046A4FB0662F60D46EA42268A
:101B800006FB06F4A4FB01235242C3F1404338BFD5
:101B90005B1EA6FB02420024E6FB0324D20B42EAB2
:101BA0004446A6FB0623A1FB02E2A3FB07E4A4181C
:101BB0004FF0000252F10002E3FB01426442C2F125
:101BC000404E38BFAEF1010EA6FB04234FF00002D9
:101BD000E6FB0E32A2FB03464FF00004B61954F1A7
:101BE0000004E2FB0264A1FB06E6A4FB07E816EB97
:101BF00008064FF0000858F10008E4FB016876423F
:101C0000C8F1405838BFA8F10108A2FB06E4A3FBC5
:101C100008E52D194FF0000454F10004E2FB0854CC
:101C2000A1FB05E6A7FB04E818EB06084FF0000649
:101C300056F10006E1FB048618F1200556F1000676
:101C4000A809A8F11B08B10908F03F08B8F10A0F6C
:101C500040EA86601CD901EB0C51BDE8F08100BF61
:101C6000FCF5EEE8E2DDD8D3CFCBC7C3C0BDB9B633
:101C7000B4B1AEACA9A7A5A3A19F9D9B9A98969538
:101C80009392908F8D8C8B898887868584838281BF
:101C9000A0FB006800FB01F208EB4208B8EB8728C4
:101CA00007D5341858EB0104D5D5401C51F100017B
:101CB000D1E7341A78EB0104CDD4401E71F1000154
:101CC000C9E75FEA4C0C5FEA9C5C0DD105D34FF08D
:101CD000000001F00041BDE8F081BDE8F04170B5C1
:101CE000FFF7C4FE6DDBFFBEBDE8F0414FF0000022
:101CF000004970470000F87F10B591EA030F48BF14
:101D000083F000433FF580AB841A71EB030C07D2DC
:101D100012198CF0004C43EB0C03001B61EB0C011F
:101D2000DFF8A4E14FEA1154A4EB135C1EEA430F61
:101D300018BF9EEA445F00F0B08023EA6E0352426F
:101D400021EA0451C3EB6E0338BF5B1EDCF1200EA9
:101D500025D322FA0CFE10EB0E0043FA0CFE41EBE9
:101D60000E01CCF1200E03FA0EFE10EB0E0051F125
:101D70000001CCF1200E29D412FA0EF201EB04512D
:101D8000BDE8104058BF7047401C1CBFB2F1004F67
:101D9000704700280CBF491C20F00100704712EB6F
:101DA000020E43EB030218BF4FF0010E4EEA42024F
:101DB000ACF1200CDCF11E0E54D943FA0CFE10EBF2
:101DC0000E0051F1FF31CCF11E0ED5D50EF1010EF2
:101DD00012FA0EFE404141EB010101EB445C5FEA67
:101DE0005C5C10D910EBDE7001EB045138BFBEF122
:101DF000004FBDE8104018BF704700280CBF491CB9
:101E000020F00100704730D24FEAD42C11F50011B8
:101E100024F400641BD0B1FA81F20B3AA41AA41E78
:101E2000D2F12003914030FA03F31943904001EBC3
:101E3000CC71002C01EB0451BDE81040A8BF7047E5
:101E400001F1C0414FF0000001F000417047B0FACD
:101E500080F310FA03F100D110BDE41A173C4805D5
:101E6000C90AE4E701EB045110BD491001EB04512C
:101E7000BDE810404FEA300002E04FF0000170472B
:101E80004A0008BF0042F8D0B2F5001F28BF7047D3
:101E900001F000414FF0000070479EEA445F07D018
:101EA00011EA5E0FBDE8104004BF0021002070471A
:101EB000BDE8104070B5FFF7D9FD00BF40DFF63E2A
:101EC00083F00041104670470000E0FF43004FEAF6
:101ED000D30C4FEA3C0C43401FBF40070CF160514C
:101EE00013F0FE4F70471CF0006F03D100200CF080
:101EF000004170470CF0004343EA507010B540EACF
:101F0000CC0000F060FA00BF000000924FEA000130
:101F1000FFF7FABD4FF000414FF00000A1F500219E
:101F20007047000090EA010F48BF81F0004100F1C6
:101F3000CE82421A3CBF801A89184FEAD0524FF025
:101F40007F4C1CEA410FA2EBD15318BF9CEA026FF1
:101F500000F03B804FF0004C4CEA00204CEA01219D
:101F600021FA03FC10EB0C0C1ED202F1FF325FEAE7
:101F70001C2040EBC25038BF70471CF07F0F4FEA67
:101F8000400C18BFBCF17F4F38BF7047C3F120032E
:101F9000994008BF20F00100BCF17F4F38BF704767
:101FA000A0F1C04000F055BA4FEA3C00000A40EBF7
:101FB000C25028BF1CF0FF0F4FEA400CE6D018BFFC
:101FC000BCF17F4F38BF7047EAE79CEA026F05D04B
:101FD00010EA5C0F08BF00F00040704710B500F039
:101FE000F2F900BF64FBBE3E401058BFC0F1404054
:101FF000491058BFC1F140418142EFF30080704762
:102000004FF47F0C1CEAD0121EBF1CEAD11392EAD7
:102010000C0F93EA0C0F00F0858090EA010F48BF87
:1020200042F4807240F4000C41F400002CF07F4137
:1020300020F07F4000B58142A2EB03020FF2081CA2
:10204000ACEB504EC0F100009EF800E04FEA4E0E9F
:1020500000FB0EFC38BF49004FEA2C1C02F5FA02C7
:102060000CFB0EF34FEACE1E4FEA112C4FEAC121B2
:102070000EEB635E42EB22420EFB0CFC4FEA1C535C
:1020800000FB03114FEA112C4FEA01310EFB0CFC4F
:102090004FEADC4C00FB0C11C14228BF09184CEB85
:1020A00003335DF804EB10EB410143EBC250B2F592
:1020B0007C0F38BF704729D512F0F00F1CBF00F11C
:1020C000C04000F00040704700818283848586878D
:1020D00088898B8C8D8E8F919293959697999A9CE7
:1020E0009D9FA0A2A3A5A7A8AAACAEB0B2B3B5B756
:1020F000B9BCBEC0C2C5C7C9CCCED1D4D7D9DCDF2C
:10210000E2E6E9ECF0F3F7FAFE0000004FEA400CDB
:102110000CF1807CBCF17E4F28BF7047B0F1C0400D
:1021200000F097B990EA010F0CEAD11348BF42F4CE
:102130008072624538BF634507D213F47F0F16D013
:1021400080EA010000F00040704710B500F03BF954
:10215000097EFC3E00F005B880EA010000F0004076
:10216000704780EA010000F0004000F072B912F4FC
:102170007F0F04BF0248704780EA010000F069B990
:102180000000C07F50EA010C00F113801CF5000F25
:1021900058BFBCF5000F01D48842704707D710F52F
:1021A000000F58BF11F5000F15D4884270478942BF
:1021B00070471CF5000F04D5BCF5000FF7D5814220
:1021C00070474FF0807C1CEB400F38BF1CEB410F79
:1021D00001D28142704710B500F0F5F89224490011
:1021E0004FF000504FF08051FFF7FEBEC10DD1F10E
:1021F0009E0206DB4FEA002343F0004323FA02F07D
:102200007047004207D54FEA4001B1F1FE4F02D2BC
:102210004FF00000704710B500F0D5F849922480C7
:10222000002070476FEA20007047000010F0004166
:1022300048BF4042B0FA80F310FA03F2C3F19D03A5
:102240000BD051EAC35101EB1220530638BF70473F
:1022500000F1010008BF20F00100704750EA010CB6
:1022600000F113801CF5000F58BFBCF5000F01D41E
:102270008842704707D710F5000F58BF11F5000FBF
:1022800015D488427047894270471CF5000F04D569
:10229000BCF5000FF7D5814270474FF0807C1CEBF6
:1022A000400F38BF1CEB410F01D28142704710B57F
:1022B00000F089F8922449004FF000504FF080510F
:1022C000FFF792BE4FF47F0C1CEAD0121EBF1CEA2F
:1022D000D11392EA0C0F93EA0C0F00F0478090EABA
:1022E000010F48BF42F480724FF0004C4CEA0020CE
:1022F0004CEA012102EB0302A0FB0113A2F500024C
:10230000002918BF43F001035B0028BF4FEA3303E5
:1023100042EB22425FEA132C4CEBC2502EBFBCEBC7
:10232000436FB2F57C0F70474FEA036CBCF1004F6E
:1023300008BF20F00100B2F57C0F38BF70470BD505
:1023400082F0FF0212F5803FC8BF704700F1C04025
:10235000D8BF00F00040704700F5000C5FEA4C0C5D
:1023600048BF7047B0F1C04000F073B890EA010F69
:102370000CEAD11348BF42F48072624538BF63450E
:1023800004D280EA010000F00040704710B500F070
:102390001AF800BF8900013E00F007B800F009B844
:1023A0005FEA410C5FEA1C6C08D080EA010000F093
:1023B00050B85FEA400C5FEA1C6CF6D14FF0004069
:1023C000A0F5800070470EF1020E2EF0030E5EF8AD
:1023D000044B244204D44FEA4102B2F17F4F11D89A
:1023E0004FEA4003B3F17F4F0CD80ED14FEAD07CB7
:1023F000B2F17F4F0CEB4C0C0CF1020C08BF4CEB14
:10240000D17C04E04FF0080C01E04FEAD17C0CEBEA
:102410004C0324FA03F404F00704B4F1040C06D2CC
:102420000EEB840CBDE810404CF0010C6047DFE877
:102430000CF0070802024FF00040A0F5800010BD2C
:102440000846420018BFD2F1807288BF00F00040F9
:1024500010BDFF2141EAD050C005704751EA000C81
:1024600000F113801CF5000F58BFBCF5000F01D41C
:102470008142704707D711F5000F58BF10F5000FC4
:1024800015D481427047894270471CF5000F04D56E
:10249000BCF5000FF7D5884270474FF0807C1CEBED
:1024A000410F38BF1CEB400F01D28842704780EAD1
:1024B000010081EA000180EA0100FFF7F8BE000098
:1024C00090EA010F48BF81F000413FF532AD421A5A
:1024D00004D882F00042A0EB020011444FEAD0522F
:1024E0004FF07F4C1CEA410FA2EBD15318BF9CEA7E
:1024F000026F4AD04FF0004C4CEA00204CEA012118
:1025000021FA03FCB0EB0C0C0FD412F0FE0F36D006
:102510005FEA4C001DD5001240EBC25038BF704737
:102520001CF03F0F18BF70470BE0A2F101025FEAF9
:102530001C2040EBC25038BF70471CF07F0F18BF03
:102540007047C3F12003994014BF401E20F00100E2
:10255000704780084FEA122308BF7047B0FA80FC2A
:10256000A2EB0C02CCF1280C60FA0CF093EA122FCB
:1025700004BF00EBC25070474FEAC3707047130AA4
:102580005FEADC1008BF7047F6E79CEA026F04D0F0
:1025900010EA5C0F08BF0020704710B5FFF713FF6B
:1025A00040DFF63E81F0004070470CF00F03092B2E
:1025B00008BF082000F059800A2B0BD0082B18BF49
:1025C000704708BF1CF0400F0AD04FF000004FF0DA
:1025D000000170471CF0400F18BF4FF000407047DB
:1025E0001CF0100F08D020F0704300F07F4242EA48
:1025F000D3014FEA4370704700F0604021F07F4202
:1026000042EA000201F07F4040EA727070474FF0EA
:10261000FF0C4CF4E06C1CEA11531CBF9CEA030C49
:102620009445C2BFDA4201EB02517047002B0DD036
:10263000BCF1000F0FD0002A01F00041A4BF41F00F
:10264000E04141F07F614FF00000704701F0004130
:102650004FF00000704750EA01334FF09B0C18BF59
:102660004CF0806C7EF470AF70471CF4801F11D06A
:102670001CF4E02F03D06FEACC31490070474FF0D3
:102680004050EFF3008222F0704242EA000282F3EF
:10269000008870474FF000007047C800A85E08002F
:1026A0001000821F20001B0003000A000000000031
:1026B000000000000000000000000000000000001A
:1026C00000000A0000000000000000000000000000
:1026D0000000000000003D001C000000000014008D
:1026E000FF00D703000000000000FFFFFFFFFFFF17
:1026F000FFFFFFFFFFFFFFFFFFFF0000FFFF0000E6
:1027000000000000000000000000000000000000C9
:102710000000000000003B18000000000000000066
:10272000000000000000F4010000000000000000B4
:102730000000000000000000000000000000000099
:102740000000000000000000000000000000000089
:102750000000000000000000000000000000000079
:1027600000006400683F0800000000000000000056
:102770000000000000000000000000000000000059
:102780000000DC0DB63D000000000000000000006D
:102790000000020003000000000000000000000034
:1027A0000000000000000000000000000000000029
:1027B0000000000000000000000000000000000019
:1027C0000000000000000000000000000000000009
:1027D00000000000000000000000000000000000F9
:1027E00000000000000000000000000000000000E9
:1027F00000000000000000000000000000000000D9
:1028000000000000000000000000000000000000C8
:1028100000000000000000000000000000000000B8
:1028200000000000000000000000000000000000A8
:102830000000000000000000000000000000000098
:102840000000000000000000000000000000000088
:102850000000000000000000000000000000000078
:102860000000000000000000000000000000000068
:102870000000000000000000000000000000000058
:102880000000000000000000000000000000000048
:102890000000000000000000000030313233343509
:1028A00036373839414243444546000000000000B5
:1028B0000000000000000000000000000000000018
:1028C0000000000000000000000000000000000008
:1028D00000000000000000000000000000000001F7
:1028E0000203040506070809000000000000000AB2
:1028F0000B0C0D0E0F0000000000001F1C1F1E1F00
:102900001E1F1F1E1F1E1F0102040810204080FEF4
:10291000FDFBF7EFDFBF7F004C5555555555A53FE3
:102920007751C1166CC156BF9015CB19A001FA3E64
:10293000AD529C804F7E92BEC4B1B4BD9EEE213E8E
:10294000D43888BEE9FAA8BD00004054FB21F93F05
:102950003163621A61B4D03D0000601A61B4D03DA9
:102960007370032E8A19A33B0000002E8A19A33B23
:10297000C14920259A837B39000000000000000037
:102980006E83F9A22915444ED15727FCC0DD34F5DA
:10299000999562DB4190433CAB6351FE61C5BBDE60
:1029A0003A6E24B7E0D24D42EA2E49061C92D10974
:1029B0001CEB1DFE3EA729B1F53582E88444BB2EF1
:1029C00026709CE9417E5FB439D69139F43953833E
:1029D0008B5F849C3B28F9BDFF97F81F0F9805DE9D
:1029E0008B112FEF1F6D0A5ACF7E366DB709CB279B
:1029F000663F464F2DEA5F9EC7BA27757BF1E5EB30
:102A0000F739073DEA92528AB15FFB6B085D8D1F73
:102A1000A6F810111111813FD561C119A0012ABF7B
:102A20007DFEB157E31DC73EEB9C2B8AE6E55ABEFF
:102A30007CD5CF5A3AD9E53D7AFE10111111C13F2C
:102A400037D60684F464963F280356C9226D6D3F3D
:102A50000165F2F2D844433FA69237A0887E143F26
:102A6000735360DBCB75F3BEFE41B31BBAA1AB3F22
:102A700093846EE9E326823F1583E0FEC8DB573F6F
:102A800068108D1AF726303FE9A7F0320FB8123FD1
:102A9000D47ABF74702AFB3EB82A010800000020D7
:102AA000DC0000006C010008942B0108DC00002011
:102AB000448E00008801000802040608000000009F
:102AC00001020304010203040607080900000100D3
:102AD00000000000000000000000000000000000F6
:102AE00000000000000000000001040400020500D6
:102AF0000306010406000000FF00000000000000C3
:102B000000000000000000000000000000000000C5
:102B100000000000000000000000000000000000B5
:102B200000000000000000000000000000000000A5
:102B30000000000000000000000000000000000095
:102B40000000000000000000000000000000000085
:102B50000000000000000000000000000000000075
:102B60000000000000000000010010000001001043
:102B70000000000000000000000000000000000055
:102B80000000000000000000000000000000000045
:042B90000A00000037
:0400000508000131BD
:00000001FF
