ARM Linker, 5.03 [Build 76] [MDK-ARM Standard]

==============================================================================

Section Cross References

    startup_stm32f10x_hd.o(STACK) refers (Special) to heapauxi.o(.text) for __use_two_region_memory
    startup_stm32f10x_hd.o(HEAP) refers (Special) to heapauxi.o(.text) for __use_two_region_memory
    startup_stm32f10x_hd.o(RESET) refers (Special) to heapauxi.o(.text) for __use_two_region_memory
    startup_stm32f10x_hd.o(RESET) refers to startup_stm32f10x_hd.o(STACK) for __initial_sp
    startup_stm32f10x_hd.o(RESET) refers to startup_stm32f10x_hd.o(.text) for Reset_Handler
    startup_stm32f10x_hd.o(RESET) refers to bsp_timer.o(i.SysTick_Handler) for SysTick_Handler
    startup_stm32f10x_hd.o(RESET) refers to adc.o(i.DMA1_Channel1_IRQHandler) for DMA1_Channel1_IRQHandler
    startup_stm32f10x_hd.o(RESET) refers to plc_com.o(i.DMA1_Channel4_IRQHandler) for DMA1_Channel4_IRQHandler
    startup_stm32f10x_hd.o(RESET) refers to plc_io.o(i.EXTI9_5_IRQHandler) for EXTI9_5_IRQHandler
    startup_stm32f10x_hd.o(RESET) refers to pwm_output.o(i.TIM1_UP_IRQHandler) for TIM1_UP_IRQHandler
    startup_stm32f10x_hd.o(RESET) refers to encode.o(i.TIM2_IRQHandler) for TIM2_IRQHandler
    startup_stm32f10x_hd.o(RESET) refers to encode.o(i.TIM3_IRQHandler) for TIM3_IRQHandler
    startup_stm32f10x_hd.o(RESET) refers to plc_com.o(i.USART1_IRQHandler) for USART1_IRQHandler
    startup_stm32f10x_hd.o(RESET) refers to bsp_uart_fifo.o(i.USART3_IRQHandler) for USART3_IRQHandler
    startup_stm32f10x_hd.o(RESET) refers to pwm_output.o(i.TIM8_UP_IRQHandler) for TIM8_UP_IRQHandler
    startup_stm32f10x_hd.o(RESET) refers to bsp_timer.o(i.TIM5_IRQHandler) for TIM5_IRQHandler
    startup_stm32f10x_hd.o(.text) refers (Special) to heapauxi.o(.text) for __use_two_region_memory
    startup_stm32f10x_hd.o(.text) refers to system_stm32f10x.o(i.SystemInit) for SystemInit
==============================================================================

Removing Unused input sections from the image.

    Removing misc.o(i.NVIC_SystemLPConfig), (24 bytes).
    Removing misc.o(i.SysTick_CLKSourceConfig), (24 bytes).
    Removing stm32f10x_adc.o(i.ADC_AnalogWatchdogCmd), (16 bytes).
    Removing stm32f10x_adc.o(i.ADC_AnalogWatchdogSingleChannelConfig), (12 bytes).
    Removing stm32f10x_adc.o(i.ADC_AnalogWatchdogThresholdsConfig), (6 bytes).
    Removing stm32f10x_adc.o(i.ADC_AutoInjectedConvCmd), (20 bytes).
    Removing stm32f10x_adc.o(i.ADC_ClearFlag), (6 bytes).
    Removing stm32f10x_adc.o(i.ADC_ClearITPendingBit), (8 bytes).
    Removing stm32f10x_adc.o(i.ADC_DeInit), (68 bytes).
    Removing stm32f10x_adc.o(i.ADC_DiscModeChannelCountConfig), (16 bytes).
    Removing stm32f10x_adc.o(i.ADC_DiscModeCmd), (20 bytes).
    Removing stm32f10x_adc.o(i.ADC_ExternalTrigConvCmd), (20 bytes).
    Removing stm32f10x_adc.o(i.ADC_ExternalTrigInjectedConvCmd), (20 bytes).
    Removing stm32f10x_adc.o(i.ADC_ExternalTrigInjectedConvConfig), (12 bytes).
    Removing stm32f10x_adc.o(i.ADC_GetConversionValue), (6 bytes).
    Removing stm32f10x_adc.o(i.ADC_GetDualModeConversionValue), (12 bytes).
    Removing stm32f10x_adc.o(i.ADC_GetFlagStatus), (14 bytes).
    Removing stm32f10x_adc.o(i.ADC_GetITStatus), (28 bytes).
==============================================================================

Image Symbol Table

    Local Symbols

    Symbol Name                              Value     Ov Type        Size  Object(Section)

    ../clib/angel/boardlib.s                 0x00000000   Number         0  boardinit1.o ABSOLUTE
    ../clib/angel/boardlib.s                 0x00000000   Number         0  boardinit2.o ABSOLUTE
    ../clib/angel/boardlib.s                 0x00000000   Number         0  boardinit3.o ABSOLUTE
    ../clib/angel/boardlib.s                 0x00000000   Number         0  boardshut.o ABSOLUTE
    ../clib/angel/dczerorl2.s                0x00000000   Number         0  __dczerorl2.o ABSOLUTE
    ../clib/angel/handlers.s                 0x00000000   Number         0  __scatter_zi.o ABSOLUTE
    ../clib/angel/kernel.s                   0x00000000   Number         0  rtentry2.o ABSOLUTE
    ../clib/angel/kernel.s                   0x00000000   Number         0  rtexit.o ABSOLUTE
    ../clib/angel/kernel.s                   0x00000000   Number         0  rtexit2.o ABSOLUTE
    ../clib/angel/kernel.s                   0x00000000   Number         0  rtentry4.o ABSOLUTE
    ../clib/angel/kernel.s                   0x00000000   Number         0  rtentry.o ABSOLUTE
    ../clib/angel/rt.s                       0x00000000   Number         0  rt_raise.o ABSOLUTE
    ../clib/angel/rt.s                       0x00000000   Number         0  rt_heap_descriptor_intlibspace.o ABSOLUTE
    ../clib/angel/rt.s                       0x00000000   Number         0  aeabi_ldiv0.o ABSOLUTE
    ../clib/angel/rt.s                       0x00000000   Number         0  rt_heap_descriptor.o ABSOLUTE
    ../clib/angel/rt.s                       0x00000000   Number         0  aeabi_ldiv0_sigfpe.o ABSOLUTE
    ../clib/angel/rt.s                       0x00000000   Number         0  rt_errno_addr_intlibspace.o ABSOLUTE
    ../clib/angel/rt.s                       0x00000000   Number         0  rt_errno_addr.o ABSOLUTE
    ../clib/angel/rt.s                       0x00000000   Number         0  rt_div0.o ABSOLUTE
    ../clib/angel/scatter.s                  0x00000000   Number         0  __scatter.o ABSOLUTE
    ../clib/angel/startup.s                  0x00000000   Number         0  __main.o ABSOLUTE
    ../clib/angel/sys.s                      0x00000000   Number         0  libspace.o ABSOLUTE
    ../clib/angel/sys.s                      0x00000000   Number         0  indicate_semi.o ABSOLUTE
    ../clib/angel/sys.s                      0x00000000   Number         0  use_no_semi.o ABSOLUTE
    ../clib/angel/sys.s                      0x00000000   Number         0  mutex_dummy.o ABSOLUTE
    ../clib/angel/sys.s                      0x00000000   Number         0  sys_stackheap_outer.o ABSOLUTE
    ../clib/angel/sysapp.c                   0x00000000   Number         0  sys_io.o ABSOLUTE
    ../clib/angel/sysapp.c                   0x00000000   Number         0  sys_command.o ABSOLUTE
    ../clib/angel/sysapp.c                   0x00000000   Number         0  sys_wrch.o ABSOLUTE
    ../clib/angel/sysapp.c                   0x00000000   Number         0  sys_exit.o ABSOLUTE
    ../clib/armsys.c                         0x00000000   Number         0  _get_argv.o ABSOLUTE
    ../clib/armsys.c                         0x00000000   Number         0  no_argv.o ABSOLUTE
    ../clib/armsys.c                         0x00000000   Number         0  _get_argv_nomalloc.o ABSOLUTE
    ../clib/armsys.c                         0x00000000   Number         0  argv_veneer.o ABSOLUTE
    ../clib/armsys.c                         0x00000000   Number         0  argv_veneer.o ABSOLUTE
    ../clib/fenv.c                           0x00000000   Number         0  _rserrno.o ABSOLUTE
    ../clib/heap1.c                          0x00000000   Number         0  h1_final.o ABSOLUTE
    ../clib/heap1.c                          0x00000000   Number         0  h1_alloc.o ABSOLUTE
    ../clib/heap1.c                          0x00000000   Number         0  h1_alloc_mt.o ABSOLUTE
    ../clib/heap1.c                          0x00000000   Number         0  h1_free_mt.o ABSOLUTE
    ../clib/heap1.c                          0x00000000   Number         0  h1_free.o ABSOLUTE
    ../clib/heap1.c                          0x00000000   Number         0  h1_init.o ABSOLUTE
    ../clib/heap1.c                          0x00000000   Number         0  h1_extend.o ABSOLUTE
    ../clib/heap1.c                          0x00000000   Number         0  h1_init_mt.o ABSOLUTE
    ../clib/heap1.c                          0x00000000   Number         0  h1_extend_mt.o ABSOLUTE
    ../clib/heap1.c                          0x00000000   Number         0  h1_final_mt.o ABSOLUTE
    ../clib/heap2.c                          0x00000000   Number         0  heap2.o ABSOLUTE
    ../clib/heap2.c                          0x00000000   Number         0  fdtree.o ABSOLUTE
    ../clib/heap2.c                          0x00000000   Number         0  heap2mt.o ABSOLUTE
    ../clib/heapalloc.c                      0x00000000   Number         0  malloc.o ABSOLUTE
    ../clib/heapalloc.c                      0x00000000   Number         0  heapstubs.o ABSOLUTE
    ../clib/heapalloc.c                      0x00000000   Number         0  hguard.o ABSOLUTE
    ../clib/heapalloc.c                      0x00000000   Number         0  init_alloc.o ABSOLUTE
    ../clib/heapalloc.c                      0x00000000   Number         0  hrguard.o ABSOLUTE
    ../clib/heapalloc.c                      0x00000000   Number         0  maybetermalloc1.o ABSOLUTE
    ../clib/heapalloc.c                      0x00000000   Number         0  free.o ABSOLUTE
    ../clib/heapalloc.c                      0x00000000   Number         0  maybetermalloc2.o ABSOLUTE
    ../clib/heapalloc.c                      0x00000000   Number         0  maybetermalloc2.o ABSOLUTE
    ../clib/heapalloc.c                      0x00000000   Number         0  term_alloc.o ABSOLUTE
    ../clib/heapalloc.c                      0x00000000   Number         0  maybetermalloc1.o ABSOLUTE
    ../clib/heapaux.c                        0x00000000   Number         0  heapauxa.o ABSOLUTE
    ../clib/heapaux.c                        0x00000000   Number         0  heapauxi.o ABSOLUTE
    ../clib/libinit.s                        0x00000000   Number         0  libshutdown.o ABSOLUTE
    ../clib/libinit.s                        0x00000000   Number         0  libinit.o ABSOLUTE
    ../clib/libinit.s                        0x00000000   Number         0  libinit2.o ABSOLUTE
    ../clib/libinit.s                        0x00000000   Number         0  libshutdown2.o ABSOLUTE
    ../clib/longlong.s                       0x00000000   Number         0  lludivv7m.o ABSOLUTE
    ../clib/longlong.s                       0x00000000   Number         0  llushr.o ABSOLUTE
    ../clib/longlong.s                       0x00000000   Number         0  llsdiv.o ABSOLUTE
    ../clib/longlong.s                       0x00000000   Number         0  llshl.o ABSOLUTE
    ../clib/memcpset.s                       0x00000000   Number         0  rt_memcpy_v6.o ABSOLUTE
    ../clib/memcpset.s                       0x00000000   Number         0  rt_memclr_w.o ABSOLUTE
    ../clib/memcpset.s                       0x00000000   Number         0  rt_memcpy_w.o ABSOLUTE
    ../clib/memcpset.s                       0x00000000   Number         0  rt_memclr.o ABSOLUTE
    ../clib/printf.c                         0x00000000   Number         0  noretval__2printf.o ABSOLUTE
    ../clib/printf.c                         0x00000000   Number         0  __printf.o ABSOLUTE
    ../clib/printf.c                         0x00000000   Number         0  _printf_char_file.o ABSOLUTE
    ../clib/printf.c                         0x00000000   Number         0  __printf_ss.o ABSOLUTE
    ../clib/printf.c                         0x00000000   Number         0  _printf_str.o ABSOLUTE
    ../clib/printf.c                         0x00000000   Number         0  _printf_char.o ABSOLUTE
    ../clib/printf.c                         0x00000000   Number         0  __printf_ss_wp.o ABSOLUTE
    ../clib/printf.c                         0x00000000   Number         0  __printf_flags_ss_wp.o ABSOLUTE
    ../clib/printf.c                         0x00000000   Number         0  __2printf.o ABSOLUTE
    ../clib/printf.c                         0x00000000   Number         0  __printf_flags_wp.o ABSOLUTE
    ../clib/printf.c                         0x00000000   Number         0  __printf_flags.o ABSOLUTE
    ../clib/printf.c                         0x00000000   Number         0  __printf_flags_ss.o ABSOLUTE
    ../clib/printf.c                         0x00000000   Number         0  __printf_nopercent.o ABSOLUTE
    ../clib/printf.c                         0x00000000   Number         0  _printf_char_common.o ABSOLUTE
    ../clib/printf.c                         0x00000000   Number         0  __printf_wp.o ABSOLUTE
    ../clib/printf_percent.s                 0x00000000   Number         0  _printf_percent.o ABSOLUTE
    ../clib/printf_percent.s                 0x00000000   Number         0  _printf_percent_end.o ABSOLUTE
    ../clib/printf_percent.s                 0x00000000   Number         0  _printf_s.o ABSOLUTE
    ../clib/signal.c                         0x00000000   Number         0  defsig_segv_inner.o ABSOLUTE
    ../clib/signal.c                         0x00000000   Number         0  defsig_cppl_inner.o ABSOLUTE
    ../clib/signal.c                         0x00000000   Number         0  defsig_pvfn_inner.o ABSOLUTE
    ../clib/signal.c                         0x00000000   Number         0  defsig_abrt_inner.o ABSOLUTE
    ../clib/signal.c                         0x00000000   Number         0  defsig_rtmem_formal.o ABSOLUTE
    ../clib/signal.c                         0x00000000   Number         0  __raise.o ABSOLUTE
    ../clib/signal.c                         0x00000000   Number         0  defsig_rtred_inner.o ABSOLUTE
    ../clib/signal.c                         0x00000000   Number         0  defsig_rtmem_inner.o ABSOLUTE
    ../clib/signal.c                         0x00000000   Number         0  defsig_fpe_formal.o ABSOLUTE
    ../clib/signal.c                         0x00000000   Number         0  defsig_stak_inner.o ABSOLUTE
    ../clib/signal.c                         0x00000000   Number         0  defsig_rtred_outer.o ABSOLUTE
    ../clib/signal.c                         0x00000000   Number         0  defsig_exit.o ABSOLUTE
    ../clib/signal.c                         0x00000000   Number         0  defsig_rtred_formal.o ABSOLUTE
    ../clib/signal.c                         0x00000000   Number         0  defsig_rtmem_outer.o ABSOLUTE
    ../clib/signal.c                         0x00000000   Number         0  defsig_general.o ABSOLUTE
    ../clib/signal.c                         0x00000000   Number         0  defsig_other.o ABSOLUTE
    ../clib/signal.c                         0x00000000   Number         0  defsig_fpe_inner.o ABSOLUTE
    ../clib/signal.c                         0x00000000   Number         0  defsig_fpe_outer.o ABSOLUTE
    ../clib/signal.s                         0x00000000   Number         0  defsig.o ABSOLUTE
    ../clib/stdio.c                          0x00000000   Number         0  initio.o ABSOLUTE
    ../clib/stdio.c                          0x00000000   Number         0  ferror.o ABSOLUTE
    ../clib/stdio.c                          0x00000000   Number         0  fopen_locked.o ABSOLUTE
    ../clib/stdio.c                          0x00000000   Number         0  ftell.o ABSOLUTE
    ../clib/stdio.c                          0x00000000   Number         0  fseek.o ABSOLUTE
    ../clib/stdio.c                          0x00000000   Number         0  stdio.o ABSOLUTE
    ../clib/stdio.c                          0x00000000   Number         0  stdio_streams.o ABSOLUTE
    ../clib/stdio.c                          0x00000000   Number         0  fopen.o ABSOLUTE
    ../clib/stdio.c                          0x00000000   Number         0  setvbuf.o ABSOLUTE
    ../clib/stdio.c                          0x00000000   Number         0  streamlock.o ABSOLUTE
    ../clib/stdio.c                          0x00000000   Number         0  setvbuf_locked.o ABSOLUTE
    ../clib/stdio.c                          0x00000000   Number         0  fclose.o ABSOLUTE
    ../clib/stdio.c                          0x00000000   Number         0  initio_locked.o ABSOLUTE
    ../clib/stdio.c                          0x00000000   Number         0  ferror_locked.o ABSOLUTE
    ../clib/stdlib.c                         0x00000000   Number         0  exit.o ABSOLUTE
    ../clib/string.c                         0x00000000   Number         0  memcmp.o ABSOLUTE
    ../clib/string.c                         0x00000000   Number         0  strlen.o ABSOLUTE
    ../fplib/d2f.s                           0x00000000   Number         0  d2f.o ABSOLUTE
    ../fplib/daddsub.s                       0x00000000   Number         0  daddsub_clz.o ABSOLUTE
    ../fplib/dcheck1.s                       0x00000000   Number         0  dcheck1.o ABSOLUTE
    ../fplib/dcmpi.s                         0x00000000   Number         0  dcmpi.o ABSOLUTE
    ../fplib/ddiv.s                          0x00000000   Number         0  ddiv.o ABSOLUTE
    ../fplib/dfix.s                          0x00000000   Number         0  dfix.o ABSOLUTE
    ../fplib/dfixu.s                         0x00000000   Number         0  dfixu.o ABSOLUTE
    ../fplib/dflt.s                          0x00000000   Number         0  dflt_clz.o ABSOLUTE
    ../fplib/dleqf.s                         0x00000000   Number         0  dleqf.o ABSOLUTE
    ../fplib/dmul.s                          0x00000000   Number         0  dmul.o ABSOLUTE
    ../fplib/dnaninf.s                       0x00000000   Number         0  dnaninf.o ABSOLUTE
    ../fplib/dretinf.s                       0x00000000   Number         0  dretinf.o ABSOLUTE
    ../fplib/dsqrt.s                         0x00000000   Number         0  dsqrt_noumaal.o ABSOLUTE
    ../fplib/f2d.s                           0x00000000   Number         0  f2d.o ABSOLUTE
    ../fplib/faddsub.s                       0x00000000   Number         0  faddsub_clz.o ABSOLUTE
    ../fplib/fcmpi.s                         0x00000000   Number         0  fcmpi.o ABSOLUTE
    ../fplib/fdiv.s                          0x00000000   Number         0  fdiv.o ABSOLUTE
    ../fplib/feqf.s                          0x00000000   Number         0  feqf.o ABSOLUTE
    ../fplib/ffixu.s                         0x00000000   Number         0  ffixu.o ABSOLUTE
    ../fplib/fflt.s                          0x00000000   Number         0  fflt_clz.o ABSOLUTE
    ../fplib/fleqf.s                         0x00000000   Number         0  fleqf.o ABSOLUTE
    ../fplib/fmul.s                          0x00000000   Number         0  fmul.o ABSOLUTE
    ../fplib/fnaninf.s                       0x00000000   Number         0  fnaninf.o ABSOLUTE
    ../fplib/fpinit.s                        0x00000000   Number         0  fpinit.o ABSOLUTE
    ../fplib/fretinf.s                       0x00000000   Number         0  fretinf.o ABSOLUTE
    ../fplib/frleqf.s                        0x00000000   Number         0  frleqf.o ABSOLUTE
    ../fplib/retnan.s                        0x00000000   Number         0  retnan.o ABSOLUTE
    ../fplib/scalbn.s                        0x00000000   Number         0  scalbn.o ABSOLUTE
    ../fplib/trapv.s                         0x00000000   Number         0  trapv.o ABSOLUTE
    ../fplib/usenofp.s                       0x00000000   Number         0  usenofp.o ABSOLUTE
    ../mathlib/cos.c                         0x00000000   Number         0  cos_x.o ABSOLUTE
    ../mathlib/cos.c                         0x00000000   Number         0  cos.o ABSOLUTE
    ../mathlib/cos_i.c                       0x00000000   Number         0  cos_i.o ABSOLUTE
    ../mathlib/dunder.c                      0x00000000   Number         0  dunder.o ABSOLUTE
    ../mathlib/fpclassify.c                  0x00000000   Number         0  fpclassify.o ABSOLUTE
    ../mathlib/poly.c                        0x00000000   Number         0  poly.o ABSOLUTE
    ../mathlib/rred.c                        0x00000000   Number         0  rred.o ABSOLUTE
    ../mathlib/sin.c                         0x00000000   Number         0  sin_x.o ABSOLUTE
    ../mathlib/sin.c                         0x00000000   Number         0  sin.o ABSOLUTE
    ../mathlib/sin_i.c                       0x00000000   Number         0  sin_i.o ABSOLUTE
    ../mathlib/sin_i.c                       0x00000000   Number         0  sin_i_x.o ABSOLUTE
    ../mathlib/sqrt.c                        0x00000000   Number         0  sqrt.o ABSOLUTE
    ../mathlib/sqrt.c                        0x00000000   Number         0  sqrt_x.o ABSOLUTE
    ../mathlib/tan.c                         0x00000000   Number         0  tan_x.o ABSOLUTE
    ../mathlib/tan.c                         0x00000000   Number         0  tan.o ABSOLUTE
    ../mathlib/tan_i.c                       0x00000000   Number         0  tan_i.o ABSOLUTE
    ../mathlib/tan_i.c                       0x00000000   Number         0  tan_i_x.o ABSOLUTE
    ..\CAN\can_network.c                     0x00000000   Number         0  can_network.o ABSOLUTE
    ..\CMSIS\core_cm3.c                      0x00000000   Number         0  core_cm3.o ABSOLUTE
    ..\CMSIS\startup_stm32f10x_hd.s          0x00000000   Number         0  startup_stm32f10x_hd.o ABSOLUTE
    ..\CMSIS\system_stm32f10x.c              0x00000000   Number         0  system_stm32f10x.o ABSOLUTE
    ..\Libraries\src\misc.c                  0x00000000   Number         0  misc.o ABSOLUTE
    ..\Libraries\src\stm32f10x_adc.c         0x00000000   Number         0  stm32f10x_adc.o ABSOLUTE
    ..\Libraries\src\stm32f10x_bkp.c         0x00000000   Number         0  stm32f10x_bkp.o ABSOLUTE
    ..\Libraries\src\stm32f10x_can.c         0x00000000   Number         0  stm32f10x_can.o ABSOLUTE
    ..\Libraries\src\stm32f10x_cec.c         0x00000000   Number         0  stm32f10x_cec.o ABSOLUTE
    ..\Libraries\src\stm32f10x_crc.c         0x00000000   Number         0  stm32f10x_crc.o ABSOLUTE
    ..\Libraries\src\stm32f10x_dac.c         0x00000000   Number         0  stm32f10x_dac.o ABSOLUTE
    ..\Libraries\src\stm32f10x_dbgmcu.c      0x00000000   Number         0  stm32f10x_dbgmcu.o ABSOLUTE
    ..\Libraries\src\stm32f10x_dma.c         0x00000000   Number         0  stm32f10x_dma.o ABSOLUTE
    ..\Libraries\src\stm32f10x_exti.c        0x00000000   Number         0  stm32f10x_exti.o ABSOLUTE
    ..\Libraries\src\stm32f10x_flash.c       0x00000000   Number         0  stm32f10x_flash.o ABSOLUTE
    ..\Libraries\src\stm32f10x_fsmc.c        0x00000000   Number         0  stm32f10x_fsmc.o ABSOLUTE
    ..\Libraries\src\stm32f10x_gpio.c        0x00000000   Number         0  stm32f10x_gpio.o ABSOLUTE
    ..\Libraries\src\stm32f10x_i2c.c         0x00000000   Number         0  stm32f10x_i2c.o ABSOLUTE
    ..\Libraries\src\stm32f10x_iwdg.c        0x00000000   Number         0  stm32f10x_iwdg.o ABSOLUTE
    ..\Libraries\src\stm32f10x_pwr.c         0x00000000   Number         0  stm32f10x_pwr.o ABSOLUTE
    ..\Libraries\src\stm32f10x_rcc.c         0x00000000   Number         0  stm32f10x_rcc.o ABSOLUTE
    ..\Libraries\src\stm32f10x_rtc.c         0x00000000   Number         0  stm32f10x_rtc.o ABSOLUTE
    ..\Libraries\src\stm32f10x_sdio.c        0x00000000   Number         0  stm32f10x_sdio.o ABSOLUTE
    ..\Libraries\src\stm32f10x_spi.c         0x00000000   Number         0  stm32f10x_spi.o ABSOLUTE
    ..\Libraries\src\stm32f10x_tim.c         0x00000000   Number         0  stm32f10x_tim.o ABSOLUTE
    ..\Libraries\src\stm32f10x_usart.c       0x00000000   Number         0  stm32f10x_usart.o ABSOLUTE
    ..\Libraries\src\stm32f10x_wwdg.c        0x00000000   Number         0  stm32f10x_wwdg.o ABSOLUTE
    ..\MOD\bsp.c                             0x00000000   Number         0  bsp.o ABSOLUTE
    ..\MOD\bsp_led.c                         0x00000000   Number         0  bsp_led.o ABSOLUTE
    ..\MOD\bsp_msg.c                         0x00000000   Number         0  bsp_msg.o ABSOLUTE
    ..\MOD\bsp_timer.c                       0x00000000   Number         0  bsp_timer.o ABSOLUTE
    ..\MOD\bsp_uart_fifo.c                   0x00000000   Number         0  bsp_uart_fifo.o ABSOLUTE
    ..\MOD\bsp_user_lib.c                    0x00000000   Number         0  bsp_user_lib.o ABSOLUTE
    ..\MOD\modbus_host.c                     0x00000000   Number         0  modbus_host.o ABSOLUTE
    ..\MOD\modbus_slave.c                    0x00000000   Number         0  modbus_slave.o ABSOLUTE
    ..\\CMSIS\\core_cm3.c                    0x00000000   Number         0  core_cm3.o ABSOLUTE
    ..\users\ADC.C                           0x00000000   Number         0  adc.o ABSOLUTE
    ..\users\DAC.C                           0x00000000   Number         0  dac.o ABSOLUTE
    ..\users\EXTI.C                          0x00000000   Number         0  exti.o ABSOLUTE
    ..\users\NVIC_interrupt.c                0x00000000   Number         0  nvic_interrupt.o ABSOLUTE
    ..\users\PLC_Com.c                       0x00000000   Number         0  plc_com.o ABSOLUTE
    ..\users\PLC_IO.C                        0x00000000   Number         0  plc_io.o ABSOLUTE
    ..\users\PLC_Other.C                     0x00000000   Number         0  plc_other.o ABSOLUTE
    ..\users\PLC_timer.c                     0x00000000   Number         0  plc_timer.o ABSOLUTE
    ..\users\RTC.C                           0x00000000   Number         0  rtc_1.o ABSOLUTE
    ..\users\encode.c                        0x00000000   Number         0  encode.o ABSOLUTE
    ..\users\ladder.c                        0x00000000   Number         0  ladder.o ABSOLUTE
    ..\users\main.c                          0x00000000   Number         0  main.o ABSOLUTE
    ..\users\pwm_output.c                    0x00000000   Number         0  pwm_output.o ABSOLUTE
    dc.s                                     0x00000000   Number         0  dc.o ABSOLUTE
    RESET                                    0x08000000   Section      304  startup_stm32f10x_hd.o(RESET)
    !!!main                                  0x08000130   Section        8  __main.o(!!!main)
    !!!scatter                               0x08000138   Section       52  __scatter.o(!!!scatter)
    !!dczerorl2                              0x0800016c   Section       90  __dczerorl2.o(!!dczerorl2)
    !!handler_zi                             0x080001c8   Section       28  __scatter_zi.o(!!handler_zi)
    .ARM.Collect$$libinit$$00000000          0x080001e4   Section        2  libinit.o(.ARM.Collect$$libinit$$00000000)
    .ARM.Collect$$libinit$$00000002          0x080001e6   Section        0  libinit2.o(.ARM.Collect$$libinit$$00000002)
    .ARM.Collect$$libinit$$00000008          0x080001e6   Section        0  libinit2.o(.ARM.Collect$$libinit$$00000008)
    .ARM.Collect$$libinit$$0000000A          0x080001e6   Section        0  libinit2.o(.ARM.Collect$$libinit$$0000000A)
    .ARM.Collect$$libinit$$0000000C          0x080001e6   Section        0  libinit2.o(.ARM.Collect$$libinit$$0000000C)
    .ARM.Collect$$libinit$$0000000F          0x080001e6   Section        0  libinit2.o(.ARM.Collect$$libinit$$0000000F)
    .ARM.Collect$$libinit$$00000011          0x080001e6   Section        0  libinit2.o(.ARM.Collect$$libinit$$00000011)
    .ARM.Collect$$libinit$$00000013          0x080001e6   Section        0  libinit2.o(.ARM.Collect$$libinit$$00000013)
    .ARM.Collect$$libinit$$00000015          0x080001e6   Section        0  libinit2.o(.ARM.Collect$$libinit$$00000015)
    .ARM.Collect$$libinit$$00000017          0x080001e6   Section        0  libinit2.o(.ARM.Collect$$libinit$$00000017)
    .ARM.Collect$$libinit$$00000019          0x080001e6   Section        0  libinit2.o(.ARM.Collect$$libinit$$00000019)
    .ARM.Collect$$libinit$$0000001B          0x080001e6   Section        0  libinit2.o(.ARM.Collect$$libinit$$0000001B)
    .ARM.Collect$$libinit$$0000001D          0x080001e6   Section        0  libinit2.o(.ARM.Collect$$libinit$$0000001D)
    .ARM.Collect$$libinit$$0000001F          0x080001e6   Section        0  libinit2.o(.ARM.Collect$$libinit$$0000001F)
    .ARM.Collect$$libinit$$00000021          0x080001e6   Section        0  libinit2.o(.ARM.Collect$$libinit$$00000021)
    .ARM.Collect$$libinit$$00000023          0x080001e6   Section        0  libinit2.o(.ARM.Collect$$libinit$$00000023)
    .ARM.Collect$$libinit$$0000002A          0x080001e6   Section        0  libinit2.o(.ARM.Collect$$libinit$$0000002A)
    .ARM.Collect$$libinit$$0000002C          0x080001e6   Section        0  libinit2.o(.ARM.Collect$$libinit$$0000002C)
    .ARM.Collect$$libinit$$0000002E          0x080001e6   Section        0  libinit2.o(.ARM.Collect$$libinit$$0000002E)
    .ARM.Collect$$libinit$$00000030          0x080001e6   Section        0  libinit2.o(.ARM.Collect$$libinit$$00000030)
    .ARM.Collect$$libinit$$00000031          0x080001e6   Section        2  libinit2.o(.ARM.Collect$$libinit$$00000031)
    .ARM.Collect$$libshutdown$$00000000      0x080001e8   Section        2  libshutdown.o(.ARM.Collect$$libshutdown$$00000000)
    .ARM.Collect$$libshutdown$$00000003      0x080001ea   Section        0  libshutdown2.o(.ARM.Collect$$libshutdown$$00000003)
    .ARM.Collect$$libshutdown$$00000006      0x080001ea   Section        0  libshutdown2.o(.ARM.Collect$$libshutdown$$00000006)
    .ARM.Collect$$libshutdown$$00000009      0x080001ea   Section        0  libshutdown2.o(.ARM.Collect$$libshutdown$$00000009)
    .ARM.Collect$$libshutdown$$0000000B      0x080001ea   Section        0  libshutdown2.o(.ARM.Collect$$libshutdown$$0000000B)
    .ARM.Collect$$libshutdown$$0000000E      0x080001ea   Section        0  libshutdown2.o(.ARM.Collect$$libshutdown$$0000000E)
    .ARM.Collect$$libshutdown$$0000000F      0x080001ea   Section        2  libshutdown2.o(.ARM.Collect$$libshutdown$$0000000F)
    .ARM.Collect$$rtentry$$00000000          0x080001ec   Section        0  rtentry.o(.ARM.Collect$$rtentry$$00000000)
    .ARM.Collect$$rtentry$$00000002          0x080001ec   Section        0  rtentry2.o(.ARM.Collect$$rtentry$$00000002)
    .ARM.Collect$$rtentry$$00000004          0x080001ec   Section        6  rtentry4.o(.ARM.Collect$$rtentry$$00000004)
    .ARM.Collect$$rtentry$$00000009          0x080001f2   Section        0  rtentry2.o(.ARM.Collect$$rtentry$$00000009)
    .ARM.Collect$$rtentry$$0000000A          0x080001f2   Section        4  rtentry2.o(.ARM.Collect$$rtentry$$0000000A)
    .ARM.Collect$$rtentry$$0000000C          0x080001f6   Section        0  rtentry2.o(.ARM.Collect$$rtentry$$0000000C)
    .ARM.Collect$$rtentry$$0000000D          0x080001f6   Section        8  rtentry2.o(.ARM.Collect$$rtentry$$0000000D)
    .ARM.Collect$$rtexit$$00000000           0x080001fe   Section        2  rtexit.o(.ARM.Collect$$rtexit$$00000000)
    .ARM.Collect$$rtexit$$00000002           0x08000200   Section        0  rtexit2.o(.ARM.Collect$$rtexit$$00000002)
    .ARM.Collect$$rtexit$$00000003           0x08000200   Section        4  rtexit2.o(.ARM.Collect$$rtexit$$00000003)
    .ARM.Collect$$rtexit$$00000004           0x08000204   Section        6  rtexit2.o(.ARM.Collect$$rtexit$$00000004)
    .text                                    0x0800020c   Section       64  startup_stm32f10x_hd.o(.text)
    .text                                    0x0800024c   Section      238  lludivv7m.o(.text)
    .text                                    0x0800033a   Section       38  llshl.o(.text)
    .text                                    0x08000360   Section       38  llushr.o(.text)
    .text                                    0x08000386   Section        0  memcmp.o(.text)
    .text                                    0x080003de   Section      138  rt_memcpy_v6.o(.text)
    .text                                    0x08000468   Section       68  rt_memclr.o(.text)
    .text                                    0x080004ac   Section       78  rt_memclr_w.o(.text)
    .text                                    0x080004fa   Section        0  heapauxi.o(.text)
    .text                                    0x08000500   Section        0  _rserrno.o(.text)
    .text                                    0x08000516   Section      100  rt_memcpy_w.o(.text)
    .text                                    0x0800057c   Section        8  rt_errno_addr_intlibspace.o(.text)
    .text                                    0x08000584   Section        8  libspace.o(.text)
    .text                                    0x0800058c   Section       74  sys_stackheap_outer.o(.text)
    .text                                    0x080005d6   Section        0  exit.o(.text)
    .text                                    0x080005e2   Section        2  use_no_semi.o(.text)
    .text                                    0x080005e4   Section        0  indicate_semi.o(.text)
    .text                                    0x080005e4   Section        0  sys_exit.o(.text)
    i.ADC_Cmd                                0x080005f0   Section        0  stm32f10x_adc.o(i.ADC_Cmd)
    i.ADC_DMACmd                             0x08000604   Section        0  stm32f10x_adc.o(i.ADC_DMACmd)
    i.ADC_GetCalibrationStatus               0x08000618   Section        0  stm32f10x_adc.o(i.ADC_GetCalibrationStatus)
    i.ADC_GetResetCalibrationStatus          0x08000626   Section        0  stm32f10x_adc.o(i.ADC_GetResetCalibrationStatus)
    i.ADC_Init                               0x08000634   Section        0  stm32f10x_adc.o(i.ADC_Init)
    i.ADC_RegularChannelConfig               0x0800067c   Section        0  stm32f10x_adc.o(i.ADC_RegularChannelConfig)
    i.ADC_ResetCalibration                   0x080006f0   Section        0  stm32f10x_adc.o(i.ADC_ResetCalibration)
    i.ADC_Sample                             0x080006fc   Section        0  adc.o(i.ADC_Sample)
    i.ADC_SoftwareStartConvCmd               0x0800084c   Section        0  stm32f10x_adc.o(i.ADC_SoftwareStartConvCmd)
    i.ADC_StartCalibration                   0x08000860   Section        0  stm32f10x_adc.o(i.ADC_StartCalibration)
    i.ADC_init                               0x0800086c   Section        0  adc.o(i.ADC_init)
    i.ALT                                    0x08000a4c   Section        0  ladder.o(i.ALT)
    ALT                                      0x08000a4d   Thumb Code    66  ladder.o(i.ALT)
    i.AND                                    0x08000a9c   Section        0  ladder.o(i.AND)
    i.ANDF                                   0x08000ad4   Section        0  ladder.o(i.ANDF)
    ANDF                                     0x08000ad5   Thumb Code   162  ladder.o(i.ANDF)
    i.ANDP                                   0x08000b88   Section        0  ladder.o(i.ANDP)
    ANDP                                     0x08000b89   Thumb Code   162  ladder.o(i.ANDP)
    i.ANI                                    0x08000c3c   Section        0  ladder.o(i.ANI)
    ANI                                      0x08000c3d   Thumb Code    42  ladder.o(i.ANI)
    i.BCD                                    0x08000c74   Section        0  ladder.o(i.BCD)
    BCD                                      0x08000c75   Thumb Code    82  ladder.o(i.BCD)
    i.BEBufToUint16                          0x08000ccc   Section        0  bsp_user_lib.o(i.BEBufToUint16)
    i.BIN                                    0x08000cd4   Section        0  ladder.o(i.BIN)
    BIN                                      0x08000cd5   Thumb Code    82  ladder.o(i.BIN)
    i.BIT_SET                                0x08000d2c   Section        0  ladder.o(i.BIT_SET)
    BIT_SET                                  0x08000d2d   Thumb Code   142  ladder.o(i.BIT_SET)
    i.BMOV                                   0x08000dcc   Section        0  ladder.o(i.BMOV)
    BMOV                                     0x08000dcd   Thumb Code   124  ladder.o(i.BMOV)
    i.BtoG                                   0x08000e4c   Section        0  ladder.o(i.BtoG)
    i.CALL_EX                                0x08000e6c   Section        0  ladder.o(i.CALL_EX)
    CALL_EX                                  0x08000e6d   Thumb Code    74  ladder.o(i.CALL_EX)
    i.CJ_EX                                  0x08000ec4   Section        0  ladder.o(i.CJ_EX)
    CJ_EX                                    0x08000ec5   Thumb Code    32  ladder.o(i.CJ_EX)
    i.CMP                                    0x08000eec   Section        0  ladder.o(i.CMP)
    CMP                                      0x08000eed   Thumb Code   204  ladder.o(i.CMP)
    i.CMPP                                   0x08000fc4   Section        0  ladder.o(i.CMPP)
    CMPP                                     0x08000fc5   Thumb Code   208  ladder.o(i.CMPP)
    i.CRC16_Modbus                           0x080010a0   Section        0  bsp_user_lib.o(i.CRC16_Modbus)
    i.C_given_value_D                        0x080010d0   Section        0  ladder.o(i.C_given_value_D)
    C_given_value_D                          0x080010d1   Thumb Code    64  ladder.o(i.C_given_value_D)
    i.Cap_PulseInputInit                     0x08001114   Section        0  encode.o(i.Cap_PulseInputInit)
    i.CheckSum                               0x08001128   Section        0  plc_com.o(i.CheckSum)
    i.ComToUart                              0x08001150   Section        0  bsp_uart_fifo.o(i.ComToUart)
    i.DAC_Cmd                                0x08001168   Section        0  stm32f10x_dac.o(i.DAC_Cmd)
    i.DAC_Init                               0x08001180   Section        0  stm32f10x_dac.o(i.DAC_Init)
    i.DAC_SetChannel1Data                    0x080011a8   Section        0  stm32f10x_dac.o(i.DAC_SetChannel1Data)
    i.DAC_SetChannel2Data                    0x080011bc   Section        0  stm32f10x_dac.o(i.DAC_SetChannel2Data)
    i.DAC_SoftwareTriggerCmd                 0x080011d0   Section        0  stm32f10x_dac.o(i.DAC_SoftwareTriggerCmd)
    i.DAC_data                               0x080011ec   Section        0  dac.o(i.DAC_data)
    i.DAC_out_init                           0x0800121c   Section        0  dac.o(i.DAC_out_init)
    i.DBCD                                   0x080012a8   Section        0  ladder.o(i.DBCD)
    DBCD                                     0x080012a9   Thumb Code   182  ladder.o(i.DBCD)
    i.DBIN                                   0x08001370   Section        0  ladder.o(i.DBIN)
    DBIN                                     0x08001371   Thumb Code   248  ladder.o(i.DBIN)
    i.DCMP                                   0x08001470   Section        0  ladder.o(i.DCMP)
    DCMP                                     0x08001471   Thumb Code   200  ladder.o(i.DCMP)
    i.DCMPP                                  0x08001544   Section        0  ladder.o(i.DCMPP)
    DCMPP                                    0x08001545   Thumb Code   204  ladder.o(i.DCMPP)
    i.DDIV                                   0x0800161c   Section        0  ladder.o(i.DDIV)
    DDIV                                     0x0800161d   Thumb Code    82  ladder.o(i.DDIV)
    i.DECO                                   0x08001678   Section        0  ladder.o(i.DECO)
    DECO                                     0x08001679   Thumb Code    78  ladder.o(i.DECO)
    i.DFMOV                                  0x080016d0   Section        0  ladder.o(i.DFMOV)
    DFMOV                                    0x080016d1   Thumb Code    92  ladder.o(i.DFMOV)
    i.DINC_P                                 0x08001730   Section        0  ladder.o(i.DINC_P)
    DINC_P                                   0x08001731   Thumb Code   136  ladder.o(i.DINC_P)
    i.DMA1_Channel1_IRQHandler               0x080017c8   Section        0  adc.o(i.DMA1_Channel1_IRQHandler)
    i.DMA1_Channel4_IRQHandler               0x08001814   Section        0  plc_com.o(i.DMA1_Channel4_IRQHandler)
    i.DMA_ClearITPendingBit                  0x08001838   Section        0  stm32f10x_dma.o(i.DMA_ClearITPendingBit)
    i.DMA_Cmd                                0x08001850   Section        0  stm32f10x_dma.o(i.DMA_Cmd)
    i.DMA_DeInit                             0x08001868   Section        0  stm32f10x_dma.o(i.DMA_DeInit)
    i.DMA_ITConfig                           0x0800194c   Section        0  stm32f10x_dma.o(i.DMA_ITConfig)
    i.DMA_Init                               0x0800195c   Section        0  stm32f10x_dma.o(i.DMA_Init)
    i.DMUL                                   0x08001998   Section        0  ladder.o(i.DMUL)
    DMUL                                     0x08001999   Thumb Code    76  ladder.o(i.DMUL)
    i.DPLSY                                  0x080019ec   Section        0  ladder.o(i.DPLSY)
    i.DZ0_Z3                                 0x08001af8   Section        0  ladder.o(i.DZ0_Z3)
    i.DZ4_Z7                                 0x08001b50   Section        0  ladder.o(i.DZ4_Z7)
    i.DZCP                                   0x08001ba4   Section        0  ladder.o(i.DZCP)
    DZCP                                     0x08001ba5   Thumb Code   206  ladder.o(i.DZCP)
    i.D_C_T_addr                             0x08001c80   Section        0  ladder.o(i.D_C_T_addr)
    i.D_target                               0x08001cec   Section        0  ladder.o(i.D_target)
    D_target                                 0x08001ced   Thumb Code   488  ladder.o(i.D_target)
    i.Damount                                0x08001ee8   Section        0  ladder.o(i.Damount)
    Damount                                  0x08001ee9   Thumb Code   120  ladder.o(i.Damount)
    i.Dbig                                   0x08001f6c   Section        0  ladder.o(i.Dbig)
    Dbig                                     0x08001f6d   Thumb Code   120  ladder.o(i.Dbig)
    i.Dbig_amount                            0x08001ff0   Section        0  ladder.o(i.Dbig_amount)
    Dbig_amount                              0x08001ff1   Thumb Code   120  ladder.o(i.Dbig_amount)
    i.Dless                                  0x08002074   Section        0  ladder.o(i.Dless)
    Dless                                    0x08002075   Thumb Code   120  ladder.o(i.Dless)
    i.Dless_amount                           0x080020f8   Section        0  ladder.o(i.Dless_amount)
    Dless_amount                             0x080020f9   Thumb Code   138  ladder.o(i.Dless_amount)
    i.Dno_amount                             0x08002190   Section        0  ladder.o(i.Dno_amount)
    Dno_amount                               0x08002191   Thumb Code   120  ladder.o(i.Dno_amount)
    i.ECMP                                   0x08002214   Section        0  ladder.o(i.ECMP)
    ECMP                                     0x08002215   Thumb Code   224  ladder.o(i.ECMP)
    i.ENCO                                   0x08002300   Section        0  ladder.o(i.ENCO)
    ENCO                                     0x08002301   Thumb Code    96  ladder.o(i.ENCO)
    i.ENC_Get_AB0_Electrical_Angle           0x08002368   Section        0  encode.o(i.ENC_Get_AB0_Electrical_Angle)
    i.ENC_Get_AB1_Electrical_Angle           0x08002398   Section        0  encode.o(i.ENC_Get_AB1_Electrical_Angle)
    i.EPC_FORCE_OFF                          0x080023c8   Section        0  plc_com.o(i.EPC_FORCE_OFF)
    i.EPC_FORCE_ON                           0x08002408   Section        0  plc_com.o(i.EPC_FORCE_ON)
    i.EXTI9_5_IRQHandler                     0x08002478   Section        0  plc_io.o(i.EXTI9_5_IRQHandler)
    i.EXTI_ClearITPendingBit                 0x0800249c   Section        0  stm32f10x_exti.o(i.EXTI_ClearITPendingBit)
    i.EXTI_Init                              0x080024a8   Section        0  stm32f10x_exti.o(i.EXTI_Init)
    i.EZCP                                   0x08002518   Section        0  ladder.o(i.EZCP)
    EZCP                                     0x08002519   Thumb Code   190  ladder.o(i.EZCP)
    i.Encode_Pro_Callback                    0x080025e4   Section        0  encode.o(i.Encode_Pro_Callback)
    i.Encoder_A0_Configuration               0x08002628   Section        0  encode.o(i.Encoder_A0_Configuration)
    i.Encoder_A0_Restore                     0x080026e4   Section        0  encode.o(i.Encoder_A0_Restore)
    i.Encoder_A1_Configuration               0x0800273c   Section        0  encode.o(i.Encoder_A1_Configuration)
    i.Encoder_A1_Restore                     0x080027f8   Section        0  encode.o(i.Encoder_A1_Restore)
    i.Encoder_AB0_Configration               0x08002840   Section        0  encode.o(i.Encoder_AB0_Configration)
    i.Encoder_AB0_Restore                    0x080028e8   Section        0  encode.o(i.Encoder_AB0_Restore)
    i.Encoder_AB1_Configration               0x08002940   Section        0  encode.o(i.Encoder_AB1_Configration)
    i.Encoder_AB1_Restore                    0x080029dc   Section        0  encode.o(i.Encoder_AB1_Restore)
    i.ErasurePLC                             0x08002a28   Section        0  plc_com.o(i.ErasurePLC)
    i.FLASH_ClearFlag                        0x08002adc   Section        0  stm32f10x_flash.o(i.FLASH_ClearFlag)
    i.FLASH_EraseOptionBytes                 0x08002ae8   Section        0  stm32f10x_flash.o(i.FLASH_EraseOptionBytes)
    i.FLASH_ErasePage                        0x08002b64   Section        0  stm32f10x_flash.o(i.FLASH_ErasePage)
    i.FLASH_GetBank1Status                   0x08002ba0   Section        0  stm32f10x_flash.o(i.FLASH_GetBank1Status)
    i.FLASH_GetReadOutProtectionStatus       0x08002bc8   Section        0  stm32f10x_flash.o(i.FLASH_GetReadOutProtectionStatus)
    i.FLASH_GetWriteProtectionOptionByte     0x08002bdc   Section        0  stm32f10x_flash.o(i.FLASH_GetWriteProtectionOptionByte)
    i.FLASH_Lock                             0x08002be8   Section        0  stm32f10x_flash.o(i.FLASH_Lock)
    i.FLASH_ProgramHalfWord                  0x08002bf8   Section        0  stm32f10x_flash.o(i.FLASH_ProgramHalfWord)
    i.FLASH_ProgramWord                      0x08002c2c   Section        0  stm32f10x_flash.o(i.FLASH_ProgramWord)
    i.FLASH_Unlock                           0x08002c7c   Section        0  stm32f10x_flash.o(i.FLASH_Unlock)
    i.FLASH_WaitForLastOperation             0x08002c94   Section        0  stm32f10x_flash.o(i.FLASH_WaitForLastOperation)
    i.FMOV                                   0x08002cb8   Section        0  ladder.o(i.FMOV)
    FMOV                                     0x08002cb9   Thumb Code   100  ladder.o(i.FMOV)
    i.FNC_AppInstruct                        0x08002d20   Section        0  ladder.o(i.FNC_AppInstruct)
    FNC_AppInstruct                          0x08002d21   Thumb Code  3708  ladder.o(i.FNC_AppInstruct)
    i.FOR                                    0x08003b9c   Section        0  ladder.o(i.FOR)
    FOR                                      0x08003b9d   Thumb Code    72  ladder.o(i.FOR)
    i.Flash_EraseProgramPage                 0x08003bec   Section        0  plc_other.o(i.Flash_EraseProgramPage)
    i.Flash_ReadKeepData                     0x08003c68   Section        0  plc_other.o(i.Flash_ReadKeepData)
    i.Flash_WriteKeepData                    0x08003cdc   Section        0  plc_other.o(i.Flash_WriteKeepData)
    i.Flash_WriteKeepData_Backup             0x08003d30   Section        0  plc_other.o(i.Flash_WriteKeepData_Backup)
    i.Func_MC                                0x08003d84   Section        0  ladder.o(i.Func_MC)
    i.Func_MCR                               0x08003db8   Section        0  ladder.o(i.Func_MCR)
    i.GPIO_EXTILineConfig                    0x08003de4   Section        0  stm32f10x_gpio.o(i.GPIO_EXTILineConfig)
    i.GPIO_Init                              0x08003e0c   Section        0  stm32f10x_gpio.o(i.GPIO_Init)
    i.GPIO_PinRemapConfig                    0x08003ea4   Section        0  stm32f10x_gpio.o(i.GPIO_PinRemapConfig)
    i.GPIO_ResetBits                         0x08003efc   Section        0  stm32f10x_gpio.o(i.GPIO_ResetBits)
    i.GetBitOffset                           0x08003f00   Section        0  modbus_slave.o(i.GetBitOffset)
    i.Get_A0_Count                           0x08003f94   Section        0  encode.o(i.Get_A0_Count)
    i.Get_A1_Count                           0x08003fb4   Section        0  encode.o(i.Get_A1_Count)
    i.Get_AB0_Count                          0x08003fd4   Section        0  encode.o(i.Get_AB0_Count)
    i.Get_AB1_Count                          0x08004008   Section        0  encode.o(i.Get_AB1_Count)
    i.GtoB                                   0x0800403c   Section        0  ladder.o(i.GtoB)
    i.IWDG_Enable                            0x0800405c   Section        0  stm32f10x_iwdg.o(i.IWDG_Enable)
    i.IWDG_ReloadCounter                     0x0800406c   Section        0  stm32f10x_iwdg.o(i.IWDG_ReloadCounter)
    i.IWDG_SetPrescaler                      0x0800407c   Section        0  stm32f10x_iwdg.o(i.IWDG_SetPrescaler)
    i.IWDG_SetReload                         0x08004088   Section        0  stm32f10x_iwdg.o(i.IWDG_SetReload)
    i.IWDG_WriteAccessCmd                    0x08004094   Section        0  stm32f10x_iwdg.o(i.IWDG_WriteAccessCmd)
    i.InitHardUart                           0x080040a0   Section        0  bsp_uart_fifo.o(i.InitHardUart)
    InitHardUart                             0x080040a1   Thumb Code   142  bsp_uart_fifo.o(i.InitHardUart)
    i.IsDataInvalid                          0x08004138   Section        0  plc_other.o(i.IsDataInvalid)
    i.LD                                     0x08004168   Section        0  ladder.o(i.LD)
    LD                                       0x08004169   Thumb Code   114  ladder.o(i.LD)
    i.LDF                                    0x080041e8   Section        0  ladder.o(i.LDF)
    LDF                                      0x080041e9   Thumb Code   208  ladder.o(i.LDF)
    i.LDI                                    0x080042cc   Section        0  ladder.o(i.LDI)
    LDI                                      0x080042cd   Thumb Code   114  ladder.o(i.LDI)
    i.LDP                                    0x0800434c   Section        0  ladder.o(i.LDP)
    LDP                                      0x0800434d   Thumb Code   190  ladder.o(i.LDP)
    i.LPF                                    0x08004420   Section        0  ladder.o(i.LPF)
    LPF                                      0x08004421   Thumb Code   182  ladder.o(i.LPF)
    i.LPS                                    0x080044ec   Section        0  ladder.o(i.LPS)
    LPS                                      0x080044ed   Thumb Code   158  ladder.o(i.LPS)
    i.MEAN                                   0x080045a0   Section        0  ladder.o(i.MEAN)
    i.MODH_AnalyzeApp                        0x0800465c   Section        0  modbus_host.o(i.MODH_AnalyzeApp)
    MODH_AnalyzeApp                          0x0800465d   Thumb Code   104  modbus_host.o(i.MODH_AnalyzeApp)
    i.MODH_Poll                              0x080046cc   Section        0  modbus_host.o(i.MODH_Poll)
    i.MODH_Read_01H                          0x08004744   Section        0  modbus_host.o(i.MODH_Read_01H)
    MODH_Read_01H                            0x08004745   Thumb Code   160  modbus_host.o(i.MODH_Read_01H)
    i.MODH_Read_02H                          0x080047f4   Section        0  modbus_host.o(i.MODH_Read_02H)
    MODH_Read_02H                            0x080047f5   Thumb Code   160  modbus_host.o(i.MODH_Read_02H)
    i.MODH_Read_03H                          0x080048a4   Section        0  modbus_host.o(i.MODH_Read_03H)
    MODH_Read_03H                            0x080048a5   Thumb Code    76  modbus_host.o(i.MODH_Read_03H)
    i.MODH_ReciveNew                         0x080048f8   Section        0  modbus_host.o(i.MODH_ReciveNew)
    i.MODH_RxTimeOut                         0x08004940   Section        0  modbus_host.o(i.MODH_RxTimeOut)
    i.MODH_SendAckWithCRC                    0x08004958   Section        0  modbus_host.o(i.MODH_SendAckWithCRC)
    MODH_SendAckWithCRC                      0x08004959   Thumb Code    86  modbus_host.o(i.MODH_SendAckWithCRC)
    i.MODH_SendPacket                        0x080049b4   Section        0  modbus_host.o(i.MODH_SendPacket)
    i.MODH_Send_01To04H                      0x080049c4   Section        0  modbus_host.o(i.MODH_Send_01To04H)
    i.MODH_Send_05H                          0x08004a34   Section        0  modbus_host.o(i.MODH_Send_05H)
    i.MODH_Send_06H                          0x08004ab0   Section        0  modbus_host.o(i.MODH_Send_06H)
    i.MODH_Send_0FH                          0x08004b2c   Section        0  modbus_host.o(i.MODH_Send_0FH)
    i.MODH_Send_10H                          0x08004c40   Section        0  modbus_host.o(i.MODH_Send_10H)
    i.MODS_ReciveNew                         0x08004d08   Section        0  modbus_slave.o(i.MODS_ReciveNew)
    i.MODS_RxTimeOut                         0x08004d54   Section        0  modbus_slave.o(i.MODS_RxTimeOut)
    MODS_RxTimeOut                           0x08004d55   Thumb Code    22  modbus_slave.o(i.MODS_RxTimeOut)
    i.MOV_K                                  0x08004d70   Section        0  ladder.o(i.MOV_K)
    MOV_K                                    0x08004d71   Thumb Code    46  ladder.o(i.MOV_K)
    i.MOV_TO_K_H                             0x08004da8   Section        0  ladder.o(i.MOV_TO_K_H)
    MOV_TO_K_H                               0x08004da9   Thumb Code   256  ladder.o(i.MOV_TO_K_H)
    i.MTR                                    0x08004eb4   Section        0  ladder.o(i.MTR)
    MTR                                      0x08004eb5   Thumb Code   170  ladder.o(i.MTR)
    i.ModHostMode_SendDeal                   0x08004f6c   Section        0  modbus_host.o(i.ModHostMode_SendDeal)
    i.NVIC_Confinguration                    0x0800503c   Section        0  nvic_interrupt.o(i.NVIC_Confinguration)
    i.NVIC_Init                              0x08005140   Section        0  misc.o(i.NVIC_Init)
    i.NVIC_PriorityGroupConfig               0x080051a4   Section        0  misc.o(i.NVIC_PriorityGroupConfig)
    i.NVIC_SetVectorTable                    0x080051b8   Section        0  misc.o(i.NVIC_SetVectorTable)
    i.OR                                     0x080051cc   Section        0  ladder.o(i.OR)
    OR                                       0x080051cd   Thumb Code    44  ladder.o(i.OR)
    i.ORF                                    0x08005204   Section        0  ladder.o(i.ORF)
    ORF                                      0x08005205   Thumb Code   162  ladder.o(i.ORF)
    i.ORI                                    0x080052b8   Section        0  ladder.o(i.ORI)
    ORI                                      0x080052b9   Thumb Code    46  ladder.o(i.ORI)
    i.ORP                                    0x080052f4   Section        0  ladder.o(i.ORP)
    ORP                                      0x080052f5   Thumb Code   162  ladder.o(i.ORP)
    i.OUT                                    0x080053a8   Section        0  ladder.o(i.OUT)
    i.PC_FORCE_OFF                           0x0800544c   Section        0  plc_com.o(i.PC_FORCE_OFF)
    i.PC_FORCE_ON                            0x0800549c   Section        0  plc_com.o(i.PC_FORCE_ON)
    i.PC_OPTION_PROG                         0x080054ec   Section        0  plc_com.o(i.PC_OPTION_PROG)
    i.PC_READ_PORG                           0x080055dc   Section        0  plc_com.o(i.PC_READ_PORG)
    i.PC_READ_Parameter                      0x08005670   Section        0  plc_com.o(i.PC_READ_Parameter)
    i.PC_READ_byte                           0x080057f8   Section        0  plc_com.o(i.PC_READ_byte)
    i.PC_WRITE_PORG                          0x0800582c   Section        0  plc_com.o(i.PC_WRITE_PORG)
    i.PC_WRITE_Parameter                     0x080058cc   Section        0  plc_com.o(i.PC_WRITE_Parameter)
    i.PC_WRITE_byte                          0x08005914   Section        0  plc_com.o(i.PC_WRITE_byte)
    i.PID                                    0x08005960   Section        0  ladder.o(i.PID)
    PID                                      0x08005961   Thumb Code   216  ladder.o(i.PID)
    i.PLC_1BIT_State                         0x08005a40   Section        0  plc_com.o(i.PLC_1BIT_State)
    i.PLC_Com_BIT                            0x08005ab8   Section        0  plc_com.o(i.PLC_Com_BIT)
    i.PLC_Comm_Byte                          0x08005b5c   Section        0  plc_com.o(i.PLC_Comm_Byte)
    i.PLC_Download                           0x08005c00   Section        0  plc_com.o(i.PLC_Download)
    i.PLC_E_Expand                           0x08005c28   Section        0  plc_com.o(i.PLC_E_Expand)
    i.PLC_IO_Refresh                         0x08005c64   Section        0  plc_io.o(i.PLC_IO_Refresh)
    i.PLC_IO_config                          0x08005d5c   Section        0  plc_io.o(i.PLC_IO_config)
    i.PLC_LDP_TEST                           0x08005d8c   Section        0  ladder.o(i.PLC_LDP_TEST)
    PLC_LDP_TEST                             0x08005d8d   Thumb Code   116  ladder.o(i.PLC_LDP_TEST)
    i.PLC_LD_BIT                             0x08005e10   Section        0  ladder.o(i.PLC_LD_BIT)
    PLC_LD_BIT                               0x08005e11   Thumb Code    28  ladder.o(i.PLC_LD_BIT)
    i.PLC_Mode_config                        0x08005e34   Section        0  plc_io.o(i.PLC_Mode_config)
    i.PLC_PL_BIT_TEST                        0x08005ecc   Section        0  ladder.o(i.PLC_PL_BIT_TEST)
    PLC_PL_BIT_TEST                          0x08005ecd   Thumb Code    28  ladder.o(i.PLC_PL_BIT_TEST)
    i.PLC_PROG_ERROR                         0x08005ef0   Section        0  ladder.o(i.PLC_PROG_ERROR)
    i.PLC_ReadKeepData                       0x08005f28   Section        0  plc_other.o(i.PLC_ReadKeepData)
    i.PLC_StopDefaultInit                    0x08005fa8   Section        0  ladder.o(i.PLC_StopDefaultInit)
    i.PulseOutputInit                        0x08005ff4   Section        0  pwm_output.o(i.PulseOutputInit)
    .ARM.__AT_0x08006000                     0x08006000   Section    34000  plc_com.o(.ARM.__AT_0x08006000)
    i.PLC_ProInstructParse                   0x0800e4d0   Section        0  ladder.o(i.PLC_ProInstructParse)
    i.PLC_SaveKeepData                       0x0800e7ec   Section        0  plc_other.o(i.PLC_SaveKeepData)
    i.PLC_Upload                             0x0800e86c   Section        0  plc_com.o(i.PLC_Upload)
    i.PLC_X_config                           0x0800e8e8   Section        0  plc_io.o(i.PLC_X_config)
    i.PLC_Y_config                           0x0800e95c   Section        0  plc_io.o(i.PLC_Y_config)
    i.PLSR_Plc_Pro                           0x0800e9ec   Section        0  pwm_output.o(i.PLSR_Plc_Pro)
    i.PLSY                                   0x0800eab4   Section        0  ladder.o(i.PLSY)
    i.PLSY_Plc_Pro                           0x0800ebb8   Section        0  pwm_output.o(i.PLSY_Plc_Pro)
    i.PWM                                    0x0800ec80   Section        0  ladder.o(i.PWM)
    PWM                                      0x0800ec81   Thumb Code   172  ladder.o(i.PWM)
    i.PWM_Plc_Pro                            0x0800ed34   Section        0  pwm_output.o(i.PWM_Plc_Pro)
    i.PWM_Y0_Restore_Config                  0x0800edb8   Section        0  pwm_output.o(i.PWM_Y0_Restore_Config)
    i.PWM_Y0_Set_Config                      0x0800edfc   Section        0  pwm_output.o(i.PWM_Y0_Set_Config)
    i.PWM_Y1_Restore_Config                  0x0800ee28   Section        0  pwm_output.o(i.PWM_Y1_Restore_Config)
    i.PWM_Y1_Set_Config                      0x0800ee6c   Section        0  pwm_output.o(i.PWM_Y1_Set_Config)
    i.Process_switch                         0x0800ee98   Section        0  plc_com.o(i.Process_switch)
    i.RCC_AHBPeriphClockCmd                  0x0800ef34   Section        0  stm32f10x_rcc.o(i.RCC_AHBPeriphClockCmd)
    i.RCC_APB1PeriphClockCmd                 0x0800ef4c   Section        0  stm32f10x_rcc.o(i.RCC_APB1PeriphClockCmd)
    i.RCC_APB1PeriphResetCmd                 0x0800ef64   Section        0  stm32f10x_rcc.o(i.RCC_APB1PeriphResetCmd)
    i.RCC_APB2PeriphClockCmd                 0x0800ef7c   Section        0  stm32f10x_rcc.o(i.RCC_APB2PeriphClockCmd)
    i.RCC_APB2PeriphResetCmd                 0x0800ef94   Section        0  stm32f10x_rcc.o(i.RCC_APB2PeriphResetCmd)
    i.RCC_GetClocksFreq                      0x0800efac   Section        0  stm32f10x_rcc.o(i.RCC_GetClocksFreq)
    i.RCC_GetFlagStatus                      0x0800f040   Section        0  stm32f10x_rcc.o(i.RCC_GetFlagStatus)
    i.RCC_LSICmd                             0x0800f070   Section        0  stm32f10x_rcc.o(i.RCC_LSICmd)
    i.READ_plc_programCodeBuf                0x0800f07c   Section        0  plc_com.o(i.READ_plc_programCodeBuf)
    i.RESET_C                                0x0800f0b4   Section        0  ladder.o(i.RESET_C)
    RESET_C                                  0x0800f0b5   Thumb Code   182  ladder.o(i.RESET_C)
    i.RESET_T                                0x0800f184   Section        0  ladder.o(i.RESET_T)
    RESET_T                                  0x0800f185   Thumb Code   108  ladder.o(i.RESET_T)
    i.RS                                     0x0800f200   Section        0  ladder.o(i.RS)
    RS                                       0x0800f201   Thumb Code   302  ladder.o(i.RS)
    i.RS485_ReciveNew                        0x0800f340   Section        0  bsp_uart_fifo.o(i.RS485_ReciveNew)
    i.RS485_SendBefor                        0x0800f378   Section        0  bsp_uart_fifo.o(i.RS485_SendBefor)
    i.RS485_SendBuf                          0x0800f394   Section        0  bsp_uart_fifo.o(i.RS485_SendBuf)
    i.RS485_SendOver                         0x0800f398   Section        0  bsp_uart_fifo.o(i.RS485_SendOver)
    i.RST                                    0x0800f3b4   Section        0  ladder.o(i.RST)
    RST                                      0x0800f3b5   Thumb Code    30  ladder.o(i.RST)
    i.RST_D                                  0x0800f3e0   Section        0  ladder.o(i.RST_D)
    RST_D                                    0x0800f3e1   Thumb Code    92  ladder.o(i.RST_D)
    i.RST_T_D_C_M_data                       0x0800f444   Section        0  plc_other.o(i.RST_T_D_C_M_data)
    i.RST_Y                                  0x0800f4c0   Section        0  ladder.o(i.RST_Y)
    i.RX_Process                             0x0800f4d0   Section        0  plc_com.o(i.RX_Process)
    i.SMOV                                   0x0800f664   Section        0  ladder.o(i.SMOV)
    SMOV                                     0x0800f665   Thumb Code   160  ladder.o(i.SMOV)
    i.SPD                                    0x0800f70c   Section        0  ladder.o(i.SPD)
    SPD                                      0x0800f70d   Thumb Code   260  ladder.o(i.SPD)
    i.STL                                    0x0800f818   Section        0  ladder.o(i.STL)
    i.SetSysClockTo72                        0x0800f854   Section        0  system_stm32f10x.o(i.SetSysClockTo72)
    SetSysClockTo72                          0x0800f855   Thumb Code   160  system_stm32f10x.o(i.SetSysClockTo72)
    i.SpecialTarget                          0x0800f8fc   Section        0  ladder.o(i.SpecialTarget)
    SpecialTarget                            0x0800f8fd   Thumb Code   762  ladder.o(i.SpecialTarget)
    i.Special_cos_value                      0x0800fc0c   Section        0  ladder.o(i.Special_cos_value)
    Special_cos_value                        0x0800fc0d   Thumb Code  1416  ladder.o(i.Special_cos_value)
    i.SysTick_Handler                        0x08010194   Section        0  bsp_timer.o(i.SysTick_Handler)
    i.SysTick_ISR                            0x08010198   Section        0  bsp_timer.o(i.SysTick_ISR)
    i.SystemInit                             0x080103ec   Section        0  system_stm32f10x.o(i.SystemInit)
    i.TADD                                   0x0801043c   Section        0  ladder.o(i.TADD)
    TADD                                     0x0801043d   Thumb Code    72  ladder.o(i.TADD)
    i.TCMP                                   0x0801048c   Section        0  ladder.o(i.TCMP)
    TCMP                                     0x0801048d   Thumb Code   268  ladder.o(i.TCMP)
    i.TI1_Config                             0x080105a8   Section        0  stm32f10x_tim.o(i.TI1_Config)
    TI1_Config                               0x080105a9   Thumb Code    88  stm32f10x_tim.o(i.TI1_Config)
    i.TI2_Config                             0x08010614   Section        0  stm32f10x_tim.o(i.TI2_Config)
    TI2_Config                               0x08010615   Thumb Code   102  stm32f10x_tim.o(i.TI2_Config)
    i.TIM1_NVIC_Configuration                0x08010690   Section        0  pwm_output.o(i.TIM1_NVIC_Configuration)
    i.TIM1_UP_IRQHandler                     0x080106b4   Section        0  pwm_output.o(i.TIM1_UP_IRQHandler)
    i.TIM2_IRQHandler                        0x08010930   Section        0  encode.o(i.TIM2_IRQHandler)
    i.TIM3_IRQHandler                        0x08010960   Section        0  encode.o(i.TIM3_IRQHandler)
    i.TIM5_IRQHandler                        0x08010994   Section        0  bsp_timer.o(i.TIM5_IRQHandler)
    i.TIM8_NVIC_Configuration                0x08010a34   Section        0  pwm_output.o(i.TIM8_NVIC_Configuration)
    i.TIM8_UP_IRQHandler                     0x08010a58   Section        0  pwm_output.o(i.TIM8_UP_IRQHandler)
    i.TIM_ARRPreloadConfig                   0x08010ce0   Section        0  stm32f10x_tim.o(i.TIM_ARRPreloadConfig)
    i.TIM_BDTRConfig                         0x08010cf4   Section        0  stm32f10x_tim.o(i.TIM_BDTRConfig)
    i.TIM_ClearFlag                          0x08010d16   Section        0  stm32f10x_tim.o(i.TIM_ClearFlag)
    i.TIM_ClearITPendingBit                  0x08010d1c   Section        0  stm32f10x_tim.o(i.TIM_ClearITPendingBit)
    i.TIM_Cmd                                0x08010d22   Section        0  stm32f10x_tim.o(i.TIM_Cmd)
    i.TIM_CtrlPWMOutputs                     0x08010d36   Section        0  stm32f10x_tim.o(i.TIM_CtrlPWMOutputs)
    i.TIM_DeInit                             0x08010d4c   Section        0  stm32f10x_tim.o(i.TIM_DeInit)
    i.TIM_EncoderInterfaceConfig             0x08010ebc   Section        0  stm32f10x_tim.o(i.TIM_EncoderInterfaceConfig)
    i.TIM_GetCounter                         0x08010eee   Section        0  stm32f10x_tim.o(i.TIM_GetCounter)
    i.TIM_GetITStatus                        0x08010ef2   Section        0  stm32f10x_tim.o(i.TIM_GetITStatus)
    i.TIM_ICInit                             0x08010f0c   Section        0  stm32f10x_tim.o(i.TIM_ICInit)
    i.TIM_ICStructInit                       0x08011038   Section        0  stm32f10x_tim.o(i.TIM_ICStructInit)
    i.TIM_ITConfig                           0x08011048   Section        0  stm32f10x_tim.o(i.TIM_ITConfig)
    i.TIM_OC1PreloadConfig                   0x08011058   Section        0  stm32f10x_tim.o(i.TIM_OC1PreloadConfig)
    i.TIM_OC4Init                            0x08011064   Section        0  stm32f10x_tim.o(i.TIM_OC4Init)
    i.TIM_OC4PreloadConfig                   0x080110c8   Section        0  stm32f10x_tim.o(i.TIM_OC4PreloadConfig)
    i.TIM_SelectInputTrigger                 0x080110dc   Section        0  stm32f10x_tim.o(i.TIM_SelectInputTrigger)
    i.TIM_SetCompare1                        0x080110e8   Section        0  stm32f10x_tim.o(i.TIM_SetCompare1)
    i.TIM_SetCompare2                        0x080110ec   Section        0  stm32f10x_tim.o(i.TIM_SetCompare2)
    i.TIM_SetCompare3                        0x080110f0   Section        0  stm32f10x_tim.o(i.TIM_SetCompare3)
    i.TIM_SetCompare4                        0x080110f4   Section        0  stm32f10x_tim.o(i.TIM_SetCompare4)
    i.TIM_SetCounter                         0x080110fa   Section        0  stm32f10x_tim.o(i.TIM_SetCounter)
    i.TIM_SetIC1Prescaler                    0x080110fe   Section        0  stm32f10x_tim.o(i.TIM_SetIC1Prescaler)
    i.TIM_SetIC2Prescaler                    0x0801110e   Section        0  stm32f10x_tim.o(i.TIM_SetIC2Prescaler)
    i.TIM_SetIC3Prescaler                    0x08011126   Section        0  stm32f10x_tim.o(i.TIM_SetIC3Prescaler)
    i.TIM_SetIC4Prescaler                    0x08011136   Section        0  stm32f10x_tim.o(i.TIM_SetIC4Prescaler)
    i.TIM_TIxExternalClockConfig             0x0801114e   Section        0  stm32f10x_tim.o(i.TIM_TIxExternalClockConfig)
    i.TIM_TimeBaseInit                       0x0801117c   Section        0  stm32f10x_tim.o(i.TIM_TimeBaseInit)
    i.TRD                                    0x08011218   Section        0  ladder.o(i.TRD)
    TRD                                      0x08011219   Thumb Code    86  ladder.o(i.TRD)
    i.TSUB                                   0x0801127c   Section        0  ladder.o(i.TSUB)
    TSUB                                     0x0801127d   Thumb Code    72  ladder.o(i.TSUB)
    i.TX_Process                             0x080112cc   Section        0  plc_com.o(i.TX_Process)
    i.TZCP                                   0x080112f4   Section        0  ladder.o(i.TZCP)
    TZCP                                     0x080112f5   Thumb Code   302  ladder.o(i.TZCP)
    i.T_100MS                                0x08011434   Section        0  plc_timer.o(i.T_100MS)
    i.T_10MS                                 0x080114a4   Section        0  plc_timer.o(i.T_10MS)
    i.T_1MS                                  0x08011514   Section        0  plc_timer.o(i.T_1MS)
    i.T_H100MS                               0x08011584   Section        0  plc_timer.o(i.T_H100MS)
    i.T_given_value_D                        0x080115f4   Section        0  ladder.o(i.T_given_value_D)
    T_given_value_D                          0x080115f5   Thumb Code   112  ladder.o(i.T_given_value_D)
    i.USART1_Configuration                   0x0801166c   Section        0  plc_com.o(i.USART1_Configuration)
    i.USART1_IRQHandler                      0x08011730   Section        0  plc_com.o(i.USART1_IRQHandler)
    i.USART3_IRQHandler                      0x080117b0   Section        0  bsp_uart_fifo.o(i.USART3_IRQHandler)
    i.USART_ClearFlag                        0x080117bc   Section        0  stm32f10x_usart.o(i.USART_ClearFlag)
    i.USART_ClearITPendingBit                0x080117c2   Section        0  stm32f10x_usart.o(i.USART_ClearITPendingBit)
    i.USART_Cmd                              0x080117ce   Section        0  stm32f10x_usart.o(i.USART_Cmd)
    i.USART_DMACmd                           0x080117e2   Section        0  stm32f10x_usart.o(i.USART_DMACmd)
    i.USART_GetFlagStatus                    0x080117f2   Section        0  stm32f10x_usart.o(i.USART_GetFlagStatus)
    i.USART_GetITStatus                      0x08011800   Section        0  stm32f10x_usart.o(i.USART_GetITStatus)
    i.USART_ITConfig                         0x0801183e   Section        0  stm32f10x_usart.o(i.USART_ITConfig)
    i.USART_Init                             0x08011870   Section        0  stm32f10x_usart.o(i.USART_Init)
    i.USART_ReceiveData                      0x08011924   Section        0  stm32f10x_usart.o(i.USART_ReceiveData)
    i.USART_SendData                         0x0801192c   Section        0  stm32f10x_usart.o(i.USART_SendData)
    i.UartIRQ                                0x08011934   Section        0  bsp_uart_fifo.o(i.UartIRQ)
    UartIRQ                                  0x08011935   Thumb Code   276  bsp_uart_fifo.o(i.UartIRQ)
    i.UartVarInit                            0x08011a48   Section        0  bsp_uart_fifo.o(i.UartVarInit)
    UartVarInit                              0x08011a49   Thumb Code    64  bsp_uart_fifo.o(i.UartVarInit)
    i.V0_V3                                  0x08011a9c   Section        0  ladder.o(i.V0_V3)
    i.V4_V7                                  0x08011ad8   Section        0  ladder.o(i.V4_V7)
    i.X_Io_Restore                           0x08011b14   Section        0  encode.o(i.X_Io_Restore)
    i.X_filter                               0x08011b80   Section        0  plc_io.o(i.X_filter)
    i.Y0_Tim_Mode_Config                     0x0801200c   Section        0  pwm_output.o(i.Y0_Tim_Mode_Config)
    i.Y0_Tim_Mode_Config_DIASBLE             0x080120e4   Section        0  pwm_output.o(i.Y0_Tim_Mode_Config_DIASBLE)
    i.Y1_Tim_Mode_Config                     0x08012114   Section        0  pwm_output.o(i.Y1_Tim_Mode_Config)
    i.Y1_Tim_Mode_Config_DIASBLE             0x080121ec   Section        0  pwm_output.o(i.Y1_Tim_Mode_Config_DIASBLE)
    i.Z0_Z3                                  0x0801221c   Section        0  ladder.o(i.Z0_Z3)
    i.Z4_Z7                                  0x08012258   Section        0  ladder.o(i.Z4_Z7)
    i.ZCP                                    0x08012294   Section        0  ladder.o(i.ZCP)
    ZCP                                      0x08012295   Thumb Code   208  ladder.o(i.ZCP)
    i.ZRST                                   0x08012370   Section        0  ladder.o(i.ZRST)
    ZRST                                     0x08012371   Thumb Code    84  ladder.o(i.ZRST)
    i._IWDG_Init                             0x080123d4   Section        0  main.o(i._IWDG_Init)
    i.__ARM_fpclassify                       0x0801241c   Section        0  fpclassify.o(i.__ARM_fpclassify)
    i.__ieee754_rem_pio2                     0x08012444   Section        0  rred.o(i.__ieee754_rem_pio2)
    i.__kernel_cos                           0x080127cc   Section        0  cos_i.o(i.__kernel_cos)
    i.__kernel_poly                          0x080128c8   Section        0  poly.o(i.__kernel_poly)
    i.__kernel_sin                           0x08012974   Section        0  sin_i.o(i.__kernel_sin)
    i.__kernel_tan                           0x08012a60   Section        0  tan_i.o(i.__kernel_tan)
    i.__mathlib_dbl_underflow                0x08012cd8   Section        0  dunder.o(i.__mathlib_dbl_underflow)
    i.addr_value                             0x08012ce8   Section        0  ladder.o(i.addr_value)
    addr_value                               0x08012ce9   Thumb Code    60  ladder.o(i.addr_value)
    i.addr_value_prog                        0x08012d28   Section        0  ladder.o(i.addr_value_prog)
    addr_value_prog                          0x08012d29   Thumb Code   274  ladder.o(i.addr_value_prog)
    i.all_flash_lock                         0x08012e50   Section        0  plc_com.o(i.all_flash_lock)
    i.all_flash_unlock                       0x08012e7c   Section        0  plc_com.o(i.all_flash_unlock)
    i.amount                                 0x08012e9c   Section        0  ladder.o(i.amount)
    amount                                   0x08012e9d   Thumb Code   120  ladder.o(i.amount)
    i.b2g                                    0x08012f20   Section        0  ladder.o(i.b2g)
    i.backup_block                           0x08012f58   Section        0  plc_com.o(i.backup_block)
    i.big                                    0x08012f88   Section        0  ladder.o(i.big)
    big                                      0x08012f89   Thumb Code   120  ladder.o(i.big)
    i.big_amount                             0x0801300c   Section        0  ladder.o(i.big_amount)
    big_amount                               0x0801300d   Thumb Code   120  ladder.o(i.big_amount)
    i.bsp_Idle                               0x08013090   Section        0  bsp.o(i.bsp_Idle)
    i.bsp_Init                               0x08013096   Section        0  bsp.o(i.bsp_Init)
    i.bsp_InitHardTimer                      0x080130ac   Section        0  bsp_timer.o(i.bsp_InitHardTimer)
    i.bsp_InitTimer                          0x08013114   Section        0  bsp_timer.o(i.bsp_InitTimer)
    i.bsp_InitUart                           0x08013174   Section        0  bsp_uart_fifo.o(i.bsp_InitUart)
    i.bsp_StartHardTimer                     0x08013198   Section        0  bsp_timer.o(i.bsp_StartHardTimer)
    i.comSendBuf                             0x08013238   Section        0  bsp_uart_fifo.o(i.comSendBuf)
    i.convert4to20ma                         0x080132b8   Section        0  adc.o(i.convert4to20ma)
    i.cos                                    0x080132ec   Section        0  cos.o(i.cos)
    i.cos_u32_value                          0x08013398   Section        0  ladder.o(i.cos_u32_value)
    cos_u32_value                            0x08013399   Thumb Code  1432  ladder.o(i.cos_u32_value)
    i.cos_value                              0x08013934   Section        0  ladder.o(i.cos_value)
    cos_value                                0x08013935   Thumb Code  1392  ladder.o(i.cos_value)
    i.data_init                              0x08013ea4   Section        0  plc_com.o(i.data_init)
    i.disable_C_D                            0x08013f00   Section        0  ladder.o(i.disable_C_D)
    disable_C_D                              0x08013f01   Thumb Code   276  ladder.o(i.disable_C_D)
    i.disable_C_K                            0x08014030   Section        0  ladder.o(i.disable_C_K)
    disable_C_K                              0x08014031   Thumb Code   266  ladder.o(i.disable_C_K)
    i.disable_T                              0x08014158   Section        0  ladder.o(i.disable_T)
    disable_T                                0x08014159   Thumb Code    34  ladder.o(i.disable_T)
    i.enable_C_D                             0x08014180   Section        0  ladder.o(i.enable_C_D)
    enable_C_D                               0x08014181   Thumb Code   330  ladder.o(i.enable_C_D)
    i.enable_C_K                             0x080142e4   Section        0  ladder.o(i.enable_C_K)
    enable_C_K                               0x080142e5   Thumb Code   318  ladder.o(i.enable_C_K)
    i.enable_T_K                             0x0801443c   Section        0  ladder.o(i.enable_T_K)
    enable_T_K                               0x0801443d   Thumb Code    54  ladder.o(i.enable_T_K)
    i.expand_AND                             0x0801447c   Section        0  ladder.o(i.expand_AND)
    i.expand_ANI                             0x08014498   Section        0  ladder.o(i.expand_ANI)
    i.expand_LD                              0x080144b4   Section        0  ladder.o(i.expand_LD)
    i.expand_LDI                             0x080144d0   Section        0  ladder.o(i.expand_LDI)
    i.expand_OR                              0x080144ec   Section        0  ladder.o(i.expand_OR)
    i.expand_ORI                             0x08014508   Section        0  ladder.o(i.expand_ORI)
    i.expand_OUT                             0x08014524   Section        0  ladder.o(i.expand_OUT)
    i.expand_RST                             0x08014540   Section        0  ladder.o(i.expand_RST)
    i.expand_SET                             0x0801455c   Section        0  ladder.o(i.expand_SET)
    i.find_data                              0x08014578   Section        0  plc_com.o(i.find_data)
    find_data                                0x08014579   Thumb Code    58  plc_com.o(i.find_data)
    i.find_data_address                      0x080145b8   Section        0  plc_com.o(i.find_data_address)
    find_data_address                        0x080145b9   Thumb Code   112  plc_com.o(i.find_data_address)
    i.find_end                               0x08014634   Section        0  plc_com.o(i.find_end)
    i.find_p                                 0x08014650   Section        0  ladder.o(i.find_p)
    i.find_toend                             0x0801468c   Section        0  ladder.o(i.find_toend)
    i.float_target                           0x080146b8   Section        0  ladder.o(i.float_target)
    float_target                             0x080146b9   Thumb Code    36  ladder.o(i.float_target)
    i.float_value                            0x080146e4   Section        0  ladder.o(i.float_value)
    float_value                              0x080146e5   Thumb Code   156  ladder.o(i.float_value)
    i.g2b                                    0x08014794   Section        0  ladder.o(i.g2b)
    i.less                                   0x080147d0   Section        0  ladder.o(i.less)
    less                                     0x080147d1   Thumb Code   120  ladder.o(i.less)
    i.less_amount                            0x08014854   Section        0  ladder.o(i.less_amount)
    less_amount                              0x08014855   Thumb Code   128  ladder.o(i.less_amount)
    i.main                                   0x080148e0   Section        0  main.o(i.main)
    i.no_amount                              0x0801494c   Section        0  ladder.o(i.no_amount)
    no_amount                                0x0801494d   Thumb Code   120  ladder.o(i.no_amount)
    i.other_function                         0x080149d0   Section        0  ladder.o(i.other_function)
    other_function                           0x080149d1   Thumb Code   104  ladder.o(i.other_function)
    i.read_other_data                        0x08014a3c   Section        0  plc_com.o(i.read_other_data)
    i.read_plc_tyte                          0x08014ad0   Section        0  plc_com.o(i.read_plc_tyte)
    i.setup_HL                               0x08014b50   Section        0  plc_com.o(i.setup_HL)
    i.setup_LH                               0x08014b68   Section        0  plc_com.o(i.setup_LH)
    i.sin                                    0x08014b80   Section        0  sin.o(i.sin)
    i.sqrt                                   0x08014c30   Section        0  sqrt.o(i.sqrt)
    i.switch_read_data                       0x08014c7c   Section        0  plc_com.o(i.switch_read_data)
    i.tan                                    0x08014cbc   Section        0  tan.o(i.tan)
    i.target                                 0x08014d30   Section        0  ladder.o(i.target)
    target                                   0x08014d31   Thumb Code   676  ladder.o(i.target)
    i.timer_disble                           0x08014fe8   Section        0  plc_timer.o(i.timer_disble)
    i.timer_enable                           0x08015064   Section        0  plc_timer.o(i.timer_enable)
    i.usart                                  0x080150ec   Section        0  plc_com.o(i.usart)
    i.write_block                            0x0801511c   Section        0  plc_com.o(i.write_block)
    i.xMBUtilGetBits                         0x08015178   Section        0  modbus_slave.o(i.xMBUtilGetBits)
    i.xMBUtilSetBits                         0x08015196   Section        0  modbus_slave.o(i.xMBUtilSetBits)
    x$fpl$d2f                                0x080151c0   Section       98  d2f.o(x$fpl$d2f)
    x$fpl$dadd                               0x08015224   Section      336  daddsub_clz.o(x$fpl$dadd)
    _dadd1                                   0x08015235   Thumb Code     0  daddsub_clz.o(x$fpl$dadd)
    x$fpl$dcheck1                            0x08015374   Section       16  dcheck1.o(x$fpl$dcheck1)
    x$fpl$ddiv                               0x08015384   Section      688  ddiv.o(x$fpl$ddiv)
    ddiv_entry                               0x0801538b   Thumb Code     0  ddiv.o(x$fpl$ddiv)
    x$fpl$dfix                               0x08015634   Section       94  dfix.o(x$fpl$dfix)
    x$fpl$dfixu                              0x08015694   Section       90  dfixu.o(x$fpl$dfixu)
    x$fpl$dflt                               0x080156ee   Section       46  dflt_clz.o(x$fpl$dflt)
    x$fpl$dfltu                              0x0801571c   Section       38  dflt_clz.o(x$fpl$dfltu)
    x$fpl$dmul                               0x08015744   Section      340  dmul.o(x$fpl$dmul)
    x$fpl$dnaninf                            0x08015898   Section      156  dnaninf.o(x$fpl$dnaninf)
    x$fpl$dretinf                            0x08015934   Section       12  dretinf.o(x$fpl$dretinf)
    x$fpl$drsb                               0x08015940   Section       22  daddsub_clz.o(x$fpl$drsb)
    x$fpl$dsqrt                              0x08015958   Section      460  dsqrt_noumaal.o(x$fpl$dsqrt)
    x$fpl$dsub                               0x08015b24   Section      468  daddsub_clz.o(x$fpl$dsub)
    _dsub1                                   0x08015b35   Thumb Code     0  daddsub_clz.o(x$fpl$dsub)
    x$fpl$f2d                                0x08015cf8   Section       86  f2d.o(x$fpl$f2d)
    x$fpl$fadd                               0x08015d50   Section      196  faddsub_clz.o(x$fpl$fadd)
    _fadd1                                   0x08015d5f   Thumb Code     0  faddsub_clz.o(x$fpl$fadd)
    x$fpl$fcmpinf                            0x08015e14   Section       24  fcmpi.o(x$fpl$fcmpinf)
    x$fpl$fdiv                               0x08015e2c   Section      388  fdiv.o(x$fpl$fdiv)
    _fdiv1                                   0x08015e2d   Thumb Code     0  fdiv.o(x$fpl$fdiv)
    x$fpl$feqf                               0x08015fb0   Section      104  feqf.o(x$fpl$feqf)
    x$fpl$ffixu                              0x08016018   Section       62  ffixu.o(x$fpl$ffixu)
    x$fpl$fflt                               0x08016058   Section       48  fflt_clz.o(x$fpl$fflt)
    x$fpl$fleqf                              0x08016088   Section      104  fleqf.o(x$fpl$fleqf)
    x$fpl$fmul                               0x080160f0   Section      258  fmul.o(x$fpl$fmul)
    x$fpl$fnaninf                            0x080161f2   Section      140  fnaninf.o(x$fpl$fnaninf)
    x$fpl$fretinf                            0x0801627e   Section       10  fretinf.o(x$fpl$fretinf)
    x$fpl$frleqf                             0x08016288   Section       98  frleqf.o(x$fpl$frleqf)
    x$fpl$fsub                               0x080162ec   Section      234  faddsub_clz.o(x$fpl$fsub)
    _fsub1                                   0x080162fb   Thumb Code     0  faddsub_clz.o(x$fpl$fsub)
    x$fpl$retnan                             0x080163d6   Section      100  retnan.o(x$fpl$retnan)
    x$fpl$scalbn                             0x0801643a   Section       92  scalbn.o(x$fpl$scalbn)
    x$fpl$trapveneer                         0x08016496   Section       48  trapv.o(x$fpl$trapveneer)
    .constdata                               0x080164c6   Section       66  ladder.o(.constdata)
    x$fpl$usenofp                            0x080164c6   Section        0  usenofp.o(x$fpl$usenofp)
    .constdata                               0x08016508   Section      609  plc_com.o(.constdata)
    .constdata                               0x08016769   Section      512  bsp_user_lib.o(.constdata)
    s_CRCHi                                  0x08016769   Data         256  bsp_user_lib.o(.constdata)
    .constdata                               0x08016969   Section        4  modbus_slave.o(.constdata)
    .constdata                               0x08016970   Section       48  cos_i.o(.constdata)
    C                                        0x08016970   Data          48  cos_i.o(.constdata)
    .constdata                               0x080169a0   Section      200  rred.o(.constdata)
    pio2s                                    0x080169a0   Data          48  rred.o(.constdata)
    twooverpi                                0x080169d0   Data         152  rred.o(.constdata)
    .constdata                               0x08016a68   Section       40  sin_i.o(.constdata)
    S                                        0x08016a68   Data          40  sin_i.o(.constdata)
    .constdata                               0x08016a90   Section       96  tan_i.o(.constdata)
    Todd                                     0x08016a90   Data          48  tan_i.o(.constdata)
    Teven                                    0x08016ac0   Data          48  tan_i.o(.constdata)
    .data                                    0x20000000   Section       20  stm32f10x_rcc.o(.data)
    ADCPrescTable                            0x20000000   Data           4  stm32f10x_rcc.o(.data)
    APBAHBPrescTable                         0x20000004   Data          16  stm32f10x_rcc.o(.data)
    .data                                    0x20000014   Section       20  system_stm32f10x.o(.data)
    .data                                    0x20000028   Section       10  plc_io.o(.data)
    .data                                    0x20000032   Section        1  plc_io.o(.data)
    .data                                    0x20000033   Section        1  plc_io.o(.data)
    .data                                    0x20000034   Section       48  plc_timer.o(.data)
    pSetValue                                0x20000034   Data           4  plc_timer.o(.data)
    pCurrentValue                            0x20000038   Data           4  plc_timer.o(.data)
    pT_DisSetValue                           0x2000003c   Data           4  plc_timer.o(.data)
    pT_DisCurrentValue                       0x20000040   Data           4  plc_timer.o(.data)
    pT_100msSetValue                         0x20000044   Data           4  plc_timer.o(.data)
    pT_100msCurrentValue                     0x20000048   Data           4  plc_timer.o(.data)
    pT_10msSetValue                          0x2000004c   Data           4  plc_timer.o(.data)
    pT_10msCurrentValue                      0x20000050   Data           4  plc_timer.o(.data)
    pT_1msSetValue                           0x20000054   Data           4  plc_timer.o(.data)
    pT_1msCurrentValue                       0x20000058   Data           4  plc_timer.o(.data)
    pHT_100msSetValue                        0x2000005c   Data           4  plc_timer.o(.data)
    pHT_100msCurrentValue                    0x20000060   Data           4  plc_timer.o(.data)
    .data                                    0x20000068   Section      144  ladder.o(.data)
    temp                                     0x20000069   Data           1  ladder.o(.data)
    PLC_ACC_BIT                              0x2000006a   Data           1  ladder.o(.data)
    PLC_MPS_BIT                              0x2000006b   Data           1  ladder.o(.data)
    T_number                                 0x2000006c   Data           1  ladder.o(.data)
    C_number                                 0x2000006d   Data           1  ladder.o(.data)
    PLC_STL_Status                           0x20000071   Data           1  ladder.o(.data)
    PLC_STL_CMD                              0x20000072   Data           1  ladder.o(.data)
    PLC_STL_Count                            0x20000073   Data           1  ladder.o(.data)
    puls                                     0x20000074   Data           1  ladder.o(.data)
    run_flag                                 0x20000075   Data           1  ladder.o(.data)
    LL_BIT                                   0x20000078   Data           2  ladder.o(.data)
    JOB_ADDR                                 0x2000007a   Data           2  ladder.o(.data)
    temp                                     0x2000007c   Data           2  ladder.o(.data)
    temp1                                    0x2000007e   Data           2  ladder.o(.data)
    temp                                     0x20000080   Data           2  ladder.o(.data)
    temp                                     0x20000082   Data           2  ladder.o(.data)
    T_value                                  0x20000084   Data           2  ladder.o(.data)
    C_value                                  0x20000086   Data           2  ladder.o(.data)
    PLC_STL_Addr                             0x20000088   Data           2  ladder.o(.data)
    p_data                                   0x2000008c   Data           4  ladder.o(.data)
    temp                                     0x20000090   Data           4  ladder.o(.data)
    temp1                                    0x20000094   Data           4  ladder.o(.data)
    temp2                                    0x20000098   Data           4  ladder.o(.data)
    temp1                                    0x2000009c   Data           4  ladder.o(.data)
    temp2                                    0x200000a0   Data           4  ladder.o(.data)
    temp1                                    0x200000a4   Data           4  ladder.o(.data)
    temp2                                    0x200000a8   Data           4  ladder.o(.data)
    p_data                                   0x200000ac   Data           4  ladder.o(.data)
    p_data                                   0x200000b0   Data           4  ladder.o(.data)
    p_data                                   0x200000b4   Data           4  ladder.o(.data)
    p_data                                   0x200000b8   Data           4  ladder.o(.data)
    p_data                                   0x200000bc   Data           4  ladder.o(.data)
    PLC_Addr                                 0x200000c0   Data           4  ladder.o(.data)
    PLC_Err                                  0x200000c4   Data           4  ladder.o(.data)
    mov_d_addr                               0x200000c8   Data           4  ladder.o(.data)
    MOV_DATA_64BIT                           0x200000e8   Data           8  ladder.o(.data)
    .data                                    0x200000f8   Section        6  pwm_output.o(.data)
    i                                        0x200000f8   Data           1  pwm_output.o(.data)
    j                                        0x200000f9   Data           1  pwm_output.o(.data)
    k                                        0x200000fa   Data           1  pwm_output.o(.data)
    i                                        0x200000fb   Data           1  pwm_output.o(.data)
    j                                        0x200000fc   Data           1  pwm_output.o(.data)
    k                                        0x200000fd   Data           1  pwm_output.o(.data)
    .data                                    0x20000100   Section       28  encode.o(.data)
    C251_4TIMES                              0x20000114   Data           4  encode.o(.data)
    C253_4TIMES                              0x20000118   Data           4  encode.o(.data)
    .data                                    0x2000011c   Section        2  adc.o(.data)
    cnt                                      0x2000011d   Data           1  adc.o(.data)
    .data                                    0x2000011e   Section       18  plc_com.o(.data)
    Flag_Uart_Send                           0x2000011e   Data           1  plc_com.o(.data)
    offset                                   0x20000120   Data           1  plc_com.o(.data)
    sum                                      0x20000121   Data           1  plc_com.o(.data)
    f                                        0x20000122   Data           1  plc_com.o(.data)
    .data                                    0x20000130   Section       32  bsp_timer.o(.data)
    s_ucTimeOutFlag                          0x20000130   Data           1  bsp_timer.o(.data)
    all_clock                                0x20000132   Data           1  bsp_timer.o(.data)
    minute                                   0x20000134   Data           2  bsp_timer.o(.data)
    s_uiDelayCount                           0x20000138   Data           4  bsp_timer.o(.data)
    s_TIM_CallBack1                          0x20000140   Data           4  bsp_timer.o(.data)
    s_TIM_CallBack2                          0x20000144   Data           4  bsp_timer.o(.data)
    s_TIM_CallBack3                          0x20000148   Data           4  bsp_timer.o(.data)
    s_TIM_CallBack4                          0x2000014c   Data           4  bsp_timer.o(.data)
    .bss                                     0x20000150   Section       33  plc_io.o(.bss)
    x_buffer                                 0x20000150   Data          33  plc_io.o(.bss)
    .bss                                     0x20000174   Section     1732  ladder.o(.bss)
    PLC_P_Addr                               0x20000174   Data         516  ladder.o(.bss)
    p_save                                   0x20000378   Data         516  ladder.o(.bss)
    PLC_STL_Coil                             0x20000638   Data         512  ladder.o(.bss)
    .bss                                     0x20000838   Section      192  pwm_output.o(.bss)
    .bss                                     0x200008f8   Section       80  encode.o(.bss)
    .bss                                     0x20000948   Section      392  adc.o(.bss)
    .bss                                     0x20000ad0   Section       48  bsp_timer.o(.bss)
    s_tTmr                                   0x20000ad0   Data          48  bsp_timer.o(.bss)
    .bss                                     0x20000b00   Section       96  libspace.o(.bss)
    HEAP                                     0x20000b60   Section      512  startup_stm32f10x_hd.o(HEAP)
    Heap_Mem                                 0x20000b60   Data         512  startup_stm32f10x_hd.o(HEAP)
    .ARM.__AT_0x20001000                     0x20001000   Section    33200  plc_com.o(.ARM.__AT_0x20001000)
    .bss                                     0x200091b0   Section     7320  plc_com.o(.bss)
    .bss                                     0x2000ae48   Section     2096  bsp_uart_fifo.o(.bss)
    g_tUart3                                 0x2000ae48   Data          48  bsp_uart_fifo.o(.bss)
    g_TxBuf3                                 0x2000ae78   Data        1024  bsp_uart_fifo.o(.bss)
    g_RxBuf3                                 0x2000b278   Data        1024  bsp_uart_fifo.o(.bss)
    .bss                                     0x2000b678   Section     2100  modbus_host.o(.bss)
    .bss                                     0x2000beac   Section     2468  modbus_slave.o(.bss)
    STACK                                    0x2000c850   Section     1024  startup_stm32f10x_hd.o(STACK)
    Stack_Mem                                0x2000c850   Data        1024  startup_stm32f10x_hd.o(STACK)
    __initial_sp                             0x2000cc50   Data           0  startup_stm32f10x_hd.o(STACK)

    Global Symbols

    Symbol Name                              Value     Ov Type        Size  Object(Section)

    BuildAttributes$$THM_ISAv4$P$D$K$B$S$PE$A:L22UL41UL21$X:L11$S22US41US21$IEEE1$IW$USESV6$~STKCKD$USESV7$~SHL$OTIME$ROPI$IEEEX$EBA8$UX$STANDARDLIB$REQ8$PRES8$EABIv2 0x00000000   Number         0  anon$$obj.o ABSOLUTE
    __ARM_use_no_argv                        0x00000000   Number         0  main.o ABSOLUTE
    __ARM_exceptions_init                     - Undefined Weak Reference
    __alloca_initialize                       - Undefined Weak Reference
    __cpp_initialize__aeabi_                  - Undefined Weak Reference
    __cxa_finalize                            - Undefined Weak Reference
    __rt_locale                               - Undefined Weak Reference
    __sigvec_lookup                           - Undefined Weak Reference
    __user_heap_extent                        - Undefined Weak Reference
    _atexit_init                              - Undefined Weak Reference
    _call_atexit_fns                          - Undefined Weak Reference
    _clock_init                               - Undefined Weak Reference
    _fp_trap_init                             - Undefined Weak Reference
    _fp_trap_shutdown                         - Undefined Weak Reference
    _get_lc_collate                           - Undefined Weak Reference
    _get_lc_ctype                             - Undefined Weak Reference
    _get_lc_monetary                          - Undefined Weak Reference
    _get_lc_numeric                           - Undefined Weak Reference
    _get_lc_time                              - Undefined Weak Reference
    _getenv_init                              - Undefined Weak Reference
    _handle_redirection                       - Undefined Weak Reference
    _mutex_acquire                            - Undefined Weak Reference
    _mutex_free                               - Undefined Weak Reference
    _mutex_release                            - Undefined Weak Reference
    _printf_mbtowc                            - Undefined Weak Reference
    _printf_post_padding                      - Undefined Weak Reference
    _printf_pre_padding                       - Undefined Weak Reference
    _rand_init                                - Undefined Weak Reference
    _signal_finish                            - Undefined Weak Reference
    _signal_init                              - Undefined Weak Reference
    __Vectors_Size                           0x00000130   Number         0  startup_stm32f10x_hd.o ABSOLUTE
    __Vectors                                0x08000000   Data           4  startup_stm32f10x_hd.o(RESET)
    __Vectors_End                            0x08000130   Data           0  startup_stm32f10x_hd.o(RESET)
    __main                                   0x08000131   Thumb Code     8  __main.o(!!!main)
    __scatterload                            0x08000139   Thumb Code     0  __scatter.o(!!!scatter)
    __scatterload_rt2                        0x08000139   Thumb Code    44  __scatter.o(!!!scatter)
    __scatterload_rt2_thumb_only             0x08000139   Thumb Code     0  __scatter.o(!!!scatter)
    __scatterload_null                       0x08000147   Thumb Code     0  __scatter.o(!!!scatter)
    __decompress                             0x0800016d   Thumb Code    90  __dczerorl2.o(!!dczerorl2)
    __decompress1                            0x0800016d   Thumb Code     0  __dczerorl2.o(!!dczerorl2)
    __scatterload_zeroinit                   0x080001c9   Thumb Code    28  __scatter_zi.o(!!handler_zi)
    __rt_lib_init                            0x080001e5   Thumb Code     0  libinit.o(.ARM.Collect$$libinit$$00000000)
    __rt_lib_init_alloca_1                   0x080001e7   Thumb Code     0  libinit2.o(.ARM.Collect$$libinit$$0000002C)
    __rt_lib_init_argv_1                     0x080001e7   Thumb Code     0  libinit2.o(.ARM.Collect$$libinit$$0000002A)
    __rt_lib_init_atexit_1                   0x080001e7   Thumb Code     0  libinit2.o(.ARM.Collect$$libinit$$00000019)
    __rt_lib_init_clock_1                    0x080001e7   Thumb Code     0  libinit2.o(.ARM.Collect$$libinit$$0000001F)
    __rt_lib_init_cpp_1                      0x080001e7   Thumb Code     0  libinit2.o(.ARM.Collect$$libinit$$00000030)
    __rt_lib_init_exceptions_1               0x080001e7   Thumb Code     0  libinit2.o(.ARM.Collect$$libinit$$0000002E)
    __rt_lib_init_fp_1                       0x080001e7   Thumb Code     0  libinit2.o(.ARM.Collect$$libinit$$00000002)
    __rt_lib_init_fp_trap_1                  0x080001e7   Thumb Code     0  libinit2.o(.ARM.Collect$$libinit$$0000001D)
    __rt_lib_init_getenv_1                   0x080001e7   Thumb Code     0  libinit2.o(.ARM.Collect$$libinit$$00000021)
    __rt_lib_init_heap_1                     0x080001e7   Thumb Code     0  libinit2.o(.ARM.Collect$$libinit$$00000008)
    __rt_lib_init_lc_collate_1               0x080001e7   Thumb Code     0  libinit2.o(.ARM.Collect$$libinit$$0000000F)
    __rt_lib_init_lc_ctype_1                 0x080001e7   Thumb Code     0  libinit2.o(.ARM.Collect$$libinit$$00000011)
    __rt_lib_init_lc_monetary_1              0x080001e7   Thumb Code     0  libinit2.o(.ARM.Collect$$libinit$$00000013)
    __rt_lib_init_lc_numeric_1               0x080001e7   Thumb Code     0  libinit2.o(.ARM.Collect$$libinit$$00000015)
    __rt_lib_init_lc_time_1                  0x080001e7   Thumb Code     0  libinit2.o(.ARM.Collect$$libinit$$00000017)
    __rt_lib_init_rand_1                     0x080001e7   Thumb Code     0  libinit2.o(.ARM.Collect$$libinit$$0000000C)
    __rt_lib_init_return                     0x080001e7   Thumb Code     0  libinit2.o(.ARM.Collect$$libinit$$00000031)
    __rt_lib_init_signal_1                   0x080001e7   Thumb Code     0  libinit2.o(.ARM.Collect$$libinit$$0000001B)
    __rt_lib_init_stdio_1                    0x080001e7   Thumb Code     0  libinit2.o(.ARM.Collect$$libinit$$00000023)
    __rt_lib_init_user_alloc_1               0x080001e7   Thumb Code     0  libinit2.o(.ARM.Collect$$libinit$$0000000A)
    __rt_lib_shutdown                        0x080001e9   Thumb Code     0  libshutdown.o(.ARM.Collect$$libshutdown$$00000000)
    __rt_lib_shutdown_fp_trap_1              0x080001eb   Thumb Code     0  libshutdown2.o(.ARM.Collect$$libshutdown$$00000006)
    __rt_lib_shutdown_heap_1                 0x080001eb   Thumb Code     0  libshutdown2.o(.ARM.Collect$$libshutdown$$0000000E)
    __rt_lib_shutdown_return                 0x080001eb   Thumb Code     0  libshutdown2.o(.ARM.Collect$$libshutdown$$0000000F)
    __rt_lib_shutdown_signal_1               0x080001eb   Thumb Code     0  libshutdown2.o(.ARM.Collect$$libshutdown$$00000009)
    __rt_lib_shutdown_stdio_1                0x080001eb   Thumb Code     0  libshutdown2.o(.ARM.Collect$$libshutdown$$00000003)
    __rt_lib_shutdown_user_alloc_1           0x080001eb   Thumb Code     0  libshutdown2.o(.ARM.Collect$$libshutdown$$0000000B)
    __rt_entry                               0x080001ed   Thumb Code     0  rtentry.o(.ARM.Collect$$rtentry$$00000000)
    __rt_entry_presh_1                       0x080001ed   Thumb Code     0  rtentry2.o(.ARM.Collect$$rtentry$$00000002)
    __rt_entry_sh                            0x080001ed   Thumb Code     0  rtentry4.o(.ARM.Collect$$rtentry$$00000004)
    __rt_entry_li                            0x080001f3   Thumb Code     0  rtentry2.o(.ARM.Collect$$rtentry$$0000000A)
    __rt_entry_postsh_1                      0x080001f3   Thumb Code     0  rtentry2.o(.ARM.Collect$$rtentry$$00000009)
    __rt_entry_main                          0x080001f7   Thumb Code     0  rtentry2.o(.ARM.Collect$$rtentry$$0000000D)
    __rt_entry_postli_1                      0x080001f7   Thumb Code     0  rtentry2.o(.ARM.Collect$$rtentry$$0000000C)
    __rt_exit                                0x080001ff   Thumb Code     0  rtexit.o(.ARM.Collect$$rtexit$$00000000)
    __rt_exit_ls                             0x08000201   Thumb Code     0  rtexit2.o(.ARM.Collect$$rtexit$$00000003)
    __rt_exit_prels_1                        0x08000201   Thumb Code     0  rtexit2.o(.ARM.Collect$$rtexit$$00000002)
    __rt_exit_exit                           0x08000205   Thumb Code     0  rtexit2.o(.ARM.Collect$$rtexit$$00000004)
    Reset_Handler                            0x0800020d   Thumb Code     8  startup_stm32f10x_hd.o(.text)
    NMI_Handler                              0x08000215   Thumb Code     2  startup_stm32f10x_hd.o(.text)
    HardFault_Handler                        0x08000217   Thumb Code     2  startup_stm32f10x_hd.o(.text)
    MemManage_Handler                        0x08000219   Thumb Code     2  startup_stm32f10x_hd.o(.text)
    BusFault_Handler                         0x0800021b   Thumb Code     2  startup_stm32f10x_hd.o(.text)
    UsageFault_Handler                       0x0800021d   Thumb Code     2  startup_stm32f10x_hd.o(.text)
    SVC_Handler                              0x0800021f   Thumb Code     2  startup_stm32f10x_hd.o(.text)
    DebugMon_Handler                         0x08000221   Thumb Code     2  startup_stm32f10x_hd.o(.text)
    PendSV_Handler                           0x08000223   Thumb Code     2  startup_stm32f10x_hd.o(.text)
    ADC1_2_IRQHandler                        0x08000227   Thumb Code     0  startup_stm32f10x_hd.o(.text)
    ADC3_IRQHandler                          0x08000227   Thumb Code     0  startup_stm32f10x_hd.o(.text)
    CAN1_RX1_IRQHandler                      0x08000227   Thumb Code     0  startup_stm32f10x_hd.o(.text)
    CAN1_SCE_IRQHandler                      0x08000227   Thumb Code     0  startup_stm32f10x_hd.o(.text)
    DMA1_Channel2_IRQHandler                 0x08000227   Thumb Code     0  startup_stm32f10x_hd.o(.text)
    DMA1_Channel3_IRQHandler                 0x08000227   Thumb Code     0  startup_stm32f10x_hd.o(.text)
    DMA1_Channel5_IRQHandler                 0x08000227   Thumb Code     0  startup_stm32f10x_hd.o(.text)
    DMA1_Channel6_IRQHandler                 0x08000227   Thumb Code     0  startup_stm32f10x_hd.o(.text)
    DMA1_Channel7_IRQHandler                 0x08000227   Thumb Code     0  startup_stm32f10x_hd.o(.text)
    DMA2_Channel1_IRQHandler                 0x08000227   Thumb Code     0  startup_stm32f10x_hd.o(.text)
    DMA2_Channel2_IRQHandler                 0x08000227   Thumb Code     0  startup_stm32f10x_hd.o(.text)
    DMA2_Channel3_IRQHandler                 0x08000227   Thumb Code     0  startup_stm32f10x_hd.o(.text)
    DMA2_Channel4_5_IRQHandler               0x08000227   Thumb Code     0  startup_stm32f10x_hd.o(.text)
    EXTI0_IRQHandler                         0x08000227   Thumb Code     0  startup_stm32f10x_hd.o(.text)
    EXTI15_10_IRQHandler                     0x08000227   Thumb Code     0  startup_stm32f10x_hd.o(.text)
    EXTI1_IRQHandler                         0x08000227   Thumb Code     0  startup_stm32f10x_hd.o(.text)
    EXTI2_IRQHandler                         0x08000227   Thumb Code     0  startup_stm32f10x_hd.o(.text)
    EXTI3_IRQHandler                         0x08000227   Thumb Code     0  startup_stm32f10x_hd.o(.text)
    EXTI4_IRQHandler                         0x08000227   Thumb Code     0  startup_stm32f10x_hd.o(.text)
    FLASH_IRQHandler                         0x08000227   Thumb Code     0  startup_stm32f10x_hd.o(.text)
    FSMC_IRQHandler                          0x08000227   Thumb Code     0  startup_stm32f10x_hd.o(.text)
    I2C1_ER_IRQHandler                       0x08000227   Thumb Code     0  startup_stm32f10x_hd.o(.text)
    I2C1_EV_IRQHandler                       0x08000227   Thumb Code     0  startup_stm32f10x_hd.o(.text)
    I2C2_ER_IRQHandler                       0x08000227   Thumb Code     0  startup_stm32f10x_hd.o(.text)
    I2C2_EV_IRQHandler                       0x08000227   Thumb Code     0  startup_stm32f10x_hd.o(.text)
    PVD_IRQHandler                           0x08000227   Thumb Code     0  startup_stm32f10x_hd.o(.text)
    RCC_IRQHandler                           0x08000227   Thumb Code     0  startup_stm32f10x_hd.o(.text)
    RTCAlarm_IRQHandler                      0x08000227   Thumb Code     0  startup_stm32f10x_hd.o(.text)
    RTC_IRQHandler                           0x08000227   Thumb Code     0  startup_stm32f10x_hd.o(.text)
    SDIO_IRQHandler                          0x08000227   Thumb Code     0  startup_stm32f10x_hd.o(.text)
    SPI1_IRQHandler                          0x08000227   Thumb Code     0  startup_stm32f10x_hd.o(.text)
    SPI2_IRQHandler                          0x08000227   Thumb Code     0  startup_stm32f10x_hd.o(.text)
    SPI3_IRQHandler                          0x08000227   Thumb Code     0  startup_stm32f10x_hd.o(.text)
    TAMPER_IRQHandler                        0x08000227   Thumb Code     0  startup_stm32f10x_hd.o(.text)
    TIM1_BRK_IRQHandler                      0x08000227   Thumb Code     0  startup_stm32f10x_hd.o(.text)
    TIM1_CC_IRQHandler                       0x08000227   Thumb Code     0  startup_stm32f10x_hd.o(.text)
    TIM1_TRG_COM_IRQHandler                  0x08000227   Thumb Code     0  startup_stm32f10x_hd.o(.text)
    TIM4_IRQHandler                          0x08000227   Thumb Code     0  startup_stm32f10x_hd.o(.text)
    TIM6_IRQHandler                          0x08000227   Thumb Code     0  startup_stm32f10x_hd.o(.text)
    TIM7_IRQHandler                          0x08000227   Thumb Code     0  startup_stm32f10x_hd.o(.text)
    TIM8_BRK_IRQHandler                      0x08000227   Thumb Code     0  startup_stm32f10x_hd.o(.text)
    TIM8_CC_IRQHandler                       0x08000227   Thumb Code     0  startup_stm32f10x_hd.o(.text)
    TIM8_TRG_COM_IRQHandler                  0x08000227   Thumb Code     0  startup_stm32f10x_hd.o(.text)
    UART4_IRQHandler                         0x08000227   Thumb Code     0  startup_stm32f10x_hd.o(.text)
    UART5_IRQHandler                         0x08000227   Thumb Code     0  startup_stm32f10x_hd.o(.text)
    USART2_IRQHandler                        0x08000227   Thumb Code     0  startup_stm32f10x_hd.o(.text)
    USBWakeUp_IRQHandler                     0x08000227   Thumb Code     0  startup_stm32f10x_hd.o(.text)
    USB_HP_CAN1_TX_IRQHandler                0x08000227   Thumb Code     0  startup_stm32f10x_hd.o(.text)
    USB_LP_CAN1_RX0_IRQHandler               0x08000227   Thumb Code     0  startup_stm32f10x_hd.o(.text)
    WWDG_IRQHandler                          0x08000227   Thumb Code     0  startup_stm32f10x_hd.o(.text)
    __user_initial_stackheap                 0x08000229   Thumb Code     0  startup_stm32f10x_hd.o(.text)
    __aeabi_uldivmod                         0x0800024d   Thumb Code     0  lludivv7m.o(.text)
    _ll_udiv                                 0x0800024d   Thumb Code   238  lludivv7m.o(.text)
    __aeabi_llsl                             0x0800033b   Thumb Code     0  llshl.o(.text)
    _ll_shift_l                              0x0800033b   Thumb Code    38  llshl.o(.text)
    __aeabi_llsr                             0x08000361   Thumb Code     0  llushr.o(.text)
    _ll_ushift_r                             0x08000361   Thumb Code    38  llushr.o(.text)
    memcmp                                   0x08000387   Thumb Code    88  memcmp.o(.text)
    __aeabi_memcpy                           0x080003df   Thumb Code     0  rt_memcpy_v6.o(.text)
    __rt_memcpy                              0x080003df   Thumb Code   138  rt_memcpy_v6.o(.text)
    _memcpy_lastbytes                        0x08000445   Thumb Code     0  rt_memcpy_v6.o(.text)
    __aeabi_memclr                           0x08000469   Thumb Code     0  rt_memclr.o(.text)
    __rt_memclr                              0x08000469   Thumb Code    68  rt_memclr.o(.text)
    _memset                                  0x0800046d   Thumb Code     0  rt_memclr.o(.text)
    __aeabi_memclr4                          0x080004ad   Thumb Code     0  rt_memclr_w.o(.text)
    __aeabi_memclr8                          0x080004ad   Thumb Code     0  rt_memclr_w.o(.text)
    __rt_memclr_w                            0x080004ad   Thumb Code    78  rt_memclr_w.o(.text)
    _memset_w                                0x080004b1   Thumb Code     0  rt_memclr_w.o(.text)
    __use_two_region_memory                  0x080004fb   Thumb Code     2  heapauxi.o(.text)
    __rt_heap_escrow                         0x080004fd   Thumb Code     2  heapauxi.o(.text)
    __rt_heap_expand                         0x080004ff   Thumb Code     2  heapauxi.o(.text)
    __read_errno                             0x08000501   Thumb Code    10  _rserrno.o(.text)
    __set_errno                              0x0800050b   Thumb Code    12  _rserrno.o(.text)
    __aeabi_memcpy4                          0x08000517   Thumb Code     0  rt_memcpy_w.o(.text)
    __aeabi_memcpy8                          0x08000517   Thumb Code     0  rt_memcpy_w.o(.text)
    __rt_memcpy_w                            0x08000517   Thumb Code   100  rt_memcpy_w.o(.text)
    _memcpy_lastbytes_aligned                0x0800055f   Thumb Code     0  rt_memcpy_w.o(.text)
    __aeabi_errno_addr                       0x0800057d   Thumb Code     8  rt_errno_addr_intlibspace.o(.text)
    __errno$intlibspace                      0x0800057d   Thumb Code     0  rt_errno_addr_intlibspace.o(.text)
    __rt_errno_addr$intlibspace              0x0800057d   Thumb Code     0  rt_errno_addr_intlibspace.o(.text)
    __user_libspace                          0x08000585   Thumb Code     8  libspace.o(.text)
    __user_perproc_libspace                  0x08000585   Thumb Code     0  libspace.o(.text)
    __user_perthread_libspace                0x08000585   Thumb Code     0  libspace.o(.text)
    __user_setup_stackheap                   0x0800058d   Thumb Code    74  sys_stackheap_outer.o(.text)
    exit                                     0x080005d7   Thumb Code    12  exit.o(.text)
    __I$use$semihosting                      0x080005e3   Thumb Code     0  use_no_semi.o(.text)
    __use_no_semihosting_swi                 0x080005e3   Thumb Code     2  use_no_semi.o(.text)
    __semihosting_library_function           0x080005e5   Thumb Code     0  indicate_semi.o(.text)
    _sys_exit                                0x080005e5   Thumb Code     8  sys_exit.o(.text)
    ADC_Cmd                                  0x080005f1   Thumb Code    20  stm32f10x_adc.o(i.ADC_Cmd)
    ADC_DMACmd                               0x08000605   Thumb Code    20  stm32f10x_adc.o(i.ADC_DMACmd)
    ADC_GetCalibrationStatus                 0x08000619   Thumb Code    14  stm32f10x_adc.o(i.ADC_GetCalibrationStatus)
    ADC_GetResetCalibrationStatus            0x08000627   Thumb Code    14  stm32f10x_adc.o(i.ADC_GetResetCalibrationStatus)
    ADC_Init                                 0x08000635   Thumb Code    62  stm32f10x_adc.o(i.ADC_Init)
    ADC_RegularChannelConfig                 0x0800067d   Thumb Code   116  stm32f10x_adc.o(i.ADC_RegularChannelConfig)
    ADC_ResetCalibration                     0x080006f1   Thumb Code    10  stm32f10x_adc.o(i.ADC_ResetCalibration)
    ADC_Sample                               0x080006fd   Thumb Code   322  adc.o(i.ADC_Sample)
    ADC_SoftwareStartConvCmd                 0x0800084d   Thumb Code    20  stm32f10x_adc.o(i.ADC_SoftwareStartConvCmd)
    ADC_StartCalibration                     0x08000861   Thumb Code    10  stm32f10x_adc.o(i.ADC_StartCalibration)
    ADC_init                                 0x0800086d   Thumb Code   450  adc.o(i.ADC_init)
    AND                                      0x08000a9d   Thumb Code    42  ladder.o(i.AND)
    BEBufToUint16                            0x08000ccd   Thumb Code     6  bsp_user_lib.o(i.BEBufToUint16)
    BtoG                                     0x08000e4d   Thumb Code    32  ladder.o(i.BtoG)
    CRC16_Modbus                             0x080010a1   Thumb Code    42  bsp_user_lib.o(i.CRC16_Modbus)
    Cap_PulseInputInit                       0x08001115   Thumb Code    16  encode.o(i.Cap_PulseInputInit)
    CheckSum                                 0x08001129   Thumb Code    36  plc_com.o(i.CheckSum)
    ComToUart                                0x08001151   Thumb Code    20  bsp_uart_fifo.o(i.ComToUart)
    DAC_Cmd                                  0x08001169   Thumb Code    20  stm32f10x_dac.o(i.DAC_Cmd)
    DAC_Init                                 0x08001181   Thumb Code    36  stm32f10x_dac.o(i.DAC_Init)
    DAC_SetChannel1Data                      0x080011a9   Thumb Code    14  stm32f10x_dac.o(i.DAC_SetChannel1Data)
    DAC_SetChannel2Data                      0x080011bd   Thumb Code    14  stm32f10x_dac.o(i.DAC_SetChannel2Data)
    DAC_SoftwareTriggerCmd                   0x080011d1   Thumb Code    24  stm32f10x_dac.o(i.DAC_SoftwareTriggerCmd)
    DAC_data                                 0x080011ed   Thumb Code    44  dac.o(i.DAC_data)
    DAC_out_init                             0x0800121d   Thumb Code   134  dac.o(i.DAC_out_init)
    DMA1_Channel1_IRQHandler                 0x080017c9   Thumb Code    68  adc.o(i.DMA1_Channel1_IRQHandler)
    DMA1_Channel4_IRQHandler                 0x08001815   Thumb Code    28  plc_com.o(i.DMA1_Channel4_IRQHandler)
    DMA_ClearITPendingBit                    0x08001839   Thumb Code    16  stm32f10x_dma.o(i.DMA_ClearITPendingBit)
    DMA_Cmd                                  0x08001851   Thumb Code    22  stm32f10x_dma.o(i.DMA_Cmd)
    DMA_DeInit                               0x08001869   Thumb Code   218  stm32f10x_dma.o(i.DMA_DeInit)
    DMA_ITConfig                             0x0800194d   Thumb Code    16  stm32f10x_dma.o(i.DMA_ITConfig)
    DMA_Init                                 0x0800195d   Thumb Code    58  stm32f10x_dma.o(i.DMA_Init)
    DPLSY                                    0x080019ed   Thumb Code   248  ladder.o(i.DPLSY)
    DZ0_Z3                                   0x08001af9   Thumb Code    76  ladder.o(i.DZ0_Z3)
    DZ4_Z7                                   0x08001b51   Thumb Code    74  ladder.o(i.DZ4_Z7)
    D_C_T_addr                               0x08001c81   Thumb Code   102  ladder.o(i.D_C_T_addr)
    ENC_Get_AB0_Electrical_Angle             0x08002369   Thumb Code    40  encode.o(i.ENC_Get_AB0_Electrical_Angle)
    ENC_Get_AB1_Electrical_Angle             0x08002399   Thumb Code    42  encode.o(i.ENC_Get_AB1_Electrical_Angle)
    EPC_FORCE_OFF                            0x080023c9   Thumb Code    48  plc_com.o(i.EPC_FORCE_OFF)
    EPC_FORCE_ON                             0x08002409   Thumb Code    94  plc_com.o(i.EPC_FORCE_ON)
    EXTI9_5_IRQHandler                       0x08002479   Thumb Code    28  plc_io.o(i.EXTI9_5_IRQHandler)
    EXTI_ClearITPendingBit                   0x0800249d   Thumb Code     6  stm32f10x_exti.o(i.EXTI_ClearITPendingBit)
    EXTI_Init                                0x080024a9   Thumb Code   108  stm32f10x_exti.o(i.EXTI_Init)
    Encode_Pro_Callback                      0x080025e5   Thumb Code    62  encode.o(i.Encode_Pro_Callback)
    Encoder_A0_Configuration                 0x08002629   Thumb Code   176  encode.o(i.Encoder_A0_Configuration)
    Encoder_A0_Restore                       0x080026e5   Thumb Code    70  encode.o(i.Encoder_A0_Restore)
    Encoder_A1_Configuration                 0x0800273d   Thumb Code   184  encode.o(i.Encoder_A1_Configuration)
    Encoder_A1_Restore                       0x080027f9   Thumb Code    64  encode.o(i.Encoder_A1_Restore)
    Encoder_AB0_Configration                 0x08002841   Thumb Code   152  encode.o(i.Encoder_AB0_Configration)
    Encoder_AB0_Restore                      0x080028e9   Thumb Code    66  encode.o(i.Encoder_AB0_Restore)
    Encoder_AB1_Configration                 0x08002941   Thumb Code   148  encode.o(i.Encoder_AB1_Configration)
    Encoder_AB1_Restore                      0x080029dd   Thumb Code    62  encode.o(i.Encoder_AB1_Restore)
    ErasurePLC                               0x08002a29   Thumb Code   154  plc_com.o(i.ErasurePLC)
    FLASH_ClearFlag                          0x08002add   Thumb Code     6  stm32f10x_flash.o(i.FLASH_ClearFlag)
    FLASH_EraseOptionBytes                   0x08002ae9   Thumb Code   108  stm32f10x_flash.o(i.FLASH_EraseOptionBytes)
    FLASH_ErasePage                          0x08002b65   Thumb Code    56  stm32f10x_flash.o(i.FLASH_ErasePage)
    FLASH_GetBank1Status                     0x08002ba1   Thumb Code    34  stm32f10x_flash.o(i.FLASH_GetBank1Status)
    FLASH_GetReadOutProtectionStatus         0x08002bc9   Thumb Code    14  stm32f10x_flash.o(i.FLASH_GetReadOutProtectionStatus)
    FLASH_GetWriteProtectionOptionByte       0x08002bdd   Thumb Code     6  stm32f10x_flash.o(i.FLASH_GetWriteProtectionOptionByte)
    FLASH_Lock                               0x08002be9   Thumb Code    12  stm32f10x_flash.o(i.FLASH_Lock)
    FLASH_ProgramHalfWord                    0x08002bf9   Thumb Code    48  stm32f10x_flash.o(i.FLASH_ProgramHalfWord)
    FLASH_ProgramWord                        0x08002c2d   Thumb Code    76  stm32f10x_flash.o(i.FLASH_ProgramWord)
    FLASH_Unlock                             0x08002c7d   Thumb Code    12  stm32f10x_flash.o(i.FLASH_Unlock)
    FLASH_WaitForLastOperation               0x08002c95   Thumb Code    34  stm32f10x_flash.o(i.FLASH_WaitForLastOperation)
    Flash_EraseProgramPage                   0x08003bed   Thumb Code   114  plc_other.o(i.Flash_EraseProgramPage)
    Flash_ReadKeepData                       0x08003c69   Thumb Code    98  plc_other.o(i.Flash_ReadKeepData)
    Flash_WriteKeepData                      0x08003cdd   Thumb Code    76  plc_other.o(i.Flash_WriteKeepData)
    Flash_WriteKeepData_Backup               0x08003d31   Thumb Code    76  plc_other.o(i.Flash_WriteKeepData_Backup)
    Func_MC                                  0x08003d85   Thumb Code    48  ladder.o(i.Func_MC)
    Func_MCR                                 0x08003db9   Thumb Code    38  ladder.o(i.Func_MCR)
    GPIO_EXTILineConfig                      0x08003de5   Thumb Code    34  stm32f10x_gpio.o(i.GPIO_EXTILineConfig)
    GPIO_Init                                0x08003e0d   Thumb Code   152  stm32f10x_gpio.o(i.GPIO_Init)
    GPIO_PinRemapConfig                      0x08003ea5   Thumb Code    82  stm32f10x_gpio.o(i.GPIO_PinRemapConfig)
    GPIO_ResetBits                           0x08003efd   Thumb Code     4  stm32f10x_gpio.o(i.GPIO_ResetBits)
    GetBitOffset                             0x08003f01   Thumb Code   146  modbus_slave.o(i.GetBitOffset)
    Get_A0_Count                             0x08003f95   Thumb Code    20  encode.o(i.Get_A0_Count)
    Get_A1_Count                             0x08003fb5   Thumb Code    22  encode.o(i.Get_A1_Count)
    Get_AB0_Count                            0x08003fd5   Thumb Code    36  encode.o(i.Get_AB0_Count)
    Get_AB1_Count                            0x08004009   Thumb Code    36  encode.o(i.Get_AB1_Count)
    GtoB                                     0x0800403d   Thumb Code    32  ladder.o(i.GtoB)
    IWDG_Enable                              0x0800405d   Thumb Code    10  stm32f10x_iwdg.o(i.IWDG_Enable)
    IWDG_ReloadCounter                       0x0800406d   Thumb Code    10  stm32f10x_iwdg.o(i.IWDG_ReloadCounter)
    IWDG_SetPrescaler                        0x0800407d   Thumb Code     6  stm32f10x_iwdg.o(i.IWDG_SetPrescaler)
    IWDG_SetReload                           0x08004089   Thumb Code     6  stm32f10x_iwdg.o(i.IWDG_SetReload)
    IWDG_WriteAccessCmd                      0x08004095   Thumb Code     6  stm32f10x_iwdg.o(i.IWDG_WriteAccessCmd)
    IsDataInvalid                            0x08004139   Thumb Code    48  plc_other.o(i.IsDataInvalid)
    MEAN                                     0x080045a1   Thumb Code   184  ladder.o(i.MEAN)
    MODH_Poll                                0x080046cd   Thumb Code   112  modbus_host.o(i.MODH_Poll)
    MODH_ReciveNew                           0x080048f9   Thumb Code    60  modbus_host.o(i.MODH_ReciveNew)
    MODH_RxTimeOut                           0x08004941   Thumb Code    20  modbus_host.o(i.MODH_RxTimeOut)
    MODH_SendPacket                          0x080049b5   Thumb Code    10  modbus_host.o(i.MODH_SendPacket)
    MODH_Send_01To04H                        0x080049c5   Thumb Code   108  modbus_host.o(i.MODH_Send_01To04H)
    MODH_Send_05H                            0x08004a35   Thumb Code   116  modbus_host.o(i.MODH_Send_05H)
    MODH_Send_06H                            0x08004ab1   Thumb Code   116  modbus_host.o(i.MODH_Send_06H)
    MODH_Send_0FH                            0x08004b2d   Thumb Code   260  modbus_host.o(i.MODH_Send_0FH)
    MODH_Send_10H                            0x08004c41   Thumb Code   192  modbus_host.o(i.MODH_Send_10H)
    MODS_ReciveNew                           0x08004d09   Thumb Code    62  modbus_slave.o(i.MODS_ReciveNew)
    ModHostMode_SendDeal                     0x08004f6d   Thumb Code   198  modbus_host.o(i.ModHostMode_SendDeal)
    NVIC_Confinguration                      0x0800503d   Thumb Code   260  nvic_interrupt.o(i.NVIC_Confinguration)
    NVIC_Init                                0x08005141   Thumb Code    90  misc.o(i.NVIC_Init)
    NVIC_PriorityGroupConfig                 0x080051a5   Thumb Code    10  misc.o(i.NVIC_PriorityGroupConfig)
    NVIC_SetVectorTable                      0x080051b9   Thumb Code    12  misc.o(i.NVIC_SetVectorTable)
    OUT                                      0x080053a9   Thumb Code   148  ladder.o(i.OUT)
    PC_FORCE_OFF                             0x0800544d   Thumb Code    64  plc_com.o(i.PC_FORCE_OFF)
    PC_FORCE_ON                              0x0800549d   Thumb Code    64  plc_com.o(i.PC_FORCE_ON)
    PC_OPTION_PROG                           0x080054ed   Thumb Code   222  plc_com.o(i.PC_OPTION_PROG)
    PC_READ_PORG                             0x080055dd   Thumb Code   130  plc_com.o(i.PC_READ_PORG)
    PC_READ_Parameter                        0x08005671   Thumb Code   368  plc_com.o(i.PC_READ_Parameter)
    PC_READ_byte                             0x080057f9   Thumb Code    42  plc_com.o(i.PC_READ_byte)
    PC_WRITE_PORG                            0x0800582d   Thumb Code   138  plc_com.o(i.PC_WRITE_PORG)
    PC_WRITE_Parameter                       0x080058cd   Thumb Code    58  plc_com.o(i.PC_WRITE_Parameter)
    PC_WRITE_byte                            0x08005915   Thumb Code    62  plc_com.o(i.PC_WRITE_byte)
    PLC_1BIT_State                           0x08005a41   Thumb Code   100  plc_com.o(i.PLC_1BIT_State)
    PLC_Com_BIT                              0x08005ab9   Thumb Code   164  plc_com.o(i.PLC_Com_BIT)
    PLC_Comm_Byte                            0x08005b5d   Thumb Code   164  plc_com.o(i.PLC_Comm_Byte)
    PLC_Download                             0x08005c01   Thumb Code    32  plc_com.o(i.PLC_Download)
    PLC_E_Expand                             0x08005c29   Thumb Code    48  plc_com.o(i.PLC_E_Expand)
    PLC_IO_Refresh                           0x08005c65   Thumb Code   218  plc_io.o(i.PLC_IO_Refresh)
    PLC_IO_config                            0x08005d5d   Thumb Code    42  plc_io.o(i.PLC_IO_config)
    PLC_Mode_config                          0x08005e35   Thumb Code   134  plc_io.o(i.PLC_Mode_config)
    PLC_PROG_ERROR                           0x08005ef1   Thumb Code    42  ladder.o(i.PLC_PROG_ERROR)
    PLC_ReadKeepData                         0x08005f29   Thumb Code   120  plc_other.o(i.PLC_ReadKeepData)
    PLC_StopDefaultInit                      0x08005fa9   Thumb Code    60  ladder.o(i.PLC_StopDefaultInit)
    PulseOutputInit                          0x08005ff5   Thumb Code     8  pwm_output.o(i.PulseOutputInit)
    plc_programCodeBuf                       0x08006000   Data       34000  plc_com.o(.ARM.__AT_0x08006000)
    PLC_ProInstructParse                     0x0800e4d1   Thumb Code   762  ladder.o(i.PLC_ProInstructParse)
    PLC_SaveKeepData                         0x0800e7ed   Thumb Code   120  plc_other.o(i.PLC_SaveKeepData)
    PLC_Upload                               0x0800e86d   Thumb Code   108  plc_com.o(i.PLC_Upload)
    PLC_X_config                             0x0800e8e9   Thumb Code   100  plc_io.o(i.PLC_X_config)
    PLC_Y_config                             0x0800e95d   Thumb Code   122  plc_io.o(i.PLC_Y_config)
    PLSR_Plc_Pro                             0x0800e9ed   Thumb Code   182  pwm_output.o(i.PLSR_Plc_Pro)
    PLSY                                     0x0800eab5   Thumb Code   244  ladder.o(i.PLSY)
    PLSY_Plc_Pro                             0x0800ebb9   Thumb Code   182  pwm_output.o(i.PLSY_Plc_Pro)
    PWM_Plc_Pro                              0x0800ed35   Thumb Code   128  pwm_output.o(i.PWM_Plc_Pro)
    PWM_Y0_Restore_Config                    0x0800edb9   Thumb Code    58  pwm_output.o(i.PWM_Y0_Restore_Config)
    PWM_Y0_Set_Config                        0x0800edfd   Thumb Code    40  pwm_output.o(i.PWM_Y0_Set_Config)
    PWM_Y1_Restore_Config                    0x0800ee29   Thumb Code    58  pwm_output.o(i.PWM_Y1_Restore_Config)
    PWM_Y1_Set_Config                        0x0800ee6d   Thumb Code    40  pwm_output.o(i.PWM_Y1_Set_Config)
    Process_switch                           0x0800ee99   Thumb Code   144  plc_com.o(i.Process_switch)
    RCC_AHBPeriphClockCmd                    0x0800ef35   Thumb Code    18  stm32f10x_rcc.o(i.RCC_AHBPeriphClockCmd)
    RCC_APB1PeriphClockCmd                   0x0800ef4d   Thumb Code    18  stm32f10x_rcc.o(i.RCC_APB1PeriphClockCmd)
    RCC_APB1PeriphResetCmd                   0x0800ef65   Thumb Code    18  stm32f10x_rcc.o(i.RCC_APB1PeriphResetCmd)
    RCC_APB2PeriphClockCmd                   0x0800ef7d   Thumb Code    18  stm32f10x_rcc.o(i.RCC_APB2PeriphClockCmd)
    RCC_APB2PeriphResetCmd                   0x0800ef95   Thumb Code    18  stm32f10x_rcc.o(i.RCC_APB2PeriphResetCmd)
    RCC_GetClocksFreq                        0x0800efad   Thumb Code   132  stm32f10x_rcc.o(i.RCC_GetClocksFreq)
    RCC_GetFlagStatus                        0x0800f041   Thumb Code    42  stm32f10x_rcc.o(i.RCC_GetFlagStatus)
    RCC_LSICmd                               0x0800f071   Thumb Code     6  stm32f10x_rcc.o(i.RCC_LSICmd)
    READ_plc_programCodeBuf                  0x0800f07d   Thumb Code    42  plc_com.o(i.READ_plc_programCodeBuf)
    RS485_ReciveNew                          0x0800f341   Thumb Code    52  bsp_uart_fifo.o(i.RS485_ReciveNew)
    RS485_SendBefor                          0x0800f379   Thumb Code    22  bsp_uart_fifo.o(i.RS485_SendBefor)
    RS485_SendBuf                            0x0800f395   Thumb Code     4  bsp_uart_fifo.o(i.RS485_SendBuf)
    RS485_SendOver                           0x0800f399   Thumb Code    22  bsp_uart_fifo.o(i.RS485_SendOver)
    RST_T_D_C_M_data                         0x0800f445   Thumb Code   120  plc_other.o(i.RST_T_D_C_M_data)
    RST_Y                                    0x0800f4c1   Thumb Code    10  ladder.o(i.RST_Y)
    RX_Process                               0x0800f4d1   Thumb Code   382  plc_com.o(i.RX_Process)
    STL                                      0x0800f819   Thumb Code    48  ladder.o(i.STL)
    SysTick_Handler                          0x08010195   Thumb Code     4  bsp_timer.o(i.SysTick_Handler)
    SysTick_ISR                              0x08010199   Thumb Code   546  bsp_timer.o(i.SysTick_ISR)
    SystemInit                               0x080103ed   Thumb Code    64  system_stm32f10x.o(i.SystemInit)
    TIM1_NVIC_Configuration                  0x08010691   Thumb Code    34  pwm_output.o(i.TIM1_NVIC_Configuration)
    TIM1_UP_IRQHandler                       0x080106b5   Thumb Code   604  pwm_output.o(i.TIM1_UP_IRQHandler)
    TIM2_IRQHandler                          0x08010931   Thumb Code    44  encode.o(i.TIM2_IRQHandler)
    TIM3_IRQHandler                          0x08010961   Thumb Code    44  encode.o(i.TIM3_IRQHandler)
    TIM5_IRQHandler                          0x08010995   Thumb Code   150  bsp_timer.o(i.TIM5_IRQHandler)
    TIM8_NVIC_Configuration                  0x08010a35   Thumb Code    34  pwm_output.o(i.TIM8_NVIC_Configuration)
    TIM8_UP_IRQHandler                       0x08010a59   Thumb Code   614  pwm_output.o(i.TIM8_UP_IRQHandler)
    TIM_ARRPreloadConfig                     0x08010ce1   Thumb Code    20  stm32f10x_tim.o(i.TIM_ARRPreloadConfig)
    TIM_BDTRConfig                           0x08010cf5   Thumb Code    34  stm32f10x_tim.o(i.TIM_BDTRConfig)
    TIM_ClearFlag                            0x08010d17   Thumb Code     6  stm32f10x_tim.o(i.TIM_ClearFlag)
    TIM_ClearITPendingBit                    0x08010d1d   Thumb Code     6  stm32f10x_tim.o(i.TIM_ClearITPendingBit)
    TIM_Cmd                                  0x08010d23   Thumb Code    20  stm32f10x_tim.o(i.TIM_Cmd)
    TIM_CtrlPWMOutputs                       0x08010d37   Thumb Code    22  stm32f10x_tim.o(i.TIM_CtrlPWMOutputs)
    TIM_DeInit                               0x08010d4d   Thumb Code   304  stm32f10x_tim.o(i.TIM_DeInit)
    TIM_EncoderInterfaceConfig               0x08010ebd   Thumb Code    50  stm32f10x_tim.o(i.TIM_EncoderInterfaceConfig)
    TIM_GetCounter                           0x08010eef   Thumb Code     4  stm32f10x_tim.o(i.TIM_GetCounter)
    TIM_GetITStatus                          0x08010ef3   Thumb Code    24  stm32f10x_tim.o(i.TIM_GetITStatus)
    TIM_ICInit                               0x08010f0d   Thumb Code   278  stm32f10x_tim.o(i.TIM_ICInit)
    TIM_ICStructInit                         0x08011039   Thumb Code    16  stm32f10x_tim.o(i.TIM_ICStructInit)
    TIM_ITConfig                             0x08011049   Thumb Code    16  stm32f10x_tim.o(i.TIM_ITConfig)
    TIM_OC1PreloadConfig                     0x08011059   Thumb Code    12  stm32f10x_tim.o(i.TIM_OC1PreloadConfig)
    TIM_OC4Init                              0x08011065   Thumb Code    90  stm32f10x_tim.o(i.TIM_OC4Init)
    TIM_OC4PreloadConfig                     0x080110c9   Thumb Code    20  stm32f10x_tim.o(i.TIM_OC4PreloadConfig)
    TIM_SelectInputTrigger                   0x080110dd   Thumb Code    12  stm32f10x_tim.o(i.TIM_SelectInputTrigger)
    TIM_SetCompare1                          0x080110e9   Thumb Code     4  stm32f10x_tim.o(i.TIM_SetCompare1)
    TIM_SetCompare2                          0x080110ed   Thumb Code     4  stm32f10x_tim.o(i.TIM_SetCompare2)
    TIM_SetCompare3                          0x080110f1   Thumb Code     4  stm32f10x_tim.o(i.TIM_SetCompare3)
    TIM_SetCompare4                          0x080110f5   Thumb Code     6  stm32f10x_tim.o(i.TIM_SetCompare4)
    TIM_SetCounter                           0x080110fb   Thumb Code     4  stm32f10x_tim.o(i.TIM_SetCounter)
    TIM_SetIC1Prescaler                      0x080110ff   Thumb Code    16  stm32f10x_tim.o(i.TIM_SetIC1Prescaler)
    TIM_SetIC2Prescaler                      0x0801110f   Thumb Code    24  stm32f10x_tim.o(i.TIM_SetIC2Prescaler)
    TIM_SetIC3Prescaler                      0x08011127   Thumb Code    16  stm32f10x_tim.o(i.TIM_SetIC3Prescaler)
    TIM_SetIC4Prescaler                      0x08011137   Thumb Code    24  stm32f10x_tim.o(i.TIM_SetIC4Prescaler)
    TIM_TIxExternalClockConfig               0x0801114f   Thumb Code    46  stm32f10x_tim.o(i.TIM_TIxExternalClockConfig)
    TIM_TimeBaseInit                         0x0801117d   Thumb Code   114  stm32f10x_tim.o(i.TIM_TimeBaseInit)
    TX_Process                               0x080112cd   Thumb Code    30  plc_com.o(i.TX_Process)
    T_100MS                                  0x08011435   Thumb Code    96  plc_timer.o(i.T_100MS)
    T_10MS                                   0x080114a5   Thumb Code    96  plc_timer.o(i.T_10MS)
    T_1MS                                    0x08011515   Thumb Code    96  plc_timer.o(i.T_1MS)
    T_H100MS                                 0x08011585   Thumb Code    96  plc_timer.o(i.T_H100MS)
    USART1_Configuration                     0x0801166d   Thumb Code   178  plc_com.o(i.USART1_Configuration)
    USART1_IRQHandler                        0x08011731   Thumb Code   122  plc_com.o(i.USART1_IRQHandler)
    USART3_IRQHandler                        0x080117b1   Thumb Code     6  bsp_uart_fifo.o(i.USART3_IRQHandler)
    USART_ClearFlag                          0x080117bd   Thumb Code     6  stm32f10x_usart.o(i.USART_ClearFlag)
    USART_ClearITPendingBit                  0x080117c3   Thumb Code    12  stm32f10x_usart.o(i.USART_ClearITPendingBit)
    USART_Cmd                                0x080117cf   Thumb Code    20  stm32f10x_usart.o(i.USART_Cmd)
    USART_DMACmd                             0x080117e3   Thumb Code    16  stm32f10x_usart.o(i.USART_DMACmd)
    USART_GetFlagStatus                      0x080117f3   Thumb Code    14  stm32f10x_usart.o(i.USART_GetFlagStatus)
    USART_GetITStatus                        0x08011801   Thumb Code    62  stm32f10x_usart.o(i.USART_GetITStatus)
    USART_ITConfig                           0x0801183f   Thumb Code    48  stm32f10x_usart.o(i.USART_ITConfig)
    USART_Init                               0x08011871   Thumb Code   176  stm32f10x_usart.o(i.USART_Init)
    USART_ReceiveData                        0x08011925   Thumb Code     8  stm32f10x_usart.o(i.USART_ReceiveData)
    USART_SendData                           0x0801192d   Thumb Code     8  stm32f10x_usart.o(i.USART_SendData)
    V0_V3                                    0x08011a9d   Thumb Code    54  ladder.o(i.V0_V3)
    V4_V7                                    0x08011ad9   Thumb Code    54  ladder.o(i.V4_V7)
    X_Io_Restore                             0x08011b15   Thumb Code    96  encode.o(i.X_Io_Restore)
    X_filter                                 0x08011b81   Thumb Code  1158  plc_io.o(i.X_filter)
    Y0_Tim_Mode_Config                       0x0801200d   Thumb Code   212  pwm_output.o(i.Y0_Tim_Mode_Config)
    Y0_Tim_Mode_Config_DIASBLE               0x080120e5   Thumb Code    42  pwm_output.o(i.Y0_Tim_Mode_Config_DIASBLE)
    Y1_Tim_Mode_Config                       0x08012115   Thumb Code   212  pwm_output.o(i.Y1_Tim_Mode_Config)
    Y1_Tim_Mode_Config_DIASBLE               0x080121ed   Thumb Code    42  pwm_output.o(i.Y1_Tim_Mode_Config_DIASBLE)
    Z0_Z3                                    0x0801221d   Thumb Code    54  ladder.o(i.Z0_Z3)
    Z4_Z7                                    0x08012259   Thumb Code    52  ladder.o(i.Z4_Z7)
    _IWDG_Init                               0x080123d5   Thumb Code    66  main.o(i._IWDG_Init)
    __ARM_fpclassify                         0x0801241d   Thumb Code    40  fpclassify.o(i.__ARM_fpclassify)
    __ieee754_rem_pio2                       0x08012445   Thumb Code   832  rred.o(i.__ieee754_rem_pio2)
    __kernel_cos                             0x080127cd   Thumb Code   230  cos_i.o(i.__kernel_cos)
    __kernel_poly                            0x080128c9   Thumb Code   170  poly.o(i.__kernel_poly)
    __kernel_sin                             0x08012975   Thumb Code   224  sin_i.o(i.__kernel_sin)
    __kernel_tan                             0x08012a61   Thumb Code   582  tan_i.o(i.__kernel_tan)
    __mathlib_dbl_underflow                  0x08012cd9   Thumb Code    10  dunder.o(i.__mathlib_dbl_underflow)
    all_flash_lock                           0x08012e51   Thumb Code    36  plc_com.o(i.all_flash_lock)
    all_flash_unlock                         0x08012e7d   Thumb Code    24  plc_com.o(i.all_flash_unlock)
    b2g                                      0x08012f21   Thumb Code    54  ladder.o(i.b2g)
    backup_block                             0x08012f59   Thumb Code    38  plc_com.o(i.backup_block)
    bsp_Idle                                 0x08013091   Thumb Code     6  bsp.o(i.bsp_Idle)
    bsp_Init                                 0x08013097   Thumb Code    22  bsp.o(i.bsp_Init)
    bsp_InitHardTimer                        0x080130ad   Thumb Code    92  bsp_timer.o(i.bsp_InitHardTimer)
    bsp_InitTimer                            0x08013115   Thumb Code    82  bsp_timer.o(i.bsp_InitTimer)
    bsp_InitUart                             0x08013175   Thumb Code    34  bsp_uart_fifo.o(i.bsp_InitUart)
    bsp_StartHardTimer                       0x08013199   Thumb Code   152  bsp_timer.o(i.bsp_StartHardTimer)
    comSendBuf                               0x08013239   Thumb Code   126  bsp_uart_fifo.o(i.comSendBuf)
    convert4to20ma                           0x080132b9   Thumb Code    44  adc.o(i.convert4to20ma)
    cos                                      0x080132ed   Thumb Code   164  cos.o(i.cos)
    data_init                                0x08013ea5   Thumb Code    68  plc_com.o(i.data_init)
    expand_AND                               0x0801447d   Thumb Code    24  ladder.o(i.expand_AND)
    expand_ANI                               0x08014499   Thumb Code    24  ladder.o(i.expand_ANI)
    expand_LD                                0x080144b5   Thumb Code    24  ladder.o(i.expand_LD)
    expand_LDI                               0x080144d1   Thumb Code    24  ladder.o(i.expand_LDI)
    expand_OR                                0x080144ed   Thumb Code    24  ladder.o(i.expand_OR)
    expand_ORI                               0x08014509   Thumb Code    24  ladder.o(i.expand_ORI)
    expand_OUT                               0x08014525   Thumb Code    24  ladder.o(i.expand_OUT)
    expand_RST                               0x08014541   Thumb Code    24  ladder.o(i.expand_RST)
    expand_SET                               0x0801455d   Thumb Code    24  ladder.o(i.expand_SET)
    find_end                                 0x08014635   Thumb Code    18  plc_com.o(i.find_end)
    find_p                                   0x08014651   Thumb Code    48  ladder.o(i.find_p)
    find_toend                               0x0801468d   Thumb Code    34  ladder.o(i.find_toend)
    g2b                                      0x08014795   Thumb Code    60  ladder.o(i.g2b)
    main                                     0x080148e1   Thumb Code    96  main.o(i.main)
    read_other_data                          0x08014a3d   Thumb Code   132  plc_com.o(i.read_other_data)
    read_plc_tyte                            0x08014ad1   Thumb Code   112  plc_com.o(i.read_plc_tyte)
    setup_HL                                 0x08014b51   Thumb Code    16  plc_com.o(i.setup_HL)
    setup_LH                                 0x08014b69   Thumb Code    16  plc_com.o(i.setup_LH)
    sin                                      0x08014b81   Thumb Code   166  sin.o(i.sin)
    sqrt                                     0x08014c31   Thumb Code    76  sqrt.o(i.sqrt)
    switch_read_data                         0x08014c7d   Thumb Code    50  plc_com.o(i.switch_read_data)
    tan                                      0x08014cbd   Thumb Code   106  tan.o(i.tan)
    timer_disble                             0x08014fe9   Thumb Code   106  plc_timer.o(i.timer_disble)
    timer_enable                             0x08015065   Thumb Code   116  plc_timer.o(i.timer_enable)
    usart                                    0x080150ed   Thumb Code    42  plc_com.o(i.usart)
    write_block                              0x0801511d   Thumb Code    82  plc_com.o(i.write_block)
    xMBUtilGetBits                           0x08015179   Thumb Code    30  modbus_slave.o(i.xMBUtilGetBits)
    xMBUtilSetBits                           0x08015197   Thumb Code    40  modbus_slave.o(i.xMBUtilSetBits)
    __aeabi_d2f                              0x080151c1   Thumb Code     0  d2f.o(x$fpl$d2f)
    _d2f                                     0x080151c1   Thumb Code    98  d2f.o(x$fpl$d2f)
    __aeabi_dadd                             0x08015225   Thumb Code     0  daddsub_clz.o(x$fpl$dadd)
    _dadd                                    0x08015225   Thumb Code   332  daddsub_clz.o(x$fpl$dadd)
    __fpl_dcheck_NaN1                        0x08015375   Thumb Code    10  dcheck1.o(x$fpl$dcheck1)
    __aeabi_ddiv                             0x08015385   Thumb Code     0  ddiv.o(x$fpl$ddiv)
    _ddiv                                    0x08015385   Thumb Code   552  ddiv.o(x$fpl$ddiv)
    __aeabi_d2iz                             0x08015635   Thumb Code     0  dfix.o(x$fpl$dfix)
    _dfix                                    0x08015635   Thumb Code    94  dfix.o(x$fpl$dfix)
    __aeabi_d2uiz                            0x08015695   Thumb Code     0  dfixu.o(x$fpl$dfixu)
    _dfixu                                   0x08015695   Thumb Code    90  dfixu.o(x$fpl$dfixu)
    __aeabi_i2d                              0x080156ef   Thumb Code     0  dflt_clz.o(x$fpl$dflt)
    _dflt                                    0x080156ef   Thumb Code    46  dflt_clz.o(x$fpl$dflt)
    __aeabi_ui2d                             0x0801571d   Thumb Code     0  dflt_clz.o(x$fpl$dfltu)
    _dfltu                                   0x0801571d   Thumb Code    38  dflt_clz.o(x$fpl$dfltu)
    __aeabi_dmul                             0x08015745   Thumb Code     0  dmul.o(x$fpl$dmul)
    _dmul                                    0x08015745   Thumb Code   332  dmul.o(x$fpl$dmul)
    __fpl_dnaninf                            0x08015899   Thumb Code   156  dnaninf.o(x$fpl$dnaninf)
    __fpl_dretinf                            0x08015935   Thumb Code    12  dretinf.o(x$fpl$dretinf)
    __aeabi_drsub                            0x08015941   Thumb Code     0  daddsub_clz.o(x$fpl$drsb)
    _drsb                                    0x08015941   Thumb Code    22  daddsub_clz.o(x$fpl$drsb)
    _dsqrt                                   0x08015959   Thumb Code   456  dsqrt_noumaal.o(x$fpl$dsqrt)
    __aeabi_dsub                             0x08015b25   Thumb Code     0  daddsub_clz.o(x$fpl$dsub)
    _dsub                                    0x08015b25   Thumb Code   464  daddsub_clz.o(x$fpl$dsub)
    __aeabi_f2d                              0x08015cf9   Thumb Code     0  f2d.o(x$fpl$f2d)
    _f2d                                     0x08015cf9   Thumb Code    86  f2d.o(x$fpl$f2d)
    __aeabi_fadd                             0x08015d51   Thumb Code     0  faddsub_clz.o(x$fpl$fadd)
    _fadd                                    0x08015d51   Thumb Code   196  faddsub_clz.o(x$fpl$fadd)
    __fpl_fcmp_Inf                           0x08015e15   Thumb Code    24  fcmpi.o(x$fpl$fcmpinf)
    __aeabi_fdiv                             0x08015e2d   Thumb Code     0  fdiv.o(x$fpl$fdiv)
    _fdiv                                    0x08015e2d   Thumb Code   384  fdiv.o(x$fpl$fdiv)
    __aeabi_cfcmpeq                          0x08015fb1   Thumb Code     0  feqf.o(x$fpl$feqf)
    _fcmpeq                                  0x08015fb1   Thumb Code   104  feqf.o(x$fpl$feqf)
    __aeabi_f2uiz                            0x08016019   Thumb Code     0  ffixu.o(x$fpl$ffixu)
    _ffixu                                   0x08016019   Thumb Code    62  ffixu.o(x$fpl$ffixu)
    __aeabi_i2f                              0x08016059   Thumb Code     0  fflt_clz.o(x$fpl$fflt)
    _fflt                                    0x08016059   Thumb Code    48  fflt_clz.o(x$fpl$fflt)
    __aeabi_cfcmple                          0x08016089   Thumb Code     0  fleqf.o(x$fpl$fleqf)
    _fcmple                                  0x08016089   Thumb Code   104  fleqf.o(x$fpl$fleqf)
    __fpl_fcmple_InfNaN                      0x080160db   Thumb Code     0  fleqf.o(x$fpl$fleqf)
    __aeabi_fmul                             0x080160f1   Thumb Code     0  fmul.o(x$fpl$fmul)
    _fmul                                    0x080160f1   Thumb Code   258  fmul.o(x$fpl$fmul)
    __fpl_fnaninf                            0x080161f3   Thumb Code   140  fnaninf.o(x$fpl$fnaninf)
    __fpl_fretinf                            0x0801627f   Thumb Code    10  fretinf.o(x$fpl$fretinf)
    __aeabi_cfrcmple                         0x08016289   Thumb Code     0  frleqf.o(x$fpl$frleqf)
    _frcmple                                 0x08016289   Thumb Code    98  frleqf.o(x$fpl$frleqf)
    __aeabi_fsub                             0x080162ed   Thumb Code     0  faddsub_clz.o(x$fpl$fsub)
    _fsub                                    0x080162ed   Thumb Code   234  faddsub_clz.o(x$fpl$fsub)
    __fpl_return_NaN                         0x080163d7   Thumb Code   100  retnan.o(x$fpl$retnan)
    __ARM_scalbn                             0x0801643b   Thumb Code    92  scalbn.o(x$fpl$scalbn)
    __fpl_cmpreturn                          0x08016497   Thumb Code    48  trapv.o(x$fpl$trapveneer)
    PLC_BIT_OR                               0x080164c6   Data           8  ladder.o(.constdata)
    __I$use$fp                               0x080164c6   Number         0  usenofp.o(x$fpl$usenofp)
    PLC_BIT_AND                              0x080164ce   Data           8  ladder.o(.constdata)
    DE                                       0x080164d6   Data          34  ladder.o(.constdata)
    SEGD_LED                                 0x080164f8   Data          16  ladder.o(.constdata)
    special_d                                0x08016508   Data         512  plc_com.o(.constdata)
    Ascll                                    0x08016708   Data          20  plc_com.o(.constdata)
    hex                                      0x0801671c   Data          77  plc_com.o(.constdata)
    s_CRCLo                                  0x08016869   Data         256  bsp_user_lib.o(.constdata)
    config                                   0x08016969   Data           4  modbus_slave.o(.constdata)
    Region$$Table$$Base                      0x08016af0   Number         0  anon$$obj.o(Region$$Table)
    Region$$Table$$Limit                     0x08016b10   Number         0  anon$$obj.o(Region$$Table)
    SystemCoreClock                          0x20000014   Data           4  system_stm32f10x.o(.data)
    AHBPrescTable                            0x20000018   Data          16  system_stm32f10x.o(.data)
    powerDownFlg                             0x20000028   Data           1  plc_io.o(.data)
    x_in                                     0x2000002a   Data           4  plc_io.o(.data)
    y_out                                    0x2000002e   Data           4  plc_io.o(.data)
    powerDownCnt                             0x20000032   Data           1  plc_io.o(.data)
    X_DIY                                    0x20000033   Data           1  plc_io.o(.data)
    Flag_bit                                 0x20000068   Data           1  ladder.o(.data)
    Transfer_bit                             0x2000006e   Data           1  ladder.o(.data)
    Transfer_bit1                            0x2000006f   Data           1  ladder.o(.data)
    edit_prog                                0x20000070   Data           1  ladder.o(.data)
    Transfer                                 0x20000076   Data           2  ladder.o(.data)
    trade                                    0x200000cc   Data           4  ladder.o(.data)
    FLOAT                                    0x200000d0   Data           4  ladder.o(.data)
    u32data                                  0x200000d4   Data           4  ladder.o(.data)
    u32data1                                 0x200000d8   Data           4  ladder.o(.data)
    MC                                       0x200000dc   Data           4  ladder.o(.data)
    bcd                                      0x200000e0   Data           8  ladder.o(.data)
    u64data                                  0x200000f0   Data           8  ladder.o(.data)
    ab0LastCount                             0x20000100   Data           2  encode.o(.data)
    ab1LastCount                             0x20000102   Data           2  encode.o(.data)
    a0Cnt                                    0x20000104   Data           4  encode.o(.data)
    a1Cnt                                    0x20000108   Data           4  encode.o(.data)
    a0Times                                  0x2000010c   Data           4  encode.o(.data)
    a1Times                                  0x20000110   Data           4  encode.o(.data)
    sampled                                  0x2000011c   Data           1  adc.o(.data)
    Write_Pro_flag                           0x2000011f   Data           1  plc_com.o(.data)
    data_size                                0x20000123   Data           1  plc_com.o(.data)
    Send_out                                 0x20000124   Data           1  plc_com.o(.data)
    rx_count                                 0x20000126   Data           2  plc_com.o(.data)
    tx_count                                 0x20000128   Data           2  plc_com.o(.data)
    prog_address                             0x2000012a   Data           2  plc_com.o(.data)
    data_address                             0x2000012c   Data           2  plc_com.o(.data)
    block_contol                             0x2000012e   Data           2  plc_com.o(.data)
    gCommLedFlashFlg                         0x20000131   Data           1  bsp_timer.o(.data)
    plc_scan_time                            0x20000136   Data           2  bsp_timer.o(.data)
    g_iRunTime                               0x2000013c   Data           4  bsp_timer.o(.data)
    process                                  0x2000057c   Data         128  ladder.o(.bss)
    FOR_CMD                                  0x200005fc   Data          60  ladder.o(.bss)
    gPulse_Pro                               0x20000838   Data         192  pwm_output.o(.bss)
    S_Cap_Pulse_Pro                          0x200008f8   Data          16  encode.o(.bss)
    S_spd                                    0x20000908   Data          64  encode.o(.bss)
    adcDmaBuf                                0x20000948   Data          28  adc.o(.bss)
    adcBuf                                   0x20000964   Data         280  adc.o(.bss)
    adcSum                                   0x20000a7c   Data          56  adc.o(.bss)
    AdcAverage                               0x20000ab4   Data          28  adc.o(.bss)
    __libspace_start                         0x20000b00   Data          96  libspace.o(.bss)
    __temporary_stack_top$libspace           0x20000b60   Data           0  libspace.o(.bss)
    plc_16BitBuf                             0x20001000   Data       33200  plc_com.o(.ARM.__AT_0x20001000)
    prog_write_buffer                        0x200091b0   Data        4100  plc_com.o(.bss)
    tx_data                                  0x2000a1b4   Data         610  plc_com.o(.bss)
    rx_data                                  0x2000a416   Data         610  plc_com.o(.bss)
    step_address                             0x2000a678   Data        2000  plc_com.o(.bss)
    g_tModH                                  0x2000b678   Data        2100  modbus_host.o(.bss)
    g_tModS                                  0x2000beac   Data        2068  modbus_slave.o(.bss)
    gModbusBuf                               0x2000c6c0   Data         200  modbus_slave.o(.bss)
    gModbusBitBuf                            0x2000c788   Data         200  modbus_slave.o(.bss)



==============================================================================

Memory Map of the image

  Image Entry point : 0x08000131

  Load Region LR_IROM1 (Base: 0x08000000, Size: 0x00016c60, Max: 0x00080000, ABSOLUTE, COMPRESSED[0x00016b3c])

    Execution Region ER_IROM1 (Exec base: 0x08000000, Load base: 0x08000000, Size: 0x00016b10, Max: 0x00080000, ABSOLUTE)

    Exec Addr    Load Addr    Size         Type   Attr      Idx    E Section Name        Object

    0x08000000   0x08000000   0x00000130   Data   RO            3    RESET               startup_stm32f10x_hd.o
    0x08000130   0x08000130   0x00000008   Code   RO         5358  * !!!main             c_w.l(__main.o)
    0x08000138   0x08000138   0x00000034   Code   RO         5829    !!!scatter          c_w.l(__scatter.o)
    0x0800016c   0x0800016c   0x0000005a   Code   RO         5827    !!dczerorl2         c_w.l(__dczerorl2.o)
    0x080001c6   0x080001c6   0x00000002   PAD
    0x080001c8   0x080001c8   0x0000001c   Code   RO         5831    !!handler_zi        c_w.l(__scatter_zi.o)
    0x080001e4   0x080001e4   0x00000002   Code   RO         5645    .ARM.Collect$$libinit$$00000000  c_w.l(libinit.o)
    0x080001e6   0x080001e6   0x00000000   Code   RO         5647    .ARM.Collect$$libinit$$00000002  c_w.l(libinit2.o)
    0x080001e6   0x080001e6   0x00000000   Code   RO         5650    .ARM.Collect$$libinit$$00000008  c_w.l(libinit2.o)
    0x080001e6   0x080001e6   0x00000000   Code   RO         5652    .ARM.Collect$$libinit$$0000000A  c_w.l(libinit2.o)
    0x080001e6   0x080001e6   0x00000000   Code   RO         5654    .ARM.Collect$$libinit$$0000000C  c_w.l(libinit2.o)
    0x080001e6   0x080001e6   0x00000000   Code   RO         5657    .ARM.Collect$$libinit$$0000000F  c_w.l(libinit2.o)
    0x080001e6   0x080001e6   0x00000000   Code   RO         5659    .ARM.Collect$$libinit$$00000011  c_w.l(libinit2.o)
    0x080001e6   0x080001e6   0x00000000   Code   RO         5661    .ARM.Collect$$libinit$$00000013  c_w.l(libinit2.o)
    0x080001e6   0x080001e6   0x00000000   Code   RO         5663    .ARM.Collect$$libinit$$00000015  c_w.l(libinit2.o)
    0x080001e6   0x080001e6   0x00000000   Code   RO         5665    .ARM.Collect$$libinit$$00000017  c_w.l(libinit2.o)
    0x080001e6   0x080001e6   0x00000000   Code   RO         5667    .ARM.Collect$$libinit$$00000019  c_w.l(libinit2.o)
    0x080001e6   0x080001e6   0x00000000   Code   RO         5669    .ARM.Collect$$libinit$$0000001B  c_w.l(libinit2.o)
    0x080001e6   0x080001e6   0x00000000   Code   RO         5671    .ARM.Collect$$libinit$$0000001D  c_w.l(libinit2.o)
    0x080001e6   0x080001e6   0x00000000   Code   RO         5673    .ARM.Collect$$libinit$$0000001F  c_w.l(libinit2.o)
    0x080001e6   0x080001e6   0x00000000   Code   RO         5675    .ARM.Collect$$libinit$$00000021  c_w.l(libinit2.o)
    0x080001e6   0x080001e6   0x00000000   Code   RO         5677    .ARM.Collect$$libinit$$00000023  c_w.l(libinit2.o)
    0x080001e6   0x080001e6   0x00000000   Code   RO         5681    .ARM.Collect$$libinit$$0000002A  c_w.l(libinit2.o)
    0x080001e6   0x080001e6   0x00000000   Code   RO         5683    .ARM.Collect$$libinit$$0000002C  c_w.l(libinit2.o)
    0x080001e6   0x080001e6   0x00000000   Code   RO         5685    .ARM.Collect$$libinit$$0000002E  c_w.l(libinit2.o)
    0x080001e6   0x080001e6   0x00000000   Code   RO         5687    .ARM.Collect$$libinit$$00000030  c_w.l(libinit2.o)
    0x080001e6   0x080001e6   0x00000002   Code   RO         5688    .ARM.Collect$$libinit$$00000031  c_w.l(libinit2.o)
    0x080001e8   0x080001e8   0x00000002   Code   RO         5808    .ARM.Collect$$libshutdown$$00000000  c_w.l(libshutdown.o)
    0x080001ea   0x080001ea   0x00000000   Code   RO         5691    .ARM.Collect$$libshutdown$$00000003  c_w.l(libshutdown2.o)
    0x080001ea   0x080001ea   0x00000000   Code   RO         5694    .ARM.Collect$$libshutdown$$00000006  c_w.l(libshutdown2.o)
    0x080001ea   0x080001ea   0x00000000   Code   RO         5697    .ARM.Collect$$libshutdown$$00000009  c_w.l(libshutdown2.o)
    0x080001ea   0x080001ea   0x00000000   Code   RO         5699    .ARM.Collect$$libshutdown$$0000000B  c_w.l(libshutdown2.o)
    0x080001ea   0x080001ea   0x00000000   Code   RO         5702    .ARM.Collect$$libshutdown$$0000000E  c_w.l(libshutdown2.o)
    0x080001ea   0x080001ea   0x00000002   Code   RO         5703    .ARM.Collect$$libshutdown$$0000000F  c_w.l(libshutdown2.o)
    0x080001ec   0x080001ec   0x00000000   Code   RO         5440    .ARM.Collect$$rtentry$$00000000  c_w.l(rtentry.o)
    0x080001ec   0x080001ec   0x00000000   Code   RO         5498    .ARM.Collect$$rtentry$$00000002  c_w.l(rtentry2.o)
    0x080001ec   0x080001ec   0x00000006   Code   RO         5510    .ARM.Collect$$rtentry$$00000004  c_w.l(rtentry4.o)
    0x080001f2   0x080001f2   0x00000000   Code   RO         5500    .ARM.Collect$$rtentry$$00000009  c_w.l(rtentry2.o)
    0x080001f2   0x080001f2   0x00000004   Code   RO         5501    .ARM.Collect$$rtentry$$0000000A  c_w.l(rtentry2.o)
    0x080001f6   0x080001f6   0x00000000   Code   RO         5503    .ARM.Collect$$rtentry$$0000000C  c_w.l(rtentry2.o)
    0x080001f6   0x080001f6   0x00000008   Code   RO         5504    .ARM.Collect$$rtentry$$0000000D  c_w.l(rtentry2.o)
    0x080001fe   0x080001fe   0x00000002   Code   RO         5709    .ARM.Collect$$rtexit$$00000000  c_w.l(rtexit.o)
    0x08000200   0x08000200   0x00000000   Code   RO         5759    .ARM.Collect$$rtexit$$00000002  c_w.l(rtexit2.o)
    0x08000200   0x08000200   0x00000004   Code   RO         5760    .ARM.Collect$$rtexit$$00000003  c_w.l(rtexit2.o)
    0x08000204   0x08000204   0x00000006   Code   RO         5761    .ARM.Collect$$rtexit$$00000004  c_w.l(rtexit2.o)
    0x0800020a   0x0800020a   0x00000002   PAD
    0x0800020c   0x0800020c   0x00000040   Code   RO            4    .text               startup_stm32f10x_hd.o
    0x0800024c   0x0800024c   0x000000ee   Code   RO         5308    .text               c_w.l(lludivv7m.o)
    0x0800033a   0x0800033a   0x00000026   Code   RO         5310    .text               c_w.l(llshl.o)
    0x08000360   0x08000360   0x00000026   Code   RO         5312    .text               c_w.l(llushr.o)
    0x08000386   0x08000386   0x00000058   Code   RO         5346    .text               c_w.l(memcmp.o)
    0x080003de   0x080003de   0x0000008a   Code   RO         5350    .text               c_w.l(rt_memcpy_v6.o)
    0x08000468   0x08000468   0x00000044   Code   RO         5352    .text               c_w.l(rt_memclr.o)
    0x080004ac   0x080004ac   0x0000004e   Code   RO         5354    .text               c_w.l(rt_memclr_w.o)
    0x080004fa   0x080004fa   0x00000006   Code   RO         5356    .text               c_w.l(heapauxi.o)
    0x08000500   0x08000500   0x00000016   Code   RO         5445    .text               c_w.l(_rserrno.o)
    0x08000516   0x08000516   0x00000064   Code   RO         5458    .text               c_w.l(rt_memcpy_w.o)
    0x0800057a   0x0800057a   0x00000002   PAD
    0x0800057c   0x0800057c   0x00000008   Code   RO         5517    .text               c_w.l(rt_errno_addr_intlibspace.o)
    0x08000584   0x08000584   0x00000008   Code   RO         5554    .text               c_w.l(libspace.o)
    0x0800058c   0x0800058c   0x0000004a   Code   RO         5559    .text               c_w.l(sys_stackheap_outer.o)
    0x080005d6   0x080005d6   0x0000000c   Code   RO         5630    .text               c_w.l(exit.o)
    0x080005e2   0x080005e2   0x00000002   Code   RO         5706    .text               c_w.l(use_no_semi.o)
    0x080005e4   0x080005e4   0x00000000   Code   RO         5708    .text               c_w.l(indicate_semi.o)
    0x080005e4   0x080005e4   0x0000000c   Code   RO         5756    .text               c_w.l(sys_exit.o)
    0x080005f0   0x080005f0   0x00000014   Code   RO          139    i.ADC_Cmd           stm32f10x_adc.o
    0x08000604   0x08000604   0x00000014   Code   RO          140    i.ADC_DMACmd        stm32f10x_adc.o
    0x08000618   0x08000618   0x0000000e   Code   RO          147    i.ADC_GetCalibrationStatus  stm32f10x_adc.o
    0x08000626   0x08000626   0x0000000e   Code   RO          153    i.ADC_GetResetCalibrationStatus  stm32f10x_adc.o
    0x08000634   0x08000634   0x00000048   Code   RO          157    i.ADC_Init          stm32f10x_adc.o
    0x0800067c   0x0800067c   0x00000074   Code   RO          161    i.ADC_RegularChannelConfig  stm32f10x_adc.o
    0x080006f0   0x080006f0   0x0000000a   Code   RO          162    i.ADC_ResetCalibration  stm32f10x_adc.o
    0x080006fa   0x080006fa   0x00000002   PAD
    0x080006fc   0x080006fc   0x00000150   Code   RO         4344    i.ADC_Sample        adc.o
    0x0800084c   0x0800084c   0x00000014   Code   RO          164    i.ADC_SoftwareStartConvCmd  stm32f10x_adc.o
    0x08000860   0x08000860   0x0000000a   Code   RO          166    i.ADC_StartCalibration  stm32f10x_adc.o
    0x0800086a   0x0800086a   0x00000002   PAD
    0x0800086c   0x0800086c   0x000001e0   Code   RO         4345    i.ADC_init          adc.o
    0x08000a4c   0x08000a4c   0x00000050   Code   RO         3399    i.ALT               ladder.o
    0x08000a9c   0x08000a9c   0x00000038   Code   RO         3400    i.AND               ladder.o
    0x08000ad4   0x08000ad4   0x000000b4   Code   RO         3401    i.ANDF              ladder.o
    0x08000b88   0x08000b88   0x000000b4   Code   RO         3402    i.ANDP              ladder.o
    0x08000c3c   0x08000c3c   0x00000038   Code   RO         3403    i.ANI               ladder.o
    0x08000c74   0x08000c74   0x00000058   Code   RO         3404    i.BCD               ladder.o
    0x08000ccc   0x08000ccc   0x00000006   Code   RO         4994    i.BEBufToUint16     bsp_user_lib.o
    0x08000cd2   0x08000cd2   0x00000002   PAD
    0x08000cd4   0x08000cd4   0x00000058   Code   RO         3405    i.BIN               ladder.o
    0x08000d2c   0x08000d2c   0x000000a0   Code   RO         3406    i.BIT_SET           ladder.o
    0x08000dcc   0x08000dcc   0x00000080   Code   RO         3407    i.BMOV              ladder.o
    0x08000e4c   0x08000e4c   0x00000020   Code   RO         3408    i.BtoG              ladder.o
    0x08000e6c   0x08000e6c   0x00000058   Code   RO         3409    i.CALL_EX           ladder.o
    0x08000ec4   0x08000ec4   0x00000028   Code   RO         3410    i.CJ_EX             ladder.o
    0x08000eec   0x08000eec   0x000000d8   Code   RO         3411    i.CMP               ladder.o
    0x08000fc4   0x08000fc4   0x000000dc   Code   RO         3412    i.CMPP              ladder.o
    0x080010a0   0x080010a0   0x00000030   Code   RO         4997    i.CRC16_Modbus      bsp_user_lib.o
    0x080010d0   0x080010d0   0x00000044   Code   RO         3413    i.C_given_value_D   ladder.o
    0x08001114   0x08001114   0x00000014   Code   RO         4196    i.Cap_PulseInputInit  encode.o
    0x08001128   0x08001128   0x00000028   Code   RO         4392    i.CheckSum          plc_com.o
    0x08001150   0x08001150   0x00000018   Code   RO         4866    i.ComToUart         bsp_uart_fifo.o
    0x08001168   0x08001168   0x00000018   Code   RO          720    i.DAC_Cmd           stm32f10x_dac.o
    0x08001180   0x08001180   0x00000028   Code   RO          725    i.DAC_Init          stm32f10x_dac.o
    0x080011a8   0x080011a8   0x00000014   Code   RO          726    i.DAC_SetChannel1Data  stm32f10x_dac.o
    0x080011bc   0x080011bc   0x00000014   Code   RO          727    i.DAC_SetChannel2Data  stm32f10x_dac.o
    0x080011d0   0x080011d0   0x0000001c   Code   RO          729    i.DAC_SoftwareTriggerCmd  stm32f10x_dac.o
    0x080011ec   0x080011ec   0x00000030   Code   RO         4326    i.DAC_data          dac.o
    0x0800121c   0x0800121c   0x0000008c   Code   RO         4327    i.DAC_out_init      dac.o
    0x080012a8   0x080012a8   0x000000c8   Code   RO         3414    i.DBCD              ladder.o
    0x08001370   0x08001370   0x00000100   Code   RO         3415    i.DBIN              ladder.o
    0x08001470   0x08001470   0x000000d4   Code   RO         3416    i.DCMP              ladder.o
    0x08001544   0x08001544   0x000000d8   Code   RO         3417    i.DCMPP             ladder.o
    0x0800161c   0x0800161c   0x0000005c   Code   RO         3418    i.DDIV              ladder.o
    0x08001678   0x08001678   0x00000058   Code   RO         3419    i.DECO              ladder.o
    0x080016d0   0x080016d0   0x00000060   Code   RO         3420    i.DFMOV             ladder.o
    0x08001730   0x08001730   0x00000098   Code   RO         3421    i.DINC_P            ladder.o
    0x080017c8   0x080017c8   0x0000004c   Code   RO         4347    i.DMA1_Channel1_IRQHandler  adc.o
    0x08001814   0x08001814   0x00000024   Code   RO         4393    i.DMA1_Channel4_IRQHandler  plc_com.o
    0x08001838   0x08001838   0x00000018   Code   RO          823    i.DMA_ClearITPendingBit  stm32f10x_dma.o
    0x08001850   0x08001850   0x00000016   Code   RO          824    i.DMA_Cmd           stm32f10x_dma.o
    0x08001866   0x08001866   0x00000002   PAD
    0x08001868   0x08001868   0x000000e4   Code   RO          825    i.DMA_DeInit        stm32f10x_dma.o
    0x0800194c   0x0800194c   0x00000010   Code   RO          829    i.DMA_ITConfig      stm32f10x_dma.o
    0x0800195c   0x0800195c   0x0000003a   Code   RO          830    i.DMA_Init          stm32f10x_dma.o
    0x08001996   0x08001996   0x00000002   PAD
    0x08001998   0x08001998   0x00000054   Code   RO         3422    i.DMUL              ladder.o
    0x080019ec   0x080019ec   0x0000010c   Code   RO         3423    i.DPLSY             ladder.o
    0x08001af8   0x08001af8   0x00000058   Code   RO         3424    i.DZ0_Z3            ladder.o
    0x08001b50   0x08001b50   0x00000054   Code   RO         3425    i.DZ4_Z7            ladder.o
    0x08001ba4   0x08001ba4   0x000000dc   Code   RO         3426    i.DZCP              ladder.o
    0x08001c80   0x08001c80   0x0000006c   Code   RO         3427    i.D_C_T_addr        ladder.o
    0x08001cec   0x08001cec   0x000001fc   Code   RO         3428    i.D_target          ladder.o
    0x08001ee8   0x08001ee8   0x00000084   Code   RO         3429    i.Damount           ladder.o
    0x08001f6c   0x08001f6c   0x00000084   Code   RO         3430    i.Dbig              ladder.o
    0x08001ff0   0x08001ff0   0x00000084   Code   RO         3431    i.Dbig_amount       ladder.o
    0x08002074   0x08002074   0x00000084   Code   RO         3432    i.Dless             ladder.o
    0x080020f8   0x080020f8   0x00000098   Code   RO         3433    i.Dless_amount      ladder.o
    0x08002190   0x08002190   0x00000084   Code   RO         3434    i.Dno_amount        ladder.o
    0x08002214   0x08002214   0x000000ec   Code   RO         3435    i.ECMP              ladder.o
    0x08002300   0x08002300   0x00000068   Code   RO         3436    i.ENCO              ladder.o
    0x08002368   0x08002368   0x00000030   Code   RO         4197    i.ENC_Get_AB0_Electrical_Angle  encode.o
    0x08002398   0x08002398   0x00000030   Code   RO         4198    i.ENC_Get_AB1_Electrical_Angle  encode.o
    0x080023c8   0x080023c8   0x00000040   Code   RO         4394    i.EPC_FORCE_OFF     plc_com.o
    0x08002408   0x08002408   0x00000070   Code   RO         4395    i.EPC_FORCE_ON      plc_com.o
    0x08002478   0x08002478   0x00000024   Code   RO         3206    i.EXTI9_5_IRQHandler  plc_io.o
    0x0800249c   0x0800249c   0x0000000c   Code   RO          895    i.EXTI_ClearITPendingBit  stm32f10x_exti.o
    0x080024a8   0x080024a8   0x00000070   Code   RO          900    i.EXTI_Init         stm32f10x_exti.o
    0x08002518   0x08002518   0x000000cc   Code   RO         3437    i.EZCP              ladder.o
    0x080025e4   0x080025e4   0x00000044   Code   RO         4199    i.Encode_Pro_Callback  encode.o
    0x08002628   0x08002628   0x000000bc   Code   RO         4200    i.Encoder_A0_Configuration  encode.o
    0x080026e4   0x080026e4   0x00000058   Code   RO         4201    i.Encoder_A0_Restore  encode.o
    0x0800273c   0x0800273c   0x000000bc   Code   RO         4202    i.Encoder_A1_Configuration  encode.o
    0x080027f8   0x080027f8   0x00000048   Code   RO         4203    i.Encoder_A1_Restore  encode.o
    0x08002840   0x08002840   0x000000a8   Code   RO         4204    i.Encoder_AB0_Configration  encode.o
    0x080028e8   0x080028e8   0x00000058   Code   RO         4205    i.Encoder_AB0_Restore  encode.o
    0x08002940   0x08002940   0x0000009c   Code   RO         4206    i.Encoder_AB1_Configration  encode.o
    0x080029dc   0x080029dc   0x0000004c   Code   RO         4207    i.Encoder_AB1_Restore  encode.o
    0x08002a28   0x08002a28   0x000000b4   Code   RO         4396    i.ErasurePLC        plc_com.o
    0x08002adc   0x08002adc   0x0000000c   Code   RO          948    i.FLASH_ClearFlag   stm32f10x_flash.o
    0x08002ae8   0x08002ae8   0x0000007c   Code   RO          952    i.FLASH_EraseOptionBytes  stm32f10x_flash.o
    0x08002b64   0x08002b64   0x0000003c   Code   RO          953    i.FLASH_ErasePage   stm32f10x_flash.o
    0x08002ba0   0x08002ba0   0x00000028   Code   RO          954    i.FLASH_GetBank1Status  stm32f10x_flash.o
    0x08002bc8   0x08002bc8   0x00000014   Code   RO          957    i.FLASH_GetReadOutProtectionStatus  stm32f10x_flash.o
    0x08002bdc   0x08002bdc   0x0000000c   Code   RO          960    i.FLASH_GetWriteProtectionOptionByte  stm32f10x_flash.o
    0x08002be8   0x08002be8   0x00000010   Code   RO          963    i.FLASH_Lock        stm32f10x_flash.o
    0x08002bf8   0x08002bf8   0x00000034   Code   RO          966    i.FLASH_ProgramHalfWord  stm32f10x_flash.o
    0x08002c2c   0x08002c2c   0x00000050   Code   RO          968    i.FLASH_ProgramWord  stm32f10x_flash.o
    0x08002c7c   0x08002c7c   0x00000018   Code   RO          971    i.FLASH_Unlock      stm32f10x_flash.o
    0x08002c94   0x08002c94   0x00000022   Code   RO          975    i.FLASH_WaitForLastOperation  stm32f10x_flash.o
    0x08002cb6   0x08002cb6   0x00000002   PAD
    0x08002cb8   0x08002cb8   0x00000068   Code   RO         3438    i.FMOV              ladder.o
    0x08002d20   0x08002d20   0x00000e7c   Code   RO         3439    i.FNC_AppInstruct   ladder.o
    0x08003b9c   0x08003b9c   0x00000050   Code   RO         3440    i.FOR               ladder.o
    0x08003bec   0x08003bec   0x0000007c   Code   RO         3334    i.Flash_EraseProgramPage  plc_other.o
    0x08003c68   0x08003c68   0x00000074   Code   RO         3335    i.Flash_ReadKeepData  plc_other.o
    0x08003cdc   0x08003cdc   0x00000054   Code   RO         3336    i.Flash_WriteKeepData  plc_other.o
    0x08003d30   0x08003d30   0x00000054   Code   RO         3337    i.Flash_WriteKeepData_Backup  plc_other.o
    0x08003d84   0x08003d84   0x00000034   Code   RO         3441    i.Func_MC           ladder.o
    0x08003db8   0x08003db8   0x0000002c   Code   RO         3442    i.Func_MCR          ladder.o
    0x08003de4   0x08003de4   0x00000028   Code   RO         1243    i.GPIO_EXTILineConfig  stm32f10x_gpio.o
    0x08003e0c   0x08003e0c   0x00000098   Code   RO         1246    i.GPIO_Init         stm32f10x_gpio.o
    0x08003ea4   0x08003ea4   0x00000058   Code   RO         1248    i.GPIO_PinRemapConfig  stm32f10x_gpio.o
    0x08003efc   0x08003efc   0x00000004   Code   RO         1253    i.GPIO_ResetBits    stm32f10x_gpio.o
    0x08003f00   0x08003f00   0x00000092   Code   RO         5188    i.GetBitOffset      modbus_slave.o
    0x08003f92   0x08003f92   0x00000002   PAD
    0x08003f94   0x08003f94   0x00000020   Code   RO         4208    i.Get_A0_Count      encode.o
    0x08003fb4   0x08003fb4   0x00000020   Code   RO         4209    i.Get_A1_Count      encode.o
    0x08003fd4   0x08003fd4   0x00000034   Code   RO         4210    i.Get_AB0_Count     encode.o
    0x08004008   0x08004008   0x00000034   Code   RO         4211    i.Get_AB1_Count     encode.o
    0x0800403c   0x0800403c   0x00000020   Code   RO         3443    i.GtoB              ladder.o
    0x0800405c   0x0800405c   0x00000010   Code   RO         1558    i.IWDG_Enable       stm32f10x_iwdg.o
    0x0800406c   0x0800406c   0x00000010   Code   RO         1560    i.IWDG_ReloadCounter  stm32f10x_iwdg.o
    0x0800407c   0x0800407c   0x0000000c   Code   RO         1561    i.IWDG_SetPrescaler  stm32f10x_iwdg.o
    0x08004088   0x08004088   0x0000000c   Code   RO         1562    i.IWDG_SetReload    stm32f10x_iwdg.o
    0x08004094   0x08004094   0x0000000c   Code   RO         1563    i.IWDG_WriteAccessCmd  stm32f10x_iwdg.o
    0x080040a0   0x080040a0   0x00000098   Code   RO         4867    i.InitHardUart      bsp_uart_fifo.o
    0x08004138   0x08004138   0x00000030   Code   RO         3338    i.IsDataInvalid     plc_other.o
    0x08004168   0x08004168   0x00000080   Code   RO         3444    i.LD                ladder.o
    0x080041e8   0x080041e8   0x000000e4   Code   RO         3445    i.LDF               ladder.o
    0x080042cc   0x080042cc   0x00000080   Code   RO         3446    i.LDI               ladder.o
    0x0800434c   0x0800434c   0x000000d4   Code   RO         3447    i.LDP               ladder.o
    0x08004420   0x08004420   0x000000cc   Code   RO         3448    i.LPF               ladder.o
    0x080044ec   0x080044ec   0x000000b4   Code   RO         3449    i.LPS               ladder.o
    0x080045a0   0x080045a0   0x000000bc   Code   RO         3450    i.MEAN              ladder.o
    0x0800465c   0x0800465c   0x00000070   Code   RO         5091    i.MODH_AnalyzeApp   modbus_host.o
    0x080046cc   0x080046cc   0x00000078   Code   RO         5092    i.MODH_Poll         modbus_host.o
    0x08004744   0x08004744   0x000000b0   Code   RO         5093    i.MODH_Read_01H     modbus_host.o
    0x080047f4   0x080047f4   0x000000b0   Code   RO         5094    i.MODH_Read_02H     modbus_host.o
    0x080048a4   0x080048a4   0x00000054   Code   RO         5095    i.MODH_Read_03H     modbus_host.o
    0x080048f8   0x080048f8   0x00000048   Code   RO         5096    i.MODH_ReciveNew    modbus_host.o
    0x08004940   0x08004940   0x00000018   Code   RO         5097    i.MODH_RxTimeOut    modbus_host.o
    0x08004958   0x08004958   0x0000005c   Code   RO         5098    i.MODH_SendAckWithCRC  modbus_host.o
    0x080049b4   0x080049b4   0x00000010   Code   RO         5099    i.MODH_SendPacket   modbus_host.o
    0x080049c4   0x080049c4   0x00000070   Code   RO         5100    i.MODH_Send_01To04H  modbus_host.o
    0x08004a34   0x08004a34   0x0000007c   Code   RO         5101    i.MODH_Send_05H     modbus_host.o
    0x08004ab0   0x08004ab0   0x0000007c   Code   RO         5102    i.MODH_Send_06H     modbus_host.o
    0x08004b2c   0x08004b2c   0x00000114   Code   RO         5103    i.MODH_Send_0FH     modbus_host.o
    0x08004c40   0x08004c40   0x000000c8   Code   RO         5104    i.MODH_Send_10H     modbus_host.o
    0x08004d08   0x08004d08   0x0000004c   Code   RO         5199    i.MODS_ReciveNew    modbus_slave.o
    0x08004d54   0x08004d54   0x0000001c   Code   RO         5200    i.MODS_RxTimeOut    modbus_slave.o
    0x08004d70   0x08004d70   0x00000038   Code   RO         3451    i.MOV_K             ladder.o
    0x08004da8   0x08004da8   0x0000010c   Code   RO         3452    i.MOV_TO_K_H        ladder.o
    0x08004eb4   0x08004eb4   0x000000b8   Code   RO         3453    i.MTR               ladder.o
    0x08004f6c   0x08004f6c   0x000000d0   Code   RO         5105    i.ModHostMode_SendDeal  modbus_host.o
    0x0800503c   0x0800503c   0x00000104   Code   RO         3266    i.NVIC_Confinguration  nvic_interrupt.o
    0x08005140   0x08005140   0x00000064   Code   RO           10    i.NVIC_Init         misc.o
    0x080051a4   0x080051a4   0x00000014   Code   RO           11    i.NVIC_PriorityGroupConfig  misc.o
    0x080051b8   0x080051b8   0x00000014   Code   RO           12    i.NVIC_SetVectorTable  misc.o
    0x080051cc   0x080051cc   0x00000038   Code   RO         3454    i.OR                ladder.o
    0x08005204   0x08005204   0x000000b4   Code   RO         3455    i.ORF               ladder.o
    0x080052b8   0x080052b8   0x0000003c   Code   RO         3456    i.ORI               ladder.o
    0x080052f4   0x080052f4   0x000000b4   Code   RO         3457    i.ORP               ladder.o
    0x080053a8   0x080053a8   0x000000a4   Code   RO         3458    i.OUT               ladder.o
    0x0800544c   0x0800544c   0x00000050   Code   RO         4397    i.PC_FORCE_OFF      plc_com.o
    0x0800549c   0x0800549c   0x00000050   Code   RO         4398    i.PC_FORCE_ON       plc_com.o
    0x080054ec   0x080054ec   0x000000f0   Code   RO         4399    i.PC_OPTION_PROG    plc_com.o
    0x080055dc   0x080055dc   0x00000094   Code   RO         4400    i.PC_READ_PORG      plc_com.o
    0x08005670   0x08005670   0x00000188   Code   RO         4401    i.PC_READ_Parameter  plc_com.o
    0x080057f8   0x080057f8   0x00000034   Code   RO         4402    i.PC_READ_byte      plc_com.o
    0x0800582c   0x0800582c   0x000000a0   Code   RO         4403    i.PC_WRITE_PORG     plc_com.o
    0x080058cc   0x080058cc   0x00000048   Code   RO         4404    i.PC_WRITE_Parameter  plc_com.o
    0x08005914   0x08005914   0x0000004c   Code   RO         4405    i.PC_WRITE_byte     plc_com.o
    0x08005960   0x08005960   0x000000e0   Code   RO         3459    i.PID               ladder.o
    0x08005a40   0x08005a40   0x00000078   Code   RO         4406    i.PLC_1BIT_State    plc_com.o
    0x08005ab8   0x08005ab8   0x000000a4   Code   RO         4407    i.PLC_Com_BIT       plc_com.o
    0x08005b5c   0x08005b5c   0x000000a4   Code   RO         4408    i.PLC_Comm_Byte     plc_com.o
    0x08005c00   0x08005c00   0x00000028   Code   RO         4409    i.PLC_Download      plc_com.o
    0x08005c28   0x08005c28   0x0000003c   Code   RO         4410    i.PLC_E_Expand      plc_com.o
    0x08005c64   0x08005c64   0x000000f8   Code   RO         3207    i.PLC_IO_Refresh    plc_io.o
    0x08005d5c   0x08005d5c   0x00000030   Code   RO         3208    i.PLC_IO_config     plc_io.o
    0x08005d8c   0x08005d8c   0x00000084   Code   RO         3460    i.PLC_LDP_TEST      ladder.o
    0x08005e10   0x08005e10   0x00000024   Code   RO         3461    i.PLC_LD_BIT        ladder.o
    0x08005e34   0x08005e34   0x00000098   Code   RO         3209    i.PLC_Mode_config   plc_io.o
    0x08005ecc   0x08005ecc   0x00000024   Code   RO         3462    i.PLC_PL_BIT_TEST   ladder.o
    0x08005ef0   0x08005ef0   0x00000038   Code   RO         3463    i.PLC_PROG_ERROR    ladder.o
    0x08005f28   0x08005f28   0x00000080   Code   RO         3340    i.PLC_ReadKeepData  plc_other.o
    0x08005fa8   0x08005fa8   0x0000004c   Code   RO         3465    i.PLC_StopDefaultInit  ladder.o
    0x08005ff4   0x08005ff4   0x0000000c   Code   RO         4086    i.PulseOutputInit   pwm_output.o
    0x08006000   0x08006000   0x000084d0   Data   RO         4433    .ARM.__AT_0x08006000  plc_com.o
    0x0800e4d0   0x0800e4d0   0x0000031c   Code   RO         3464    i.PLC_ProInstructParse  ladder.o
    0x0800e7ec   0x0800e7ec   0x00000080   Code   RO         3341    i.PLC_SaveKeepData  plc_other.o
    0x0800e86c   0x0800e86c   0x0000007c   Code   RO         4411    i.PLC_Upload        plc_com.o
    0x0800e8e8   0x0800e8e8   0x00000074   Code   RO         3210    i.PLC_X_config      plc_io.o
    0x0800e95c   0x0800e95c   0x00000090   Code   RO         3211    i.PLC_Y_config      plc_io.o
    0x0800e9ec   0x0800e9ec   0x000000c8   Code   RO         4077    i.PLSR_Plc_Pro      pwm_output.o
    0x0800eab4   0x0800eab4   0x00000104   Code   RO         3466    i.PLSY              ladder.o
    0x0800ebb8   0x0800ebb8   0x000000c8   Code   RO         4078    i.PLSY_Plc_Pro      pwm_output.o
    0x0800ec80   0x0800ec80   0x000000b4   Code   RO         3467    i.PWM               ladder.o
    0x0800ed34   0x0800ed34   0x00000084   Code   RO         4081    i.PWM_Plc_Pro       pwm_output.o
    0x0800edb8   0x0800edb8   0x00000044   Code   RO         4082    i.PWM_Y0_Restore_Config  pwm_output.o
    0x0800edfc   0x0800edfc   0x0000002c   Code   RO         4083    i.PWM_Y0_Set_Config  pwm_output.o
    0x0800ee28   0x0800ee28   0x00000044   Code   RO         4084    i.PWM_Y1_Restore_Config  pwm_output.o
    0x0800ee6c   0x0800ee6c   0x0000002c   Code   RO         4085    i.PWM_Y1_Set_Config  pwm_output.o
    0x0800ee98   0x0800ee98   0x0000009c   Code   RO         4412    i.Process_switch    plc_com.o
    0x0800ef34   0x0800ef34   0x00000018   Code   RO         1661    i.RCC_AHBPeriphClockCmd  stm32f10x_rcc.o
    0x0800ef4c   0x0800ef4c   0x00000018   Code   RO         1662    i.RCC_APB1PeriphClockCmd  stm32f10x_rcc.o
    0x0800ef64   0x0800ef64   0x00000018   Code   RO         1663    i.RCC_APB1PeriphResetCmd  stm32f10x_rcc.o
    0x0800ef7c   0x0800ef7c   0x00000018   Code   RO         1664    i.RCC_APB2PeriphClockCmd  stm32f10x_rcc.o
    0x0800ef94   0x0800ef94   0x00000018   Code   RO         1665    i.RCC_APB2PeriphResetCmd  stm32f10x_rcc.o
    0x0800efac   0x0800efac   0x00000094   Code   RO         1672    i.RCC_GetClocksFreq  stm32f10x_rcc.o
    0x0800f040   0x0800f040   0x00000030   Code   RO         1673    i.RCC_GetFlagStatus  stm32f10x_rcc.o
    0x0800f070   0x0800f070   0x0000000c   Code   RO         1681    i.RCC_LSICmd        stm32f10x_rcc.o
    0x0800f07c   0x0800f07c   0x00000038   Code   RO         4413    i.READ_plc_programCodeBuf  plc_com.o
    0x0800f0b4   0x0800f0b4   0x000000d0   Code   RO         3468    i.RESET_C           ladder.o
    0x0800f184   0x0800f184   0x0000007c   Code   RO         3469    i.RESET_T           ladder.o
    0x0800f200   0x0800f200   0x00000140   Code   RO         3470    i.RS                ladder.o
    0x0800f340   0x0800f340   0x00000038   Code   RO         4869    i.RS485_ReciveNew   bsp_uart_fifo.o
    0x0800f378   0x0800f378   0x0000001c   Code   RO         4870    i.RS485_SendBefor   bsp_uart_fifo.o
    0x0800f394   0x0800f394   0x00000004   Code   RO         4871    i.RS485_SendBuf     bsp_uart_fifo.o
    0x0800f398   0x0800f398   0x0000001c   Code   RO         4872    i.RS485_SendOver    bsp_uart_fifo.o
    0x0800f3b4   0x0800f3b4   0x0000002c   Code   RO         3471    i.RST               ladder.o
    0x0800f3e0   0x0800f3e0   0x00000064   Code   RO         3472    i.RST_D             ladder.o
    0x0800f444   0x0800f444   0x0000007c   Code   RO         3342    i.RST_T_D_C_M_data  plc_other.o
    0x0800f4c0   0x0800f4c0   0x00000010   Code   RO         3473    i.RST_Y             ladder.o
    0x0800f4d0   0x0800f4d0   0x00000194   Code   RO         4414    i.RX_Process        plc_com.o
    0x0800f664   0x0800f664   0x000000a8   Code   RO         3474    i.SMOV              ladder.o
    0x0800f70c   0x0800f70c   0x0000010c   Code   RO         3475    i.SPD               ladder.o
    0x0800f818   0x0800f818   0x0000003c   Code   RO         3476    i.STL               ladder.o
    0x0800f854   0x0800f854   0x000000a8   Code   RO         3056    i.SetSysClockTo72   system_stm32f10x.o
    0x0800f8fc   0x0800f8fc   0x00000310   Code   RO         3477    i.SpecialTarget     ladder.o
    0x0800fc0c   0x0800fc0c   0x00000588   Code   RO         3478    i.Special_cos_value  ladder.o
    0x08010194   0x08010194   0x00000004   Code   RO         4757    i.SysTick_Handler   bsp_timer.o
    0x08010198   0x08010198   0x00000254   Code   RO         4758    i.SysTick_ISR       bsp_timer.o
    0x080103ec   0x080103ec   0x00000050   Code   RO         3058    i.SystemInit        system_stm32f10x.o
    0x0801043c   0x0801043c   0x00000050   Code   RO         3479    i.TADD              ladder.o
    0x0801048c   0x0801048c   0x0000011c   Code   RO         3480    i.TCMP              ladder.o
    0x080105a8   0x080105a8   0x0000006c   Code   RO         2279    i.TI1_Config        stm32f10x_tim.o
    0x08010614   0x08010614   0x0000007c   Code   RO         2280    i.TI2_Config        stm32f10x_tim.o
    0x08010690   0x08010690   0x00000022   Code   RO         4087    i.TIM1_NVIC_Configuration  pwm_output.o
    0x080106b2   0x080106b2   0x00000002   PAD
    0x080106b4   0x080106b4   0x0000027c   Code   RO         4088    i.TIM1_UP_IRQHandler  pwm_output.o
    0x08010930   0x08010930   0x00000030   Code   RO         4213    i.TIM2_IRQHandler   encode.o
    0x08010960   0x08010960   0x00000034   Code   RO         4214    i.TIM3_IRQHandler   encode.o
    0x08010994   0x08010994   0x000000a0   Code   RO         4759    i.TIM5_IRQHandler   bsp_timer.o
    0x08010a34   0x08010a34   0x00000022   Code   RO         4089    i.TIM8_NVIC_Configuration  pwm_output.o
    0x08010a56   0x08010a56   0x00000002   PAD
    0x08010a58   0x08010a58   0x00000288   Code   RO         4090    i.TIM8_UP_IRQHandler  pwm_output.o
    0x08010ce0   0x08010ce0   0x00000014   Code   RO         2281    i.TIM_ARRPreloadConfig  stm32f10x_tim.o
    0x08010cf4   0x08010cf4   0x00000022   Code   RO         2282    i.TIM_BDTRConfig    stm32f10x_tim.o
    0x08010d16   0x08010d16   0x00000006   Code   RO         2287    i.TIM_ClearFlag     stm32f10x_tim.o
    0x08010d1c   0x08010d1c   0x00000006   Code   RO         2288    i.TIM_ClearITPendingBit  stm32f10x_tim.o
    0x08010d22   0x08010d22   0x00000014   Code   RO         2293    i.TIM_Cmd           stm32f10x_tim.o
    0x08010d36   0x08010d36   0x00000016   Code   RO         2295    i.TIM_CtrlPWMOutputs  stm32f10x_tim.o
    0x08010d4c   0x08010d4c   0x00000170   Code   RO         2298    i.TIM_DeInit        stm32f10x_tim.o
    0x08010ebc   0x08010ebc   0x00000032   Code   RO         2302    i.TIM_EncoderInterfaceConfig  stm32f10x_tim.o
    0x08010eee   0x08010eee   0x00000004   Code   RO         2312    i.TIM_GetCounter    stm32f10x_tim.o
    0x08010ef2   0x08010ef2   0x00000018   Code   RO         2314    i.TIM_GetITStatus   stm32f10x_tim.o
    0x08010f0a   0x08010f0a   0x00000002   PAD
    0x08010f0c   0x08010f0c   0x0000012c   Code   RO         2316    i.TIM_ICInit        stm32f10x_tim.o
    0x08011038   0x08011038   0x00000010   Code   RO         2317    i.TIM_ICStructInit  stm32f10x_tim.o
    0x08011048   0x08011048   0x00000010   Code   RO         2318    i.TIM_ITConfig      stm32f10x_tim.o
    0x08011058   0x08011058   0x0000000c   Code   RO         2325    i.TIM_OC1PreloadConfig  stm32f10x_tim.o
    0x08011064   0x08011064   0x00000064   Code   RO         2337    i.TIM_OC4Init       stm32f10x_tim.o
    0x080110c8   0x080110c8   0x00000014   Code   RO         2339    i.TIM_OC4PreloadConfig  stm32f10x_tim.o
    0x080110dc   0x080110dc   0x0000000c   Code   RO         2346    i.TIM_SelectInputTrigger  stm32f10x_tim.o
    0x080110e8   0x080110e8   0x00000004   Code   RO         2354    i.TIM_SetCompare1   stm32f10x_tim.o
    0x080110ec   0x080110ec   0x00000004   Code   RO         2355    i.TIM_SetCompare2   stm32f10x_tim.o
    0x080110f0   0x080110f0   0x00000004   Code   RO         2356    i.TIM_SetCompare3   stm32f10x_tim.o
    0x080110f4   0x080110f4   0x00000006   Code   RO         2357    i.TIM_SetCompare4   stm32f10x_tim.o
    0x080110fa   0x080110fa   0x00000004   Code   RO         2358    i.TIM_SetCounter    stm32f10x_tim.o
    0x080110fe   0x080110fe   0x00000010   Code   RO         2359    i.TIM_SetIC1Prescaler  stm32f10x_tim.o
    0x0801110e   0x0801110e   0x00000018   Code   RO         2360    i.TIM_SetIC2Prescaler  stm32f10x_tim.o
    0x08011126   0x08011126   0x00000010   Code   RO         2361    i.TIM_SetIC3Prescaler  stm32f10x_tim.o
    0x08011136   0x08011136   0x00000018   Code   RO         2362    i.TIM_SetIC4Prescaler  stm32f10x_tim.o
    0x0801114e   0x0801114e   0x0000002e   Code   RO         2363    i.TIM_TIxExternalClockConfig  stm32f10x_tim.o
    0x0801117c   0x0801117c   0x0000009c   Code   RO         2364    i.TIM_TimeBaseInit  stm32f10x_tim.o
    0x08011218   0x08011218   0x00000064   Code   RO         3481    i.TRD               ladder.o
    0x0801127c   0x0801127c   0x00000050   Code   RO         3482    i.TSUB              ladder.o
    0x080112cc   0x080112cc   0x00000028   Code   RO         4415    i.TX_Process        plc_com.o
    0x080112f4   0x080112f4   0x00000140   Code   RO         3483    i.TZCP              ladder.o
    0x08011434   0x08011434   0x00000070   Code   RO         3279    i.T_100MS           plc_timer.o
    0x080114a4   0x080114a4   0x00000070   Code   RO         3280    i.T_10MS            plc_timer.o
    0x08011514   0x08011514   0x00000070   Code   RO         3281    i.T_1MS             plc_timer.o
    0x08011584   0x08011584   0x00000070   Code   RO         3282    i.T_H100MS          plc_timer.o
    0x080115f4   0x080115f4   0x00000078   Code   RO         3484    i.T_given_value_D   ladder.o
    0x0801166c   0x0801166c   0x000000c4   Code   RO         4416    i.USART1_Configuration  plc_com.o
    0x08011730   0x08011730   0x00000080   Code   RO         4417    i.USART1_IRQHandler  plc_com.o
    0x080117b0   0x080117b0   0x0000000c   Code   RO         4874    i.USART3_IRQHandler  bsp_uart_fifo.o
    0x080117bc   0x080117bc   0x00000006   Code   RO         2812    i.USART_ClearFlag   stm32f10x_usart.o
    0x080117c2   0x080117c2   0x0000000c   Code   RO         2813    i.USART_ClearITPendingBit  stm32f10x_usart.o
    0x080117ce   0x080117ce   0x00000014   Code   RO         2816    i.USART_Cmd         stm32f10x_usart.o
    0x080117e2   0x080117e2   0x00000010   Code   RO         2817    i.USART_DMACmd      stm32f10x_usart.o
    0x080117f2   0x080117f2   0x0000000e   Code   RO         2819    i.USART_GetFlagStatus  stm32f10x_usart.o
    0x08011800   0x08011800   0x0000003e   Code   RO         2820    i.USART_GetITStatus  stm32f10x_usart.o
    0x0801183e   0x0801183e   0x00000030   Code   RO         2822    i.USART_ITConfig    stm32f10x_usart.o
    0x0801186e   0x0801186e   0x00000002   PAD
    0x08011870   0x08011870   0x000000b4   Code   RO         2823    i.USART_Init        stm32f10x_usart.o
    0x08011924   0x08011924   0x00000008   Code   RO         2830    i.USART_ReceiveData  stm32f10x_usart.o
    0x0801192c   0x0801192c   0x00000008   Code   RO         2833    i.USART_SendData    stm32f10x_usart.o
    0x08011934   0x08011934   0x00000114   Code   RO         4875    i.UartIRQ           bsp_uart_fifo.o
    0x08011a48   0x08011a48   0x00000054   Code   RO         4876    i.UartVarInit       bsp_uart_fifo.o
    0x08011a9c   0x08011a9c   0x0000003c   Code   RO         3485    i.V0_V3             ladder.o
    0x08011ad8   0x08011ad8   0x0000003c   Code   RO         3486    i.V4_V7             ladder.o
    0x08011b14   0x08011b14   0x0000006c   Code   RO         4215    i.X_Io_Restore      encode.o
    0x08011b80   0x08011b80   0x0000048c   Code   RO         3212    i.X_filter          plc_io.o
    0x0801200c   0x0801200c   0x000000d8   Code   RO         4091    i.Y0_Tim_Mode_Config  pwm_output.o
    0x080120e4   0x080120e4   0x00000030   Code   RO         4092    i.Y0_Tim_Mode_Config_DIASBLE  pwm_output.o
    0x08012114   0x08012114   0x000000d8   Code   RO         4093    i.Y1_Tim_Mode_Config  pwm_output.o
    0x080121ec   0x080121ec   0x00000030   Code   RO         4094    i.Y1_Tim_Mode_Config_DIASBLE  pwm_output.o
    0x0801221c   0x0801221c   0x0000003c   Code   RO         3487    i.Z0_Z3             ladder.o
    0x08012258   0x08012258   0x0000003c   Code   RO         3488    i.Z4_Z7             ladder.o
    0x08012294   0x08012294   0x000000dc   Code   RO         3489    i.ZCP               ladder.o
    0x08012370   0x08012370   0x00000064   Code   RO         3490    i.ZRST              ladder.o
    0x080123d4   0x080123d4   0x00000048   Code   RO         3085    i._IWDG_Init        main.o
    0x0801241c   0x0801241c   0x00000028   Code   RO         5545    i.__ARM_fpclassify  m_ws.l(fpclassify.o)
    0x08012444   0x08012444   0x00000388   Code   RO         5480    i.__ieee754_rem_pio2  m_ws.l(rred.o)
    0x080127cc   0x080127cc   0x000000fc   Code   RO         5477    i.__kernel_cos      m_ws.l(cos_i.o)
    0x080128c8   0x080128c8   0x000000aa   Code   RO         5547    i.__kernel_poly     m_ws.l(poly.o)
    0x08012972   0x08012972   0x00000002   PAD
    0x08012974   0x08012974   0x000000ec   Code   RO         5485    i.__kernel_sin      m_ws.l(sin_i.o)
    0x08012a60   0x08012a60   0x00000278   Code   RO         5491    i.__kernel_tan      m_ws.l(tan_i.o)
    0x08012cd8   0x08012cd8   0x00000010   Code   RO         5543    i.__mathlib_dbl_underflow  m_ws.l(dunder.o)
    0x08012ce8   0x08012ce8   0x00000040   Code   RO         3491    i.addr_value        ladder.o
    0x08012d28   0x08012d28   0x00000128   Code   RO         3492    i.addr_value_prog   ladder.o
    0x08012e50   0x08012e50   0x0000002c   Code   RO         4418    i.all_flash_lock    plc_com.o
    0x08012e7c   0x08012e7c   0x00000020   Code   RO         4419    i.all_flash_unlock  plc_com.o
    0x08012e9c   0x08012e9c   0x00000084   Code   RO         3493    i.amount            ladder.o
    0x08012f20   0x08012f20   0x00000036   Code   RO         3494    i.b2g               ladder.o
    0x08012f56   0x08012f56   0x00000002   PAD
    0x08012f58   0x08012f58   0x00000030   Code   RO         4420    i.backup_block      plc_com.o
    0x08012f88   0x08012f88   0x00000084   Code   RO         3495    i.big               ladder.o
    0x0801300c   0x0801300c   0x00000084   Code   RO         3496    i.big_amount        ladder.o
    0x08013090   0x08013090   0x00000006   Code   RO         4648    i.bsp_Idle          bsp.o
    0x08013096   0x08013096   0x00000016   Code   RO         4649    i.bsp_Init          bsp.o
    0x080130ac   0x080130ac   0x00000068   Code   RO         4765    i.bsp_InitHardTimer  bsp_timer.o
    0x08013114   0x08013114   0x00000060   Code   RO         4766    i.bsp_InitTimer     bsp_timer.o
    0x08013174   0x08013174   0x00000022   Code   RO         4877    i.bsp_InitUart      bsp_uart_fifo.o
    0x08013196   0x08013196   0x00000002   PAD
    0x08013198   0x08013198   0x000000a0   Code   RO         4768    i.bsp_StartHardTimer  bsp_timer.o
    0x08013238   0x08013238   0x0000007e   Code   RO         4882    i.comSendBuf        bsp_uart_fifo.o
    0x080132b6   0x080132b6   0x00000002   PAD
    0x080132b8   0x080132b8   0x00000034   Code   RO         4349    i.convert4to20ma    adc.o
    0x080132ec   0x080132ec   0x000000ac   Code   RO         5409    i.cos               m_ws.l(cos.o)
    0x08013398   0x08013398   0x0000059c   Code   RO         3497    i.cos_u32_value     ladder.o
    0x08013934   0x08013934   0x00000570   Code   RO         3498    i.cos_value         ladder.o
    0x08013ea4   0x08013ea4   0x0000005c   Code   RO         4421    i.data_init         plc_com.o
    0x08013f00   0x08013f00   0x00000130   Code   RO         3499    i.disable_C_D       ladder.o
    0x08014030   0x08014030   0x00000128   Code   RO         3500    i.disable_C_K       ladder.o
    0x08014158   0x08014158   0x00000028   Code   RO         3501    i.disable_T         ladder.o
    0x08014180   0x08014180   0x00000164   Code   RO         3502    i.enable_C_D        ladder.o
    0x080142e4   0x080142e4   0x00000158   Code   RO         3503    i.enable_C_K        ladder.o
    0x0801443c   0x0801443c   0x00000040   Code   RO         3504    i.enable_T_K        ladder.o
    0x0801447c   0x0801447c   0x0000001c   Code   RO         3505    i.expand_AND        ladder.o
    0x08014498   0x08014498   0x0000001c   Code   RO         3506    i.expand_ANI        ladder.o
    0x080144b4   0x080144b4   0x0000001c   Code   RO         3507    i.expand_LD         ladder.o
    0x080144d0   0x080144d0   0x0000001c   Code   RO         3508    i.expand_LDI        ladder.o
    0x080144ec   0x080144ec   0x0000001c   Code   RO         3509    i.expand_OR         ladder.o
