Component: ARM Compiler 5.05 update 1 (build 106) Tool: armlink [4d0efa]

==============================================================================

Section Cross References

    startup_stm32f10x_hd.o(STACK) refers (Special) to heapauxi.o(.text) for __use_two_region_memory
    startup_stm32f10x_hd.o(HEAP) refers (Special) to heapauxi.o(.text) for __use_two_region_memory
    startup_stm32f10x_hd.o(RESET) refers (Special) to heapauxi.o(.text) for __use_two_region_memory
    startup_stm32f10x_hd.o(RESET) refers to startup_stm32f10x_hd.o(STACK) for __initial_sp
    startup_stm32f10x_hd.o(RESET) refers to startup_stm32f10x_hd.o(.text) for Reset_Handler
    startup_stm32f10x_hd.o(RESET) refers to bsp_timer.o(i.SysTick_Handler) for SysTick_Handler
    startup_stm32f10x_hd.o(RESET) refers to adc.o(i.DMA1_Channel1_IRQHandler) for DMA1_Channel1_IRQHandler
    startup_stm32f10x_hd.o(RESET) refers to plc_com.o(i.DMA1_Channel4_IRQHandler) for DMA1_Channel4_IRQHandler
    startup_stm32f10x_hd.o(RESET) refers to plc_io.o(i.EXTI9_5_IRQHandler) for EXTI9_5_IRQHandler
    startup_stm32f10x_hd.o(RESET) refers to pwm_output.o(i.TIM1_UP_IRQHandler) for TIM1_UP_IRQHandler
    startup_stm32f10x_hd.o(RESET) refers to encode.o(i.TIM2_IRQHandler) for TIM2_IRQHandler
    startup_stm32f10x_hd.o(RESET) refers to encode.o(i.TIM3_IRQHandler) for TIM3_IRQHandler
    startup_stm32f10x_hd.o(RESET) refers to plc_com.o(i.USART1_IRQHandler) for USART1_IRQHandler
    startup_stm32f10x_hd.o(RESET) refers to bsp_uart_fifo.o(i.USART3_IRQHandler) for USART3_IRQHandler
    startup_stm32f10x_hd.o(RESET) refers to pwm_output.o(i.TIM8_UP_IRQHandler) for TIM8_UP_IRQHandler
    startup_stm32f10x_hd.o(RESET) refers to bsp_timer.o(i.TIM5_IRQHandler) for TIM5_IRQHandler
    startup_stm32f10x_hd.o(.text) refers (Special) to heapauxi.o(.text) for __use_two_region_memory
    startup_stm32f10x_hd.o(.text) refers to system_stm32f10x.o(i.SystemInit) for SystemInit
==============================================================================

Removing Unused input sections from the image.

    Removing misc.o(i.NVIC_SystemLPConfig), (24 bytes).
    Removing misc.o(i.SysTick_CLKSourceConfig), (24 bytes).
    Removing stm32f10x_adc.o(i.ADC_AnalogWatchdogCmd), (16 bytes).
    Removing stm32f10x_adc.o(i.ADC_AnalogWatchdogSingleChannelConfig), (12 bytes).
    Removing stm32f10x_adc.o(i.ADC_AnalogWatchdogThresholdsConfig), (6 bytes).
    Removing stm32f10x_adc.o(i.ADC_AutoInjectedConvCmd), (20 bytes).
    Removing stm32f10x_adc.o(i.ADC_ClearFlag), (6 bytes).
    Removing stm32f10x_adc.o(i.ADC_ClearITPendingBit), (8 bytes).
    Removing stm32f10x_adc.o(i.ADC_DeInit), (68 bytes).
    Removing stm32f10x_adc.o(i.ADC_DiscModeChannelCountConfig), (16 bytes).
    Removing stm32f10x_adc.o(i.ADC_DiscModeCmd), (20 bytes).
    Removing stm32f10x_adc.o(i.ADC_ExternalTrigConvCmd), (20 bytes).
    Removing stm32f10x_adc.o(i.ADC_ExternalTrigInjectedConvCmd), (20 bytes).
    Removing stm32f10x_adc.o(i.ADC_ExternalTrigInjectedConvConfig), (12 bytes).
    Removing stm32f10x_adc.o(i.ADC_GetConversionValue), (6 bytes).
    Removing stm32f10x_adc.o(i.ADC_GetDualModeConversionValue), (12 bytes).
    Removing stm32f10x_adc.o(i.ADC_GetFlagStatus), (14 bytes).
    Removing stm32f10x_adc.o(i.ADC_GetITStatus), (28 bytes).
==============================================================================

Image Symbol Table

    Local Symbols

    Symbol Name                              Value     Ov Type        Size  Object(Section)

    ../clib/angel/boardlib.s                 0x00000000   Number         0  boardinit2.o ABSOLUTE
    ../clib/angel/boardlib.s                 0x00000000   Number         0  boardinit1.o ABSOLUTE
    ../clib/angel/boardlib.s                 0x00000000   Number         0  boardshut.o ABSOLUTE
    ../clib/angel/boardlib.s                 0x00000000   Number         0  boardinit3.o ABSOLUTE
    ../clib/angel/dczerorl2.s                0x00000000   Number         0  __dczerorl2.o ABSOLUTE
    ../clib/angel/handlers.s                 0x00000000   Number         0  __scatter_zi.o ABSOLUTE
    ../clib/angel/kernel.s                   0x00000000   Number         0  __rtentry4.o ABSOLUTE
    ../clib/angel/kernel.s                   0x00000000   Number         0  rtexit2.o ABSOLUTE
    ../clib/angel/kernel.s                   0x00000000   Number         0  __rtentry2.o ABSOLUTE
    ../clib/angel/kernel.s                   0x00000000   Number         0  rtexit.o ABSOLUTE
    ../clib/angel/kernel.s                   0x00000000   Number         0  __rtentry.o ABSOLUTE
    ../clib/angel/rt.s                       0x00000000   Number         0  rt_errno_addr_intlibspace.o ABSOLUTE
    ../clib/angel/rt.s                       0x00000000   Number         0  aeabi_ldiv0.o ABSOLUTE
    ../clib/angel/rt.s                       0x00000000   Number         0  aeabi_ldiv0_sigfpe.o ABSOLUTE
    ../clib/angel/rt.s                       0x00000000   Number         0  rt_heap_descriptor_intlibspace.o ABSOLUTE
    ../clib/angel/rt.s                       0x00000000   Number         0  rt_heap_descriptor.o ABSOLUTE
    ../clib/angel/rt.s                       0x00000000   Number         0  rt_raise.o ABSOLUTE
    ../clib/angel/rt.s                       0x00000000   Number         0  rt_div0.o ABSOLUTE
    ../clib/angel/rt.s                       0x00000000   Number         0  rt_errno_addr.o ABSOLUTE
    ../clib/angel/scatter.s                  0x00000000   Number         0  __scatter.o ABSOLUTE
    ../clib/angel/startup.s                  0x00000000   Number         0  __main.o ABSOLUTE
    ../clib/angel/sys.s                      0x00000000   Number         0  indicate_semi.o ABSOLUTE
    ../clib/angel/sys.s                      0x00000000   Number         0  sys_stackheap_outer.o ABSOLUTE
    ../clib/angel/sys.s                      0x00000000   Number         0  mutex_dummy.o ABSOLUTE
    ../clib/angel/sys.s                      0x00000000   Number         0  libspace.o ABSOLUTE
    ../clib/angel/sys.s                      0x00000000   Number         0  use_no_semi.o ABSOLUTE
    ../clib/angel/sysapp.c                   0x00000000   Number         0  sys_io.o ABSOLUTE
    ../clib/angel/sysapp.c                   0x00000000   Number         0  sys_wrch.o ABSOLUTE
    ../clib/angel/sysapp.c                   0x00000000   Number         0  sys_command.o ABSOLUTE
    ../clib/angel/sysapp.c                   0x00000000   Number         0  sys_exit.o ABSOLUTE
    ../clib/armsys.c                         0x00000000   Number         0  _get_argv.o ABSOLUTE
    ../clib/armsys.c                         0x00000000   Number         0  _get_argv_nomalloc.o ABSOLUTE
    ../clib/armsys.c                         0x00000000   Number         0  no_argv.o ABSOLUTE
    ../clib/armsys.c                         0x00000000   Number         0  argv_veneer.o ABSOLUTE
    ../clib/armsys.c                         0x00000000   Number         0  argv_veneer.o ABSOLUTE
    ../clib/fenv.c                           0x00000000   Number         0  _rserrno.o ABSOLUTE
    ../clib/heap1.c                          0x00000000   Number         0  h1_init_mt.o ABSOLUTE
    ../clib/heap1.c                          0x00000000   Number         0  h1_extend_mt.o ABSOLUTE
    ../clib/heap1.c                          0x00000000   Number         0  h1_final.o ABSOLUTE
    ../clib/heap1.c                          0x00000000   Number         0  h1_alloc_mt.o ABSOLUTE
    ../clib/heap1.c                          0x00000000   Number         0  h1_alloc.o ABSOLUTE
    ../clib/heap1.c                          0x00000000   Number         0  h1_free.o ABSOLUTE
    ../clib/heap1.c                          0x00000000   Number         0  h1_final_mt.o ABSOLUTE
    ../clib/heap1.c                          0x00000000   Number         0  h1_extend.o ABSOLUTE
    ../clib/heap1.c                          0x00000000   Number         0  h1_free_mt.o ABSOLUTE
    ../clib/heap1.c                          0x00000000   Number         0  h1_init.o ABSOLUTE
    ../clib/heap2.c                          0x00000000   Number         0  fdtree.o ABSOLUTE
    ../clib/heap2.c                          0x00000000   Number         0  heap2mt.o ABSOLUTE
    ../clib/heap2.c                          0x00000000   Number         0  heap2.o ABSOLUTE
    ../clib/heapalloc.c                      0x00000000   Number         0  term_alloc.o ABSOLUTE
    ../clib/heapalloc.c                      0x00000000   Number         0  hrguard.o ABSOLUTE
    ../clib/heapalloc.c                      0x00000000   Number         0  hguard.o ABSOLUTE
    ../clib/heapalloc.c                      0x00000000   Number         0  maybetermalloc1.o ABSOLUTE
    ../clib/heapalloc.c                      0x00000000   Number         0  init_alloc.o ABSOLUTE
    ../clib/heapalloc.c                      0x00000000   Number         0  malloc.o ABSOLUTE
    ../clib/heapalloc.c                      0x00000000   Number         0  heapstubs.o ABSOLUTE
    ../clib/heapalloc.c                      0x00000000   Number         0  maybetermalloc1.o ABSOLUTE
    ../clib/heapalloc.c                      0x00000000   Number         0  free.o ABSOLUTE
    ../clib/heapalloc.c                      0x00000000   Number         0  maybetermalloc2.o ABSOLUTE
    ../clib/heapalloc.c                      0x00000000   Number         0  maybetermalloc2.o ABSOLUTE
    ../clib/heapaux.c                        0x00000000   Number         0  heapauxa.o ABSOLUTE
    ../clib/heapaux.c                        0x00000000   Number         0  heapauxi.o ABSOLUTE
    ../clib/libinit.s                        0x00000000   Number         0  libshutdown2.o ABSOLUTE
    ../clib/libinit.s                        0x00000000   Number         0  libinit2.o ABSOLUTE
    ../clib/libinit.s                        0x00000000   Number         0  libinit.o ABSOLUTE
    ../clib/libinit.s                        0x00000000   Number         0  libshutdown.o ABSOLUTE
    ../clib/longlong.s                       0x00000000   Number         0  lludivv7m.o ABSOLUTE
    ../clib/longlong.s                       0x00000000   Number         0  llushr.o ABSOLUTE
    ../clib/longlong.s                       0x00000000   Number         0  llshl.o ABSOLUTE
    ../clib/longlong.s                       0x00000000   Number         0  llsdiv.o ABSOLUTE
    ../clib/memcpset.s                       0x00000000   Number         0  rt_memclr_w.o ABSOLUTE
    ../clib/memcpset.s                       0x00000000   Number         0  rt_memclr.o ABSOLUTE
    ../clib/memcpset.s                       0x00000000   Number         0  rt_memcpy_w.o ABSOLUTE
    ../clib/memcpset.s                       0x00000000   Number         0  rt_memcpy_v6.o ABSOLUTE
    ../clib/printf.c                         0x00000000   Number         0  __printf_ss_wp.o ABSOLUTE
    ../clib/printf.c                         0x00000000   Number         0  __printf_nopercent.o ABSOLUTE
    ../clib/printf.c                         0x00000000   Number         0  __printf_flags_wp.o ABSOLUTE
    ../clib/printf.c                         0x00000000   Number         0  _printf_char.o ABSOLUTE
    ../clib/printf.c                         0x00000000   Number         0  _printf_char_file.o ABSOLUTE
    ../clib/printf.c                         0x00000000   Number         0  _printf_char_common.o ABSOLUTE
    ../clib/printf.c                         0x00000000   Number         0  __printf_flags_ss_wp.o ABSOLUTE
    ../clib/printf.c                         0x00000000   Number         0  __printf_wp.o ABSOLUTE
    ../clib/printf.c                         0x00000000   Number         0  __printf_flags_ss.o ABSOLUTE
    ../clib/printf.c                         0x00000000   Number         0  __printf_ss.o ABSOLUTE
    ../clib/printf.c                         0x00000000   Number         0  __printf_flags.o ABSOLUTE
    ../clib/printf.c                         0x00000000   Number         0  _printf_str.o ABSOLUTE
    ../clib/printf.c                         0x00000000   Number         0  __printf.o ABSOLUTE
    ../clib/printf.c                         0x00000000   Number         0  noretval__2printf.o ABSOLUTE
    ../clib/printf.c                         0x00000000   Number         0  __2printf.o ABSOLUTE
    ../clib/printf_percent.s                 0x00000000   Number         0  _printf_s.o ABSOLUTE
    ../clib/printf_percent.s                 0x00000000   Number         0  _printf_percent.o ABSOLUTE
    ../clib/printf_percent.s                 0x00000000   Number         0  _printf_percent_end.o ABSOLUTE
    ../clib/signal.c                         0x00000000   Number         0  defsig_cppl_inner.o ABSOLUTE
    ../clib/signal.c                         0x00000000   Number         0  defsig_pvfn_inner.o ABSOLUTE
    ../clib/signal.c                         0x00000000   Number         0  defsig_rtred_inner.o ABSOLUTE
    ../clib/signal.c                         0x00000000   Number         0  defsig_fpe_inner.o ABSOLUTE
    ../clib/signal.c                         0x00000000   Number         0  defsig_exit.o ABSOLUTE
    ../clib/signal.c                         0x00000000   Number         0  defsig_abrt_inner.o ABSOLUTE
    ../clib/signal.c                         0x00000000   Number         0  defsig_general.o ABSOLUTE
    ../clib/signal.c                         0x00000000   Number         0  defsig_rtmem_outer.o ABSOLUTE
    ../clib/signal.c                         0x00000000   Number         0  defsig_rtmem_formal.o ABSOLUTE
    ../clib/signal.c                         0x00000000   Number         0  defsig_stak_inner.o ABSOLUTE
    ../clib/signal.c                         0x00000000   Number         0  __raise.o ABSOLUTE
    ../clib/signal.c                         0x00000000   Number         0  defsig_segv_inner.o ABSOLUTE
    ../clib/signal.c                         0x00000000   Number         0  defsig_other.o ABSOLUTE
    ../clib/signal.c                         0x00000000   Number         0  defsig_rtred_outer.o ABSOLUTE
    ../clib/signal.c                         0x00000000   Number         0  defsig_fpe_outer.o ABSOLUTE
    ../clib/signal.c                         0x00000000   Number         0  defsig_rtmem_inner.o ABSOLUTE
    ../clib/signal.c                         0x00000000   Number         0  defsig_fpe_formal.o ABSOLUTE
    ../clib/signal.c                         0x00000000   Number         0  defsig_rtred_formal.o ABSOLUTE
    ../clib/signal.s                         0x00000000   Number         0  defsig.o ABSOLUTE
    ../clib/stdio.c                          0x00000000   Number         0  stdio.o ABSOLUTE
    ../clib/stdio.c                          0x00000000   Number         0  fseek.o ABSOLUTE
    ../clib/stdio.c                          0x00000000   Number         0  fclose.o ABSOLUTE
    ../clib/stdio.c                          0x00000000   Number         0  setvbuf_locked.o ABSOLUTE
    ../clib/stdio.c                          0x00000000   Number         0  fopen_locked.o ABSOLUTE
    ../clib/stdio.c                          0x00000000   Number         0  setvbuf.o ABSOLUTE
    ../clib/stdio.c                          0x00000000   Number         0  ferror.o ABSOLUTE
    ../clib/stdio.c                          0x00000000   Number         0  initio_locked.o ABSOLUTE
    ../clib/stdio.c                          0x00000000   Number         0  initio.o ABSOLUTE
    ../clib/stdio.c                          0x00000000   Number         0  ferror_locked.o ABSOLUTE
    ../clib/stdio.c                          0x00000000   Number         0  streamlock.o ABSOLUTE
    ../clib/stdio.c                          0x00000000   Number         0  ftell.o ABSOLUTE
    ../clib/stdio.c                          0x00000000   Number         0  fopen.o ABSOLUTE
    ../clib/stdio.c                          0x00000000   Number         0  stdio_streams.o ABSOLUTE
    ../clib/stdlib.c                         0x00000000   Number         0  exit.o ABSOLUTE
    ../clib/string.c                         0x00000000   Number         0  memcmp.o ABSOLUTE
    ../clib/string.c                         0x00000000   Number         0  strlen.o ABSOLUTE
    ../fplib/d2f.s                           0x00000000   Number         0  d2f.o ABSOLUTE
    ../fplib/daddsub.s                       0x00000000   Number         0  daddsub_clz.o ABSOLUTE
    ../fplib/dcheck1.s                       0x00000000   Number         0  dcheck1.o ABSOLUTE
    ../fplib/dcmpi.s                         0x00000000   Number         0  dcmpi.o ABSOLUTE
    ../fplib/ddiv.s                          0x00000000   Number         0  ddiv.o ABSOLUTE
    ../fplib/dfix.s                          0x00000000   Number         0  dfix.o ABSOLUTE
    ../fplib/dfixu.s                         0x00000000   Number         0  dfixu.o ABSOLUTE
    ../fplib/dflt.s                          0x00000000   Number         0  dflt_clz.o ABSOLUTE
    ../fplib/dleqf.s                         0x00000000   Number         0  dleqf.o ABSOLUTE
    ../fplib/dmul.s                          0x00000000   Number         0  dmul.o ABSOLUTE
    ../fplib/dnaninf.s                       0x00000000   Number         0  dnaninf.o ABSOLUTE
    ../fplib/dretinf.s                       0x00000000   Number         0  dretinf.o ABSOLUTE
    ../fplib/dsqrt.s                         0x00000000   Number         0  dsqrt_noumaal.o ABSOLUTE
    ../fplib/f2d.s                           0x00000000   Number         0  f2d.o ABSOLUTE
    ../fplib/faddsub.s                       0x00000000   Number         0  faddsub_clz.o ABSOLUTE
    ../fplib/fcmpi.s                         0x00000000   Number         0  fcmpi.o ABSOLUTE
    ../fplib/fdiv.s                          0x00000000   Number         0  fdiv.o ABSOLUTE
    ../fplib/feqf.s                          0x00000000   Number         0  feqf.o ABSOLUTE
    ../fplib/ffixu.s                         0x00000000   Number         0  ffixu.o ABSOLUTE
    ../fplib/fflt.s                          0x00000000   Number         0  fflt_clz.o ABSOLUTE
    ../fplib/fleqf.s                         0x00000000   Number         0  fleqf.o ABSOLUTE
    ../fplib/fmul.s                          0x00000000   Number         0  fmul.o ABSOLUTE
    ../fplib/fnaninf.s                       0x00000000   Number         0  fnaninf.o ABSOLUTE
    ../fplib/fpinit.s                        0x00000000   Number         0  fpinit.o ABSOLUTE
    ../fplib/fretinf.s                       0x00000000   Number         0  fretinf.o ABSOLUTE
    ../fplib/frleqf.s                        0x00000000   Number         0  frleqf.o ABSOLUTE
    ../fplib/retnan.s                        0x00000000   Number         0  retnan.o ABSOLUTE
    ../fplib/scalbn.s                        0x00000000   Number         0  scalbn.o ABSOLUTE
    ../fplib/trapv.s                         0x00000000   Number         0  trapv.o ABSOLUTE
    ../fplib/usenofp.s                       0x00000000   Number         0  usenofp.o ABSOLUTE
    ../mathlib/cos.c                         0x00000000   Number         0  cos.o ABSOLUTE
    ../mathlib/cos.c                         0x00000000   Number         0  cos_x.o ABSOLUTE
    ../mathlib/cos_i.c                       0x00000000   Number         0  cos_i.o ABSOLUTE
    ../mathlib/dunder.c                      0x00000000   Number         0  dunder.o ABSOLUTE
    ../mathlib/fpclassify.c                  0x00000000   Number         0  fpclassify.o ABSOLUTE
    ../mathlib/poly.c                        0x00000000   Number         0  poly.o ABSOLUTE
    ../mathlib/rred.c                        0x00000000   Number         0  rred.o ABSOLUTE
    ../mathlib/sin.c                         0x00000000   Number         0  sin_x.o ABSOLUTE
    ../mathlib/sin.c                         0x00000000   Number         0  sin.o ABSOLUTE
    ../mathlib/sin_i.c                       0x00000000   Number         0  sin_i.o ABSOLUTE
    ../mathlib/sin_i.c                       0x00000000   Number         0  sin_i_x.o ABSOLUTE
    ../mathlib/sqrt.c                        0x00000000   Number         0  sqrt.o ABSOLUTE
    ../mathlib/sqrt.c                        0x00000000   Number         0  sqrt_x.o ABSOLUTE
    ../mathlib/tan.c                         0x00000000   Number         0  tan.o ABSOLUTE
    ../mathlib/tan.c                         0x00000000   Number         0  tan_x.o ABSOLUTE
    ../mathlib/tan_i.c                       0x00000000   Number         0  tan_i_x.o ABSOLUTE
    ../mathlib/tan_i.c                       0x00000000   Number         0  tan_i.o ABSOLUTE
    ..\CAN\can_network.c                     0x00000000   Number         0  can_network.o ABSOLUTE
    ..\CMSIS\core_cm3.c                      0x00000000   Number         0  core_cm3.o ABSOLUTE
    ..\CMSIS\startup_stm32f10x_hd.s          0x00000000   Number         0  startup_stm32f10x_hd.o ABSOLUTE
    ..\CMSIS\system_stm32f10x.c              0x00000000   Number         0  system_stm32f10x.o ABSOLUTE
    ..\Libraries\src\misc.c                  0x00000000   Number         0  misc.o ABSOLUTE
    ..\Libraries\src\stm32f10x_adc.c         0x00000000   Number         0  stm32f10x_adc.o ABSOLUTE
    ..\Libraries\src\stm32f10x_bkp.c         0x00000000   Number         0  stm32f10x_bkp.o ABSOLUTE
    ..\Libraries\src\stm32f10x_can.c         0x00000000   Number         0  stm32f10x_can.o ABSOLUTE
    ..\Libraries\src\stm32f10x_cec.c         0x00000000   Number         0  stm32f10x_cec.o ABSOLUTE
    ..\Libraries\src\stm32f10x_crc.c         0x00000000   Number         0  stm32f10x_crc.o ABSOLUTE
    ..\Libraries\src\stm32f10x_dac.c         0x00000000   Number         0  stm32f10x_dac.o ABSOLUTE
    ..\Libraries\src\stm32f10x_dbgmcu.c      0x00000000   Number         0  stm32f10x_dbgmcu.o ABSOLUTE
    ..\Libraries\src\stm32f10x_dma.c         0x00000000   Number         0  stm32f10x_dma.o ABSOLUTE
    ..\Libraries\src\stm32f10x_exti.c        0x00000000   Number         0  stm32f10x_exti.o ABSOLUTE
    ..\Libraries\src\stm32f10x_flash.c       0x00000000   Number         0  stm32f10x_flash.o ABSOLUTE
    ..\Libraries\src\stm32f10x_fsmc.c        0x00000000   Number         0  stm32f10x_fsmc.o ABSOLUTE
    ..\Libraries\src\stm32f10x_gpio.c        0x00000000   Number         0  stm32f10x_gpio.o ABSOLUTE
    ..\Libraries\src\stm32f10x_i2c.c         0x00000000   Number         0  stm32f10x_i2c.o ABSOLUTE
    ..\Libraries\src\stm32f10x_iwdg.c        0x00000000   Number         0  stm32f10x_iwdg.o ABSOLUTE
    ..\Libraries\src\stm32f10x_pwr.c         0x00000000   Number         0  stm32f10x_pwr.o ABSOLUTE
    ..\Libraries\src\stm32f10x_rcc.c         0x00000000   Number         0  stm32f10x_rcc.o ABSOLUTE
    ..\Libraries\src\stm32f10x_rtc.c         0x00000000   Number         0  stm32f10x_rtc.o ABSOLUTE
    ..\Libraries\src\stm32f10x_sdio.c        0x00000000   Number         0  stm32f10x_sdio.o ABSOLUTE
    ..\Libraries\src\stm32f10x_spi.c         0x00000000   Number         0  stm32f10x_spi.o ABSOLUTE
    ..\Libraries\src\stm32f10x_tim.c         0x00000000   Number         0  stm32f10x_tim.o ABSOLUTE
    ..\Libraries\src\stm32f10x_usart.c       0x00000000   Number         0  stm32f10x_usart.o ABSOLUTE
    ..\Libraries\src\stm32f10x_wwdg.c        0x00000000   Number         0  stm32f10x_wwdg.o ABSOLUTE
    ..\MOD\bsp.c                             0x00000000   Number         0  bsp.o ABSOLUTE
    ..\MOD\bsp_led.c                         0x00000000   Number         0  bsp_led.o ABSOLUTE
    ..\MOD\bsp_msg.c                         0x00000000   Number         0  bsp_msg.o ABSOLUTE
    ..\MOD\bsp_timer.c                       0x00000000   Number         0  bsp_timer.o ABSOLUTE
    ..\MOD\bsp_uart_fifo.c                   0x00000000   Number         0  bsp_uart_fifo.o ABSOLUTE
    ..\MOD\bsp_user_lib.c                    0x00000000   Number         0  bsp_user_lib.o ABSOLUTE
    ..\MOD\modbus_host.c                     0x00000000   Number         0  modbus_host.o ABSOLUTE
    ..\MOD\modbus_slave.c                    0x00000000   Number         0  modbus_slave.o ABSOLUTE
    ..\\CMSIS\\core_cm3.c                    0x00000000   Number         0  core_cm3.o ABSOLUTE
    ..\users\ADC.C                           0x00000000   Number         0  adc.o ABSOLUTE
    ..\users\DAC.C                           0x00000000   Number         0  dac.o ABSOLUTE
    ..\users\EXTI.C                          0x00000000   Number         0  exti.o ABSOLUTE
    ..\users\NVIC_interrupt.c                0x00000000   Number         0  nvic_interrupt.o ABSOLUTE
    ..\users\PLC_Com.c                       0x00000000   Number         0  plc_com.o ABSOLUTE
    ..\users\PLC_IO.C                        0x00000000   Number         0  plc_io.o ABSOLUTE
    ..\users\PLC_Other.C                     0x00000000   Number         0  plc_other.o ABSOLUTE
    ..\users\PLC_timer.c                     0x00000000   Number         0  plc_timer.o ABSOLUTE
    ..\users\RTC.C                           0x00000000   Number         0  rtc.o ABSOLUTE
    ..\users\encode.c                        0x00000000   Number         0  encode.o ABSOLUTE
    ..\users\ladder.c                        0x00000000   Number         0  ladder.o ABSOLUTE
    ..\users\main.c                          0x00000000   Number         0  main.o ABSOLUTE
    ..\users\pwm_output.c                    0x00000000   Number         0  pwm_output.o ABSOLUTE
    dc.s                                     0x00000000   Number         0  dc.o ABSOLUTE
    RESET                                    0x08000000   Section      304  startup_stm32f10x_hd.o(RESET)
    !!!main                                  0x08000130   Section        8  __main.o(!!!main)
    !!!scatter                               0x08000138   Section       52  __scatter.o(!!!scatter)
    !!dczerorl2                              0x0800016c   Section       90  __dczerorl2.o(!!dczerorl2)
    !!handler_zi                             0x080001c8   Section       28  __scatter_zi.o(!!handler_zi)
    .ARM.Collect$$libinit$$00000000          0x080001e4   Section        2  libinit.o(.ARM.Collect$$libinit$$00000000)
    .ARM.Collect$$libinit$$00000002          0x080001e6   Section        0  libinit2.o(.ARM.Collect$$libinit$$00000002)
    .ARM.Collect$$libinit$$00000004          0x080001e6   Section        0  libinit2.o(.ARM.Collect$$libinit$$00000004)
    .ARM.Collect$$libinit$$0000000A          0x080001e6   Section        0  libinit2.o(.ARM.Collect$$libinit$$0000000A)
    .ARM.Collect$$libinit$$0000000C          0x080001e6   Section        0  libinit2.o(.ARM.Collect$$libinit$$0000000C)
    .ARM.Collect$$libinit$$0000000E          0x080001e6   Section        0  libinit2.o(.ARM.Collect$$libinit$$0000000E)
    .ARM.Collect$$libinit$$00000011          0x080001e6   Section        0  libinit2.o(.ARM.Collect$$libinit$$00000011)
    .ARM.Collect$$libinit$$00000013          0x080001e6   Section        0  libinit2.o(.ARM.Collect$$libinit$$00000013)
    .ARM.Collect$$libinit$$00000015          0x080001e6   Section        0  libinit2.o(.ARM.Collect$$libinit$$00000015)
    .ARM.Collect$$libinit$$00000017          0x080001e6   Section        0  libinit2.o(.ARM.Collect$$libinit$$00000017)
    .ARM.Collect$$libinit$$00000019          0x080001e6   Section        0  libinit2.o(.ARM.Collect$$libinit$$00000019)
    .ARM.Collect$$libinit$$0000001B          0x080001e6   Section        0  libinit2.o(.ARM.Collect$$libinit$$0000001B)
    .ARM.Collect$$libinit$$0000001D          0x080001e6   Section        0  libinit2.o(.ARM.Collect$$libinit$$0000001D)
    .ARM.Collect$$libinit$$0000001F          0x080001e6   Section        0  libinit2.o(.ARM.Collect$$libinit$$0000001F)
    .ARM.Collect$$libinit$$00000021          0x080001e6   Section        0  libinit2.o(.ARM.Collect$$libinit$$00000021)
    .ARM.Collect$$libinit$$00000023          0x080001e6   Section        0  libinit2.o(.ARM.Collect$$libinit$$00000023)
    .ARM.Collect$$libinit$$00000025          0x080001e6   Section        0  libinit2.o(.ARM.Collect$$libinit$$00000025)
    .ARM.Collect$$libinit$$0000002C          0x080001e6   Section        0  libinit2.o(.ARM.Collect$$libinit$$0000002C)
    .ARM.Collect$$libinit$$0000002E          0x080001e6   Section        0  libinit2.o(.ARM.Collect$$libinit$$0000002E)
    .ARM.Collect$$libinit$$00000030          0x080001e6   Section        0  libinit2.o(.ARM.Collect$$libinit$$00000030)
    .ARM.Collect$$libinit$$00000032          0x080001e6   Section        0  libinit2.o(.ARM.Collect$$libinit$$00000032)
    .ARM.Collect$$libinit$$00000033          0x080001e6   Section        2  libinit2.o(.ARM.Collect$$libinit$$00000033)
    .ARM.Collect$$libshutdown$$00000000      0x080001e8   Section        2  libshutdown.o(.ARM.Collect$$libshutdown$$00000000)
    .ARM.Collect$$libshutdown$$00000003      0x080001ea   Section        0  libshutdown2.o(.ARM.Collect$$libshutdown$$00000003)
    .ARM.Collect$$libshutdown$$00000006      0x080001ea   Section        0  libshutdown2.o(.ARM.Collect$$libshutdown$$00000006)
    .ARM.Collect$$libshutdown$$00000009      0x080001ea   Section        0  libshutdown2.o(.ARM.Collect$$libshutdown$$00000009)
    .ARM.Collect$$libshutdown$$0000000B      0x080001ea   Section        0  libshutdown2.o(.ARM.Collect$$libshutdown$$0000000B)
    .ARM.Collect$$libshutdown$$0000000E      0x080001ea   Section        0  libshutdown2.o(.ARM.Collect$$libshutdown$$0000000E)
    .ARM.Collect$$libshutdown$$0000000F      0x080001ea   Section        2  libshutdown2.o(.ARM.Collect$$libshutdown$$0000000F)
    .ARM.Collect$$rtentry$$00000000          0x080001ec   Section        0  __rtentry.o(.ARM.Collect$$rtentry$$00000000)
    .ARM.Collect$$rtentry$$00000002          0x080001ec   Section        0  __rtentry2.o(.ARM.Collect$$rtentry$$00000002)
    .ARM.Collect$$rtentry$$00000004          0x080001ec   Section        6  __rtentry4.o(.ARM.Collect$$rtentry$$00000004)
    .ARM.Collect$$rtentry$$00000009          0x080001f2   Section        0  __rtentry2.o(.ARM.Collect$$rtentry$$00000009)
    .ARM.Collect$$rtentry$$0000000A          0x080001f2   Section        4  __rtentry2.o(.ARM.Collect$$rtentry$$0000000A)
    .ARM.Collect$$rtentry$$0000000C          0x080001f6   Section        0  __rtentry2.o(.ARM.Collect$$rtentry$$0000000C)
    .ARM.Collect$$rtentry$$0000000D          0x080001f6   Section        8  __rtentry2.o(.ARM.Collect$$rtentry$$0000000D)
    .ARM.Collect$$rtexit$$00000000           0x080001fe   Section        2  rtexit.o(.ARM.Collect$$rtexit$$00000000)
    .ARM.Collect$$rtexit$$00000002           0x08000200   Section        0  rtexit2.o(.ARM.Collect$$rtexit$$00000002)
    .ARM.Collect$$rtexit$$00000003           0x08000200   Section        4  rtexit2.o(.ARM.Collect$$rtexit$$00000003)
    .ARM.Collect$$rtexit$$00000004           0x08000204   Section        6  rtexit2.o(.ARM.Collect$$rtexit$$00000004)
    .text                                    0x0800020c   Section       64  startup_stm32f10x_hd.o(.text)
    .text                                    0x0800024c   Section      238  lludivv7m.o(.text)
    .text                                    0x0800033a   Section       38  llshl.o(.text)
    .text                                    0x08000360   Section       38  llushr.o(.text)
    .text                                    0x08000386   Section        0  memcmp.o(.text)
    .text                                    0x080003de   Section      138  rt_memcpy_v6.o(.text)
    .text                                    0x08000468   Section       68  rt_memclr.o(.text)
    .text                                    0x080004ac   Section       78  rt_memclr_w.o(.text)
    .text                                    0x080004fa   Section        0  heapauxi.o(.text)
    .text                                    0x08000500   Section        0  _rserrno.o(.text)
    .text                                    0x08000516   Section      100  rt_memcpy_w.o(.text)
    .text                                    0x0800057c   Section        8  rt_errno_addr_intlibspace.o(.text)
    .text                                    0x08000584   Section        8  libspace.o(.text)
    .text                                    0x0800058c   Section       74  sys_stackheap_outer.o(.text)
    .text                                    0x080005d6   Section        0  exit.o(.text)
    .text                                    0x080005e2   Section        2  use_no_semi.o(.text)
    .text                                    0x080005e4   Section        0  indicate_semi.o(.text)
    .text                                    0x080005e4   Section        0  sys_exit.o(.text)
    i.ADC_Cmd                                0x080005f0   Section        0  stm32f10x_adc.o(i.ADC_Cmd)
    i.ADC_DMACmd                             0x08000604   Section        0  stm32f10x_adc.o(i.ADC_DMACmd)
    i.ADC_GetCalibrationStatus               0x08000618   Section        0  stm32f10x_adc.o(i.ADC_GetCalibrationStatus)
    i.ADC_GetResetCalibrationStatus          0x08000626   Section        0  stm32f10x_adc.o(i.ADC_GetResetCalibrationStatus)
    i.ADC_Init                               0x08000634   Section        0  stm32f10x_adc.o(i.ADC_Init)
    i.ADC_RegularChannelConfig               0x0800067c   Section        0  stm32f10x_adc.o(i.ADC_RegularChannelConfig)
    i.ADC_ResetCalibration                   0x080006f0   Section        0  stm32f10x_adc.o(i.ADC_ResetCalibration)
    i.ADC_Sample                             0x080006fc   Section        0  adc.o(i.ADC_Sample)
    i.ADC_SoftwareStartConvCmd               0x0800077c   Section        0  stm32f10x_adc.o(i.ADC_SoftwareStartConvCmd)
    i.ADC_StartCalibration                   0x08000790   Section        0  stm32f10x_adc.o(i.ADC_StartCalibration)
    i.ADC_init                               0x0800079c   Section        0  adc.o(i.ADC_init)
    i.ALT                                    0x080008c0   Section        0  ladder.o(i.ALT)
    ALT                                      0x080008c1   Thumb Code    66  ladder.o(i.ALT)
    i.AND                                    0x08000910   Section        0  ladder.o(i.AND)
    i.ANDF                                   0x08000948   Section        0  ladder.o(i.ANDF)
    ANDF                                     0x08000949   Thumb Code   160  ladder.o(i.ANDF)
    i.ANDP                                   0x080009f8   Section        0  ladder.o(i.ANDP)
    ANDP                                     0x080009f9   Thumb Code   160  ladder.o(i.ANDP)
    i.ANI                                    0x08000aa8   Section        0  ladder.o(i.ANI)
    ANI                                      0x08000aa9   Thumb Code    42  ladder.o(i.ANI)
    i.BCD                                    0x08000ae0   Section        0  ladder.o(i.BCD)
    BCD                                      0x08000ae1   Thumb Code    94  ladder.o(i.BCD)
    i.BEBufToUint16                          0x08000b44   Section        0  bsp_user_lib.o(i.BEBufToUint16)
    i.BIN                                    0x08000b4c   Section        0  ladder.o(i.BIN)
    BIN                                      0x08000b4d   Thumb Code    82  ladder.o(i.BIN)
    i.BIT_SET                                0x08000ba4   Section        0  ladder.o(i.BIT_SET)
    BIT_SET                                  0x08000ba5   Thumb Code   142  ladder.o(i.BIT_SET)
    i.BKP_DeInit                             0x08000c44   Section        0  stm32f10x_bkp.o(i.BKP_DeInit)
    i.BKP_ReadBackupRegister                 0x08000c58   Section        0  stm32f10x_bkp.o(i.BKP_ReadBackupRegister)
    i.BKP_WriteBackupRegister                0x08000c68   Section        0  stm32f10x_bkp.o(i.BKP_WriteBackupRegister)
    i.BMOV                                   0x08000c78   Section        0  ladder.o(i.BMOV)
    BMOV                                     0x08000c79   Thumb Code   124  ladder.o(i.BMOV)
    i.BtoG                                   0x08000cf8   Section        0  ladder.o(i.BtoG)
    i.CALL_EX                                0x08000d18   Section        0  ladder.o(i.CALL_EX)
    CALL_EX                                  0x08000d19   Thumb Code    74  ladder.o(i.CALL_EX)
    i.CJ_EX                                  0x08000d70   Section        0  ladder.o(i.CJ_EX)
    CJ_EX                                    0x08000d71   Thumb Code    32  ladder.o(i.CJ_EX)
    i.CMP                                    0x08000d98   Section        0  ladder.o(i.CMP)
    CMP                                      0x08000d99   Thumb Code   204  ladder.o(i.CMP)
    i.CMPP                                   0x08000e70   Section        0  ladder.o(i.CMPP)
    CMPP                                     0x08000e71   Thumb Code   208  ladder.o(i.CMPP)
    i.CRC16_Modbus                           0x08000f4c   Section        0  bsp_user_lib.o(i.CRC16_Modbus)
    i.C_given_value_D                        0x08000f78   Section        0  ladder.o(i.C_given_value_D)
    C_given_value_D                          0x08000f79   Thumb Code    64  ladder.o(i.C_given_value_D)
    i.Cap_PulseInputInit                     0x08000fbc   Section        0  encode.o(i.Cap_PulseInputInit)
    i.CheckSum                               0x08000fd0   Section        0  plc_com.o(i.CheckSum)
    i.ComToUart                              0x08000ff8   Section        0  bsp_uart_fifo.o(i.ComToUart)
    i.DAC_Cmd                                0x08001010   Section        0  stm32f10x_dac.o(i.DAC_Cmd)
    i.DAC_Init                               0x08001028   Section        0  stm32f10x_dac.o(i.DAC_Init)
    i.DAC_SetChannel1Data                    0x08001050   Section        0  stm32f10x_dac.o(i.DAC_SetChannel1Data)
    i.DAC_SetChannel2Data                    0x08001064   Section        0  stm32f10x_dac.o(i.DAC_SetChannel2Data)
    i.DAC_SoftwareTriggerCmd                 0x08001078   Section        0  stm32f10x_dac.o(i.DAC_SoftwareTriggerCmd)
    i.DAC_data                               0x08001094   Section        0  dac.o(i.DAC_data)
    i.DAC_out_init                           0x080010c4   Section        0  dac.o(i.DAC_out_init)
    i.DBCD                                   0x08001150   Section        0  ladder.o(i.DBCD)
    DBCD                                     0x08001151   Thumb Code   186  ladder.o(i.DBCD)
    i.DBIN                                   0x0800121c   Section        0  ladder.o(i.DBIN)
    DBIN                                     0x0800121d   Thumb Code   248  ladder.o(i.DBIN)
    i.DCMP                                   0x0800131c   Section        0  ladder.o(i.DCMP)
    DCMP                                     0x0800131d   Thumb Code   200  ladder.o(i.DCMP)
    i.DCMPP                                  0x080013f0   Section        0  ladder.o(i.DCMPP)
    DCMPP                                    0x080013f1   Thumb Code   204  ladder.o(i.DCMPP)
    i.DDIV                                   0x080014c8   Section        0  ladder.o(i.DDIV)
    DDIV                                     0x080014c9   Thumb Code    86  ladder.o(i.DDIV)
    i.DECO                                   0x08001528   Section        0  ladder.o(i.DECO)
    DECO                                     0x08001529   Thumb Code    78  ladder.o(i.DECO)
    i.DFMOV                                  0x08001580   Section        0  ladder.o(i.DFMOV)
    DFMOV                                    0x08001581   Thumb Code    92  ladder.o(i.DFMOV)
    i.DINC_P                                 0x080015e0   Section        0  ladder.o(i.DINC_P)
    DINC_P                                   0x080015e1   Thumb Code   136  ladder.o(i.DINC_P)
    i.DMA1_Channel1_IRQHandler               0x08001678   Section        0  adc.o(i.DMA1_Channel1_IRQHandler)
    i.DMA1_Channel4_IRQHandler               0x080016c4   Section        0  plc_com.o(i.DMA1_Channel4_IRQHandler)
    i.DMA_ClearITPendingBit                  0x080016e8   Section        0  stm32f10x_dma.o(i.DMA_ClearITPendingBit)
    i.DMA_Cmd                                0x08001700   Section        0  stm32f10x_dma.o(i.DMA_Cmd)
    i.DMA_DeInit                             0x08001718   Section        0  stm32f10x_dma.o(i.DMA_DeInit)
    i.DMA_ITConfig                           0x080017fc   Section        0  stm32f10x_dma.o(i.DMA_ITConfig)
    i.DMA_Init                               0x0800180c   Section        0  stm32f10x_dma.o(i.DMA_Init)
    i.DMUL                                   0x08001848   Section        0  ladder.o(i.DMUL)
    DMUL                                     0x08001849   Thumb Code    76  ladder.o(i.DMUL)
    i.DZ0_Z3                                 0x0800189c   Section        0  ladder.o(i.DZ0_Z3)
    i.DZ4_Z7                                 0x080018e4   Section        0  ladder.o(i.DZ4_Z7)
    i.DZCP                                   0x08001930   Section        0  ladder.o(i.DZCP)
    DZCP                                     0x08001931   Thumb Code   206  ladder.o(i.DZCP)
    i.D_C_T_addr                             0x08001a0c   Section        0  ladder.o(i.D_C_T_addr)
    i.D_target                               0x08001a78   Section        0  ladder.o(i.D_target)
    D_target                                 0x08001a79   Thumb Code   524  ladder.o(i.D_target)
    i.Damount                                0x08001c90   Section        0  ladder.o(i.Damount)
    Damount                                  0x08001c91   Thumb Code   120  ladder.o(i.Damount)
    i.Dbig                                   0x08001d14   Section        0  ladder.o(i.Dbig)
    Dbig                                     0x08001d15   Thumb Code   120  ladder.o(i.Dbig)
    i.Dbig_amount                            0x08001d98   Section        0  ladder.o(i.Dbig_amount)
    Dbig_amount                              0x08001d99   Thumb Code   120  ladder.o(i.Dbig_amount)
    i.Dless                                  0x08001e1c   Section        0  ladder.o(i.Dless)
    Dless                                    0x08001e1d   Thumb Code   120  ladder.o(i.Dless)
    i.Dless_amount                           0x08001ea0   Section        0  ladder.o(i.Dless_amount)
    Dless_amount                             0x08001ea1   Thumb Code   138  ladder.o(i.Dless_amount)
    i.Dno_amount                             0x08001f38   Section        0  ladder.o(i.Dno_amount)
    Dno_amount                               0x08001f39   Thumb Code   120  ladder.o(i.Dno_amount)
    i.ECMP                                   0x08001fbc   Section        0  ladder.o(i.ECMP)
    ECMP                                     0x08001fbd   Thumb Code   224  ladder.o(i.ECMP)
    i.ENCO                                   0x080020a8   Section        0  ladder.o(i.ENCO)
    ENCO                                     0x080020a9   Thumb Code    96  ladder.o(i.ENCO)
    i.ENC_Get_AB0_Electrical_Angle           0x08002110   Section        0  encode.o(i.ENC_Get_AB0_Electrical_Angle)
    i.ENC_Get_AB1_Electrical_Angle           0x08002140   Section        0  encode.o(i.ENC_Get_AB1_Electrical_Angle)
    i.EPC_FORCE_OFF                          0x08002170   Section        0  plc_com.o(i.EPC_FORCE_OFF)
    i.EPC_FORCE_ON                           0x080021b0   Section        0  plc_com.o(i.EPC_FORCE_ON)
    i.EXTI9_5_IRQHandler                     0x0800221c   Section        0  plc_io.o(i.EXTI9_5_IRQHandler)
    i.EXTI_ClearITPendingBit                 0x08002240   Section        0  stm32f10x_exti.o(i.EXTI_ClearITPendingBit)
    i.EXTI_Init                              0x0800224c   Section        0  stm32f10x_exti.o(i.EXTI_Init)
    i.EZCP                                   0x080022bc   Section        0  ladder.o(i.EZCP)
    EZCP                                     0x080022bd   Thumb Code   190  ladder.o(i.EZCP)
    i.Encode_Pro_Callback                    0x08002388   Section        0  encode.o(i.Encode_Pro_Callback)
    i.Encoder_A0_Configuration               0x080023cc   Section        0  encode.o(i.Encoder_A0_Configuration)
    i.Encoder_A0_Restore                     0x08002494   Section        0  encode.o(i.Encoder_A0_Restore)
    i.Encoder_A1_Configuration               0x080024f4   Section        0  encode.o(i.Encoder_A1_Configuration)
    i.Encoder_A1_Restore                     0x080025b8   Section        0  encode.o(i.Encoder_A1_Restore)
    i.Encoder_AB0_Configration               0x08002608   Section        0  encode.o(i.Encoder_AB0_Configration)
    i.Encoder_AB0_Restore                    0x080026b0   Section        0  encode.o(i.Encoder_AB0_Restore)
    i.Encoder_AB1_Configration               0x08002708   Section        0  encode.o(i.Encoder_AB1_Configration)
    i.Encoder_AB1_Restore                    0x080027a0   Section        0  encode.o(i.Encoder_AB1_Restore)
    i.ErasurePLC                             0x080027e8   Section        0  plc_com.o(i.ErasurePLC)
    i.FLASH_ClearFlag                        0x0800289c   Section        0  stm32f10x_flash.o(i.FLASH_ClearFlag)
    i.FLASH_EraseOptionBytes                 0x080028a8   Section        0  stm32f10x_flash.o(i.FLASH_EraseOptionBytes)
    i.FLASH_ErasePage                        0x08002924   Section        0  stm32f10x_flash.o(i.FLASH_ErasePage)
    i.FLASH_GetBank1Status                   0x08002960   Section        0  stm32f10x_flash.o(i.FLASH_GetBank1Status)
    i.FLASH_GetReadOutProtectionStatus       0x08002988   Section        0  stm32f10x_flash.o(i.FLASH_GetReadOutProtectionStatus)
    i.FLASH_GetWriteProtectionOptionByte     0x0800299c   Section        0  stm32f10x_flash.o(i.FLASH_GetWriteProtectionOptionByte)
    i.FLASH_Lock                             0x080029a8   Section        0  stm32f10x_flash.o(i.FLASH_Lock)
    i.FLASH_ProgramHalfWord                  0x080029b8   Section        0  stm32f10x_flash.o(i.FLASH_ProgramHalfWord)
    i.FLASH_ProgramWord                      0x080029ec   Section        0  stm32f10x_flash.o(i.FLASH_ProgramWord)
    i.FLASH_Unlock                           0x08002a3c   Section        0  stm32f10x_flash.o(i.FLASH_Unlock)
    i.FLASH_WaitForLastOperation             0x08002a54   Section        0  stm32f10x_flash.o(i.FLASH_WaitForLastOperation)
    i.FMOV                                   0x08002a78   Section        0  ladder.o(i.FMOV)
    FMOV                                     0x08002a79   Thumb Code   100  ladder.o(i.FMOV)
    i.FNC_AppInstruct                        0x08002ae0   Section        0  ladder.o(i.FNC_AppInstruct)
    FNC_AppInstruct                          0x08002ae1   Thumb Code  3754  ladder.o(i.FNC_AppInstruct)
    i.FOR                                    0x0800398c   Section        0  ladder.o(i.FOR)
    FOR                                      0x0800398d   Thumb Code    72  ladder.o(i.FOR)
    i.Flash_EraseProgramPage                 0x080039dc   Section        0  plc_other.o(i.Flash_EraseProgramPage)
    i.Flash_ReadKeepData                     0x08003a58   Section        0  plc_other.o(i.Flash_ReadKeepData)
    i.Flash_WriteKeepData                    0x08003acc   Section        0  plc_other.o(i.Flash_WriteKeepData)
    i.Flash_WriteKeepData_Backup             0x08003b20   Section        0  plc_other.o(i.Flash_WriteKeepData_Backup)
    i.Func_MC                                0x08003b74   Section        0  ladder.o(i.Func_MC)
    i.Func_MCR                               0x08003ba8   Section        0  ladder.o(i.Func_MCR)
    i.GPIO_EXTILineConfig                    0x08003bd4   Section        0  stm32f10x_gpio.o(i.GPIO_EXTILineConfig)
    i.GPIO_Init                              0x08003bfc   Section        0  stm32f10x_gpio.o(i.GPIO_Init)
    i.GPIO_PinRemapConfig                    0x08003c98   Section        0  stm32f10x_gpio.o(i.GPIO_PinRemapConfig)
    i.GPIO_ResetBits                         0x08003cf0   Section        0  stm32f10x_gpio.o(i.GPIO_ResetBits)
    i.GetBitOffset                           0x08003cf4   Section        0  modbus_slave.o(i.GetBitOffset)
    i.Get_A0_Count                           0x08003d88   Section        0  encode.o(i.Get_A0_Count)
    i.Get_A1_Count                           0x08003da8   Section        0  encode.o(i.Get_A1_Count)
    i.Get_AB0_Count                          0x08003dc8   Section        0  encode.o(i.Get_AB0_Count)
    i.Get_AB1_Count                          0x08003dfc   Section        0  encode.o(i.Get_AB1_Count)
    i.GtoB                                   0x08003e30   Section        0  ladder.o(i.GtoB)
    i.IWDG_Enable                            0x08003e50   Section        0  stm32f10x_iwdg.o(i.IWDG_Enable)
    i.IWDG_ReloadCounter                     0x08003e60   Section        0  stm32f10x_iwdg.o(i.IWDG_ReloadCounter)
    i.IWDG_SetPrescaler                      0x08003e70   Section        0  stm32f10x_iwdg.o(i.IWDG_SetPrescaler)
    i.IWDG_SetReload                         0x08003e7c   Section        0  stm32f10x_iwdg.o(i.IWDG_SetReload)
    i.IWDG_WriteAccessCmd                    0x08003e88   Section        0  stm32f10x_iwdg.o(i.IWDG_WriteAccessCmd)
    i.InitHardUart                           0x08003e94   Section        0  bsp_uart_fifo.o(i.InitHardUart)
    InitHardUart                             0x08003e95   Thumb Code   142  bsp_uart_fifo.o(i.InitHardUart)
    i.IsDataInvalid                          0x08003f2c   Section        0  plc_other.o(i.IsDataInvalid)
    i.Is_Leap_Year                           0x08003f5c   Section        0  rtc.o(i.Is_Leap_Year)
    i.LD                                     0x08003f84   Section        0  ladder.o(i.LD)
    LD                                       0x08003f85   Thumb Code   114  ladder.o(i.LD)
    i.LDF                                    0x08004004   Section        0  ladder.o(i.LDF)
    LDF                                      0x08004005   Thumb Code   208  ladder.o(i.LDF)
    i.LDI                                    0x080040e8   Section        0  ladder.o(i.LDI)
    LDI                                      0x080040e9   Thumb Code   114  ladder.o(i.LDI)
    i.LDP                                    0x08004168   Section        0  ladder.o(i.LDP)
    LDP                                      0x08004169   Thumb Code   190  ladder.o(i.LDP)
    i.LPF                                    0x0800423c   Section        0  ladder.o(i.LPF)
    LPF                                      0x0800423d   Thumb Code   182  ladder.o(i.LPF)
    i.LPS                                    0x08004308   Section        0  ladder.o(i.LPS)
    LPS                                      0x08004309   Thumb Code   158  ladder.o(i.LPS)
    i.MEAN                                   0x080043bc   Section        0  ladder.o(i.MEAN)
    i.MODH_ReciveNew                         0x08004478   Section        0  modbus_host.o(i.MODH_ReciveNew)
    i.MODH_RxTimeOut                         0x080044c0   Section        0  modbus_host.o(i.MODH_RxTimeOut)
    i.MODH_SendAckWithCRC                    0x080044d8   Section        0  modbus_host.o(i.MODH_SendAckWithCRC)
    MODH_SendAckWithCRC                      0x080044d9   Thumb Code    92  modbus_host.o(i.MODH_SendAckWithCRC)
    i.MODH_SendPacket                        0x08004538   Section        0  modbus_host.o(i.MODH_SendPacket)
    i.MODH_Send_01To04H                      0x08004548   Section        0  modbus_host.o(i.MODH_Send_01To04H)
    i.MODH_Send_05H                          0x080045c8   Section        0  modbus_host.o(i.MODH_Send_05H)
    i.MODH_Send_06H                          0x08004658   Section        0  modbus_host.o(i.MODH_Send_06H)
    i.MODH_Send_0FH                          0x080046e8   Section        0  modbus_host.o(i.MODH_Send_0FH)
    i.MODH_Send_10H                          0x08004818   Section        0  modbus_host.o(i.MODH_Send_10H)
    i.MODS_01H                               0x080048fc   Section        0  modbus_slave.o(i.MODS_01H)
    MODS_01H                                 0x080048fd   Thumb Code   288  modbus_slave.o(i.MODS_01H)
    i.MODS_02H                               0x08004a24   Section        0  modbus_slave.o(i.MODS_02H)
    MODS_02H                                 0x08004a25   Thumb Code   288  modbus_slave.o(i.MODS_02H)
    i.MODS_03H                               0x08004b4c   Section        0  modbus_slave.o(i.MODS_03H)
    MODS_03H                                 0x08004b4d   Thumb Code   288  modbus_slave.o(i.MODS_03H)
    i.MODS_05H                               0x08004c74   Section        0  modbus_slave.o(i.MODS_05H)
    MODS_05H                                 0x08004c75   Thumb Code   134  modbus_slave.o(i.MODS_05H)
    i.MODS_06H                               0x08004d04   Section        0  modbus_slave.o(i.MODS_06H)
    MODS_06H                                 0x08004d05   Thumb Code   136  modbus_slave.o(i.MODS_06H)
    i.MODS_0FH                               0x08004d94   Section        0  modbus_slave.o(i.MODS_0FH)
    MODS_0FH                                 0x08004d95   Thumb Code   208  modbus_slave.o(i.MODS_0FH)
    i.MODS_10H                               0x08004e6c   Section        0  modbus_slave.o(i.MODS_10H)
    MODS_10H                                 0x08004e6d   Thumb Code   194  modbus_slave.o(i.MODS_10H)
    i.MODS_AnalyzeApp                        0x08004f38   Section        0  modbus_slave.o(i.MODS_AnalyzeApp)
    MODS_AnalyzeApp                          0x08004f39   Thumb Code    90  modbus_slave.o(i.MODS_AnalyzeApp)
    i.MODS_Poll                              0x08004f98   Section        0  modbus_slave.o(i.MODS_Poll)
    i.MODS_ReciveNew                         0x08004ff8   Section        0  modbus_slave.o(i.MODS_ReciveNew)
    i.MODS_RxTimeOut                         0x08005044   Section        0  modbus_slave.o(i.MODS_RxTimeOut)
    MODS_RxTimeOut                           0x08005045   Thumb Code    22  modbus_slave.o(i.MODS_RxTimeOut)
    i.MODS_SendAckErr                        0x08005060   Section        0  modbus_slave.o(i.MODS_SendAckErr)
    MODS_SendAckErr                          0x08005061   Thumb Code    48  modbus_slave.o(i.MODS_SendAckErr)
    i.MODS_SendAckOk                         0x08005094   Section        0  modbus_slave.o(i.MODS_SendAckOk)
    MODS_SendAckOk                           0x08005095   Thumb Code    42  modbus_slave.o(i.MODS_SendAckOk)
    i.MODS_SendWithCRC                       0x080050c4   Section        0  modbus_slave.o(i.MODS_SendWithCRC)
    MODS_SendWithCRC                         0x080050c5   Thumb Code    62  modbus_slave.o(i.MODS_SendWithCRC)
    i.MOV_K                                  0x08005108   Section        0  ladder.o(i.MOV_K)
    MOV_K                                    0x08005109   Thumb Code    48  ladder.o(i.MOV_K)
    i.MOV_TO_K_H                             0x08005140   Section        0  ladder.o(i.MOV_TO_K_H)
    MOV_TO_K_H                               0x08005141   Thumb Code   270  ladder.o(i.MOV_TO_K_H)
    i.MTR                                    0x0800525c   Section        0  ladder.o(i.MTR)
    MTR                                      0x0800525d   Thumb Code   170  ladder.o(i.MTR)
    i.ModHostMode_SendDeal                   0x08005314   Section        0  modbus_host.o(i.ModHostMode_SendDeal)
    i.NVIC_Confinguration                    0x080053e4   Section        0  nvic_interrupt.o(i.NVIC_Confinguration)
    i.NVIC_Init                              0x080054e8   Section        0  misc.o(i.NVIC_Init)
    i.NVIC_PriorityGroupConfig               0x0800554c   Section        0  misc.o(i.NVIC_PriorityGroupConfig)
    i.NVIC_SetVectorTable                    0x08005560   Section        0  misc.o(i.NVIC_SetVectorTable)
    i.OR                                     0x08005574   Section        0  ladder.o(i.OR)
    OR                                       0x08005575   Thumb Code    44  ladder.o(i.OR)
    i.ORF                                    0x080055ac   Section        0  ladder.o(i.ORF)
    ORF                                      0x080055ad   Thumb Code   160  ladder.o(i.ORF)
    i.ORI                                    0x0800565c   Section        0  ladder.o(i.ORI)
    ORI                                      0x0800565d   Thumb Code    46  ladder.o(i.ORI)
    i.ORP                                    0x08005698   Section        0  ladder.o(i.ORP)
    ORP                                      0x08005699   Thumb Code   160  ladder.o(i.ORP)
    i.OUT                                    0x08005748   Section        0  ladder.o(i.OUT)
    i.PC_FORCE_OFF                           0x080057ec   Section        0  plc_com.o(i.PC_FORCE_OFF)
    i.PC_FORCE_ON                            0x0800583c   Section        0  plc_com.o(i.PC_FORCE_ON)
    i.PC_OPTION_PROG                         0x0800588c   Section        0  plc_com.o(i.PC_OPTION_PROG)
    i.PC_READ_PORG                           0x0800597c   Section        0  plc_com.o(i.PC_READ_PORG)
    i.PC_READ_Parameter                      0x08005a10   Section        0  plc_com.o(i.PC_READ_Parameter)
    i.PC_READ_byte                           0x08005bb8   Section        0  plc_com.o(i.PC_READ_byte)
    i.PC_WRITE_PORG                          0x08005bec   Section        0  plc_com.o(i.PC_WRITE_PORG)
    i.PC_WRITE_Parameter                     0x08005c8c   Section        0  plc_com.o(i.PC_WRITE_Parameter)
    i.PC_WRITE_byte                          0x08005cd4   Section        0  plc_com.o(i.PC_WRITE_byte)
    i.PID                                    0x08005d20   Section        0  ladder.o(i.PID)
    PID                                      0x08005d21   Thumb Code   216  ladder.o(i.PID)
    i.PLC_1BIT_State                         0x08005e00   Section        0  plc_com.o(i.PLC_1BIT_State)
    i.PLC_Com_BIT                            0x08005e78   Section        0  plc_com.o(i.PLC_Com_BIT)
    i.PLC_Comm_Byte                          0x08005f1c   Section        0  plc_com.o(i.PLC_Comm_Byte)
    i.PLC_Download                           0x08005fc4   Section        0  plc_com.o(i.PLC_Download)
    i.PWR_BackupAccessCmd                    0x08005fec   Section        0  stm32f10x_pwr.o(i.PWR_BackupAccessCmd)
    i.RS485_SendBuf                          0x08005ff8   Section        0  bsp_uart_fifo.o(i.RS485_SendBuf)
    i.SysTick_Handler                        0x08005ffc   Section        0  bsp_timer.o(i.SysTick_Handler)
    .ARM.__AT_0x08006000                     0x08006000   Section    34000  plc_com.o(.ARM.__AT_0x08006000)
    i.PLC_E_Expand                           0x0800e4d0   Section        0  plc_com.o(i.PLC_E_Expand)
    i.PLC_IO_Refresh                         0x0800e518   Section        0  plc_io.o(i.PLC_IO_Refresh)
    i.PLC_IO_config                          0x0800e56c   Section        0  plc_io.o(i.PLC_IO_config)
    i.PLC_LDP_TEST                           0x0800e59c   Section        0  ladder.o(i.PLC_LDP_TEST)
    PLC_LDP_TEST                             0x0800e59d   Thumb Code   116  ladder.o(i.PLC_LDP_TEST)
    i.PLC_LD_BIT                             0x0800e620   Section        0  ladder.o(i.PLC_LD_BIT)
    PLC_LD_BIT                               0x0800e621   Thumb Code    28  ladder.o(i.PLC_LD_BIT)
    i.PLC_Mode_config                        0x0800e644   Section        0  plc_io.o(i.PLC_Mode_config)
    i.PLC_PL_BIT_TEST                        0x0800e700   Section        0  ladder.o(i.PLC_PL_BIT_TEST)
    PLC_PL_BIT_TEST                          0x0800e701   Thumb Code    28  ladder.o(i.PLC_PL_BIT_TEST)
    i.PLC_PROG_ERROR                         0x0800e724   Section        0  ladder.o(i.PLC_PROG_ERROR)
    i.PLC_ProInstructParse                   0x0800e75c   Section        0  ladder.o(i.PLC_ProInstructParse)
    i.PLC_ReadKeepData                       0x0800eaa4   Section        0  plc_other.o(i.PLC_ReadKeepData)
    i.PLC_SaveKeepData                       0x0800eb24   Section        0  plc_other.o(i.PLC_SaveKeepData)
    i.PLC_StopDefaultInit                    0x0800eba4   Section        0  ladder.o(i.PLC_StopDefaultInit)
    i.PLC_Upload                             0x0800ebf8   Section        0  plc_com.o(i.PLC_Upload)
    i.PLC_X_config                           0x0800ec74   Section        0  plc_io.o(i.PLC_X_config)
    i.PLC_Y_config                           0x0800eccc   Section        0  plc_io.o(i.PLC_Y_config)
    i.PLSR_Plc_Pro                           0x0800ed3c   Section        0  pwm_output.o(i.PLSR_Plc_Pro)
    i.PLSY                                   0x0800ee04   Section        0  ladder.o(i.PLSY)
    i.PLSY_Plc_Pro                           0x0800ef0c   Section        0  pwm_output.o(i.PLSY_Plc_Pro)
    i.PWM                                    0x0800efd4   Section        0  ladder.o(i.PWM)
    PWM                                      0x0800efd5   Thumb Code   176  ladder.o(i.PWM)
    i.PWM_Plc_Pro                            0x0800f08c   Section        0  pwm_output.o(i.PWM_Plc_Pro)
    i.PWM_Y0_Restore_Config                  0x0800f110   Section        0  pwm_output.o(i.PWM_Y0_Restore_Config)
    i.PWM_Y0_Set_Config                      0x0800f154   Section        0  pwm_output.o(i.PWM_Y0_Set_Config)
    i.PWM_Y1_Restore_Config                  0x0800f180   Section        0  pwm_output.o(i.PWM_Y1_Restore_Config)
    i.PWM_Y1_Set_Config                      0x0800f1c4   Section        0  pwm_output.o(i.PWM_Y1_Set_Config)
    i.Process_switch                         0x0800f1f0   Section        0  plc_com.o(i.Process_switch)
    i.PulseOutputInit                        0x0800f28c   Section        0  pwm_output.o(i.PulseOutputInit)
    i.RCC_AHBPeriphClockCmd                  0x0800f298   Section        0  stm32f10x_rcc.o(i.RCC_AHBPeriphClockCmd)
    i.RCC_APB1PeriphClockCmd                 0x0800f2b0   Section        0  stm32f10x_rcc.o(i.RCC_APB1PeriphClockCmd)
    i.RCC_APB1PeriphResetCmd                 0x0800f2c8   Section        0  stm32f10x_rcc.o(i.RCC_APB1PeriphResetCmd)
    i.RCC_APB2PeriphClockCmd                 0x0800f2e0   Section        0  stm32f10x_rcc.o(i.RCC_APB2PeriphClockCmd)
    i.RCC_APB2PeriphResetCmd                 0x0800f2f8   Section        0  stm32f10x_rcc.o(i.RCC_APB2PeriphResetCmd)
    i.RCC_BackupResetCmd                     0x0800f310   Section        0  stm32f10x_rcc.o(i.RCC_BackupResetCmd)
    i.RCC_ClearFlag                          0x0800f31c   Section        0  stm32f10x_rcc.o(i.RCC_ClearFlag)
    i.RCC_GetClocksFreq                      0x0800f32c   Section        0  stm32f10x_rcc.o(i.RCC_GetClocksFreq)
    i.RCC_GetFlagStatus                      0x0800f3c0   Section        0  stm32f10x_rcc.o(i.RCC_GetFlagStatus)
    i.RCC_LSEConfig                          0x0800f3f0   Section        0  stm32f10x_rcc.o(i.RCC_LSEConfig)
    i.RCC_LSICmd                             0x0800f410   Section        0  stm32f10x_rcc.o(i.RCC_LSICmd)
    i.RCC_RTCCLKCmd                          0x0800f41c   Section        0  stm32f10x_rcc.o(i.RCC_RTCCLKCmd)
    i.RCC_RTCCLKConfig                       0x0800f428   Section        0  stm32f10x_rcc.o(i.RCC_RTCCLKConfig)
    i.READ_plc_programCodeBuf                0x0800f438   Section        0  plc_com.o(i.READ_plc_programCodeBuf)
    i.RESET_C                                0x0800f470   Section        0  ladder.o(i.RESET_C)
    RESET_C                                  0x0800f471   Thumb Code   172  ladder.o(i.RESET_C)
    i.RESET_T                                0x0800f530   Section        0  ladder.o(i.RESET_T)
    RESET_T                                  0x0800f531   Thumb Code   108  ladder.o(i.RESET_T)
    i.RS                                     0x0800f5ac   Section        0  ladder.o(i.RS)
    RS                                       0x0800f5ad   Thumb Code   310  ladder.o(i.RS)
    i.RS485_InitTXE                          0x0800f6f4   Section        0  bsp_uart_fifo.o(i.RS485_InitTXE)
    i.RS485_ReciveNew                        0x0800f740   Section        0  bsp_uart_fifo.o(i.RS485_ReciveNew)
    i.RS485_SendBefor                        0x0800f778   Section        0  bsp_uart_fifo.o(i.RS485_SendBefor)
    i.RS485_SendOver                         0x0800f7b0   Section        0  bsp_uart_fifo.o(i.RS485_SendOver)
    i.RST                                    0x0800f7e8   Section        0  ladder.o(i.RST)
    RST                                      0x0800f7e9   Thumb Code    30  ladder.o(i.RST)
    i.RST_D                                  0x0800f814   Section        0  ladder.o(i.RST_D)
    RST_D                                    0x0800f815   Thumb Code    92  ladder.o(i.RST_D)
    i.RST_T_D_C_M_data                       0x0800f878   Section        0  plc_other.o(i.RST_T_D_C_M_data)
    i.RST_Y                                  0x0800f8f4   Section        0  ladder.o(i.RST_Y)
    i.RTC_Config                             0x0800f904   Section        0  rtc.o(i.RTC_Config)
    i.RTC_EnterConfigMode                    0x0800f95c   Section        0  stm32f10x_rtc.o(i.RTC_EnterConfigMode)
    i.RTC_ExitConfigMode                     0x0800f96c   Section        0  stm32f10x_rtc.o(i.RTC_ExitConfigMode)
    i.RTC_Get                                0x0800f97c   Section        0  rtc.o(i.RTC_Get)
    i.RTC_GetCounter                         0x0800fab0   Section        0  stm32f10x_rtc.o(i.RTC_GetCounter)
    i.RTC_Get_Week                           0x0800fac4   Section        0  rtc.o(i.RTC_Get_Week)
    i.RTC_ITConfig                           0x0800fb1c   Section        0  stm32f10x_rtc.o(i.RTC_ITConfig)
    i.RTC_Init                               0x0800fb34   Section        0  rtc.o(i.RTC_Init)
    i.RTC_Set                                0x0800fbb4   Section        0  rtc.o(i.RTC_Set)
    i.RTC_SetCounter                         0x0800fc78   Section        0  stm32f10x_rtc.o(i.RTC_SetCounter)
    i.RTC_SetPrescaler                       0x0800fc98   Section        0  stm32f10x_rtc.o(i.RTC_SetPrescaler)
    i.RTC_WaitForLastTask                    0x0800fcb8   Section        0  stm32f10x_rtc.o(i.RTC_WaitForLastTask)
    i.RTC_WaitForSynchro                     0x0800fcc8   Section        0  stm32f10x_rtc.o(i.RTC_WaitForSynchro)
    i.RX_Process                             0x0800fce0   Section        0  plc_com.o(i.RX_Process)
    i.SMOV                                   0x0800fdf4   Section        0  ladder.o(i.SMOV)
    SMOV                                     0x0800fdf5   Thumb Code   166  ladder.o(i.SMOV)
    i.STL                                    0x0800fea4   Section        0  ladder.o(i.STL)
    i.SetSysClockTo72                        0x0800fee0   Section        0  system_stm32f10x.o(i.SetSysClockTo72)
    SetSysClockTo72                          0x0800fee1   Thumb Code   160  system_stm32f10x.o(i.SetSysClockTo72)
    i.SpecialTarget                          0x0800ff88   Section        0  ladder.o(i.SpecialTarget)
    SpecialTarget                            0x0800ff89   Thumb Code   786  ladder.o(i.SpecialTarget)
    i.Special_cos_value                      0x080102a8   Section        0  ladder.o(i.Special_cos_value)
    Special_cos_value                        0x080102a9   Thumb Code  1284  ladder.o(i.Special_cos_value)
    i.SysTick_ISR                            0x080107ac   Section        0  bsp_timer.o(i.SysTick_ISR)
    i.SystemInit                             0x080109f0   Section        0  system_stm32f10x.o(i.SystemInit)
    i.TADD                                   0x08010a40   Section        0  ladder.o(i.TADD)
    TADD                                     0x08010a41   Thumb Code    72  ladder.o(i.TADD)
    i.TCMP                                   0x08010a90   Section        0  ladder.o(i.TCMP)
    TCMP                                     0x08010a91   Thumb Code   270  ladder.o(i.TCMP)
    i.TI1_Config                             0x08010bb0   Section        0  stm32f10x_tim.o(i.TI1_Config)
    TI1_Config                               0x08010bb1   Thumb Code    88  stm32f10x_tim.o(i.TI1_Config)
    i.TI2_Config                             0x08010c1c   Section        0  stm32f10x_tim.o(i.TI2_Config)
    TI2_Config                               0x08010c1d   Thumb Code   102  stm32f10x_tim.o(i.TI2_Config)
    i.TIM1_NVIC_Configuration                0x08010c98   Section        0  pwm_output.o(i.TIM1_NVIC_Configuration)
    i.TIM1_UP_IRQHandler                     0x08010cbc   Section        0  pwm_output.o(i.TIM1_UP_IRQHandler)
    i.TIM2_IRQHandler                        0x08010f38   Section        0  encode.o(i.TIM2_IRQHandler)
    i.TIM3_IRQHandler                        0x08010f68   Section        0  encode.o(i.TIM3_IRQHandler)
    i.TIM5_IRQHandler                        0x08010f9c   Section        0  bsp_timer.o(i.TIM5_IRQHandler)
    i.TIM8_NVIC_Configuration                0x0801103c   Section        0  pwm_output.o(i.TIM8_NVIC_Configuration)
    i.TIM8_UP_IRQHandler                     0x08011060   Section        0  pwm_output.o(i.TIM8_UP_IRQHandler)
    i.TIM_ARRPreloadConfig                   0x080112dc   Section        0  stm32f10x_tim.o(i.TIM_ARRPreloadConfig)
    i.TIM_BDTRConfig                         0x080112f0   Section        0  stm32f10x_tim.o(i.TIM_BDTRConfig)
    i.TIM_ClearFlag                          0x08011312   Section        0  stm32f10x_tim.o(i.TIM_ClearFlag)
    i.TIM_ClearITPendingBit                  0x08011318   Section        0  stm32f10x_tim.o(i.TIM_ClearITPendingBit)
    i.TIM_Cmd                                0x0801131e   Section        0  stm32f10x_tim.o(i.TIM_Cmd)
    i.TIM_CtrlPWMOutputs                     0x08011332   Section        0  stm32f10x_tim.o(i.TIM_CtrlPWMOutputs)
    i.TIM_DeInit                             0x08011348   Section        0  stm32f10x_tim.o(i.TIM_DeInit)
    i.TIM_EncoderInterfaceConfig             0x080114b8   Section        0  stm32f10x_tim.o(i.TIM_EncoderInterfaceConfig)
    i.TIM_GetCounter                         0x080114ea   Section        0  stm32f10x_tim.o(i.TIM_GetCounter)
    i.TIM_GetITStatus                        0x080114ee   Section        0  stm32f10x_tim.o(i.TIM_GetITStatus)
    i.TIM_ICInit                             0x08011508   Section        0  stm32f10x_tim.o(i.TIM_ICInit)
    i.TIM_ICStructInit                       0x08011634   Section        0  stm32f10x_tim.o(i.TIM_ICStructInit)
    i.TIM_ITConfig                           0x08011644   Section        0  stm32f10x_tim.o(i.TIM_ITConfig)
    i.TIM_OC1Init                            0x08011654   Section        0  stm32f10x_tim.o(i.TIM_OC1Init)
    i.TIM_OC1PreloadConfig                   0x080116d4   Section        0  stm32f10x_tim.o(i.TIM_OC1PreloadConfig)
    i.TIM_OC4Init                            0x080116e0   Section        0  stm32f10x_tim.o(i.TIM_OC4Init)
    i.TIM_OC4PreloadConfig                   0x08011744   Section        0  stm32f10x_tim.o(i.TIM_OC4PreloadConfig)
    i.TIM_SelectInputTrigger                 0x08011758   Section        0  stm32f10x_tim.o(i.TIM_SelectInputTrigger)
    i.TIM_SetCompare1                        0x08011764   Section        0  stm32f10x_tim.o(i.TIM_SetCompare1)
    i.TIM_SetCompare2                        0x08011768   Section        0  stm32f10x_tim.o(i.TIM_SetCompare2)
    i.TIM_SetCompare3                        0x0801176c   Section        0  stm32f10x_tim.o(i.TIM_SetCompare3)
    i.TIM_SetCompare4                        0x08011770   Section        0  stm32f10x_tim.o(i.TIM_SetCompare4)
    i.TIM_SetCounter                         0x08011776   Section        0  stm32f10x_tim.o(i.TIM_SetCounter)
    i.TIM_SetIC1Prescaler                    0x0801177a   Section        0  stm32f10x_tim.o(i.TIM_SetIC1Prescaler)
    i.TIM_SetIC2Prescaler                    0x0801178a   Section        0  stm32f10x_tim.o(i.TIM_SetIC2Prescaler)
    i.TIM_SetIC3Prescaler                    0x080117a2   Section        0  stm32f10x_tim.o(i.TIM_SetIC3Prescaler)
    i.TIM_SetIC4Prescaler                    0x080117b2   Section        0  stm32f10x_tim.o(i.TIM_SetIC4Prescaler)
    i.TIM_TIxExternalClockConfig             0x080117ca   Section        0  stm32f10x_tim.o(i.TIM_TIxExternalClockConfig)
    i.TIM_TimeBaseInit                       0x080117f8   Section        0  stm32f10x_tim.o(i.TIM_TimeBaseInit)
    i.TRD                                    0x08011894   Section        0  ladder.o(i.TRD)
    TRD                                      0x08011895   Thumb Code    62  ladder.o(i.TRD)
    i.TSUB                                   0x080118e0   Section        0  ladder.o(i.TSUB)
    TSUB                                     0x080118e1   Thumb Code    72  ladder.o(i.TSUB)
    i.TWR                                    0x08011930   Section        0  ladder.o(i.TWR)
    TWR                                      0x08011931   Thumb Code    52  ladder.o(i.TWR)
    i.TX_Process                             0x0801196c   Section        0  plc_com.o(i.TX_Process)
    i.TZCP                                   0x08011994   Section        0  ladder.o(i.TZCP)
    TZCP                                     0x08011995   Thumb Code   300  ladder.o(i.TZCP)
    i.T_100MS                                0x08011ad0   Section        0  plc_timer.o(i.T_100MS)
    i.T_10MS                                 0x08011b40   Section        0  plc_timer.o(i.T_10MS)
    i.T_1MS                                  0x08011bb0   Section        0  plc_timer.o(i.T_1MS)
    i.T_H100MS                               0x08011c20   Section        0  plc_timer.o(i.T_H100MS)
    i.T_given_value_D                        0x08011c90   Section        0  ladder.o(i.T_given_value_D)
    T_given_value_D                          0x08011c91   Thumb Code   112  ladder.o(i.T_given_value_D)
    i.USART1_Configuration                   0x08011d08   Section        0  plc_com.o(i.USART1_Configuration)
    i.USART1_IRQHandler                      0x08011dcc   Section        0  plc_com.o(i.USART1_IRQHandler)
    i.USART3_IRQHandler                      0x08011e4c   Section        0  bsp_uart_fifo.o(i.USART3_IRQHandler)
    i.USART_ClearFlag                        0x08011e58   Section        0  stm32f10x_usart.o(i.USART_ClearFlag)
    i.USART_ClearITPendingBit                0x08011e5e   Section        0  stm32f10x_usart.o(i.USART_ClearITPendingBit)
    i.USART_Cmd                              0x08011e6a   Section        0  stm32f10x_usart.o(i.USART_Cmd)
    i.USART_DMACmd                           0x08011e7e   Section        0  stm32f10x_usart.o(i.USART_DMACmd)
    i.USART_GetFlagStatus                    0x08011e8e   Section        0  stm32f10x_usart.o(i.USART_GetFlagStatus)
    i.USART_GetITStatus                      0x08011e9c   Section        0  stm32f10x_usart.o(i.USART_GetITStatus)
    i.USART_ITConfig                         0x08011eda   Section        0  stm32f10x_usart.o(i.USART_ITConfig)
    i.USART_Init                             0x08011f0c   Section        0  stm32f10x_usart.o(i.USART_Init)
    i.USART_ReceiveData                      0x08011fb8   Section        0  stm32f10x_usart.o(i.USART_ReceiveData)
    i.USART_SendData                         0x08011fc0   Section        0  stm32f10x_usart.o(i.USART_SendData)
    i.UartIRQ                                0x08011fc8   Section        0  bsp_uart_fifo.o(i.UartIRQ)
    UartIRQ                                  0x08011fc9   Thumb Code   276  bsp_uart_fifo.o(i.UartIRQ)
    i.UartVarInit                            0x080120dc   Section        0  bsp_uart_fifo.o(i.UartVarInit)
    UartVarInit                              0x080120dd   Thumb Code    64  bsp_uart_fifo.o(i.UartVarInit)
    i.V0_V3                                  0x08012130   Section        0  ladder.o(i.V0_V3)
    i.V4_V7                                  0x08012164   Section        0  ladder.o(i.V4_V7)
    i.X_Io_Restore                           0x08012198   Section        0  encode.o(i.X_Io_Restore)
    i.X_filter                               0x080121ec   Section        0  plc_io.o(i.X_filter)
    i.Y0_Tim_Mode_Config                     0x08012354   Section        0  pwm_output.o(i.Y0_Tim_Mode_Config)
    i.Y0_Tim_Mode_Config_DIASBLE             0x0801242c   Section        0  pwm_output.o(i.Y0_Tim_Mode_Config_DIASBLE)
    i.Y1_Tim_Mode_Config                     0x0801245c   Section        0  pwm_output.o(i.Y1_Tim_Mode_Config)
    i.Y1_Tim_Mode_Config_DIASBLE             0x08012534   Section        0  pwm_output.o(i.Y1_Tim_Mode_Config_DIASBLE)
    i.Z0_Z3                                  0x08012564   Section        0  ladder.o(i.Z0_Z3)
    i.Z4_Z7                                  0x08012598   Section        0  ladder.o(i.Z4_Z7)
    i.ZCP                                    0x080125cc   Section        0  ladder.o(i.ZCP)
    ZCP                                      0x080125cd   Thumb Code   208  ladder.o(i.ZCP)
    i._IWDG_Init                             0x080126a8   Section        0  main.o(i._IWDG_Init)
    i.__ARM_fpclassify                       0x080126f0   Section        0  fpclassify.o(i.__ARM_fpclassify)
    i.__ieee754_rem_pio2                     0x08012718   Section        0  rred.o(i.__ieee754_rem_pio2)
    i.__kernel_cos                           0x08012aa0   Section        0  cos_i.o(i.__kernel_cos)
    i.__kernel_poly                          0x08012b9c   Section        0  poly.o(i.__kernel_poly)
    i.__kernel_sin                           0x08012c48   Section        0  sin_i.o(i.__kernel_sin)
    i.__kernel_tan                           0x08012d34   Section        0  tan_i.o(i.__kernel_tan)
    i.__mathlib_dbl_infnan                   0x08012fb0   Section        0  dunder.o(i.__mathlib_dbl_infnan)
    i.__mathlib_dbl_invalid                  0x08012fb6   Section        0  dunder.o(i.__mathlib_dbl_invalid)
    i.__mathlib_dbl_underflow                0x08012fc4   Section        0  dunder.o(i.__mathlib_dbl_underflow)
    i.addr_value                             0x08012fd4   Section        0  ladder.o(i.addr_value)
    addr_value                               0x08012fd5   Thumb Code    60  ladder.o(i.addr_value)
    i.addr_value_prog                        0x08013014   Section        0  ladder.o(i.addr_value_prog)
    addr_value_prog                          0x08013015   Thumb Code   232  ladder.o(i.addr_value_prog)
    i.all_flash_lock                         0x08013110   Section        0  plc_com.o(i.all_flash_lock)
    i.all_flash_unlock                       0x0801313c   Section        0  plc_com.o(i.all_flash_unlock)
    i.amount                                 0x0801315c   Section        0  ladder.o(i.amount)
    amount                                   0x0801315d   Thumb Code   120  ladder.o(i.amount)
    i.b2g                                    0x080131e0   Section        0  ladder.o(i.b2g)
    i.backup_block                           0x08013218   Section        0  plc_com.o(i.backup_block)
    i.big                                    0x08013248   Section        0  ladder.o(i.big)
    big                                      0x08013249   Thumb Code   120  ladder.o(i.big)
    i.big_amount                             0x080132cc   Section        0  ladder.o(i.big_amount)
    big_amount                               0x080132cd   Thumb Code   120  ladder.o(i.big_amount)
    i.bsp_Idle                               0x08013350   Section        0  bsp.o(i.bsp_Idle)
    i.bsp_Init                               0x08013356   Section        0  bsp.o(i.bsp_Init)
    i.bsp_InitHardTimer                      0x0801336c   Section        0  bsp_timer.o(i.bsp_InitHardTimer)
    i.bsp_InitTimer                          0x080133d4   Section        0  bsp_timer.o(i.bsp_InitTimer)
    i.bsp_InitUart                           0x08013434   Section        0  bsp_uart_fifo.o(i.bsp_InitUart)
    i.bsp_StartHardTimer                     0x0801345c   Section        0  bsp_timer.o(i.bsp_StartHardTimer)
    i.comSendBuf                             0x080134fc   Section        0  bsp_uart_fifo.o(i.comSendBuf)
    i.cos                                    0x0801357c   Section        0  cos.o(i.cos)
    i.cos_u32_value                          0x08013618   Section        0  ladder.o(i.cos_u32_value)
    cos_u32_value                            0x08013619   Thumb Code  1318  ladder.o(i.cos_u32_value)
    i.cos_value                              0x08013b40   Section        0  ladder.o(i.cos_value)
    cos_value                                0x08013b41   Thumb Code  1256  ladder.o(i.cos_value)
    i.data_init                              0x08014028   Section        0  plc_com.o(i.data_init)
    i.disable_C_D                            0x08014088   Section        0  ladder.o(i.disable_C_D)
    disable_C_D                              0x08014089   Thumb Code   266  ladder.o(i.disable_C_D)
    i.disable_C_K                            0x080141ac   Section        0  ladder.o(i.disable_C_K)
    disable_C_K                              0x080141ad   Thumb Code   256  ladder.o(i.disable_C_K)
    i.disable_T                              0x080142c4   Section        0  ladder.o(i.disable_T)
    disable_T                                0x080142c5   Thumb Code    34  ladder.o(i.disable_T)
    i.enable_C_D                             0x080142ec   Section        0  ladder.o(i.enable_C_D)
    enable_C_D                               0x080142ed   Thumb Code   296  ladder.o(i.enable_C_D)
    i.enable_C_K                             0x0801442c   Section        0  ladder.o(i.enable_C_K)
    enable_C_K                               0x0801442d   Thumb Code   312  ladder.o(i.enable_C_K)
    i.enable_T_K                             0x0801457c   Section        0  ladder.o(i.enable_T_K)
    enable_T_K                               0x0801457d   Thumb Code    54  ladder.o(i.enable_T_K)
    i.expand_AND                             0x080145bc   Section        0  ladder.o(i.expand_AND)
    i.expand_ANI                             0x080145d8   Section        0  ladder.o(i.expand_ANI)
    i.expand_LD                              0x080145f4   Section        0  ladder.o(i.expand_LD)
    i.expand_LDI                             0x08014610   Section        0  ladder.o(i.expand_LDI)
    i.expand_OR                              0x0801462c   Section        0  ladder.o(i.expand_OR)
    i.expand_ORI                             0x08014648   Section        0  ladder.o(i.expand_ORI)
    i.expand_OUT                             0x08014664   Section        0  ladder.o(i.expand_OUT)
    i.expand_RST                             0x08014680   Section        0  ladder.o(i.expand_RST)
    i.expand_SET                             0x0801469c   Section        0  ladder.o(i.expand_SET)
    i.find_data                              0x080146b8   Section        0  plc_com.o(i.find_data)
    find_data                                0x080146b9   Thumb Code    58  plc_com.o(i.find_data)
    i.find_data_address                      0x080146f8   Section        0  plc_com.o(i.find_data_address)
    find_data_address                        0x080146f9   Thumb Code   112  plc_com.o(i.find_data_address)
    i.find_end                               0x08014774   Section        0  plc_com.o(i.find_end)
    i.find_p                                 0x08014790   Section        0  ladder.o(i.find_p)
    i.find_toend                             0x080147cc   Section        0  ladder.o(i.find_toend)
    i.float_target                           0x080147f8   Section        0  ladder.o(i.float_target)
    float_target                             0x080147f9   Thumb Code    36  ladder.o(i.float_target)
    i.float_value                            0x08014824   Section        0  ladder.o(i.float_value)
    float_value                              0x08014825   Thumb Code   164  ladder.o(i.float_value)
    i.g2b                                    0x080148d4   Section        0  ladder.o(i.g2b)
    i.less                                   0x08014910   Section        0  ladder.o(i.less)
    less                                     0x08014911   Thumb Code   120  ladder.o(i.less)
    i.less_amount                            0x08014994   Section        0  ladder.o(i.less_amount)
    less_amount                              0x08014995   Thumb Code   128  ladder.o(i.less_amount)
    i.main                                   0x08014a20   Section        0  main.o(i.main)
    i.mov_flash                              0x08014a98   Section        0  plc_com.o(i.mov_flash)
    i.no_amount                              0x08014b88   Section        0  ladder.o(i.no_amount)
    no_amount                                0x08014b89   Thumb Code   120  ladder.o(i.no_amount)
    i.online_write_data                      0x08014c0c   Section        0  plc_com.o(i.online_write_data)
    i.other_function                         0x08014d48   Section        0  ladder.o(i.other_function)
    other_function                           0x08014d49   Thumb Code   104  ladder.o(i.other_function)
    i.read_other_data                        0x08014db4   Section        0  plc_com.o(i.read_other_data)
    i.read_plc_tyte                          0x08014e48   Section        0  plc_com.o(i.read_plc_tyte)
    i.setup_HL                               0x08014ec8   Section        0  plc_com.o(i.setup_HL)
    i.setup_LH                               0x08014ee0   Section        0  plc_com.o(i.setup_LH)
    i.sin                                    0x08014ef8   Section        0  sin.o(i.sin)
    i.sqrt                                   0x08014f98   Section        0  sqrt.o(i.sqrt)
    i.switch_read_data                       0x08014fe4   Section        0  plc_com.o(i.switch_read_data)
    i.tan                                    0x08015024   Section        0  tan.o(i.tan)
    i.target                                 0x08015088   Section        0  ladder.o(i.target)
    target                                   0x08015089   Thumb Code   698  ladder.o(i.target)
    i.timer_disble                           0x08015350   Section        0  plc_timer.o(i.timer_disble)
    i.timer_enable                           0x080153cc   Section        0  plc_timer.o(i.timer_enable)
    i.usart                                  0x08015454   Section        0  plc_com.o(i.usart)
    i.write_block                            0x08015484   Section        0  plc_com.o(i.write_block)
    i.xMBUtilGetBits                         0x080154e0   Section        0  modbus_slave.o(i.xMBUtilGetBits)
    i.xMBUtilSetBits                         0x080154fe   Section        0  modbus_slave.o(i.xMBUtilSetBits)
    x$fpl$d2f                                0x08015528   Section       98  d2f.o(x$fpl$d2f)
    x$fpl$dadd                               0x0801558c   Section      336  daddsub_clz.o(x$fpl$dadd)
    _dadd1                                   0x0801559d   Thumb Code     0  daddsub_clz.o(x$fpl$dadd)
    x$fpl$dcheck1                            0x080156dc   Section       16  dcheck1.o(x$fpl$dcheck1)
    x$fpl$ddiv                               0x080156ec   Section      688  ddiv.o(x$fpl$ddiv)
    ddiv_entry                               0x080156f3   Thumb Code     0  ddiv.o(x$fpl$ddiv)
    x$fpl$dfix                               0x0801599c   Section       94  dfix.o(x$fpl$dfix)
    x$fpl$dfixu                              0x080159fc   Section       90  dfixu.o(x$fpl$dfixu)
    x$fpl$dflt                               0x08015a56   Section       46  dflt_clz.o(x$fpl$dflt)
    x$fpl$dfltu                              0x08015a84   Section       38  dflt_clz.o(x$fpl$dfltu)
    x$fpl$dmul                               0x08015aac   Section      340  dmul.o(x$fpl$dmul)
    x$fpl$dnaninf                            0x08015c00   Section      156  dnaninf.o(x$fpl$dnaninf)
    x$fpl$dretinf                            0x08015c9c   Section       12  dretinf.o(x$fpl$dretinf)
    x$fpl$drsb                               0x08015ca8   Section       22  daddsub_clz.o(x$fpl$drsb)
    x$fpl$dsqrt                              0x08015cc0   Section      460  dsqrt_noumaal.o(x$fpl$dsqrt)
    x$fpl$dsub                               0x08015e8c   Section      468  daddsub_clz.o(x$fpl$dsub)
    _dsub1                                   0x08015e9d   Thumb Code     0  daddsub_clz.o(x$fpl$dsub)
    x$fpl$f2d                                0x08016060   Section       86  f2d.o(x$fpl$f2d)
    x$fpl$fadd                               0x080160b8   Section      196  faddsub_clz.o(x$fpl$fadd)
    _fadd1                                   0x080160c7   Thumb Code     0  faddsub_clz.o(x$fpl$fadd)
    x$fpl$fcmpinf                            0x0801617c   Section       24  fcmpi.o(x$fpl$fcmpinf)
    x$fpl$fdiv                               0x08016194   Section      388  fdiv.o(x$fpl$fdiv)
    _fdiv1                                   0x08016195   Thumb Code     0  fdiv.o(x$fpl$fdiv)
    x$fpl$feqf                               0x08016318   Section      104  feqf.o(x$fpl$feqf)
    x$fpl$ffixu                              0x08016380   Section       62  ffixu.o(x$fpl$ffixu)
    x$fpl$fflt                               0x080163c0   Section       48  fflt_clz.o(x$fpl$fflt)
    x$fpl$fleqf                              0x080163f0   Section      104  fleqf.o(x$fpl$fleqf)
    x$fpl$fmul                               0x08016458   Section      258  fmul.o(x$fpl$fmul)
    x$fpl$fnaninf                            0x0801655a   Section      140  fnaninf.o(x$fpl$fnaninf)
    x$fpl$fretinf                            0x080165e6   Section       10  fretinf.o(x$fpl$fretinf)
    x$fpl$frleqf                             0x080165f0   Section       98  frleqf.o(x$fpl$frleqf)
    x$fpl$fsub                               0x08016654   Section      234  faddsub_clz.o(x$fpl$fsub)
    _fsub1                                   0x08016663   Thumb Code     0  faddsub_clz.o(x$fpl$fsub)
    x$fpl$retnan                             0x0801673e   Section      100  retnan.o(x$fpl$retnan)
    x$fpl$scalbn                             0x080167a2   Section       92  scalbn.o(x$fpl$scalbn)
    x$fpl$trapveneer                         0x080167fe   Section       48  trapv.o(x$fpl$trapveneer)
    .constdata                               0x0801682e   Section       12  rtc.o(.constdata)
    x$fpl$usenofp                            0x0801682e   Section        0  usenofp.o(x$fpl$usenofp)
    .constdata                               0x0801683a   Section       66  ladder.o(.constdata)
    .constdata                               0x0801687c   Section      609  plc_com.o(.constdata)
    .constdata                               0x08016add   Section      512  bsp_user_lib.o(.constdata)
    s_CRCHi                                  0x08016add   Data         256  bsp_user_lib.o(.constdata)
    .constdata                               0x08016cdd   Section        4  modbus_slave.o(.constdata)
    .constdata                               0x08016ce8   Section       48  cos_i.o(.constdata)
    C                                        0x08016ce8   Data          48  cos_i.o(.constdata)
    .constdata                               0x08016d18   Section      200  rred.o(.constdata)
    pio2s                                    0x08016d18   Data          48  rred.o(.constdata)
    twooverpi                                0x08016d48   Data         152  rred.o(.constdata)
    .constdata                               0x08016de0   Section       40  sin_i.o(.constdata)
    S                                        0x08016de0   Data          40  sin_i.o(.constdata)
    .constdata                               0x08016e08   Section       96  tan_i.o(.constdata)
    Todd                                     0x08016e08   Data          48  tan_i.o(.constdata)
    Teven                                    0x08016e38   Data          48  tan_i.o(.constdata)
    .data                                    0x20000000   Section       20  stm32f10x_rcc.o(.data)
    ADCPrescTable                            0x20000000   Data           4  stm32f10x_rcc.o(.data)
    APBAHBPrescTable                         0x20000004   Data          16  stm32f10x_rcc.o(.data)
    .data                                    0x20000014   Section       20  system_stm32f10x.o(.data)
    .data                                    0x20000028   Section       15  rtc.o(.data)
    daycnt                                   0x20000028   Data           2  rtc.o(.data)
    .data                                    0x20000038   Section       10  plc_io.o(.data)
    .data                                    0x20000042   Section        1  plc_io.o(.data)
    .data                                    0x20000043   Section        1  plc_io.o(.data)
    .data                                    0x20000044   Section       48  plc_timer.o(.data)
    pSetValue                                0x20000044   Data           4  plc_timer.o(.data)
    pCurrentValue                            0x20000048   Data           4  plc_timer.o(.data)
    pT_DisSetValue                           0x2000004c   Data           4  plc_timer.o(.data)
    pT_DisCurrentValue                       0x20000050   Data           4  plc_timer.o(.data)
    pT_100msSetValue                         0x20000054   Data           4  plc_timer.o(.data)
    pT_100msCurrentValue                     0x20000058   Data           4  plc_timer.o(.data)
    pT_10msSetValue                          0x2000005c   Data           4  plc_timer.o(.data)
    pT_10msCurrentValue                      0x20000060   Data           4  plc_timer.o(.data)
    pT_1msSetValue                           0x20000064   Data           4  plc_timer.o(.data)
    pT_1msCurrentValue                       0x20000068   Data           4  plc_timer.o(.data)
    pHT_100msSetValue                        0x2000006c   Data           4  plc_timer.o(.data)
    pHT_100msCurrentValue                    0x20000070   Data           4  plc_timer.o(.data)
    .data                                    0x20000078   Section      144  ladder.o(.data)
    temp                                     0x20000079   Data           1  ladder.o(.data)
    PLC_ACC_BIT                              0x2000007a   Data           1  ladder.o(.data)
    PLC_MPS_BIT                              0x2000007b   Data           1  ladder.o(.data)
    T_number                                 0x2000007c   Data           1  ladder.o(.data)
    C_number                                 0x2000007d   Data           1  ladder.o(.data)
    PLC_STL_Status                           0x20000081   Data           1  ladder.o(.data)
    PLC_STL_CMD                              0x20000082   Data           1  ladder.o(.data)
    PLC_STL_Count                            0x20000083   Data           1  ladder.o(.data)
    puls                                     0x20000084   Data           1  ladder.o(.data)
    run_flag                                 0x20000085   Data           1  ladder.o(.data)
    LL_BIT                                   0x20000088   Data           2  ladder.o(.data)
    JOB_ADDR                                 0x2000008a   Data           2  ladder.o(.data)
    temp                                     0x2000008c   Data           2  ladder.o(.data)
    temp1                                    0x2000008e   Data           2  ladder.o(.data)
    temp                                     0x20000090   Data           2  ladder.o(.data)
    temp                                     0x20000092   Data           2  ladder.o(.data)
    T_value                                  0x20000094   Data           2  ladder.o(.data)
    C_value                                  0x20000096   Data           2  ladder.o(.data)
    PLC_STL_Addr                             0x20000098   Data           2  ladder.o(.data)
    p_data                                   0x2000009c   Data           4  ladder.o(.data)
    temp                                     0x200000a0   Data           4  ladder.o(.data)
    temp1                                    0x200000a4   Data           4  ladder.o(.data)
    temp2                                    0x200000a8   Data           4  ladder.o(.data)
    temp1                                    0x200000ac   Data           4  ladder.o(.data)
    temp2                                    0x200000b0   Data           4  ladder.o(.data)
    temp1                                    0x200000b4   Data           4  ladder.o(.data)
    temp2                                    0x200000b8   Data           4  ladder.o(.data)
    p_data                                   0x200000bc   Data           4  ladder.o(.data)
    p_data                                   0x200000c0   Data           4  ladder.o(.data)
    p_data                                   0x200000c4   Data           4  ladder.o(.data)
    p_data                                   0x200000c8   Data           4  ladder.o(.data)
    p_data                                   0x200000cc   Data           4  ladder.o(.data)
    PLC_Addr                                 0x200000d0   Data           4  ladder.o(.data)
    PLC_Err                                  0x200000d4   Data           4  ladder.o(.data)
    mov_d_addr                               0x200000d8   Data           4  ladder.o(.data)
    MOV_DATA_64BIT                           0x200000f8   Data           8  ladder.o(.data)
    .data                                    0x20000108   Section        6  pwm_output.o(.data)
    i                                        0x20000108   Data           1  pwm_output.o(.data)
    j                                        0x20000109   Data           1  pwm_output.o(.data)
    k                                        0x2000010a   Data           1  pwm_output.o(.data)
    i                                        0x2000010b   Data           1  pwm_output.o(.data)
    j                                        0x2000010c   Data           1  pwm_output.o(.data)
    k                                        0x2000010d   Data           1  pwm_output.o(.data)
    .data                                    0x20000110   Section       28  encode.o(.data)
    C251_4TIMES                              0x20000124   Data           4  encode.o(.data)
    C253_4TIMES                              0x20000128   Data           4  encode.o(.data)
    .data                                    0x2000012c   Section       20  adc.o(.data)
    cnt                                      0x2000012d   Data           1  adc.o(.data)
    .data                                    0x20000140   Section       22  plc_com.o(.data)
    Flag_Uart_Send                           0x20000140   Data           1  plc_com.o(.data)
    offset                                   0x20000142   Data           1  plc_com.o(.data)
    sum                                      0x20000143   Data           1  plc_com.o(.data)
    f                                        0x20000144   Data           1  plc_com.o(.data)
    temp                                     0x20000148   Data           2  plc_com.o(.data)
    Size                                     0x2000014a   Data           2  plc_com.o(.data)
    .data                                    0x20000158   Section       32  bsp_timer.o(.data)
    s_ucTimeOutFlag                          0x20000158   Data           1  bsp_timer.o(.data)
    all_clock                                0x2000015a   Data           1  bsp_timer.o(.data)
    minute                                   0x2000015c   Data           2  bsp_timer.o(.data)
    s_uiDelayCount                           0x20000160   Data           4  bsp_timer.o(.data)
    s_TIM_CallBack1                          0x20000168   Data           4  bsp_timer.o(.data)
    s_TIM_CallBack2                          0x2000016c   Data           4  bsp_timer.o(.data)
    s_TIM_CallBack3                          0x20000170   Data           4  bsp_timer.o(.data)
    s_TIM_CallBack4                          0x20000174   Data           4  bsp_timer.o(.data)
    .bss                                     0x20000178   Section       33  plc_io.o(.bss)
    x_buffer                                 0x20000178   Data          33  plc_io.o(.bss)
    .bss                                     0x2000019c   Section     1732  ladder.o(.bss)
    PLC_P_Addr                               0x2000019c   Data         516  ladder.o(.bss)
    p_save                                   0x200003a0   Data         516  ladder.o(.bss)
    PLC_STL_Coil                             0x20000660   Data         512  ladder.o(.bss)
    .bss                                     0x20000860   Section      192  pwm_output.o(.bss)
    .bss                                     0x20000920   Section       16  encode.o(.bss)
    .bss                                     0x20000930   Section       40  adc.o(.bss)
    .bss                                     0x20000958   Section       48  bsp_timer.o(.bss)
    s_tTmr                                   0x20000958   Data          48  bsp_timer.o(.bss)
    .bss                                     0x20000988   Section       96  libspace.o(.bss)
    HEAP                                     0x200009e8   Section      512  startup_stm32f10x_hd.o(HEAP)
    Heap_Mem                                 0x200009e8   Data         512  startup_stm32f10x_hd.o(HEAP)
    STACK                                    0x20000be8   Section     1024  startup_stm32f10x_hd.o(STACK)
    Stack_Mem                                0x20000be8   Data        1024  startup_stm32f10x_hd.o(STACK)
    __initial_sp                             0x20000fe8   Data           0  startup_stm32f10x_hd.o(STACK)
    .ARM.__AT_0x20001000                     0x20001000   Section    33200  plc_com.o(.ARM.__AT_0x20001000)
    .bss                                     0x200091b0   Section     7320  plc_com.o(.bss)
    .bss                                     0x2000ae48   Section     2096  bsp_uart_fifo.o(.bss)
    g_tUart3                                 0x2000ae48   Data          48  bsp_uart_fifo.o(.bss)
    g_TxBuf3                                 0x2000ae78   Data        1024  bsp_uart_fifo.o(.bss)
    g_RxBuf3                                 0x2000b278   Data        1024  bsp_uart_fifo.o(.bss)
    .bss                                     0x2000b678   Section     2100  modbus_host.o(.bss)
    .bss                                     0x2000beac   Section     2468  modbus_slave.o(.bss)

    Global Symbols

    Symbol Name                              Value     Ov Type        Size  Object(Section)

    BuildAttributes$$THM_ISAv4$P$D$K$B$S$PE$A:L22UL41UL21$X:L11$S22US41US21$IEEE1$IW$USESV6$~STKCKD$USESV7$~SHL$OTIME$ROPI$IEEEX$EBA8$UX$STANDARDLIB$REQ8$PRES8$EABIv2 0x00000000   Number         0  anon$$obj.o ABSOLUTE
    __ARM_use_no_argv                        0x00000000   Number         0  main.o ABSOLUTE
    __ARM_exceptions_init                     - Undefined Weak Reference
    __alloca_initialize                       - Undefined Weak Reference
    __arm_preinit_                            - Undefined Weak Reference
    __cpp_initialize__aeabi_                  - Undefined Weak Reference
    __cxa_finalize                            - Undefined Weak Reference
    __rt_locale                               - Undefined Weak Reference
    __sigvec_lookup                           - Undefined Weak Reference
    __user_heap_extent                        - Undefined Weak Reference
    _atexit_init                              - Undefined Weak Reference
    _call_atexit_fns                          - Undefined Weak Reference
    _clock_init                               - Undefined Weak Reference
    _fp_trap_init                             - Undefined Weak Reference
    _fp_trap_shutdown                         - Undefined Weak Reference
    _get_lc_collate                           - Undefined Weak Reference
    _get_lc_ctype                             - Undefined Weak Reference
    _get_lc_monetary                          - Undefined Weak Reference
    _get_lc_numeric                           - Undefined Weak Reference
    _get_lc_time                              - Undefined Weak Reference
    _getenv_init                              - Undefined Weak Reference
    _handle_redirection                       - Undefined Weak Reference
    _mutex_acquire                            - Undefined Weak Reference
    _mutex_free                               - Undefined Weak Reference
    _mutex_release                            - Undefined Weak Reference
    _printf_mbtowc                            - Undefined Weak Reference
    _printf_post_padding                      - Undefined Weak Reference
    _printf_pre_padding                       - Undefined Weak Reference
    _rand_init                                - Undefined Weak Reference
    _signal_finish                            - Undefined Weak Reference
    _signal_init                              - Undefined Weak Reference
    __Vectors_Size                           0x00000130   Number         0  startup_stm32f10x_hd.o ABSOLUTE
    __Vectors                                0x08000000   Data           4  startup_stm32f10x_hd.o(RESET)
    __Vectors_End                            0x08000130   Data           0  startup_stm32f10x_hd.o(RESET)
    __main                                   0x08000131   Thumb Code     8  __main.o(!!!main)
    __scatterload                            0x08000139   Thumb Code     0  __scatter.o(!!!scatter)
    __scatterload_rt2                        0x08000139   Thumb Code    44  __scatter.o(!!!scatter)
    __scatterload_rt2_thumb_only             0x08000139   Thumb Code     0  __scatter.o(!!!scatter)
    __scatterload_null                       0x08000147   Thumb Code     0  __scatter.o(!!!scatter)
    __decompress                             0x0800016d   Thumb Code    90  __dczerorl2.o(!!dczerorl2)
    __decompress1                            0x0800016d   Thumb Code     0  __dczerorl2.o(!!dczerorl2)
    __scatterload_zeroinit                   0x080001c9   Thumb Code    28  __scatter_zi.o(!!handler_zi)
    __rt_lib_init                            0x080001e5   Thumb Code     0  libinit.o(.ARM.Collect$$libinit$$00000000)
    __rt_lib_init_alloca_1                   0x080001e7   Thumb Code     0  libinit2.o(.ARM.Collect$$libinit$$0000002E)
    __rt_lib_init_argv_1                     0x080001e7   Thumb Code     0  libinit2.o(.ARM.Collect$$libinit$$0000002C)
    __rt_lib_init_atexit_1                   0x080001e7   Thumb Code     0  libinit2.o(.ARM.Collect$$libinit$$0000001B)
    __rt_lib_init_clock_1                    0x080001e7   Thumb Code     0  libinit2.o(.ARM.Collect$$libinit$$00000021)
    __rt_lib_init_cpp_1                      0x080001e7   Thumb Code     0  libinit2.o(.ARM.Collect$$libinit$$00000032)
    __rt_lib_init_exceptions_1               0x080001e7   Thumb Code     0  libinit2.o(.ARM.Collect$$libinit$$00000030)
    __rt_lib_init_fp_1                       0x080001e7   Thumb Code     0  libinit2.o(.ARM.Collect$$libinit$$00000002)
    __rt_lib_init_fp_trap_1                  0x080001e7   Thumb Code     0  libinit2.o(.ARM.Collect$$libinit$$0000001F)
    __rt_lib_init_getenv_1                   0x080001e7   Thumb Code     0  libinit2.o(.ARM.Collect$$libinit$$00000023)
    __rt_lib_init_heap_1                     0x080001e7   Thumb Code     0  libinit2.o(.ARM.Collect$$libinit$$0000000A)
    __rt_lib_init_lc_collate_1               0x080001e7   Thumb Code     0  libinit2.o(.ARM.Collect$$libinit$$00000011)
    __rt_lib_init_lc_ctype_1                 0x080001e7   Thumb Code     0  libinit2.o(.ARM.Collect$$libinit$$00000013)
    __rt_lib_init_lc_monetary_1              0x080001e7   Thumb Code     0  libinit2.o(.ARM.Collect$$libinit$$00000015)
    __rt_lib_init_lc_numeric_1               0x080001e7   Thumb Code     0  libinit2.o(.ARM.Collect$$libinit$$00000017)
    __rt_lib_init_lc_time_1                  0x080001e7   Thumb Code     0  libinit2.o(.ARM.Collect$$libinit$$00000019)
    __rt_lib_init_preinit_1                  0x080001e7   Thumb Code     0  libinit2.o(.ARM.Collect$$libinit$$00000004)
    __rt_lib_init_rand_1                     0x080001e7   Thumb Code     0  libinit2.o(.ARM.Collect$$libinit$$0000000E)
    __rt_lib_init_return                     0x080001e7   Thumb Code     0  libinit2.o(.ARM.Collect$$libinit$$00000033)
    __rt_lib_init_signal_1                   0x080001e7   Thumb Code     0  libinit2.o(.ARM.Collect$$libinit$$0000001D)
    __rt_lib_init_stdio_1                    0x080001e7   Thumb Code     0  libinit2.o(.ARM.Collect$$libinit$$00000025)
    __rt_lib_init_user_alloc_1               0x080001e7   Thumb Code     0  libinit2.o(.ARM.Collect$$libinit$$0000000C)
    __rt_lib_shutdown                        0x080001e9   Thumb Code     0  libshutdown.o(.ARM.Collect$$libshutdown$$00000000)
    __rt_lib_shutdown_fp_trap_1              0x080001eb   Thumb Code     0  libshutdown2.o(.ARM.Collect$$libshutdown$$00000006)
    __rt_lib_shutdown_heap_1                 0x080001eb   Thumb Code     0  libshutdown2.o(.ARM.Collect$$libshutdown$$0000000E)
    __rt_lib_shutdown_return                 0x080001eb   Thumb Code     0  libshutdown2.o(.ARM.Collect$$libshutdown$$0000000F)
    __rt_lib_shutdown_signal_1               0x080001eb   Thumb Code     0  libshutdown2.o(.ARM.Collect$$libshutdown$$00000009)
    __rt_lib_shutdown_stdio_1                0x080001eb   Thumb Code     0  libshutdown2.o(.ARM.Collect$$libshutdown$$00000003)
    __rt_lib_shutdown_user_alloc_1           0x080001eb   Thumb Code     0  libshutdown2.o(.ARM.Collect$$libshutdown$$0000000B)
    __rt_entry                               0x080001ed   Thumb Code     0  __rtentry.o(.ARM.Collect$$rtentry$$00000000)
    __rt_entry_presh_1                       0x080001ed   Thumb Code     0  __rtentry2.o(.ARM.Collect$$rtentry$$00000002)
    __rt_entry_sh                            0x080001ed   Thumb Code     0  __rtentry4.o(.ARM.Collect$$rtentry$$00000004)
    __rt_entry_li                            0x080001f3   Thumb Code     0  __rtentry2.o(.ARM.Collect$$rtentry$$0000000A)
    __rt_entry_postsh_1                      0x080001f3   Thumb Code     0  __rtentry2.o(.ARM.Collect$$rtentry$$00000009)
    __rt_entry_main                          0x080001f7   Thumb Code     0  __rtentry2.o(.ARM.Collect$$rtentry$$0000000D)
    __rt_entry_postli_1                      0x080001f7   Thumb Code     0  __rtentry2.o(.ARM.Collect$$rtentry$$0000000C)
    __rt_exit                                0x080001ff   Thumb Code     0  rtexit.o(.ARM.Collect$$rtexit$$00000000)
    __rt_exit_ls                             0x08000201   Thumb Code     0  rtexit2.o(.ARM.Collect$$rtexit$$00000003)
    __rt_exit_prels_1                        0x08000201   Thumb Code     0  rtexit2.o(.ARM.Collect$$rtexit$$00000002)
    __rt_exit_exit                           0x08000205   Thumb Code     0  rtexit2.o(.ARM.Collect$$rtexit$$00000004)
    Reset_Handler                            0x0800020d   Thumb Code     8  startup_stm32f10x_hd.o(.text)
    NMI_Handler                              0x08000215   Thumb Code     2  startup_stm32f10x_hd.o(.text)
    HardFault_Handler                        0x08000217   Thumb Code     2  startup_stm32f10x_hd.o(.text)
    MemManage_Handler                        0x08000219   Thumb Code     2  startup_stm32f10x_hd.o(.text)
    BusFault_Handler                         0x0800021b   Thumb Code     2  startup_stm32f10x_hd.o(.text)
    UsageFault_Handler                       0x0800021d   Thumb Code     2  startup_stm32f10x_hd.o(.text)
    SVC_Handler                              0x0800021f   Thumb Code     2  startup_stm32f10x_hd.o(.text)
    DebugMon_Handler                         0x08000221   Thumb Code     2  startup_stm32f10x_hd.o(.text)
    PendSV_Handler                           0x08000223   Thumb Code     2  startup_stm32f10x_hd.o(.text)
    ADC1_2_IRQHandler                        0x08000227   Thumb Code     0  startup_stm32f10x_hd.o(.text)
    ADC3_IRQHandler                          0x08000227   Thumb Code     0  startup_stm32f10x_hd.o(.text)
    CAN1_RX1_IRQHandler                      0x08000227   Thumb Code     0  startup_stm32f10x_hd.o(.text)
    CAN1_SCE_IRQHandler                      0x08000227   Thumb Code     0  startup_stm32f10x_hd.o(.text)
    DMA1_Channel2_IRQHandler                 0x08000227   Thumb Code     0  startup_stm32f10x_hd.o(.text)
    DMA1_Channel3_IRQHandler                 0x08000227   Thumb Code     0  startup_stm32f10x_hd.o(.text)
    DMA1_Channel5_IRQHandler                 0x08000227   Thumb Code     0  startup_stm32f10x_hd.o(.text)
    DMA1_Channel6_IRQHandler                 0x08000227   Thumb Code     0  startup_stm32f10x_hd.o(.text)
    DMA1_Channel7_IRQHandler                 0x08000227   Thumb Code     0  startup_stm32f10x_hd.o(.text)
    DMA2_Channel1_IRQHandler                 0x08000227   Thumb Code     0  startup_stm32f10x_hd.o(.text)
    DMA2_Channel2_IRQHandler                 0x08000227   Thumb Code     0  startup_stm32f10x_hd.o(.text)
    DMA2_Channel3_IRQHandler                 0x08000227   Thumb Code     0  startup_stm32f10x_hd.o(.text)
    DMA2_Channel4_5_IRQHandler               0x08000227   Thumb Code     0  startup_stm32f10x_hd.o(.text)
    EXTI0_IRQHandler                         0x08000227   Thumb Code     0  startup_stm32f10x_hd.o(.text)
    EXTI15_10_IRQHandler                     0x08000227   Thumb Code     0  startup_stm32f10x_hd.o(.text)
    EXTI1_IRQHandler                         0x08000227   Thumb Code     0  startup_stm32f10x_hd.o(.text)
    EXTI2_IRQHandler                         0x08000227   Thumb Code     0  startup_stm32f10x_hd.o(.text)
    EXTI3_IRQHandler                         0x08000227   Thumb Code     0  startup_stm32f10x_hd.o(.text)
    EXTI4_IRQHandler                         0x08000227   Thumb Code     0  startup_stm32f10x_hd.o(.text)
    FLASH_IRQHandler                         0x08000227   Thumb Code     0  startup_stm32f10x_hd.o(.text)
    FSMC_IRQHandler                          0x08000227   Thumb Code     0  startup_stm32f10x_hd.o(.text)
    I2C1_ER_IRQHandler                       0x08000227   Thumb Code     0  startup_stm32f10x_hd.o(.text)
    I2C1_EV_IRQHandler                       0x08000227   Thumb Code     0  startup_stm32f10x_hd.o(.text)
    I2C2_ER_IRQHandler                       0x08000227   Thumb Code     0  startup_stm32f10x_hd.o(.text)
    I2C2_EV_IRQHandler                       0x08000227   Thumb Code     0  startup_stm32f10x_hd.o(.text)
    PVD_IRQHandler                           0x08000227   Thumb Code     0  startup_stm32f10x_hd.o(.text)
    RCC_IRQHandler                           0x08000227   Thumb Code     0  startup_stm32f10x_hd.o(.text)
    RTCAlarm_IRQHandler                      0x08000227   Thumb Code     0  startup_stm32f10x_hd.o(.text)
    RTC_IRQHandler                           0x08000227   Thumb Code     0  startup_stm32f10x_hd.o(.text)
    SDIO_IRQHandler                          0x08000227   Thumb Code     0  startup_stm32f10x_hd.o(.text)
    SPI1_IRQHandler                          0x08000227   Thumb Code     0  startup_stm32f10x_hd.o(.text)
    SPI2_IRQHandler                          0x08000227   Thumb Code     0  startup_stm32f10x_hd.o(.text)
    SPI3_IRQHandler                          0x08000227   Thumb Code     0  startup_stm32f10x_hd.o(.text)
    TAMPER_IRQHandler                        0x08000227   Thumb Code     0  startup_stm32f10x_hd.o(.text)
    TIM1_BRK_IRQHandler                      0x08000227   Thumb Code     0  startup_stm32f10x_hd.o(.text)
    TIM1_CC_IRQHandler                       0x08000227   Thumb Code     0  startup_stm32f10x_hd.o(.text)
    TIM1_TRG_COM_IRQHandler                  0x08000227   Thumb Code     0  startup_stm32f10x_hd.o(.text)
    TIM4_IRQHandler                          0x08000227   Thumb Code     0  startup_stm32f10x_hd.o(.text)
    TIM6_IRQHandler                          0x08000227   Thumb Code     0  startup_stm32f10x_hd.o(.text)
    TIM7_IRQHandler                          0x08000227   Thumb Code     0  startup_stm32f10x_hd.o(.text)
    TIM8_BRK_IRQHandler                      0x08000227   Thumb Code     0  startup_stm32f10x_hd.o(.text)
    TIM8_CC_IRQHandler                       0x08000227   Thumb Code     0  startup_stm32f10x_hd.o(.text)
    TIM8_TRG_COM_IRQHandler                  0x08000227   Thumb Code     0  startup_stm32f10x_hd.o(.text)
    UART4_IRQHandler                         0x08000227   Thumb Code     0  startup_stm32f10x_hd.o(.text)
    UART5_IRQHandler                         0x08000227   Thumb Code     0  startup_stm32f10x_hd.o(.text)
    USART2_IRQHandler                        0x08000227   Thumb Code     0  startup_stm32f10x_hd.o(.text)
    USBWakeUp_IRQHandler                     0x08000227   Thumb Code     0  startup_stm32f10x_hd.o(.text)
    USB_HP_CAN1_TX_IRQHandler                0x08000227   Thumb Code     0  startup_stm32f10x_hd.o(.text)
    USB_LP_CAN1_RX0_IRQHandler               0x08000227   Thumb Code     0  startup_stm32f10x_hd.o(.text)
    WWDG_IRQHandler                          0x08000227   Thumb Code     0  startup_stm32f10x_hd.o(.text)
    __user_initial_stackheap                 0x08000229   Thumb Code     0  startup_stm32f10x_hd.o(.text)
    __aeabi_uldivmod                         0x0800024d   Thumb Code     0  lludivv7m.o(.text)
    _ll_udiv                                 0x0800024d   Thumb Code   238  lludivv7m.o(.text)
    __aeabi_llsl                             0x0800033b   Thumb Code     0  llshl.o(.text)
    _ll_shift_l                              0x0800033b   Thumb Code    38  llshl.o(.text)
    __aeabi_llsr                             0x08000361   Thumb Code     0  llushr.o(.text)
    _ll_ushift_r                             0x08000361   Thumb Code    38  llushr.o(.text)
    memcmp                                   0x08000387   Thumb Code    88  memcmp.o(.text)
    __aeabi_memcpy                           0x080003df   Thumb Code     0  rt_memcpy_v6.o(.text)
    __rt_memcpy                              0x080003df   Thumb Code   138  rt_memcpy_v6.o(.text)
    _memcpy_lastbytes                        0x08000445   Thumb Code     0  rt_memcpy_v6.o(.text)
    __aeabi_memclr                           0x08000469   Thumb Code     0  rt_memclr.o(.text)
    __rt_memclr                              0x08000469   Thumb Code    68  rt_memclr.o(.text)
    _memset                                  0x0800046d   Thumb Code     0  rt_memclr.o(.text)
    __aeabi_memclr4                          0x080004ad   Thumb Code     0  rt_memclr_w.o(.text)
    __aeabi_memclr8                          0x080004ad   Thumb Code     0  rt_memclr_w.o(.text)
    __rt_memclr_w                            0x080004ad   Thumb Code    78  rt_memclr_w.o(.text)
    _memset_w                                0x080004b1   Thumb Code     0  rt_memclr_w.o(.text)
    __use_two_region_memory                  0x080004fb   Thumb Code     2  heapauxi.o(.text)
    __rt_heap_escrow                         0x080004fd   Thumb Code     2  heapauxi.o(.text)
    __rt_heap_expand                         0x080004ff   Thumb Code     2  heapauxi.o(.text)
    __read_errno                             0x08000501   Thumb Code    10  _rserrno.o(.text)
    __set_errno                              0x0800050b   Thumb Code    12  _rserrno.o(.text)
    __aeabi_memcpy4                          0x08000517   Thumb Code     0  rt_memcpy_w.o(.text)
    __aeabi_memcpy8                          0x08000517   Thumb Code     0  rt_memcpy_w.o(.text)
    __rt_memcpy_w                            0x08000517   Thumb Code   100  rt_memcpy_w.o(.text)
    _memcpy_lastbytes_aligned                0x0800055f   Thumb Code     0  rt_memcpy_w.o(.text)
    __aeabi_errno_addr                       0x0800057d   Thumb Code     8  rt_errno_addr_intlibspace.o(.text)
    __errno$intlibspace                      0x0800057d   Thumb Code     0  rt_errno_addr_intlibspace.o(.text)
    __rt_errno_addr$intlibspace              0x0800057d   Thumb Code     0  rt_errno_addr_intlibspace.o(.text)
    __user_libspace                          0x08000585   Thumb Code     8  libspace.o(.text)
    __user_perproc_libspace                  0x08000585   Thumb Code     0  libspace.o(.text)
    __user_perthread_libspace                0x08000585   Thumb Code     0  libspace.o(.text)
    __user_setup_stackheap                   0x0800058d   Thumb Code    74  sys_stackheap_outer.o(.text)
    exit                                     0x080005d7   Thumb Code    12  exit.o(.text)
    __I$use$semihosting                      0x080005e3   Thumb Code     0  use_no_semi.o(.text)
    __use_no_semihosting_swi                 0x080005e3   Thumb Code     2  use_no_semi.o(.text)
    __semihosting_library_function           0x080005e5   Thumb Code     0  indicate_semi.o(.text)
    _sys_exit                                0x080005e5   Thumb Code     8  sys_exit.o(.text)
    ADC_Cmd                                  0x080005f1   Thumb Code    20  stm32f10x_adc.o(i.ADC_Cmd)
    ADC_DMACmd                               0x08000605   Thumb Code    20  stm32f10x_adc.o(i.ADC_DMACmd)
    ADC_GetCalibrationStatus                 0x08000619   Thumb Code    14  stm32f10x_adc.o(i.ADC_GetCalibrationStatus)
    ADC_GetResetCalibrationStatus            0x08000627   Thumb Code    14  stm32f10x_adc.o(i.ADC_GetResetCalibrationStatus)
    ADC_Init                                 0x08000635   Thumb Code    62  stm32f10x_adc.o(i.ADC_Init)
    ADC_RegularChannelConfig                 0x0800067d   Thumb Code   116  stm32f10x_adc.o(i.ADC_RegularChannelConfig)
    ADC_ResetCalibration                     0x080006f1   Thumb Code    10  stm32f10x_adc.o(i.ADC_ResetCalibration)
    ADC_Sample                               0x080006fd   Thumb Code   114  adc.o(i.ADC_Sample)
    ADC_SoftwareStartConvCmd                 0x0800077d   Thumb Code    20  stm32f10x_adc.o(i.ADC_SoftwareStartConvCmd)
    ADC_StartCalibration                     0x08000791   Thumb Code    10  stm32f10x_adc.o(i.ADC_StartCalibration)
    ADC_init                                 0x0800079d   Thumb Code   276  adc.o(i.ADC_init)
    AND                                      0x08000911   Thumb Code    42  ladder.o(i.AND)
    BEBufToUint16                            0x08000b45   Thumb Code     6  bsp_user_lib.o(i.BEBufToUint16)
    BKP_DeInit                               0x08000c45   Thumb Code    18  stm32f10x_bkp.o(i.BKP_DeInit)
    BKP_ReadBackupRegister                   0x08000c59   Thumb Code    12  stm32f10x_bkp.o(i.BKP_ReadBackupRegister)
    BKP_WriteBackupRegister                  0x08000c69   Thumb Code    12  stm32f10x_bkp.o(i.BKP_WriteBackupRegister)
    BtoG                                     0x08000cf9   Thumb Code    32  ladder.o(i.BtoG)
    CRC16_Modbus                             0x08000f4d   Thumb Code    38  bsp_user_lib.o(i.CRC16_Modbus)
    Cap_PulseInputInit                       0x08000fbd   Thumb Code    14  encode.o(i.Cap_PulseInputInit)
    CheckSum                                 0x08000fd1   Thumb Code    36  plc_com.o(i.CheckSum)
    ComToUart                                0x08000ff9   Thumb Code    20  bsp_uart_fifo.o(i.ComToUart)
    DAC_Cmd                                  0x08001011   Thumb Code    20  stm32f10x_dac.o(i.DAC_Cmd)
    DAC_Init                                 0x08001029   Thumb Code    36  stm32f10x_dac.o(i.DAC_Init)
    DAC_SetChannel1Data                      0x08001051   Thumb Code    14  stm32f10x_dac.o(i.DAC_SetChannel1Data)
    DAC_SetChannel2Data                      0x08001065   Thumb Code    14  stm32f10x_dac.o(i.DAC_SetChannel2Data)
    DAC_SoftwareTriggerCmd                   0x08001079   Thumb Code    24  stm32f10x_dac.o(i.DAC_SoftwareTriggerCmd)
    DAC_data                                 0x08001095   Thumb Code    44  dac.o(i.DAC_data)
    DAC_out_init                             0x080010c5   Thumb Code   134  dac.o(i.DAC_out_init)
    DMA1_Channel1_IRQHandler                 0x08001679   Thumb Code    66  adc.o(i.DMA1_Channel1_IRQHandler)
    DMA1_Channel4_IRQHandler                 0x080016c5   Thumb Code    28  plc_com.o(i.DMA1_Channel4_IRQHandler)
    DMA_ClearITPendingBit                    0x080016e9   Thumb Code    16  stm32f10x_dma.o(i.DMA_ClearITPendingBit)
    DMA_Cmd                                  0x08001701   Thumb Code    22  stm32f10x_dma.o(i.DMA_Cmd)
    DMA_DeInit                               0x08001719   Thumb Code   218  stm32f10x_dma.o(i.DMA_DeInit)
    DMA_ITConfig                             0x080017fd   Thumb Code    16  stm32f10x_dma.o(i.DMA_ITConfig)
    DMA_Init                                 0x0800180d   Thumb Code    58  stm32f10x_dma.o(i.DMA_Init)
    DZ0_Z3                                   0x0800189d   Thumb Code    66  ladder.o(i.DZ0_Z3)
    DZ4_Z7                                   0x080018e5   Thumb Code    70  ladder.o(i.DZ4_Z7)
    D_C_T_addr                               0x08001a0d   Thumb Code   102  ladder.o(i.D_C_T_addr)
    ENC_Get_AB0_Electrical_Angle             0x08002111   Thumb Code    40  encode.o(i.ENC_Get_AB0_Electrical_Angle)
    ENC_Get_AB1_Electrical_Angle             0x08002141   Thumb Code    42  encode.o(i.ENC_Get_AB1_Electrical_Angle)
    EPC_FORCE_OFF                            0x08002171   Thumb Code    48  plc_com.o(i.EPC_FORCE_OFF)
    EPC_FORCE_ON                             0x080021b1   Thumb Code    92  plc_com.o(i.EPC_FORCE_ON)
    EXTI9_5_IRQHandler                       0x0800221d   Thumb Code    28  plc_io.o(i.EXTI9_5_IRQHandler)
    EXTI_ClearITPendingBit                   0x08002241   Thumb Code     6  stm32f10x_exti.o(i.EXTI_ClearITPendingBit)
    EXTI_Init                                0x0800224d   Thumb Code   108  stm32f10x_exti.o(i.EXTI_Init)
    Encode_Pro_Callback                      0x08002389   Thumb Code    62  encode.o(i.Encode_Pro_Callback)
    Encoder_A0_Configuration                 0x080023cd   Thumb Code   182  encode.o(i.Encoder_A0_Configuration)
    Encoder_A0_Restore                       0x08002495   Thumb Code    74  encode.o(i.Encoder_A0_Restore)
    Encoder_A1_Configuration                 0x080024f5   Thumb Code   186  encode.o(i.Encoder_A1_Configuration)
    Encoder_A1_Restore                       0x080025b9   Thumb Code    66  encode.o(i.Encoder_A1_Restore)
    Encoder_AB0_Configration                 0x08002609   Thumb Code   152  encode.o(i.Encoder_AB0_Configration)
    Encoder_AB0_Restore                      0x080026b1   Thumb Code    66  encode.o(i.Encoder_AB0_Restore)
    Encoder_AB1_Configration                 0x08002709   Thumb Code   144  encode.o(i.Encoder_AB1_Configration)
    Encoder_AB1_Restore                      0x080027a1   Thumb Code    60  encode.o(i.Encoder_AB1_Restore)
    ErasurePLC                               0x080027e9   Thumb Code   154  plc_com.o(i.ErasurePLC)
    FLASH_ClearFlag                          0x0800289d   Thumb Code     6  stm32f10x_flash.o(i.FLASH_ClearFlag)
    FLASH_EraseOptionBytes                   0x080028a9   Thumb Code   108  stm32f10x_flash.o(i.FLASH_EraseOptionBytes)
    FLASH_ErasePage                          0x08002925   Thumb Code    56  stm32f10x_flash.o(i.FLASH_ErasePage)
    FLASH_GetBank1Status                     0x08002961   Thumb Code    34  stm32f10x_flash.o(i.FLASH_GetBank1Status)
    FLASH_GetReadOutProtectionStatus         0x08002989   Thumb Code    14  stm32f10x_flash.o(i.FLASH_GetReadOutProtectionStatus)
    FLASH_GetWriteProtectionOptionByte       0x0800299d   Thumb Code     6  stm32f10x_flash.o(i.FLASH_GetWriteProtectionOptionByte)
    FLASH_Lock                               0x080029a9   Thumb Code    12  stm32f10x_flash.o(i.FLASH_Lock)
    FLASH_ProgramHalfWord                    0x080029b9   Thumb Code    48  stm32f10x_flash.o(i.FLASH_ProgramHalfWord)
    FLASH_ProgramWord                        0x080029ed   Thumb Code    76  stm32f10x_flash.o(i.FLASH_ProgramWord)
    FLASH_Unlock                             0x08002a3d   Thumb Code    12  stm32f10x_flash.o(i.FLASH_Unlock)
    FLASH_WaitForLastOperation               0x08002a55   Thumb Code    34  stm32f10x_flash.o(i.FLASH_WaitForLastOperation)
    Flash_EraseProgramPage                   0x080039dd   Thumb Code   114  plc_other.o(i.Flash_EraseProgramPage)
    Flash_ReadKeepData                       0x08003a59   Thumb Code    98  plc_other.o(i.Flash_ReadKeepData)
    Flash_WriteKeepData                      0x08003acd   Thumb Code    76  plc_other.o(i.Flash_WriteKeepData)
    Flash_WriteKeepData_Backup               0x08003b21   Thumb Code    76  plc_other.o(i.Flash_WriteKeepData_Backup)
    Func_MC                                  0x08003b75   Thumb Code    48  ladder.o(i.Func_MC)
    Func_MCR                                 0x08003ba9   Thumb Code    38  ladder.o(i.Func_MCR)
    GPIO_EXTILineConfig                      0x08003bd5   Thumb Code    34  stm32f10x_gpio.o(i.GPIO_EXTILineConfig)
    GPIO_Init                                0x08003bfd   Thumb Code   156  stm32f10x_gpio.o(i.GPIO_Init)
    GPIO_PinRemapConfig                      0x08003c99   Thumb Code    82  stm32f10x_gpio.o(i.GPIO_PinRemapConfig)
    GPIO_ResetBits                           0x08003cf1   Thumb Code     4  stm32f10x_gpio.o(i.GPIO_ResetBits)
    GetBitOffset                             0x08003cf5   Thumb Code   146  modbus_slave.o(i.GetBitOffset)
    Get_A0_Count                             0x08003d89   Thumb Code    20  encode.o(i.Get_A0_Count)
    Get_A1_Count                             0x08003da9   Thumb Code    22  encode.o(i.Get_A1_Count)
    Get_AB0_Count                            0x08003dc9   Thumb Code    36  encode.o(i.Get_AB0_Count)
    Get_AB1_Count                            0x08003dfd   Thumb Code    36  encode.o(i.Get_AB1_Count)
    GtoB                                     0x08003e31   Thumb Code    32  ladder.o(i.GtoB)
    IWDG_Enable                              0x08003e51   Thumb Code    10  stm32f10x_iwdg.o(i.IWDG_Enable)
    IWDG_ReloadCounter                       0x08003e61   Thumb Code    10  stm32f10x_iwdg.o(i.IWDG_ReloadCounter)
    IWDG_SetPrescaler                        0x08003e71   Thumb Code     6  stm32f10x_iwdg.o(i.IWDG_SetPrescaler)
    IWDG_SetReload                           0x08003e7d   Thumb Code     6  stm32f10x_iwdg.o(i.IWDG_SetReload)
    IWDG_WriteAccessCmd                      0x08003e89   Thumb Code     6  stm32f10x_iwdg.o(i.IWDG_WriteAccessCmd)
    IsDataInvalid                            0x08003f2d   Thumb Code    48  plc_other.o(i.IsDataInvalid)
    Is_Leap_Year                             0x08003f5d   Thumb Code    38  rtc.o(i.Is_Leap_Year)
    MEAN                                     0x080043bd   Thumb Code   184  ladder.o(i.MEAN)
    MODH_ReciveNew                           0x08004479   Thumb Code    60  modbus_host.o(i.MODH_ReciveNew)
    MODH_RxTimeOut                           0x080044c1   Thumb Code    20  modbus_host.o(i.MODH_RxTimeOut)
    MODH_SendPacket                          0x08004539   Thumb Code    10  modbus_host.o(i.MODH_SendPacket)
    MODH_Send_01To04H                        0x08004549   Thumb Code   124  modbus_host.o(i.MODH_Send_01To04H)
    MODH_Send_05H                            0x080045c9   Thumb Code   134  modbus_host.o(i.MODH_Send_05H)
    MODH_Send_06H                            0x08004659   Thumb Code   134  modbus_host.o(i.MODH_Send_06H)
    MODH_Send_0FH                            0x080046e9   Thumb Code   286  modbus_host.o(i.MODH_Send_0FH)
    MODH_Send_10H                            0x08004819   Thumb Code   220  modbus_host.o(i.MODH_Send_10H)
    MODS_Poll                                0x08004f99   Thumb Code    84  modbus_slave.o(i.MODS_Poll)
    MODS_ReciveNew                           0x08004ff9   Thumb Code    62  modbus_slave.o(i.MODS_ReciveNew)
    ModHostMode_SendDeal                     0x08005315   Thumb Code   200  modbus_host.o(i.ModHostMode_SendDeal)
    NVIC_Confinguration                      0x080053e5   Thumb Code   260  nvic_interrupt.o(i.NVIC_Confinguration)
    NVIC_Init                                0x080054e9   Thumb Code    94  misc.o(i.NVIC_Init)
    NVIC_PriorityGroupConfig                 0x0800554d   Thumb Code    10  misc.o(i.NVIC_PriorityGroupConfig)
    NVIC_SetVectorTable                      0x08005561   Thumb Code    12  misc.o(i.NVIC_SetVectorTable)
    OUT                                      0x08005749   Thumb Code   148  ladder.o(i.OUT)
    PC_FORCE_OFF                             0x080057ed   Thumb Code    64  plc_com.o(i.PC_FORCE_OFF)
    PC_FORCE_ON                              0x0800583d   Thumb Code    64  plc_com.o(i.PC_FORCE_ON)
    PC_OPTION_PROG                           0x0800588d   Thumb Code   222  plc_com.o(i.PC_OPTION_PROG)
    PC_READ_PORG                             0x0800597d   Thumb Code   130  plc_com.o(i.PC_READ_PORG)
    PC_READ_Parameter                        0x08005a11   Thumb Code   398  plc_com.o(i.PC_READ_Parameter)
    PC_READ_byte                             0x08005bb9   Thumb Code    42  plc_com.o(i.PC_READ_byte)
    PC_WRITE_PORG                            0x08005bed   Thumb Code   140  plc_com.o(i.PC_WRITE_PORG)
    PC_WRITE_Parameter                       0x08005c8d   Thumb Code    58  plc_com.o(i.PC_WRITE_Parameter)
    PC_WRITE_byte                            0x08005cd5   Thumb Code    62  plc_com.o(i.PC_WRITE_byte)
    PLC_1BIT_State                           0x08005e01   Thumb Code   100  plc_com.o(i.PLC_1BIT_State)
    PLC_Com_BIT                              0x08005e79   Thumb Code   164  plc_com.o(i.PLC_Com_BIT)
    PLC_Comm_Byte                            0x08005f1d   Thumb Code   168  plc_com.o(i.PLC_Comm_Byte)
    PLC_Download                             0x08005fc5   Thumb Code    32  plc_com.o(i.PLC_Download)
    PWR_BackupAccessCmd                      0x08005fed   Thumb Code     6  stm32f10x_pwr.o(i.PWR_BackupAccessCmd)
    RS485_SendBuf                            0x08005ff9   Thumb Code     4  bsp_uart_fifo.o(i.RS485_SendBuf)
    SysTick_Handler                          0x08005ffd   Thumb Code     4  bsp_timer.o(i.SysTick_Handler)
    plc_programCodeBuf                       0x08006000   Data       34000  plc_com.o(.ARM.__AT_0x08006000)
    PLC_E_Expand                             0x0800e4d1   Thumb Code    60  plc_com.o(i.PLC_E_Expand)
    PLC_IO_Refresh                           0x0800e519   Thumb Code    66  plc_io.o(i.PLC_IO_Refresh)
    PLC_IO_config                            0x0800e56d   Thumb Code    44  plc_io.o(i.PLC_IO_config)
    PLC_Mode_config                          0x0800e645   Thumb Code   176  plc_io.o(i.PLC_Mode_config)
    PLC_PROG_ERROR                           0x0800e725   Thumb Code    42  ladder.o(i.PLC_PROG_ERROR)
    PLC_ProInstructParse                     0x0800e75d   Thumb Code   804  ladder.o(i.PLC_ProInstructParse)
    PLC_ReadKeepData                         0x0800eaa5   Thumb Code   120  plc_other.o(i.PLC_ReadKeepData)
    PLC_SaveKeepData                         0x0800eb25   Thumb Code   120  plc_other.o(i.PLC_SaveKeepData)
    PLC_StopDefaultInit                      0x0800eba5   Thumb Code    66  ladder.o(i.PLC_StopDefaultInit)
    PLC_Upload                               0x0800ebf9   Thumb Code   108  plc_com.o(i.PLC_Upload)
    PLC_X_config                             0x0800ec75   Thumb Code    76  plc_io.o(i.PLC_X_config)
    PLC_Y_config                             0x0800eccd   Thumb Code   104  plc_io.o(i.PLC_Y_config)
    PLSR_Plc_Pro                             0x0800ed3d   Thumb Code   182  pwm_output.o(i.PLSR_Plc_Pro)
    PLSY                                     0x0800ee05   Thumb Code   248  ladder.o(i.PLSY)
    PLSY_Plc_Pro                             0x0800ef0d   Thumb Code   182  pwm_output.o(i.PLSY_Plc_Pro)
    PWM_Plc_Pro                              0x0800f08d   Thumb Code   128  pwm_output.o(i.PWM_Plc_Pro)
    PWM_Y0_Restore_Config                    0x0800f111   Thumb Code    58  pwm_output.o(i.PWM_Y0_Restore_Config)
    PWM_Y0_Set_Config                        0x0800f155   Thumb Code    40  pwm_output.o(i.PWM_Y0_Set_Config)
    PWM_Y1_Restore_Config                    0x0800f181   Thumb Code    58  pwm_output.o(i.PWM_Y1_Restore_Config)
    PWM_Y1_Set_Config                        0x0800f1c5   Thumb Code    40  pwm_output.o(i.PWM_Y1_Set_Config)
    Process_switch                           0x0800f1f1   Thumb Code   144  plc_com.o(i.Process_switch)
    PulseOutputInit                          0x0800f28d   Thumb Code     8  pwm_output.o(i.PulseOutputInit)
    RCC_AHBPeriphClockCmd                    0x0800f299   Thumb Code    18  stm32f10x_rcc.o(i.RCC_AHBPeriphClockCmd)
    RCC_APB1PeriphClockCmd                   0x0800f2b1   Thumb Code    18  stm32f10x_rcc.o(i.RCC_APB1PeriphClockCmd)
    RCC_APB1PeriphResetCmd                   0x0800f2c9   Thumb Code    18  stm32f10x_rcc.o(i.RCC_APB1PeriphResetCmd)
    RCC_APB2PeriphClockCmd                   0x0800f2e1   Thumb Code    18  stm32f10x_rcc.o(i.RCC_APB2PeriphClockCmd)
    RCC_APB2PeriphResetCmd                   0x0800f2f9   Thumb Code    18  stm32f10x_rcc.o(i.RCC_APB2PeriphResetCmd)
    RCC_BackupResetCmd                       0x0800f311   Thumb Code     6  stm32f10x_rcc.o(i.RCC_BackupResetCmd)
    RCC_ClearFlag                            0x0800f31d   Thumb Code    12  stm32f10x_rcc.o(i.RCC_ClearFlag)
    RCC_GetClocksFreq                        0x0800f32d   Thumb Code   132  stm32f10x_rcc.o(i.RCC_GetClocksFreq)
    RCC_GetFlagStatus                        0x0800f3c1   Thumb Code    42  stm32f10x_rcc.o(i.RCC_GetFlagStatus)
    RCC_LSEConfig                            0x0800f3f1   Thumb Code    28  stm32f10x_rcc.o(i.RCC_LSEConfig)
    RCC_LSICmd                               0x0800f411   Thumb Code     6  stm32f10x_rcc.o(i.RCC_LSICmd)
    RCC_RTCCLKCmd                            0x0800f41d   Thumb Code     6  stm32f10x_rcc.o(i.RCC_RTCCLKCmd)
    RCC_RTCCLKConfig                         0x0800f429   Thumb Code    10  stm32f10x_rcc.o(i.RCC_RTCCLKConfig)
    READ_plc_programCodeBuf                  0x0800f439   Thumb Code    42  plc_com.o(i.READ_plc_programCodeBuf)
    RS485_InitTXE                            0x0800f6f5   Thumb Code    68  bsp_uart_fifo.o(i.RS485_InitTXE)
    RS485_ReciveNew                          0x0800f741   Thumb Code    52  bsp_uart_fifo.o(i.RS485_ReciveNew)
    RS485_SendBefor                          0x0800f779   Thumb Code    42  bsp_uart_fifo.o(i.RS485_SendBefor)
    RS485_SendOver                           0x0800f7b1   Thumb Code    42  bsp_uart_fifo.o(i.RS485_SendOver)
    RST_T_D_C_M_data                         0x0800f879   Thumb Code   120  plc_other.o(i.RST_T_D_C_M_data)
    RST_Y                                    0x0800f8f5   Thumb Code    12  ladder.o(i.RST_Y)
    RTC_Config                               0x0800f905   Thumb Code    88  rtc.o(i.RTC_Config)
    RTC_EnterConfigMode                      0x0800f95d   Thumb Code    12  stm32f10x_rtc.o(i.RTC_EnterConfigMode)
    RTC_ExitConfigMode                       0x0800f96d   Thumb Code    12  stm32f10x_rtc.o(i.RTC_ExitConfigMode)
    RTC_Get                                  0x0800f97d   Thumb Code   282  rtc.o(i.RTC_Get)
    RTC_GetCounter                           0x0800fab1   Thumb Code    16  stm32f10x_rtc.o(i.RTC_GetCounter)
    RTC_Get_Week                             0x0800fac5   Thumb Code    84  rtc.o(i.RTC_Get_Week)
    RTC_ITConfig                             0x0800fb1d   Thumb Code    18  stm32f10x_rtc.o(i.RTC_ITConfig)
    RTC_Init                                 0x0800fb35   Thumb Code   116  rtc.o(i.RTC_Init)
    RTC_Set                                  0x0800fbb5   Thumb Code   180  rtc.o(i.RTC_Set)
    RTC_SetCounter                           0x0800fc79   Thumb Code    26  stm32f10x_rtc.o(i.RTC_SetCounter)
    RTC_SetPrescaler                         0x0800fc99   Thumb Code    28  stm32f10x_rtc.o(i.RTC_SetPrescaler)
    RTC_WaitForLastTask                      0x0800fcb9   Thumb Code    10  stm32f10x_rtc.o(i.RTC_WaitForLastTask)
    RTC_WaitForSynchro                       0x0800fcc9   Thumb Code    18  stm32f10x_rtc.o(i.RTC_WaitForSynchro)
    RX_Process                               0x0800fce1   Thumb Code   254  plc_com.o(i.RX_Process)
    STL                                      0x0800fea5   Thumb Code    48  ladder.o(i.STL)
    SysTick_ISR                              0x080107ad   Thumb Code   536  bsp_timer.o(i.SysTick_ISR)
    SystemInit                               0x080109f1   Thumb Code    64  system_stm32f10x.o(i.SystemInit)
    TIM1_NVIC_Configuration                  0x08010c99   Thumb Code    34  pwm_output.o(i.TIM1_NVIC_Configuration)
    TIM1_UP_IRQHandler                       0x08010cbd   Thumb Code   602  pwm_output.o(i.TIM1_UP_IRQHandler)
    TIM2_IRQHandler                          0x08010f39   Thumb Code    44  encode.o(i.TIM2_IRQHandler)
    TIM3_IRQHandler                          0x08010f69   Thumb Code    44  encode.o(i.TIM3_IRQHandler)
    TIM5_IRQHandler                          0x08010f9d   Thumb Code   150  bsp_timer.o(i.TIM5_IRQHandler)
    TIM8_NVIC_Configuration                  0x0801103d   Thumb Code    34  pwm_output.o(i.TIM8_NVIC_Configuration)
    TIM8_UP_IRQHandler                       0x08011061   Thumb Code   602  pwm_output.o(i.TIM8_UP_IRQHandler)
    TIM_ARRPreloadConfig                     0x080112dd   Thumb Code    20  stm32f10x_tim.o(i.TIM_ARRPreloadConfig)
    TIM_BDTRConfig                           0x080112f1   Thumb Code    34  stm32f10x_tim.o(i.TIM_BDTRConfig)
    TIM_ClearFlag                            0x08011313   Thumb Code     6  stm32f10x_tim.o(i.TIM_ClearFlag)
    TIM_ClearITPendingBit                    0x08011319   Thumb Code     6  stm32f10x_tim.o(i.TIM_ClearITPendingBit)
    TIM_Cmd                                  0x0801131f   Thumb Code    20  stm32f10x_tim.o(i.TIM_Cmd)
    TIM_CtrlPWMOutputs                       0x08011333   Thumb Code    22  stm32f10x_tim.o(i.TIM_CtrlPWMOutputs)
    TIM_DeInit                               0x08011349   Thumb Code   304  stm32f10x_tim.o(i.TIM_DeInit)
    TIM_EncoderInterfaceConfig               0x080114b9   Thumb Code    50  stm32f10x_tim.o(i.TIM_EncoderInterfaceConfig)
    TIM_GetCounter                           0x080114eb   Thumb Code     4  stm32f10x_tim.o(i.TIM_GetCounter)
    TIM_GetITStatus                          0x080114ef   Thumb Code    24  stm32f10x_tim.o(i.TIM_GetITStatus)
    TIM_ICInit                               0x08011509   Thumb Code   278  stm32f10x_tim.o(i.TIM_ICInit)
    TIM_ICStructInit                         0x08011635   Thumb Code    16  stm32f10x_tim.o(i.TIM_ICStructInit)
    TIM_ITConfig                             0x08011645   Thumb Code    16  stm32f10x_tim.o(i.TIM_ITConfig)
    TIM_OC1Init                              0x08011655   Thumb Code   106  stm32f10x_tim.o(i.TIM_OC1Init)
    TIM_OC1PreloadConfig                     0x080116d5   Thumb Code    12  stm32f10x_tim.o(i.TIM_OC1PreloadConfig)
    TIM_OC4Init                              0x080116e1   Thumb Code    90  stm32f10x_tim.o(i.TIM_OC4Init)
    TIM_OC4PreloadConfig                     0x08011745   Thumb Code    20  stm32f10x_tim.o(i.TIM_OC4PreloadConfig)
    TIM_SelectInputTrigger                   0x08011759   Thumb Code    12  stm32f10x_tim.o(i.TIM_SelectInputTrigger)
    TIM_SetCompare1                          0x08011765   Thumb Code     4  stm32f10x_tim.o(i.TIM_SetCompare1)
    TIM_SetCompare2                          0x08011769   Thumb Code     4  stm32f10x_tim.o(i.TIM_SetCompare2)
    TIM_SetCompare3                          0x0801176d   Thumb Code     4  stm32f10x_tim.o(i.TIM_SetCompare3)
    TIM_SetCompare4                          0x08011771   Thumb Code     6  stm32f10x_tim.o(i.TIM_SetCompare4)
    TIM_SetCounter                           0x08011777   Thumb Code     4  stm32f10x_tim.o(i.TIM_SetCounter)
    TIM_SetIC1Prescaler                      0x0801177b   Thumb Code    16  stm32f10x_tim.o(i.TIM_SetIC1Prescaler)
    TIM_SetIC2Prescaler                      0x0801178b   Thumb Code    24  stm32f10x_tim.o(i.TIM_SetIC2Prescaler)
    TIM_SetIC3Prescaler                      0x080117a3   Thumb Code    16  stm32f10x_tim.o(i.TIM_SetIC3Prescaler)
    TIM_SetIC4Prescaler                      0x080117b3   Thumb Code    24  stm32f10x_tim.o(i.TIM_SetIC4Prescaler)
    TIM_TIxExternalClockConfig               0x080117cb   Thumb Code    46  stm32f10x_tim.o(i.TIM_TIxExternalClockConfig)
    TIM_TimeBaseInit                         0x080117f9   Thumb Code   114  stm32f10x_tim.o(i.TIM_TimeBaseInit)
    TX_Process                               0x0801196d   Thumb Code    30  plc_com.o(i.TX_Process)
    T_100MS                                  0x08011ad1   Thumb Code    96  plc_timer.o(i.T_100MS)
    T_10MS                                   0x08011b41   Thumb Code    96  plc_timer.o(i.T_10MS)
    T_1MS                                    0x08011bb1   Thumb Code    96  plc_timer.o(i.T_1MS)
    T_H100MS                                 0x08011c21   Thumb Code    96  plc_timer.o(i.T_H100MS)
    USART1_Configuration                     0x08011d09   Thumb Code   178  plc_com.o(i.USART1_Configuration)
    USART1_IRQHandler                        0x08011dcd   Thumb Code   122  plc_com.o(i.USART1_IRQHandler)
    USART3_IRQHandler                        0x08011e4d   Thumb Code     6  bsp_uart_fifo.o(i.USART3_IRQHandler)
    USART_ClearFlag                          0x08011e59   Thumb Code     6  stm32f10x_usart.o(i.USART_ClearFlag)
    USART_ClearITPendingBit                  0x08011e5f   Thumb Code    12  stm32f10x_usart.o(i.USART_ClearITPendingBit)
    USART_Cmd                                0x08011e6b   Thumb Code    20  stm32f10x_usart.o(i.USART_Cmd)
    USART_DMACmd                             0x08011e7f   Thumb Code    16  stm32f10x_usart.o(i.USART_DMACmd)
    USART_GetFlagStatus                      0x08011e8f   Thumb Code    14  stm32f10x_usart.o(i.USART_GetFlagStatus)
    USART_GetITStatus                        0x08011e9d   Thumb Code    62  stm32f10x_usart.o(i.USART_GetITStatus)
    USART_ITConfig                           0x08011edb   Thumb Code    48  stm32f10x_usart.o(i.USART_ITConfig)
    USART_Init                               0x08011f0d   Thumb Code   166  stm32f10x_usart.o(i.USART_Init)
    USART_ReceiveData                        0x08011fb9   Thumb Code     8  stm32f10x_usart.o(i.USART_ReceiveData)
    USART_SendData                           0x08011fc1   Thumb Code     8  stm32f10x_usart.o(i.USART_SendData)
    V0_V3                                    0x08012131   Thumb Code    46  ladder.o(i.V0_V3)
    V4_V7                                    0x08012165   Thumb Code    46  ladder.o(i.V4_V7)
    X_Io_Restore                             0x08012199   Thumb Code    76  encode.o(i.X_Io_Restore)
    X_filter                                 0x080121ed   Thumb Code   332  plc_io.o(i.X_filter)
    Y0_Tim_Mode_Config                       0x08012355   Thumb Code   212  pwm_output.o(i.Y0_Tim_Mode_Config)
    Y0_Tim_Mode_Config_DIASBLE               0x0801242d   Thumb Code    42  pwm_output.o(i.Y0_Tim_Mode_Config_DIASBLE)
    Y1_Tim_Mode_Config                       0x0801245d   Thumb Code   212  pwm_output.o(i.Y1_Tim_Mode_Config)
    Y1_Tim_Mode_Config_DIASBLE               0x08012535   Thumb Code    42  pwm_output.o(i.Y1_Tim_Mode_Config_DIASBLE)
    Z0_Z3                                    0x08012565   Thumb Code    46  ladder.o(i.Z0_Z3)
    Z4_Z7                                    0x08012599   Thumb Code    46  ladder.o(i.Z4_Z7)
    _IWDG_Init                               0x080126a9   Thumb Code    66  main.o(i._IWDG_Init)
    __ARM_fpclassify                         0x080126f1   Thumb Code    40  fpclassify.o(i.__ARM_fpclassify)
    __ieee754_rem_pio2                       0x08012719   Thumb Code   828  rred.o(i.__ieee754_rem_pio2)
    __kernel_cos                             0x08012aa1   Thumb Code   230  cos_i.o(i.__kernel_cos)
    __kernel_poly                            0x08012b9d   Thumb Code   170  poly.o(i.__kernel_poly)
    __kernel_sin                             0x08012c49   Thumb Code   224  sin_i.o(i.__kernel_sin)
    __kernel_tan                             0x08012d35   Thumb Code   586  tan_i.o(i.__kernel_tan)
    __mathlib_dbl_infnan                     0x08012fb1   Thumb Code     6  dunder.o(i.__mathlib_dbl_infnan)
    __mathlib_dbl_invalid                    0x08012fb7   Thumb Code    12  dunder.o(i.__mathlib_dbl_invalid)
    __mathlib_dbl_underflow                  0x08012fc5   Thumb Code    10  dunder.o(i.__mathlib_dbl_underflow)
    all_flash_lock                           0x08013111   Thumb Code    36  plc_com.o(i.all_flash_lock)
    all_flash_unlock                         0x0801313d   Thumb Code    24  plc_com.o(i.all_flash_unlock)
    b2g                                      0x080131e1   Thumb Code    54  ladder.o(i.b2g)
    backup_block                             0x08013219   Thumb Code    38  plc_com.o(i.backup_block)
    bsp_Idle                                 0x08013351   Thumb Code     6  bsp.o(i.bsp_Idle)
    bsp_Init                                 0x08013357   Thumb Code    22  bsp.o(i.bsp_Init)
    bsp_InitHardTimer                        0x0801336d   Thumb Code    92  bsp_timer.o(i.bsp_InitHardTimer)
    bsp_InitTimer                            0x080133d5   Thumb Code    84  bsp_timer.o(i.bsp_InitTimer)
    bsp_InitUart                             0x08013435   Thumb Code    38  bsp_uart_fifo.o(i.bsp_InitUart)
    bsp_StartHardTimer                       0x0801345d   Thumb Code   152  bsp_timer.o(i.bsp_StartHardTimer)
    comSendBuf                               0x080134fd   Thumb Code   126  bsp_uart_fifo.o(i.comSendBuf)
    cos                                      0x0801357d   Thumb Code   148  cos.o(i.cos)
    data_init                                0x08014029   Thumb Code    70  plc_com.o(i.data_init)
    expand_AND                               0x080145bd   Thumb Code    24  ladder.o(i.expand_AND)
    expand_ANI                               0x080145d9   Thumb Code    24  ladder.o(i.expand_ANI)
    expand_LD                                0x080145f5   Thumb Code    24  ladder.o(i.expand_LD)
    expand_LDI                               0x08014611   Thumb Code    24  ladder.o(i.expand_LDI)
    expand_OR                                0x0801462d   Thumb Code    24  ladder.o(i.expand_OR)
    expand_ORI                               0x08014649   Thumb Code    24  ladder.o(i.expand_ORI)
    expand_OUT                               0x08014665   Thumb Code    24  ladder.o(i.expand_OUT)
    expand_RST                               0x08014681   Thumb Code    24  ladder.o(i.expand_RST)
    expand_SET                               0x0801469d   Thumb Code    24  ladder.o(i.expand_SET)
    find_end                                 0x08014775   Thumb Code    18  plc_com.o(i.find_end)
    find_p                                   0x08014791   Thumb Code    48  ladder.o(i.find_p)
    find_toend                               0x080147cd   Thumb Code    34  ladder.o(i.find_toend)
    g2b                                      0x080148d5   Thumb Code    60  ladder.o(i.g2b)
    main                                     0x08014a21   Thumb Code   106  main.o(i.main)
    mov_flash                                0x08014a99   Thumb Code   224  plc_com.o(i.mov_flash)
    online_write_data                        0x08014c0d   Thumb Code   296  plc_com.o(i.online_write_data)
    read_other_data                          0x08014db5   Thumb Code   132  plc_com.o(i.read_other_data)
    read_plc_tyte                            0x08014e49   Thumb Code   112  plc_com.o(i.read_plc_tyte)
    setup_HL                                 0x08014ec9   Thumb Code    16  plc_com.o(i.setup_HL)
    setup_LH                                 0x08014ee1   Thumb Code    16  plc_com.o(i.setup_LH)
    sin                                      0x08014ef9   Thumb Code   150  sin.o(i.sin)
    sqrt                                     0x08014f99   Thumb Code    76  sqrt.o(i.sqrt)
    switch_read_data                         0x08014fe5   Thumb Code    50  plc_com.o(i.switch_read_data)
    tan                                      0x08015025   Thumb Code    90  tan.o(i.tan)
    timer_disble                             0x08015351   Thumb Code   106  plc_timer.o(i.timer_disble)
    timer_enable                             0x080153cd   Thumb Code   116  plc_timer.o(i.timer_enable)
    usart                                    0x08015455   Thumb Code    42  plc_com.o(i.usart)
    write_block                              0x08015485   Thumb Code    82  plc_com.o(i.write_block)
    xMBUtilGetBits                           0x080154e1   Thumb Code    30  modbus_slave.o(i.xMBUtilGetBits)
    xMBUtilSetBits                           0x080154ff   Thumb Code    40  modbus_slave.o(i.xMBUtilSetBits)
    __aeabi_d2f                              0x08015529   Thumb Code     0  d2f.o(x$fpl$d2f)
    _d2f                                     0x08015529   Thumb Code    98  d2f.o(x$fpl$d2f)
    __aeabi_dadd                             0x0801558d   Thumb Code     0  daddsub_clz.o(x$fpl$dadd)
    _dadd                                    0x0801558d   Thumb Code   332  daddsub_clz.o(x$fpl$dadd)
    __fpl_dcheck_NaN1                        0x080156dd   Thumb Code    10  dcheck1.o(x$fpl$dcheck1)
    __aeabi_ddiv                             0x080156ed   Thumb Code     0  ddiv.o(x$fpl$ddiv)
    _ddiv                                    0x080156ed   Thumb Code   552  ddiv.o(x$fpl$ddiv)
    __aeabi_d2iz                             0x0801599d   Thumb Code     0  dfix.o(x$fpl$dfix)
    _dfix                                    0x0801599d   Thumb Code    94  dfix.o(x$fpl$dfix)
    __aeabi_d2uiz                            0x080159fd   Thumb Code     0  dfixu.o(x$fpl$dfixu)
    _dfixu                                   0x080159fd   Thumb Code    90  dfixu.o(x$fpl$dfixu)
    __aeabi_i2d                              0x08015a57   Thumb Code     0  dflt_clz.o(x$fpl$dflt)
    _dflt                                    0x08015a57   Thumb Code    46  dflt_clz.o(x$fpl$dflt)
    __aeabi_ui2d                             0x08015a85   Thumb Code     0  dflt_clz.o(x$fpl$dfltu)
    _dfltu                                   0x08015a85   Thumb Code    38  dflt_clz.o(x$fpl$dfltu)
    __aeabi_dmul                             0x08015aad   Thumb Code     0  dmul.o(x$fpl$dmul)
    _dmul                                    0x08015aad   Thumb Code   332  dmul.o(x$fpl$dmul)
    __fpl_dnaninf                            0x08015c01   Thumb Code   156  dnaninf.o(x$fpl$dnaninf)
    __fpl_dretinf                            0x08015c9d   Thumb Code    12  dretinf.o(x$fpl$dretinf)
    __aeabi_drsub                            0x08015ca9   Thumb Code     0  daddsub_clz.o(x$fpl$drsb)
    _drsb                                    0x08015ca9   Thumb Code    22  daddsub_clz.o(x$fpl$drsb)
    _dsqrt                                   0x08015cc1   Thumb Code   456  dsqrt_noumaal.o(x$fpl$dsqrt)
    __aeabi_dsub                             0x08015e8d   Thumb Code     0  daddsub_clz.o(x$fpl$dsub)
    _dsub                                    0x08015e8d   Thumb Code   464  daddsub_clz.o(x$fpl$dsub)
    __aeabi_f2d                              0x08016061   Thumb Code     0  f2d.o(x$fpl$f2d)
    _f2d                                     0x08016061   Thumb Code    86  f2d.o(x$fpl$f2d)
    __aeabi_fadd                             0x080160b9   Thumb Code     0  faddsub_clz.o(x$fpl$fadd)
    _fadd                                    0x080160b9   Thumb Code   196  faddsub_clz.o(x$fpl$fadd)
    __fpl_fcmp_Inf                           0x0801617d   Thumb Code    24  fcmpi.o(x$fpl$fcmpinf)
    __aeabi_fdiv                             0x08016195   Thumb Code     0  fdiv.o(x$fpl$fdiv)
    _fdiv                                    0x08016195   Thumb Code   384  fdiv.o(x$fpl$fdiv)
    __aeabi_cfcmpeq                          0x08016319   Thumb Code     0  feqf.o(x$fpl$feqf)
    _fcmpeq                                  0x08016319   Thumb Code   104  feqf.o(x$fpl$feqf)
    __aeabi_f2uiz                            0x08016381   Thumb Code     0  ffixu.o(x$fpl$ffixu)
    _ffixu                                   0x08016381   Thumb Code    62  ffixu.o(x$fpl$ffixu)
    __aeabi_i2f                              0x080163c1   Thumb Code     0  fflt_clz.o(x$fpl$fflt)
    _fflt                                    0x080163c1   Thumb Code    48  fflt_clz.o(x$fpl$fflt)
    __aeabi_cfcmple                          0x080163f1   Thumb Code     0  fleqf.o(x$fpl$fleqf)
    _fcmple                                  0x080163f1   Thumb Code   104  fleqf.o(x$fpl$fleqf)
    __fpl_fcmple_InfNaN                      0x08016443   Thumb Code     0  fleqf.o(x$fpl$fleqf)
    __aeabi_fmul                             0x08016459   Thumb Code     0  fmul.o(x$fpl$fmul)
    _fmul                                    0x08016459   Thumb Code   258  fmul.o(x$fpl$fmul)
    __fpl_fnaninf                            0x0801655b   Thumb Code   140  fnaninf.o(x$fpl$fnaninf)
    __fpl_fretinf                            0x080165e7   Thumb Code    10  fretinf.o(x$fpl$fretinf)
    __aeabi_cfrcmple                         0x080165f1   Thumb Code     0  frleqf.o(x$fpl$frleqf)
    _frcmple                                 0x080165f1   Thumb Code    98  frleqf.o(x$fpl$frleqf)
    __aeabi_fsub                             0x08016655   Thumb Code     0  faddsub_clz.o(x$fpl$fsub)
    _fsub                                    0x08016655   Thumb Code   234  faddsub_clz.o(x$fpl$fsub)
    __fpl_return_NaN                         0x0801673f   Thumb Code   100  retnan.o(x$fpl$retnan)
    __ARM_scalbn                             0x080167a3   Thumb Code    92  scalbn.o(x$fpl$scalbn)
    __fpl_cmpreturn                          0x080167ff   Thumb Code    48  trapv.o(x$fpl$trapveneer)
    __I$use$fp                               0x0801682e   Number         0  usenofp.o(x$fpl$usenofp)
    mon_table                                0x0801682e   Data          12  rtc.o(.constdata)
    PLC_BIT_OR                               0x0801683a   Data           8  ladder.o(.constdata)
    PLC_BIT_AND                              0x08016842   Data           8  ladder.o(.constdata)
    DE                                       0x0801684a   Data          34  ladder.o(.constdata)
    SEGD_LED                                 0x0801686c   Data          16  ladder.o(.constdata)
    special_d                                0x0801687c   Data         512  plc_com.o(.constdata)
    Ascll                                    0x08016a7c   Data          20  plc_com.o(.constdata)
    hex                                      0x08016a90   Data          77  plc_com.o(.constdata)
    s_CRCLo                                  0x08016bdd   Data         256  bsp_user_lib.o(.constdata)
    config                                   0x08016cdd   Data           4  modbus_slave.o(.constdata)
    Region$$Table$$Base                      0x08016e68   Number         0  anon$$obj.o(Region$$Table)
    Region$$Table$$Limit                     0x08016e88   Number         0  anon$$obj.o(Region$$Table)
    SystemCoreClock                          0x20000014   Data           4  system_stm32f10x.o(.data)
    AHBPrescTable                            0x20000018   Data          16  system_stm32f10x.o(.data)
    week_tab                                 0x2000002a   Data          13  rtc.o(.data)
    powerDownFlg                             0x20000038   Data           1  plc_io.o(.data)
    x_in                                     0x2000003a   Data           4  plc_io.o(.data)
    y_out                                    0x2000003e   Data           4  plc_io.o(.data)
    powerDownCnt                             0x20000042   Data           1  plc_io.o(.data)
    X_DIY                                    0x20000043   Data           1  plc_io.o(.data)
    Flag_bit                                 0x20000078   Data           1  ladder.o(.data)
    Transfer_bit                             0x2000007e   Data           1  ladder.o(.data)
    Transfer_bit1                            0x2000007f   Data           1  ladder.o(.data)
    edit_prog                                0x20000080   Data           1  ladder.o(.data)
    Transfer                                 0x20000086   Data           2  ladder.o(.data)
    trade                                    0x200000dc   Data           4  ladder.o(.data)
    FLOAT                                    0x200000e0   Data           4  ladder.o(.data)
    u32data                                  0x200000e4   Data           4  ladder.o(.data)
    u32data1                                 0x200000e8   Data           4  ladder.o(.data)
    MC                                       0x200000ec   Data           4  ladder.o(.data)
    bcd                                      0x200000f0   Data           8  ladder.o(.data)
    u64data                                  0x20000100   Data           8  ladder.o(.data)
    ab0LastCount                             0x20000110   Data           2  encode.o(.data)
    ab1LastCount                             0x20000112   Data           2  encode.o(.data)
    a0Cnt                                    0x20000114   Data           4  encode.o(.data)
    a1Cnt                                    0x20000118   Data           4  encode.o(.data)
    a0Times                                  0x2000011c   Data           4  encode.o(.data)
    a1Times                                  0x20000120   Data           4  encode.o(.data)
    sampled                                  0x2000012c   Data           1  adc.o(.data)
    adcDmaBuf                                0x2000012e   Data           4  adc.o(.data)
    AdcAverage                               0x20000132   Data           4  adc.o(.data)
    adcSum                                   0x20000138   Data           8  adc.o(.data)
    Write_Pro_flag                           0x20000141   Data           1  plc_com.o(.data)
    data_size                                0x20000145   Data           1  plc_com.o(.data)
    Send_out                                 0x20000146   Data           1  plc_com.o(.data)
    rx_count                                 0x2000014c   Data           2  plc_com.o(.data)
    tx_count                                 0x2000014e   Data           2  plc_com.o(.data)
    prog_address                             0x20000150   Data           2  plc_com.o(.data)
    data_address                             0x20000152   Data           2  plc_com.o(.data)
    block_contol                             0x20000154   Data           2  plc_com.o(.data)
    gCommLedFlashFlg                         0x20000159   Data           1  bsp_timer.o(.data)
    plc_scan_time                            0x2000015e   Data           2  bsp_timer.o(.data)
    g_iRunTime                               0x20000164   Data           4  bsp_timer.o(.data)
    process                                  0x200005a4   Data         128  ladder.o(.bss)
    FOR_CMD                                  0x20000624   Data          60  ladder.o(.bss)
    gPulse_Pro                               0x20000860   Data         192  pwm_output.o(.bss)
    S_Cap_Pulse_Pro                          0x20000920   Data          16  encode.o(.bss)
    adcBuf                                   0x20000930   Data          40  adc.o(.bss)
    __libspace_start                         0x20000988   Data          96  libspace.o(.bss)
    __temporary_stack_top$libspace           0x200009e8   Data           0  libspace.o(.bss)
    plc_16BitBuf                             0x20001000   Data       33200  plc_com.o(.ARM.__AT_0x20001000)
    prog_write_buffer                        0x200091b0   Data        4100  plc_com.o(.bss)
    tx_data                                  0x2000a1b4   Data         610  plc_com.o(.bss)
    rx_data                                  0x2000a416   Data         610  plc_com.o(.bss)
    step_address                             0x2000a678   Data        2000  plc_com.o(.bss)
    g_tModH                                  0x2000b678   Data        2100  modbus_host.o(.bss)
    g_tModS                                  0x2000beac   Data        2068  modbus_slave.o(.bss)
    gModbusBuf                               0x2000c6c0   Data         200  modbus_slave.o(.bss)
    gModbusBitBuf                            0x2000c788   Data         200  modbus_slave.o(.bss)



==============================================================================

Memory Map of the image

  Image Entry point : 0x08000131

  Load Region LR_IROM1 (Base: 0x08000000, Size: 0x00017000, Max: 0x00080000, ABSOLUTE, COMPRESSED[0x00016ec0])

    Execution Region ER_IROM1 (Base: 0x08000000, Size: 0x00016e88, Max: 0x00080000, ABSOLUTE)

    Base Addr    Size         Type   Attr      Idx    E Section Name        Object

    0x08000000   0x00000130   Data   RO            3    RESET               startup_stm32f10x_hd.o
    0x08000130   0x00000008   Code   RO         5372  * !!!main             c_w.l(__main.o)
    0x08000138   0x00000034   Code   RO         5857    !!!scatter          c_w.l(__scatter.o)
    0x0800016c   0x0000005a   Code   RO         5855    !!dczerorl2         c_w.l(__dczerorl2.o)
    0x080001c6   0x00000002   PAD
    0x080001c8   0x0000001c   Code   RO         5859    !!handler_zi        c_w.l(__scatter_zi.o)
    0x080001e4   0x00000002   Code   RO         5669    .ARM.Collect$$libinit$$00000000  c_w.l(libinit.o)
    0x080001e6   0x00000000   Code   RO         5671    .ARM.Collect$$libinit$$00000002  c_w.l(libinit2.o)
    0x080001e6   0x00000000   Code   RO         5673    .ARM.Collect$$libinit$$00000004  c_w.l(libinit2.o)
    0x080001e6   0x00000000   Code   RO         5676    .ARM.Collect$$libinit$$0000000A  c_w.l(libinit2.o)
    0x080001e6   0x00000000   Code   RO         5678    .ARM.Collect$$libinit$$0000000C  c_w.l(libinit2.o)
    0x080001e6   0x00000000   Code   RO         5680    .ARM.Collect$$libinit$$0000000E  c_w.l(libinit2.o)
    0x080001e6   0x00000000   Code   RO         5683    .ARM.Collect$$libinit$$00000011  c_w.l(libinit2.o)
    0x080001e6   0x00000000   Code   RO         5685    .ARM.Collect$$libinit$$00000013  c_w.l(libinit2.o)
    0x080001e6   0x00000000   Code   RO         5687    .ARM.Collect$$libinit$$00000015  c_w.l(libinit2.o)
    0x080001e6   0x00000000   Code   RO         5689    .ARM.Collect$$libinit$$00000017  c_w.l(libinit2.o)
    0x080001e6   0x00000000   Code   RO         5691    .ARM.Collect$$libinit$$00000019  c_w.l(libinit2.o)
    0x080001e6   0x00000000   Code   RO         5693    .ARM.Collect$$libinit$$0000001B  c_w.l(libinit2.o)
    0x080001e6   0x00000000   Code   RO         5695    .ARM.Collect$$libinit$$0000001D  c_w.l(libinit2.o)
    0x080001e6   0x00000000   Code   RO         5697    .ARM.Collect$$libinit$$0000001F  c_w.l(libinit2.o)
    0x080001e6   0x00000000   Code   RO         5699    .ARM.Collect$$libinit$$00000021  c_w.l(libinit2.o)
    0x080001e6   0x00000000   Code   RO         5701    .ARM.Collect$$libinit$$00000023  c_w.l(libinit2.o)
    0x080001e6   0x00000000   Code   RO         5703    .ARM.Collect$$libinit$$00000025  c_w.l(libinit2.o)
    0x080001e6   0x00000000   Code   RO         5707    .ARM.Collect$$libinit$$0000002C  c_w.l(libinit2.o)
    0x080001e6   0x00000000   Code   RO         5709    .ARM.Collect$$libinit$$0000002E  c_w.l(libinit2.o)
    0x080001e6   0x00000000   Code   RO         5711    .ARM.Collect$$libinit$$00000030  c_w.l(libinit2.o)
    0x080001e6   0x00000000   Code   RO         5713    .ARM.Collect$$libinit$$00000032  c_w.l(libinit2.o)
    0x080001e6   0x00000002   Code   RO         5714    .ARM.Collect$$libinit$$00000033  c_w.l(libinit2.o)
    0x080001e8   0x00000002   Code   RO         5836    .ARM.Collect$$libshutdown$$00000000  c_w.l(libshutdown.o)
    0x080001ea   0x00000000   Code   RO         5717    .ARM.Collect$$libshutdown$$00000003  c_w.l(libshutdown2.o)
    0x080001ea   0x00000000   Code   RO         5720    .ARM.Collect$$libshutdown$$00000006  c_w.l(libshutdown2.o)
    0x080001ea   0x00000000   Code   RO         5723    .ARM.Collect$$libshutdown$$00000009  c_w.l(libshutdown2.o)
    0x080001ea   0x00000000   Code   RO         5725    .ARM.Collect$$libshutdown$$0000000B  c_w.l(libshutdown2.o)
    0x080001ea   0x00000000   Code   RO         5728    .ARM.Collect$$libshutdown$$0000000E  c_w.l(libshutdown2.o)
    0x080001ea   0x00000002   Code   RO         5729    .ARM.Collect$$libshutdown$$0000000F  c_w.l(libshutdown2.o)
    0x080001ec   0x00000000   Code   RO         5454    .ARM.Collect$$rtentry$$00000000  c_w.l(__rtentry.o)
    0x080001ec   0x00000000   Code   RO         5524    .ARM.Collect$$rtentry$$00000002  c_w.l(__rtentry2.o)
    0x080001ec   0x00000006   Code   RO         5536    .ARM.Collect$$rtentry$$00000004  c_w.l(__rtentry4.o)
    0x080001f2   0x00000000   Code   RO         5526    .ARM.Collect$$rtentry$$00000009  c_w.l(__rtentry2.o)
    0x080001f2   0x00000004   Code   RO         5527    .ARM.Collect$$rtentry$$0000000A  c_w.l(__rtentry2.o)
    0x080001f6   0x00000000   Code   RO         5529    .ARM.Collect$$rtentry$$0000000C  c_w.l(__rtentry2.o)
    0x080001f6   0x00000008   Code   RO         5530    .ARM.Collect$$rtentry$$0000000D  c_w.l(__rtentry2.o)
    0x080001fe   0x00000002   Code   RO         5735    .ARM.Collect$$rtexit$$00000000  c_w.l(rtexit.o)
    0x08000200   0x00000000   Code   RO         5785    .ARM.Collect$$rtexit$$00000002  c_w.l(rtexit2.o)
    0x08000200   0x00000004   Code   RO         5786    .ARM.Collect$$rtexit$$00000003  c_w.l(rtexit2.o)
    0x08000204   0x00000006   Code   RO         5787    .ARM.Collect$$rtexit$$00000004  c_w.l(rtexit2.o)
    0x0800020a   0x00000002   PAD
    0x0800020c   0x00000040   Code   RO            4    .text               startup_stm32f10x_hd.o
    0x0800024c   0x000000ee   Code   RO         5322    .text               c_w.l(lludivv7m.o)
    0x0800033a   0x00000026   Code   RO         5324    .text               c_w.l(llshl.o)
    0x08000360   0x00000026   Code   RO         5326    .text               c_w.l(llushr.o)
    0x08000386   0x00000058   Code   RO         5360    .text               c_w.l(memcmp.o)
    0x080003de   0x0000008a   Code   RO         5364    .text               c_w.l(rt_memcpy_v6.o)
    0x08000468   0x00000044   Code   RO         5366    .text               c_w.l(rt_memclr.o)
    0x080004ac   0x0000004e   Code   RO         5368    .text               c_w.l(rt_memclr_w.o)
    0x080004fa   0x00000006   Code   RO         5370    .text               c_w.l(heapauxi.o)
    0x08000500   0x00000016   Code   RO         5459    .text               c_w.l(_rserrno.o)
    0x08000516   0x00000064   Code   RO         5472    .text               c_w.l(rt_memcpy_w.o)
    0x0800057a   0x00000002   PAD
    0x0800057c   0x00000008   Code   RO         5543    .text               c_w.l(rt_errno_addr_intlibspace.o)
    0x08000584   0x00000008   Code   RO         5578    .text               c_w.l(libspace.o)
    0x0800058c   0x0000004a   Code   RO         5583    .text               c_w.l(sys_stackheap_outer.o)
    0x080005d6   0x0000000c   Code   RO         5654    .text               c_w.l(exit.o)
    0x080005e2   0x00000002   Code   RO         5732    .text               c_w.l(use_no_semi.o)
    0x080005e4   0x00000000   Code   RO         5734    .text               c_w.l(indicate_semi.o)
    0x080005e4   0x0000000c   Code   RO         5782    .text               c_w.l(sys_exit.o)
    0x080005f0   0x00000014   Code   RO          139    i.ADC_Cmd           stm32f10x_adc.o
    0x08000604   0x00000014   Code   RO          140    i.ADC_DMACmd        stm32f10x_adc.o
    0x08000618   0x0000000e   Code   RO          147    i.ADC_GetCalibrationStatus  stm32f10x_adc.o
    0x08000626   0x0000000e   Code   RO          153    i.ADC_GetResetCalibrationStatus  stm32f10x_adc.o
    0x08000634   0x00000048   Code   RO          157    i.ADC_Init          stm32f10x_adc.o
    0x0800067c   0x00000074   Code   RO          161    i.ADC_RegularChannelConfig  stm32f10x_adc.o
    0x080006f0   0x0000000a   Code   RO          162    i.ADC_ResetCalibration  stm32f10x_adc.o
    0x080006fa   0x00000002   PAD
    0x080006fc   0x00000080   Code   RO         4360    i.ADC_Sample        adc.o
    0x0800077c   0x00000014   Code   RO          164    i.ADC_SoftwareStartConvCmd  stm32f10x_adc.o
    0x08000790   0x0000000a   Code   RO          166    i.ADC_StartCalibration  stm32f10x_adc.o
    0x0800079a   0x00000002   PAD
    0x0800079c   0x00000124   Code   RO         4361    i.ADC_init          adc.o
    0x080008c0   0x00000050   Code   RO         3432    i.ALT               ladder.o
    0x08000910   0x00000038   Code   RO         3433    i.AND               ladder.o
    0x08000948   0x000000b0   Code   RO         3434    i.ANDF              ladder.o
    0x080009f8   0x000000b0   Code   RO         3435    i.ANDP              ladder.o
    0x08000aa8   0x00000038   Code   RO         3436    i.ANI               ladder.o
    0x08000ae0   0x00000064   Code   RO         3437    i.BCD               ladder.o
    0x08000b44   0x00000006   Code   RO         5008    i.BEBufToUint16     bsp_user_lib.o
    0x08000b4a   0x00000002   PAD
    0x08000b4c   0x00000058   Code   RO         3438    i.BIN               ladder.o
    0x08000ba4   0x000000a0   Code   RO         3439    i.BIT_SET           ladder.o
    0x08000c44   0x00000012   Code   RO          357    i.BKP_DeInit        stm32f10x_bkp.o
    0x08000c56   0x00000002   PAD
    0x08000c58   0x00000010   Code   RO          362    i.BKP_ReadBackupRegister  stm32f10x_bkp.o
    0x08000c68   0x00000010   Code   RO          366    i.BKP_WriteBackupRegister  stm32f10x_bkp.o
    0x08000c78   0x00000080   Code   RO         3440    i.BMOV              ladder.o
    0x08000cf8   0x00000020   Code   RO         3441    i.BtoG              ladder.o
    0x08000d18   0x00000058   Code   RO         3442    i.CALL_EX           ladder.o
    0x08000d70   0x00000028   Code   RO         3443    i.CJ_EX             ladder.o
    0x08000d98   0x000000d8   Code   RO         3444    i.CMP               ladder.o
    0x08000e70   0x000000dc   Code   RO         3445    i.CMPP              ladder.o
    0x08000f4c   0x0000002c   Code   RO         5011    i.CRC16_Modbus      bsp_user_lib.o
    0x08000f78   0x00000044   Code   RO         3446    i.C_given_value_D   ladder.o
    0x08000fbc   0x00000014   Code   RO         4218    i.Cap_PulseInputInit  encode.o
    0x08000fd0   0x00000028   Code   RO         4402    i.CheckSum          plc_com.o
    0x08000ff8   0x00000018   Code   RO         4879    i.ComToUart         bsp_uart_fifo.o
    0x08001010   0x00000018   Code   RO          720    i.DAC_Cmd           stm32f10x_dac.o
    0x08001028   0x00000028   Code   RO          725    i.DAC_Init          stm32f10x_dac.o
    0x08001050   0x00000014   Code   RO          726    i.DAC_SetChannel1Data  stm32f10x_dac.o
    0x08001064   0x00000014   Code   RO          727    i.DAC_SetChannel2Data  stm32f10x_dac.o
    0x08001078   0x0000001c   Code   RO          729    i.DAC_SoftwareTriggerCmd  stm32f10x_dac.o
    0x08001094   0x00000030   Code   RO         4342    i.DAC_data          dac.o
    0x080010c4   0x0000008c   Code   RO         4343    i.DAC_out_init      dac.o
    0x08001150   0x000000cc   Code   RO         3447    i.DBCD              ladder.o
    0x0800121c   0x00000100   Code   RO         3448    i.DBIN              ladder.o
    0x0800131c   0x000000d4   Code   RO         3449    i.DCMP              ladder.o
    0x080013f0   0x000000d8   Code   RO         3450    i.DCMPP             ladder.o
    0x080014c8   0x00000060   Code   RO         3451    i.DDIV              ladder.o
    0x08001528   0x00000058   Code   RO         3452    i.DECO              ladder.o
    0x08001580   0x00000060   Code   RO         3453    i.DFMOV             ladder.o
    0x080015e0   0x00000098   Code   RO         3454    i.DINC_P            ladder.o
    0x08001678   0x0000004c   Code   RO         4363    i.DMA1_Channel1_IRQHandler  adc.o
    0x080016c4   0x00000024   Code   RO         4403    i.DMA1_Channel4_IRQHandler  plc_com.o
    0x080016e8   0x00000018   Code   RO          823    i.DMA_ClearITPendingBit  stm32f10x_dma.o
    0x08001700   0x00000016   Code   RO          824    i.DMA_Cmd           stm32f10x_dma.o
    0x08001716   0x00000002   PAD
    0x08001718   0x000000e4   Code   RO          825    i.DMA_DeInit        stm32f10x_dma.o
    0x080017fc   0x00000010   Code   RO          829    i.DMA_ITConfig      stm32f10x_dma.o
    0x0800180c   0x0000003a   Code   RO          830    i.DMA_Init          stm32f10x_dma.o
    0x08001846   0x00000002   PAD
    0x08001848   0x00000054   Code   RO         3455    i.DMUL              ladder.o
    0x0800189c   0x00000048   Code   RO         3456    i.DZ0_Z3            ladder.o
    0x080018e4   0x0000004c   Code   RO         3457    i.DZ4_Z7            ladder.o
    0x08001930   0x000000dc   Code   RO         3458    i.DZCP              ladder.o
    0x08001a0c   0x0000006c   Code   RO         3459    i.D_C_T_addr        ladder.o
    0x08001a78   0x00000218   Code   RO         3460    i.D_target          ladder.o
    0x08001c90   0x00000084   Code   RO         3461    i.Damount           ladder.o
    0x08001d14   0x00000084   Code   RO         3462    i.Dbig              ladder.o
    0x08001d98   0x00000084   Code   RO         3463    i.Dbig_amount       ladder.o
    0x08001e1c   0x00000084   Code   RO         3464    i.Dless             ladder.o
    0x08001ea0   0x00000098   Code   RO         3465    i.Dless_amount      ladder.o
    0x08001f38   0x00000084   Code   RO         3466    i.Dno_amount        ladder.o
    0x08001fbc   0x000000ec   Code   RO         3467    i.ECMP              ladder.o
    0x080020a8   0x00000068   Code   RO         3468    i.ENCO              ladder.o
    0x08002110   0x00000030   Code   RO         4219    i.ENC_Get_AB0_Electrical_Angle  encode.o
    0x08002140   0x00000030   Code   RO         4220    i.ENC_Get_AB1_Electrical_Angle  encode.o
    0x08002170   0x00000040   Code   RO         4404    i.EPC_FORCE_OFF     plc_com.o
    0x080021b0   0x0000006c   Code   RO         4405    i.EPC_FORCE_ON      plc_com.o
    0x0800221c   0x00000024   Code   RO         3242    i.EXTI9_5_IRQHandler  plc_io.o
    0x08002240   0x0000000c   Code   RO          895    i.EXTI_ClearITPendingBit  stm32f10x_exti.o
    0x0800224c   0x00000070   Code   RO          900    i.EXTI_Init         stm32f10x_exti.o
    0x080022bc   0x000000cc   Code   RO         3469    i.EZCP              ladder.o
    0x08002388   0x00000044   Code   RO         4221    i.Encode_Pro_Callback  encode.o
    0x080023cc   0x000000c8   Code   RO         4222    i.Encoder_A0_Configuration  encode.o
    0x08002494   0x00000060   Code   RO         4223    i.Encoder_A0_Restore  encode.o
    0x080024f4   0x000000c4   Code   RO         4224    i.Encoder_A1_Configuration  encode.o
    0x080025b8   0x00000050   Code   RO         4225    i.Encoder_A1_Restore  encode.o
    0x08002608   0x000000a8   Code   RO         4226    i.Encoder_AB0_Configration  encode.o
    0x080026b0   0x00000058   Code   RO         4227    i.Encoder_AB0_Restore  encode.o
    0x08002708   0x00000098   Code   RO         4228    i.Encoder_AB1_Configration  encode.o
    0x080027a0   0x00000048   Code   RO         4229    i.Encoder_AB1_Restore  encode.o
    0x080027e8   0x000000b4   Code   RO         4406    i.ErasurePLC        plc_com.o
    0x0800289c   0x0000000c   Code   RO          948    i.FLASH_ClearFlag   stm32f10x_flash.o
    0x080028a8   0x0000007c   Code   RO          952    i.FLASH_EraseOptionBytes  stm32f10x_flash.o
    0x08002924   0x0000003c   Code   RO          953    i.FLASH_ErasePage   stm32f10x_flash.o
    0x08002960   0x00000028   Code   RO          954    i.FLASH_GetBank1Status  stm32f10x_flash.o
    0x08002988   0x00000014   Code   RO          957    i.FLASH_GetReadOutProtectionStatus  stm32f10x_flash.o
    0x0800299c   0x0000000c   Code   RO          960    i.FLASH_GetWriteProtectionOptionByte  stm32f10x_flash.o
    0x080029a8   0x00000010   Code   RO          963    i.FLASH_Lock        stm32f10x_flash.o
    0x080029b8   0x00000034   Code   RO          966    i.FLASH_ProgramHalfWord  stm32f10x_flash.o
    0x080029ec   0x00000050   Code   RO          968    i.FLASH_ProgramWord  stm32f10x_flash.o
    0x08002a3c   0x00000018   Code   RO          971    i.FLASH_Unlock      stm32f10x_flash.o
    0x08002a54   0x00000022   Code   RO          975    i.FLASH_WaitForLastOperation  stm32f10x_flash.o
    0x08002a76   0x00000002   PAD
    0x08002a78   0x00000068   Code   RO         3470    i.FMOV              ladder.o
    0x08002ae0   0x00000eaa   Code   RO         3471    i.FNC_AppInstruct   ladder.o
    0x0800398a   0x00000002   PAD
    0x0800398c   0x00000050   Code   RO         3472    i.FOR               ladder.o
    0x080039dc   0x0000007c   Code   RO         3367    i.Flash_EraseProgramPage  plc_other.o
    0x08003a58   0x00000074   Code   RO         3368    i.Flash_ReadKeepData  plc_other.o
    0x08003acc   0x00000054   Code   RO         3369    i.Flash_WriteKeepData  plc_other.o
    0x08003b20   0x00000054   Code   RO         3370    i.Flash_WriteKeepData_Backup  plc_other.o
    0x08003b74   0x00000034   Code   RO         3473    i.Func_MC           ladder.o
    0x08003ba8   0x0000002c   Code   RO         3474    i.Func_MCR          ladder.o
    0x08003bd4   0x00000028   Code   RO         1243    i.GPIO_EXTILineConfig  stm32f10x_gpio.o
    0x08003bfc   0x0000009c   Code   RO         1246    i.GPIO_Init         stm32f10x_gpio.o
    0x08003c98   0x00000058   Code   RO         1248    i.GPIO_PinRemapConfig  stm32f10x_gpio.o
    0x08003cf0   0x00000004   Code   RO         1253    i.GPIO_ResetBits    stm32f10x_gpio.o
    0x08003cf4   0x00000092   Code   RO         5202    i.GetBitOffset      modbus_slave.o
    0x08003d86   0x00000002   PAD
    0x08003d88   0x00000020   Code   RO         4230    i.Get_A0_Count      encode.o
    0x08003da8   0x00000020   Code   RO         4231    i.Get_A1_Count      encode.o
    0x08003dc8   0x00000034   Code   RO         4232    i.Get_AB0_Count     encode.o
    0x08003dfc   0x00000034   Code   RO         4233    i.Get_AB1_Count     encode.o
    0x08003e30   0x00000020   Code   RO         3475    i.GtoB              ladder.o
    0x08003e50   0x00000010   Code   RO         1558    i.IWDG_Enable       stm32f10x_iwdg.o
    0x08003e60   0x00000010   Code   RO         1560    i.IWDG_ReloadCounter  stm32f10x_iwdg.o
    0x08003e70   0x0000000c   Code   RO         1561    i.IWDG_SetPrescaler  stm32f10x_iwdg.o
    0x08003e7c   0x0000000c   Code   RO         1562    i.IWDG_SetReload    stm32f10x_iwdg.o
    0x08003e88   0x0000000c   Code   RO         1563    i.IWDG_WriteAccessCmd  stm32f10x_iwdg.o
    0x08003e94   0x00000098   Code   RO         4880    i.InitHardUart      bsp_uart_fifo.o
    0x08003f2c   0x00000030   Code   RO         3371    i.IsDataInvalid     plc_other.o
    0x08003f5c   0x00000026   Code   RO         3193    i.Is_Leap_Year      rtc.o
    0x08003f82   0x00000002   PAD
    0x08003f84   0x00000080   Code   RO         3476    i.LD                ladder.o
    0x08004004   0x000000e4   Code   RO         3477    i.LDF               ladder.o
    0x080040e8   0x00000080   Code   RO         3478    i.LDI               ladder.o
    0x08004168   0x000000d4   Code   RO         3479    i.LDP               ladder.o
    0x0800423c   0x000000cc   Code   RO         3480    i.LPF               ladder.o
    0x08004308   0x000000b4   Code   RO         3481    i.LPS               ladder.o
    0x080043bc   0x000000bc   Code   RO         3482    i.MEAN              ladder.o
    0x08004478   0x00000048   Code   RO         5110    i.MODH_ReciveNew    modbus_host.o
    0x080044c0   0x00000018   Code   RO         5111    i.MODH_RxTimeOut    modbus_host.o
    0x080044d8   0x00000060   Code   RO         5112    i.MODH_SendAckWithCRC  modbus_host.o
    0x08004538   0x00000010   Code   RO         5113    i.MODH_SendPacket   modbus_host.o
    0x08004548   0x00000080   Code   RO         5114    i.MODH_Send_01To04H  modbus_host.o
    0x080045c8   0x00000090   Code   RO         5115    i.MODH_Send_05H     modbus_host.o
    0x08004658   0x00000090   Code   RO         5116    i.MODH_Send_06H     modbus_host.o
    0x080046e8   0x00000130   Code   RO         5117    i.MODH_Send_0FH     modbus_host.o
    0x08004818   0x000000e4   Code   RO         5118    i.MODH_Send_10H     modbus_host.o
    0x080048fc   0x00000128   Code   RO         5204    i.MODS_01H          modbus_slave.o
    0x08004a24   0x00000128   Code   RO         5205    i.MODS_02H          modbus_slave.o
    0x08004b4c   0x00000128   Code   RO         5206    i.MODS_03H          modbus_slave.o
    0x08004c74   0x00000090   Code   RO         5207    i.MODS_05H          modbus_slave.o
    0x08004d04   0x00000090   Code   RO         5208    i.MODS_06H          modbus_slave.o
    0x08004d94   0x000000d8   Code   RO         5209    i.MODS_0FH          modbus_slave.o
    0x08004e6c   0x000000cc   Code   RO         5210    i.MODS_10H          modbus_slave.o
    0x08004f38   0x00000060   Code   RO         5211    i.MODS_AnalyzeApp   modbus_slave.o
    0x08004f98   0x00000060   Code   RO         5212    i.MODS_Poll         modbus_slave.o
    0x08004ff8   0x0000004c   Code   RO         5213    i.MODS_ReciveNew    modbus_slave.o
    0x08005044   0x0000001c   Code   RO         5214    i.MODS_RxTimeOut    modbus_slave.o
    0x08005060   0x00000034   Code   RO         5215    i.MODS_SendAckErr   modbus_slave.o
    0x08005094   0x00000030   Code   RO         5216    i.MODS_SendAckOk    modbus_slave.o
    0x080050c4   0x00000044   Code   RO         5217    i.MODS_SendWithCRC  modbus_slave.o
    0x08005108   0x00000038   Code   RO         3483    i.MOV_K             ladder.o
    0x08005140   0x0000011c   Code   RO         3484    i.MOV_TO_K_H        ladder.o
    0x0800525c   0x000000b8   Code   RO         3485    i.MTR               ladder.o
    0x08005314   0x000000d0   Code   RO         5119    i.ModHostMode_SendDeal  modbus_host.o
    0x080053e4   0x00000104   Code   RO         3299    i.NVIC_Confinguration  nvic_interrupt.o
    0x080054e8   0x00000064   Code   RO           10    i.NVIC_Init         misc.o
    0x0800554c   0x00000014   Code   RO           11    i.NVIC_PriorityGroupConfig  misc.o
    0x08005560   0x00000014   Code   RO           12    i.NVIC_SetVectorTable  misc.o
    0x08005574   0x00000038   Code   RO         3486    i.OR                ladder.o
    0x080055ac   0x000000b0   Code   RO         3487    i.ORF               ladder.o
    0x0800565c   0x0000003c   Code   RO         3488    i.ORI               ladder.o
    0x08005698   0x000000b0   Code   RO         3489    i.ORP               ladder.o
    0x08005748   0x000000a4   Code   RO         3490    i.OUT               ladder.o
    0x080057ec   0x00000050   Code   RO         4407    i.PC_FORCE_OFF      plc_com.o
    0x0800583c   0x00000050   Code   RO         4408    i.PC_FORCE_ON       plc_com.o
    0x0800588c   0x000000f0   Code   RO         4409    i.PC_OPTION_PROG    plc_com.o
    0x0800597c   0x00000094   Code   RO         4410    i.PC_READ_PORG      plc_com.o
    0x08005a10   0x000001a8   Code   RO         4411    i.PC_READ_Parameter  plc_com.o
    0x08005bb8   0x00000034   Code   RO         4412    i.PC_READ_byte      plc_com.o
    0x08005bec   0x000000a0   Code   RO         4413    i.PC_WRITE_PORG     plc_com.o
    0x08005c8c   0x00000048   Code   RO         4414    i.PC_WRITE_Parameter  plc_com.o
    0x08005cd4   0x0000004c   Code   RO         4415    i.PC_WRITE_byte     plc_com.o
    0x08005d20   0x000000e0   Code   RO         3491    i.PID               ladder.o
    0x08005e00   0x00000078   Code   RO         4416    i.PLC_1BIT_State    plc_com.o
    0x08005e78   0x000000a4   Code   RO         4417    i.PLC_Com_BIT       plc_com.o
    0x08005f1c   0x000000a8   Code   RO         4418    i.PLC_Comm_Byte     plc_com.o
    0x08005fc4   0x00000028   Code   RO         4419    i.PLC_Download      plc_com.o
    0x08005fec   0x0000000c   Code   RO         1600    i.PWR_BackupAccessCmd  stm32f10x_pwr.o
    0x08005ff8   0x00000004   Code   RO         4884    i.RS485_SendBuf     bsp_uart_fifo.o
    0x08005ffc   0x00000004   Code   RO         4774    i.SysTick_Handler   bsp_timer.o
    0x08006000   0x000084d0   Data   RO         4444    .ARM.__AT_0x08006000  plc_com.o
    0x0800e4d0   0x00000048   Code   RO         4420    i.PLC_E_Expand      plc_com.o
    0x0800e518   0x00000054   Code   RO         3243    i.PLC_IO_Refresh    plc_io.o
    0x0800e56c   0x00000030   Code   RO         3244    i.PLC_IO_config     plc_io.o
    0x0800e59c   0x00000084   Code   RO         3492    i.PLC_LDP_TEST      ladder.o
    0x0800e620   0x00000024   Code   RO         3493    i.PLC_LD_BIT        ladder.o
    0x0800e644   0x000000bc   Code   RO         3245    i.PLC_Mode_config   plc_io.o
    0x0800e700   0x00000024   Code   RO         3494    i.PLC_PL_BIT_TEST   ladder.o
    0x0800e724   0x00000038   Code   RO         3495    i.PLC_PROG_ERROR    ladder.o
    0x0800e75c   0x00000348   Code   RO         3496    i.PLC_ProInstructParse  ladder.o
    0x0800eaa4   0x00000080   Code   RO         3373    i.PLC_ReadKeepData  plc_other.o
    0x0800eb24   0x00000080   Code   RO         3374    i.PLC_SaveKeepData  plc_other.o
    0x0800eba4   0x00000054   Code   RO         3497    i.PLC_StopDefaultInit  ladder.o
    0x0800ebf8   0x0000007c   Code   RO         4421    i.PLC_Upload        plc_com.o
    0x0800ec74   0x00000058   Code   RO         3246    i.PLC_X_config      plc_io.o
    0x0800eccc   0x00000070   Code   RO         3247    i.PLC_Y_config      plc_io.o
    0x0800ed3c   0x000000c8   Code   RO         4099    i.PLSR_Plc_Pro      pwm_output.o
    0x0800ee04   0x00000108   Code   RO         3498    i.PLSY              ladder.o
    0x0800ef0c   0x000000c8   Code   RO         4100    i.PLSY_Plc_Pro      pwm_output.o
    0x0800efd4   0x000000b8   Code   RO         3499    i.PWM               ladder.o
    0x0800f08c   0x00000084   Code   RO         4103    i.PWM_Plc_Pro       pwm_output.o
    0x0800f110   0x00000044   Code   RO         4104    i.PWM_Y0_Restore_Config  pwm_output.o
    0x0800f154   0x0000002c   Code   RO         4105    i.PWM_Y0_Set_Config  pwm_output.o
    0x0800f180   0x00000044   Code   RO         4106    i.PWM_Y1_Restore_Config  pwm_output.o
    0x0800f1c4   0x0000002c   Code   RO         4107    i.PWM_Y1_Set_Config  pwm_output.o
    0x0800f1f0   0x0000009c   Code   RO         4422    i.Process_switch    plc_com.o
    0x0800f28c   0x0000000c   Code   RO         4108    i.PulseOutputInit   pwm_output.o
    0x0800f298   0x00000018   Code   RO         1661    i.RCC_AHBPeriphClockCmd  stm32f10x_rcc.o
    0x0800f2b0   0x00000018   Code   RO         1662    i.RCC_APB1PeriphClockCmd  stm32f10x_rcc.o
    0x0800f2c8   0x00000018   Code   RO         1663    i.RCC_APB1PeriphResetCmd  stm32f10x_rcc.o
    0x0800f2e0   0x00000018   Code   RO         1664    i.RCC_APB2PeriphClockCmd  stm32f10x_rcc.o
    0x0800f2f8   0x00000018   Code   RO         1665    i.RCC_APB2PeriphResetCmd  stm32f10x_rcc.o
    0x0800f310   0x0000000c   Code   RO         1667    i.RCC_BackupResetCmd  stm32f10x_rcc.o
    0x0800f31c   0x00000010   Code   RO         1668    i.RCC_ClearFlag     stm32f10x_rcc.o
    0x0800f32c   0x00000094   Code   RO         1672    i.RCC_GetClocksFreq  stm32f10x_rcc.o
    0x0800f3c0   0x00000030   Code   RO         1673    i.RCC_GetFlagStatus  stm32f10x_rcc.o
    0x0800f3f0   0x00000020   Code   RO         1680    i.RCC_LSEConfig     stm32f10x_rcc.o
    0x0800f410   0x0000000c   Code   RO         1681    i.RCC_LSICmd        stm32f10x_rcc.o
    0x0800f41c   0x0000000c   Code   RO         1687    i.RCC_RTCCLKCmd     stm32f10x_rcc.o
    0x0800f428   0x00000010   Code   RO         1688    i.RCC_RTCCLKConfig  stm32f10x_rcc.o
    0x0800f438   0x00000038   Code   RO         4423    i.READ_plc_programCodeBuf  plc_com.o
    0x0800f470   0x000000c0   Code   RO         3500    i.RESET_C           ladder.o
    0x0800f530   0x0000007c   Code   RO         3501    i.RESET_T           ladder.o
    0x0800f5ac   0x00000148   Code   RO         3502    i.RS                ladder.o
    0x0800f6f4   0x0000004c   Code   RO         4881    i.RS485_InitTXE     bsp_uart_fifo.o
    0x0800f740   0x00000038   Code   RO         4882    i.RS485_ReciveNew   bsp_uart_fifo.o
    0x0800f778   0x00000038   Code   RO         4883    i.RS485_SendBefor   bsp_uart_fifo.o
    0x0800f7b0   0x00000038   Code   RO         4885    i.RS485_SendOver    bsp_uart_fifo.o
    0x0800f7e8   0x0000002c   Code   RO         3503    i.RST               ladder.o
    0x0800f814   0x00000064   Code   RO         3504    i.RST_D             ladder.o
    0x0800f878   0x0000007c   Code   RO         3375    i.RST_T_D_C_M_data  plc_other.o
    0x0800f8f4   0x00000010   Code   RO         3505    i.RST_Y             ladder.o
    0x0800f904   0x00000058   Code   RO         3194    i.RTC_Config        rtc.o
    0x0800f95c   0x00000010   Code   RO         1862    i.RTC_EnterConfigMode  stm32f10x_rtc.o
    0x0800f96c   0x00000010   Code   RO         1863    i.RTC_ExitConfigMode  stm32f10x_rtc.o
    0x0800f97c   0x00000134   Code   RO         3195    i.RTC_Get           rtc.o
    0x0800fab0   0x00000014   Code   RO         1864    i.RTC_GetCounter    stm32f10x_rtc.o
    0x0800fac4   0x00000058   Code   RO         3196    i.RTC_Get_Week      rtc.o
    0x0800fb1c   0x00000018   Code   RO         1868    i.RTC_ITConfig      stm32f10x_rtc.o
    0x0800fb34   0x00000080   Code   RO         3197    i.RTC_Init          rtc.o
    0x0800fbb4   0x000000c4   Code   RO         3198    i.RTC_Set           rtc.o
    0x0800fc78   0x00000020   Code   RO         1870    i.RTC_SetCounter    stm32f10x_rtc.o
    0x0800fc98   0x00000020   Code   RO         1871    i.RTC_SetPrescaler  stm32f10x_rtc.o
    0x0800fcb8   0x00000010   Code   RO         1872    i.RTC_WaitForLastTask  stm32f10x_rtc.o
    0x0800fcc8   0x00000018   Code   RO         1873    i.RTC_WaitForSynchro  stm32f10x_rtc.o
    0x0800fce0   0x00000114   Code   RO         4424    i.RX_Process        plc_com.o
    0x0800fdf4   0x000000b0   Code   RO         3506    i.SMOV              ladder.o
    0x0800fea4   0x0000003c   Code   RO         3507    i.STL               ladder.o
    0x0800fee0   0x000000a8   Code   RO         3056    i.SetSysClockTo72   system_stm32f10x.o
    0x0800ff88   0x00000320   Code   RO         3508    i.SpecialTarget     ladder.o
    0x080102a8   0x00000504   Code   RO         3509    i.Special_cos_value  ladder.o
    0x080107ac   0x00000244   Code   RO         4775    i.SysTick_ISR       bsp_timer.o
    0x080109f0   0x00000050   Code   RO         3058    i.SystemInit        system_stm32f10x.o
    0x08010a40   0x00000050   Code   RO         3510    i.TADD              ladder.o
    0x08010a90   0x00000120   Code   RO         3511    i.TCMP              ladder.o
    0x08010bb0   0x0000006c   Code   RO         2279    i.TI1_Config        stm32f10x_tim.o
    0x08010c1c   0x0000007c   Code   RO         2280    i.TI2_Config        stm32f10x_tim.o
    0x08010c98   0x00000022   Code   RO         4109    i.TIM1_NVIC_Configuration  pwm_output.o
    0x08010cba   0x00000002   PAD
    0x08010cbc   0x0000027c   Code   RO         4110    i.TIM1_UP_IRQHandler  pwm_output.o
    0x08010f38   0x00000030   Code   RO         4234    i.TIM2_IRQHandler   encode.o
    0x08010f68   0x00000034   Code   RO         4235    i.TIM3_IRQHandler   encode.o
    0x08010f9c   0x000000a0   Code   RO         4776    i.TIM5_IRQHandler   bsp_timer.o
    0x0801103c   0x00000022   Code   RO         4111    i.TIM8_NVIC_Configuration  pwm_output.o
    0x0801105e   0x00000002   PAD
    0x08011060   0x0000027c   Code   RO         4112    i.TIM8_UP_IRQHandler  pwm_output.o
    0x080112dc   0x00000014   Code   RO         2281    i.TIM_ARRPreloadConfig  stm32f10x_tim.o
    0x080112f0   0x00000022   Code   RO         2282    i.TIM_BDTRConfig    stm32f10x_tim.o
    0x08011312   0x00000006   Code   RO         2287    i.TIM_ClearFlag     stm32f10x_tim.o
    0x08011318   0x00000006   Code   RO         2288    i.TIM_ClearITPendingBit  stm32f10x_tim.o
    0x0801131e   0x00000014   Code   RO         2293    i.TIM_Cmd           stm32f10x_tim.o
    0x08011332   0x00000016   Code   RO         2295    i.TIM_CtrlPWMOutputs  stm32f10x_tim.o
    0x08011348   0x00000170   Code   RO         2298    i.TIM_DeInit        stm32f10x_tim.o
    0x080114b8   0x00000032   Code   RO         2302    i.TIM_EncoderInterfaceConfig  stm32f10x_tim.o
    0x080114ea   0x00000004   Code   RO         2312    i.TIM_GetCounter    stm32f10x_tim.o
    0x080114ee   0x00000018   Code   RO         2314    i.TIM_GetITStatus   stm32f10x_tim.o
    0x08011506   0x00000002   PAD
    0x08011508   0x0000012c   Code   RO         2316    i.TIM_ICInit        stm32f10x_tim.o
    0x08011634   0x00000010   Code   RO         2317    i.TIM_ICStructInit  stm32f10x_tim.o
    0x08011644   0x00000010   Code   RO         2318    i.TIM_ITConfig      stm32f10x_tim.o
    0x08011654   0x00000080   Code   RO         2322    i.TIM_OC1Init       stm32f10x_tim.o
    0x080116d4   0x0000000c   Code   RO         2325    i.TIM_OC1PreloadConfig  stm32f10x_tim.o
    0x080116e0   0x00000064   Code   RO         2337    i.TIM_OC4Init       stm32f10x_tim.o
    0x08011744   0x00000014   Code   RO         2339    i.TIM_OC4PreloadConfig  stm32f10x_tim.o
    0x08011758   0x0000000c   Code   RO         2346    i.TIM_SelectInputTrigger  stm32f10x_tim.o
    0x08011764   0x00000004   Code   RO         2354    i.TIM_SetCompare1   stm32f10x_tim.o
    0x08011768   0x00000004   Code   RO         2355    i.TIM_SetCompare2   stm32f10x_tim.o
    0x0801176c   0x00000004   Code   RO         2356    i.TIM_SetCompare3   stm32f10x_tim.o
    0x08011770   0x00000006   Code   RO         2357    i.TIM_SetCompare4   stm32f10x_tim.o
    0x08011776   0x00000004   Code   RO         2358    i.TIM_SetCounter    stm32f10x_tim.o
    0x0801177a   0x00000010   Code   RO         2359    i.TIM_SetIC1Prescaler  stm32f10x_tim.o
    0x0801178a   0x00000018   Code   RO         2360    i.TIM_SetIC2Prescaler  stm32f10x_tim.o
    0x080117a2   0x00000010   Code   RO         2361    i.TIM_SetIC3Prescaler  stm32f10x_tim.o
    0x080117b2   0x00000018   Code   RO         2362    i.TIM_SetIC4Prescaler  stm32f10x_tim.o
    0x080117ca   0x0000002e   Code   RO         2363    i.TIM_TIxExternalClockConfig  stm32f10x_tim.o
    0x080117f8   0x0000009c   Code   RO         2364    i.TIM_TimeBaseInit  stm32f10x_tim.o
    0x08011894   0x0000004c   Code   RO         3512    i.TRD               ladder.o
    0x080118e0   0x00000050   Code   RO         3513    i.TSUB              ladder.o
    0x08011930   0x0000003c   Code   RO         3514    i.TWR               ladder.o
    0x0801196c   0x00000028   Code   RO         4425    i.TX_Process        plc_com.o
    0x08011994   0x0000013c   Code   RO         3515    i.TZCP              ladder.o
    0x08011ad0   0x00000070   Code   RO         3312    i.T_100MS           plc_timer.o
    0x08011b40   0x00000070   Code   RO         3313    i.T_10MS            plc_timer.o
    0x08011bb0   0x00000070   Code   RO         3314    i.T_1MS             plc_timer.o
    0x08011c20   0x00000070   Code   RO         3315    i.T_H100MS          plc_timer.o
    0x08011c90   0x00000078   Code   RO         3516    i.T_given_value_D   ladder.o
    0x08011d08   0x000000c4   Code   RO         4426    i.USART1_Configuration  plc_com.o
    0x08011dcc   0x00000080   Code   RO         4427    i.USART1_IRQHandler  plc_com.o
    0x08011e4c   0x0000000c   Code   RO         4887    i.USART3_IRQHandler  bsp_uart_fifo.o
    0x08011e58   0x00000006   Code   RO         2812    i.USART_ClearFlag   stm32f10x_usart.o
    0x08011e5e   0x0000000c   Code   RO         2813    i.USART_ClearITPendingBit  stm32f10x_usart.o
    0x08011e6a   0x00000014   Code   RO         2816    i.USART_Cmd         stm32f10x_usart.o
