Component: ARM Compiler 5.05 update 1 (build 106) Tool: armlink [4d0efa]

==============================================================================

Section Cross References

    startup_stm32f10x_hd.o(STACK) refers (Special) to heapauxi.o(.text) for __use_two_region_memory
    startup_stm32f10x_hd.o(HEAP) refers (Special) to heapauxi.o(.text) for __use_two_region_memory
    startup_stm32f10x_hd.o(RESET) refers (Special) to heapauxi.o(.text) for __use_two_region_memory
    startup_stm32f10x_hd.o(RESET) refers to startup_stm32f10x_hd.o(STACK) for __initial_sp
    startup_stm32f10x_hd.o(RESET) refers to startup_stm32f10x_hd.o(.text) for Reset_Handler
    startup_stm32f10x_hd.o(RESET) refers to plc_com.o(i.DMA1_Channel4_IRQHandler) for DMA1_Channel4_IRQHandler
    startup_stm32f10x_hd.o(RESET) refers to exti.o(i.EXTI9_5_IRQHandler) for EXTI9_5_IRQHandler
    startup_stm32f10x_hd.o(RESET) refers to plc_timer.o(i.TIM2_IRQHandler) for TIM2_IRQHandler
    startup_stm32f10x_hd.o(RESET) refers to pulse.o(i.TIM3_IRQHandler) for TIM3_IRQHandler
    startup_stm32f10x_hd.o(RESET) refers to plc_com.o(i.USART1_IRQHandler) for USART1_IRQHandler
    startup_stm32f10x_hd.o(RESET) refers to exti.o(i.EXTI15_10_IRQHandler) for EXTI15_10_IRQHandler
    startup_stm32f10x_hd.o(.text) refers (Special) to heapauxi.o(.text) for __use_two_region_memory
    startup_stm32f10x_hd.o(.text) refers to system_stm32f10x.o(i.SystemInit) for SystemInit
    startup_stm32f10x_hd.o(.text) refers to __main.o(!!!main) for __main
    startup_stm32f10x_hd.o(.text) refers to startup_stm32f10x_hd.o(HEAP) for Heap_Mem
    startup_stm32f10x_hd.o(.text) refers to startup_stm32f10x_hd.o(STACK) for Stack_Mem
    stm32f10x_adc.o(i.ADC_DeInit) refers to stm32f10x_rcc.o(i.RCC_APB2PeriphResetCmd) for RCC_APB2PeriphResetCmd
    stm32f10x_bkp.o(i.BKP_DeInit) refers to stm32f10x_rcc.o(i.RCC_BackupResetCmd) for RCC_BackupResetCmd
==============================================================================

Removing Unused input sections from the image.

    Removing misc.o(i.NVIC_SystemLPConfig), (24 bytes).
    Removing misc.o(i.SysTick_CLKSourceConfig), (24 bytes).
    Removing stm32f10x_adc.o(i.ADC_AnalogWatchdogCmd), (16 bytes).
    Removing stm32f10x_adc.o(i.ADC_AnalogWatchdogSingleChannelConfig), (12 bytes).
    Removing stm32f10x_adc.o(i.ADC_AnalogWatchdogThresholdsConfig), (6 bytes).
    Removing stm32f10x_adc.o(i.ADC_AutoInjectedConvCmd), (20 bytes).
    Removing stm32f10x_adc.o(i.ADC_ClearFlag), (6 bytes).
    Removing stm32f10x_adc.o(i.ADC_ClearITPendingBit), (8 bytes).
    Removing stm32f10x_adc.o(i.ADC_Cmd), (20 bytes).
    Removing stm32f10x_adc.o(i.ADC_DMACmd), (20 bytes).
    Removing stm32f10x_adc.o(i.ADC_DeInit), (68 bytes).
    Removing stm32f10x_adc.o(i.ADC_DiscModeChannelCountConfig), (16 bytes).
    Removing stm32f10x_adc.o(i.ADC_DiscModeCmd), (20 bytes).
    Removing stm32f10x_adc.o(i.ADC_ExternalTrigConvCmd), (20 bytes).
    Removing stm32f10x_adc.o(i.ADC_ExternalTrigInjectedConvCmd), (20 bytes).
    Removing stm32f10x_adc.o(i.ADC_ExternalTrigInjectedConvConfig), (12 bytes).
    Removing stm32f10x_adc.o(i.ADC_GetCalibrationStatus), (14 bytes).
    Removing stm32f10x_adc.o(i.ADC_GetConversionValue), (6 bytes).
==============================================================================

Image Symbol Table

    Local Symbols

    Symbol Name                              Value     Ov Type        Size  Object(Section)

    ../clib/angel/boardlib.s                 0x00000000   Number         0  boardinit1.o ABSOLUTE
    ../clib/angel/boardlib.s                 0x00000000   Number         0  boardinit3.o ABSOLUTE
    ../clib/angel/boardlib.s                 0x00000000   Number         0  boardinit2.o ABSOLUTE
    ../clib/angel/boardlib.s                 0x00000000   Number         0  boardshut.o ABSOLUTE
    ../clib/angel/handlers.s                 0x00000000   Number         0  __scatter_copy.o ABSOLUTE
    ../clib/angel/handlers.s                 0x00000000   Number         0  __scatter_zi.o ABSOLUTE
    ../clib/angel/kernel.s                   0x00000000   Number         0  rtexit.o ABSOLUTE
    ../clib/angel/kernel.s                   0x00000000   Number         0  __rtentry.o ABSOLUTE
    ../clib/angel/kernel.s                   0x00000000   Number         0  __rtentry2.o ABSOLUTE
    ../clib/angel/kernel.s                   0x00000000   Number         0  rtexit2.o ABSOLUTE
    ../clib/angel/kernel.s                   0x00000000   Number         0  __rtentry4.o ABSOLUTE
    ../clib/angel/rt.s                       0x00000000   Number         0  rt_raise.o ABSOLUTE
    ../clib/angel/rt.s                       0x00000000   Number         0  rt_errno_addr.o ABSOLUTE
    ../clib/angel/rt.s                       0x00000000   Number         0  aeabi_ldiv0_sigfpe.o ABSOLUTE
    ../clib/angel/rt.s                       0x00000000   Number         0  rt_div0.o ABSOLUTE
    ../clib/angel/rt.s                       0x00000000   Number         0  aeabi_ldiv0.o ABSOLUTE
    ../clib/angel/rt.s                       0x00000000   Number         0  rt_errno_addr_intlibspace.o ABSOLUTE
    ../clib/angel/scatter.s                  0x00000000   Number         0  __scatter.o ABSOLUTE
    ../clib/angel/startup.s                  0x00000000   Number         0  __main.o ABSOLUTE
    ../clib/angel/sys.s                      0x00000000   Number         0  sys_stackheap_outer.o ABSOLUTE
    ../clib/angel/sys.s                      0x00000000   Number         0  indicate_semi.o ABSOLUTE
    ../clib/angel/sys.s                      0x00000000   Number         0  use_no_semi.o ABSOLUTE
    ../clib/angel/sys.s                      0x00000000   Number         0  libspace.o ABSOLUTE
    ../clib/angel/sysapp.c                   0x00000000   Number         0  sys_wrch.o ABSOLUTE
    ../clib/angel/sysapp.c                   0x00000000   Number         0  sys_command.o ABSOLUTE
    ../clib/angel/sysapp.c                   0x00000000   Number         0  sys_exit.o ABSOLUTE
    ../clib/armsys.c                         0x00000000   Number         0  no_argv.o ABSOLUTE
    ../clib/armsys.c                         0x00000000   Number         0  argv_veneer.o ABSOLUTE
    ../clib/armsys.c                         0x00000000   Number         0  argv_veneer.o ABSOLUTE
    ../clib/armsys.c                         0x00000000   Number         0  _get_argv_nomalloc.o ABSOLUTE
    ../clib/fenv.c                           0x00000000   Number         0  _rserrno.o ABSOLUTE
    ../clib/heapalloc.c                      0x00000000   Number         0  hrguard.o ABSOLUTE
    ../clib/heapaux.c                        0x00000000   Number         0  heapauxi.o ABSOLUTE
    ../clib/libinit.s                        0x00000000   Number         0  libshutdown2.o ABSOLUTE
    ../clib/libinit.s                        0x00000000   Number         0  libshutdown.o ABSOLUTE
    ../clib/libinit.s                        0x00000000   Number         0  libinit.o ABSOLUTE
    ../clib/libinit.s                        0x00000000   Number         0  libinit2.o ABSOLUTE
    ../clib/longlong.s                       0x00000000   Number         0  llushr.o ABSOLUTE
    ../clib/longlong.s                       0x00000000   Number         0  llshl.o ABSOLUTE
    ../clib/longlong.s                       0x00000000   Number         0  lludivv7m.o ABSOLUTE
    ../clib/signal.c                         0x00000000   Number         0  defsig_other.o ABSOLUTE
    ../clib/signal.c                         0x00000000   Number         0  defsig_segv_inner.o ABSOLUTE
    ../clib/signal.c                         0x00000000   Number         0  defsig_cppl_inner.o ABSOLUTE
    ../clib/signal.c                         0x00000000   Number         0  defsig_pvfn_inner.o ABSOLUTE
    ../clib/signal.c                         0x00000000   Number         0  defsig_stak_inner.o ABSOLUTE
    ../clib/signal.c                         0x00000000   Number         0  defsig_rtred_inner.o ABSOLUTE
    ../clib/signal.c                         0x00000000   Number         0  defsig_abrt_inner.o ABSOLUTE
    ../clib/signal.c                         0x00000000   Number         0  defsig_rtmem_formal.o ABSOLUTE
    ../clib/signal.c                         0x00000000   Number         0  defsig_rtmem_outer.o ABSOLUTE
    ../clib/signal.c                         0x00000000   Number         0  defsig_rtmem_inner.o ABSOLUTE
    ../clib/signal.c                         0x00000000   Number         0  defsig_general.o ABSOLUTE
    ../clib/signal.c                         0x00000000   Number         0  __raise.o ABSOLUTE
    ../clib/signal.c                         0x00000000   Number         0  defsig_fpe_outer.o ABSOLUTE
    ../clib/signal.c                         0x00000000   Number         0  defsig_fpe_inner.o ABSOLUTE
    ../clib/signal.c                         0x00000000   Number         0  defsig_fpe_formal.o ABSOLUTE
    ../clib/signal.c                         0x00000000   Number         0  defsig_exit.o ABSOLUTE
    ../clib/signal.s                         0x00000000   Number         0  defsig.o ABSOLUTE
    ../clib/stdlib.c                         0x00000000   Number         0  exit.o ABSOLUTE
    ../fplib/d2f.s                           0x00000000   Number         0  d2f.o ABSOLUTE
    ../fplib/daddsub.s                       0x00000000   Number         0  daddsub_clz.o ABSOLUTE
    ../fplib/dcheck1.s                       0x00000000   Number         0  dcheck1.o ABSOLUTE
    ../fplib/dcmpi.s                         0x00000000   Number         0  dcmpi.o ABSOLUTE
    ../fplib/ddiv.s                          0x00000000   Number         0  ddiv.o ABSOLUTE
    ../fplib/dfix.s                          0x00000000   Number         0  dfix.o ABSOLUTE
    ../fplib/dfixu.s                         0x00000000   Number         0  dfixu.o ABSOLUTE
    ../fplib/dflt.s                          0x00000000   Number         0  dflt_clz.o ABSOLUTE
    ../fplib/dleqf.s                         0x00000000   Number         0  dleqf.o ABSOLUTE
    ../fplib/dmul.s                          0x00000000   Number         0  dmul.o ABSOLUTE
    ../fplib/dnaninf.s                       0x00000000   Number         0  dnaninf.o ABSOLUTE
    ../fplib/dretinf.s                       0x00000000   Number         0  dretinf.o ABSOLUTE
    ../fplib/dsqrt.s                         0x00000000   Number         0  dsqrt_noumaal.o ABSOLUTE
    ../fplib/f2d.s                           0x00000000   Number         0  f2d.o ABSOLUTE
    ../fplib/faddsub.s                       0x00000000   Number         0  faddsub_clz.o ABSOLUTE
    ../fplib/fcmpi.s                         0x00000000   Number         0  fcmpi.o ABSOLUTE
    ../fplib/fdiv.s                          0x00000000   Number         0  fdiv.o ABSOLUTE
    ../fplib/feqf.s                          0x00000000   Number         0  feqf.o ABSOLUTE
    ../fplib/ffixu.s                         0x00000000   Number         0  ffixu.o ABSOLUTE
    ../fplib/fflt.s                          0x00000000   Number         0  fflt_clz.o ABSOLUTE
    ../fplib/fleqf.s                         0x00000000   Number         0  fleqf.o ABSOLUTE
    ../fplib/fmul.s                          0x00000000   Number         0  fmul.o ABSOLUTE
    ../fplib/fnaninf.s                       0x00000000   Number         0  fnaninf.o ABSOLUTE
    ../fplib/fpinit.s                        0x00000000   Number         0  fpinit.o ABSOLUTE
    ../fplib/fretinf.s                       0x00000000   Number         0  fretinf.o ABSOLUTE
    ../fplib/frleqf.s                        0x00000000   Number         0  frleqf.o ABSOLUTE
    ../fplib/retnan.s                        0x00000000   Number         0  retnan.o ABSOLUTE
    ../fplib/scalbn.s                        0x00000000   Number         0  scalbn.o ABSOLUTE
    ../fplib/trapv.s                         0x00000000   Number         0  trapv.o ABSOLUTE
    ../fplib/usenofp.s                       0x00000000   Number         0  usenofp.o ABSOLUTE
    ../mathlib/cos.c                         0x00000000   Number         0  cos.o ABSOLUTE
    ../mathlib/cos.c                         0x00000000   Number         0  cos_x.o ABSOLUTE
    ../mathlib/cos_i.c                       0x00000000   Number         0  cos_i.o ABSOLUTE
    ../mathlib/dunder.c                      0x00000000   Number         0  dunder.o ABSOLUTE
    ../mathlib/fpclassify.c                  0x00000000   Number         0  fpclassify.o ABSOLUTE
    ../mathlib/poly.c                        0x00000000   Number         0  poly.o ABSOLUTE
    ../mathlib/rred.c                        0x00000000   Number         0  rred.o ABSOLUTE
    ../mathlib/sin.c                         0x00000000   Number         0  sin.o ABSOLUTE
    ../mathlib/sin.c                         0x00000000   Number         0  sin_x.o ABSOLUTE
    ../mathlib/sin_i.c                       0x00000000   Number         0  sin_i.o ABSOLUTE
    ../mathlib/sin_i.c                       0x00000000   Number         0  sin_i_x.o ABSOLUTE
    ../mathlib/sqrt.c                        0x00000000   Number         0  sqrt_x.o ABSOLUTE
    ../mathlib/sqrt.c                        0x00000000   Number         0  sqrt.o ABSOLUTE
    ../mathlib/tan.c                         0x00000000   Number         0  tan_x.o ABSOLUTE
    ../mathlib/tan.c                         0x00000000   Number         0  tan.o ABSOLUTE
    ../mathlib/tan_i.c                       0x00000000   Number         0  tan_i.o ABSOLUTE
    ../mathlib/tan_i.c                       0x00000000   Number         0  tan_i_x.o ABSOLUTE
    ..\CMSIS\core_cm3.c                      0x00000000   Number         0  core_cm3.o ABSOLUTE
    ..\CMSIS\startup_stm32f10x_hd.s          0x00000000   Number         0  startup_stm32f10x_hd.o ABSOLUTE
    ..\CMSIS\system_stm32f10x.c              0x00000000   Number         0  system_stm32f10x.o ABSOLUTE
    ..\Libraries\src\misc.c                  0x00000000   Number         0  misc.o ABSOLUTE
    ..\Libraries\src\stm32f10x_adc.c         0x00000000   Number         0  stm32f10x_adc.o ABSOLUTE
    ..\Libraries\src\stm32f10x_bkp.c         0x00000000   Number         0  stm32f10x_bkp.o ABSOLUTE
    ..\Libraries\src\stm32f10x_can.c         0x00000000   Number         0  stm32f10x_can.o ABSOLUTE
    ..\Libraries\src\stm32f10x_cec.c         0x00000000   Number         0  stm32f10x_cec.o ABSOLUTE
    ..\Libraries\src\stm32f10x_crc.c         0x00000000   Number         0  stm32f10x_crc.o ABSOLUTE
    ..\Libraries\src\stm32f10x_dac.c         0x00000000   Number         0  stm32f10x_dac.o ABSOLUTE
    ..\Libraries\src\stm32f10x_dbgmcu.c      0x00000000   Number         0  stm32f10x_dbgmcu.o ABSOLUTE
    ..\Libraries\src\stm32f10x_dma.c         0x00000000   Number         0  stm32f10x_dma.o ABSOLUTE
    ..\Libraries\src\stm32f10x_exti.c        0x00000000   Number         0  stm32f10x_exti.o ABSOLUTE
    ..\Libraries\src\stm32f10x_flash.c       0x00000000   Number         0  stm32f10x_flash.o ABSOLUTE
    ..\Libraries\src\stm32f10x_fsmc.c        0x00000000   Number         0  stm32f10x_fsmc.o ABSOLUTE
    ..\Libraries\src\stm32f10x_gpio.c        0x00000000   Number         0  stm32f10x_gpio.o ABSOLUTE
    ..\Libraries\src\stm32f10x_i2c.c         0x00000000   Number         0  stm32f10x_i2c.o ABSOLUTE
    ..\Libraries\src\stm32f10x_iwdg.c        0x00000000   Number         0  stm32f10x_iwdg.o ABSOLUTE
    ..\Libraries\src\stm32f10x_pwr.c         0x00000000   Number         0  stm32f10x_pwr.o ABSOLUTE
    ..\Libraries\src\stm32f10x_rcc.c         0x00000000   Number         0  stm32f10x_rcc.o ABSOLUTE
    ..\Libraries\src\stm32f10x_rtc.c         0x00000000   Number         0  stm32f10x_rtc.o ABSOLUTE
    ..\Libraries\src\stm32f10x_sdio.c        0x00000000   Number         0  stm32f10x_sdio.o ABSOLUTE
    ..\Libraries\src\stm32f10x_spi.c         0x00000000   Number         0  stm32f10x_spi.o ABSOLUTE
    ..\Libraries\src\stm32f10x_tim.c         0x00000000   Number         0  stm32f10x_tim.o ABSOLUTE
    ..\Libraries\src\stm32f10x_usart.c       0x00000000   Number         0  stm32f10x_usart.o ABSOLUTE
    ..\Libraries\src\stm32f10x_wwdg.c        0x00000000   Number         0  stm32f10x_wwdg.o ABSOLUTE
    ..\\CMSIS\\core_cm3.c                    0x00000000   Number         0  core_cm3.o ABSOLUTE
    ..\users\ADC.C                           0x00000000   Number         0  adc.o ABSOLUTE
    ..\users\DAC.C                           0x00000000   Number         0  dac.o ABSOLUTE
    ..\users\EXTI.C                          0x00000000   Number         0  exti.o ABSOLUTE
    ..\users\Encoder.c                       0x00000000   Number         0  encoder.o ABSOLUTE
    ..\users\NVIC_interrupt.c                0x00000000   Number         0  nvic_interrupt.o ABSOLUTE
    ..\users\PLC_Com.c                       0x00000000   Number         0  plc_com.o ABSOLUTE
    ..\users\PLC_IO.C                        0x00000000   Number         0  plc_io.o ABSOLUTE
    ..\users\PLC_Other.C                     0x00000000   Number         0  plc_other.o ABSOLUTE
    ..\users\PLC_process.c                   0x00000000   Number         0  plc_process.o ABSOLUTE
    ..\users\PLC_timer.c                     0x00000000   Number         0  plc_timer.o ABSOLUTE
    ..\users\Pulse.c                         0x00000000   Number         0  pulse.o ABSOLUTE
    ..\users\RTC.C                           0x00000000   Number         0  rtc.o ABSOLUTE
    ..\users\main.c                          0x00000000   Number         0  main.o ABSOLUTE
    dc.s                                     0x00000000   Number         0  dc.o ABSOLUTE
    RESET                                    0x08000000   Section      304  startup_stm32f10x_hd.o(RESET)
    !!!main                                  0x08000130   Section        8  __main.o(!!!main)
    !!!scatter                               0x08000138   Section       52  __scatter.o(!!!scatter)
    !!handler_copy                           0x0800016c   Section       26  __scatter_copy.o(!!handler_copy)
    !!handler_zi                             0x08000188   Section       28  __scatter_zi.o(!!handler_zi)
    .ARM.Collect$$libinit$$00000000          0x080001a4   Section        2  libinit.o(.ARM.Collect$$libinit$$00000000)
    .ARM.Collect$$libinit$$00000002          0x080001a6   Section        0  libinit2.o(.ARM.Collect$$libinit$$00000002)
    .ARM.Collect$$libinit$$00000004          0x080001a6   Section        0  libinit2.o(.ARM.Collect$$libinit$$00000004)
    .ARM.Collect$$libinit$$0000000A          0x080001a6   Section        0  libinit2.o(.ARM.Collect$$libinit$$0000000A)
    .ARM.Collect$$libinit$$0000000C          0x080001a6   Section        0  libinit2.o(.ARM.Collect$$libinit$$0000000C)
    .ARM.Collect$$libinit$$0000000E          0x080001a6   Section        0  libinit2.o(.ARM.Collect$$libinit$$0000000E)
    .ARM.Collect$$libinit$$00000011          0x080001a6   Section        0  libinit2.o(.ARM.Collect$$libinit$$00000011)
    .ARM.Collect$$libinit$$00000013          0x080001a6   Section        0  libinit2.o(.ARM.Collect$$libinit$$00000013)
    .ARM.Collect$$libinit$$00000015          0x080001a6   Section        0  libinit2.o(.ARM.Collect$$libinit$$00000015)
    .ARM.Collect$$libinit$$00000017          0x080001a6   Section        0  libinit2.o(.ARM.Collect$$libinit$$00000017)
    .ARM.Collect$$libinit$$00000019          0x080001a6   Section        0  libinit2.o(.ARM.Collect$$libinit$$00000019)
    .ARM.Collect$$libinit$$0000001B          0x080001a6   Section        0  libinit2.o(.ARM.Collect$$libinit$$0000001B)
    .ARM.Collect$$libinit$$0000001D          0x080001a6   Section        0  libinit2.o(.ARM.Collect$$libinit$$0000001D)
    .ARM.Collect$$libinit$$0000001F          0x080001a6   Section        0  libinit2.o(.ARM.Collect$$libinit$$0000001F)
    .ARM.Collect$$libinit$$00000021          0x080001a6   Section        0  libinit2.o(.ARM.Collect$$libinit$$00000021)
    .ARM.Collect$$libinit$$00000023          0x080001a6   Section        0  libinit2.o(.ARM.Collect$$libinit$$00000023)
    .ARM.Collect$$libinit$$00000025          0x080001a6   Section        0  libinit2.o(.ARM.Collect$$libinit$$00000025)
    .ARM.Collect$$libinit$$0000002C          0x080001a6   Section        0  libinit2.o(.ARM.Collect$$libinit$$0000002C)
    .ARM.Collect$$libinit$$0000002E          0x080001a6   Section        0  libinit2.o(.ARM.Collect$$libinit$$0000002E)
    .ARM.Collect$$libinit$$00000030          0x080001a6   Section        0  libinit2.o(.ARM.Collect$$libinit$$00000030)
    .ARM.Collect$$libinit$$00000032          0x080001a6   Section        0  libinit2.o(.ARM.Collect$$libinit$$00000032)
    .ARM.Collect$$libinit$$00000033          0x080001a6   Section        2  libinit2.o(.ARM.Collect$$libinit$$00000033)
    .ARM.Collect$$libshutdown$$00000000      0x080001a8   Section        2  libshutdown.o(.ARM.Collect$$libshutdown$$00000000)
    .ARM.Collect$$libshutdown$$00000003      0x080001aa   Section        0  libshutdown2.o(.ARM.Collect$$libshutdown$$00000003)
    .ARM.Collect$$libshutdown$$00000006      0x080001aa   Section        0  libshutdown2.o(.ARM.Collect$$libshutdown$$00000006)
    .ARM.Collect$$libshutdown$$00000009      0x080001aa   Section        0  libshutdown2.o(.ARM.Collect$$libshutdown$$00000009)
    .ARM.Collect$$libshutdown$$0000000B      0x080001aa   Section        0  libshutdown2.o(.ARM.Collect$$libshutdown$$0000000B)
    .ARM.Collect$$libshutdown$$0000000E      0x080001aa   Section        0  libshutdown2.o(.ARM.Collect$$libshutdown$$0000000E)
    .ARM.Collect$$libshutdown$$0000000F      0x080001aa   Section        2  libshutdown2.o(.ARM.Collect$$libshutdown$$0000000F)
    .ARM.Collect$$rtentry$$00000000          0x080001ac   Section        0  __rtentry.o(.ARM.Collect$$rtentry$$00000000)
    .ARM.Collect$$rtentry$$00000002          0x080001ac   Section        0  __rtentry2.o(.ARM.Collect$$rtentry$$00000002)
    .ARM.Collect$$rtentry$$00000004          0x080001ac   Section        6  __rtentry4.o(.ARM.Collect$$rtentry$$00000004)
    .ARM.Collect$$rtentry$$00000009          0x080001b2   Section        0  __rtentry2.o(.ARM.Collect$$rtentry$$00000009)
    .ARM.Collect$$rtentry$$0000000A          0x080001b2   Section        4  __rtentry2.o(.ARM.Collect$$rtentry$$0000000A)
    .ARM.Collect$$rtentry$$0000000C          0x080001b6   Section        0  __rtentry2.o(.ARM.Collect$$rtentry$$0000000C)
    .ARM.Collect$$rtentry$$0000000D          0x080001b6   Section        8  __rtentry2.o(.ARM.Collect$$rtentry$$0000000D)
    .ARM.Collect$$rtexit$$00000000           0x080001be   Section        2  rtexit.o(.ARM.Collect$$rtexit$$00000000)
    .ARM.Collect$$rtexit$$00000002           0x080001c0   Section        0  rtexit2.o(.ARM.Collect$$rtexit$$00000002)
    .ARM.Collect$$rtexit$$00000003           0x080001c0   Section        4  rtexit2.o(.ARM.Collect$$rtexit$$00000003)
    .ARM.Collect$$rtexit$$00000004           0x080001c4   Section        6  rtexit2.o(.ARM.Collect$$rtexit$$00000004)
    .text                                    0x080001cc   Section       64  startup_stm32f10x_hd.o(.text)
    .text                                    0x0800020c   Section      238  lludivv7m.o(.text)
    .text                                    0x080002fa   Section       38  llshl.o(.text)
    .text                                    0x08000320   Section       38  llushr.o(.text)
    .text                                    0x08000346   Section        0  heapauxi.o(.text)
    .text                                    0x0800034c   Section        0  _rserrno.o(.text)
    .text                                    0x08000364   Section        8  rt_errno_addr_intlibspace.o(.text)
    .text                                    0x0800036c   Section        8  libspace.o(.text)
    .text                                    0x08000374   Section       74  sys_stackheap_outer.o(.text)
    .text                                    0x080003be   Section        0  exit.o(.text)
    .text                                    0x080003cc   Section        0  sys_exit.o(.text)
    .text                                    0x080003d8   Section        2  use_no_semi.o(.text)
    .text                                    0x080003da   Section        0  indicate_semi.o(.text)
    i.ALT                                    0x080003dc   Section        0  plc_process.o(i.ALT)
    ALT                                      0x080003dd   Thumb Code    66  plc_process.o(i.ALT)
    i.AND                                    0x0800042c   Section        0  plc_process.o(i.AND)
    i.ANDF                                   0x08000464   Section        0  plc_process.o(i.ANDF)
    ANDF                                     0x08000465   Thumb Code   160  plc_process.o(i.ANDF)
    i.ANDP                                   0x08000514   Section        0  plc_process.o(i.ANDP)
    ANDP                                     0x08000515   Thumb Code   160  plc_process.o(i.ANDP)
    i.ANI                                    0x080005c4   Section        0  plc_process.o(i.ANI)
    ANI                                      0x080005c5   Thumb Code    42  plc_process.o(i.ANI)
    i.BCD                                    0x080005fc   Section        0  plc_process.o(i.BCD)
    BCD                                      0x080005fd   Thumb Code    94  plc_process.o(i.BCD)
    i.BIN                                    0x08000660   Section        0  plc_process.o(i.BIN)
    BIN                                      0x08000661   Thumb Code    82  plc_process.o(i.BIN)
    i.BIT_SET                                0x080006b8   Section        0  plc_process.o(i.BIT_SET)
    BIT_SET                                  0x080006b9   Thumb Code   142  plc_process.o(i.BIT_SET)
    i.BKP_DeInit                             0x08000758   Section        0  stm32f10x_bkp.o(i.BKP_DeInit)
    i.BKP_ReadBackupRegister                 0x0800076c   Section        0  stm32f10x_bkp.o(i.BKP_ReadBackupRegister)
    i.BKP_WriteBackupRegister                0x0800077c   Section        0  stm32f10x_bkp.o(i.BKP_WriteBackupRegister)
    i.BMOV                                   0x0800078c   Section        0  plc_process.o(i.BMOV)
    BMOV                                     0x0800078d   Thumb Code   124  plc_process.o(i.BMOV)
    i.BtoG                                   0x0800080c   Section        0  plc_process.o(i.BtoG)
    i.CALL_EX                                0x0800082c   Section        0  plc_process.o(i.CALL_EX)
    CALL_EX                                  0x0800082d   Thumb Code    74  plc_process.o(i.CALL_EX)
    i.CALL_P                                 0x08000884   Section        0  plc_process.o(i.CALL_P)
    CALL_P                                   0x08000885   Thumb Code   134  plc_process.o(i.CALL_P)
    i.CJ_EX                                  0x0800091c   Section        0  plc_process.o(i.CJ_EX)
    CJ_EX                                    0x0800091d   Thumb Code    32  plc_process.o(i.CJ_EX)
    i.CJ_P                                   0x08000944   Section        0  plc_process.o(i.CJ_P)
    CJ_P                                     0x08000945   Thumb Code   134  plc_process.o(i.CJ_P)
    i.CMP                                    0x080009dc   Section        0  plc_process.o(i.CMP)
    CMP                                      0x080009dd   Thumb Code   204  plc_process.o(i.CMP)
    i.CMP_P                                  0x08000ab4   Section        0  plc_process.o(i.CMP_P)
    CMP_P                                    0x08000ab5   Thumb Code   300  plc_process.o(i.CMP_P)
    i.C_given_value_D                        0x08000bf4   Section        0  plc_process.o(i.C_given_value_D)
    C_given_value_D                          0x08000bf5   Thumb Code    64  plc_process.o(i.C_given_value_D)
    i.DAC_SetChannel1Data                    0x08000c38   Section        0  stm32f10x_dac.o(i.DAC_SetChannel1Data)
    i.DAC_SetChannel2Data                    0x08000c4c   Section        0  stm32f10x_dac.o(i.DAC_SetChannel2Data)
    i.DAC_SoftwareTriggerCmd                 0x08000c60   Section        0  stm32f10x_dac.o(i.DAC_SoftwareTriggerCmd)
    i.DAC_data                               0x08000c7c   Section        0  dac.o(i.DAC_data)
    i.DBCD                                   0x08000cac   Section        0  plc_process.o(i.DBCD)
    DBCD                                     0x08000cad   Thumb Code   186  plc_process.o(i.DBCD)
    i.DBIN                                   0x08000d78   Section        0  plc_process.o(i.DBIN)
    DBIN                                     0x08000d79   Thumb Code   248  plc_process.o(i.DBIN)
    i.DCMP                                   0x08000e78   Section        0  plc_process.o(i.DCMP)
    DCMP                                     0x08000e79   Thumb Code   200  plc_process.o(i.DCMP)
    i.DCMP_P                                 0x08000f4c   Section        0  plc_process.o(i.DCMP_P)
    DCMP_P                                   0x08000f4d   Thumb Code   312  plc_process.o(i.DCMP_P)
    i.DDIV                                   0x08001098   Section        0  plc_process.o(i.DDIV)
    DDIV                                     0x08001099   Thumb Code    90  plc_process.o(i.DDIV)
    i.DEC_P                                  0x080010fc   Section        0  plc_process.o(i.DEC_P)
    DEC_P                                    0x080010fd   Thumb Code   136  plc_process.o(i.DEC_P)
    i.DE_target                              0x08001194   Section        0  plc_process.o(i.DE_target)
    DE_target                                0x08001195   Thumb Code    24  plc_process.o(i.DE_target)
    i.DFMOV                                  0x080011b0   Section        0  plc_process.o(i.DFMOV)
    DFMOV                                    0x080011b1   Thumb Code    92  plc_process.o(i.DFMOV)
    i.DINC_P                                 0x08001210   Section        0  plc_process.o(i.DINC_P)
    DINC_P                                   0x08001211   Thumb Code   136  plc_process.o(i.DINC_P)
    i.DMA1_Channel4_IRQHandler               0x080012a8   Section        0  plc_com.o(i.DMA1_Channel4_IRQHandler)
    i.DMA_DeInit                             0x080012cc   Section        0  stm32f10x_dma.o(i.DMA_DeInit)
    i.DMA_ITConfig                           0x080013b0   Section        0  stm32f10x_dma.o(i.DMA_ITConfig)
    i.DMA_Init                               0x080013c0   Section        0  stm32f10x_dma.o(i.DMA_Init)
    i.DMUL                                   0x080013fc   Section        0  plc_process.o(i.DMUL)
    DMUL                                     0x080013fd   Thumb Code    78  plc_process.o(i.DMUL)
    i.DZ0_Z3                                 0x08001454   Section        0  plc_process.o(i.DZ0_Z3)
    i.DZ4_Z7                                 0x0800149c   Section        0  plc_process.o(i.DZ4_Z7)
    i.DZCP                                   0x080014e8   Section        0  plc_process.o(i.DZCP)
    DZCP                                     0x080014e9   Thumb Code   206  plc_process.o(i.DZCP)
    i.D_C_T_addr                             0x080015c4   Section        0  plc_process.o(i.D_C_T_addr)
    i.D_target                               0x08001630   Section        0  plc_process.o(i.D_target)
    D_target                                 0x08001631   Thumb Code   532  plc_process.o(i.D_target)
    i.Damount                                0x08001850   Section        0  plc_process.o(i.Damount)
    Damount                                  0x08001851   Thumb Code    72  plc_process.o(i.Damount)
    i.Dbig                                   0x080018a4   Section        0  plc_process.o(i.Dbig)
    Dbig                                     0x080018a5   Thumb Code    72  plc_process.o(i.Dbig)
    i.Dbig_amount                            0x080018f8   Section        0  plc_process.o(i.Dbig_amount)
    Dbig_amount                              0x080018f9   Thumb Code    72  plc_process.o(i.Dbig_amount)
    i.Dless                                  0x0800194c   Section        0  plc_process.o(i.Dless)
    Dless                                    0x0800194d   Thumb Code    72  plc_process.o(i.Dless)
    i.Dless_amount                           0x080019a0   Section        0  plc_process.o(i.Dless_amount)
    Dless_amount                             0x080019a1   Thumb Code    72  plc_process.o(i.Dless_amount)
    i.Dno_amount                             0x080019f4   Section        0  plc_process.o(i.Dno_amount)
    Dno_amount                               0x080019f5   Thumb Code    72  plc_process.o(i.Dno_amount)
    i.ECMP                                   0x08001a48   Section        0  plc_process.o(i.ECMP)
    ECMP                                     0x08001a49   Thumb Code   224  plc_process.o(i.ECMP)
    i.EPC_FORCE_OFF                          0x08001b34   Section        0  plc_com.o(i.EPC_FORCE_OFF)
    i.EPC_FORCE_ON                           0x08001b74   Section        0  plc_com.o(i.EPC_FORCE_ON)
    i.EXTI15_10_IRQHandler                   0x08001bd8   Section        0  exti.o(i.EXTI15_10_IRQHandler)
    i.EXTI9_5_IRQHandler                     0x08001cac   Section        0  exti.o(i.EXTI9_5_IRQHandler)
    i.EXTI_ClearITPendingBit                 0x08001de0   Section        0  stm32f10x_exti.o(i.EXTI_ClearITPendingBit)
    i.EXTI_GetITStatus                       0x08001dec   Section        0  stm32f10x_exti.o(i.EXTI_GetITStatus)
    i.EZCP                                   0x08001e0c   Section        0  plc_process.o(i.EZCP)
    EZCP                                     0x08001e0d   Thumb Code   190  plc_process.o(i.EZCP)
    i.Encoder_A                              0x08001ed8   Section        0  encoder.o(i.Encoder_A)
    i.Encoder_B                              0x08001f14   Section        0  encoder.o(i.Encoder_B)
    i.ErasurePLC                             0x08001f50   Section        0  plc_com.o(i.ErasurePLC)
    i.FLASH_ErasePage                        0x08002004   Section        0  stm32f10x_flash.o(i.FLASH_ErasePage)
    i.FLASH_GetBank1Status                   0x08002040   Section        0  stm32f10x_flash.o(i.FLASH_GetBank1Status)
    i.FLASH_Lock                             0x08002068   Section        0  stm32f10x_flash.o(i.FLASH_Lock)
    i.FLASH_ProgramHalfWord                  0x08002078   Section        0  stm32f10x_flash.o(i.FLASH_ProgramHalfWord)
    i.FLASH_Unlock                           0x080020ac   Section        0  stm32f10x_flash.o(i.FLASH_Unlock)
    i.FLASH_WaitForLastOperation             0x080020c4   Section        0  stm32f10x_flash.o(i.FLASH_WaitForLastOperation)
    i.FMOV                                   0x080020e8   Section        0  plc_process.o(i.FMOV)
    FMOV                                     0x080020e9   Thumb Code   100  plc_process.o(i.FMOV)
    i.FOR                                    0x08002150   Section        0  plc_process.o(i.FOR)
    FOR                                      0x08002151   Thumb Code    72  plc_process.o(i.FOR)
    i.GPIO_Init                              0x080021a0   Section        0  stm32f10x_gpio.o(i.GPIO_Init)
    i.GPIO_PinRemapConfig                    0x0800223c   Section        0  stm32f10x_gpio.o(i.GPIO_PinRemapConfig)
    i.GPIO_ReadInputDataBit                  0x08002294   Section        0  stm32f10x_gpio.o(i.GPIO_ReadInputDataBit)
    i.GtoB                                   0x080022a2   Section        0  plc_process.o(i.GtoB)
    i.INC_P                                  0x080022c4   Section        0  plc_process.o(i.INC_P)
    INC_P                                    0x080022c5   Thumb Code   136  plc_process.o(i.INC_P)
    i.Is_Leap_Year                           0x0800235c   Section        0  rtc.o(i.Is_Leap_Year)
    i.LD                                     0x08002384   Section        0  plc_process.o(i.LD)
    LD                                       0x08002385   Thumb Code    72  plc_process.o(i.LD)
    i.LDF                                    0x080023d8   Section        0  plc_process.o(i.LDF)
    LDF                                      0x080023d9   Thumb Code   208  plc_process.o(i.LDF)
    i.LDI                                    0x080024bc   Section        0  plc_process.o(i.LDI)
    LDI                                      0x080024bd   Thumb Code    74  plc_process.o(i.LDI)
    i.LDP                                    0x08002514   Section        0  plc_process.o(i.LDP)
    LDP                                      0x08002515   Thumb Code   190  plc_process.o(i.LDP)
    i.LPF                                    0x080025e8   Section        0  plc_process.o(i.LPF)
    LPF                                      0x080025e9   Thumb Code   182  plc_process.o(i.LPF)
    i.LPS                                    0x080026b4   Section        0  plc_process.o(i.LPS)
    LPS                                      0x080026b5   Thumb Code   158  plc_process.o(i.LPS)
    i.MEAN                                   0x08002768   Section        0  plc_process.o(i.MEAN)
    i.MOV_K                                  0x08002824   Section        0  plc_process.o(i.MOV_K)
    MOV_K                                    0x08002825   Thumb Code    48  plc_process.o(i.MOV_K)
    i.MOV_TO_K_H                             0x0800285c   Section        0  plc_process.o(i.MOV_TO_K_H)
    MOV_TO_K_H                               0x0800285d   Thumb Code   270  plc_process.o(i.MOV_TO_K_H)
    i.MTR                                    0x08002978   Section        0  plc_process.o(i.MTR)
    MTR                                      0x08002979   Thumb Code   170  plc_process.o(i.MTR)
    i.NCIC_Confinguration                    0x08002a30   Section        0  nvic_interrupt.o(i.NCIC_Confinguration)
    i.NVIC_Init                              0x08002b34   Section        0  misc.o(i.NVIC_Init)
    i.NVIC_PriorityGroupConfig               0x08002b98   Section        0  misc.o(i.NVIC_PriorityGroupConfig)
    i.NVIC_SetVectorTable                    0x08002bac   Section        0  misc.o(i.NVIC_SetVectorTable)
    i.OR                                     0x08002bc0   Section        0  plc_process.o(i.OR)
    OR                                       0x08002bc1   Thumb Code    44  plc_process.o(i.OR)
    i.ORF                                    0x08002bf8   Section        0  plc_process.o(i.ORF)
    ORF                                      0x08002bf9   Thumb Code   160  plc_process.o(i.ORF)
    i.ORI                                    0x08002ca8   Section        0  plc_process.o(i.ORI)
    ORI                                      0x08002ca9   Thumb Code    46  plc_process.o(i.ORI)
    i.ORP                                    0x08002ce4   Section        0  plc_process.o(i.ORP)
    ORP                                      0x08002ce5   Thumb Code   160  plc_process.o(i.ORP)
    i.OUT                                    0x08002d94   Section        0  plc_process.o(i.OUT)
    i.PC_FORCE_OFF                           0x08002e38   Section        0  plc_com.o(i.PC_FORCE_OFF)
    i.PC_FORCE_ON                            0x08002e7c   Section        0  plc_com.o(i.PC_FORCE_ON)
    i.PC_OPTION_PROG                         0x08002eb8   Section        0  plc_com.o(i.PC_OPTION_PROG)
    i.PC_READ_PORG                           0x08002fa8   Section        0  plc_com.o(i.PC_READ_PORG)
    i.PC_READ_Parameter                      0x0800303c   Section        0  plc_com.o(i.PC_READ_Parameter)
    i.PC_READ_byte                           0x080031e4   Section        0  plc_com.o(i.PC_READ_byte)
    i.PC_WRITE_PORG                          0x08003218   Section        0  plc_com.o(i.PC_WRITE_PORG)
    i.PC_WRITE_Parameter                     0x080032a4   Section        0  plc_com.o(i.PC_WRITE_Parameter)
    i.PC_WRITE_byte                          0x080032ec   Section        0  plc_com.o(i.PC_WRITE_byte)
    i.PID                                    0x08003330   Section        0  plc_process.o(i.PID)
    PID                                      0x08003331   Thumb Code   216  plc_process.o(i.PID)
    i.PLC_1BIT_State                         0x08003410   Section        0  plc_com.o(i.PLC_1BIT_State)
    i.PLC_Com_BIT                            0x08003488   Section        0  plc_com.o(i.PLC_Com_BIT)
    PLC_Com_BIT                              0x08003489   Thumb Code   164  plc_com.o(i.PLC_Com_BIT)
    i.PLC_Comm_Byte                          0x0800352c   Section        0  plc_com.o(i.PLC_Comm_Byte)
    i.PLC_Download                           0x080035d4   Section        0  plc_com.o(i.PLC_Download)
    i.PLC_E_Expand                           0x080035fc   Section        0  plc_com.o(i.PLC_E_Expand)
    i.PLC_IO_Refresh                         0x08003644   Section        0  plc_io.o(i.PLC_IO_Refresh)
    i.PLC_IO_config                          0x08003704   Section        0  plc_io.o(i.PLC_IO_config)
    i.PLC_LD_BIT                             0x08003744   Section        0  plc_process.o(i.PLC_LD_BIT)
    PLC_LD_BIT                               0x08003745   Thumb Code    28  plc_process.o(i.PLC_LD_BIT)
    i.PLC_Mode_config                        0x08003768   Section        0  plc_io.o(i.PLC_Mode_config)
    i.PLC_PL_BIT_TEST                        0x080037c4   Section        0  plc_process.o(i.PLC_PL_BIT_TEST)
    PLC_PL_BIT_TEST                          0x080037c5   Thumb Code    28  plc_process.o(i.PLC_PL_BIT_TEST)
    i.PLC_PROG_ERROR                         0x080037e8   Section        0  plc_process.o(i.PLC_PROG_ERROR)
    i.PLC_ProInstructParse                   0x0800383c   Section        0  plc_process.o(i.PLC_ProInstructParse)
    i.PLC_Timer                              0x08003b44   Section        0  plc_timer.o(i.PLC_Timer)
    i.PLC_Upload                             0x08003b90   Section        0  plc_com.o(i.PLC_Upload)
    i.PLC_X_config                           0x08003c0c   Section        0  plc_io.o(i.PLC_X_config)
    i.PLC_Y_config                           0x08003c80   Section        0  plc_io.o(i.PLC_Y_config)
    i.PLSY                                   0x08003cd8   Section        0  plc_process.o(i.PLSY)
    i.PWR_BackupAccessCmd                    0x08003e50   Section        0  stm32f10x_pwr.o(i.PWR_BackupAccessCmd)
    i.Process_switch                         0x08003e5c   Section        0  plc_com.o(i.Process_switch)
    i.RCC_AHBPeriphClockCmd                  0x08003ef8   Section        0  stm32f10x_rcc.o(i.RCC_AHBPeriphClockCmd)
    i.RCC_APB1PeriphClockCmd                 0x08003f10   Section        0  stm32f10x_rcc.o(i.RCC_APB1PeriphClockCmd)
    i.RCC_APB1PeriphResetCmd                 0x08003f28   Section        0  stm32f10x_rcc.o(i.RCC_APB1PeriphResetCmd)
    i.RCC_APB2PeriphClockCmd                 0x08003f40   Section        0  stm32f10x_rcc.o(i.RCC_APB2PeriphClockCmd)
    i.RCC_APB2PeriphResetCmd                 0x08003f58   Section        0  stm32f10x_rcc.o(i.RCC_APB2PeriphResetCmd)
    i.RCC_BackupResetCmd                     0x08003f70   Section        0  stm32f10x_rcc.o(i.RCC_BackupResetCmd)
    i.RCC_ClearFlag                          0x08003f7c   Section        0  stm32f10x_rcc.o(i.RCC_ClearFlag)
    i.RCC_GetClocksFreq                      0x08003f8c   Section        0  stm32f10x_rcc.o(i.RCC_GetClocksFreq)
    i.RCC_GetFlagStatus                      0x08004020   Section        0  stm32f10x_rcc.o(i.RCC_GetFlagStatus)
    i.RCC_LSEConfig                          0x08004050   Section        0  stm32f10x_rcc.o(i.RCC_LSEConfig)
    i.RCC_RTCCLKCmd                          0x08004070   Section        0  stm32f10x_rcc.o(i.RCC_RTCCLKCmd)
    i.RCC_RTCCLKConfig                       0x0800407c   Section        0  stm32f10x_rcc.o(i.RCC_RTCCLKConfig)
    i.READ_PLC_ROM                           0x0800408c   Section        0  plc_com.o(i.READ_PLC_ROM)
    i.RESET_C                                0x080040c4   Section        0  plc_process.o(i.RESET_C)
    RESET_C                                  0x080040c5   Thumb Code    74  plc_process.o(i.RESET_C)
    i.RST                                    0x08004120   Section        0  plc_process.o(i.RST)
    RST                                      0x08004121   Thumb Code    30  plc_process.o(i.RST)
    i.RST_D                                  0x0800414c   Section        0  plc_process.o(i.RST_D)
    RST_D                                    0x0800414d   Thumb Code    92  plc_process.o(i.RST_D)
    i.RST_T_C                                0x080041b0   Section        0  plc_process.o(i.RST_T_C)
    RST_T_C                                  0x080041b1   Thumb Code    56  plc_process.o(i.RST_T_C)
    i.RST_Y                                  0x080041ec   Section        0  plc_process.o(i.RST_Y)
    i.RTC_Config                             0x08004200   Section        0  rtc.o(i.RTC_Config)
    i.RTC_EnterConfigMode                    0x08004258   Section        0  stm32f10x_rtc.o(i.RTC_EnterConfigMode)
    i.RTC_ExitConfigMode                     0x08004268   Section        0  stm32f10x_rtc.o(i.RTC_ExitConfigMode)
    i.RTC_Get                                0x08004278   Section        0  rtc.o(i.RTC_Get)
    i.RTC_GetCounter                         0x080043ac   Section        0  stm32f10x_rtc.o(i.RTC_GetCounter)
    i.RTC_Get_Week                           0x080043c0   Section        0  rtc.o(i.RTC_Get_Week)
    i.RTC_ITConfig                           0x08004418   Section        0  stm32f10x_rtc.o(i.RTC_ITConfig)
    i.RTC_Init                               0x08004430   Section        0  rtc.o(i.RTC_Init)
    i.RTC_Set                                0x080044b0   Section        0  rtc.o(i.RTC_Set)
    i.RTC_SetCounter                         0x08004574   Section        0  stm32f10x_rtc.o(i.RTC_SetCounter)
    i.RTC_SetPrescaler                       0x08004594   Section        0  stm32f10x_rtc.o(i.RTC_SetPrescaler)
    i.RTC_WaitForLastTask                    0x080045b4   Section        0  stm32f10x_rtc.o(i.RTC_WaitForLastTask)
    i.RTC_WaitForSynchro                     0x080045c4   Section        0  stm32f10x_rtc.o(i.RTC_WaitForSynchro)
    i.SMOV                                   0x080045dc   Section        0  plc_process.o(i.SMOV)
    SMOV                                     0x080045dd   Thumb Code   166  plc_process.o(i.SMOV)
    i.STL                                    0x0800468c   Section        0  plc_process.o(i.STL)
    i.SetSysClockTo72                        0x080046c8   Section        0  system_stm32f10x.o(i.SetSysClockTo72)
    SetSysClockTo72                          0x080046c9   Thumb Code   160  system_stm32f10x.o(i.SetSysClockTo72)
    i.SystemInit                             0x08004770   Section        0  system_stm32f10x.o(i.SystemInit)
    i.TADD                                   0x080047c0   Section        0  plc_process.o(i.TADD)
    TADD                                     0x080047c1   Thumb Code    72  plc_process.o(i.TADD)
    i.TCMP                                   0x08004810   Section        0  plc_process.o(i.TCMP)
    TCMP                                     0x08004811   Thumb Code   270  plc_process.o(i.TCMP)
    i.TIM2_IRQHandler                        0x08004930   Section        0  plc_timer.o(i.TIM2_IRQHandler)
    i.TIM3_IRQHandler                        0x08004a50   Section        0  pulse.o(i.TIM3_IRQHandler)
    i.TIM_ClearFlag                          0x08004aa8   Section        0  stm32f10x_tim.o(i.TIM_ClearFlag)
    i.TIM_ClearITPendingBit                  0x08004aae   Section        0  stm32f10x_tim.o(i.TIM_ClearITPendingBit)
    i.TIM_Cmd                                0x08004ab4   Section        0  stm32f10x_tim.o(i.TIM_Cmd)
    i.TIM_DeInit                             0x08004ac8   Section        0  stm32f10x_tim.o(i.TIM_DeInit)
    i.TIM_ITConfig                           0x08004c38   Section        0  stm32f10x_tim.o(i.TIM_ITConfig)
    i.TIM_TimeBaseInit                       0x08004c48   Section        0  stm32f10x_tim.o(i.TIM_TimeBaseInit)
    i.TRD                                    0x08004ce4   Section        0  plc_process.o(i.TRD)
    TRD                                      0x08004ce5   Thumb Code    74  plc_process.o(i.TRD)
    i.TSUB                                   0x08004d38   Section        0  plc_process.o(i.TSUB)
    TSUB                                     0x08004d39   Thumb Code    72  plc_process.o(i.TSUB)
    i.TWR                                    0x08004d88   Section        0  plc_process.o(i.TWR)
    TWR                                      0x08004d89   Thumb Code    52  plc_process.o(i.TWR)
    i.TX_Process                             0x08004dc4   Section        0  plc_com.o(i.TX_Process)
    i.TZCP                                   0x08004dec   Section        0  plc_process.o(i.TZCP)
    TZCP                                     0x08004ded   Thumb Code   300  plc_process.o(i.TZCP)
    i.T_100MS                                0x08004f28   Section        0  plc_timer.o(i.T_100MS)
    i.T_10MS                                 0x08004f98   Section        0  plc_timer.o(i.T_10MS)
    i.T_1MS                                  0x08005010   Section        0  plc_timer.o(i.T_1MS)
    i.T_H100MS                               0x08005080   Section        0  plc_timer.o(i.T_H100MS)
    i.T_given_value_D                        0x080050f0   Section        0  plc_process.o(i.T_given_value_D)
    T_given_value_D                          0x080050f1   Thumb Code   112  plc_process.o(i.T_given_value_D)
    i.USART1_Configuration                   0x08005168   Section        0  plc_com.o(i.USART1_Configuration)
    i.USART1_IRQHandler                      0x08005228   Section        0  plc_com.o(i.USART1_IRQHandler)
    i.USART_ClearITPendingBit                0x08005314   Section        0  stm32f10x_usart.o(i.USART_ClearITPendingBit)
    i.USART_Cmd                              0x08005320   Section        0  stm32f10x_usart.o(i.USART_Cmd)
    i.USART_DMACmd                           0x08005334   Section        0  stm32f10x_usart.o(i.USART_DMACmd)
    i.USART_GetFlagStatus                    0x08005344   Section        0  stm32f10x_usart.o(i.USART_GetFlagStatus)
    i.USART_GetITStatus                      0x08005352   Section        0  stm32f10x_usart.o(i.USART_GetITStatus)
    i.USART_ITConfig                         0x08005390   Section        0  stm32f10x_usart.o(i.USART_ITConfig)
    i.USART_Init                             0x080053c0   Section        0  stm32f10x_usart.o(i.USART_Init)
    i.USART_ReceiveData                      0x0800546c   Section        0  stm32f10x_usart.o(i.USART_ReceiveData)
    i.V0_V3                                  0x08005474   Section        0  plc_process.o(i.V0_V3)
    i.V4_V7                                  0x080054a8   Section        0  plc_process.o(i.V4_V7)
    i.X_filter                               0x080054dc   Section        0  plc_io.o(i.X_filter)
    i.Z0_Z3                                  0x08005864   Section        0  plc_process.o(i.Z0_Z3)
    i.Z4_Z7                                  0x08005898   Section        0  plc_process.o(i.Z4_Z7)
    i.ZCP                                    0x080058cc   Section        0  plc_process.o(i.ZCP)
    ZCP                                      0x080058cd   Thumb Code   208  plc_process.o(i.ZCP)
    i.__ARM_fpclassify                       0x080059a8   Section        0  fpclassify.o(i.__ARM_fpclassify)
    i.__ieee754_rem_pio2                     0x080059d0   Section        0  rred.o(i.__ieee754_rem_pio2)
    i.__kernel_cos                           0x08005d58   Section        0  cos_i.o(i.__kernel_cos)
    i.__kernel_poly                          0x08005e54   Section        0  poly.o(i.__kernel_poly)
    i.__kernel_sin                           0x08005f00   Section        0  sin_i.o(i.__kernel_sin)
    i.__mathlib_dbl_infnan                   0x08005fec   Section        0  dunder.o(i.__mathlib_dbl_infnan)
    i.__mathlib_dbl_invalid                  0x08005ff2   Section        0  dunder.o(i.__mathlib_dbl_invalid)
    x$fpl$usenofp                            0x08005ffe   Section        0  usenofp.o(x$fpl$usenofp)
    .ARM.__AT_0x08006000                     0x08006000   Section    34000  plc_com.o(.ARM.__AT_0x08006000)
    i.__kernel_tan                           0x0800e4d0   Section        0  tan_i.o(i.__kernel_tan)
    i.__mathlib_dbl_underflow                0x0800e74c   Section        0  dunder.o(i.__mathlib_dbl_underflow)
    i.addr_value                             0x0800e75c   Section        0  plc_process.o(i.addr_value)
    addr_value                               0x0800e75d   Thumb Code    60  plc_process.o(i.addr_value)
    i.addr_value_prog                        0x0800e79c   Section        0  plc_process.o(i.addr_value_prog)
    addr_value_prog                          0x0800e79d   Thumb Code   232  plc_process.o(i.addr_value_prog)
    i.all_flash_lock                         0x0800e898   Section        0  plc_com.o(i.all_flash_lock)
    i.all_flash_unlock                       0x0800e8c4   Section        0  plc_com.o(i.all_flash_unlock)
    i.amount                                 0x0800e8e4   Section        0  plc_process.o(i.amount)
    amount                                   0x0800e8e5   Thumb Code    72  plc_process.o(i.amount)
    i.b2g                                    0x0800e938   Section        0  plc_process.o(i.b2g)
    i.backup_block                           0x0800e970   Section        0  plc_com.o(i.backup_block)
    i.big                                    0x0800e9a0   Section        0  plc_process.o(i.big)
    big                                      0x0800e9a1   Thumb Code    72  plc_process.o(i.big)
    i.big_amount                             0x0800e9f4   Section        0  plc_process.o(i.big_amount)
    big_amount                               0x0800e9f5   Thumb Code    72  plc_process.o(i.big_amount)
    i.check                                  0x0800ea48   Section        0  plc_com.o(i.check)
    i.cos                                    0x0800ea70   Section        0  cos.o(i.cos)
    i.cos_float_value                        0x0800eb0c   Section        0  plc_process.o(i.cos_float_value)
    cos_float_value                          0x0800eb0d   Thumb Code   156  plc_process.o(i.cos_float_value)
    i.cos_u32_value                          0x0800ebb4   Section        0  plc_process.o(i.cos_u32_value)
    cos_u32_value                            0x0800ebb5   Thumb Code  1268  plc_process.o(i.cos_u32_value)
    i.cos_value                              0x0800f0ac   Section        0  plc_process.o(i.cos_value)
    cos_value                                0x0800f0ad   Thumb Code  1182  plc_process.o(i.cos_value)
    i.data_init                              0x0800f54c   Section        0  plc_com.o(i.data_init)
    i.disable_C_D                            0x0800f5ac   Section        0  plc_process.o(i.disable_C_D)
    disable_C_D                              0x0800f5ad   Thumb Code   148  plc_process.o(i.disable_C_D)
    i.disable_C_K                            0x0800f654   Section        0  plc_process.o(i.disable_C_K)
    disable_C_K                              0x0800f655   Thumb Code   126  plc_process.o(i.disable_C_K)
    i.disable_T                              0x0800f6e8   Section        0  plc_process.o(i.disable_T)
    disable_T                                0x0800f6e9   Thumb Code    34  plc_process.o(i.disable_T)
    i.enable_C_D                             0x0800f710   Section        0  plc_process.o(i.enable_C_D)
    enable_C_D                               0x0800f711   Thumb Code   232  plc_process.o(i.enable_C_D)
    i.enable_C_K                             0x0800f80c   Section        0  plc_process.o(i.enable_C_K)
    enable_C_K                               0x0800f80d   Thumb Code   192  plc_process.o(i.enable_C_K)
    i.enable_T_K                             0x0800f8e0   Section        0  plc_process.o(i.enable_T_K)
    enable_T_K                               0x0800f8e1   Thumb Code    54  plc_process.o(i.enable_T_K)
    i.expand_AND                             0x0800f920   Section        0  plc_process.o(i.expand_AND)
    i.expand_ANI                             0x0800f93c   Section        0  plc_process.o(i.expand_ANI)
    i.expand_LD                              0x0800f958   Section        0  plc_process.o(i.expand_LD)
    i.expand_LDI                             0x0800f974   Section        0  plc_process.o(i.expand_LDI)
    i.expand_OR                              0x0800f990   Section        0  plc_process.o(i.expand_OR)
    i.expand_ORI                             0x0800f9ac   Section        0  plc_process.o(i.expand_ORI)
    i.expand_OUT                             0x0800f9c8   Section        0  plc_process.o(i.expand_OUT)
    i.expand_RST                             0x0800f9e4   Section        0  plc_process.o(i.expand_RST)
    i.expand_SET                             0x0800fa00   Section        0  plc_process.o(i.expand_SET)
    i.extend_function                        0x0800fa1c   Section        0  plc_process.o(i.extend_function)
    extend_function                          0x0800fa1d   Thumb Code  3408  plc_process.o(i.extend_function)
    i.filter                                 0x0801076c   Section        0  adc.o(i.filter)
    i.find_data                              0x080107b0   Section        0  plc_com.o(i.find_data)
    find_data                                0x080107b1   Thumb Code    58  plc_com.o(i.find_data)
    i.find_data_address                      0x080107f0   Section        0  plc_com.o(i.find_data_address)
    find_data_address                        0x080107f1   Thumb Code   112  plc_com.o(i.find_data_address)
    i.find_end                               0x0801086c   Section        0  plc_com.o(i.find_end)
    i.find_p                                 0x0801088c   Section        0  plc_process.o(i.find_p)
    i.find_toend                             0x080108c8   Section        0  plc_process.o(i.find_toend)
    i.g2b                                    0x080108f4   Section        0  plc_process.o(i.g2b)
    i.less                                   0x08010930   Section        0  plc_process.o(i.less)
    less                                     0x08010931   Thumb Code    72  plc_process.o(i.less)
    i.main                                   0x08010984   Section        0  main.o(i.main)
    i.mov_flash                              0x080109d0   Section        0  plc_com.o(i.mov_flash)
    mov_flash                                0x080109d1   Thumb Code   224  plc_com.o(i.mov_flash)
    i.no_amount                              0x08010ac0   Section        0  plc_process.o(i.no_amount)
    no_amount                                0x08010ac1   Thumb Code    72  plc_process.o(i.no_amount)
    i.online_write_data                      0x08010b14   Section        0  plc_com.o(i.online_write_data)
    i.other_function                         0x08010c54   Section        0  plc_process.o(i.other_function)
    other_function                           0x08010c55   Thumb Code    96  plc_process.o(i.other_function)
    i.read_other_data                        0x08010cb8   Section        0  plc_com.o(i.read_other_data)
    i.read_plc_tyte                          0x08010d44   Section        0  plc_com.o(i.read_plc_tyte)
    i.setup_HL                               0x08010dc4   Section        0  plc_com.o(i.setup_HL)
    i.setup_LH                               0x08010ddc   Section        0  plc_com.o(i.setup_LH)
    i.sin                                    0x08010df4   Section        0  sin.o(i.sin)
    i.sqrt                                   0x08010e94   Section        0  sqrt.o(i.sqrt)
    i.switch_read_data                       0x08010ee0   Section        0  plc_com.o(i.switch_read_data)
    i.tan                                    0x08010f20   Section        0  tan.o(i.tan)
    i.target                                 0x08010f84   Section        0  plc_process.o(i.target)
    target                                   0x08010f85   Thumb Code   632  plc_process.o(i.target)
    i.timer_disble                           0x08011208   Section        0  plc_timer.o(i.timer_disble)
    i.timer_enable                           0x08011280   Section        0  plc_timer.o(i.timer_enable)
    i.usart                                  0x08011308   Section        0  plc_com.o(i.usart)
    i.write_block                            0x08011338   Section        0  plc_com.o(i.write_block)
    x$fpl$d2f                                0x08011394   Section       98  d2f.o(x$fpl$d2f)
    x$fpl$dadd                               0x080113f8   Section      336  daddsub_clz.o(x$fpl$dadd)
    _dadd1                                   0x08011409   Thumb Code     0  daddsub_clz.o(x$fpl$dadd)
    x$fpl$dcheck1                            0x08011548   Section       16  dcheck1.o(x$fpl$dcheck1)
    x$fpl$ddiv                               0x08011558   Section      688  ddiv.o(x$fpl$ddiv)
    ddiv_entry                               0x0801155f   Thumb Code     0  ddiv.o(x$fpl$ddiv)
    x$fpl$dfix                               0x08011808   Section       94  dfix.o(x$fpl$dfix)
    x$fpl$dfixu                              0x08011868   Section       90  dfixu.o(x$fpl$dfixu)
    x$fpl$dflt                               0x080118c2   Section       46  dflt_clz.o(x$fpl$dflt)
    x$fpl$dfltu                              0x080118f0   Section       38  dflt_clz.o(x$fpl$dfltu)
    x$fpl$dmul                               0x08011918   Section      340  dmul.o(x$fpl$dmul)
    x$fpl$dnaninf                            0x08011a6c   Section      156  dnaninf.o(x$fpl$dnaninf)
    x$fpl$dretinf                            0x08011b08   Section       12  dretinf.o(x$fpl$dretinf)
    x$fpl$drsb                               0x08011b14   Section       22  daddsub_clz.o(x$fpl$drsb)
    x$fpl$dsqrt                              0x08011b2c   Section      460  dsqrt_noumaal.o(x$fpl$dsqrt)
    x$fpl$dsub                               0x08011cf8   Section      468  daddsub_clz.o(x$fpl$dsub)
    _dsub1                                   0x08011d09   Thumb Code     0  daddsub_clz.o(x$fpl$dsub)
    x$fpl$f2d                                0x08011ecc   Section       86  f2d.o(x$fpl$f2d)
    x$fpl$fadd                               0x08011f24   Section      196  faddsub_clz.o(x$fpl$fadd)
    _fadd1                                   0x08011f33   Thumb Code     0  faddsub_clz.o(x$fpl$fadd)
    x$fpl$fcmpinf                            0x08011fe8   Section       24  fcmpi.o(x$fpl$fcmpinf)
    x$fpl$fdiv                               0x08012000   Section      388  fdiv.o(x$fpl$fdiv)
    _fdiv1                                   0x08012001   Thumb Code     0  fdiv.o(x$fpl$fdiv)
    x$fpl$feqf                               0x08012184   Section      104  feqf.o(x$fpl$feqf)
    x$fpl$ffixu                              0x080121ec   Section       62  ffixu.o(x$fpl$ffixu)
    x$fpl$fflt                               0x0801222c   Section       48  fflt_clz.o(x$fpl$fflt)
    x$fpl$fleqf                              0x0801225c   Section      104  fleqf.o(x$fpl$fleqf)
    x$fpl$fmul                               0x080122c4   Section      258  fmul.o(x$fpl$fmul)
    x$fpl$fnaninf                            0x080123c6   Section      140  fnaninf.o(x$fpl$fnaninf)
    x$fpl$fretinf                            0x08012452   Section       10  fretinf.o(x$fpl$fretinf)
    x$fpl$frleqf                             0x0801245c   Section       98  frleqf.o(x$fpl$frleqf)
    x$fpl$fsub                               0x080124c0   Section      234  faddsub_clz.o(x$fpl$fsub)
    _fsub1                                   0x080124cf   Thumb Code     0  faddsub_clz.o(x$fpl$fsub)
    x$fpl$retnan                             0x080125aa   Section      100  retnan.o(x$fpl$retnan)
    x$fpl$scalbn                             0x0801260e   Section       92  scalbn.o(x$fpl$scalbn)
    x$fpl$trapveneer                         0x0801266a   Section       48  trapv.o(x$fpl$trapveneer)
    .constdata                               0x0801269a   Section      609  plc_com.o(.constdata)
    .constdata                               0x080128fb   Section       12  rtc.o(.constdata)
    .constdata                               0x08012907   Section       16  plc_process.o(.constdata)
    .constdata                               0x08012918   Section       48  cos_i.o(.constdata)
    C                                        0x08012918   Data          48  cos_i.o(.constdata)
    .constdata                               0x08012948   Section      200  rred.o(.constdata)
    pio2s                                    0x08012948   Data          48  rred.o(.constdata)
    twooverpi                                0x08012978   Data         152  rred.o(.constdata)
    .constdata                               0x08012a10   Section       40  sin_i.o(.constdata)
    S                                        0x08012a10   Data          40  sin_i.o(.constdata)
    .constdata                               0x08012a38   Section       96  tan_i.o(.constdata)
    Todd                                     0x08012a38   Data          48  tan_i.o(.constdata)
    Teven                                    0x08012a68   Data          48  tan_i.o(.constdata)
    .data                                    0x20000000   Section       20  stm32f10x_rcc.o(.data)
    ADCPrescTable                            0x20000000   Data           4  stm32f10x_rcc.o(.data)
    APBAHBPrescTable                         0x20000004   Data          16  stm32f10x_rcc.o(.data)
    .data                                    0x20000014   Section        1  main.o(.data)
    .data                                    0x20000016   Section       20  plc_com.o(.data)
    Flag_Uart_Send                           0x20000016   Data           1  plc_com.o(.data)
    offset                                   0x20000017   Data           1  plc_com.o(.data)
    sum                                      0x20000018   Data           1  plc_com.o(.data)
    temp                                     0x2000001c   Data           2  plc_com.o(.data)
    Size                                     0x2000001e   Data           2  plc_com.o(.data)
    .data                                    0x2000002a   Section        1  pulse.o(.data)
    .data                                    0x2000002c   Section        2  pulse.o(.data)
    .data                                    0x2000002e   Section       15  rtc.o(.data)
    daycnt                                   0x2000002e   Data           2  rtc.o(.data)
    .data                                    0x20000040   Section      136  plc_process.o(.data)
    temp                                     0x20000041   Data           1  plc_process.o(.data)
    addr                                     0x20000042   Data           1  plc_process.o(.data)
    puls                                     0x20000043   Data           1  plc_process.o(.data)
    PLC_ACC_BIT                              0x20000044   Data           1  plc_process.o(.data)
    PLC_MPS_BIT                              0x20000045   Data           1  plc_process.o(.data)
    T_number                                 0x20000046   Data           1  plc_process.o(.data)
    C_number                                 0x20000047   Data           1  plc_process.o(.data)
    PLC_STL_Status                           0x2000004b   Data           1  plc_process.o(.data)
    PLC_STL_CMD                              0x2000004c   Data           1  plc_process.o(.data)
    PLC_STL_Count                            0x2000004d   Data           1  plc_process.o(.data)
    LL_BIT                                   0x20000050   Data           2  plc_process.o(.data)
    JOB_ADDR                                 0x20000052   Data           2  plc_process.o(.data)
    temp                                     0x20000054   Data           2  plc_process.o(.data)
    temp1                                    0x20000056   Data           2  plc_process.o(.data)
    temp                                     0x20000058   Data           2  plc_process.o(.data)
    T_value                                  0x2000005a   Data           2  plc_process.o(.data)
    C_value                                  0x2000005c   Data           2  plc_process.o(.data)
    PLC_STL_Addr                             0x2000005e   Data           2  plc_process.o(.data)
    p_data                                   0x20000060   Data           4  plc_process.o(.data)
    temp                                     0x20000064   Data           4  plc_process.o(.data)
    temp1                                    0x20000068   Data           4  plc_process.o(.data)
    temp2                                    0x2000006c   Data           4  plc_process.o(.data)
    temp1                                    0x20000070   Data           4  plc_process.o(.data)
    temp2                                    0x20000074   Data           4  plc_process.o(.data)
    temp1                                    0x20000078   Data           4  plc_process.o(.data)
    temp2                                    0x2000007c   Data           4  plc_process.o(.data)
    p_data                                   0x20000080   Data           4  plc_process.o(.data)
    p_data                                   0x20000084   Data           4  plc_process.o(.data)
    p_data                                   0x20000088   Data           4  plc_process.o(.data)
    p_data                                   0x2000008c   Data           4  plc_process.o(.data)
    p_data                                   0x20000090   Data           4  plc_process.o(.data)
    PLC_Addr                                 0x20000094   Data           4  plc_process.o(.data)
    PLC_Err                                  0x20000098   Data           4  plc_process.o(.data)
    mov_d_addr                               0x2000009c   Data           4  plc_process.o(.data)
    MOV_DATA_64BIT                           0x200000b8   Data           8  plc_process.o(.data)
    .data                                    0x200000c8   Section       16  plc_timer.o(.data)
    all_clock                                0x200000c8   Data           1  plc_timer.o(.data)
    minute                                   0x200000ca   Data           2  plc_timer.o(.data)
    .data                                    0x200000d8   Section        1  plc_io.o(.data)
    .bss                                     0x200000dc   Section     1732  plc_process.o(.bss)
    PLC_P_Addr                               0x200000dc   Data         516  plc_process.o(.bss)
    p_save                                   0x200002e0   Data         516  plc_process.o(.bss)
    PLC_STL_Coil                             0x200005a0   Data         512  plc_process.o(.bss)
    .bss                                     0x200007a0   Section     1200  adc.o(.bss)
    .bss                                     0x20000c50   Section       33  plc_io.o(.bss)
    x_buffer                                 0x20000c50   Data          33  plc_io.o(.bss)
    .bss                                     0x20000c74   Section       96  libspace.o(.bss)
    HEAP                                     0x20000cd8   Section      512  startup_stm32f10x_hd.o(HEAP)
    Heap_Mem                                 0x20000cd8   Data         512  startup_stm32f10x_hd.o(HEAP)
    .ARM.__AT_0x20001000                     0x20001000   Section    24200  plc_com.o(.ARM.__AT_0x20001000)
    .bss                                     0x20006e88   Section     7320  plc_com.o(.bss)
    STACK                                    0x20008b20   Section     1024  startup_stm32f10x_hd.o(STACK)
    Stack_Mem                                0x20008b20   Data        1024  startup_stm32f10x_hd.o(STACK)
    __initial_sp                             0x20008f20   Data           0  startup_stm32f10x_hd.o(STACK)

    Global Symbols

    Symbol Name                              Value     Ov Type        Size  Object(Section)

    BuildAttributes$$THM_ISAv4$P$D$K$B$S$PE$A:L22UL41UL21$X:L11$S22US41US21$IEEE1$IW$USESV6$~STKCKD$USESV7$~SHL$OTIME$ROPI$IEEEX$EBA8$UX$STANDARDLIB$REQ8$PRES8$EABIv2 0x00000000   Number         0  anon$$obj.o ABSOLUTE
    __ARM_use_no_argv                        0x00000000   Number         0  main.o ABSOLUTE
    __ARM_exceptions_init                     - Undefined Weak Reference
    __alloca_initialize                       - Undefined Weak Reference
    __arm_preinit_                            - Undefined Weak Reference
    __cpp_initialize__aeabi_                  - Undefined Weak Reference
    __cxa_finalize                            - Undefined Weak Reference
    __rt_locale                               - Undefined Weak Reference
    __sigvec_lookup                           - Undefined Weak Reference
    _atexit_init                              - Undefined Weak Reference
    _call_atexit_fns                          - Undefined Weak Reference
    _clock_init                               - Undefined Weak Reference
    _fp_trap_init                             - Undefined Weak Reference
    _fp_trap_shutdown                         - Undefined Weak Reference
    _get_lc_collate                           - Undefined Weak Reference
    _get_lc_ctype                             - Undefined Weak Reference
    _get_lc_monetary                          - Undefined Weak Reference
    _get_lc_numeric                           - Undefined Weak Reference
    _get_lc_time                              - Undefined Weak Reference
    _getenv_init                              - Undefined Weak Reference
    _handle_redirection                       - Undefined Weak Reference
    _init_alloc                               - Undefined Weak Reference
    _init_user_alloc                          - Undefined Weak Reference
    _initio                                   - Undefined Weak Reference
    _rand_init                                - Undefined Weak Reference
    _signal_finish                            - Undefined Weak Reference
    _signal_init                              - Undefined Weak Reference
    _terminate_alloc                          - Undefined Weak Reference
    _terminate_user_alloc                     - Undefined Weak Reference
    _terminateio                              - Undefined Weak Reference
    __Vectors_Size                           0x00000130   Number         0  startup_stm32f10x_hd.o ABSOLUTE
    __Vectors                                0x08000000   Data           4  startup_stm32f10x_hd.o(RESET)
    __Vectors_End                            0x08000130   Data           0  startup_stm32f10x_hd.o(RESET)
    __main                                   0x08000131   Thumb Code     8  __main.o(!!!main)
    __scatterload                            0x08000139   Thumb Code     0  __scatter.o(!!!scatter)
    __scatterload_rt2                        0x08000139   Thumb Code    44  __scatter.o(!!!scatter)
    __scatterload_rt2_thumb_only             0x08000139   Thumb Code     0  __scatter.o(!!!scatter)
    __scatterload_null                       0x08000147   Thumb Code     0  __scatter.o(!!!scatter)
    __scatterload_copy                       0x0800016d   Thumb Code    26  __scatter_copy.o(!!handler_copy)
    __scatterload_zeroinit                   0x08000189   Thumb Code    28  __scatter_zi.o(!!handler_zi)
    __rt_lib_init                            0x080001a5   Thumb Code     0  libinit.o(.ARM.Collect$$libinit$$00000000)
    __rt_lib_init_alloca_1                   0x080001a7   Thumb Code     0  libinit2.o(.ARM.Collect$$libinit$$0000002E)
    __rt_lib_init_argv_1                     0x080001a7   Thumb Code     0  libinit2.o(.ARM.Collect$$libinit$$0000002C)
    __rt_lib_init_atexit_1                   0x080001a7   Thumb Code     0  libinit2.o(.ARM.Collect$$libinit$$0000001B)
    __rt_lib_init_clock_1                    0x080001a7   Thumb Code     0  libinit2.o(.ARM.Collect$$libinit$$00000021)
    __rt_lib_init_cpp_1                      0x080001a7   Thumb Code     0  libinit2.o(.ARM.Collect$$libinit$$00000032)
    __rt_lib_init_exceptions_1               0x080001a7   Thumb Code     0  libinit2.o(.ARM.Collect$$libinit$$00000030)
    __rt_lib_init_fp_1                       0x080001a7   Thumb Code     0  libinit2.o(.ARM.Collect$$libinit$$00000002)
    __rt_lib_init_fp_trap_1                  0x080001a7   Thumb Code     0  libinit2.o(.ARM.Collect$$libinit$$0000001F)
    __rt_lib_init_getenv_1                   0x080001a7   Thumb Code     0  libinit2.o(.ARM.Collect$$libinit$$00000023)
    __rt_lib_init_heap_1                     0x080001a7   Thumb Code     0  libinit2.o(.ARM.Collect$$libinit$$0000000A)
    __rt_lib_init_lc_collate_1               0x080001a7   Thumb Code     0  libinit2.o(.ARM.Collect$$libinit$$00000011)
    __rt_lib_init_lc_ctype_1                 0x080001a7   Thumb Code     0  libinit2.o(.ARM.Collect$$libinit$$00000013)
    __rt_lib_init_lc_monetary_1              0x080001a7   Thumb Code     0  libinit2.o(.ARM.Collect$$libinit$$00000015)
    __rt_lib_init_lc_numeric_1               0x080001a7   Thumb Code     0  libinit2.o(.ARM.Collect$$libinit$$00000017)
    __rt_lib_init_lc_time_1                  0x080001a7   Thumb Code     0  libinit2.o(.ARM.Collect$$libinit$$00000019)
    __rt_lib_init_preinit_1                  0x080001a7   Thumb Code     0  libinit2.o(.ARM.Collect$$libinit$$00000004)
    __rt_lib_init_rand_1                     0x080001a7   Thumb Code     0  libinit2.o(.ARM.Collect$$libinit$$0000000E)
    __rt_lib_init_return                     0x080001a7   Thumb Code     0  libinit2.o(.ARM.Collect$$libinit$$00000033)
    __rt_lib_init_signal_1                   0x080001a7   Thumb Code     0  libinit2.o(.ARM.Collect$$libinit$$0000001D)
    __rt_lib_init_stdio_1                    0x080001a7   Thumb Code     0  libinit2.o(.ARM.Collect$$libinit$$00000025)
    __rt_lib_init_user_alloc_1               0x080001a7   Thumb Code     0  libinit2.o(.ARM.Collect$$libinit$$0000000C)
    __rt_lib_shutdown                        0x080001a9   Thumb Code     0  libshutdown.o(.ARM.Collect$$libshutdown$$00000000)
    __rt_lib_shutdown_fp_trap_1              0x080001ab   Thumb Code     0  libshutdown2.o(.ARM.Collect$$libshutdown$$00000006)
    __rt_lib_shutdown_heap_1                 0x080001ab   Thumb Code     0  libshutdown2.o(.ARM.Collect$$libshutdown$$0000000E)
    __rt_lib_shutdown_return                 0x080001ab   Thumb Code     0  libshutdown2.o(.ARM.Collect$$libshutdown$$0000000F)
    __rt_lib_shutdown_signal_1               0x080001ab   Thumb Code     0  libshutdown2.o(.ARM.Collect$$libshutdown$$00000009)
    __rt_lib_shutdown_stdio_1                0x080001ab   Thumb Code     0  libshutdown2.o(.ARM.Collect$$libshutdown$$00000003)
    __rt_lib_shutdown_user_alloc_1           0x080001ab   Thumb Code     0  libshutdown2.o(.ARM.Collect$$libshutdown$$0000000B)
    __rt_entry                               0x080001ad   Thumb Code     0  __rtentry.o(.ARM.Collect$$rtentry$$00000000)
    __rt_entry_presh_1                       0x080001ad   Thumb Code     0  __rtentry2.o(.ARM.Collect$$rtentry$$00000002)
    __rt_entry_sh                            0x080001ad   Thumb Code     0  __rtentry4.o(.ARM.Collect$$rtentry$$00000004)
    __rt_entry_li                            0x080001b3   Thumb Code     0  __rtentry2.o(.ARM.Collect$$rtentry$$0000000A)
    __rt_entry_postsh_1                      0x080001b3   Thumb Code     0  __rtentry2.o(.ARM.Collect$$rtentry$$00000009)
    __rt_entry_main                          0x080001b7   Thumb Code     0  __rtentry2.o(.ARM.Collect$$rtentry$$0000000D)
    __rt_entry_postli_1                      0x080001b7   Thumb Code     0  __rtentry2.o(.ARM.Collect$$rtentry$$0000000C)
    __rt_exit                                0x080001bf   Thumb Code     0  rtexit.o(.ARM.Collect$$rtexit$$00000000)
    __rt_exit_ls                             0x080001c1   Thumb Code     0  rtexit2.o(.ARM.Collect$$rtexit$$00000003)
    __rt_exit_prels_1                        0x080001c1   Thumb Code     0  rtexit2.o(.ARM.Collect$$rtexit$$00000002)
    __rt_exit_exit                           0x080001c5   Thumb Code     0  rtexit2.o(.ARM.Collect$$rtexit$$00000004)
    Reset_Handler                            0x080001cd   Thumb Code     8  startup_stm32f10x_hd.o(.text)
    NMI_Handler                              0x080001d5   Thumb Code     2  startup_stm32f10x_hd.o(.text)
    HardFault_Handler                        0x080001d7   Thumb Code     2  startup_stm32f10x_hd.o(.text)
    MemManage_Handler                        0x080001d9   Thumb Code     2  startup_stm32f10x_hd.o(.text)
    BusFault_Handler                         0x080001db   Thumb Code     2  startup_stm32f10x_hd.o(.text)
    UsageFault_Handler                       0x080001dd   Thumb Code     2  startup_stm32f10x_hd.o(.text)
    SVC_Handler                              0x080001df   Thumb Code     2  startup_stm32f10x_hd.o(.text)
    DebugMon_Handler                         0x080001e1   Thumb Code     2  startup_stm32f10x_hd.o(.text)
    PendSV_Handler                           0x080001e3   Thumb Code     2  startup_stm32f10x_hd.o(.text)
    SysTick_Handler                          0x080001e5   Thumb Code     2  startup_stm32f10x_hd.o(.text)
    ADC1_2_IRQHandler                        0x080001e7   Thumb Code     0  startup_stm32f10x_hd.o(.text)
    ADC3_IRQHandler                          0x080001e7   Thumb Code     0  startup_stm32f10x_hd.o(.text)
    CAN1_RX1_IRQHandler                      0x080001e7   Thumb Code     0  startup_stm32f10x_hd.o(.text)
    CAN1_SCE_IRQHandler                      0x080001e7   Thumb Code     0  startup_stm32f10x_hd.o(.text)
    DMA1_Channel1_IRQHandler                 0x080001e7   Thumb Code     0  startup_stm32f10x_hd.o(.text)
    DMA1_Channel2_IRQHandler                 0x080001e7   Thumb Code     0  startup_stm32f10x_hd.o(.text)
    DMA1_Channel3_IRQHandler                 0x080001e7   Thumb Code     0  startup_stm32f10x_hd.o(.text)
    DMA1_Channel5_IRQHandler                 0x080001e7   Thumb Code     0  startup_stm32f10x_hd.o(.text)
    DMA1_Channel6_IRQHandler                 0x080001e7   Thumb Code     0  startup_stm32f10x_hd.o(.text)
    DMA1_Channel7_IRQHandler                 0x080001e7   Thumb Code     0  startup_stm32f10x_hd.o(.text)
    DMA2_Channel1_IRQHandler                 0x080001e7   Thumb Code     0  startup_stm32f10x_hd.o(.text)
    DMA2_Channel2_IRQHandler                 0x080001e7   Thumb Code     0  startup_stm32f10x_hd.o(.text)
    DMA2_Channel3_IRQHandler                 0x080001e7   Thumb Code     0  startup_stm32f10x_hd.o(.text)
    DMA2_Channel4_5_IRQHandler               0x080001e7   Thumb Code     0  startup_stm32f10x_hd.o(.text)
    EXTI0_IRQHandler                         0x080001e7   Thumb Code     0  startup_stm32f10x_hd.o(.text)
    EXTI1_IRQHandler                         0x080001e7   Thumb Code     0  startup_stm32f10x_hd.o(.text)
    EXTI2_IRQHandler                         0x080001e7   Thumb Code     0  startup_stm32f10x_hd.o(.text)
    EXTI3_IRQHandler                         0x080001e7   Thumb Code     0  startup_stm32f10x_hd.o(.text)
    EXTI4_IRQHandler                         0x080001e7   Thumb Code     0  startup_stm32f10x_hd.o(.text)
    FLASH_IRQHandler                         0x080001e7   Thumb Code     0  startup_stm32f10x_hd.o(.text)
    FSMC_IRQHandler                          0x080001e7   Thumb Code     0  startup_stm32f10x_hd.o(.text)
    I2C1_ER_IRQHandler                       0x080001e7   Thumb Code     0  startup_stm32f10x_hd.o(.text)
    I2C1_EV_IRQHandler                       0x080001e7   Thumb Code     0  startup_stm32f10x_hd.o(.text)
    I2C2_ER_IRQHandler                       0x080001e7   Thumb Code     0  startup_stm32f10x_hd.o(.text)
    I2C2_EV_IRQHandler                       0x080001e7   Thumb Code     0  startup_stm32f10x_hd.o(.text)
    PVD_IRQHandler                           0x080001e7   Thumb Code     0  startup_stm32f10x_hd.o(.text)
    RCC_IRQHandler                           0x080001e7   Thumb Code     0  startup_stm32f10x_hd.o(.text)
    RTCAlarm_IRQHandler                      0x080001e7   Thumb Code     0  startup_stm32f10x_hd.o(.text)
    RTC_IRQHandler                           0x080001e7   Thumb Code     0  startup_stm32f10x_hd.o(.text)
    SDIO_IRQHandler                          0x080001e7   Thumb Code     0  startup_stm32f10x_hd.o(.text)
    SPI1_IRQHandler                          0x080001e7   Thumb Code     0  startup_stm32f10x_hd.o(.text)
    SPI2_IRQHandler                          0x080001e7   Thumb Code     0  startup_stm32f10x_hd.o(.text)
    SPI3_IRQHandler                          0x080001e7   Thumb Code     0  startup_stm32f10x_hd.o(.text)
    TAMPER_IRQHandler                        0x080001e7   Thumb Code     0  startup_stm32f10x_hd.o(.text)
    TIM1_BRK_IRQHandler                      0x080001e7   Thumb Code     0  startup_stm32f10x_hd.o(.text)
    TIM1_CC_IRQHandler                       0x080001e7   Thumb Code     0  startup_stm32f10x_hd.o(.text)
    TIM1_TRG_COM_IRQHandler                  0x080001e7   Thumb Code     0  startup_stm32f10x_hd.o(.text)
    TIM1_UP_IRQHandler                       0x080001e7   Thumb Code     0  startup_stm32f10x_hd.o(.text)
    TIM4_IRQHandler                          0x080001e7   Thumb Code     0  startup_stm32f10x_hd.o(.text)
    TIM5_IRQHandler                          0x080001e7   Thumb Code     0  startup_stm32f10x_hd.o(.text)
    TIM6_IRQHandler                          0x080001e7   Thumb Code     0  startup_stm32f10x_hd.o(.text)
    TIM7_IRQHandler                          0x080001e7   Thumb Code     0  startup_stm32f10x_hd.o(.text)
    TIM8_BRK_IRQHandler                      0x080001e7   Thumb Code     0  startup_stm32f10x_hd.o(.text)
    TIM8_CC_IRQHandler                       0x080001e7   Thumb Code     0  startup_stm32f10x_hd.o(.text)
    TIM8_TRG_COM_IRQHandler                  0x080001e7   Thumb Code     0  startup_stm32f10x_hd.o(.text)
    TIM8_UP_IRQHandler                       0x080001e7   Thumb Code     0  startup_stm32f10x_hd.o(.text)
    UART4_IRQHandler                         0x080001e7   Thumb Code     0  startup_stm32f10x_hd.o(.text)
    UART5_IRQHandler                         0x080001e7   Thumb Code     0  startup_stm32f10x_hd.o(.text)
    USART2_IRQHandler                        0x080001e7   Thumb Code     0  startup_stm32f10x_hd.o(.text)
    USART3_IRQHandler                        0x080001e7   Thumb Code     0  startup_stm32f10x_hd.o(.text)
    USBWakeUp_IRQHandler                     0x080001e7   Thumb Code     0  startup_stm32f10x_hd.o(.text)
    USB_HP_CAN1_TX_IRQHandler                0x080001e7   Thumb Code     0  startup_stm32f10x_hd.o(.text)
    USB_LP_CAN1_RX0_IRQHandler               0x080001e7   Thumb Code     0  startup_stm32f10x_hd.o(.text)
    WWDG_IRQHandler                          0x080001e7   Thumb Code     0  startup_stm32f10x_hd.o(.text)
    __user_initial_stackheap                 0x080001e9   Thumb Code     0  startup_stm32f10x_hd.o(.text)
    __aeabi_uldivmod                         0x0800020d   Thumb Code     0  lludivv7m.o(.text)
    _ll_udiv                                 0x0800020d   Thumb Code   238  lludivv7m.o(.text)
    __aeabi_llsl                             0x080002fb   Thumb Code     0  llshl.o(.text)
    _ll_shift_l                              0x080002fb   Thumb Code    38  llshl.o(.text)
    __aeabi_llsr                             0x08000321   Thumb Code     0  llushr.o(.text)
    _ll_ushift_r                             0x08000321   Thumb Code    38  llushr.o(.text)
    __use_two_region_memory                  0x08000347   Thumb Code     2  heapauxi.o(.text)
    __rt_heap_escrow$2region                 0x08000349   Thumb Code     2  heapauxi.o(.text)
    __rt_heap_expand$2region                 0x0800034b   Thumb Code     2  heapauxi.o(.text)
    __read_errno                             0x0800034d   Thumb Code    10  _rserrno.o(.text)
    __set_errno                              0x08000357   Thumb Code    12  _rserrno.o(.text)
    __aeabi_errno_addr                       0x08000365   Thumb Code     8  rt_errno_addr_intlibspace.o(.text)
    __errno$intlibspace                      0x08000365   Thumb Code     0  rt_errno_addr_intlibspace.o(.text)
    __rt_errno_addr$intlibspace              0x08000365   Thumb Code     0  rt_errno_addr_intlibspace.o(.text)
    __user_libspace                          0x0800036d   Thumb Code     8  libspace.o(.text)
    __user_perproc_libspace                  0x0800036d   Thumb Code     0  libspace.o(.text)
    __user_perthread_libspace                0x0800036d   Thumb Code     0  libspace.o(.text)
    __user_setup_stackheap                   0x08000375   Thumb Code    74  sys_stackheap_outer.o(.text)
    exit                                     0x080003bf   Thumb Code    12  exit.o(.text)
    _sys_exit                                0x080003cd   Thumb Code     8  sys_exit.o(.text)
    __I$use$semihosting                      0x080003d9   Thumb Code     0  use_no_semi.o(.text)
    __use_no_semihosting_swi                 0x080003d9   Thumb Code     2  use_no_semi.o(.text)
    __semihosting_library_function           0x080003db   Thumb Code     0  indicate_semi.o(.text)
    AND                                      0x0800042d   Thumb Code    42  plc_process.o(i.AND)
    BKP_DeInit                               0x08000759   Thumb Code    18  stm32f10x_bkp.o(i.BKP_DeInit)
    BKP_ReadBackupRegister                   0x0800076d   Thumb Code    12  stm32f10x_bkp.o(i.BKP_ReadBackupRegister)
    BKP_WriteBackupRegister                  0x0800077d   Thumb Code    12  stm32f10x_bkp.o(i.BKP_WriteBackupRegister)
    BtoG                                     0x0800080d   Thumb Code    32  plc_process.o(i.BtoG)
    DAC_SetChannel1Data                      0x08000c39   Thumb Code    14  stm32f10x_dac.o(i.DAC_SetChannel1Data)
    DAC_SetChannel2Data                      0x08000c4d   Thumb Code    14  stm32f10x_dac.o(i.DAC_SetChannel2Data)
    DAC_SoftwareTriggerCmd                   0x08000c61   Thumb Code    24  stm32f10x_dac.o(i.DAC_SoftwareTriggerCmd)
    DAC_data                                 0x08000c7d   Thumb Code    44  dac.o(i.DAC_data)
    DMA1_Channel4_IRQHandler                 0x080012a9   Thumb Code    28  plc_com.o(i.DMA1_Channel4_IRQHandler)
    DMA_DeInit                               0x080012cd   Thumb Code   218  stm32f10x_dma.o(i.DMA_DeInit)
    DMA_ITConfig                             0x080013b1   Thumb Code    16  stm32f10x_dma.o(i.DMA_ITConfig)
    DMA_Init                                 0x080013c1   Thumb Code    58  stm32f10x_dma.o(i.DMA_Init)
    DZ0_Z3                                   0x08001455   Thumb Code    66  plc_process.o(i.DZ0_Z3)
    DZ4_Z7                                   0x0800149d   Thumb Code    70  plc_process.o(i.DZ4_Z7)
    D_C_T_addr                               0x080015c5   Thumb Code   102  plc_process.o(i.D_C_T_addr)
    EPC_FORCE_OFF                            0x08001b35   Thumb Code    48  plc_com.o(i.EPC_FORCE_OFF)
    EPC_FORCE_ON                             0x08001b75   Thumb Code    82  plc_com.o(i.EPC_FORCE_ON)
    EXTI15_10_IRQHandler                     0x08001bd9   Thumb Code   188  exti.o(i.EXTI15_10_IRQHandler)
    EXTI9_5_IRQHandler                       0x08001cad   Thumb Code   276  exti.o(i.EXTI9_5_IRQHandler)
    EXTI_ClearITPendingBit                   0x08001de1   Thumb Code     6  stm32f10x_exti.o(i.EXTI_ClearITPendingBit)
    EXTI_GetITStatus                         0x08001ded   Thumb Code    28  stm32f10x_exti.o(i.EXTI_GetITStatus)
    Encoder_A                                0x08001ed9   Thumb Code    52  encoder.o(i.Encoder_A)
    Encoder_B                                0x08001f15   Thumb Code    52  encoder.o(i.Encoder_B)
    ErasurePLC                               0x08001f51   Thumb Code   154  plc_com.o(i.ErasurePLC)
    FLASH_ErasePage                          0x08002005   Thumb Code    56  stm32f10x_flash.o(i.FLASH_ErasePage)
    FLASH_GetBank1Status                     0x08002041   Thumb Code    34  stm32f10x_flash.o(i.FLASH_GetBank1Status)
    FLASH_Lock                               0x08002069   Thumb Code    12  stm32f10x_flash.o(i.FLASH_Lock)
    FLASH_ProgramHalfWord                    0x08002079   Thumb Code    48  stm32f10x_flash.o(i.FLASH_ProgramHalfWord)
    FLASH_Unlock                             0x080020ad   Thumb Code    12  stm32f10x_flash.o(i.FLASH_Unlock)
    FLASH_WaitForLastOperation               0x080020c5   Thumb Code    34  stm32f10x_flash.o(i.FLASH_WaitForLastOperation)
    GPIO_Init                                0x080021a1   Thumb Code   156  stm32f10x_gpio.o(i.GPIO_Init)
    GPIO_PinRemapConfig                      0x0800223d   Thumb Code    82  stm32f10x_gpio.o(i.GPIO_PinRemapConfig)
    GPIO_ReadInputDataBit                    0x08002295   Thumb Code    14  stm32f10x_gpio.o(i.GPIO_ReadInputDataBit)
    GtoB                                     0x080022a3   Thumb Code    32  plc_process.o(i.GtoB)
    Is_Leap_Year                             0x0800235d   Thumb Code    38  rtc.o(i.Is_Leap_Year)
    MEAN                                     0x08002769   Thumb Code   184  plc_process.o(i.MEAN)
    NCIC_Confinguration                      0x08002a31   Thumb Code   260  nvic_interrupt.o(i.NCIC_Confinguration)
    NVIC_Init                                0x08002b35   Thumb Code    94  misc.o(i.NVIC_Init)
    NVIC_PriorityGroupConfig                 0x08002b99   Thumb Code    10  misc.o(i.NVIC_PriorityGroupConfig)
    NVIC_SetVectorTable                      0x08002bad   Thumb Code    12  misc.o(i.NVIC_SetVectorTable)
    OUT                                      0x08002d95   Thumb Code   148  plc_process.o(i.OUT)
    PC_FORCE_OFF                             0x08002e39   Thumb Code    56  plc_com.o(i.PC_FORCE_OFF)
    PC_FORCE_ON                              0x08002e7d   Thumb Code    48  plc_com.o(i.PC_FORCE_ON)
    PC_OPTION_PROG                           0x08002eb9   Thumb Code   222  plc_com.o(i.PC_OPTION_PROG)
    PC_READ_PORG                             0x08002fa9   Thumb Code   130  plc_com.o(i.PC_READ_PORG)
    PC_READ_Parameter                        0x0800303d   Thumb Code   398  plc_com.o(i.PC_READ_Parameter)
    PC_READ_byte                             0x080031e5   Thumb Code    42  plc_com.o(i.PC_READ_byte)
    PC_WRITE_PORG                            0x08003219   Thumb Code   124  plc_com.o(i.PC_WRITE_PORG)
    PC_WRITE_Parameter                       0x080032a5   Thumb Code    58  plc_com.o(i.PC_WRITE_Parameter)
    PC_WRITE_byte                            0x080032ed   Thumb Code    56  plc_com.o(i.PC_WRITE_byte)
    PLC_1BIT_State                           0x08003411   Thumb Code   100  plc_com.o(i.PLC_1BIT_State)
    PLC_Comm_Byte                            0x0800352d   Thumb Code   168  plc_com.o(i.PLC_Comm_Byte)
    PLC_Download                             0x080035d5   Thumb Code    32  plc_com.o(i.PLC_Download)
    PLC_E_Expand                             0x080035fd   Thumb Code    60  plc_com.o(i.PLC_E_Expand)
    PLC_IO_Refresh                           0x08003645   Thumb Code   174  plc_io.o(i.PLC_IO_Refresh)
    PLC_IO_config                            0x08003705   Thumb Code    54  plc_io.o(i.PLC_IO_config)
    PLC_Mode_config                          0x08003769   Thumb Code    78  plc_io.o(i.PLC_Mode_config)
    PLC_PROG_ERROR                           0x080037e9   Thumb Code    64  plc_process.o(i.PLC_PROG_ERROR)
    PLC_ProInstructParse                     0x0800383d   Thumb Code   746  plc_process.o(i.PLC_ProInstructParse)
    PLC_Timer                                0x08003b45   Thumb Code    74  plc_timer.o(i.PLC_Timer)
    PLC_Upload                               0x08003b91   Thumb Code   108  plc_com.o(i.PLC_Upload)
    PLC_X_config                             0x08003c0d   Thumb Code    98  plc_io.o(i.PLC_X_config)
    PLC_Y_config                             0x08003c81   Thumb Code    76  plc_io.o(i.PLC_Y_config)
    PLSY                                     0x08003cd9   Thumb Code   340  plc_process.o(i.PLSY)
    PWR_BackupAccessCmd                      0x08003e51   Thumb Code     6  stm32f10x_pwr.o(i.PWR_BackupAccessCmd)
    Process_switch                           0x08003e5d   Thumb Code   144  plc_com.o(i.Process_switch)
    RCC_AHBPeriphClockCmd                    0x08003ef9   Thumb Code    18  stm32f10x_rcc.o(i.RCC_AHBPeriphClockCmd)
    RCC_APB1PeriphClockCmd                   0x08003f11   Thumb Code    18  stm32f10x_rcc.o(i.RCC_APB1PeriphClockCmd)
    RCC_APB1PeriphResetCmd                   0x08003f29   Thumb Code    18  stm32f10x_rcc.o(i.RCC_APB1PeriphResetCmd)
    RCC_APB2PeriphClockCmd                   0x08003f41   Thumb Code    18  stm32f10x_rcc.o(i.RCC_APB2PeriphClockCmd)
    RCC_APB2PeriphResetCmd                   0x08003f59   Thumb Code    18  stm32f10x_rcc.o(i.RCC_APB2PeriphResetCmd)
    RCC_BackupResetCmd                       0x08003f71   Thumb Code     6  stm32f10x_rcc.o(i.RCC_BackupResetCmd)
    RCC_ClearFlag                            0x08003f7d   Thumb Code    12  stm32f10x_rcc.o(i.RCC_ClearFlag)
    RCC_GetClocksFreq                        0x08003f8d   Thumb Code   132  stm32f10x_rcc.o(i.RCC_GetClocksFreq)
    RCC_GetFlagStatus                        0x08004021   Thumb Code    42  stm32f10x_rcc.o(i.RCC_GetFlagStatus)
    RCC_LSEConfig                            0x08004051   Thumb Code    28  stm32f10x_rcc.o(i.RCC_LSEConfig)
    RCC_RTCCLKCmd                            0x08004071   Thumb Code     6  stm32f10x_rcc.o(i.RCC_RTCCLKCmd)
    RCC_RTCCLKConfig                         0x0800407d   Thumb Code    10  stm32f10x_rcc.o(i.RCC_RTCCLKConfig)
    READ_PLC_ROM                             0x0800408d   Thumb Code    42  plc_com.o(i.READ_PLC_ROM)
    RST_Y                                    0x080041ed   Thumb Code    14  plc_process.o(i.RST_Y)
    RTC_Config                               0x08004201   Thumb Code    88  rtc.o(i.RTC_Config)
    RTC_EnterConfigMode                      0x08004259   Thumb Code    12  stm32f10x_rtc.o(i.RTC_EnterConfigMode)
    RTC_ExitConfigMode                       0x08004269   Thumb Code    12  stm32f10x_rtc.o(i.RTC_ExitConfigMode)
    RTC_Get                                  0x08004279   Thumb Code   282  rtc.o(i.RTC_Get)
    RTC_GetCounter                           0x080043ad   Thumb Code    16  stm32f10x_rtc.o(i.RTC_GetCounter)
    RTC_Get_Week                             0x080043c1   Thumb Code    84  rtc.o(i.RTC_Get_Week)
    RTC_ITConfig                             0x08004419   Thumb Code    18  stm32f10x_rtc.o(i.RTC_ITConfig)
    RTC_Init                                 0x08004431   Thumb Code   116  rtc.o(i.RTC_Init)
    RTC_Set                                  0x080044b1   Thumb Code   180  rtc.o(i.RTC_Set)
    RTC_SetCounter                           0x08004575   Thumb Code    26  stm32f10x_rtc.o(i.RTC_SetCounter)
    RTC_SetPrescaler                         0x08004595   Thumb Code    28  stm32f10x_rtc.o(i.RTC_SetPrescaler)
    RTC_WaitForLastTask                      0x080045b5   Thumb Code    10  stm32f10x_rtc.o(i.RTC_WaitForLastTask)
    RTC_WaitForSynchro                       0x080045c5   Thumb Code    18  stm32f10x_rtc.o(i.RTC_WaitForSynchro)
    STL                                      0x0800468d   Thumb Code    48  plc_process.o(i.STL)
    SystemInit                               0x08004771   Thumb Code    64  system_stm32f10x.o(i.SystemInit)
    TIM2_IRQHandler                          0x08004931   Thumb Code   272  plc_timer.o(i.TIM2_IRQHandler)
    TIM3_IRQHandler                          0x08004a51   Thumb Code    66  pulse.o(i.TIM3_IRQHandler)
    TIM_ClearFlag                            0x08004aa9   Thumb Code     6  stm32f10x_tim.o(i.TIM_ClearFlag)
    TIM_ClearITPendingBit                    0x08004aaf   Thumb Code     6  stm32f10x_tim.o(i.TIM_ClearITPendingBit)
    TIM_Cmd                                  0x08004ab5   Thumb Code    20  stm32f10x_tim.o(i.TIM_Cmd)
    TIM_DeInit                               0x08004ac9   Thumb Code   304  stm32f10x_tim.o(i.TIM_DeInit)
    TIM_ITConfig                             0x08004c39   Thumb Code    16  stm32f10x_tim.o(i.TIM_ITConfig)
    TIM_TimeBaseInit                         0x08004c49   Thumb Code   114  stm32f10x_tim.o(i.TIM_TimeBaseInit)
    TX_Process                               0x08004dc5   Thumb Code    30  plc_com.o(i.TX_Process)
    T_100MS                                  0x08004f29   Thumb Code    94  plc_timer.o(i.T_100MS)
    T_10MS                                   0x08004f99   Thumb Code   102  plc_timer.o(i.T_10MS)
    T_1MS                                    0x08005011   Thumb Code    94  plc_timer.o(i.T_1MS)
    T_H100MS                                 0x08005081   Thumb Code    94  plc_timer.o(i.T_H100MS)
    USART1_Configuration                     0x08005169   Thumb Code   176  plc_com.o(i.USART1_Configuration)
    USART1_IRQHandler                        0x08005229   Thumb Code   218  plc_com.o(i.USART1_IRQHandler)
    USART_ClearITPendingBit                  0x08005315   Thumb Code    12  stm32f10x_usart.o(i.USART_ClearITPendingBit)
    USART_Cmd                                0x08005321   Thumb Code    20  stm32f10x_usart.o(i.USART_Cmd)
    USART_DMACmd                             0x08005335   Thumb Code    16  stm32f10x_usart.o(i.USART_DMACmd)
    USART_GetFlagStatus                      0x08005345   Thumb Code    14  stm32f10x_usart.o(i.USART_GetFlagStatus)
    USART_GetITStatus                        0x08005353   Thumb Code    62  stm32f10x_usart.o(i.USART_GetITStatus)
    USART_ITConfig                           0x08005391   Thumb Code    48  stm32f10x_usart.o(i.USART_ITConfig)
    USART_Init                               0x080053c1   Thumb Code   166  stm32f10x_usart.o(i.USART_Init)
    USART_ReceiveData                        0x0800546d   Thumb Code     8  stm32f10x_usart.o(i.USART_ReceiveData)
    V0_V3                                    0x08005475   Thumb Code    46  plc_process.o(i.V0_V3)
    V4_V7                                    0x080054a9   Thumb Code    46  plc_process.o(i.V4_V7)
    X_filter                                 0x080054dd   Thumb Code   868  plc_io.o(i.X_filter)
    Z0_Z3                                    0x08005865   Thumb Code    46  plc_process.o(i.Z0_Z3)
    Z4_Z7                                    0x08005899   Thumb Code    46  plc_process.o(i.Z4_Z7)
    __ARM_fpclassify                         0x080059a9   Thumb Code    40  fpclassify.o(i.__ARM_fpclassify)
    __ieee754_rem_pio2                       0x080059d1   Thumb Code   828  rred.o(i.__ieee754_rem_pio2)
    __kernel_cos                             0x08005d59   Thumb Code   230  cos_i.o(i.__kernel_cos)
    __kernel_poly                            0x08005e55   Thumb Code   170  poly.o(i.__kernel_poly)
    __kernel_sin                             0x08005f01   Thumb Code   224  sin_i.o(i.__kernel_sin)
    __mathlib_dbl_infnan                     0x08005fed   Thumb Code     6  dunder.o(i.__mathlib_dbl_infnan)
    __mathlib_dbl_invalid                    0x08005ff3   Thumb Code    12  dunder.o(i.__mathlib_dbl_invalid)
    __I$use$fp                               0x08005ffe   Number         0  usenofp.o(x$fpl$usenofp)
    PLC_ROM                                  0x08006000   Data       34000  plc_com.o(.ARM.__AT_0x08006000)
    __kernel_tan                             0x0800e4d1   Thumb Code   586  tan_i.o(i.__kernel_tan)
    __mathlib_dbl_underflow                  0x0800e74d   Thumb Code    10  dunder.o(i.__mathlib_dbl_underflow)
    all_flash_lock                           0x0800e899   Thumb Code    36  plc_com.o(i.all_flash_lock)
    all_flash_unlock                         0x0800e8c5   Thumb Code    24  plc_com.o(i.all_flash_unlock)
    b2g                                      0x0800e939   Thumb Code    54  plc_process.o(i.b2g)
    backup_block                             0x0800e971   Thumb Code    38  plc_com.o(i.backup_block)
    check                                    0x0800ea49   Thumb Code    36  plc_com.o(i.check)
    cos                                      0x0800ea71   Thumb Code   148  cos.o(i.cos)
    data_init                                0x0800f54d   Thumb Code    72  plc_com.o(i.data_init)
    expand_AND                               0x0800f921   Thumb Code    24  plc_process.o(i.expand_AND)
    expand_ANI                               0x0800f93d   Thumb Code    24  plc_process.o(i.expand_ANI)
    expand_LD                                0x0800f959   Thumb Code    24  plc_process.o(i.expand_LD)
    expand_LDI                               0x0800f975   Thumb Code    24  plc_process.o(i.expand_LDI)
    expand_OR                                0x0800f991   Thumb Code    24  plc_process.o(i.expand_OR)
    expand_ORI                               0x0800f9ad   Thumb Code    24  plc_process.o(i.expand_ORI)
    expand_OUT                               0x0800f9c9   Thumb Code    24  plc_process.o(i.expand_OUT)
    expand_RST                               0x0800f9e5   Thumb Code    24  plc_process.o(i.expand_RST)
    expand_SET                               0x0800fa01   Thumb Code    24  plc_process.o(i.expand_SET)
    filter                                   0x0801076d   Thumb Code    60  adc.o(i.filter)
    find_end                                 0x0801086d   Thumb Code    22  plc_com.o(i.find_end)
    find_p                                   0x0801088d   Thumb Code    48  plc_process.o(i.find_p)
    find_toend                               0x080108c9   Thumb Code    34  plc_process.o(i.find_toend)
    g2b                                      0x080108f5   Thumb Code    60  plc_process.o(i.g2b)
    main                                     0x08010985   Thumb Code    62  main.o(i.main)
    online_write_data                        0x08010b15   Thumb Code   298  plc_com.o(i.online_write_data)
    read_other_data                          0x08010cb9   Thumb Code   124  plc_com.o(i.read_other_data)
    read_plc_tyte                            0x08010d45   Thumb Code   112  plc_com.o(i.read_plc_tyte)
    setup_HL                                 0x08010dc5   Thumb Code    16  plc_com.o(i.setup_HL)
    setup_LH                                 0x08010ddd   Thumb Code    16  plc_com.o(i.setup_LH)
    sin                                      0x08010df5   Thumb Code   150  sin.o(i.sin)
    sqrt                                     0x08010e95   Thumb Code    76  sqrt.o(i.sqrt)
    switch_read_data                         0x08010ee1   Thumb Code    50  plc_com.o(i.switch_read_data)
    tan                                      0x08010f21   Thumb Code    90  tan.o(i.tan)
    timer_disble                             0x08011209   Thumb Code   102  plc_timer.o(i.timer_disble)
    timer_enable                             0x08011281   Thumb Code   116  plc_timer.o(i.timer_enable)
    usart                                    0x08011309   Thumb Code    42  plc_com.o(i.usart)
    write_block                              0x08011339   Thumb Code    82  plc_com.o(i.write_block)
    __aeabi_d2f                              0x08011395   Thumb Code     0  d2f.o(x$fpl$d2f)
    _d2f                                     0x08011395   Thumb Code    98  d2f.o(x$fpl$d2f)
    __aeabi_dadd                             0x080113f9   Thumb Code     0  daddsub_clz.o(x$fpl$dadd)
    _dadd                                    0x080113f9   Thumb Code   332  daddsub_clz.o(x$fpl$dadd)
    __fpl_dcheck_NaN1                        0x08011549   Thumb Code    10  dcheck1.o(x$fpl$dcheck1)
    __aeabi_ddiv                             0x08011559   Thumb Code     0  ddiv.o(x$fpl$ddiv)
    _ddiv                                    0x08011559   Thumb Code   552  ddiv.o(x$fpl$ddiv)
    __aeabi_d2iz                             0x08011809   Thumb Code     0  dfix.o(x$fpl$dfix)
    _dfix                                    0x08011809   Thumb Code    94  dfix.o(x$fpl$dfix)
    __aeabi_d2uiz                            0x08011869   Thumb Code     0  dfixu.o(x$fpl$dfixu)
    _dfixu                                   0x08011869   Thumb Code    90  dfixu.o(x$fpl$dfixu)
    __aeabi_i2d                              0x080118c3   Thumb Code     0  dflt_clz.o(x$fpl$dflt)
    _dflt                                    0x080118c3   Thumb Code    46  dflt_clz.o(x$fpl$dflt)
    __aeabi_ui2d                             0x080118f1   Thumb Code     0  dflt_clz.o(x$fpl$dfltu)
    _dfltu                                   0x080118f1   Thumb Code    38  dflt_clz.o(x$fpl$dfltu)
    __aeabi_dmul                             0x08011919   Thumb Code     0  dmul.o(x$fpl$dmul)
    _dmul                                    0x08011919   Thumb Code   332  dmul.o(x$fpl$dmul)
    __fpl_dnaninf                            0x08011a6d   Thumb Code   156  dnaninf.o(x$fpl$dnaninf)
    __fpl_dretinf                            0x08011b09   Thumb Code    12  dretinf.o(x$fpl$dretinf)
    __aeabi_drsub                            0x08011b15   Thumb Code     0  daddsub_clz.o(x$fpl$drsb)
    _drsb                                    0x08011b15   Thumb Code    22  daddsub_clz.o(x$fpl$drsb)
    _dsqrt                                   0x08011b2d   Thumb Code   456  dsqrt_noumaal.o(x$fpl$dsqrt)
    __aeabi_dsub                             0x08011cf9   Thumb Code     0  daddsub_clz.o(x$fpl$dsub)
    _dsub                                    0x08011cf9   Thumb Code   464  daddsub_clz.o(x$fpl$dsub)
    __aeabi_f2d                              0x08011ecd   Thumb Code     0  f2d.o(x$fpl$f2d)
    _f2d                                     0x08011ecd   Thumb Code    86  f2d.o(x$fpl$f2d)
    __aeabi_fadd                             0x08011f25   Thumb Code     0  faddsub_clz.o(x$fpl$fadd)
    _fadd                                    0x08011f25   Thumb Code   196  faddsub_clz.o(x$fpl$fadd)
    __fpl_fcmp_Inf                           0x08011fe9   Thumb Code    24  fcmpi.o(x$fpl$fcmpinf)
    __aeabi_fdiv                             0x08012001   Thumb Code     0  fdiv.o(x$fpl$fdiv)
    _fdiv                                    0x08012001   Thumb Code   384  fdiv.o(x$fpl$fdiv)
    __aeabi_cfcmpeq                          0x08012185   Thumb Code     0  feqf.o(x$fpl$feqf)
    _fcmpeq                                  0x08012185   Thumb Code   104  feqf.o(x$fpl$feqf)
    __aeabi_f2uiz                            0x080121ed   Thumb Code     0  ffixu.o(x$fpl$ffixu)
    _ffixu                                   0x080121ed   Thumb Code    62  ffixu.o(x$fpl$ffixu)
    __aeabi_i2f                              0x0801222d   Thumb Code     0  fflt_clz.o(x$fpl$fflt)
    _fflt                                    0x0801222d   Thumb Code    48  fflt_clz.o(x$fpl$fflt)
    __aeabi_cfcmple                          0x0801225d   Thumb Code     0  fleqf.o(x$fpl$fleqf)
    _fcmple                                  0x0801225d   Thumb Code   104  fleqf.o(x$fpl$fleqf)
    __fpl_fcmple_InfNaN                      0x080122af   Thumb Code     0  fleqf.o(x$fpl$fleqf)
    __aeabi_fmul                             0x080122c5   Thumb Code     0  fmul.o(x$fpl$fmul)
    _fmul                                    0x080122c5   Thumb Code   258  fmul.o(x$fpl$fmul)
    __fpl_fnaninf                            0x080123c7   Thumb Code   140  fnaninf.o(x$fpl$fnaninf)
    __fpl_fretinf                            0x08012453   Thumb Code    10  fretinf.o(x$fpl$fretinf)
    __aeabi_cfrcmple                         0x0801245d   Thumb Code     0  frleqf.o(x$fpl$frleqf)
    _frcmple                                 0x0801245d   Thumb Code    98  frleqf.o(x$fpl$frleqf)
    __aeabi_fsub                             0x080124c1   Thumb Code     0  faddsub_clz.o(x$fpl$fsub)
    _fsub                                    0x080124c1   Thumb Code   234  faddsub_clz.o(x$fpl$fsub)
    __fpl_return_NaN                         0x080125ab   Thumb Code   100  retnan.o(x$fpl$retnan)
    __ARM_scalbn                             0x0801260f   Thumb Code    92  scalbn.o(x$fpl$scalbn)
    __fpl_cmpreturn                          0x0801266b   Thumb Code    48  trapv.o(x$fpl$trapveneer)
    special_d                                0x0801269a   Data         512  plc_com.o(.constdata)
    Ascll                                    0x0801289a   Data          20  plc_com.o(.constdata)
    hex                                      0x080128ae   Data          77  plc_com.o(.constdata)
    mon_table                                0x080128fb   Data          12  rtc.o(.constdata)
    PLC_BIT_OR                               0x08012907   Data           8  plc_process.o(.constdata)
    PLC_BIT_AND                              0x0801290f   Data           8  plc_process.o(.constdata)
    Region$$Table$$Base                      0x08012a98   Number         0  anon$$obj.o(Region$$Table)
    Region$$Table$$Limit                     0x08012ab8   Number         0  anon$$obj.o(Region$$Table)
    power_down                               0x20000014   Data           1  main.o(.data)
    data_size                                0x20000019   Data           1  plc_com.o(.data)
    rx_end                                   0x2000001a   Data           1  plc_com.o(.data)
    rx_count                                 0x20000020   Data           2  plc_com.o(.data)
    tx_count                                 0x20000022   Data           2  plc_com.o(.data)
    prog_address                             0x20000024   Data           2  plc_com.o(.data)
    data_address                             0x20000026   Data           2  plc_com.o(.data)
    block_contol                             0x20000028   Data           2  plc_com.o(.data)
    Y0P                                      0x2000002a   Data           1  pulse.o(.data)
    Plus_CMP0                                0x2000002c   Data           2  pulse.o(.data)
    week_tab                                 0x20000030   Data          13  rtc.o(.data)
    Flag_bit                                 0x20000040   Data           1  plc_process.o(.data)
    Transfer_bit                             0x20000048   Data           1  plc_process.o(.data)
    Transfer_bit1                            0x20000049   Data           1  plc_process.o(.data)
    edit_prog                                0x2000004a   Data           1  plc_process.o(.data)
    Transfer                                 0x2000004e   Data           2  plc_process.o(.data)
    trade                                    0x200000a0   Data           4  plc_process.o(.data)
    FLOAT                                    0x200000a4   Data           4  plc_process.o(.data)
    u32data                                  0x200000a8   Data           4  plc_process.o(.data)
    u32data1                                 0x200000ac   Data           4  plc_process.o(.data)
    bcd                                      0x200000b0   Data           8  plc_process.o(.data)
    u64data                                  0x200000c0   Data           8  plc_process.o(.data)
    PLC_RUN_TIME                             0x200000cc   Data           2  plc_timer.o(.data)
    p_data_given                             0x200000d0   Data           4  plc_timer.o(.data)
    p_value                                  0x200000d4   Data           4  plc_timer.o(.data)
    X_DIY                                    0x200000d8   Data           1  plc_io.o(.data)
    process                                  0x200004e4   Data         128  plc_process.o(.bss)
    FOR_CMD                                  0x20000564   Data          60  plc_process.o(.bss)
    ADCConvertedValue                        0x200007a0   Data        1200  adc.o(.bss)
    __libspace_start                         0x20000c74   Data          96  libspace.o(.bss)
    __temporary_stack_top$libspace           0x20000cd4   Data           0  libspace.o(.bss)
    PLC_16BIT                                0x20001000   Data       24200  plc_com.o(.ARM.__AT_0x20001000)
    prog_write_buffer                        0x20006e88   Data        4100  plc_com.o(.bss)
    tx_data                                  0x20007e8c   Data         610  plc_com.o(.bss)
    rx_data                                  0x200080ee   Data         610  plc_com.o(.bss)
    Step_Address                             0x20008350   Data        2000  plc_com.o(.bss)



==============================================================================

Memory Map of the image

  Image Entry point : 0x08000131

  Load Region LR_IROM1 (Base: 0x08000000, Size: 0x00012b94, Max: 0x00080000, ABSOLUTE)

    Execution Region ER_IROM1 (Base: 0x08000000, Size: 0x00012ab8, Max: 0x00080000, ABSOLUTE)

    Base Addr    Size         Type   Attr      Idx    E Section Name        Object

    0x08000000   0x00000130   Data   RO            3    RESET               startup_stm32f10x_hd.o
    0x08000130   0x00000008   Code   RO         4463  * !!!main             c_w.l(__main.o)
    0x08000138   0x00000034   Code   RO         4789    !!!scatter          c_w.l(__scatter.o)
    0x0800016c   0x0000001a   Code   RO         4791    !!handler_copy      c_w.l(__scatter_copy.o)
    0x08000186   0x00000002   PAD
    0x08000188   0x0000001c   Code   RO         4793    !!handler_zi        c_w.l(__scatter_zi.o)
    0x080001a4   0x00000002   Code   RO         4657    .ARM.Collect$$libinit$$00000000  c_w.l(libinit.o)
    0x080001a6   0x00000000   Code   RO         4669    .ARM.Collect$$libinit$$00000002  c_w.l(libinit2.o)
    0x080001a6   0x00000000   Code   RO         4671    .ARM.Collect$$libinit$$00000004  c_w.l(libinit2.o)
    0x080001a6   0x00000000   Code   RO         4674    .ARM.Collect$$libinit$$0000000A  c_w.l(libinit2.o)
    0x080001a6   0x00000000   Code   RO         4676    .ARM.Collect$$libinit$$0000000C  c_w.l(libinit2.o)
    0x080001a6   0x00000000   Code   RO         4678    .ARM.Collect$$libinit$$0000000E  c_w.l(libinit2.o)
    0x080001a6   0x00000000   Code   RO         4681    .ARM.Collect$$libinit$$00000011  c_w.l(libinit2.o)
    0x080001a6   0x00000000   Code   RO         4683    .ARM.Collect$$libinit$$00000013  c_w.l(libinit2.o)
    0x080001a6   0x00000000   Code   RO         4685    .ARM.Collect$$libinit$$00000015  c_w.l(libinit2.o)
    0x080001a6   0x00000000   Code   RO         4687    .ARM.Collect$$libinit$$00000017  c_w.l(libinit2.o)
    0x080001a6   0x00000000   Code   RO         4689    .ARM.Collect$$libinit$$00000019  c_w.l(libinit2.o)
    0x080001a6   0x00000000   Code   RO         4691    .ARM.Collect$$libinit$$0000001B  c_w.l(libinit2.o)
    0x080001a6   0x00000000   Code   RO         4693    .ARM.Collect$$libinit$$0000001D  c_w.l(libinit2.o)
    0x080001a6   0x00000000   Code   RO         4695    .ARM.Collect$$libinit$$0000001F  c_w.l(libinit2.o)
    0x080001a6   0x00000000   Code   RO         4697    .ARM.Collect$$libinit$$00000021  c_w.l(libinit2.o)
    0x080001a6   0x00000000   Code   RO         4699    .ARM.Collect$$libinit$$00000023  c_w.l(libinit2.o)
    0x080001a6   0x00000000   Code   RO         4701    .ARM.Collect$$libinit$$00000025  c_w.l(libinit2.o)
    0x080001a6   0x00000000   Code   RO         4705    .ARM.Collect$$libinit$$0000002C  c_w.l(libinit2.o)
    0x080001a6   0x00000000   Code   RO         4707    .ARM.Collect$$libinit$$0000002E  c_w.l(libinit2.o)
    0x080001a6   0x00000000   Code   RO         4709    .ARM.Collect$$libinit$$00000030  c_w.l(libinit2.o)
    0x080001a6   0x00000000   Code   RO         4711    .ARM.Collect$$libinit$$00000032  c_w.l(libinit2.o)
    0x080001a6   0x00000002   Code   RO         4712    .ARM.Collect$$libinit$$00000033  c_w.l(libinit2.o)
    0x080001a8   0x00000002   Code   RO         4747    .ARM.Collect$$libshutdown$$00000000  c_w.l(libshutdown.o)
    0x080001aa   0x00000000   Code   RO         4774    .ARM.Collect$$libshutdown$$00000003  c_w.l(libshutdown2.o)
    0x080001aa   0x00000000   Code   RO         4777    .ARM.Collect$$libshutdown$$00000006  c_w.l(libshutdown2.o)
    0x080001aa   0x00000000   Code   RO         4780    .ARM.Collect$$libshutdown$$00000009  c_w.l(libshutdown2.o)
    0x080001aa   0x00000000   Code   RO         4782    .ARM.Collect$$libshutdown$$0000000B  c_w.l(libshutdown2.o)
    0x080001aa   0x00000000   Code   RO         4785    .ARM.Collect$$libshutdown$$0000000E  c_w.l(libshutdown2.o)
    0x080001aa   0x00000002   Code   RO         4786    .ARM.Collect$$libshutdown$$0000000F  c_w.l(libshutdown2.o)
    0x080001ac   0x00000000   Code   RO         4539    .ARM.Collect$$rtentry$$00000000  c_w.l(__rtentry.o)
    0x080001ac   0x00000000   Code   RO         4596    .ARM.Collect$$rtentry$$00000002  c_w.l(__rtentry2.o)
    0x080001ac   0x00000006   Code   RO         4608    .ARM.Collect$$rtentry$$00000004  c_w.l(__rtentry4.o)
    0x080001b2   0x00000000   Code   RO         4598    .ARM.Collect$$rtentry$$00000009  c_w.l(__rtentry2.o)
    0x080001b2   0x00000004   Code   RO         4599    .ARM.Collect$$rtentry$$0000000A  c_w.l(__rtentry2.o)
    0x080001b6   0x00000000   Code   RO         4601    .ARM.Collect$$rtentry$$0000000C  c_w.l(__rtentry2.o)
    0x080001b6   0x00000008   Code   RO         4602    .ARM.Collect$$rtentry$$0000000D  c_w.l(__rtentry2.o)
    0x080001be   0x00000002   Code   RO         4660    .ARM.Collect$$rtexit$$00000000  c_w.l(rtexit.o)
    0x080001c0   0x00000000   Code   RO         4718    .ARM.Collect$$rtexit$$00000002  c_w.l(rtexit2.o)
    0x080001c0   0x00000004   Code   RO         4719    .ARM.Collect$$rtexit$$00000003  c_w.l(rtexit2.o)
    0x080001c4   0x00000006   Code   RO         4720    .ARM.Collect$$rtexit$$00000004  c_w.l(rtexit2.o)
    0x080001ca   0x00000002   PAD
    0x080001cc   0x00000040   Code   RO            4    .text               startup_stm32f10x_hd.o
    0x0800020c   0x000000ee   Code   RO         4455    .text               c_w.l(lludivv7m.o)
    0x080002fa   0x00000026   Code   RO         4457    .text               c_w.l(llshl.o)
    0x08000320   0x00000026   Code   RO         4459    .text               c_w.l(llushr.o)
    0x08000346   0x00000006   Code   RO         4461    .text               c_w.l(heapauxi.o)
    0x0800034c   0x00000016   Code   RO         4544    .text               c_w.l(_rserrno.o)
    0x08000362   0x00000002   PAD
    0x08000364   0x00000008   Code   RO         4615    .text               c_w.l(rt_errno_addr_intlibspace.o)
    0x0800036c   0x00000008   Code   RO         4641    .text               c_w.l(libspace.o)
    0x08000374   0x0000004a   Code   RO         4644    .text               c_w.l(sys_stackheap_outer.o)
    0x080003be   0x0000000c   Code   RO         4646    .text               c_w.l(exit.o)
    0x080003ca   0x00000002   PAD
    0x080003cc   0x0000000c   Code   RO         4715    .text               c_w.l(sys_exit.o)
    0x080003d8   0x00000002   Code   RO         4736    .text               c_w.l(use_no_semi.o)
    0x080003da   0x00000000   Code   RO         4738    .text               c_w.l(indicate_semi.o)
    0x080003da   0x00000002   PAD
    0x080003dc   0x00000050   Code   RO         3600    i.ALT               plc_process.o
    0x0800042c   0x00000038   Code   RO         3601    i.AND               plc_process.o
    0x08000464   0x000000b0   Code   RO         3602    i.ANDF              plc_process.o
    0x08000514   0x000000b0   Code   RO         3603    i.ANDP              plc_process.o
    0x080005c4   0x00000038   Code   RO         3604    i.ANI               plc_process.o
    0x080005fc   0x00000064   Code   RO         3605    i.BCD               plc_process.o
    0x08000660   0x00000058   Code   RO         3606    i.BIN               plc_process.o
    0x080006b8   0x000000a0   Code   RO         3607    i.BIT_SET           plc_process.o
    0x08000758   0x00000012   Code   RO          357    i.BKP_DeInit        stm32f10x_bkp.o
    0x0800076a   0x00000002   PAD
    0x0800076c   0x00000010   Code   RO          362    i.BKP_ReadBackupRegister  stm32f10x_bkp.o
    0x0800077c   0x00000010   Code   RO          366    i.BKP_WriteBackupRegister  stm32f10x_bkp.o
    0x0800078c   0x00000080   Code   RO         3608    i.BMOV              plc_process.o
    0x0800080c   0x00000020   Code   RO         3609    i.BtoG              plc_process.o
    0x0800082c   0x00000058   Code   RO         3610    i.CALL_EX           plc_process.o
    0x08000884   0x00000098   Code   RO         3611    i.CALL_P            plc_process.o
    0x0800091c   0x00000028   Code   RO         3612    i.CJ_EX             plc_process.o
    0x08000944   0x00000098   Code   RO         3613    i.CJ_P              plc_process.o
    0x080009dc   0x000000d8   Code   RO         3614    i.CMP               plc_process.o
    0x08000ab4   0x00000140   Code   RO         3615    i.CMP_P             plc_process.o
    0x08000bf4   0x00000044   Code   RO         3616    i.C_given_value_D   plc_process.o
    0x08000c38   0x00000014   Code   RO          726    i.DAC_SetChannel1Data  stm32f10x_dac.o
    0x08000c4c   0x00000014   Code   RO          727    i.DAC_SetChannel2Data  stm32f10x_dac.o
    0x08000c60   0x0000001c   Code   RO          729    i.DAC_SoftwareTriggerCmd  stm32f10x_dac.o
    0x08000c7c   0x00000030   Code   RO         4348    i.DAC_data          dac.o
    0x08000cac   0x000000cc   Code   RO         3617    i.DBCD              plc_process.o
    0x08000d78   0x00000100   Code   RO         3618    i.DBIN              plc_process.o
    0x08000e78   0x000000d4   Code   RO         3619    i.DCMP              plc_process.o
    0x08000f4c   0x0000014c   Code   RO         3620    i.DCMP_P            plc_process.o
    0x08001098   0x00000064   Code   RO         3621    i.DDIV              plc_process.o
    0x080010fc   0x00000098   Code   RO         3622    i.DEC_P             plc_process.o
    0x08001194   0x0000001c   Code   RO         3623    i.DE_target         plc_process.o
    0x080011b0   0x00000060   Code   RO         3624    i.DFMOV             plc_process.o
    0x08001210   0x00000098   Code   RO         3625    i.DINC_P            plc_process.o
    0x080012a8   0x00000024   Code   RO         3206    i.DMA1_Channel4_IRQHandler  plc_com.o
    0x080012cc   0x000000e4   Code   RO          825    i.DMA_DeInit        stm32f10x_dma.o
    0x080013b0   0x00000010   Code   RO          829    i.DMA_ITConfig      stm32f10x_dma.o
    0x080013c0   0x0000003a   Code   RO          830    i.DMA_Init          stm32f10x_dma.o
    0x080013fa   0x00000002   PAD
    0x080013fc   0x00000058   Code   RO         3626    i.DMUL              plc_process.o
    0x08001454   0x00000048   Code   RO         3627    i.DZ0_Z3            plc_process.o
    0x0800149c   0x0000004c   Code   RO         3628    i.DZ4_Z7            plc_process.o
    0x080014e8   0x000000dc   Code   RO         3629    i.DZCP              plc_process.o
    0x080015c4   0x0000006c   Code   RO         3630    i.D_C_T_addr        plc_process.o
    0x08001630   0x00000220   Code   RO         3631    i.D_target          plc_process.o
    0x08001850   0x00000054   Code   RO         3632    i.Damount           plc_process.o
    0x080018a4   0x00000054   Code   RO         3633    i.Dbig              plc_process.o
    0x080018f8   0x00000054   Code   RO         3634    i.Dbig_amount       plc_process.o
    0x0800194c   0x00000054   Code   RO         3635    i.Dless             plc_process.o
    0x080019a0   0x00000054   Code   RO         3636    i.Dless_amount      plc_process.o
    0x080019f4   0x00000054   Code   RO         3637    i.Dno_amount        plc_process.o
    0x08001a48   0x000000ec   Code   RO         3638    i.ECMP              plc_process.o
    0x08001b34   0x00000040   Code   RO         3207    i.EPC_FORCE_OFF     plc_com.o
    0x08001b74   0x00000064   Code   RO         3208    i.EPC_FORCE_ON      plc_com.o
    0x08001bd8   0x000000d4   Code   RO         3464    i.EXTI15_10_IRQHandler  exti.o
    0x08001cac   0x00000134   Code   RO         3465    i.EXTI9_5_IRQHandler  exti.o
    0x08001de0   0x0000000c   Code   RO          895    i.EXTI_ClearITPendingBit  stm32f10x_exti.o
    0x08001dec   0x00000020   Code   RO          899    i.EXTI_GetITStatus  stm32f10x_exti.o
    0x08001e0c   0x000000cc   Code   RO         3639    i.EZCP              plc_process.o
    0x08001ed8   0x0000003c   Code   RO         3496    i.Encoder_A         encoder.o
    0x08001f14   0x0000003c   Code   RO         3497    i.Encoder_B         encoder.o
    0x08001f50   0x000000b4   Code   RO         3209    i.ErasurePLC        plc_com.o
    0x08002004   0x0000003c   Code   RO          953    i.FLASH_ErasePage   stm32f10x_flash.o
    0x08002040   0x00000028   Code   RO          954    i.FLASH_GetBank1Status  stm32f10x_flash.o
    0x08002068   0x00000010   Code   RO          963    i.FLASH_Lock        stm32f10x_flash.o
    0x08002078   0x00000034   Code   RO          966    i.FLASH_ProgramHalfWord  stm32f10x_flash.o
    0x080020ac   0x00000018   Code   RO          971    i.FLASH_Unlock      stm32f10x_flash.o
    0x080020c4   0x00000022   Code   RO          975    i.FLASH_WaitForLastOperation  stm32f10x_flash.o
    0x080020e6   0x00000002   PAD
    0x080020e8   0x00000068   Code   RO         3640    i.FMOV              plc_process.o
    0x08002150   0x00000050   Code   RO         3641    i.FOR               plc_process.o
    0x080021a0   0x0000009c   Code   RO         1246    i.GPIO_Init         stm32f10x_gpio.o
    0x0800223c   0x00000058   Code   RO         1248    i.GPIO_PinRemapConfig  stm32f10x_gpio.o
    0x08002294   0x0000000e   Code   RO         1250    i.GPIO_ReadInputDataBit  stm32f10x_gpio.o
    0x080022a2   0x00000020   Code   RO         3642    i.GtoB              plc_process.o
    0x080022c2   0x00000002   PAD
    0x080022c4   0x00000098   Code   RO         3643    i.INC_P             plc_process.o
    0x0800235c   0x00000026   Code   RO         3547    i.Is_Leap_Year      rtc.o
    0x08002382   0x00000002   PAD
    0x08002384   0x00000054   Code   RO         3644    i.LD                plc_process.o
    0x080023d8   0x000000e4   Code   RO         3645    i.LDF               plc_process.o
    0x080024bc   0x00000058   Code   RO         3646    i.LDI               plc_process.o
    0x08002514   0x000000d4   Code   RO         3647    i.LDP               plc_process.o
    0x080025e8   0x000000cc   Code   RO         3648    i.LPF               plc_process.o
    0x080026b4   0x000000b4   Code   RO         3649    i.LPS               plc_process.o
    0x08002768   0x000000bc   Code   RO         3650    i.MEAN              plc_process.o
    0x08002824   0x00000038   Code   RO         3651    i.MOV_K             plc_process.o
    0x0800285c   0x0000011c   Code   RO         3652    i.MOV_TO_K_H        plc_process.o
    0x08002978   0x000000b8   Code   RO         3653    i.MTR               plc_process.o
    0x08002a30   0x00000104   Code   RO         4336    i.NCIC_Confinguration  nvic_interrupt.o
    0x08002b34   0x00000064   Code   RO           10    i.NVIC_Init         misc.o
    0x08002b98   0x00000014   Code   RO           11    i.NVIC_PriorityGroupConfig  misc.o
    0x08002bac   0x00000014   Code   RO           12    i.NVIC_SetVectorTable  misc.o
    0x08002bc0   0x00000038   Code   RO         3654    i.OR                plc_process.o
    0x08002bf8   0x000000b0   Code   RO         3655    i.ORF               plc_process.o
    0x08002ca8   0x0000003c   Code   RO         3656    i.ORI               plc_process.o
    0x08002ce4   0x000000b0   Code   RO         3657    i.ORP               plc_process.o
    0x08002d94   0x000000a4   Code   RO         3658    i.OUT               plc_process.o
    0x08002e38   0x00000044   Code   RO         3210    i.PC_FORCE_OFF      plc_com.o
    0x08002e7c   0x0000003c   Code   RO         3211    i.PC_FORCE_ON       plc_com.o
    0x08002eb8   0x000000f0   Code   RO         3212    i.PC_OPTION_PROG    plc_com.o
    0x08002fa8   0x00000094   Code   RO         3213    i.PC_READ_PORG      plc_com.o
    0x0800303c   0x000001a8   Code   RO         3214    i.PC_READ_Parameter  plc_com.o
    0x080031e4   0x00000034   Code   RO         3215    i.PC_READ_byte      plc_com.o
    0x08003218   0x0000008c   Code   RO         3216    i.PC_WRITE_PORG     plc_com.o
    0x080032a4   0x00000048   Code   RO         3217    i.PC_WRITE_Parameter  plc_com.o
    0x080032ec   0x00000044   Code   RO         3218    i.PC_WRITE_byte     plc_com.o
    0x08003330   0x000000e0   Code   RO         3659    i.PID               plc_process.o
    0x08003410   0x00000078   Code   RO         3219    i.PLC_1BIT_State    plc_com.o
    0x08003488   0x000000a4   Code   RO         3220    i.PLC_Com_BIT       plc_com.o
    0x0800352c   0x000000a8   Code   RO         3221    i.PLC_Comm_Byte     plc_com.o
    0x080035d4   0x00000028   Code   RO         3222    i.PLC_Download      plc_com.o
    0x080035fc   0x00000048   Code   RO         3223    i.PLC_E_Expand      plc_com.o
    0x08003644   0x000000c0   Code   RO         4396    i.PLC_IO_Refresh    plc_io.o
    0x08003704   0x00000040   Code   RO         4397    i.PLC_IO_config     plc_io.o
    0x08003744   0x00000024   Code   RO         3660    i.PLC_LD_BIT        plc_process.o
    0x08003768   0x0000005c   Code   RO         4398    i.PLC_Mode_config   plc_io.o
    0x080037c4   0x00000024   Code   RO         3661    i.PLC_PL_BIT_TEST   plc_process.o
    0x080037e8   0x00000054   Code   RO         3662    i.PLC_PROG_ERROR    plc_process.o
    0x0800383c   0x00000308   Code   RO         3663    i.PLC_ProInstructParse  plc_process.o
    0x08003b44   0x0000004a   Code   RO         4228    i.PLC_Timer         plc_timer.o
    0x08003b8e   0x00000002   PAD
    0x08003b90   0x0000007c   Code   RO         3224    i.PLC_Upload        plc_com.o
    0x08003c0c   0x00000074   Code   RO         4399    i.PLC_X_config      plc_io.o
    0x08003c80   0x00000058   Code   RO         4400    i.PLC_Y_config      plc_io.o
    0x08003cd8   0x00000178   Code   RO         3664    i.PLSY              plc_process.o
    0x08003e50   0x0000000c   Code   RO         1600    i.PWR_BackupAccessCmd  stm32f10x_pwr.o
    0x08003e5c   0x0000009c   Code   RO         3225    i.Process_switch    plc_com.o
    0x08003ef8   0x00000018   Code   RO         1661    i.RCC_AHBPeriphClockCmd  stm32f10x_rcc.o
    0x08003f10   0x00000018   Code   RO         1662    i.RCC_APB1PeriphClockCmd  stm32f10x_rcc.o
    0x08003f28   0x00000018   Code   RO         1663    i.RCC_APB1PeriphResetCmd  stm32f10x_rcc.o
    0x08003f40   0x00000018   Code   RO         1664    i.RCC_APB2PeriphClockCmd  stm32f10x_rcc.o
    0x08003f58   0x00000018   Code   RO         1665    i.RCC_APB2PeriphResetCmd  stm32f10x_rcc.o
    0x08003f70   0x0000000c   Code   RO         1667    i.RCC_BackupResetCmd  stm32f10x_rcc.o
    0x08003f7c   0x00000010   Code   RO         1668    i.RCC_ClearFlag     stm32f10x_rcc.o
    0x08003f8c   0x00000094   Code   RO         1672    i.RCC_GetClocksFreq  stm32f10x_rcc.o
    0x08004020   0x00000030   Code   RO         1673    i.RCC_GetFlagStatus  stm32f10x_rcc.o
    0x08004050   0x00000020   Code   RO         1680    i.RCC_LSEConfig     stm32f10x_rcc.o
    0x08004070   0x0000000c   Code   RO         1687    i.RCC_RTCCLKCmd     stm32f10x_rcc.o
    0x0800407c   0x00000010   Code   RO         1688    i.RCC_RTCCLKConfig  stm32f10x_rcc.o
    0x0800408c   0x00000038   Code   RO         3226    i.READ_PLC_ROM      plc_com.o
    0x080040c4   0x0000005c   Code   RO         3665    i.RESET_C           plc_process.o
    0x08004120   0x0000002c   Code   RO         3666    i.RST               plc_process.o
    0x0800414c   0x00000064   Code   RO         3667    i.RST_D             plc_process.o
    0x080041b0   0x0000003c   Code   RO         3668    i.RST_T_C           plc_process.o
    0x080041ec   0x00000014   Code   RO         3669    i.RST_Y             plc_process.o
    0x08004200   0x00000058   Code   RO         3548    i.RTC_Config        rtc.o
    0x08004258   0x00000010   Code   RO         1862    i.RTC_EnterConfigMode  stm32f10x_rtc.o
    0x08004268   0x00000010   Code   RO         1863    i.RTC_ExitConfigMode  stm32f10x_rtc.o
    0x08004278   0x00000134   Code   RO         3549    i.RTC_Get           rtc.o
    0x080043ac   0x00000014   Code   RO         1864    i.RTC_GetCounter    stm32f10x_rtc.o
    0x080043c0   0x00000058   Code   RO         3550    i.RTC_Get_Week      rtc.o
    0x08004418   0x00000018   Code   RO         1868    i.RTC_ITConfig      stm32f10x_rtc.o
    0x08004430   0x00000080   Code   RO         3551    i.RTC_Init          rtc.o
    0x080044b0   0x000000c4   Code   RO         3552    i.RTC_Set           rtc.o
    0x08004574   0x00000020   Code   RO         1870    i.RTC_SetCounter    stm32f10x_rtc.o
    0x08004594   0x00000020   Code   RO         1871    i.RTC_SetPrescaler  stm32f10x_rtc.o
    0x080045b4   0x00000010   Code   RO         1872    i.RTC_WaitForLastTask  stm32f10x_rtc.o
    0x080045c4   0x00000018   Code   RO         1873    i.RTC_WaitForSynchro  stm32f10x_rtc.o
    0x080045dc   0x000000b0   Code   RO         3670    i.SMOV              plc_process.o
    0x0800468c   0x0000003c   Code   RO         3671    i.STL               plc_process.o
    0x080046c8   0x000000a8   Code   RO         3056    i.SetSysClockTo72   system_stm32f10x.o
    0x08004770   0x00000050   Code   RO         3058    i.SystemInit        system_stm32f10x.o
    0x080047c0   0x00000050   Code   RO         3672    i.TADD              plc_process.o
    0x08004810   0x00000120   Code   RO         3673    i.TCMP              plc_process.o
    0x08004930   0x00000120   Code   RO         4229    i.TIM2_IRQHandler   plc_timer.o
    0x08004a50   0x00000058   Code   RO         3518    i.TIM3_IRQHandler   pulse.o
    0x08004aa8   0x00000006   Code   RO         2287    i.TIM_ClearFlag     stm32f10x_tim.o
    0x08004aae   0x00000006   Code   RO         2288    i.TIM_ClearITPendingBit  stm32f10x_tim.o
    0x08004ab4   0x00000014   Code   RO         2293    i.TIM_Cmd           stm32f10x_tim.o
    0x08004ac8   0x00000170   Code   RO         2298    i.TIM_DeInit        stm32f10x_tim.o
    0x08004c38   0x00000010   Code   RO         2318    i.TIM_ITConfig      stm32f10x_tim.o
    0x08004c48   0x0000009c   Code   RO         2364    i.TIM_TimeBaseInit  stm32f10x_tim.o
    0x08004ce4   0x00000054   Code   RO         3674    i.TRD               plc_process.o
    0x08004d38   0x00000050   Code   RO         3675    i.TSUB              plc_process.o
    0x08004d88   0x0000003c   Code   RO         3676    i.TWR               plc_process.o
    0x08004dc4   0x00000028   Code   RO         3227    i.TX_Process        plc_com.o
    0x08004dec   0x0000013c   Code   RO         3677    i.TZCP              plc_process.o
    0x08004f28   0x00000070   Code   RO         4230    i.T_100MS           plc_timer.o
    0x08004f98   0x00000078   Code   RO         4231    i.T_10MS            plc_timer.o
    0x08005010   0x00000070   Code   RO         4232    i.T_1MS             plc_timer.o
    0x08005080   0x00000070   Code   RO         4233    i.T_H100MS          plc_timer.o
    0x080050f0   0x00000078   Code   RO         3678    i.T_given_value_D   plc_process.o
    0x08005168   0x000000c0   Code   RO         3228    i.USART1_Configuration  plc_com.o
    0x08005228   0x000000ec   Code   RO         3229    i.USART1_IRQHandler  plc_com.o
    0x08005314   0x0000000c   Code   RO         2813    i.USART_ClearITPendingBit  stm32f10x_usart.o
    0x08005320   0x00000014   Code   RO         2816    i.USART_Cmd         stm32f10x_usart.o
    0x08005334   0x00000010   Code   RO         2817    i.USART_DMACmd      stm32f10x_usart.o
    0x08005344   0x0000000e   Code   RO         2819    i.USART_GetFlagStatus  stm32f10x_usart.o
    0x08005352   0x0000003e   Code   RO         2820    i.USART_GetITStatus  stm32f10x_usart.o
    0x08005390   0x00000030   Code   RO         2822    i.USART_ITConfig    stm32f10x_usart.o
    0x080053c0   0x000000ac   Code   RO         2823    i.USART_Init        stm32f10x_usart.o
    0x0800546c   0x00000008   Code   RO         2830    i.USART_ReceiveData  stm32f10x_usart.o
    0x08005474   0x00000034   Code   RO         3679    i.V0_V3             plc_process.o
    0x080054a8   0x00000034   Code   RO         3680    i.V4_V7             plc_process.o
    0x080054dc   0x00000388   Code   RO         4401    i.X_filter          plc_io.o
    0x08005864   0x00000034   Code   RO         3681    i.Z0_Z3             plc_process.o
    0x08005898   0x00000034   Code   RO         3682    i.Z4_Z7             plc_process.o
    0x080058cc   0x000000dc   Code   RO         3683    i.ZCP               plc_process.o
    0x080059a8   0x00000028   Code   RO         4637    i.__ARM_fpclassify  m_ws.l(fpclassify.o)
    0x080059d0   0x00000388   Code   RO         4578    i.__ieee754_rem_pio2  m_ws.l(rred.o)
    0x08005d58   0x000000fc   Code   RO         4561    i.__kernel_cos      m_ws.l(cos_i.o)
    0x08005e54   0x000000aa   Code   RO         4639    i.__kernel_poly     m_ws.l(poly.o)
    0x08005efe   0x00000002   PAD
    0x08005f00   0x000000ec   Code   RO         4583    i.__kernel_sin      m_ws.l(sin_i.o)
    0x08005fec   0x00000006   Code   RO         4565    i.__mathlib_dbl_infnan  m_ws.l(dunder.o)
    0x08005ff2   0x0000000c   Code   RO         4567    i.__mathlib_dbl_invalid  m_ws.l(dunder.o)
    0x08005ffe   0x00000000   Code   RO         4560    x$fpl$usenofp       fz_ws.l(usenofp.o)
    0x08005ffe   0x00000002   PAD
    0x08006000   0x000084d0   Data   RO         3247    .ARM.__AT_0x08006000  plc_com.o
    0x0800e4d0   0x0000027c   Code   RO         4589    i.__kernel_tan      m_ws.l(tan_i.o)
    0x0800e74c   0x00000010   Code   RO         4570    i.__mathlib_dbl_underflow  m_ws.l(dunder.o)
    0x0800e75c   0x00000040   Code   RO         3684    i.addr_value        plc_process.o
    0x0800e79c   0x000000fc   Code   RO         3685    i.addr_value_prog   plc_process.o
    0x0800e898   0x0000002c   Code   RO         3230    i.all_flash_lock    plc_com.o
    0x0800e8c4   0x00000020   Code   RO         3231    i.all_flash_unlock  plc_com.o
    0x0800e8e4   0x00000054   Code   RO         3686    i.amount            plc_process.o
    0x0800e938   0x00000036   Code   RO         3687    i.b2g               plc_process.o
    0x0800e96e   0x00000002   PAD
    0x0800e970   0x00000030   Code   RO         3232    i.backup_block      plc_com.o
    0x0800e9a0   0x00000054   Code   RO         3688    i.big               plc_process.o
    0x0800e9f4   0x00000054   Code   RO         3689    i.big_amount        plc_process.o
    0x0800ea48   0x00000028   Code   RO         3233    i.check             plc_com.o
    0x0800ea70   0x0000009c   Code   RO         4508    i.cos               m_ws.l(cos.o)
    0x0800eb0c   0x000000a8   Code   RO         3690    i.cos_float_value   plc_process.o
    0x0800ebb4   0x000004f8   Code   RO         3691    i.cos_u32_value     plc_process.o
    0x0800f0ac   0x0000049e   Code   RO         3692    i.cos_value         plc_process.o
    0x0800f54a   0x00000002   PAD
    0x0800f54c   0x00000060   Code   RO         3234    i.data_init         plc_com.o
    0x0800f5ac   0x000000a8   Code   RO         3693    i.disable_C_D       plc_process.o
    0x0800f654   0x00000094   Code   RO         3694    i.disable_C_K       plc_process.o
    0x0800f6e8   0x00000028   Code   RO         3695    i.disable_T         plc_process.o
    0x0800f710   0x000000fc   Code   RO         3696    i.enable_C_D        plc_process.o
    0x0800f80c   0x000000d4   Code   RO         3697    i.enable_C_K        plc_process.o
    0x0800f8e0   0x00000040   Code   RO         3698    i.enable_T_K        plc_process.o
    0x0800f920   0x0000001c   Code   RO         3699    i.expand_AND        plc_process.o
    0x0800f93c   0x0000001c   Code   RO         3700    i.expand_ANI        plc_process.o
    0x0800f958   0x0000001c   Code   RO         3701    i.expand_LD         plc_process.o
    0x0800f974   0x0000001c   Code   RO         3702    i.expand_LDI        plc_process.o
    0x0800f990   0x0000001c   Code   RO         3703    i.expand_OR         plc_process.o
    0x0800f9ac   0x0000001c   Code   RO         3704    i.expand_ORI        plc_process.o
    0x0800f9c8   0x0000001c   Code   RO         3705    i.expand_OUT        plc_process.o
    0x0800f9e4   0x0000001c   Code   RO         3706    i.expand_RST        plc_process.o
    0x0800fa00   0x0000001c   Code   RO         3707    i.expand_SET        plc_process.o
    0x0800fa1c   0x00000d50   Code   RO         3708    i.extend_function   plc_process.o
    0x0801076c   0x00000044   Code   RO         4368    i.filter            adc.o
    0x080107b0   0x00000040   Code   RO         3235    i.find_data         plc_com.o
    0x080107f0   0x0000007c   Code   RO         3236    i.find_data_address  plc_com.o
    0x0801086c   0x00000020   Code   RO         3237    i.find_end          plc_com.o
    0x0801088c   0x0000003c   Code   RO         3709    i.find_p            plc_process.o
    0x080108c8   0x0000002c   Code   RO         3710    i.find_toend        plc_process.o
    0x080108f4   0x0000003c   Code   RO         3711    i.g2b               plc_process.o
    0x08010930   0x00000054   Code   RO         3712    i.less              plc_process.o
    0x08010984   0x0000004c   Code   RO         3085    i.main              main.o
    0x080109d0   0x000000f0   Code   RO         3238    i.mov_flash         plc_com.o
    0x08010ac0   0x00000054   Code   RO         3713    i.no_amount         plc_process.o
    0x08010b14   0x00000140   Code   RO         3239    i.online_write_data  plc_com.o
    0x08010c54   0x00000064   Code   RO         3714    i.other_function    plc_process.o
    0x08010cb8   0x0000008c   Code   RO         3240    i.read_other_data   plc_com.o
    0x08010d44   0x00000080   Code   RO         3241    i.read_plc_tyte     plc_com.o
    0x08010dc4   0x00000018   Code   RO         3242    i.setup_HL          plc_com.o
    0x08010ddc   0x00000018   Code   RO         3243    i.setup_LH          plc_com.o
    0x08010df4   0x000000a0   Code   RO         4516    i.sin               m_ws.l(sin.o)
    0x08010e94   0x0000004c   Code   RO         4524    i.sqrt              m_ws.l(sqrt.o)
    0x08010ee0   0x00000040   Code   RO         3244    i.switch_read_data  plc_com.o
    0x08010f20   0x00000064   Code   RO         4532    i.tan               m_ws.l(tan.o)
    0x08010f84   0x00000284   Code   RO         3715    i.target            plc_process.o
    0x08011208   0x00000078   Code   RO         4234    i.timer_disble      plc_timer.o
    0x08011280   0x00000088   Code   RO         4235    i.timer_enable      plc_timer.o
    0x08011308   0x00000030   Code   RO         3245    i.usart             plc_com.o
    0x08011338   0x0000005c   Code   RO         3246    i.write_block       plc_com.o
    0x08011394   0x00000062   Code   RO         4465    x$fpl$d2f           fz_ws.l(d2f.o)
    0x080113f6   0x00000002   PAD
    0x080113f8   0x00000150   Code   RO         4617    x$fpl$dadd          fz_ws.l(daddsub_clz.o)
    0x08011548   0x00000010   Code   RO         4658    x$fpl$dcheck1       fz_ws.l(dcheck1.o)
    0x08011558   0x000002b0   Code   RO         4626    x$fpl$ddiv          fz_ws.l(ddiv.o)
    0x08011808   0x0000005e   Code   RO         4629    x$fpl$dfix          fz_ws.l(dfix.o)
    0x08011866   0x00000002   PAD
    0x08011868   0x0000005a   Code   RO         4467    x$fpl$dfixu         fz_ws.l(dfixu.o)
    0x080118c2   0x0000002e   Code   RO         4472    x$fpl$dflt          fz_ws.l(dflt_clz.o)
    0x080118f0   0x00000026   Code   RO         4471    x$fpl$dfltu         fz_ws.l(dflt_clz.o)
    0x08011916   0x00000002   PAD
    0x08011918   0x00000154   Code   RO         4633    x$fpl$dmul          fz_ws.l(dmul.o)
    0x08011a6c   0x0000009c   Code   RO         4548    x$fpl$dnaninf       fz_ws.l(dnaninf.o)
    0x08011b08   0x0000000c   Code   RO         4550    x$fpl$dretinf       fz_ws.l(dretinf.o)
    0x08011b14   0x00000016   Code   RO         4618    x$fpl$drsb          fz_ws.l(daddsub_clz.o)
    0x08011b2a   0x00000002   PAD
    0x08011b2c   0x000001cc   Code   RO         4552    x$fpl$dsqrt         fz_ws.l(dsqrt_noumaal.o)
    0x08011cf8   0x000001d4   Code   RO         4619    x$fpl$dsub          fz_ws.l(daddsub_clz.o)
    0x08011ecc   0x00000056   Code   RO         4477    x$fpl$f2d           fz_ws.l(f2d.o)
    0x08011f22   0x00000002   PAD
    0x08011f24   0x000000c4   Code   RO         4479    x$fpl$fadd          fz_ws.l(faddsub_clz.o)
    0x08011fe8   0x00000018   Code   RO         4554    x$fpl$fcmpinf       fz_ws.l(fcmpi.o)
    0x08012000   0x00000184   Code   RO         4486    x$fpl$fdiv          fz_ws.l(fdiv.o)
    0x08012184   0x00000068   Code   RO         4489    x$fpl$feqf          fz_ws.l(feqf.o)
    0x080121ec   0x0000003e   Code   RO         4491    x$fpl$ffixu         fz_ws.l(ffixu.o)
    0x0801222a   0x00000002   PAD
    0x0801222c   0x00000030   Code   RO         4496    x$fpl$fflt          fz_ws.l(fflt_clz.o)
    0x0801225c   0x00000068   Code   RO         4501    x$fpl$fleqf         fz_ws.l(fleqf.o)
    0x080122c4   0x00000102   Code   RO         4503    x$fpl$fmul          fz_ws.l(fmul.o)
    0x080123c6   0x0000008c   Code   RO         4556    x$fpl$fnaninf       fz_ws.l(fnaninf.o)
    0x08012452   0x0000000a   Code   RO         4558    x$fpl$fretinf       fz_ws.l(fretinf.o)
    0x0801245c   0x00000062   Code   RO         4505    x$fpl$frleqf        fz_ws.l(frleqf.o)
    0x080124be   0x00000002   PAD
    0x080124c0   0x000000ea   Code   RO         4481    x$fpl$fsub          fz_ws.l(faddsub_clz.o)
    0x080125aa   0x00000064   Code   RO         4713    x$fpl$retnan        fz_ws.l(retnan.o)
    0x0801260e   0x0000005c   Code   RO         4635    x$fpl$scalbn        fz_ws.l(scalbn.o)
    0x0801266a   0x00000030   Code   RO         4732    x$fpl$trapveneer    fz_ws.l(trapv.o)
    0x0801269a   0x00000261   Data   RO         3250    .constdata          plc_com.o
    0x080128fb   0x0000000c   Data   RO         3553    .constdata          rtc.o
    0x08012907   0x00000010   Data   RO         3717    .constdata          plc_process.o
    0x08012917   0x00000001   PAD
    0x08012918   0x00000030   Data   RO         4562    .constdata          m_ws.l(cos_i.o)
    0x08012948   0x000000c8   Data   RO         4580    .constdata          m_ws.l(rred.o)
    0x08012a10   0x00000028   Data   RO         4584    .constdata          m_ws.l(sin_i.o)
    0x08012a38   0x00000060   Data   RO         4590    .constdata          m_ws.l(tan_i.o)
    0x08012a98   0x00000020   Data   RO         4787    Region$$Table       anon$$obj.o


    Execution Region RW_IRAM1 (Base: 0x20000000, Size: 0x00008f20, Max: 0x00010000, ABSOLUTE)

    Base Addr    Size         Type   Attr      Idx    E Section Name        Object

    0x20000000   0x00000014   Data   RW         1692    .data               stm32f10x_rcc.o
    0x20000014   0x00000001   Data   RW         3086    .data               main.o
    0x20000015   0x00000001   PAD
    0x20000016   0x00000014   Data   RW         3251    .data               plc_com.o
    0x2000002a   0x00000001   Data   RW         3519    .data               pulse.o
    0x2000002b   0x00000001   PAD
    0x2000002c   0x00000002   Data   RW         3521    .data               pulse.o
    0x2000002e   0x0000000f   Data   RW         3554    .data               rtc.o
    0x2000003d   0x00000003   PAD
    0x20000040   0x00000088   Data   RW         3718    .data               plc_process.o
    0x200000c8   0x00000010   Data   RW         4237    .data               plc_timer.o
    0x200000d8   0x00000001   Data   RW         4403    .data               plc_io.o
    0x200000d9   0x00000003   PAD
    0x200000dc   0x000006c4   Zero   RW         3716    .bss                plc_process.o
    0x200007a0   0x000004b0   Zero   RW         4369    .bss                adc.o
    0x20000c50   0x00000021   Zero   RW         4402    .bss                plc_io.o
    0x20000c71   0x00000003   PAD
    0x20000c74   0x00000060   Zero   RW         4642    .bss                c_w.l(libspace.o)
    0x20000cd4   0x00000004   PAD
    0x20000cd8   0x00000200   Zero   RW            2    HEAP                startup_stm32f10x_hd.o
    0x20000ed8   0x00000128   PAD
    0x20001000   0x00005e88   Zero   RW         3248    .ARM.__AT_0x20001000  plc_com.o
    0x20006e88   0x00001c98   Zero   RW         3249    .bss                plc_com.o
    0x20008b20   0x00000400   Zero   RW            1    STACK               startup_stm32f10x_hd.o


==============================================================================

Image component sizes


      Code (inc. data)   RO Data    RW Data    ZI Data      Debug   Object Name

        68          8          0          0       1200       1277   adc.o
        48          4          0          0          0        435   dac.o
       120         16          0          0          0        952   encoder.o
       520         56          0          0          0       1368   exti.o
        76         14          0          1          0     232448   main.o
       140         24          0          0          0     275265   misc.o
       260          0          0          0          0        722   nvic_interrupt.o
      4580        530      34609         20      31520      24148   plc_com.o
      1456        108          0          1         33       3860   plc_io.o
     20784       1652         16        136       1732      79598   plc_process.o
      1074        126          0         16          0       5052   plc_timer.o
        88         22          0          3          0        820   pulse.o
       846         58         12         15          0       4075   rtc.o
        64         26        304          0       1536        820   startup_stm32f10x_hd.o
        50          8          0          0          0       2484   stm32f10x_bkp.o
        68         16          0          0          0       2169   stm32f10x_dac.o
       302         10          0          0          0       3267   stm32f10x_dma.o
        44         10          0          0          0       1024   stm32f10x_exti.o
       226         30          0          0          0       4851   stm32f10x_flash.o
       258          6          0          0          0       2926   stm32f10x_gpio.o
        12          6          0          0          0        462   stm32f10x_pwr.o
       404         78          0         20          0       8644   stm32f10x_rcc.o
       180         40          0          0          0       4148   stm32f10x_rtc.o
       572        106          0          0          0       4676   stm32f10x_tim.o
       352          6          0          0          0       6025   stm32f10x_usart.o
       248         24          0          0          0       1493   system_stm32f10x.o

    ----------------------------------------------------------------------
     32856       2984      34974        220      36320     673009   Object Totals
         0          0         32          0          0          0   (incl. Generated)
        16          0          1          8        299          0   (incl. Padding)

    ----------------------------------------------------------------------

      Code (inc. data)   RO Data    RW Data    ZI Data      Debug   Library Member Name

         8          0          0          0          0         68   __main.o
         0          0          0          0          0          0   __rtentry.o
        12          0          0          0          0          0   __rtentry2.o
         6          0          0          0          0          0   __rtentry4.o
        52          8          0          0          0          0   __scatter.o
        26          0          0          0          0          0   __scatter_copy.o
        28          0          0          0          0          0   __scatter_zi.o
        22          0          0          0          0        100   _rserrno.o
        12          0          0          0          0         72   exit.o
         6          0          0          0          0        152   heapauxi.o
         0          0          0          0          0          0   indicate_semi.o
         2          0          0          0          0          0   libinit.o
         2          0          0          0          0          0   libinit2.o
         2          0          0          0          0          0   libshutdown.o
         2          0          0          0          0          0   libshutdown2.o
         8          4          0          0         96         68   libspace.o
        38          0          0          0          0         68   llshl.o
       238          0          0          0          0        100   lludivv7m.o
        38          0          0          0          0         68   llushr.o
         8          4          0          0          0         68   rt_errno_addr_intlibspace.o
         2          0          0          0          0          0   rtexit.o
        10          0          0          0          0          0   rtexit2.o
        12          4          0          0          0         68   sys_exit.o
        74          0          0          0          0         80   sys_stackheap_outer.o
         2          0          0          0          0         68   use_no_semi.o
        98          4          0          0          0         92   d2f.o
       826         16          0          0          0        348   daddsub_clz.o
        16          4          0          0          0         68   dcheck1.o
       688        140          0          0          0        208   ddiv.o
        94          4          0          0          0         92   dfix.o
        90          4          0          0          0         92   dfixu.o
        84          0          0          0          0        136   dflt_clz.o
       340         12          0          0          0        104   dmul.o
       156          4          0          0          0         92   dnaninf.o
        12          0          0          0          0         68   dretinf.o
       460         56          0          0          0        120   dsqrt_noumaal.o
        86          4          0          0          0         84   f2d.o
       430          8          0          0          0        168   faddsub_clz.o
        24          0          0          0          0         68   fcmpi.o
       388         76          0          0          0         96   fdiv.o
       104          4          0          0          0         84   feqf.o
        62          4          0          0          0         84   ffixu.o
        48          0          0          0          0         68   fflt_clz.o
       104          4          0          0          0         84   fleqf.o
       258          4          0          0          0         84   fmul.o
       140          4          0          0          0         84   fnaninf.o
        10          0          0          0          0         68   fretinf.o
        98          0          0          0          0         68   frleqf.o
       100          0          0          0          0         68   retnan.o
        92          0          0          0          0         68   scalbn.o
        48          0          0          0          0         68   trapv.o
         0          0          0          0          0          0   usenofp.o
       156          8          0          0          0        104   cos.o
       252         22         48          0          0        124   cos_i.o
        34          6          0          0          0        204   dunder.o
        40          0          0          0          0         68   fpclassify.o
       170          0          0          0          0         96   poly.o
       904         76        200          0          0        140   rred.o
       160         10          0          0          0        108   sin.o
       236         12         40          0          0        128   sin_i.o
        76          0          0          0          0         84   sqrt.o
       100         10          0          0          0         96   tan.o
       636         50         96          0          0        168   tan_i.o

    ----------------------------------------------------------------------
      8258        566        384          0        100       4964   Library Totals
        28          0          0          0          4          0   (incl. Padding)

    ----------------------------------------------------------------------

      Code (inc. data)   RO Data    RW Data    ZI Data      Debug   Library Name

       610         20          0          0         96        980   c_w.l
      4856        352          0          0          0       2664   fz_ws.l
      2764        194        384          0          0       1320   m_ws.l

    ----------------------------------------------------------------------
      8258        566        384          0        100       4964   Library Totals

    ----------------------------------------------------------------------

==============================================================================


      Code (inc. data)   RO Data    RW Data    ZI Data      Debug   

     41114       3550      35358        220      36420     662889   Grand Totals
     41114       3550      35358        220      36420     662889   ELF Image Totals
     41114       3550      35358        220          0          0   ROM Totals

==============================================================================

    Total RO  Size (Code + RO Data)                76472 (  74.68kB)
    Total RW  Size (RW Data + ZI Data)             36640 (  35.78kB)
    Total ROM Size (Code + RO Data + RW Data)      76692 (  74.89kB)

==============================================================================

