:020000040800F2
:1000000050CC00200D02000815020008170200085D
:10001000190200081B0200081D0200080000000071
:100020000000000000000000000000001F020008A7
:1000300021020008000000002302000895010108C9
:1000400027020008270200082702000827020008EC
:1000500027020008270200082702000827020008DC
:10006000270200082702000827020008C917000815
:1000700027020008270200081518000827020008B8
:1000800027020008270200082702000827020008AC
:100090002702000827020008270200087924000828
:1000A00027020008B50601082702000827020008F9
:1000B0003109010861090108270200082702000828
:1000C000270200082702000827020008270200086C
:1000D000270200083117010827020008B11701089C
:1000E000270200082702000827020008270200084C
:1000F000590A010827020008270200082702000801
:1001000027020008270200089509010827020008B5
:10011000270200082702000827020008270200081B
:10012000270200082702000827020008270200080B
:1001300000F002F800F05AF80AA090E8000C82449F
:100140008344AAF10107DA4501D100F04FF8AFF27C
:10015000090EBAE80F0013F0010F18BFFB1A43F0A5
:10016000010318478C690100AC6901000A444FF093
:10017000000C10F8013B13F0070408BF10F8014B06
:100180001D1108BF10F8015B641E05D010F8016B4B
:10019000641E01F8016BF9D113F0080F1EBF10F8AF
:1001A000014BAD1C0C1B09D16D1E58BF01F801CBD2
:1001B000FAD505E014F8016B01F8016B6D1EF9D555
:1001C0009142D6D37047000000230024002500266A
:1001D000103A28BF78C1FBD8520728BF30C148BFAA
:1001E0000B6070471FB51FBD10B510BD00F0CEF9F4
:1001F0001146FFF7F7FF14F073FB00F0ECF903B4BE
:10020000FFF7F2FF03BC00F0EDF90000094880475A
:1002100009480047FEE7FEE7FEE7FEE7FEE7FEE7E8
:10022000FEE7FEE7FEE7FEE704480549054A064B00
:1002300070470000ED03010831010008600B002049
:1002400050CC0020600D002050C8002053EA020C62
:1002500000F069802DE9F04B4FF00006002B1FBF26
:10026000B3FA83F503FA05F424FA05F65E4012BFEB
:100270001643B2FA82F502FA05F4C5F120051EBF55
:1002800022FA05FC44EA0C04203556EA044C4FEAF5
:10029000144418BF641C4FF000084FF0000990424E
:1002A00071EB030C39D3002919BFB1FA81F701FAB8
:1002B00007F6B0FA80F700FA07F6C7F120071EBF6D
:1002C00020FA07FC46EA0C062037B6FBF4FCA7EB45
:1002D0000507103F07F01F0BCBF120060CFA0BFBB4
:1002E0002CFA06F644BFB3460026202FA4BF5E4674
:1002F0004FF0000B5BEA060C08BF4FF0010B19EB47
:100300000B09ABFB027C48EB0608C01B06FB02CCCA
:100310000BFB03CC71EB0C01C1E70B4602464146D7
:100320004846BDE8F08B13B54FF000004FF00001D8
:10033000AFF30080BDE81C407047B2F120030AD53E
:10034000C2F1200301FA02F120FA03F300FA02F0ED
:1003500041EA0301704700FA03F14FF000007047D3
:10036000B2F120030AD5C2F1200320FA02F001FA0B
:1003700003F321FA02F140EA0300704721FA03F087
:100380004FF00001704740EA010310B59B070FD101
:10039000042A0DD310C808C9121F9C42F8D020BAF5
:1003A00019BA884201D9012010BD4FF0FF3010BDAD
:1003B0001AB1D30703D0521C07E0002010BD10F87B
:1003C000013B11F8014B1B1B07D110F8013B11F841
:1003D000014B1B1B01D1921EF1D1184610BD032AFF
:1003E00040F2308010F0030C00F0158011F8013B52
:1003F000BCF1020F624498BF11F801CB00F8013B39
:1004000038BF11F8013BA2F1040298BF00F801CBFC
:1004100038BF00F8013B11F0030300F07C80083A7C
:10042000C0F0088051F8043B083A51F804CBA0E82A
:100430000810F5E7121D5CBF51F8043B40F8043B7F
:10044000AFF30080D20724BF11F8013B11F801CBB4
:1004500048BF11F8012B24BF00F8013B00F801CB85
:1004600048BF00F8012B70474FF000020429C0F08C
:10047000128010F0030C00F01B80CCF1040CBCF1D6
:10048000020F18BF00F8012BA8BF20F8022BA1EB28
:100490000C0100F00DB85FEAC17C24BF00F8012B0D
:1004A00000F8012B48BF00F8012B70474FF0000205
:1004B00000B5134694469646203922BFA0E80C505A
:1004C000A0E80C50B1F12001BFF4F7AF090728BF35
:1004D000A0E80C5048BF0CC05DF804EB890028BFB1
:1004E00040F8042B08BF704748BF20F8022B11F0DA
:1004F000804F18BF00F8012B704770477047704756
:1005000010B500F03BF8006810BD10B5044600F0CF
:1005100035F8046010BD10B5203AC0F00B80B1E88A
:100520001850203AA0E81850B1E81850A0E8185028
:10053000BFF4F5AF5FEA027C24BFB1E81850A0E831
:10054000185044BF18C918C0BDE810405FEA827C4B
:1005500024BF51F8043B40F8043B08BF7047D20762
:1005600028BF31F8023B48BF11F8012B28BF20F803
:10057000023B48BF00F8012B70470000004870475D
:10058000000B002000487047000B00207546FFF765
:10059000F9FFAE4605006946534620F00700854640
:1005A00018B020B5FFF740FEBDE820404FF0000630
:1005B0004FF000074FF000084FF0000B21F007014B
:1005C000AC46ACE8C009ACE8C009ACE8C009ACE88E
:1005D000C0098D4670470446AFF300802046FFF700
:1005E0000EFE704701491820ABBEFEE72600020050
:1005F0000029816802D041F0010101E021F00101F0
:10060000816070470029816802D041F4807101E067
:1006100021F4807181607047014600208968490794
:1006200000D501207047014600208968090700D5E0
:100630000120704710B542680E4B0C791A400B68C8
:1006400042EA04221343436082680B4B1A40D1E90B
:10065000024323434C7942EA440213438360C26A53
:10066000097C22F47002491EC9B242EA0151C162FA
:1006700010BD0000FFFEF0FFFDF7F1FF70B507268B
:1006800009290AD9C568A1F10A0404EB4404A6406B
:10069000B543A3401D43C56007E0056901EB410474
:1006A000A640B543A3401D4305611F23072A09D275
:1006B000446B521E02EB820293409C4391400C43D8
:1006C000446370BD0D2A09D2046BD21F02EB820273
:1006D00093409C4391400C43046370BDC46A0D3A3F
:1006E00002EB820293409C4391400C43C46270BD74
:1006F000816841F008018160704700002DE9F047F2
:10070000DFF83C8198F80000002855D0DFF83491DC
:1007100000244FF47A6A44F61C75274609F58C7656
:1007200004EB8401002009EB810356F8242033F800
:100730001010401C1144C0B246F824100A28F4D30B
:1007400008460A21B0FBF1F20E2C2DD2DFE804F0AE
:10075000070D151C24363D444B525A6169705146B1
:10076000204612F0A9FD384905E05146204612F016
:10077000A3FD3549891C485316E05146204612F026
:100780009BFD3149091DF6E75146204612F094FDC4
:1007900001462D48801D06E05146204612F08CFD92
:1007A000014629480830415346F82470641CE4B2DD
:1007B0000E2CB5D388F80070BDE8F087514620466E
:1007C00012F07AFD20490A31D5E75146204612F051
:1007D00073FD1D490C31CEE75146204612F06CFDE9
:1007E00019490E31C7E75146204612F065FD1649FA
:1007F0001031C0E75146204612F05EFD0146124816
:100800001230D0E75146204612F056FD0E49143101
:10081000B1E75146204612F04FFD01460A48163016
:10082000C1E75146204612F047FD07491831A2E7BB
:100830005146204612F040FD03491A319BE7000063
:100840001C0100206409002000100020002981689C
:1008500002D041F4A00101E021F4A00181607047C1
:10086000816841F0040181607047000070B592B06A
:1008700001214FF406700EF081FB012108460EF0B5
:1008800059FBCF20ADF8400000248DF8434010A95B
:10089000674803F0BBFA0320ADF840008DF84340F1
:1008A00010A9644803F0B2FA3F20ADF840008DF87B
:1008B000434010A9604803F0A9FA604D284600F0B3
:1008C000D3FF5F4800905F4801A90E2651C18020E8
:1008D000CDE9044040000690800007902020089059
:1008E0000002CDE909046946284601F037F80122E3
:1008F0000221284601F02AF80121284600F0A8FF2D
:1009000001258DF830500B948DF831403004CDE93D
:100910000D048DF83C604A4E0BA94C3E3046FFF763
:1009200089FE072301220A213046FFF7A7FE07238D
:1009300002220B213046FFF7A1FE072303220C21E0
:100940003046FFF79BFE072304220D213046FFF7B8
:1009500095FE0723052200213046FFF78FFE07236F
:10096000062201213046FFF789FE07231A4602219D
:100970003046FFF783FE0723082203213046FFF7A6
:100980007DFE0723092206213046FFF777FE072365
:100990000A2219463046FFF771FE07230B220E216B
:1009A0003046FFF76BFE07230C220F213046FFF77E
:1009B00065FE07230D2208213046FFF75FFE07235F
:1009C0000E2209213046FFF759FE01213046FFF77C
:1009D0000FFE3046FFF78CFE3046FFF724FE00285E
:1009E000FAD13046FFF73CFF3046FFF715FE0028EE
:1009F000FAD101213046FFF705FE1349002041F8E6
:100A00002040401CC0B20E28F9D34FF4A06004F07F
:100A1000C9FB0B208DF844008DF845508DF84640F9
:100A20008DF8475011A804F08BFB12B070BD000088
:100A300000080140000C0140001001400800024085
:100A40004C240140480900207C0A0020104810B5C1
:100A50008178C90717D012F047F9C11700EB51731D
:100A60000C4901EBE30223F00703C31A0A4811788B
:100A7000185C014204D008480830185C014000E0CE
:100A80000143117010BD816D091D816510BD00000D
:100A90006800002000100020C66401080A4901EB2C
:100AA000D00100F007000A780849085C08490242B2
:100AB000887804D0C20702D040F0010001E000F0C5
:100AC000FE0088707047000000100020C664010816
:100AD000680000202DE9F041274D284FA86D3844CB
:100AE000C0F34F0005F0F2F9254ED0B1A86D008893
:100AF00020F4504005F08CF908B100242BE0A86DDB
:100B00000124C1194810C21700EB527006EBE00235
:100B100020F00700C0EB61001A491378405C0340E5
:100B200018E0A86D0024008820F4504005F070F90A
:100B300088B1A86DC1194810C21700EB527006EBBE
:100B4000E00220F00700C0EB61000E49137808397D
:100B5000405C03431370A878C10701D0012C07D073
:100B600000F0FE00A870A86D801CA865BDE8F081AB
:100B700040F00100F6E7000068000020A49FFFF7A6
:100B800078A60020CE6401082DE9F041274D284FBA
:100B9000A86D3844C0F34F0005F098F9254EC0B158
:100BA000A86D0024008820F4504005F031F950BBB6
:100BB000A86DC1194810C21700EB527006EBE00295
:100BC00020F00700C0EB61001B491378405C034034
:100BD00018E0A86D008820F4504005F019F998B18C
:100BE000A86D0124C1194810C21700EB527006EB22
:100BF000E00220F00700C0EB61000F4913780839CC
:100C0000405C0343137000E00024A878C10701D0C2
:100C1000012C07D000F0FE00A870A86D801CA8650C
:100C2000BDE8F08140F00100F6E700006800002018
:100C3000A49FFFF778A60020CE6401080A4901EBC3
:100C4000D00100F007000A780849085C0849024210
:100C5000887804D1C20702D040F0010001E000F022
:100C6000FE0088707047000000100020C664010874
:100C70006800002010B5144CA078C1072046806D94
:100C80001ED0E06512F056FE4FF47A7390FBF3F13C
:100C900003FB11000A03642390FBF3F103FB110033
:100CA00042EA01220A2390FBF3F142EA011203FB1C
:100CB000110012B202436266BDE8104014F038B869
:100CC0000830A06510BD000068000020008840BA10
:100CD0007047000010B5144CA078C1072046806D05
:100CE0001ED0E06512F026FEC0F303324FF47A7195
:100CF0004A43C0F3032101EBC10303EB011102EBF3
:100D00008102C0F3031101EB810102EB410100F00C
:100D10000F00084400B26066BDE8104014F008B847
:100D20000830A06510BD0000680000202DE9F047E4
:100D3000DFF888C09CF80210C9070FD09CF8091092
:100D4000204FDFF87C9000F0070507EBD002012967
:100D500006D0107819F8051008431070BDE8F08728
:100D6000DFF85C80002008F10808DFF85CA09CF840
:100D70000B600CE03AF8103007EBD30103F00703E7
:100D80000C7818F803301C40401C0C70C0B2B04204
:100D9000F0D9BCF8200007EBD00100F007000B7879
:100DA00018F8000003400B70107819F8051008437C
:100DB000107000208CF80B00D0E7000068000020C5
:100DC000C664010800100020380600202DE9F0411B
:100DD0001D4DA878C00733D012F0ACFD686613F043
:100DE000A7FF12F0A7FD0746A86D4FF6FF76001F7C
:100DF0000124A86515E0E87901281BD006EA440023
:100E0000E881A86D0838A86512F094FD6866A87995
:100E1000012812D006EA4400E88113F089FF641C1F
:100E200024B2BC42E7DBA86D001DA8650020E88164
:100E3000BDE8F08106EA0410E2E706EA0410EBE7F9
:100E4000A86D0C30A865F3E7680000200346012177
:100E500001E05B084900002BFBD121B1491E02468D
:100E6000002012F05DB84FF0FF307047F0B5124D22
:100E70008023AA6D921CAA651188B3EB112F19D19A
:100E80000E4B3E21A3F5017403EB410733F81160CB
:100E90007E8054F8216004EB8107491E7E6011F0CA
:100EA000FF01F1D1A978198005494008226051F865
:100EB0002000A865F0BD0000680000207C0500202F
:100EC00074010020074A8023916D891C916509886F
:100ED000B3EB112F05D10449400851F82000801CC4
:100EE0009065704768000020740100202DE9F047EC
:100EF000314CA078C0075AD012F01CFD814612F088
:100F000019FD804611F0F0FEFF2100B22170C117DB
:100F10002A4D00EB517105EBE10421F00701284A4D
:100F2000471A2378B95C00F1010C0B402370411C77
:100F3000CB1701EB537605EBE60326F00706ACEB87
:100F40000606197816F802C001EA0C011970811C16
:100F50004FEAE17C01EB5C7105EBE105801C21F0BF
:100F60000701411A95F800C0885C4246DFF85080BE
:100F70000CEA000C85F800C0A8F10808914507DDCF
:100F8000207817F8081040EA01002070BDE8F087CB
:100F900006D1187816F8081040EA01001870F5E735
:100FA00011F808004CEA000C85F800C0EEE7A06DCF
:100FB00000F10C00A065E9E76800002000100020A7
:100FC000CE6401082DE9F04704F0E0FE314CE8B3AF
:100FD00012F0B0FC814612F0ADFC804611F084FEA8
:100FE000FF2100B22170C1172B4D00EB517105EBB1
:100FF000E10421F00701294A471A2378B95C00F17E
:10100000010C0B402370411CCB1701EB537605EB11
:10101000E60326F00706ACEB0606197816F802C0C0
:1010200001EA0C011970811C4FEAE17C01EB5C7153
:1010300005EBE105801C21F00701411A95F800C07D
:10104000885C0CEA000C85F800C000E01DE0424618
:10105000DFF848809145A8F1080807DD207817F8E7
:10106000081040EA01002070BDE8F08706D118782A
:1010700016F8081040EA01001870F5E711F80800AA
:101080004CEA000C85F800C0EEE7A06D00F10C0002
:10109000A065E9E76800002000100020CE64010888
:1010A00070B50A4DFF22134605F5807605E010F86D
:1010B000014B54402A5D5A40335D0C00A1F10101FF
:1010C00089B2F4D143EA022070BD000069670108CB
:1010D0000F4B996D11F8020BC0F34600D883996548
:1010E00009880A0A862A02D0882A0AD103E0C9B2EE
:1010F00000EBC11004E0C9B200EBC11000F57A703A
:10110000D8839878C00701D013F03AB812F0F8BE2F
:101110006800002003480021016041604021103038
:10112000FFF7C4B9F8080020084B10B51B8900224E
:10113000C01C03215B1E05E010F8014B491C224432
:10114000D2B289B29942F7DB104610BD1E010020D1
:10115000002804D0012801D0022801D000207047C7
:101160000048704748AE0020044B012282401868B6
:1011700009B1104300E090431860704700740040CC
:1011800030B5084C236840F6FE7282409343D1E9A3
:1011900000252A43D1E902510D432A4382401A43D4
:1011A000226030BD00740040034A08B51044083086
:1011B0000090016008BD000000740040034A08B5BB
:1011C000104414300090016008BD0000007400401D
:1011D0000209054B012090400029196801D0014304
:1011E00000E0814319607047047400400A4810B55C
:1011F00001880020FFF7D8FF0748801C01880020E5
:10120000FFF7DCFF01210020FFF7E2FF0121BDE82D
:1012100010401020FFF7DCBFEC66002010B586B050
:10122000012104200DF0AAFE012148070DF08EFED9
:101230003020ADF8100000248DF8134004A919489F
:1012400002F0E4FD3C20CDE9000402200390694651
:101250000020FFF795FF69461020FFF791FF01215D
:101260000020FFF781FF01211020FFF77DFF012102
:101270000020FFF7ADFF01211020FFF7A9FF00219B
:101280000846FFF791FF00210846FFF797FF01216D
:101290000020FFF79DFF01211020FFF799FF06B006
:1012A00010BD0000000801402DE9F0472C49887866
:1012B000C2070846806D4ED08946C86512F06CF8AA
:1012C0000A2190FBF1F393FBF1F401FB130201FB04
:1012D0001433642490FBF4F494FBF1F501FB154402
:1012E0004FF47A7590FBF5F595FBF1F601FB165579
:1012F00042F2107690FBF6F696FBF1F701FB1766CB
:10130000184F90FBF7F797FBF1FC01FB1C77DFF818
:1013100058C090FBFCFC9CFBF1F801FB18CCDFF8FB
:101320004C8090FBF8F090FBF1F801FB18000CEBFF
:101330000010000600EB075000EB064000EB053004
:1013400000EB042000EB03108118C9F86410BDE81D
:10135000F04700F0CBBC10308865BDE8F087000096
:1013600068000020A086010040420F00809698008F
:101370002DE9F0473C498878C2070846806D6FD058
:101380008946C86512F008F8C21700EB127121F007
:101390000F03C51A0911CB1701EB137323F00F03C9
:1013A000CE1A00EB12610912CB1701EB137323F075
:1013B0000F03CF1A00EB12510913CB1701EB137374
:1013C00000EB124023F00F030014A1EB030CC21733
:1013D00000EB127121F00F030911CC1701EB14740B
:1013E00024F00F040C1B00EB1261C31A00EB125027
:1013F0000013C21700EB127222F00F020912801ABA
:101400004FEAE178194A01EB187828F00F085043A9
:10141000A1EB080143F60952514300EB811040F65D
:1014200035414C4340F271214B4300EB44100CEB2F
:101430004C0100EB0310C1EBCC1100EBC10007EB3A
:10144000C70101EB071100EB810006EB860100EB01
:1014500041004119C9F86410BDE8F04700F046BCEE
:1014600010308865BDE8F0876800002080969800FD
:101470002DE9F041304CA078C00758D011F08CFF16
:10148000606311F089FFA06311F02EFCFF2100B210
:101490002170C11700EB51722849471C01EBE20390
:1014A00022F00702A0EB020E254A1D781EF802600A
:1014B00035401D70451CEE1705EB567601EBE60531
:1014C00026F00706BE1B95F800C0B75C0CEA070CB7
:1014D000871C85F800C04FEAE77C07EB5C7701EBDF
:1014E000E701801C27F00707C01B91F800C0825C51
:1014F0000CEA020C81F800C0D4E90D74104A083AD5
:10150000A74207DD18781EF8021040EA01001870A3
:10151000BDE8F08105D12878B15C40EA010028706F
:10152000F6E7805C4CEA000C81F800C0F0E7A06DA3
:1015300000F11800A065EBE7680000200010002013
:10154000CE6401082DE9F04104F020FC304CE0B3FA
:1015500011F022FFE06311F01FFF206411F0C4FBC3
:10156000FF2100B22170C11700EB51722949471CBD
:1015700001EBE20322F00702A0EB020E264A1D78DF
:101580001EF8026035401D70451CEE1705EB5676BF
:1015900001EBE60526F00706BE1B95F800C0B75C18
:1015A0000CEA070C871C85F800C04FEAE77C07EBC4
:1015B0005C7701EBE701801C27F00707C01B91F85F
:1015C00000C0825C0CEA020C00E01CE081F800C064
:1015D000D4E90F74104A083AA74207DD18781EF8BC
:1015E000021040EA01001870BDE8F08105D12878AA
:1015F000B15C40EA01002870F6E7805C4CEA000C20
:1016000081F800C0F0E7A06D00F11800A065EBE7DD
:101610006800002000100020CE64010870B5144C52
:10162000A078C0071FD011F0B7FE064611F0B4FE37
:1016300096FBF0F100FB116004F16C052E1D296092
:10164000306011F051FBA16D091DA16509492A887F
:1016500021F8102001EB40006A88428031888180A7
:101660007188C18070BDA06D1830A06570BD00008C
:10167000680000200010002070B5134DA878C10745
:101680002846806D1CD00830A86512F053F984B24A
:10169000A86D0C38A86520460EF0B8FA611E07291F
:1016A0000BD80A4911F814100140012088406866DF
:1016B0000EF024F9A86D001D03E0A86D083000E0CD
:1016C0000C30A86570BD000068000020D6640108D9
:1016D0002DE9F041154DA878C00722D011F05CFE2D
:1016E000686600F003FB11F057FE06B2A86D4FF6D6
:1016F000FF7708380124A8650CE0A879012812D0EA
:1017000007EA8400E881A86D0838A86500F0EEFAC1
:10171000641C24B2B442F0DBA86D001DA865002053
:10172000E881BDE8F08107EA4410EBE7680000209B
:1017300070B5214C214DA06D2844C0F34F0004F03A
:10174000C5FB0028A0781E4A4FEAC07001D0E8B15E
:101750002EE068B3A06D41194810C31700EB537019
:1017600002EBE00220F00700C0EB6100154913789E
:10177000405C0343137011F00FFEA16D0839801C0B
:10178000A1656066BDE8704000F0B0BAA06D411977
:101790004810C31700EB537002EBE00220F0070083
:1017A000C0EB6100074913780831405C03401370B7
:1017B000A06D0830A06570BD68000020A49FFFF7F1
:1017C00078A60020C664010870B5022000F034F845
:1017D0000E4C2078002818D10D4A617802F11C03C4
:1017E00000EB800632F8105003EB8606401CC0B2B6
:1017F00026F811500E28F3D3491CC8B260700A288D
:1018000003D3002060700120207070BD1C010020F7
:10181000480900200648416841F400514160416C8C
:101820004FF6FE7211404164024901200870704772
:10183000000002401E010020C10002D502490860DC
:1018400070470249486070470404024000000240AB
:101850000029016802D041F0010102E04FF6FE725A
:10186000114001607047000001684FF6FE721140A0
:1018700001600021016041608160C1603149314AED
:101880000839904203D1486840F00F0006E02D4A25
:101890001432904204D1486840F0F000486070472C
:1018A000284A2832904203D1486840F47060F5E736
:1018B000244A3C32904203D1486840F47040EDE73E
:1018C000204A5032904203D1486840F47020E5E746
:1018D0001C4A6432904203D1486840F47000DDE74E
:1018E000184A7832904203D1486840F07060D5E7DA
:1018F000154A111F904203D1086840F00F0006E01E
:10190000114A1432904204D1086840F0F000086097
:1019100070470D4A2832904203D1086840F4706045
:10192000F5E7094A3C32904203D1086840F4704020
:10193000EDE7054A50329042EAD1086840F4702041
:10194000E5E700000800024008040240002A02689F
:1019500001D00A4300E08A430260704730B5026854
:1019600047F6F0739A430C6A8B682343D1E9044528
:101970002C4323438C692343CC6923434C6A234380
:101980008C6A234313430360CA6842600A6882601A
:101990004968C16030BD000070B5124EB078C00714
:1019A0001CD011F0F9FC054611F0F6FC454306F198
:1019B0008804E817C4E9005011F096F9B16D091DCB
:1019C000B1650949228821F8102001EB40006288A6
:1019D0004280A1888180E188C18070BDB06D1830DF
:1019E000B06570BD68000020001000202DE9F041B6
:1019F0003C4EB06D418A008A61F31F2085B2B5F577
:101A0000A06F2DD0A5F5A060013869D1364C374FB5
:101A10004FF00008A580B078C1073248806D00F112
:101A2000100040D0216803293BD011F0B5FCE061E3
:101A300011F0B2FCC4E90405206818B1D4E907012B
:101A400081424AD00123236007EBD501E069284A8F
:101A5000206205F007050878525D104203D03CE093
:101A6000214C603CD3E71043087023722149E069A0
:101A7000884297F8F20102D340F0200001E000F024
:101A8000DF0087F8F20197F8E301012100F0DF00A1
:101A900087F8E301C4F80C80237220460DF08CF81F
:101AA0001BE0B06519E0B0652068B0B16069A8427C
:101AB00013D10F4B07EBD50005F00702083301786F
:101AC0009A5C1140017000212046C4F800800DF09E
:101AD00073F860212046FEF7E9FCB06D001DB0658B
:101AE000BDE8F08168000020980800200010002068
:101AF000C6640108400D0300800B07D001280BD0FD
:101B000002280FD0032813D0002070470D480E493B
:101B100041F63A02008811E00C480B4941F66E127A
:101B200000880BE00948001D008800EB004070476A
:101B300006480549083041F672120088895A00EBC0
:101B40000140704738280020001000206C29002038
:101B5000800B09D001280ED010490228098812D024
:101B6000032813D0002070470C480D490A3841F66D
:101B70007A12008805E009480949801F41F67E1263
:101B80000088895C05E00548801E01E00348801C50
:101B9000008800EB014080B27047000082290020DD
:101BA000001000202DE9F05F324EB078C0075CD005
:101BB00011F0F2FB834611F0EFFB054611F0ECFB50
:101BC000044611F091F8FF213170C1172A4B00EB48
:101BD000517103EBE10221F00701284EA0EB010A4D
:101BE00017781AF806100F401770411CCF1701EB39
:101BF000577803EBE801471C28F00708A7EB080813
:101C000091F800C018F806700CEA070C871C81F8E0
:101C100000C04FEAE77C07EB5C7C801C2CF00707D8
:101C200003EBEC03C01B93F80090865D09EA0609FC
:101C3000124E83F80090083EA34506DD10781AF88E
:101C4000061008431070BDE8F09FAC4205DC087830
:101C500018F8062010430870F5E7A542F3DA805D16
:101C600049EA000983F80090EDE7B06D2030B065D7
:101C7000E9E700006800002000100020CE640108A1
:101C800030B5194CA16D31F8022B150A803D092D94
:101C900015D2DFE805F005140B1416141C142200ED
:101CA00000EB022080B24FF4E06204E000EB02207F
:101CB00080B24FF4006202EB5000A082A165A08ABE
:101CC00030BD00EB022080B24FF4A062F3E700EBDE
:101CD000022080B24FF48052EDE700EB022080B288
:101CE00041F2E832E7E70000680000202DE9F04704
:101CF000784CDFF8E481DFF8E491A36DDFF8E0A130
:101D000033F8021BA365188801F47F4242EA1026CB
:101D10004FF6FF72CDB202EA0022256615434AF261
:101D20008742B11A96426ED033DC274648F2806C67
:101D3000796EFF89A6EB0C02664560D010DC02F5D7
:101D400000764FF00105112E7BD2DFE806F0377ADE
:101D50003A7A437A467A497A4C7A4F7A527A5500DF
:101D600041F6026CA2EB0C0062456FD008DC022A3F
:101D70004AD0042A4FD0062A51D0082A61D152E015
:101D8000012867D0022861D0032863D0042858D1E5
:101D90005CE00A295ED007DC53D2DFE801F052573D
:101DA0005B575B575B575B57A1F2FB11082948D281
:101DB000DFE801F05458626670747E82C2B28020FF
:101DC00001E0C2B2822002F0EFFFA06D801CA0658E
:101DD000A57136E0C2B28420F5E7C2B28620F2E7F0
:101DE000C2B28820EFE7C2B28A20ECE7C2B28C20F0
:101DF000E9E7C2B28E20E6E7C2B29020E3E7394AB3
:101E0000E819104403E025E0E81900F120209B1CAC
:101E10000160A36515E0EA1902EB0800F7E7EA198B
:101E200002EB0900F3E7EA1902EB0A00EFE720668C
:101E3000F0B2C5F30522616E02F0B6FFA06D801C02
:101E4000A065A06D001DA065BDE8F0872846FFF7DE
:101E500053FEECE72846FFF77BFEE8E72846FFF74E
:101E60004BFE02E02846FFF773FEC5F30D0101EBC0
:101E7000400000F1202028E02846FFF73DFE02E068
:101E80002846FFF765FEC5F30D0101EB400101EBAC
:101E900008001AE02846FFF72FFE02E02846FFF769
:101EA00057FEC5F30D0101EB400101EB09000CE009
:101EB0002846FFF721FE02E02846FFF749FEC5F35A
:101EC0000D0101EB400101EB0A00B4F8641089B286
:101ED0000160B3E768000020001A002000300020F5
:101EE000D0370020002800202DE9F04111F054FAED
:101EF000044611F051FA1A4901F174054A7A012A8F
:101F00000BD0AA78012A1FD08A785206120E8A7046
:101F1000844223D142F001001FE08A785206120E5B
:101F20008A7084420DD10B8C0E4E0F4F06EBD306F8
:101F300003F007033678FB5C1E4202D042F0010238
:101F40008A70AA78012A09D1844205D12888C2075B
:101F500002D000F0010000E000208870BDE8F081B0
:101F60006800002000100020C66401082DE9F0413F
:101F700011F012FA044611F00FFA1A4901F1740532
:101F80004A7A012A0BD0AA78012A1FD08A785206F1
:101F9000120E8A70844223DD42F001001FE08A782D
:101FA0005206120E8A7084420DDD0B8C0E4E0F4FBE
:101FB00006EBD30603F007033678FB5C1E4202D023
:101FC00042F001028A70AA78012A09D1844205DD13
:101FD0002888C20702D000F0010000E000208870CD
:101FE000BDE8F0816800002000100020C6640108F0
:101FF0002DE9F04111F0D0F9044611F0CDF91A495C
:1020000001F174054A7A012A0BD0AA78012A1FD05F
:102010008A785206120E8A70844223DB42F0010055
:102020001FE08A785206120E8A7084420DDB0B8CF8
:102030000E4E0F4F06EBD30603F007033678FB5C1A
:102040001E4202D042F001028A70AA78012A09D108
:10205000844205DB2888C20702D000F0010000E0BE
:1020600000208870BDE8F08168000020001000208A
:10207000C66401082DE9F04111F08EF9044611F013
:102080008BF91A4901F174054A7A012A0BD0AA7812
:10209000012A1FD08A785206120E8A70844223DAEF
:1020A00042F001001FE08A785206120E8A708442C4
:1020B0000DDA0B8C0E4E0F4F06EBD30603F0070321
:1020C0003678FB5C1E4202D042F001028A70AA7888
:1020D000012A09D1844205DA2888C20702D000F01B
:1020E000010000E000208870BDE8F0816800002059
:1020F00000100020C66401082DE9F04111F04CF9F0
:10210000044611F049F91F491F4E204F4A7A01F148
:102110007405012A0BD0AA78012A1FD08A785206AA
:10212000120E8A7084422ADC42F0010026E08A788E
:102130005206130E8B7084420DDC0A8C06EBD20C17
:1021400002F007029CF800C0BA5C1CEA020F02D041
:1021500043F001028A70AA78012A10D184420CDC73
:10216000088C06EBD00200F007001278385C0242BF
:1021700003D0287800F0010000E000208870BDE85E
:10218000F08100006800002000100020C6640108F3
:102190002DE9F04111F000F9044611F0FDF81A495B
:1021A00001F174054A7A012A0BD0AA78012A1FD0BE
:1021B0008A785206120E8A70844223D042F00100BF
:1021C0001FE08A785206120E8A7084420DD00B8C62
:1021D0000E4E0F4F06EBD30603F007033678FB5C79
:1021E0001E4202D042F001028A70AA78012A09D167
:1021F000844205D02888C20702D000F0010000E028
:1022000000208870BDE8F0816800002000100020E8
:10221000C66401082DE9F05F364CDFF8DC80374DED
:10222000A078C00762D012F05DFAE06212F05AFAAC
:10223000206310F059FDFF2100B22170C11700EB9F
:10224000517105EBE10721F00701A0EB010B08F14B
:1022500008013A781BF801301A403A70421CD31733
:1022600002EB537205EBE206431C22F00702A3EBDC
:10227000020A96F800C01AF801200CEA020C821C2F
:10228000D31702EB537205EBE205801C22F0070224
:1022900086F800C0A0EB020995F800C019F801000B
:1022A0000CEA000C85F800C0D4E90B0113F0ECFF38
:1022B00006D238781BF8081008433870BDE8F09F44
:1022C000D4E90B0113F074FE05D130781AF8081028
:1022D00008433070F2E7D4E90B0113F0D5FEEDD2DC
:1022E000287819F8081008432870E7E7A06D18301F
:1022F000A065E3E768000020C66401080010002024
:1023000070B5174DA878C1072846806D25D00830D4
:10231000A86511F00FFB84B2A86D0C38A8652046A3
:102320000DF074FC611E072914D80021012303FA63
:1023300001F2024207D00B4830F8140008406866EA
:102340000DF0DCFA03E0491CC9B20829EFD3A86DEF
:10235000001D03E0A86D083000E00C30A86570BDDA
:1023600068000020D66401080948B0F90010094A45
:10237000B2F90000081AB0F5347F02DBA0F5B460B2
:1023800004E010F5347F01DA00F5B4601180704785
:1023900024040040000100204FF08040B0F92410D8
:1023A000084AB2F90200081AB0F5347F02DBA0F542
:1023B000347004E010F5347F01DA00F53470518098
:1023C000704700000001002030B50B4DA88903F0D4
:1023D00073FB0A4901EBD004A88903F06DFB08499F
:1023E00000F00700085C21780840064920700620AC
:1023F00048700120688130BD1E01002000100020BF
:10240000CE640108B4A1002030B5174D174C4FF031
:102410000902A9890846A1F5C041233917D001292D
:1024200018D002291BD003F047FB04EBD004A88985
:1024300003F042FB0E4900F00700085C21780843D6
:1024400020700C49062048700120688130BD84F856
:10245000E021F6E784F8E02100206870F1E70A2027
:1024600084F8E001EDE700001E01002000100020CC
:10247000C6640108B4A1002006480168054814306C
:1024800002681140C90504D5034A01211170811564
:1024900001607047000401402800002001490860E5
:1024A000704700001404014030B51A4A837901686E
:1024B00053B313688B431360111D0B680468A34367
:1024C0000B60017911440B68046823430B60114BC6
:1024D000083319680468A14319601C1D2168056848
:1024E000A94321604179102905D011440A68006888
:1024F00002430A6030BD19680268114319602168FF
:1025000000680143216030BD0079104402688A43AD
:10251000026030BD000401402DE9FC5F2E4D2F4FBD
:102520002F4CA878C00752D012F0DCF8019012F0BE
:10253000D9F8009012F0D6F8834610F0D5FBFF21B1
:10254000297004EBD00600F0070A07F1080233787F
:1025500012F80A100B40411C337004EBD10501F056
:1025600007092B7812F80910801C0B402B7004EB24
:10257000D00400F00708217812F80800014021700B
:102580005946019813F080FE06D2307817F80A10E9
:1025900008433070BDE8FC9F5946019813F074FD64
:1025A0000AD85846009913F06FFD05D8287817F817
:1025B000091008432870EDE75946009813F064FDB0
:1025C000E8D2207817F8081008432070E2E7A86DD9
:1025D0002030A865DEE7000068000020C66401081E
:1025E0000010002010B50F4C2068012809D1207977
:1025F00010B1012803D004E001F0CCFC01E001F0AF
:10260000E9FCA06801280BD1207B28B1012807D163
:10261000BDE8104001F0F8BCBDE8104001F0CABCB4
:1026200010BD0000F808002010B586B00121102070
:102630000CF0A4FC012102200CF088FC01212648AA
:1026400001F030FC4020ADF8100004208DF813009C
:1026500002208DF8120004A9204801F0D7FB4FF4A6
:10266000806002F09FFD1D208DF80C0001208DF888
:102670000D008DF80E008DF80F0003A802F060FD2C
:10268000174C20460EF062FB4FF6FF700021ADF8AC
:102690000400ADF80010ADF80610ADF80210694660
:1026A00020460EF06BFD00230222502120460EF042
:1026B0004EFD012120460EF02EFB01221146204640
:1026C0000EF0C2FC002120460EF017FD012120462D
:1026D0000EF027FB06B010BD000C1A0000100140E0
:1026E0000004004038B5114C20460EF02FFB0021AD
:1026F00020460EF016FB012110200CF03FFC0121BA
:102700000B4801F0CFFB4020ADF8000001208DF810
:10271000020048208DF803006946064801F076FB68
:10272000054800214160C16038BD00000004004040
:10273000000C1A00001001400001002010B586B006
:10274000012120200CF01AFC012108460CF016FC97
:10275000012108460CF0FAFB4FF40040ADF81000E0
:1027600004208DF8130002248DF8124004A921489A
:1027700001F04CFB600202F015FD1C208DF80C00EE
:1027800001208DF80D008DF80E408DF80F0003A884
:1027900002F0D6FC640720460EF0D8FA4FF6FF7020
:1027A0000021ADF80400ADF80010ADF80610ADF84A
:1027B0000210694620460EF0E1FC002120460EF092
:1027C0009CFC00230222502120460EF0C0FC012177
:1027D00020460EF0A0FA0122114620460EF034FCED
:1027E000002120460EF089FC012120460EF099FAC6
:1027F00006B010BD0014014038B54FF080442046AB
:102800000EF0A4FA002120460EF08BFA01210420DC
:102810000CF0B4FBE013ADF8000001208DF80200CD
:1028200048208DF803006946034801F0EFFA034899
:1028300000218160016138BD0014014000010020C9
:1028400010B588B0012110200CF098FB0121022066
:102850000CF07CFB0121204801F024FB4020ADF866
:10286000180004208DF81B0003208DF81A0006A91B
:102870001A4801F0CBFA1A4C20460EF067FA0021F4
:1028800040F29F50ADF80400ADF80010ADF806100E
:10289000ADF80210694620460EF070FC0A231A4675
:1028A000032120460EF00AFB03A80EF0C5FB06200C
:1028B000ADF8140003A920460EF028FB00212046A5
:1028C0000EF01BFC012120460EF02BFA05480121D9
:1028D0000171016008B010BD000C1A000010014029
:1028E00000040040F808002008B5012110200CF079
:1028F00045FB00210D480EF014FA01210C4801F0AF
:10290000D1FA4020ADF8000001208DF802004820E7
:102910008DF803006946074801F078FA064900205F
:102920000880064A1060486108BD000000040040AD
:10293000000C1A000010014000010020CC1C0020F7
:1029400010B588B0012104200CF018FB01210846C5
:102950000CF0FCFA4FF4C040ADF8180004208DF8DC
:102960001B0003208DF81A0006A91A4801F04EFA40
:102970004FF0804420460EF0E9F9002140F29F50CC
:10298000ADF80400ADF80010ADF80610ADF8021077
:10299000694620460EF0F2FB0A231A460321204620
:1029A0000EF08CFA03A80EF047FB0620ADF81400D9
:1029B00003A920460EF0AAFA002120460EF09DFB46
:1029C000012120460EF0ADF9034801210173816019
:1029D00008B010BD00140140F808002008B500211F
:1029E0004FF080400EF09DF9012104200CF0C6FA52
:1029F0004FF4C040ADF8000001208DF802004820DF
:102A00008DF803006946054801F000FA04490020EA
:102A10004880044A1060886108BD0000001401402D
:102A200000010020D41C00202DE9F04100260546BD
:102A3000012827D1002010F08FFA22480F214FF6ED
:102A4000FF72A0F8B810A0F8BA605E214FF40063DE
:102A500020F81120491C89B29942F9D300F00EF9EF
:102A6000194800F07FF8002012F058FB174F01249E
:102A700007EBC42000F076F8641CA4B20A2CF7D34C
:102A800000F0B2F81249022D08D1680347F67E62C1
:102A900021F81060801C80B29042F9D3032D06D13A
:102AA000002021F81060801C80B2BE28F9D30949AB
:102AB0000620487008480121418105218171BDE847
:102AC000F0810000B091002000680008006000085C
:102AD00000100020B4A100201E0100200149C860A0
:102AE000704700000020024070B5A52500F06CF88A
:102AF00000B100254FF43026304600F0CBF8042812
:102B000027D1154C1348A0601448A060206940F0FC
:102B100020002061206940F040002061304600F034
:102B2000B9F841F6EF7604280ED1206941F6DF713D
:102B300008402061206940F01000206108480580AD
:102B40004FF4005000F0A6F8052802D0216931406A
:102B5000216170BD2301674500200240AB89EFCDA4
:102B600000F8FF1F70B505464FF43026304600F0E0
:102B700091F8042811D1094C206940F0020020612D
:102B80006561206940F040002061304600F082F825
:102B9000216941F6FD721140216170BD00200240A3
:102BA00008490420CA68D20701D001207047CA68CA
:102BB000520701D502207047C968C906FBD503201A
:102BC000704700000020024003490020C9698907BE
:102BD00000D5012070470000002002400148006A33
:102BE00070470000002002400248016941F0800166
:102BF0000161704700200240F0B506464FF40057CF
:102C00000D46384600F046F804280CD1064C2069E1
:102C100040F0010020613580384600F03BF8216922
:102C2000BA1E11402161F0BD002002402DE9F8419B
:102C3000064600204FF4005700900D46384600F03D
:102C400029F8042816D10C4C206940F001002061BD
:102C50003580B846384600F01DF8BF1E042806D15E
:102C6000B61C280C00963080404600F013F821690D
:102C700039402161BDE8F881002002400348024943
:102C800041600349416070472301674500200240CD
:102C9000AB89EFCD00B50346FFF782FF02E0FFF7F7
:102CA0007FFF5B1E012803D0002B00D1052000BD53
:102CB000002BF4D1FAE700002DE9F041174DA87878
:102CC000C00727D010F036FE686612F031F810F019
:102CD00031FE0646A86D4FF6FF77001F0124A86558
:102CE0000CE0A879012812D007EA4400E881A86D19
:102CF000001FA86512F01CF8641C24B2B442F0DB7B
:102D0000A86D001DA8650020E881BDE8F08107EAF4
:102D10000410EBE7A86D0C30A865F6E7680000200A
:102D200070B5F64C88262146A06D897804F16805B7
:102D300030F8022BB02A7DD06ADC3D2A7BD023DC20
:102D4000A2F102023B2A77D2DFE802F0F7F6F5F7AC
:102D5000F6F5F4F3F2F1F0EF76EEED76EC76EB7655
:102D6000767676767676EE767676EA76E976E8E7C1
:102D7000E6E5E4E3E276E1E0DF76DEDDDCDBDAD92E
:102D8000D8D7D6D5D4D3D200522A6FD00FDCA2F137
:102D90003E02142A50D2DFE802F0ECEBEAE9E8E761
:102DA000E6E5E4E3E2E1E0DFDEDDDCDBDAD9782A48
:102DB00073D018DC702A71D00CDC622A6FD004DC6E
:102DC000532A6DD0602A37D1E4E3642A69D06A2A95
:102DD00032D1EEE3712A7BD0722A7AD0732A79D06D
:102DE000762A29D1F6E3842A75D008DC7A2A73D0B2
:102DF000802A72D0822A71D0832A1DD1EBE3942AD3
:102E00006DD0A22A6CD0AC2A01D0AE2A14D1EFE347
:102E1000B2F5E97F65D065DCB2F5AB7F63D041DC0C
:102E200040F20F13A2F20F169A425DD01FDCF12A76
:102E30005BD002E0F2E38CE259E00CDCC02A55D012
:102E400004DCB42A01D0B62A51D1E9E3ED2A75D0C9
:102E5000EE2A4CD1F0E3A2F58072013A6FD0022A3B
:102E60006ED0042A6DD0062A41D1F7E378E3272EED
:102E700068D009DCA6F10306082E38D2DFE806F098
:102E8000FDFCDFFBDFFADFF9282E5CD0412E5BD0A2
:102E9000432E5AD0452E2AD1FEE3CEE38EE37EE3C5
:102EA0006EE381E3B2F5E37F74D078DC40F267151E
:102EB000A2F26713AA426FD063DCB2F5B27F6CD086
:102EC00058DCB2F5AE7F69D0B2F5AF7F0FD1F0E339
:102ED00082E38EE39AE3C9E3B4E3C2E3CBE3D4E352
:102EE000D8E3E7E367E0EEE3EEE3EEE3EEE3A6E04C
:102EF0001FE213E207E2F9E1EEE1E8E1E2E1DCE101
:102F0000D6E1C4E1B8E1B2E1ACE1A6E19DE194E132
:102F10008EE187E180E17AE174E169E15EE126E139
:102F200020E108E1F3E0D6E0C9E0CFE0BAE0B4E0A8
:102F3000AEE0A8E098E092E08CE086E0CCE3DEE34F
:102F4000E9E3F5E3F5E3F5E3F5E3F5E3FEE2F3E2C8
:102F5000DBE2C8E2BDE2ADE2A4E295E28AE27FE212
:102F600074E266E25BE250E241E233E224E212E222
:102F70000CE2F3E1A2F58072653A79D0012A5ED1C4
:102F8000F7E35B2B7AD05C2B79D05D2B78D05E2B6E
:102F900055D1EFE3EFE302E0EEE3EEE3EFE3A2F27D
:102FA000C7120B2A4BD2DFE802F0FB4A4AFAF9F8C3
:102FB000F7F6F5F4F30040F2ED13A2F2ED119A42A8
:102FC0007ED012DCA2F2D3121A2A38D2DFE802F045
:102FD000FCFBFA3737F9F8F7F6F5F43737F3F2F187
:102FE000F0EFEE3737EDECEBEAE90F2969D00BDCB7
:102FF000A1F103010C2922D2DFE801F0EFEEED820E
:10300000ECEB2121EAE9E8E740F63863A1F6386203
:10301000994272D009DC102972D012F1150166D0E4
:1030200002296ED014290AD1DDE01B2A6AD01C2A9D
:1030300069D01D2A68D0A2F56742DA3A7AD0022117
:1030400040F6417002F054FF36E0A065BDE87040E4
:1030500011F068BAA065BDE8704011F07FBAA065B4
:10306000BDE8704011F06CBAA065BDE8704008E0A2
:10307000FAE3B5E3A9E39EE395E38BE3F5E3F5E338
:10308000F5E301F033BAA065BDE8704001F0C8B9BE
:10309000A065BDE8704000F075BEA065BDE8704059
:1030A00000F08ABEA0650088010A86290AD08E2910
:1030B00005D1C0B20BF0FEFFA06D801CA06570BDF5
:1030C000F0E3F0E3C0B20CF05DF8F5E7A065BDE811
:1030D00070400CF085B9A065C90717D00088B6EB21
:1030E000102FECD1BDE87040C0B2FDF7EBBEA0657B
:1030F00002F04CFE48B1A06DF0E77EE068000020D1
:10310000FEE310E04BE160E16BE1A06DAAE3A06596
:10311000C907FBD00088B6EB102FD0D1BDE87040B6
:10312000C0B2FDF7A3BEA06502F030FE0028ECD0CF
:10313000A06DEFE7E5E3FE49A1F501720878A07004
:103140001068A0653E2001EB40035B8821F8103039
:1031500002EB80035B6842F82030401E10F0FF0055
:10316000F1D1ACE7A065BDE8704000F017BDF04BB1
:10317000A065803393F8382003EB4200818B458DA6
:10318000A9429CD253F82220491CA265818396E76C
:10319000DAE3D4E3CEE3C8E3C2E3BCE3B6E3ADE3F2
:1031A000A7E3FDE3FDE3FDE3FDE3FDE3FDE3FDE375
:1031B000FDE3FDE3FDE3FDE3FDE3FDE3ECE3E6E337
:1031C000E0E3DAE3D4E3CEE3C8E3F6E3F6E3F6E3E1
:1031D000F6E3F6E3F6E3F6E3F6E3F6E3A065BDE82F
:1031E0007040FDF783BEA065BDE87040FDF7EABE04
:1031F000A065BDE87040FEF73BB9A065BDE8704032
:10320000FEF7A0B9A065BDE870400FF043B8A06517
:10321000BDE87040FEF7C6BCA065C90771D010F0CC
:1032200089FB10E0A065C9076CD010F0B5F812E07A
:10323000A065BDE870400CF015BAA065C907EDD0D7
:1032400010F078FBC043606628E1A065C907EBD0A9
:1032500010F0A2F8C0436066D3E0A065BDE87040FE
:10326000FDF7B4BDA065BDE87040FFF725BDA065C2
:10327000BDE87040FEF72CBAA065C907CED010F0AB
:1032800059FB054610F056FBA16D08390AE0A06510
:10329000C8073FF466AF10F07FF8054610F07CF8E1
:1032A000A16D1039A1656066FEF720FD6566A8E096
:1032B000A065BDE87040FDF7DDBCA065BDE87040CD
:1032C000FDF7F2BFA065BDE87040FDF703BDA06546
:1032D000BDE87040FEF74CB8A065C90773D010F088
:1032E00029FB054610F026FB2844ACE7A065C9077A
:1032F0006AD0E06510F050F8054610F04DF828440B
:10330000A9E7D6E0D4E1A065C9075CD0E06510F07C
:1033100011FB054610F00EFB281A94E7A065C907BB
:10332000E6D0E06510F038F8054610F035F8281AB8
:1033300091E7A065C90746D0E06510F0FBFA0546A5
:1033400010F0F8FA04460FF0EFFC05FB04F1016001
:10335000B5E6A065BDE87040FEF71EBBA065C907D5
:1033600072D0E06510F0E6FA054610F0E3FA044684
:103370000FF0BAFC95FBF4F16E4A00B222F810107F
:1033800004FB115102EB4000418098E6A065BDE8C6
:103390007040FEF743B9A065C90706D162E2A06597
:1033A00002F0F4FC00283FF4B0AE10F0C3FAA16DB7
:1033B000091F401CA16546E7A065C90779D00FF039
:1033C000EBFF401C19E03FE09EE0A065BDE87040C7
:1033D000FEF7AEB9A065C907E0D010F0ABFA401E09
:1033E00058E0A06502F0D2FC0028F6D18DE6A06579
:1033F000C907E3D00FF0D0FF401E6066A06D08380B
:10340000A065BDE87040FEF771BCA065C9071BD080
:1034100010F090FA054610F08DFA054012E0A06514
:10342000C90771D00FF0B8FF05460FF0B5FF054092
:103430003CE7A065C90707D010F07CFA054610F0FC
:1034400079FA0543656629E00C3037E6A065C907BF
:103450005AD00FF0A1FF05460FF09EFF054325E768
:10346000A065C907F0D010F065FA054610F062FAC1
:103470004540E7E7A065C90746D00FF08DFF054638
:103480000FF08AFF454011E7A065C90786D010F00C
:1034900051FA40426066A06D001FA065BDE8704013
:1034A00011F046BCA065C90788D00FF075FF4042F7
:1034B000A3E7B4E0A065C9079BD010F03BFA85B242
:1034C00010F038FA80B225FA00F1C0F11000854002
:1034D00017E0A065C8073FF444AE0FF05DFF054656
:1034E0000FF05AFF1AE0A065C907DDD010F022FAEC
:1034F00085B210F01FFA80B205FA00F1C0F1100099
:10350000C5402943616635E025E1A065C807E2D0E2
:103510000FF042FF05460FF03FFF4042C541656690
:10352000A06D1038A065FEF7E1FBA06DBCE10000C6
:103530007C05002000100020A065C9076FD010F0A6
:10354000F9F985B210F0F6F9C54012E0A065C80798
:10355000C1D00FF021FF05460FF01EFFC540DEE78A
:10356000A065C9075BD010F0E5F985B210F0E2F96B
:1035700085406566A06D0838A06511F0D9FBC4E5EB
:10358000A065C807A7D00FF007FF05460FF004FF9E
:103590008540C4E7A065BDE870400EF0E9BEA065B7
:1035A000BDE87040FEF768B8A065BDE87040FEF762
:1035B000A7BEA065BDE8704000F0F2BFA065C807D7
:1035C00089D010F0B7F912F092F811F031FB12F037
:1035D00061F865E125E053E0A065C80797D00FF0DA
:1035E000DBFE12F084F811F023FB12F053F82AE608
:1035F0005CE0A065C90712D010F09CF912F02CFD18
:10360000286011F059F8A06D001F57E5A065C907A3
:103610004ED00FF0C1FE12F01FFDECE04BE0ADE02C
:103620004EE0F94DA065C90703D010F083F928706A
:1036300045E50A21297015E153E0A065BDE8704019
:1036400001F038BCA0650FF0A7FE05460FF0A4FE00
:10365000A84202D1A078C1076FD133E26EE0A0701A
:103660002DE5A065BDE870400CF050B8A065BDE840
:1036700070400BF005BBA065BDE870400BF01ABAB6
:10368000A065BDE87040FEF7B1B9A065BDE8704027
:10369000FDF7DCB9A06500E0CEE0C9076ED010F000
:1036A00049F9DA4900F00F00085CCCE5C907A065CC
:1036B00004E1D0E04DE1A065BDE870400BF0A0BD95
:1036C000C907A065C0E6BCE05AE00FE0FFE7A065CF
:1036D000BDE8704002F044B9A065BDE87040FEF757
:1036E00099BDA065BDE87040FEF716BFA065C9078B
:1036F00075D010F0F7FF12F08FFC60667CE0A065DB
:10370000C90728D010F0EEFF044610F0EBFF214669
:1037100012F01EFB6FE0A065C9071CD010F0E2FF9D
:10372000044610F0DFFF0146204612F0DFFD62E0A4
:1037300013E065E06DE075E079E0C7E1A065C907D9
:1037400009D010F0CFFF044610F0CCFF0146204610
:1037500012F06CFB4FE01830B0E4A065C907FAD056
:1037600010F0C0FF044610F0BDFF214612F0C0FC6F
:1037700041E08EE0B3E0B7E098E07AE078E065E021
:10378000A065C9072BD010F0ADFF12F0B5FA11F00B
:103790004FFA2EE0A065C9076AD010F0A3FF12F01F
:1037A0003BFC80B276E6A065C90718D010F09AFFFE
:1037B00012F032FC4FE5A065C9077FD010F092FFF0
:1037C00012F09AFA11F0DCF913E0A065C90775D080
:1037D00010F088FF12F090FA0FF088FD09E06DE01C
:1037E000A065C9076AD010F07DFF12F085FA11F0CC
:1037F00065FA11F0E5FC2860BDE8704010F05CBF90
:10380000A065C90750D010F095F8011241EA0020D8
:1038100040E6A065C8073FF4A4AC0FF0BDFD4FEA39
:103820003040EAE5A065BDE870400CF02FBEA06511
:10383000BDE870400DF05EBDA065BDE870400CF0C5
:10384000FDBDA065BDE870400DF018BDA065BDE8E8
:1038500070400DF0E1BCA065C90703D0BDE8704021
:103860000FF042BA001D29E40BE029E02DE031E021
:103870001AE0A065C90717D010F05CF8FDF7E6FA6A
:103880000EE0A065C90719D010F054F8FDF7DEFA74
:10389000E1E4A065C90707D010F04CF800F0CEFBBA
:1038A00080B2D0E405E161E1083007E4A065C90712
:1038B00004D010F03FF800F0C1FBCCE41030C4E5B8
:1038C000A065BDE8704010F0F5BDA065BDE8704092
:1038D00010F0FEBDA065BDE8704010F0CFBDA06542
:1038E000BDE8704010F0D8BDA065BDE8704010F094
:1038F000FDBDA065BDE8704010F006BEA06501E00A
:103900003EE147E1BDE8704000F020BDA065BDE8A4
:10391000704000F069BCA065BDE87040FDF734B9A7
:10392000A065BDE87040FDF7D5B8A065BDE8704062
:1039300001F0E0BCA065BDE8704001F063BCA0658B
:10394000BDE870400FF0AABAA065BDE87040FEF770
:10395000CBBAA065BDE870400FF016BBA065BDE80E
:103960007040FEF703BBA065BDE8704010F030BFAB
:10397000A065BDE87040FEF77DBBA065BDE8704066
:1039800010F0E4BFA065BDE87040FEF701BCA06583
:10399000BDE8704010F05EBFA065BDE8704015E066
:1039A00080E075E067E05CE054E049E041E036E04B
:1039B0002EE01EE016E010E00AE0CEE0C6E0BCE03B
:1039C000B4E0AAE0A2E098E08EE082E0FEF794BBCB
:1039D000A065BDE870400FF019BBA065BDE8704060
:1039E000FEF706BBA0650FF0A5FF05460FF0A2FF8E
:1039F00005E0A0650FF0D0FC05460FF0CDFC854238
:103A00003FF428AE5EE0000033000020F8640108B7
:103A1000A0650FF08FFF05460FF08CFF05E0A06555
:103A20000FF0BAFC05460FF0B7FC85423FF712AE27
:103A300048E0A0650FF07EFF05460FF07BFF05E034
:103A4000A0650FF0A9FC05460FF0A6FC8542FFF625
:103A500001AE37E0A0650FF06DFF05460FF06AFF7D
:103A600005E0A0650FF098FC05460FF095FC854237
:103A70007FF4F0AD26E0A0650FF05CFF05460FF087
:103A800059FF854202DCA078C1071FD1A0787EE0F3
:103A9000A0650FF081FC05460FF07EFC85427FF7A4
:103AA000D9AD0FE0A0650FF045FF05460FF042FFCE
:103AB00005E0A0650FF070FC05460FF06DFC854237
:103AC000BFF6C8ADA07820F00100C8E540F00100C5
:103AD000C5E5A0650FF02EFF05460FF02BFF09E0AE
:103AE000A078C1074AD152E0A0650FF055FC054609
:103AF0000FF052FC854241D0F2E7A0650FF01AFFAB
:103B000005460FF017FF854238DCE9E7A0650FF0A6
:103B100011FF05460FF00EFF05E0A0650FF03CFC1D
:103B200005460FF039FC854228DBD9E7A0650FF088
:103B300001FF05460FF0FEFE05E0A0650FF02CFC2E
:103B400005460FF029FC854218D1C9E7A0650FF0A2
:103B5000F1FE05460FF0EEFE05E0A0650FF01CFC3F
:103B600005460FF019FC854208DDB9E7A0650FF0A6
:103B7000E1FE05460FF0DEFE8542B1DBA078A5E749
:103B8000A0650FF009FC05460FF006FCF4E700F015
:103B9000FE0064E5A0650020607249E570B5114D36
:103BA000A878C0071DD0104C002694F838000628CD
:103BB00003D2401C84F8380001E084F838600FF02C
:103BC000B9FE94F83810401E04EB4101488594F882
:103BD0003810A86D44F8210094F8380004EB400038
:103BE000868370BD68000020FC0500207CB504467B
:103BF00004200D468DF80000401F00200190FFF7C3
:103C00003DF8FEF7EBFF000C0004019006D03520D4
:103C1000FEF764FF4FF00066254415E0FEF764FFF1
:103C20008DF800000E4801680E4A01F4E06111436E
:103C30000160BFF3408FFEE706EBC420FEF792FF62
:103C40008DF80000641CE4B2A54203D99DF8000081
:103C50000428F1D0FEF7C8FF9DF800007CBD0000ED
:103C60000CED00E00400FA052DE9F041174E40F29A
:103C70007C452A4631461648FCF7B1FB154C4FF6F9
:103C8000FF773A462946204600F056FA12490128A5
:103C90002A4608D03046FCF776FB002813D0BDE852
:103CA000F04100F045B80A48FCF799FB20463A4637
:103CB000294600F041FA012805D12946BDE8F04126
:103CC0000348FCF7D1BBBDE8F081000004D0020836
:103CD000B09100200C93002004E002082DE9F0418F
:103CE000114D2C68601C00D10024641C01215A2055
:103CF000FFF77CFFFEF7C2FF21462846FEF796FF3E
:103D0000094D0024094E2D1D40F23E2705EB4400CD
:103D100036F81410FEF770FF641CA4B2BC42F5D351
:103D2000BDE8F041FEF760BF00D00208B09100206E
:103D30002DE9F041114D2C68601C00D10024641C59
:103D400001215C20FFF752FFFEF798FF214628462D
:103D5000FEF76CFF094D0024094E2D1D40F23E2751
:103D600005EB440036F81410FEF746FF641CA4B2BD
:103D7000BC42F5D3BDE8F041FEF736BF00E00208D3
:103D8000B09100200B484FF6FF72018802EA410112
:103D90000180C278521CC27001228270A0F17402AC
:103DA0009378DB0702D041F001010180906D001D86
:103DB00090657047DC0000200949088840080880A9
:103DC000C878401E40B2C870002802DC0020C870CD
:103DD000887003487438816D891C816570470000C4
:103DE000DC00002010B58A0721F003040649120FF9
:103DF00021440F238C6893409C438C608B689040D7
:103E000003438B6010BD000000000140F0B5CC788A
:103E1000002204F00F03E40601D58C7823430C78CC
:103E20004FF00F0C4FF0010EDCB105680E880EFA52
:103E300002F42640A64210D196000CFA06F725EAB5
:103E4000070703FA06F5CE783D43282E02D0482E08
:103E500002D002E0446100E00461521C082AE5D36C
:103E600005600A88FF2A1CD94468002202F108066E
:103E70000EFA06F50E882E40AE420ED196000CFAD0
:103E800006F7BC4303FA06F7CE783C43282E00D150
:103E90004561CE78482E00D10561521C082AE5D331
:103EA0004460F0BDF0B5144C002801DAE36900E08D
:103EB0006368450D2E0185B2C0F30157B540C0F3CC
:103EC0000342032F05D0C6020AD503269640B3430A
:103ED00007E023F07062636823F07063636002E0C0
:103EE000AB4343F0706201B12A43002801DAE2617A
:103EF000F0BD6260F0BD000000000140416170470C
:103F000000220144B1F57A7F01D202463FE0B0F5CC
:103F1000A06F05D3B1F5B76F02D2A0F5A06035E070
:103F2000B0F5C06F05D3B1F5E06F02D2A0F5C06067
:103F30002CE0B0F5006F06D340F6FC53994202D84E
:103F4000A0F5006022E04FF47063B0F5606F04D319
:103F5000994202D2A0F5606018E0984205D3B1F50D
:103F6000805F02D2A0F5706010E0B0F5205F05D34D
:103F7000B1F5385F02D2A0F5205007E0B0F5806FB0
:103F800005D3B1F5986F02D2A0F5806082B210B26D
:103F90007047000010B504480CF0A9FF03494968B8
:103FA00008440349086010BD0004004000010020DF
:103FB000901C002010B54FF080400CF098FF034992
:103FC000896808440249086010BD00000001002013
:103FD0009C1C002000B5FEF7C7F907494A69104448
:103FE000486106490A78064989790A42054901D09B
:103FF000086000BD8010FBE700010020F8110020E0
:10400000C6640108CC1C002000B5FEF7C5F90749BD
:104010008A691044886106490A78064989790A4202
:10402000054901D0086000BD8010FBE700010020B9
:10403000F8110020C6640108D41C002003460121A9
:1040400001E05B084900002BFBD121B1491E02466B
:10405000002010F09FBB4FF0FF30704702494CF634
:10406000CC400860704700000030004002494AF62A
:10407000AA200860704700000030004001494860F5
:104080007047000000300040014988607047000020
:1040900000300040014908607047000000300040D7
:1040A00010B586B0012109200AF068FF01218804BB
:1040B0000AF04CFF4FF48060ADF8100018208DF826
:1040C000130003201A4C8DF8120004A92046FFF7B4
:1040D0009DFEE114ADF8101004218DF8131004A911
:1040E0002046FFF793FE4FF4165000900020ADF8E5
:1040F0000400ADF80600ADF80800ADF80C000C2087
:104100000C4CADF80A00694620460DF0B1FB0122C7
:1041100040F2255120460DF092FB012120460DF082
:1041200056FB402120460DF049FB06B010BD0000B3
:10413000000C01400048004070B50026344633466C
:1041400070B9701E70BD30F81450954206D11D46EE
:104150005B1CDBB20A2D02D9012603E00023641C9C
:104160008C42F0D3304670BDF0B51D4E1B4906EBB6
:10417000D00700F0070C0A4638781A4F927801F100
:1041800074054C7A520617F80CC0120EAB7800EA90
:104190000C00012C07D0012B15D08A7000281BD0F1
:1041A00042F0010017E08A7058B10C8C06EBD4067F
:1041B00004F0070436783C5D264202D042F001024A
:1041C0008A70012B08D128B12888C20702D000F0DC
:1041D000010000E000208870F0BD000068000020B1
:1041E00000100020C66401082DE9F041324C334F25
:1041F000A06D3844C0F34F0001F068FE304D314EE1
:10420000B0B3607A0128A0784FEA4000A070A06D9A
:10421000008820F4504003D001F0FAFD90B146E050
:1042200001F0F6FDE8BB208C274901EBD00100F03E
:1042300007000978305C014239D0A07840F00100D5
:10424000A07022E0A07840F00100A070A06DC1191C
:104250004810C21700EB527005EBE00220F0070097
:10426000C0EB6100174913780831405C03401DE042
:10427000FFE7A078400000F0FE00A070A06D00886D
:1042800020F4504001F0C4FD58B1A06DC119481090
:10429000C21700EB527005EBE00220F00700137824
:1042A00000E004E0C0EB6100805D03431370A06D8B
:1042B000801CA065BDE8F08168000020A49FFFF786
:1042C00078A60020C664010800100020F0B51D4D3E
:1042D0001B4905EBD00600F0070430780A461A4E59
:1042E000927801F17403345D4F7A5206120E9B7876
:1042F0002040012F07D0012B15D08A7000281DD136
:1043000042F0010019E08A7058B90C8C05EBD40515
:1043100004F007042D78345D254202D042F00102FA
:104320008A70012B0AD1064A7432128818B1D0075C
:1043300001D0002001E002F001008870F0BD000013
:104340006800002000100020C66401082DE9F0413B
:104350002E4C2F4FA06D3844C0F34F0001F0B6FD36
:104360002C4DD0B1A0784000A070A06D008820F442
:10437000504001F04DFDA0BBA06DC1194810C217FF
:1043800000EB527005EBE00220F00700C0EB61008B
:1043900021491378405C034022E01F4E607A083EBA
:1043A0000128A0784FEA4000A070A06D008820F49A
:1043B00050401BD001F02CFD98B1A07840F00100D6
:1043C000A070A06DC1194810C21700EB527005EB28
:1043D000E00220F00700C0EB61001378805D03432A
:1043E0001370A06D801CA065BDE8F08101F010FD88
:1043F0000028F6D0208C094901EBD00100F007001D
:104400000978305C0142D8D1EBE700006800002059
:10441000A49FFFF778A60020CE64010800100020BA
:104420002DE9F0412C4C2F4F2C4DA0782C4EC1077C
:104430002046806D3844C0F34F0013D001F046FD94
:10444000C0BBA06DC1194810C21700EB527005EB3C
:10445000E00220F00700C0EB61001378805D0343A9
:10446000137033E001F032FD1D4B1F4A08336FF427
:10447000D05100B3D4F858C0674478104FEAE07EBA
:1044800000EB5E7005EBE00520F00700C0EB670075
:1044900095F800E0C05C0EEA000E85F800E0BCF87C
:1044A000000001EAD001114400F007000A78305CF6
:1044B00002430AE00AE0A06D008801EAD00111443D
:1044C00000F007000A78185C02400A70A06D801C9A
:1044D000A065BDE8F08100006800002078A60020FB
:1044E000C6640108A49FFFF7001000202DE9F041E9
:1044F000264C294F264DA078264EC1072046806DB8
:1045000038442FD0C0F34F0001F0E0FC234B6FF490
:10451000D05258B1A06D008802EAD001194400F0D1
:1045200007000A78305C02400A7029E0A16DCE19BC
:104530007010C71700EB577005EBE00520F007007F
:10454000C0EB6600134E2F78083E805D07432F7046
:10455000088802EAD001194400F007000A78305CAC
:104560000243E1E74110CA1701EB527105EBE1028A
:1045700021F00701C1EB60001378805D03401370E8
:10458000A06D801CA065BDE8F081000068000020DF
:1045900078A60020CE640108A49FFFF70010002039
:1045A0002DE9F0472C4FB878C00751D00EF0BCFB76
:1045B0000646B86DB846001DB8650FF0BBF987B266
:1045C00098F800000021FF280BD00C46D8F85810AE
:1045D000B5B208390126A1464FF6FF7AC8F858103F
:1045E00021E0002007E036F9101000F101004D191C
:1045F00044EBE17480B2B842F5D3D8F858000838DB
:10460000C8F8580014E0D8F85810091FC8F8581016
:104610000AEA0611A8F80E100EF086FB451949EBC0
:104620000404761CB6B2BE42EDD3FF2188F8001018
:104630003A46002328462146FBF708FE4446C8F8C0
:10464000640010F075FBA06D001DA065BDE8F0874B
:10465000B86D0C30B865F9E76800002030B440F25E
:104660000D21184C00FB01F304EB4302517804299F
:1046700020D008DC01291FD0022920D0032919D11C
:1046800030BC00F00FB9052903D0062901D010294C
:1046900010D1B2F8000200280CD00B4914F8130016
:1046A0000988884206D192F80E1440F20E4041F07B
:1046B0000101815430BC704730BC00F043B830BCBD
:1046C00000F098B878B60020F62800202DE9F041D7
:1046D000074640F20D201949784301EB40040026BB
:1046E000B4F80C0404F20E45C82804D394F80E0460
:1046F00040F0020016E0B4F80A0400281CD0A4F828
:104700000A64B4F80012042904D294F80E0440F0AC
:10471000040007E02046FCF7C3FC28B194F80E041F
:1047200040F00800287005E005490220087038466E
:10473000FFF794FFA4F80062BDE8F08178B600208E
:10474000310100202DE9F04740F20D214843264970
:10475000DFF890A001EB4006B6F8000200283FD039
:1047600096F80280B6F81614B6F81804FFF7C8FBDE
:1047700087B200241D4804E03119C9780155641C32
:10478000A4B24445F8D3B6F91654814611E019F89D
:104790000430641CA4B2082D01DD082000E0284686
:1047A000C2B23946504610F0F6FC083D08372DB22B
:1047B000BFB2002DEBDC00200A490D4A07E0B6F835
:1047C00018440B7802EBD404401C237080B240459F
:1047D000F5D396F80E1440F20E4041F001018155D8
:1047E000BDE8F08788C7002078B60020C0C600204A
:1047F000001000202DE9F04740F20D2148432649E2
:10480000DFF890A001EB4006B6F8000200283FD088
:1048100096F80280B6F81614B6F81804FFF770FB85
:1048200087B200241D4804E03119C9780155641C81
:10483000A4B24445F8D3B6F91654814611E019F8EC
:104840000430641CA4B2082D01DD082000E02846D5
:10485000C2B23946504610F09EFC083D08372DB2D2
:10486000BFB2002DEBDC00200A490D4A07E0B6F884
:1048700018440B7802EBD404401C237080B24045EE
:10488000F5D396F80E1440F20E4041F00101815527
:10489000BDE8F08788C7002078B60020C0C6002099
:1048A0000010002070B540F20D214843104901EB83
:1048B0004005B5F80002002819D000240D4E0BE089
:1048C00005EB4400C01CFCF701FAB5F818142144AC
:1048D000641C26F81100A4B2B5F81604A042EFD863
:1048E00095F80E1440F20E4041F00101415570BDA3
:1048F00078B600200010002070B5154640F20D2259
:1049000000FB02F30B4A002602EB43040A4A401C58
:10491000B2FBF1F1A4F80A64C0B2084A0EF03CFC04
:10492000B4F80002B0F5007F03D2411CA4F80012D5
:10493000055570BD78B60020C00E1602414900082A
:10494000012140F20D225043024A02EB4000A0F840
:104950000A14704778B600202DE9F041804640F2F5
:104960000D20134D08FB00F705EB470000F206444D
:10497000B0F8061400F205200646FCF791FB2188EA
:1049800040F2052201EB050C02EB4702491C030A29
:1049900021800CF8023021884B19491C2180985441
:1049A000228831464046BDE8F04100F003B80000DF
:1049B00078B60020024B13F810000AF0EBBC0000A0
:1049C00069690108F0B440F20D24194E00FB04F5AA
:1049D00006EB450440F2052C04F206440CEB4505B9
:1049E0004FF0010C049FA4F800C07155218801EB21
:1049F000060C491C21800CF8052021881A0A01EBBD
:104A0000060C491C21800CF8052021888A19491CB4
:104A10002180535521883A0A8B19491C21805A5507
:104A200021888A19491C21805755F0BCFFF794BF93
:104A300078B60020F0B440F20D241B4E00FB04F5C4
:104A400006EB450440F2052704F2064407EB450552
:104A50000127278071552188052701EB060C491C89
:104A600021800CF805702188170A01EB060C491CFF
:104A700021800CF805702188DFF830C08F19491C9F
:104A800021807A553CF813100A0A21888F19491C95
:104A900021807A5521881CF813208B19491C21800C
:104AA0005A55F0BCFFF758BF78B600200010002020
:104AB000F0B440F20D241B4E00FB04F506EB450458
:104AC00040F2052704F2064407EB4505012727803D
:104AD00071552188062701EB060C491C21800CF832
:104AE00005702188170A01EB060C491C21800CF87F
:104AF00005702188DFF830C08F19491C21807A5554
:104B00003CF813100A0A21888F19491C21807A5514
:104B100021881CF813208B19491C21805A55F0BCA0
:104B2000FFF71ABF78B60020001000202DE9FF5FC4
:104B3000D81D4FEAD00A009E40F20D2046433D4862
:104B400040F2052700EB460B0BF2064407EB460646
:104B500001272780815521880F2701EB000C491C74
:104B600021800CF806702788110A07EB000C7F1CC7
:104B700027800CF8061021884FF000080F18491CF8
:104B80002180BA5521881D460A18491C218002F847
:104B900006802188DFF898900A18491C21809355D7
:104BA00021880844491C218000F806A019460E9867
:104BB000FFF7A6F9074600201F4A204B06E00E9992
:104BC00000EBD101895C1954401C80B25045F6D3EA
:104BD0000FE0082D01DD082000E02846C2B2B9B27E
:104BE000164810F0C9FA083D083709F8010B2DB234
:104BF0003FB2002DEDDC00204FF4FF770C4D0D4A45
:104C00000CE0BBF80614B94210D201EB020C2B5C8D
:104C1000491C2180401C0CF8063080B25045F0D36E
:104C2000009804B0BDE8F05FFFF796BEBDE8FF9FB7
:104C300088C7002078B6002000100020C0C60020E1
:104C40002DE9F00F824640F20D202D4E0AFB00F4B4
:104C500006EB440940F2052509F2064005EB440441
:104C60000125DDF820B00580315505881021AF19E8
:104C70006D1C058039550588110AAF196D1C05801A
:104C8000395501884FF0000C8D19491C01802A55B7
:104C900001888A19491C018002F804C001888A1918
:104CA000491C0180135501885A008D19491C018047
:104CB0002A5500211AE0B9F80624B2F5FF7F1CD26C
:104CC000DFF840800BEB010502EB060C38F815709D
:104CD000521C3F0A02800CF80470028818F8155024
:104CE0009719521C0280491C3D5589B29942E2D362
:104CF0005046BDE8F00FFFF72FBEBDE8F00F70473C
:104D000078B600200010002070B5154600EB800238
:104D100002EB40240C4A002302EB44040B4A401CE3
:104D2000B2FBF1F1A4F80632C0B2094A0EF034FA2F
:104D3000B4F80002B0F5007F04D20146401CA4F88C
:104D400000020D5570BD0000ACBE0020C00E160262
:104D5000554D000800EB800202EB4020034A012180
:104D600002EB4000A0F8061270470000ACBE002025
:104D70000B4910B50A6E4FF6FC7342EA0020CA894F
:104D8000104400F01F0208660A8203EAD00048823D
:104D900004490144D1E90001FBF7E2FA10BD00002B
:104DA00068000020001000202DE9F04113463E4A23
:104DB0004FF6FC76A0F1820E146E4FF0000C44EA20
:104DC0000323D489BEF10F0F234403F01F0406EA26
:104DD000D306136659D2DFE80EF0085811581C5854
:104DE00026582F58385842584C0001F00F006146A1
:104DF0002246FBF7A2FA07460F2006E0C8B261463A
:104E00002246FBF79AFA0746FF20A040C043C51789
:104E10003EE0C1F30B0061462246FBF78EFA0746DF
:104E200040F6FF70F1E788B261462246FBF785FA4B
:104E300007464FF6FF70E8E7C1F3130061462246CC
:104E4000FBF77BFA07461948DFE721F07F40614610
:104E50002246FBF772FA07466FF07F40D5E721F054
:104E6000704061462246FBF768FA07466FF07040D3
:104E7000CBE70846654622466146FBF75EFA0746E1
:104E80004FF0FF30A040C04302E0936D9B1D93653F
:104E9000074A3244D2E9004304402B403C430B43D1
:104EA000C2E90043BDE8F08168000020FFFF0F0069
:104EB000001000202DE9F05F29498878C0074AD00A
:104EC0000DF012FF04460DF00FFF83460DF00CFFAE
:104ED00082460EF02FFD1FFA80F90022214FDFF8E5
:104EE00088C034E00BEB02010CEBD10001F00701AC
:104EF0000578795CC2EBC2030D4305700021534471
:104F000065180CEBD50005F0070500787D5D28429B
:104F100009D05D180CEBD50005F0070506787D5D1E
:104F20002E4306700DE058180CEBD005DFF83480E6
:104F300000F0070008F108082E7818F80000064075
:104F40002E70491CC9B20729DAD9521CD2B24A457F
:104F5000C8D3BDE8F09F886D10308865F9E7000080
:104F600068000020C664010800100020F8B505465E
:104F700030481E461446DDE906130288052C33D05E
:104F80000ADC4FF4FA60012C1FD0022C1DD0032C38
:104F90001ED0042C06D11BE0062C2BD00F2C2FD0BA
:104FA000102C3AD0234941F26240091D088040F29A
:104FB0000D2045432048002100EB450000F58160AD
:104FC0008171012101708180F8BD814202D9EEE733
:104FD0007D29ECD80029EAD00091D1B2334622468F
:104FE0002846FFF7EFFCE2E7D1B232462846FFF74A
:104FF00021FDDCE7D1B232462846FFF759FDD6E75E
:10500000B1F5F66FD3D80029D1D00093CBB2D1B28D
:1050100032462846FFF78AFDC9E77B29C7D8002911
:10502000C5D00093CBB2D1B232462846FFF708FE76
:10503000BDE70000F628002078B600202DE9F843EF
:10504000044600214FF0006000F0B6F84FF4806095
:1050500000F0A8F825208DF8000002268DF80160E8
:1050600000258DF802508DF80340684600F068F87E
:105070000E208DF800004FF003088DF801808DF8A8
:10508000026001268DF80360684600F059F81D2083
:105090008DF8000005208DF801008DF802508DF884
:1050A0000340684600F04CF81E208DF800000427ED
:1050B0008DF801708DF802508DF80340684600F0BD
:1050C0003FF832208DF8000006208DF801008DF8A1
:1050D00002508DF80340684600F032F82E208DF81B
:1050E00000008DF801508DF802608DF8036068466D
:1050F00000F026F81C208DF800008DF801508DF886
:1051000002508DF80340684600F01AF828208DF808
:1051100000008DF801708DF802508DF8034068464C
:1051200000F00EF817208DF800008DF801808DF842
:1051300002508DF80340684600F002F8BDE8F8839D
:1051400070B50F23C278017801244FF0E025DAB161
:10515000124A126802F4E062C2F5E062120AC2F179
:105160000406D3404278B24086781E400C4B16436A
:105170003201CA54007800F01F018C40400905EB51
:105180008000C0F8004170BD01F01F008440480954
:1051900005EB8000C0F8804170BD00000CED00E020
:1051A00000E400E00249084302490860704700003B
:1051B0000000FA050CED00E0024A114001430248EC
:1051C0000160704780FFFF1F08ED00E00A4901EB16
:1051D000D00100F007000A780849085C084902403D
:1051E000887800F001031A4302D040F0010001E08A
:1051F00000F0FE008870704700100020C6640108AF
:10520000680000202DE9F041274D284FA86D384453
:10521000C0F34F0000F05AFE254ED0B1A86D0088B3
:1052200020F4504000F0F4FD08B100242BE0A86DFC
:105230000124C1194810C21700EB527006EBE002BE
:1052400020F00700C0EB61001A491378405C03406E
:1052500018E0A86D0024008820F4504000F0D8FD2C
:1052600088B1A86DC1194810C21700EB527006EB47
:10527000E00220F00700C0EB61000E491378083906
:10528000405C03431370A878C10709D1012C07D0F3
:1052900020F00100A870A86D801CA865BDE8F08111
:1052A00040F00100F6E7000068000020A49FFFF72F
:1052B00078A60020CE6401080B4901EBD00100F074
:1052C00007000A780949085C09490240887800F01B
:1052D00001035B1E1A4203D000F0FE008870704785
:1052E00040F00100FAE7000000100020C664010849
:1052F000680000202DE9F041274D284FA86D384463
:10530000C0F34F0000F0E2FD254EC0B1A86D0024AF
:10531000008820F4504000F07BFD50BBA86DC119FF
:105320004810C21700EB527006EBE00220F00700B5
:10533000C0EB61001B491378405C034018E0A86D86
:10534000008820F4504000F063FD98B1A86D01245E
:10535000C1194810C21700EB527006EBE00220F0B2
:105360000700C0EB61000F4913780839405C034324
:10537000137000E00024A878C10709D1012C07D0E0
:1053800000F0FE00A870A86D801CA865BDE8F08143
:1053900040F00100F6E7000068000020A49FFFF73E
:1053A00078A60020CE640108F0B5DFF890E0244E26
:1053B00071469EF80A508B78224900F00702A6F148
:1053C000080401EBD001012D2ED19EF80950012DCA
:1053D00004D00A2828D2D80728D1F0BD174DDFF80D
:1053E00064C00A282F8C07F007050CEBD70706D2FC
:1053F000D807F2D03878735D1840387016E03F78DF
:10540000655D2F42E9D0DB0714D00B78A25C134313
:105410000B700D4A9EF80B1022F81100491C8EF8F3
:105420000B10F0BD0870F0BDD80703D00878A25C5F
:105430001043F7E70878B25C1040F3E768000020FB
:10544000CE640108001000203806002030B50F4C53
:10545000E078A17800EB012080B200F02DFB0C4930
:1054600001EBD005E078A17800EB012080B200F0DC
:1054700023FB084900F00700085C297808402870E1
:105480000620054960700120488130BDB4A100208C
:1054900000100020CE6401081E01002030B50F4C22
:1054A000E078A17800EB012080B200F005FB0C4908
:1054B00001EBD005E078A17800EB012080B200F08C
:1054C000FBFA084900F00700085C297808432870B7
:1054D0000620054960700120488130BDB4A100203C
:1054E00000100020C66401081E01002070B5374B73
:1054F00018890B2805D13649087937280FD0382864
:105500000DD00FF031FB33498878602854D025DC6A
:10551000102839D01DDC90B301282BD138E02E4A59
:105520008C794D79145D555D04EB0514CD79097ABC
:10553000555D515C2D0305EB0121214499813728EC
:1055400003D0BDE87040FCF73FBFBDE87040FCF7FA
:105550005BBF112820D041280CD125E063282DD035
:1055600004DC612824D0622804D129E077281FD0E8
:10557000872815D0152048700120588170BDFFE79D
:10558000BDE8704000F074B8BDE8704000F09EB90E
:10559000BDE8704000F022B8BDE8704000F046B9A8
:1055A000BDE870400DF054BCBDE870400FF004B889
:1055B000BDE870400DF062BC012002E0022000E076
:1055C0000320BDE87040FDF72FBA00001E01002047
:1055D00016A40020B4A100201C6701082DE9F043A7
:1055E000DFF87CC0DFF87C8002208CF80100B8F87E
:1055F0000E000021A0F5004087B2A8F80E70084602
:10560000194DDFF8689098F8056011E03B1819F81B
:1056100003400CEB400305EB141204F00F04127866
:105620009A702C5D401C22441144DC70C9B280B2D7
:10563000B042EBD30CEB40020323C91C9370C9B2F8
:1056400005EB111301F00F011B78D370695C117128
:10565000042101EB4000A8F80A00BDE8F083000037
:10566000B4A100201E0100200867010800600008A6
:105670002DE9F04F5A480221002441700179C07889
:1056800001EB002080B200F069FA564941F29077B0
:10569000B842888103D0A0F5B851D03968D1B8425A
:1056A00066D1514800252E4690F80090DFF83CB1B5
:1056B00030E00BEB460141F204485B4631F808004C
:1056C00000F04CFA4008A0F5FE41E0390DD1761CFF
:1056D000F6B203EB460103EB450231F808006D1CFE
:1056E000ADB233F81010D15304E003EB450233F8A8
:1056F0001010D1536D1CA0F5C061ADB26E2907D852
:1057000003EB400003EB450140886D1CC853ADB26C
:10571000761CF6B24E45CCD33348801C10351FFAA8
:1057200085F890F800A0002520E071190BEB4101ED
:1057300041F20440D946085A00F0BEF9020900F0CF
:105740000F0039F81220012101FA00F3934308EB0E
:10575000151209EB4200384405F00F03028801FAE4
:1057600003F112D08A436D1C0280EDB25545DCD3A3
:10577000DFF8708000201E4DDFF864C0DFF8749001
:10578000B8F80C7098F8056013E00A43EBE73A1894
:105790000CEB400312F80910401C05EB111201F04C
:1057A0000F0112789A70695CD97011442144CCB20F
:1057B00080B2B042EBD30CEB400103228A70E41CB0
:1057C000E2B205EB121302F00F021B78CB70AA5C59
:1057D0000A71042101EB4000A8F80A00BDE8F08F2F
:1057E000B4A100201E010020002400200010002091
:1057F00008670108001000200A48C178807801EB92
:105800000020094980B28881A0F56060023805D087
:10581000C82801D00FF012B9652000E001200FF078
:1058200057B90000B4A100201E0100202DE9F04767
:10583000214F234A214E3879F9784FF0010900EBC6
:1058400001200A2111701F49002286F801900A7078
:10585000A0F50040B081144606F11005DFF868801D
:1058600020E0B0890219D10A29706878814207D1F5
:1058700038198379484202EBC02128F811300FE033
:105880000FF04CFC28780DF067FB28786870B2891F
:1058900039192244404202EBC022897928F81210BB
:1058A000641CA4B270798442DBD306207870A6F819
:1058B0000A90BDE8F0870000B4A100201E0100207E
:1058C000E011002070000020B091002070B50E4D56
:1058D0000E4C00232879E9780D4E00EB0120A081C1
:1058E00009E0A089184480B200F038F9E9185B1C7F
:1058F000897981559BB260798342F2D30620687022
:105900000120608170BD0000B4A100201E010020B4
:105910000010002070B50F4D04220F4CA978E878D4
:1059200002EB01210844A08100230C4E09E0A0896C
:10593000184480B200F012F9E9185B1C49798155CE
:105940009BB260798342F2D30620687001206081A7
:1059500070BD0000B4A100201E0100200010002036
:105960002DE9F04734488078C00763D00DF0DCF9AA
:10597000B0F800900DF0D8F9B0F900A00DF0D4F90E
:1059800004460DF0D1F9B4F90050B4F90860B4F947
:10599000188095FBF6FCB4F90E60E7880CFB068CCA
:1059A000B4F81080B4F90A30B4F90C20A6EB08065C
:1059B00066447E43A683678A04F10E01A7EB0906BD
:1059C000E681B4F90440B1F90660C4F10107664309
:1059D00007FB0A6403FB025592FBF5F624B28C80A8
:1059E0005343B1F9087093FBF5F23C44B1F90670EA
:1059F000B1F90C307F4204EB4704664302FB0362BB
:105A00004A81B0F90020B1F90E301A4447F6FE730E
:105A10009A4201DD5A1C04E0084B9A4201DC0380E3
:105A200000E0028048898881C88808818888C88009
:105A300008884880BDE8F087680000200080FFFFEC
:105A400030B5184C022060702079617900EB01209C
:105A500080B200F031F8144901EBD000617905788B
:105A6000207900EB012080B200F026F80F4900F009
:105A70000700085C054201D0312000E03020A07012
:105A80000320E070A0780A49C01CC0B201EB1012DC
:105A900000F00F0012782271085C06496071052041
:105AA000488130BDB4A1002000100020C664010868
:105AB000086701081E010020A0F58041B1F5C06F04
:105AC00002D2A0F5605047E0A0F58C41B1F5C05F6F
:105AD00002D2A0F5F0503FE0A0F5BC41FF2902D86A
:105AE000A0F5B24038E0A0F5C0414FF400729142F9
:105AF00002D2A0F5A2402FE0A0F5CA41FF2902D8AA
:105B0000A0F5C24028E0A0F5CE41B1F5806F01D2EA
:105B100088B27047A0F5D641B1F5406F02D2A0F52A
:105B2000AE4019E0A0F51843A0F5E44189B29342D4
:105B300003D3A0F51743FF2B01D808467047A0F503
:105B4000C641914202D2A0F5BA4005E0A0F5C44199
:105B5000FF29F3D8A0F5A84080B27047A0F5804196
:105B6000B1F57A5F02D2A0F5005047E0A0F50042FF
:105B7000A0F5D04189B2B2F5407F06D34FF6C0728E
:105B8000904204D3B0F5034F01D208467047A0F508
:105B90000C41E0397F2901D888B27047A0F50D414A
:105BA0006039B1F5C07F02D201F5207026E0A0F582
:105BB0000C41A0395F2902D801F180001EE0A0F558
:105BC0000B41C0393F2902D801F1A00016E0A0F531
:105BD0000841BF2902D8A0F507400FE0A0F5084111
:105BE000C03940F2FA22914202D801F5A06005E0E6
:105BF000A0F50C413F29D0D801F5F07080B2704774
:105C00000749C878102809D0112805D015204870F8
:105C1000044901204881704709F030BAFFF710BFEE
:105C2000B4A100201E0100200B4800B502790EF03F
:105C30009BFF352A08D0382A0AD008490620487028
:105C400007490120488100BD5DF804EBFFF7D8BF8C
:105C50005DF804EB08F00ABE16A40020B4A10020F1
:105C60001E010020364810B5364B01881980408847
:105C700058801878344900F001028A60334AC0F332
:105C800040041460C0F380044C60C0F3C0040C6096
:105C9000C0F300145460C0F340141461C0F38012C8
:105CA0004A612B4AC0091060587800F00104546022
:105CB000C0F340049460C0F38004D460C0F3C00417
:105CC0001461C0F300145461C0F340149461C0F334
:105CD0008014D4611F4AC0091060987800F0010454
:105CE0005460C0F340049460C0F38004D460C0F3F7
:105CF000C0041461184AC0F300141460C0F34014C7
:105D00005460C0F380149460C009D060D87800F06B
:105D100001031361C0F340035361C0F38003936137
:105D2000C0F3C0028A61C0F300128A61C0F340125E
:105D30008A61C0F380128A61C009886110BD0000C9
:105D4000A01000202E0000209C012242AC01214224
:105D5000808122428C8121428001234210B50121A1
:105D60007C2009F00BF90121084609F007F908F039
:105D7000F5FDFFF777FF08F0B7FD00F05BF802498B
:105D80000120086010BD0000A001234270B51C4C2A
:105D90001C4DA06D2844C0F34F0000F097F8002878
:105DA000A078194A4FEAC07001D0A8B126E00028B7
:105DB00011D0A06D41194810C31700EB537002EBCE
:105DC000E00220F00700C0EB610010491378405C4E
:105DD00003431370012070BDA06D41194810C31713
:105DE00000EB537002EBE00220F00700C0EB610013
:105DF000064913780831405C03401370002070BDE1
:105E000068000020A49FFFF778A60020C664010860
:105E10000649074A01EBD00100F007000978105C41
:105E2000014201D00120704700207047001000207F
:105E3000C66401087FB501212048FEF733F84FF40E
:105E40008074ADF8004004218DF8031002258DF810
:105E5000025069461A48FDF7D9FF08210220FDF7D4
:105E6000C1FF2046FCF71AFB019400248DF808407E
:105E70000C208DF8090001268DF80A6001A8FCF7B6
:105E800013FB17208DF80C008DF80D408DF80E4097
:105E90008DF80F6003A8FFF753F94FF46070ADF869
:105EA000000014208DF803008DF802506946054863
:105EB000FDF7ACFF044804607FBD00000002300025
:105EC0000008014000180140A40123420649074A86
:105ED00001EBD00100F007000978105C014201D00D
:105EE000012070470020704778A60020C664010892
:105EF0000A4A0020108002F17000028842B9821E16
:105F000011800749074AC96D1144C1F34F0101804F
:105F1000024900887231088070470000182800206C
:105F200068000020A39FFFF770B50024FDF79CFEDA
:105F30001B491C4AA02031F8143022F81030641C90
:105F4000401C80B2A4B2E028F5D340F264504FF474
:105F5000B96331F8145022F81050641C401C80B210
:105F6000A4B29842F5D340F6F6004FF4106331F82E
:105F7000145022F81050641C401C80B2A4B2984205
:105F8000F5D341F2C80041F2582331F8145022F8F9
:105F90001050641C401C80B2A4B29842F5D370BD6E
:105FA000B0910020001000200E4910B50878104A6A
:105FB00000F0FE0040F0020008700B49002008804D
:105FC0000A490872087310708872487208F0F4FE6B
:105FD00008F02AFF00F00EF8FBF79CF8BDE810402F
:105FE0000BF098BDE0110020182800206800002068
:105FF00031010020C0210148FAF758BA38080020C2
:106000001000D8BA000000002020202020202020EE
:106010002020202020202020202020202020202080
:106020002020202020202020202020202020202070
:10603000F409FF0BF401E703640EC70EDC0EFF0E3C
:106040009001FE03000000000000000000000000BE
:106050008300000000000000000000000F00FFFFB0
:10606000FFFFFFFFFFFFFFFFFFFFFFFFFFFFFFFF40
:10607000FFFFFFFFFF000000000000000000000025
:106080000000000000000000000000000000000010
:106090000000000000000000000000000000000000
:1060A00000000000000000000000000000000000F0
:1060B00000000000000000000000000000000000E0
:10E4D0002DE9F047BD4CDFF8F8820920617BBD4D86
:10E4E000002601290AD095F8E011092909D0F7F78B
:10E4F0005BFD98F80000002869D061E1667385F83B
:10E50000E0018146B44801780127022900D0077054
:10E51000207A58B9277206F09BF806F0B7F843F650
:10E520007E61884202D985F8E0912CE1207B38B9E0
:10E5300095F8E00100F0F70040F0040085F8E001F4
:10E54000A648A06598F8000008B9F7F78BFBA16D05
:10E550000888020A5E2A70D031DC6FD2DFE802F050
:10E56000E76E6E6E6E6E9B6E6E6E6E6E6E6EB46EDF
:10E570006E6E6E6E6E6E6E6E6E6E6E6E6E6E6E6EBB
:10E58000CBCBCBCBCBCBCBCBCBCBCBCBCBCBCBCBDB
:10E59000D0D0D0D0D0D0D0D0D0D0D0D0D0D0D0D07B
:10E5A000D5D5D5D5D5D5D5D5D5D5D5D5D5D5D5D51B
:10E5B000DBDBDBDBDBDBDBDBDBDBDBDBDBDB7F2AB8
:10E5C00073D017DCA2F15F02202A37D200E0F1E01D
:10E5D000DFE802F0A1A6A6A6A6A6A6A6A6A6A6A6BF
:10E5E000A6A6A6A6A6AEAEAEAEAEAEAEAEAEAEAE73
:10E5F000AEAEAEAEDC2A1FD028DCCC2A0BD012DCAB
:10E60000C82A08D008DCB02A71D0C52A03D0C62A8F
:10E6100001D0C72A12D190E0C92A03D0CA2A01D05A
:10E62000CB2A0BD189E0D82A06D008DCCD2A71D0BC
:10E63000CF2A6FD0D52A01D184E06CE075E0D92AC9
:10E6400003D0DA2A7ED0DB2A6FD17BE0EC2A7ED0A1
:10E6500010DCE82A7BD006DCDD2A73D0DF2A71D0FB
:10E66000E52A62D173E0E92A71D0EA2A6FD0EB2A59
:10E670005BD16CE0F12A6FD006DCED2A67D0EF2A7F
:10E6800065D0F02A7CD167E0F22A65D0F32A63D006
:10E69000FF2A75D165E02071891CA1650888000AF0
:10E6A000802803D086285FD10BE041E0A078C00726
:10E6B00002D005F0C3FE57E0891CA16505F04CFDB2
:10E6C00052E002F097FF4FE06071891CA165088855
:10E6D000000A802802D0862846D109E0A078C00729
:10E6E00002D005F0FFFD3FE005F0A2FC3CE03FE07A
:10E6F000F2F7EEFC38E0C0F30B00F5F735FD33E040
:10E70000C0F30B00F5F7E2FD2EE0C0F30B00F2F7CB
:10E71000C5F929E011E0C0F30B00F2F78FFA23E00E
:10E72000C0F30B00F6F752FD1EE029E00AE022E0FC
:10E73000C0F30B00F6F7C0FD16E0C0F30B00F6F7D0
:10E7400033FE11E0C0F30B00F2F7F0FA0CE0C0F377
:10E750000B0000F02FFE07E0C0F30B0001F05CF8A7
:10E7600002E0C0B206F034F9A06D801CA065EEE6B0
:10E77000891CA165EBE6C0B21C2804D00F2802D08A
:10E78000F4F7CEFAE3E61649164A08881080921E7E
:10E790001080921E10800E80277395F8E00100F023
:10E7A000FB0040F0080085F8E0010848743006805E
:10E7B000C67005E000F084FEF7F754FA00F042FE60
:10E7C0000948A0F8026EBDE8F0870000680000204C
:10E7D0001F01002000100020310100205C600008B3
:10E7E00036010020182800200010002030B400203E
:10E7F0001C4A1D4BA02132F8114023F81040401C48
:10E80000491C89B280B2E029F5D340F264514FF43B
:10E81000B96432F8115023F81050401C491C89B2D9
:10E8200080B2A142F5D340F6F6014FF4106432F8FD
:10E83000115023F81050401C491C89B280B2A142EB
:10E84000F5D341F2C80141F2582432F8115023F8AF
:10E850001050401C491C89B280B2A142F5D330BC93
:10E86000F5F73CBA00100020B091002070B51A49AD
:10E8700048F25A00801C31F8022F80B20F2AF9D1D9
:10E8800016490222C3B24A7031228A70020A144821
:10E8900000EB121402F00F022478CC70865C00EBBF
:10E8A00013120E71157803F00F024D71825C8A719C
:10E8B0000323CB71313433192B441A44D21CD2B206
:10E8C00000EB121302F00F021B780B72805C48728F
:10E8D00004490920488170BD5A600008B4A1002095
:10E8E000086701081E010020F8B54FF47C46ADF81A
:10E8F000006004248DF8034001258DF8025069461C
:10E900001248F5F783FA4020ADF800008DF8034077
:10E910008DF8025069460E48F5F778FA4FF47F40BB
:10E92000ADF800008DF803408DF8025069460948A3
:10E93000F5F76CFAADF800608DF8034002208DF811
:10E94000020069460448F5F761FAF8BD000C014081
:10E9500000100140001401400018014038B54FF488
:10E960001840ADF8000001248DF8024010258DF804
:10E97000035069461848F5F749FAF820ADF8000049
:10E980008DF802408DF8035069461448F5F73EFAB9
:10E990004FF44E50ADF800008DF802408DF8035052
:10E9A00069460F48F5F732FAFF20ADF800008DF800
:10E9B00002408DF8035069460A48F5F727FA7F2090
:10E9C000ADF800008DF802408DF803506946064806
:10E9D000F5F71CFA38BD000000080140000C0140AA
:10E9E0000010014000140140001801402DE9F041E1
:10E9F0002C4B054603F16002012907D09D4246D108
:10EA000003F070FBBDE8F04100F0D6B93220A861F8
:10EA1000A86B0A2804D240F2AF464EF660210DE002
:10EA2000642802D27726204908E042F21071884219
:10EA300002D20B261D4901E01D490026B1FBF0F072
:10EA4000401E84B2E0074FF0640103D0601C3227FF
:10EA5000784301E032206043B0FBF1F087B29D4281
:10EA600009D100F0CBF92B7A3A4621463046BDE871
:10EA7000F04103F0CBBA954211D100F0F7F92B7AAF
:10EA80003A4621463046BDE8F04103F043BB904290
:10EA900005D103F0ABFBBDE8F04100F0C5B9BDE81E
:10EAA000F081000038080020C0270900808D5B003D
:10EAB00000A24A042DE9F0413B4EB06D4189008926
:10EAC00061F31F2085B2B5F5A06F37D0A5F5A06022
:10EAD000013867D1354C364F4FF00008A580B0782B
:10EAE000C1073148806D00F108003ED0216803293C
:10EAF00039D004F01FFFE06104F01CFFC4E90405F5
:10EB0000206818B1D4E90701814248D00121216071
:10EB1000E069206207EBD50005F00703254D027878
:10EB2000EB5C1A4302702172E06947F6FF72904273
:10EB300097F8F20105D340F0200004E01B4C603C44
:10EB4000C9E700F0DF0087F8F20197F8E30100F071
:10EB5000DF0087F8E301C4F80C8021720121204610
:10EB600000F02AF81BE0B06519E0B0652068B0B18C
:10EB70006069A84213D10F4B07EBD50005F00702DF
:10EB8000083301789A5C1140017000212046C4F8D6
:10EB9000008000F011F860212046F1F787FCB06D8D
:10EBA000801CB065BDE8F081680000209808002056
:10EBB00000100020C66401082DE9F0412C4B0546E9
:10EBC00003F16002012907D09D4246D103F08AFA81
:10EBD000BDE8F04100F0F0B83220A861E8690A28E9
:10EBE00004D240F2AF464EF660210DE0642802D216
:10EBF0007726204908E042F21071884202D20B26A3
:10EC00001D4901E01D490026B1FBF0F0401E84B211
:10EC1000E0074FF0640103D0601C3227784301E025
:10EC200032206043B0FBF1F087B29D4209D100F081
:10EC3000E5F82B7A3A4621463046BDE8F04103F02C
:10EC4000E5B9954211D100F011F92B7A3A462146E7
:10EC50003046BDE8F04103F05DBA904205D103F0C3
:10EC6000C5FABDE8F04100F0DFB8BDE8F081000072
:10EC700038080020C0270900808D5B0000A24A04EC
:10EC80002DE9F041294FB86D4289018962F31F21B6
:10EC90008DB2B5F5A06F28D0A5F5A061013943D19B
:10ECA000234C4FF00008A580B978C90728D004F09C
:10ECB00041FE86B204F03EFE4FF4004180B28E4227
:10ECC00032D2884230D2B0422ED36561216879B108
:10ECD000E169814202D1A169B14222D0C4E9066052
:10ECE0000121204600F026F81BE0114C603CD8E7DB
:10ECF00084F80880C4E90660012001462060F0E73E
:10ED00000830B865206860B16069A84209D1002167
:10ED10002046C4F8008000F00DF860212046F1F78D
:10ED2000C5FBB86D801CB865BDE8F08168000020A7
:10ED3000980800202DE9F0411E4A044602F16000C7
:10ED4000012907D094422BD103F0CCF9BDE8F04162
:10ED500000F032B8A18B4FF0FF3303EB41039EB2BA
:10ED6000238B49005B4201EB430148F69F478DB27C
:10ED7000944209D100F042F8237A2A4631463846B7
:10ED8000BDE8F04103F042B9844211D100F06EF8C1
:10ED9000237A2A4631463846BDE8F04103F0BAB935
:10EDA000844205D103F022FABDE8F04100F03CB8FE
:10EDB000BDE8F0813808002038B500210D4802F088
:10EDC00083F90121102000F0D9F84FF40074ADF858
:10EDD000004010208DF803000320074D8DF802003D
:10EDE00069462846F5F712F821462846F5F786F8D1
:10EDF00038BD0000003401400010014008B5012179
:10EE0000102000F0BBF84FF40070ADF8000018209F
:10EE10008DF8030003208DF8020069460148F4F7DD
:10EE2000F5FF08BD0010014038B500210D4802F083
:10EE300013F90121042000F0A1F84FF40064ADF8AB
:10EE4000004010208DF803000320074D8DF80200CC
:10EE500069462846F4F7DAFF21462846F5F74EF8CA
:10EE600038BD0000002C01400008014008B5012118
:10EE7000042000F083F84FF40060ADF80000182083
:10EE80008DF8030003208DF8020069460148F4F76D
:10EE9000BDFF08BD0008014070B505F0EFFE224837
:10EEA000224C234DC078382822D008DC30280DD0E1
:10EEB000312810D0342813D0372828D113E0422825
:10EEC0001BD045281FD0462821D119E02079687130
:10EED000F6F792FC1BE020796871F6F71BFD16E04F
:10EEE00005F0A8FB13E005F033FEF6F7D7FA0EE0C5
:10EEF00005F02EFEF6F7AAFA09E003F0A9FF06E0F6
:10EF0000F6F792FE03E060796871F6F7EFFA698927
:10EF1000288901434FF0010002D1152161706881F9
:10EF200000212981A87170BD16A40020B4A1002081
:10EF30001E010020044A0029516901D0014300E06C
:10EF4000814351617047000000100240044A0029CB
:10EF5000D16901D0014300E08143D16170470000D5
:10EF600000100240044A0029116901D0014300E069
:10EF7000814311617047000000100240044A0029DB
:10EF8000916901D0014300E0814391617047000025
:10EF900000100240044A0029D16801D0014300E07A
:10EFA0008143D160704700000010024030B5204A14
:10EFB0005168204B11F00C0103D0042901D008291D
:10EFC00001D0036012E05168536801F470114FF0F2
:10EFD000020413F4803F04EB914102D053689B0379
:10EFE00001D5154B00E0134B5943016051680F23C5
:10EFF00003EA1111114B5C5C0168E1404160546807
:10F00000072505EA14241C5D21FA04F48460546881
:10F0100005EAD4241B5DD940C1605268032303EA8A
:10F020009232064B1B1F9A5CB1FBF2F1016130BDBD
:10F030000010024000127A0000093D000400002088
:10F04000034600205909094A01290AD002290AD099
:10F05000516A03F01F02012393400B4200D00120AC
:10F0600070471168F5E7116AF3E7000000100240ED
:10F070000149086070470000800442420A480221AA
:10F080004170312181703021C170017141710321C2
:10F0900081710649097BC1710449097901720449EA
:10F0A0000820488170470000B4A1002008670108CB
:10F0B0001E0100202DE9F05F2C4905468878C00725
:10F0C0004BD02B482B4B00EB450705F1E000A5F199
:10F0D000C802DFF8A4A0002607F5206700F00708A3
:10F0E00003EBD004372A3ED8894648792349EC28D7
:10F0F0000B6808D00A46EF2892680CD0FB2813D082
:10F10000FD2819D01FE08B46012B1CD1F3F7EAFA3A
:10F110001B4806600DE08B46012A14D1F3F76CFB07
:10F1200017480C3006600CE08B46012B0BD1F3F72F
:10F13000DBFBCBF8006006E08B46012A03D1F3F736
:10F140004DFCCBF8086027F8026BC9F824703E80AC
:10F1500020781AF808100840207005F55C50BDE8CA
:10F16000F05FF6F721B94F62F1E700006800002078
:10F170000010002000100020CE640108F8080020D4
:10F18000901C0020F0B51A491A4E1B4D8978CB0708
:10F1900000F50C5101F0070206EBD10123D000F578
:10F1A000C0631C4606EBD30304F007041F782C5DF4
:10F1B00027401F7000F518531C4606EBD30304F0DC
:10F1C00007041E782C5D26401E70A5F108040B78FC
:10F1D000A25C1343094A0B7002EB400000F580501B
:10F1E00000210180F0BD0878AA5C10400870F0BDD5
:10F1F0006800002000100020CE64010800100020EC
:10F200002DE9FC414A488178C9077DD0494C002549
:10F21000224694F80814484B484802F20F4C02F278
:10F220000E4201293BD194F80E14CE0701D18E076E
:10F2300033D5274684F8085411F00E0F2FD021F053
:10F240000E01117097F80F143B4A491CCEB20E32D2
:10F250008CF800601188142900D9142111808E4285
:10F2600006D890F8F01141F0010180F8F0114DE05E
:10F2700000F2EF1084F80F54C17941F01001C17110
:10F28000017841F02001017041F6BD71198041788B
:10F2900001F0FE0141F002014170BDE8FC8184F8FB
:10F2A0000F5490F8EF1101F0DF0180F8EF111D808D
:10F2B00090F8F01101F0FC0180F8F01194F80E14B0
:10F2C000CB0709D021F00101117090F8F61141F03F
:10F2D000100180F8F611E0E790F8F61104F5826667
:10F2E00001F0EF0180F8F6111348001F008830800C
:10F2F00004F020FBB07004F01DFBB08004F01AFB9A
:10F30000F08004F017FB00E00DE0308104F582642A
:10F3100028462289E188CDE90012A388A2782178C5
:10F32000F5F724FEB9E7816D10318165B5E700007E
:10F330006800002078B60020FA2800200010002085
:10F3400030B404460B4B002013F81050A54203D0F4
:10F35000401CC0B20228F7D303EB40035B7823B113
:10F36000012B05D130BCF5F7C7BA30BCF5F7CCBCE2
:10F3700030BC704769690108054A002112F8113054
:10F38000834203D0491CC9B20229F7D37047000059
:10F390006969010803F050BF054A002112F81130D5
:10F3A000834203D0491CC9B20229F7D37047000039
:10F3B0006969010807498978C90709D00649074BD7
:10F3C00001EBD00100F007000A78185C02400A70D7
:10F3D000704700006800002000100020CE64010883
:10F3E000164A10B49078C1071046806D23D010F8EB
:10F3F000021B906500880023020A114C862A0AD05D
:10F40000882A08D0802A0BD010BC41F6651140F63E
:10F410004170F6F76DBD01EB0020C0B2002103E0A2
:10F4200001EB0020C0B2E82101EB5000C0B224F88B
:10F43000103010BC7047001D9065FAE7680000208E
:10F440000010002030B580201C4A0021A0F1A0034C
:10F45000412B01D322F81010401C80B2E028F5D3D4
:10F460004FF4A0604FF4C063A0F26454652C01D344
:10F4700022F81010401C80B29842F5D34FF400607F
:10F480004FF41063A0F6F6040B2C01D322F81010F1
:10F49000401C80B29842F5D34FF480504FF4C874AA
:10F4A0004FF43D55A0F58053C83BA34201D922F843
:10F4B0001010401C80B2A842F4D330BD00100020D0
:10F4C000024800210180418070470000A010002008
:10F4D0002DE9F05F5E480088DFF878A100F07F003A
:10F4E0000627DFF874B100250124DFF870818AF85F
:10F4F00000004FF00209AAF26226052805D0022872
:10F500000DD0B8F8081069B12AE0A8F80850777053
:10F51000A8F80A4001F0DAFE8BF800901CE0A8F889
:10F5200008401DE098F8040004282ED003283AD0A3
:10F53000022847D0012853D0002824D14FF4165078
:10F5400005F0D4FDA8F8085077704246A8F80A40A4
:10F5500001F0BCFE04201071B8F80800002812D099
:10F56000B8F808005746401C80B2A8F808009AF87E
:10F5700000100AF8001040F2622188423ED9A8F833
:10F580000A50A8F80850BDE8F09F4FF4E13005F0AC
:10F59000ADFDA8F8085077704246A8F80A4001F07F
:10F5A00095FE0320D7E74FF4614005F09FFDA8F8D2
:10F5B000085077704246A8F80A4001F087FE82F8AA
:10F5C0000490C9E74FF4164005F090FDA8F80850E4
:10F5D00077704246A8F80A4001F078FE1471BBE744
:10F5E0004FF4964005F082FDA8F808507770424627
:10F5F000A8F80A4001F06AFE1571ADE70328C2D9E8
:10F60000384410F8020C0328BDD11248F1F78CFDE4
:10F6100088F80300B8F808107A1812F8013C104A6C
:10F6200002EB10152D78AB4208D100F00F00795C89
:10F63000105C814202D1FFF72FFC05E015207070AD
:10F64000A8F80A4001F042FE8BF800909BE700000A
:10F650000438014016A40020310100201E010020C2
:10F66000086701082DE9F04726498878C00745D08A
:10F6700004F060F987B204F05DF984B204F05AF93D
:10F6800086B203F031FB054604F054F9DFF874A0AC
:10F6900080B20AF1780ADFF870903AF81410B7FBDC
:10F6A000F1F201FB1272002119E0641EA4B2401EA7
:10F6B0003AF814C080B2B2FBFCF33AF8107039F893
:10F6C00015805F4347EA0807BFB229F81570012C7F
:10F6D00001D1012807D00CFB1322491C89B2B14289
:10F6E000E3D3BDE8F087BAF8023002F00F015943C6
:10F6F000394329F81510711C89B2EEE7886D143072
:10F700008865EEE768000020001000202DE9F04732
:10F710003F4E404F40F20449B06D07F1200442884B
:10F72000018862F31F218DB2B178CA0740F201410E
:10F7300055D08846454501D13C4601E04D4565D14F
:10F74000217831B9001DB06504F0F4F8A060B06D07
:10F75000E06140464FF00108854206D1387868B92B
:10F76000F2F762FF87F8008008E04D4506D197F870
:10F77000200018B9F2F7E2FF87F8208020780028EF
:10F7800044D001280DD0022840D184F80080002008
:10F79000F081E069B065E0687066BDE8F04705F0AB
:10F7A000C7BAE069B065F079012814D00220F08171
:10F7B000D4E90501401A2061706605F0B9FAB06D10
:10F7C000001FB065F079012807D00420F081D4E94A
:10F7D0000110401AE0E71020E9E72020F6E78D420B
:10F7E00006D1387878B1F2F77DFF2021094808E08A
:10F7F0004D4508D197F8200028B1F2F7FDFF2021F0
:10F800002046F0F753FEB06D0C30B065BDE8F087D0
:10F81000680000200809002010B50B4901220B4B9D
:10F820008A724A7208848A7803EBD0035206120E59
:10F83000074C8A7000F007001B78205C034202D05E
:10F8400042F00100887010BD680000200010002008
:10F85000C66401080CB50022264800920192016896
:10F8600041F4803101604FF4A063016801F400317C
:10F8700001910099491C0091019911B9009999428F
:10F88000F3D10168890333D5012101911A490A682E
:10F8900042F010020A600A6822F003020A600A6855
:10F8A00042F002020A60416841604168416041687B
:10F8B00041F480614160416821F47C1141604168FC
:10F8C00041F4E8114160016841F080710160016814
:10F8D0008901FCD5416821F003014160416841F094
:10F8E000020141604168C1F381010229FAD10CBDD6
:10F8F00001920CBD00100240002002402DE9F05F93
:10F90000BD4CA36D33F8020BA365B3F8008000F47F
:10F910007F4141EA18254FF6FF71C2B201EA082182
:10F9200022660A432146A5F50440496E803805D079
:10F93000B0F5805002D0B0F5805022D10F2901D807
:10F9400002201DE0FF2901D8042019E0B1F5805FF5
:10F9500001D2062014E0B1F5803F01D208200FE06B
:10F96000B1F5801F01D20A200AE0B1F1807F01D2F7
:10F970000C2005E0B1F1805F01D20E2000E01020E4
:10F98000054349F28366A81BDFF870B2DFF8709276
:10F99000DFF870A2B54272D060DC974E48F2866CF8
:10F9A000A5EB0C00B6F86470F6893FB2654567D0E8
:10F9B0002FDC48F28C4CA5EB0C00654513D00ADC1B
:10F9C00000F10A00092818D2DFE800F00D170D1722
:10F9D0000D170D170D00B0F5FA7F6ED00FDC022861
:10F9E00001D0042809D108F0FF02E8B2F5F7DCF9EC
:10F9F000A06D801CA0650120A071BDE8F09FB0F54E
:10FA0000FB7F7BD0B0F5FC7FF7D1911901EB0B00A8
:10FA100081E0B0F5606F0BD010DC40F6FD5CA0F625
:10FA2000FD51604509D004DC022871D0481CE4D1A6
:10FA300075E0012973D00229DFD175E0A0F560607F
:10FA4000013871D001286AD002286DD0A0F58070ED
:10FA5000FB38D2D1104602F021F875E040F604637D
:10FA6000A0F60461984224D014DC062876D008DC85
:10FA7000C3D2DFE800F0037478868A8EBDE760E0C9
:10FA800040E0A0F6FF500528B7D2DFE800F08C1266
:10FA90008C128C00B1F5FF7F70D017DC40F2FB13A5
:10FAA000A1F2FB1099426AD008DC01297BD002291F
:10FAB000A3D1104602F0D0FB39E01BE001287CD036
:10FAC00002289AD1104602F0A9FB7DE0A1F58071D1
:10FAD000FF397FD001296ED002296DD003298CD146
:10FAE000104602F0B9FBC2F30D0101EB4001514495
:10FAF0003DE003E04449901908440CE0901900F1FE
:10FB0000202008E0911901EB090004E000E006E084
:10FB1000911901EB0A009B1C0780A3656DE7104655
:10FB200001F0BCFF03E0FFE7104601F0D5FF2066BF
:10FB3000B4F86400C2F3052281B2E8B2F5F734F9F3
:10FB400018E0104601F0C8FFC2F30D0101EB4000C0
:10FB500000F12020B4F8641001800BE01DE0104695
:10FB600001F09CFF30E0104601F0B6FF2CE0B4F845
:10FB700064000880A06D801CA0653EE721E016E0CF
:10FB800011E0104601F08AFF2BE0104601F0A4FFBF
:10FB900027E0104601F082FFA5E7104601F09CFF28
:10FBA000A1E70AE016E0104602F038FBBFE7104676
:10FBB00002F034FBC8E711E019E0104602F04CFBFC
:10FBC000C2E7104602F048FBC2F30D0101EB400111
:10FBD0005944CCE7104602F021FB02E0104602F047
:10FBE0003BFBC2F30D0101EB40014944BFE7104666
:10FBF00002F014FB77E7000068000020001A0020E4
:10FC000000300020D0370020002800202DE9F04FE0
:10FC1000F74C054687B0A06D30F8021BA065078839
:10FC200001F47F4242EA17234FF6FF7202EA0726E9
:10FC3000CAB222663243A3F50441803905D0B1F53A
:10FC4000805102D0B1F5805102D143EA45018BB217
:10FC500049F28465591BE74EDFF89C93DFF89CA3BB
:10FC6000AB4278D078DCE64D41F63A0805EB080E59
:10FC700041F66E1805EB080B41F67218A844CDF852
:10FC80000C8041F67618A844CDF8088041F67A1821
:10FC9000A844CDF8048041F67E18A844CDF8008031
:10FCA00041F68218A844CDF8148041F686184544E0
:10FCB000DDF80C800495BEF800E0B8F80050DDF8DF
:10FCC0000880BBF800B00395B8F80050DDF8048058
:10FCD000029549F2870CB8F80050DDF800800195D4
:10FCE000A3EB0C01B8F800500095DDF81480049DDA
:10FCF0006345B8F800802D8872D043DCBC4948F2D7
:10FD0000866CA3EB0C05C98963456AD025DC48F2F3
:10FD10008648A3EB080C4FF0010543457ED00DDC6F
:10FD2000A3F50043803B7AD0B3F5007F77D0A3F5ED
:10FD30008063023B74D0022B73D113E1BCF1020F3C
:10FD400070D0BCF5FD7F6ED0BCF5FE7F6CD0BCF5ED
:10FD5000FF7F66D126E19CE14EE040F6FD16A5F658
:10FD6000FD13B54221D008DC022D7CD0DD1C7BD0F8
:10FD7000012D7AD0022D54D131E1012B76D0022B06
:10FD800075D1A6E1B1F57F7F72D019DC40F2FD1686
:10FD9000A1F2FD13B142F1D008DC191D64D0012994
:10FDA00063D0022965D003293BD11AE1012BE8D0A9
:10FDB000022B75D0032B13D0B3F5FF7F31D112E1A5
:10FDC00040F20143A1F2014099426AD00ADC011DD0
:10FDD00068D0012967D0022971D0032921D134E1EB
:10FDE000DAE0E2E001286BD0B0F5FD7F69D0A0F544
:10FDF0008070FB3815D144E1DFF804B241F67C177E
:10FE00003B1D3BF80770019733F80B3040F6014C6F
:10FE1000A1F6014541F68418009306E0ADE092E0BA
:10FE200093E09AE0AFE0B2E0B7E03BF808E061456C
:10FE30001CD061DC5B4641F6380503EB050C41F64E
:10FE4000741841F66C15984403EB0507CDF808804B
:10FE500041F670151D4441F678184344BCF800B0D3
:10FE60003F882D8806E0A4E0A9E03DE0A5E040E061
:10FE7000CEE0B4E0DDF80880B1F5206FB8F800C03E
:10FE8000B3F800800CD01DDC052972D00CDC0129F0
:10FE900070D002296FD003296ED004295DD108E10A
:10FEA00096E0DDE0BFE0C2E0A1F51061FC391BD0B7
:10FEB000012970D002296FD003294ED103E1C0E09F
:10FEC000D2E0DAE040F6FD36A1F6FD33B14262D071
:10FED0000BDC13F5FE7170D001296FD002296FD0B1
:10FEE000A1F58071FB3938D16DE0012B75D0022B63
:10FEF00071D0032B31D16BE0B5F5017F6CD018DCEC
:10FF000040F2FF13A5F2FF119D4270D008DC012DD5
:10FF100054D0022D54D08D1C76D0012D1DD1DEE0A1
:10FF2000012972D0022971D0032970D0042914D17B
:10FF3000E9E0A5F2FD35082D0FD2DFE805F0F4F871
:10FF4000EDECEBEAE9E8228305E0F8B2F4F710FF04
:10FF500000F00F000AE0801CA065B4F9180007B09B
:10FF6000BDE8F08FF8B2F4F703FFC0B22083E5716B
:10FF70008DE0A2E091E094E097E0F8B2F4F7F8FEAB
:10FF8000C0F30B00F2E7F8B2F4F7F2FEEEE711442B
:10FF90001C4A114404E094E01FE0114401F12021C7
:10FFA000098892E011443144FAE70A4402EB09015E
:10FFB000F6E70A4402EB0A01F2E788E089E0FFE78E
:10FFC0000EEB020181E00BEB02017EE011447CE0CC
:10FFD00008EB020179E076E0A1E0A91875E0039949
:10FFE000F4E70299F2E7104601F058FD13E07AE0D9
:10FFF00068000020001A002000300020D0370020C8
:020000040801F1
:10000000001000200028002065E070E073E076E03A
:10001000104601F061FD2066C2F30520F4F7A8FE4A
:1000200000F00F0032E0104601F038FD02E010460B
:1000300001F052FD2066C2F30520F4F799FEC0B22C
:1000400024E0104601F02AFD02E0104601F044FDD4
:100050002066C2F30520F4F78BFEC0F30B0015E019
:10006000104601F01BFD02E0104601F035FD206650
:10007000C2F30520F4F77CFE08E0104601F00EFD07
:1000800058E0104601F028FD54E000882083A06D60
:1000900061E7104601F002FD5AE0104601F01CFD38
:1000A00056E0104601F0FAFC5FE0104601F014FD46
:1000B0005BE0104601F0F2FC65E0104601F00CFD3B
:1000C00061E0B91801E00CEB0201218343E70199DB
:1000D0007CE700997AE7104602F0A0F89BE710460B
:1000E00002F0BAF897E7104602F098F8A2E7104637
:1000F00002F0B2F89EE7104602F090F8A8E710462A
:1001000002F0AAF8A4E7104602F088F8AFE737E05B
:1001100032E027E022E018E013E008E003E01046B8
:1001200002F09AF8A3E7104602F078F802E01046D1
:1001300002F092F8C2F30D0101EB400000F1202023
:10014000A3E7104602F06AF802E0104602F084F8D5
:10015000C2F30D0101EB4000304496E7104602F077
:100160005DF802E0104602F077F8C2F30D0101EBF2
:10017000400101EB090088E7104602F04FF802E069
:10018000104602F069F8C2F30D0101EB400101EBEA
:100190000A007AE7AFF300802DE9F047874CA068AA
:1001A000012320B1A068401EA06000D12370844DBF
:1001B000002101EB410005EB800042684AB1426832
:1001C000521E426005D143700278012A01D1826833
:1001D0004260491CC9B20429EBD3E068401CE060CE
:1001E000E0686FF000410026884200D1E660E088B8
:1001F0000A30E080A078401CA07001F0C1FCF2F74A
:10020000F1F9A0786F4F704D632808D9A67095F862
:10021000E1013979084385F8E10101F07BF9A17822
:10022000A0464FF00A09B1FBF9F209FB1210674C26
:10023000072807D101F036F995F8E101E178084087
:1002400085F8E10198F802104246B1FBF9F309FB89
:100250001310022805D195F8E101F978084385F8D3
:10026000E1019078322807D101F0E4F895F8E10136
:100270002179084085F8E10198F802005A2811D147
:1002800001F080F9B8F804104046491CA8F80410A1
:1002900098F8011002290CD041788020012910D053
:1002A0004B49086098F8020000F00F0002280BD0BC
:1002B00010E046704648001F016881F0800101602F
:1002C000F0E74349091DECE7F0F790FF01214148B1
:1002D000F0F7BCFAB8F8041042464846B1FBF0F318
:1002E00009FB1311052905D195F8E111637919402E
:1002F00085F8E1119188B1FBF0F309FB131028B9DF
:1003000095F8E1017979084385F8E1019088B0F525
:10031000967F05D195F8E101A179084085F8E101C2
:10032000908828B995F8E101B979084385F8E10189
:100330009088B0F5167F00D39680274800F20C41D4
:10034000B0F80C0418B1C82801D8401C088002F08D
:100350009FFE224A2248117811B90388002B1FD032
:10036000204B1B68204C23B10388A3F500553A3D70
:1003700018D12378052B0DD38B070BD441F0020144
:1003800011704FF404710180FFF79AF8FEF72EFA0E
:10039000642004E02078052802D22078401C2070D8
:1003A000BDE8F087207828B120780028F8D02078A0
:1003B000401EF4E716702670F2E7000030010020BE
:1003C000D00A0020C664010800100020CE64010895
:1003D000101801400024014078B6002028000020B9
:1003E000F429002020012142320000200F4810B5DE
:1003F000016841F00101016041680D4A114041600E
:1004000001680C4A11400160016821F480210160FB
:10041000416821F4FE0141604FF41F018160FFF744
:1004200019FA05494FF00060086010BD0010024045
:100430000000FFF8FFFFF6FE08ED00E070B5114880
:100440008078C0071DD002F04FFC054602F04CFC3E
:10045000044602F049FC0C4931F8152031F81430FB
:100460001A4421F8102001EB450201EB44035588A2
:100470005C8801EB40002C44448091889A881144A8
:10048000818070BD68000020001000202DE9FC5F15
:10049000DFF8048198F80200C00777D003F04AFA29
:1004A00087B203F047FA86B203F044FA85B202F04D
:1004B0001BFC044602F018FCFF22DFF8E09088F8ED
:1004C000002009EBD002DFF8D8C0117800F0070354
:1004D00001931CF803301940431C117009EBD30140
:1004E00003F0070391F8008000931CF80330801C90
:1004F00008EA030881F8008009EBD00800F0070E35
:1005000098F800901CF80E00264B09EA000988F8BC
:10051000009033F81400C246ACF1080CB84211D870
:1005200003EB440BBBF80280B0450BD8BBF804804A
:10053000A84507D2019910781CF8011008431070E3
:10054000BDE8FC9FB8420FD103EB4402B2F8028031
:10055000B04509D19288AA4206D1009A08781CF8C1
:10056000022010430870EBE7B842E9D303EB4400E4
:100570004188B142E4D38088A842E1D91CF80E102A
:1005800049EA01008AF80000DAE7FFE7D8F85810D6
:100590001431C8F85810D3E768000020001000207C
:1005A000CE6401080010002070B5048C24F0010412
:1005B0000484058B048C4FF6FF7606EA031313437D
:1005C00025F0F3050E4A2B4390420ED00D4A90427F
:1005D0000BD0B0F1804F08D00B4A904205D00B4AA7
:1005E000904202D00A4A904202D124F0020201E075
:1005F00024F00A020A4342F001010383018470BD22
:10060000002C01400034014000040040000800407C
:10061000000C0040F0B5048C24F010040484078B17
:10062000048C4FF6FF7527F4734705EA03333B4309
:1006300005EA02221A43114B05EA011698420ED030
:100640000F4B98420BD0B0F1804F08D00D4B984221
:1006500005D00D4B984202D00C4B984205D124F0A6
:100660002001314341F0100104E024F0A0030B43CA
:1006700043F0100102830184F0BD0000002C014012
:10068000003401400004004000080040000C00401D
:1006900008B519208DF800000F208DF8010000200A
:1006A0008DF8020001208DF803006846F4F748FD3C
:1006B00008BD00002DE9F047DFF858A2944C012155
:1006C000504600F016FC00287ED0207A924D934FC1
:1006D000DFF84C820026012802D002283CD00AE133
:1006E00020680128FBD1E068401CE060E18829B166
:1006F00095F8F2113A79114385F8F2118949894A3E
:100700000880921C010C118021698842E7D30029DE
:10071000E5D003202060E08840B195F8F20198F818
:1007200004100840B978084385F8F20195F8E30110
:100730007979084385F8E301E68001F057FDFEF77B
:1007400073FB606905EBD00100F007030A7818F825
:10075000030002400A70CEE020680128BFD1E068A3
:10076000DFF8C491401CE060206B401C2063D4E99A
:100770000301884236D341B36A492660091F0880C5
:10078000000C891C0880E08840B195F8F20198F8C7
:1007900004100840B978084385F8F20195F8E301A0
:1007A0007979084385F8E301E68060212046EFF778
:1007B0007DFE01F097FCFEF737FB606905EBD00189
:1007C00000F007030A7801E00AE00BE018F80300E4
:1007D00002400A7089F8056089F8046089F80360AE
:1007E000BDE8F0870122616C022311B1012928D0F4
:1007F00039E099F803C04946BCF1000F0DD1D4F897
:1008000058C0604509D3D4F82CC0BCF1010F04D006
:100810006663E26289F8032025E091F804C0BCF128
:10082000000F20D1D4F82CC0BCF1020F1BD0D4E9AA
:10083000158CC444844516D86663E36289F80420A5
:1008400011E099F805C0BCF1000F0CD1D4F82CC010
:10085000BCF1020F07D0D4F858C0604503D36663DB
:10086000E36289F80520D4E90C0188423BD3DFF824
:10087000BC80E06A20B1012828D0022841D031E0B4
:10088000D4E90E010844A063A16C884208D3A16397
:10089000606C10B1012802D002E0E26200E0E36285
:1008A000A06A04F03BFF0022434604F06BFD804643
:1008B0008946A06B04F032FF42464B4604F042FFEB
:1008C00004F0E8FE606320B9012002E0206DA0631F
:1008D000606D606300212046FEF788F80121204604
:1008E000FEF784F82663E08828B195F8F20139799B
:1008F000084385F8F2015046BDE8F047FF2100F0BB
:100900000DBAD4E90E018842CAD9401AA063C7E7DC
:1009100098080020002C014000100020C664010847
:10092000CE6401081C290020F800002000408F4000
:1009300010B54FF08044208AC0070AD0074A1169D9
:10094000491C1161C1EB014090600021204600F07C
:10095000D4FB208A20F00100208210BD000100207D
:1009600010B50A4C2088C0070BD00949C868401C44
:10097000C860C0EB0040486004480021103800F017
:10098000BCFB208820F00100208010BD1004004036
:100990000001002070B5254D0221284600F0A9FA7B
:1009A000234C58B10221284600F0B8F90022022158
:1009B000284600F049FB2169002088470421284689
:1009C00000F097FA58B10421284600F0A7F9002258
:1009D0000421284600F038FB61690120884708217E
:1009E000284600F086FA58B10821284600F096F90A
:1009F00000220821284600F027FBA1690020884733
:100A00001021284600F075FA00280DD01021284644
:100A100000F084F900221021284600F015FBE1695E
:100A2000BDE870400120084770BD0000000C004088
:100A30003001002008B52C208DF800000F208DF823
:100A4000010000208DF8020001208DF803006846A7
:100A5000F4F776FB08BD00002DE9F047DFF864A24B
:100A6000974C0121504600F044FA00287ED0964968
:100A7000207A41F618120A4441F61A13934D944F06
:100A8000DFF8508200261944012802D002283BD00A
:100A900008E120680128FBD1E068401CE060E388A1
:100AA0003BB195F8F23197F803C043EA0C0385F89F
:100AB000F2311080020C0A8021698842E8D30029B3
:100AC000E6D003202060E08840B195F8F20198F864
:100AD000031008407978084385F8F20195F8E3019E
:100AE0007979084385F8E301E68001F0FBFAFEF727
:100AF00063F9606905EBD00100F007030A7818F884
:100B0000030002400A70CDE0206801287ED1E06831
:100B1000DFF8C491401CE060206B401C2063D4E9E6
:100B20000303984233D38BB326601080000C0880F7
:100B3000E08840B195F8F20198F803100840797800
:100B4000084385F8F20195F8E3017979084385F8BF
:100B5000E301E68060212046EFF7A8FC01F0C2FA2D
:100B6000FEF72AF9606905EBD00100E00CE000F027
:100B700007030A7818F8030002400A7089F8026037
:100B800089F8016089F80060BDE8F087FFE701227D
:100B9000616C022311B1012928D03BE099F800C013
:100BA0004946BCF1000F0DD1D4F858C0604509D3B7
:100BB000D4F82CC0BCF1010F04D06663E26289F85E
:100BC000002027E091F801C0BCF1000F22D1D4F839
:100BD0002CC0BCF1020F1DD0D4E9158CC44484454F
:100BE00018D86663E36289F8012013E099F802C01F
:100BF000BCF1000F0ED1D4F82CC0BCF1020F09D00B
:100C0000D4F858C0604505D3666300E04AE0E3626B
:100C100089F80220D4E90C0188423BD3DFF8BC807C
:100C2000E06A20B1012828D0022841D031E0D4E97F
:100C30000E010844A063A16C884208D3A163606CD4
:100C400010B1012802D002E0E26200E0E362A06A93
:100C500004F064FD0022434604F094FB804689467C
:100C6000A06B04F05BFD42464B4604F06BFD04F0C4
:100C700011FD606320B9012002E0206DA063606D6A
:100C8000606300212046FDF7B1FE01212046FDF7FB
:100C9000ADFE2663E08828B195F8F201F9780843A3
:100CA00085F8F2015046BDE8F047FF2100F036B864
:100CB000D4E90E018842CAD9401AA063C7E70000F0
:100CC00038080020003401400010002000100020EF
:100CD000C6640108CE640108F800002000408F407F
:100CE0000029018802D041F0800101E021F080015B
:100CF0000180704710B50A884B88CC881A438B88CE
:100D000023431A430B891A434B8989891A430A439F
:100D1000A0F8442010BDC94301827047C943018235
:100D200070470029018802D041F0010101E021F063
:100D3000010101807047002930F8441F02D041F4BE
:100D4000004101E0C1F30E01018070474B4910B52D
:100D5000884202D10121C41486E0B0F1804F09D04D
:100D6000474988420DD101210220FEF7FBF80021FE
:100D7000022064E001210846FEF7F4F8002101207A
:100D80005DE04049884206D101210420FEF7EAF8DF
:100D90000021042053E03C49884206D1012108206B
:100DA000FEF7E0F80021082049E03849884206D1E2
:100DB00001211020FEF7D6F8002110203FE0344931
:100DC000884206D101212020FEF7CCF80021202006
:100DD00035E03049884202D10121441444E02E49D3
:100DE000884202D10121CC043EE02C49884202D144
:100DF00001210C0538E02A49884202D101214C0525
:100E000032E02849884206D101214020FEF7AAF8A5
:100E10000021402013E02449884206D1012180208E
:100E2000FEF7A0F80021802009E0204988420AD17D
:100E3000841501212046FEF795F800212046BDE8E3
:100E40001040FEF78FB81A49884202D101210C04E4
:100E50000AE01849884202D101214C0404E01649F5
:100E600088420AD101218C042046FEF793F82046DF
:100E7000BDE810400021FEF78DB810BD002C0140E8
:100E80000004004000080040000C0040001000403A
:100E90000014004000340140004C0140005001406B
:100EA0000054014000180040001C00400020004099
:100EB00000400140004401400048014070B50589F0
:100EC000048B068C25F007050D434FF6FC410C40C2
:100ED00040F201110C434FF6FF7101EA031126F0B5
:100EE00022061143314305810483018470BD808C47
:100EF000704702460020138A92890B4202EA0102DF
:100F000002D0002A00D00120704700002DE9F84FE0
:100F10000D4604460888434FDFF80CC1DFF80C810A
:100F2000DFF80C914988AA882B894FF0804A48B392
:100F3000042830D04FF6FF760828934634D0208C12
:100F40009E4620F480502084A38B208C06EA013238
:100F5000009223F4734306EA0B221A4306EA0E3387
:100F60001343BC420AD0644508D0544506D04445DA
:100F700004D04C4502D02F4A944245D120F4005071
:100F8000009943E02046FFF70FFBE9882046BDE8C3
:100F9000F84F00F0B4B82046FFF73CFBE988204644
:100FA000BDE8F84F00F0B3B8208C20F480702084A6
:100FB000B4F81CE0208C06EA031306EA01222EF0A6
:100FC000F30E43EA0B0343EA0E030092BC420AD03D
:100FD000644508D0544506D0444504D04C4502D061
:100FE000144A944203D120F40070009901E020F4E7
:100FF0002060084340F48070A3832084E988204661
:10100000BDE8F84F00F08FB820F40240084340F4E8
:101010008050A3832084E9882046BDE8F84F00F083
:101020008AB80000002C0140003401400004004058
:1010300000080040000C0040002101804180012296
:101040008280C18001817047002A828901D00A43D1
:1010500000E08A4382817047028B22F008020A4333
:101060000283704770B5028C22F480520284058C92
:101070008288838B0C8823F4E6464FF6FF7303EADD
:101080000424344325F400560D8903EA053535431D
:101090004E8803EA06362E43094DA84202D0094D78
:1010A000A84205D122F480458A8903EA82122A43A4
:1010B00082808483C988A0F84010068470BD000037
:1010C000002C014000340140828B4FF6FF7322F464
:1010D000006203EA0121114381837047028922F0F3
:1010E00070020A430281704781867047018770470A
:1010F00081877047A0F84010704781847047028B49
:1011000022F00C020283028B0A4302837047028B97
:1011100022F440620283028B4FF6FF7303EA01213F
:101120000A4302837047828B22F00C028283828BF7
:101130000A4382837047828B22F440628283828BCF
:101140004FF6FF7303EA01210A438283704770B5AB
:1011500016460D46602904464FF0010231460AD07A
:10116000FFF722FA29462046FFF7B8FF208940F012
:101170000700208170BDFFF74DFAF3E730B5028814
:101180001B4C1C4DA0420DD0A8420BD0B0F1804F9B
:1011900008D0194B984205D0184B984202D0184BF2
:1011A000984203D122F070034A881A43154B9842A3
:1011B00006D0154B984203D022F44073CA881A43D4
:1011C00002808A8882850A880285A0420AD0A842C5
:1011D00008D00E4A904205D00D4A904202D00D4AE6
:1011E000904201D1097A01860121818230BD00003F
:1011F000002C014000340140000400400008004081
:10120000000C00400010004000140040004001406D
:101210000044014000480140154810B58178C907D5
:1012200021D001F061FD13490A88134921F81020EB
:10123000104A01EB4000921E01F5C1511288428014
:10124000098881800B49891F0988C18009490839AB
:101250000988018107490A39098841810549891CA2
:101260000988818110BD816D091D816510BD000057
:1012700068000020242800200010002070B51148CC
:101280008078C0071DD001F02FFD054601F02CFD30
:10129000044601F029FD0C4931F8152031F81430CD
:1012A000D21A21F8102001EB450201EB44035588C6
:1012B0005C8801EB40002C1B448091889A88891A35
:1012C000818070BD68000020001000200749087868
:1012D000002809D000200870887105484989816478
:1012E000416C41F001014164704700001E01002083
:1012F000000002402DE9F04FDFF8288185B098F812
:101300000200C0075FD001F0EFFC474D35F810A098
:1013100005EB40004788868801F0E6FC35F81010A0
:1013200005EB40000091B0F802B0B0F8049001F075
:10133000DBFC044601F0D8FCFF22DFF8F0E088F87F
:1013400000200EEBD002DFF8E8C0117800F00703B0
:1013500004931CF8033019401170431C0EEBD301A9
:1013600003F0070391F8008003931CF80330801CFE
:1013700008EA03080EEBD00381F8008093F80080A0
:1013800000F0070002901CF800009E4608EA0008E2
:1013900083F8008035F81400ACF10803504515D8E7
:1013A00005EB440CCDF804C0BCF802C0BC450DD818
:1013B000DDF804C0BCF804C0B44507D20499107825
:1013C000595C0843107005B0BDE8F08F504516D346
:1013D00005EB440CBCF80220BA4210D3B2420ED343
:1013E000009EB0420BD85A4509D8BCF804604E455F
:1013F00005D8039A08789A5C10430870E3E70099CF
:101400008842E0D305EB440042885A45DBD381880B
:101410004945D8D90298185C48EA00088EF800803F
:10142000D1E700006800002000100020001000201C
:10143000CE640108F0B5DFF85CC0174D174E184FA9
:1014400000200CEB400101F5905201F5805100F5B0
:10145000B0531C46C7E9042105EBD30304F007048D
:101460001B78345D234210D00B88128893420CD233
:1014700000F5C06205EBD20302F007021B78B25CF4
:10148000134202D10A88521C0A80401C80B2C8282C
:10149000D7D3F0BD0010002000100020C664010862
:1014A00034000020F0B5DFF85CC0174D174E184F20
:1014B000C8200CEB400101F5905201F5805100F578
:1014C000B0531C46C7E9062105EBD30304F007041B
:1014D0001B78345D234210D00B88128893420CD2C3
:1014E00000F5C06205EBD20302F007021B78B25C84
:1014F000134202D10A88521C0A80401C80B2F6288E
:10150000D7D3F0BD0010002000100020C6640108F1
:1015100034000020F0B5DFF85CC0174D174E184FAF
:10152000F6200CEB400101F5905201F5805100F5D9
:10153000B0531C46C7E9082105EBD30304F00704A8
:101540001B78345D234210D00B88128893420CD252
:1015500000F5C06205EBD20302F007021B78B25C13
:10156000134202D10A88521C0A80401C80B2FA2819
:10157000D7D3F0BD0010002000100020C664010881
:1015800034000020F0B5DFF85CC0174D174E184F3F
:10159000FA200CEB400101F5905201F5805100F565
:1015A000B0531C46C7E90A2105EBD30304F0070436
:1015B0001B78345D234210D00B88128893420CD2E2
:1015C00000F5C06205EBD20302F007021B78B25CA3
:1015D000134202D10A88521C0A80401C80B2FF28A4
:1015E000D7D9F0BD0010002000100020C66401080B
:1015F0003400002010B51B4CA16D11F8020BC0F394
:101600004600A083A16509880A0A862A02D0882A92
:101610000AD103E0C9B200EBC11004E0C9B200EB8B
:10162000C11000F57A70A083A078C00716D00E49CB
:10163000A08B01EB400000F500500288207901EBFF
:10164000400101F58051A1F8002203F00BFD207943
:10165000BDE8104000F5B050F3F7A6BEBDE810405D
:1016600002F07ABD680000200010002010B50121B2
:101670008CB08803FDF782FC01210846FDF75AFC77
:10168000274C2046F0F7F0F827492648CDE900011D
:101690001020029040F262200021CDE90301802059
:1016A000CDE905018001CDE9081007910A9169464D
:1016B0002046F0F753F9012202212046F0F746F9BF
:1016C0004FF4E13003F012FD164C0122241F40F2CA
:1016D0002551204600F0B3F801228021204600F079
:1016E00080F80121204600F072F86015ADF82C005A
:1016F00003208DF82E0018200C4C8DF82F000BA91C
:101700002046F2F783FB2115ADF82C1004218DF84B
:101710002F100BA92046F2F779FB0CB010BD00008A
:101720004400024004380140B5A1002000080140F7
:1017300070B51E4C40F225552946204600F060F851
:10174000012805D12946204600F03BF8FDF7C0FEF0
:101750000821204600F04DF8012806D10821204636
:1017600000F02CF8204600F0DDF840F227752946FD
:10177000204600F045F8012808D12946204600F00F
:1017800020F800222946204600F059F840F226654C
:101790002946204600F034F8012805D12946204684
:1017A000BDE8704000F00DB870BD00000038014089
:1017B000014800F0BFB8000048AE0020C9430180D6
:1017C00070470A0A01219140C943018070470029EE
:1017D000818902D041F4005101E021F4005181815E
:1017E0007047002A828A01D00A4300E08A4382823D
:1017F00070470246002012880A4200D0012070473C
:1018000070B501F01F0501260024C1F3421306FA4A
:1018100005F2012B0FD0022B0FD0838A4FEA112142
:101820000088134206FA01F600EA060001D000B172
:101830000124204670BD8389F0E7038AEEE710B5E6
:10184000C1F3421301F01F040121A140012B07D075
:10185000022B07D01430002A026805D00A4304E0A6
:101860000C30F8E71030F6E78A43026010BD000044
:1018700030B50446008A85B00D464CF6FF7108402D
:10188000E98801432182A0894EF6F3110840A98816
:101890002A8911436A8902431143A181A08A4FF624
:1018A000FF410840A9890143A1826846FDF77EFBFC
:1018B0001B48844201D1039800E00298A1890904E1
:1018C000002900EBC00101EB0010296802DA4FEAA1
:1018D000410101E04FEA8101B0FBF1F06422B0FB6D
:1018E000F2F14FEA01114FEA11136FF018056B4343
:1018F00000EB8300A3891D044FF0320306D503EBF0
:10190000C000B0FBF2F000F0070005E003EB0010B0
:10191000B0FBF2F000F00F000843208105B030BDAD
:10192000003801408088C0F308007047C1F3080107
:10193000818070472DE9F041044640F22556006849
:101940003146FFF75DFF002508B3A26A2079904772
:1019500031462068FFF735FF2068FFF7E3FFC2B28A
:10196000E18B20694254E08B401C81B2E183E08A24
:10197000814200D3E583618C814202D2608C401C9D
:101980006084E36A1BB1208981B22079984740F2D4
:10199000277739462068FFF733FF0028206840F298
:1019A00026661ED03946FFF70CFFA08B80B1618BF5
:1019B000E068415C2068FFF7B9FF608B401C80B293
:1019C0006083A18A884200D36583A08B401EA083D8
:1019D000002239462068FFF732FF01223146206895
:1019E00013E03146FFF70CFFE8B131462068FFF7FE
:1019F000E8FEA08B4FF0000200282068314607D097
:101A0000FFF71DFF012239462068FFF718FF0AE0A3
:101A1000FFF715FF002239462068FFF710FFA16A83
:101A200009B12079884708212068FFF7E9FE0028DE
:101A300008D008212068FFF7C1FE2068BDE8F0410A
:101A4000FFF770BFBDE8F08110480F490160022127
:101A500001714FF41651816000F13001C16000F551
:101A6000866101614FF480618182C182002101831E
:101A70004183C183018441848183054941620549D1
:101A800081620549C16270470048004048AE0020AD
:101A900079F3000899F3000841F30008800B07D0A0
:101AA000012809D002280BD003280DD00020704750
:101AB000084841F63A010AE0064841F66E1106E090
:101AC000044841F6721102E0024841F67611405A8C
:101AD0007047000000100020800B07D0012809D0BB
:101AE00002280BD003280DD000207047084841F68B
:101AF0007A110AE0064841F67E1106E0044841F6F4
:101B0000821102E0024841F68611405A70470000F7
:101B10000010002038B500211648FFF702F9002117
:101B20004FF08040FFF7FDF801212020FDF726FA55
:101B300001211020FDF722FA01210846FDF71EFAC7
:101B40004FF46040ADF8000001258DF802504824A4
:101B50008DF8034069460848F2F758F94020ADF87F
:101B600000008DF802508DF8034069460348F2F7F3
:101B70004DF938BD00040040001401400010014040
:101B800070B5F8480568F849F848F94A0C780088B3
:101B900000231DB1137024F0010408E092F90050F5
:101BA000854202DA6D1C157002E044F001040C70ED
:101BB000F04DD5F83C4124B153700C7824F0020468
:101BC00009E092F90140844202DA641C547003E097
:101BD0000C7844F002040C70D5F8384124B19370AD
:101BE0000C7824F0040409E092F90240844202DAFD
:101BF000641C947003E00C7844F004040C70D5F875
:101C0000344124B1D3700C7824F0080409E092F92F
:101C10000340844202DA641CD47003E00C7844F080
:101C200008040C70D5F8304124B113710C7824F0FD
:101C3000100409E092F90440844202DA641C147131
:101C400003E00C7844F010040C70D5F82C4124B15A
:101C500053710C7824F0200409E092F90540844285
:101C600002DA641C547103E00C7844F020040C7018
:101C7000D5F8284124B193710C7824F0400409E090
:101C800092F90640844202DA641C947103E00C78F5
:101C900044F040040C70D5F8244124B1D3710C7881
:101CA00024F0800409E092F90740844202DA641CBF
:101CB000D47103E00C7844F080040C70D5F8205106
:101CC000A94C64781DB1137224F0010408E092F964
:101CD0000850854202DA6D1C157202E044F00104DE
:101CE0004C70A54DD5F83C4124B153724C7824F08A
:101CF000020409E092F90940844202DA641C547239
:101D000003E04C7844F002044C70D5F8384124B11B
:101D100093724C7824F0040409E092F90A4084425A
:101D200002DA641C947203E04C7844F004044C70B2
:101D3000D5F8344124B1D3724C7824F0080409E07A
:101D400092F90B40844202DA641CD47203E04C78AE
:101D500044F008044C70D5F8304124B113734C782A
:101D600024F0100409E092F90C40844202DA641C69
:101D7000147303E04C7844F010044C70D5F82C41F7
:101D800024B153734C7824F0200409E092F90D40FB
:101D9000844202DA641C547303E04C7844F020045B
:101DA0004C70D5F8284124B193734C7824F040044A
:101DB00009E092F90E40844202DA641C947303E055
:101DC0004C7844F040044C706C4ED6F83C4124B141
:101DD000D3734C7824F0800409E092F90F408442D8
:101DE00002DA641CD47303E04C7844F080044C7035
:101DF000D6F838515C4CA4781DB1137424F001045A
:101E000008E092F91050854202DA6D1C157402E068
:101E100044F001048C70D6F8344124B153748C78AA
:101E200024F0020409E092F91140844202DA641CB1
:101E3000547403E08C7844F002048C70D6F830417E
:101E400024B193748C7824F0040409E092F91240D0
:101E5000844202DA641C947403E08C7844F0040435
:101E60008C70D6F82C4124B1D3748C7824F00804FB
:101E700009E092F91340844202DA641CD47403E04E
:101E80008C7844F008048C70D6F8284124B113757E
:101E90008C7824F0100409E092F91440844202DAAC
:101EA000641C147503E08C7844F010048C70D6F830
:101EB000284124B153758C7824F0200409E092F96C
:101EC0001540844202DA641C547503E08C7844F0B7
:101ED00020048C70D6F8284124B193758C7824F0B6
:101EE000400409E092F91640844202DA641C9475B9
:101EF00003E08C7844F040048C70D6F8284124B17B
:101F0000D3758C7824F0800409E092F9174084425C
:101F100002DA641CD47503E08C7844F080048C7081
:101F2000D6F82851104CE4781DB1137624F0010442
:101F300008E092F91850854202DA6D1C157602E02D
:101F400044F00104CC70D6F8284124B15376CC7803
:101F500024F0020417E092F91940844210DA641C5C
:101F6000547611E0180122422A000020282800207F
:101F700050010020008022420080214200002342C4
:101F8000CC7844F00204CC70D6F8284124B1937682
:101F9000CC7824F0040409E092F91A40844202DA71
:101FA000641C947603E0CC7844F00404CC70D6F83A
:101FB000284124B1D376CC7824F0080409E092F9C2
:101FC0001B40844202DA641CD47603E0CC7844F0EF
:101FD0000804CC70D6F8284124B11377C87820F0D3
:101FE000100009E092F91C30834202DA5B1C13777F
:101FF00003E0C87840F01000C87003480A880280E7
:102000004988418070BD0000801000202DE9F04318
:10201000334E80468BB01D4691460C463046FEF747
:1020200095FE01214F033846FCF7A8FFADF8244088
:102030000024ADF82080ADF82640ADF822408DF8A0
:10204000284008A93046FFF799F86020ADF8000055
:102050000120ADF80200ADF808400820ADF80A00F4
:10206000ADF806900420ADF804008001ADF80C0036
:10207000ADF80E4069463046FEF7F4FF08213046C1
:10208000FFF722F8ADF814409020ADF81600780064
:10209000ADF81040ADF81840ADF81C00ADF8124096
:1020A000ADF81A7004A93046FEF724FE012D01D0C8
:1020B000022D06D1012211463046FEF7C5FFFEF77C
:1020C000B9FC01213046FEF70BFE01213046FEF738
:1020D00028FE01213046FEF72EFE0BB0BDE8F0834E
:1020E0000034014010B50A4C002201212046FEF7C1
:1020F000ABFF00216014FCF741FF00212046FEF7F2
:1021000010FE2046BDE810400021FEF714BE00007E
:10211000003401402DE9F041334D07468CB01C4698
:1021200090460E462846FEF711FE0121C802FCF734
:1021300025FFADF824600026ADF82070ADF82660CC
:10214000ADF822608DF8286008A92846FFF716F838
:1021500001212846FEF7C4FD6020ADF800000120F3
:10216000ADF80200ADF808600820ADF80A00ADF83F
:1021700006800420ADF804008001ADF80C00ADF835
:102180000E6069462846FEF76DFF08212846FEF7D7
:102190009BFFADF814609020ADF81600ADF8186004
:1021A0006814ADF81A004000ADF81060ADF81C00DE
:1021B000ADF8126004A92846FEF79CFD012C01D061
:1021C000022C06D1012211462846FEF73DFFFEF7FC
:1021D0005FFA01212846FEF7A4FD01212846FEF7FB
:1021E000AAFD0CB0BDE8F081002C014010B50A4CEE
:1021F000002201212046FEF727FF0021E014FCF712
:10220000BDFE00212046FEF78CFD2046BDE81040B3
:102210000021FEF790BD0000002C0140800B07D08C
:10222000012809D002280BD003280DD000207047C8
:10223000084841F638010AE0064841F66C1106E00C
:10224000044841F6701102E0024841F67411405A08
:102250007047000000100020800B07D0012809D033
:1022600002280CD003280DD000207047074841F603
:10227000781102E0054841F67C11084400E004486A
:1022800000887047014841F68411F6E700100020ED
:10229000802900202DE9F05F324EB078C0075DD074
:1022A00001F048FB834601F045FB054601F042FB87
:1022B000044600F019FD01B2FF203070C81701EB91
:1022C0005072294800EBE20622F00702A1EB020A55
:1022D000264A33781AF802703B4033704B1CDF17E4
:1022E00003EB577800EBE8034F1C28F00708A7EB37
:1022F000080893F800C018F802700CEA070C8F1C4D
:1023000083F800C04FEAE77C07EB5C7C891C2CF06B
:102310000707C91B00EBEC008A5C90F80090134F94
:1023200009EA0209083F80F80090A34506DD3078ED
:102330001AF8071008433070BDE8F09FAC4205DC86
:10234000187818F8071008431870F5E7A542F3DA73
:10235000C95D49EA010980F80090EDE7B06D1030E1
:10236000B065E9E76800002000100020CE64010895
:1023700070B5144DA878C00720D000F0B5FC044615
:1023800000F0B2FC0146287898B10F4800228C4238
:1023900013D820F81420641CA4B2F8E702EBD40090
:1023A00004F007060378AE5D3340641C0370A4B2EA
:1023B00001E0064A064D8C42F0D970BDA86D083088
:1023C000A86570BD680000200010002000100020EB
:1023D000CE64010870B500240120FCF749FE0E4DC3
:1023E00002E0AC4216D2641C6120FCF729FE0028F2
:1023F000F7D045F25550F1F74DFE0320F1F73EFEC0
:1024000040F6A660F1F740FEF1F730FEBDE87040FF
:10241000F1F724BE70BD000040420F00490050EAB1
:10242000C12018BF04204A0D18BF40F0010040F23F
:10243000FF72B2EB515F08BF40F00200012808BFF5
:10244000052070472DE9F74F144696B00021C4E9E6
:1024500002111799089121F00045CA498D4206DC06
:102460001799C4E9000119B00020BDE8F08FC649F2
:10247000DFF818A3A9423CDD0899C54E0029C54FD5
:10248000C54A1799534619DD03F04CFB554506D054
:10249000C24AC34B03F046FBC4E900010AE04FF017
:1024A000D352BF4B03F03EFB32463B4603F03AFBB0
:1024B000C4E9000119B00120BDE8F08F02F0B2FEBE
:1024C000554506D0B54AB64B02F0ACFEC4E9000152
:1024D0000AE04FF0D352B24B02F0A4FE32463B4624
:1024E00002F0A0FEC4E9000119B04FF0FF30BDE8D2
:1024F000F08FAC49A942179978DB21F00048834658
:10250000A94AAA4B414603F01DF90022A84B02F04C
:1025100089FE03F08FF8099003F0E9F806460F46AC
:102520009D4A534603F00EF95A46434603F008FA13
:1025300080468A46994A9A4B3046394603F002F95A
:102540002A0D01250B924246534603F0F9F9032D5B
:10255000C4E9000139D00B98C1F30A51401A05EBC8
:1025600045111139814230DA9248C346784400EB74
:102570000510CDF81CA00C90D0E900233046394658
:1025800003F0E0F8CDE9020102460B4658460799F0
:1025900003F0C8FA80468A4602460B465846079919
:1025A00003F0C0FADDE9022303F0BCFA83460C987D
:1025B00003913946D0E90223304603F0C3F85A4666
:1025C000039B03F0AFFA6D1CBDE708980028A2BF7B
:1025D000099819B0BDE8F08F616881F00041616031
:1025E000099819B04042BDE8F08FFFE7C1F313012D
:1025F00041F480110E911799C1F30A51A1F2F532FD
:10260000511102F01F08C8F12002129200220C9210
:102610000D92694A7A4402EB810101F1140C0DA973
:102620005FF00607DCF80020DCF8045002FA08F33B
:10263000129AD1F800A025FA02F21A430E9BA2FBCF
:102640000356A2FB00329A4415449A4534BF4FF01A
:10265000010B4FF0000B51F8043C05EB0B0E7344DB
:10266000954234BF012200221644BBF1000F02D074
:10267000AB4202D903E0AB4201D2012200E00022CA
:102680003244C1F800A041E90223091FACF1040C57
:102690007F1EC7D10898DDE90A6500F10050800F60
:1026A00011900898099F800003F021F880468A461F
:1026B000384603F033F86FF01D0203F0BEFE074604
:1026C0003046059103F02AF86FF03D0203F0B5FEA5
:1026D000CDE90310284603F021F86FF05D0203F006
:1026E000ACFE064602460B460191DDE9031002F0FE
:1026F00099FD3A46059B02F095FD4246534602F08D
:1027000091FD00200D4683464246534603F00AFAE7
:102710003A46059B03F006FADDE9033203F002FABC
:102720003246019B03F00CF9DFF89480234A4346BC
:1027300003F008F806460F46224A234B584629461E
:1027400003F000F832463B4602F06CFD0F460646A9
:102750004FF0A84243465846294602F0F3FF32465E
:102760003B4602F05FFD179A12F0004F04D0119A19
:1027700081F0004152421192C4E90001119819B050
:10278000BDE8F08FFB21E93F7CD90240FB21F93FF6
:102790007370032E8A19A33B000040543163621A00
:1027A00061B4D03DFB21394183C8C96D305FE43F3E
:1027B0000000E03F30440000B8430000182D4454AE
:1027C000FB21F93D3326A611460B113C2DE9FF4DA7
:1027D00021F0004807460C46B8F1795F08DA02F0AC
:1027E00029FF002801BF0020324904B0BDE8F08D68
:1027F0003A4623461046194602F0A4FF0546024613
:102800002D480E460B460621784400F05DF82A4616
:10281000334602F097FFDDE9022382468B463846B5
:10282000214602F08FFF04460F4652465B4628467B
:10283000314602F087FF22463B4603F073F9074614
:102840008A464FF0FF322846314603F0F6FD1B4A18
:1028500090450ADA3A46534603F064F904B0002280
:10286000BDE8F04D134B03F06BB8154A4245A8BFC5
:10287000A8F500154FF00004B8BF124D22462B46B4
:1028800003F050F90646884622462B4600200949A7
:1028900003F048F904460D463A4653463046414651
:1028A00003F040F904B022462B46BDE8F04D03F09A
:1028B00047B800000000F03F644100003333D33FCD
:1028C0000000E93F0000D23F2DE9F0414F1E00EB30
:1028D000C7010446D1E9000115461E4637F006023D
:1028E0000DD02A46334602F02DFF7F1E04EBC703AE
:1028F000D3E9002302F096FC37F00602F1D1022F53
:1029000025D0042F13D0062F18BFBDE8F0812A462A
:10291000334602F017FFD4E90A2302F083FC2A466B
:10292000334602F00FFFD4E9082302F07BFC2A466D
:10293000334602F007FFD4E9062302F073FC2A466F
:10294000334602F0FFFED4E9042302F06BFC2A4672
:10295000334602F0F7FED4E9022302F063FC2A4674
:10296000334602F0EFFED4E90023BDE8F04102F067
:1029700059BC00002DE9FF4D054621F0004084B010
:102980000C46B0F1795F0BDA2846FFF747FD0428C3
:1029900008BF00F0A1F9284608B02146BDE8F08D37
:1029A0002A460B46104602F0CDFE06460F462A4642
:1029B000234602F0C7FE804626488A4632463B46FA
:1029C00005217844FFF780FF83461098029160B399
:1029D000214A224B4046514602F0B4FECDE90001A7
:1029E0005A4640465146029B02F0ACFE824688465B
:1029F000DDE906014FF0FF3203F01FFD524643466A
:102A000003F090F832463B4602F09CFEDDE90623D7
:102A100003F088F8DDE9002303F084F808B02A46C3
:102A20002346BDE8F04D02F08BBF0B465A463046B8
:102A3000394602F087FE084A084B02F0F3FB424693
:102A4000534602F07FFE08B02A462346BDE8F04D0B
:102A500002F0E8BBA2400000495555555555C5BF89
:102A60002DE9F04D044688B08F4821F00047164606
:102A700098460D460691874206DA2046294602F01E
:102A8000D9FD002800F0AC808848B8421CDC0698CC
:102A90000028BCBF85F0004588F00048844A854B7B
:102AA0002046294602F04CFF04460D463246434676
:102AB0008148824903F036F822462B4602F0B2FBE9
:102AC000002604460D46B04622462B4610461946BF
:102AD00002F038FE8B46824602460B4602F032FE7A
:102AE000CDE90201024676480B4606217844FFF7FD
:102AF000EBFECDE90001734806217844DDE90223AD
:102B0000FFF7E2FE52465B4602F01CFECDE90201F1
:102B100052465B462046294602F014FECDE90401E8
:102B20009DE80F0002F07EFBDDE9042302F00AFEBF
:102B30003246434602F076FB52465B4602F002FE06
:102B40003246434602F06EFB80460E46DDE9040144
:102B50005D4A5E4B02F0F6FD4246334602F062FBF0
:102B600082468B4622462B4602F05CFB80464F484D
:102B70000E46B84210985BDC02F0B9FD07464246AB
:102B80003346029102F04EFBCDE900014246334646
:102B90001046194602F0D6FDDDE9002302F0F2FBF3
:102BA00052465B4602F0BEFF22462B4602F0C8FEAC
:102BB000012203F042FC3A46029B02F0C1FE0446A9
:102BC0000D460698022101EAA070C0F1010002F052
:102BD0008EFD08B022462B46BDE8F04D02F0B2BD96
:102BE0001098401C384320430BD01098012812D075
:102BF00008B022462B46BDE8F04D0020344902F0D3
:102C0000C1BB08B025F000432246BDE8F04D0020CE
:102C1000304902F0B7BB20462946FFF7FFFB0428E6
:102C200008BF00F059F8204608B02946BDE8F08DED
:102C3000012802BF404608B0BDE8F08D00270B46D2
:102C40003A462046294602F07BFE52465B4602F099
:102C500077FE04460D464246334600201C4902F0EA
:102C600091FB83463A4688463346104602F06AFD99
:102C70000022184B02F0D6FA06468A4622462B4618
:102C80003846414602F05EFD3246534602F0CAFA2B
:102C90005A46434602F056FD08B03A464346BDE860
:102CA000F04D02F0BFBA00000000303E2894E53F2E
:102CB000182D4454FB21E93F075C143326A6813CC0
:102CC000A03F0000C23F0000635555555555D53F04
:102CD0000000F0BF0000F03F024A0020110703F09F
:102CE000ACBB000001FDFFFF10B50E4CA16D31F82B
:102CF000020B020A842A02D0862A11D10AE0C0B24D
:102D0000607011F8022B40EA0220E0820020A165E9
:102D1000207005E0C0B26070A165EEF7B1FFE082FF
:102D2000E08A10BD6800002070B5444C4FF6FF7576
:102D3000A26D32F8023BA265118803F47F40DBB23A
:102D400005EA0125236640EA11202B43A0F506453C
:102D5000803D01D13A4818E0A0F50645823D03D1F7
:102D600003F12023A36212E0A0F50645843D01D1C2
:102D700034480AE0A0F50645863D01D1324804E01A
:102D8000A0F50645883D05D130481844A062921C44
:102D9000A26550E00025A0F50442823A05D1C8B2F0
:102DA000F1F7E6FF00F00F0040E0A0F50442843A9E
:102DB00004D1C8B2F1F7DCFFC0B237E0A0F504429D
:102DC000863A05D1C8B2F1F7D3FFC0F30B002DE06E
:102DD000A0F50442883A04D1C8B2F1F7C9FF80B225
:102DE00024E0A0F504428A3A05D1C8B2F1F7C0FF49
:102DF000C0F313001AE0A0F504428C3A05D1C8B222
:102E0000F1F7B6FF20F07F4010E0A0F504428E3AC3
:102E100005D1C8B2F1F7ACFF20F0704006E0A0F594
:102E20000442903A07D1C8B2F1F7A2FFA062257020
:102E3000A06D801CA065A06A70BD00006800002025
:102E400000280020001A002000300020D037002089
:102E500010B5084C607802F061F9C82060702070ED
:102E6000EFF7C2FE044906204870A4F110010120CA
:102E7000488110BD2E010020B4A100200548C821C2
:102E80004170017004490620487002490120103940
:102E9000488170472E010020B4A100202DE9F041A7
:102EA00000F048FD044600F045FD1A4901F17405A3
:102EB0004A7A012A0BD0AA78012A1FD08A785206B2
:102EC000120E8A70844223D142F001001FE08A78FA
:102ED0005206120E8A7084420DD10B8C0E4E0F4F8B
:102EE00006EBD30603F007033678FB5C1E4202D0E4
:102EF00042F001028A70AA78012A09D1844205D1E0
:102F00002888C20702D000F0010000E0002088708D
:102F1000BDE8F0816800002000100020C6640108B0
:102F200030B50023012412E00D186D1E6D08AA4271
:102F300006D81CB9091A491C03EB51032946F1E7CD
:102F40001CB1081A401C03EB5003681C0024884283
:102F5000EAD3184630BD000030B511280ED2084B18
:102F6000084C00214FF4006501EBC02292B29A5C3C
:102F700024F81120491C89B2A942F5D330BD0000C4
:102F800000600008B09100202DE9F04100F0D2FC73
:102F9000044600F0CFFC1A4901F174054A7A012A6F
:102FA0000BD0AA78012A1FD08A785206120E8A7096
:102FB000844223DD42F001001FE08A785206120E9F
:102FC0008A7084420DDD0B8C0E4E0F4F06EBD3063C
:102FD00003F007033678FB5C1E4202D042F0010288
:102FE0008A70AA78012A09D1844205DD2888C2079F
:102FF00002D000F0010000E000208870BDE8F08100
:103000006800002000100020C66401082DE9F0418E
:1030100000F090FC044600F08DFC1A4901F17405A3
:103020004A7A012A0BD0AA78012A1FD08A78520640
:10303000120E8A70844223DB42F001001FE08A787E
:103040005206120E8A7084420DDB0B8C0E4E0F4F0F
:1030500006EBD30603F007033678FB5C1E4202D072
:1030600042F001028A70AA78012A09D1844205DB64
:103070002888C20702D000F0010000E0002088701C
:10308000BDE8F0816800002000100020C66401083F
:103090000020F1F71BBB10B54FF48060F2F782F807
:1030A00000F068F8BDE8104000F034B87FB50121A9
:1030B0000820FBF74BFF1448144900240068144D06
:1030C0004008B0FBF1F04FF6FF71ADF80410ADF819
:1030D0000000ADF80640ADF8024069462846FEF70C
:1030E0004DF801212846FDF71CFE32208DF80C001A
:1030F00004208DF80D008DF80E4001208DF80F0092
:1031000003A8F2F71DF87FBD1400002040420F0015
:10311000000C004030B40020134C034600EB40028A
:1031200004EB82014B608B604B7004F82230401C32
:10313000C0B20428F2D30D484FF47A710068B0FB96
:10314000F1F0B0F1807F0BD220F07F404FF0E02112
:10315000401E4861064AF02010708B61072008610C
:1031600030BCFFF7A3BF0000D00A002014000020ED
:1031700023ED00E008B5FEF767FCF0F791FF27208C
:103180008DF8000001208DF802008DF803006846DC
:10319000F1F7D6FF08BD00002DE9F04114460546C1
:1031A0000F46052900D34F1F214E3046FDF79FFEE5
:1031B000C1192048012D15D0022D1FD0032D29D073
:1031C000042D33D1C46189B23046FDF793FF10213D
:1031D0003046FDF7A3FD012210213046BDE8F04145
:1031E000FDF732BF046189B23046FDF77DFF022151
:1031F0003046FDF793FD01220221EEE7446189B2DA
:103200003046FDF773FF04213046FDF787FD0122AC
:103210000421E2E7846189B23046FDF769FF0821A5
:103220003046FDF77BFD01220821D6E7BDE8F0819D
:10323000000C004030010020F8B515460E4602464D
:10324000EDF786FF040035D0616A09B11046884762
:10325000002025E0A28A012181F31088A18BADF81E
:103260000010002181F31088BDF800108A42F2D9C5
:10327000315C238BE268D154012181F31088218BCA
:10328000491C89B22183A28A914201D30021218362
:10329000A18B491CA183002181F31088401C80B2BE
:1032A000A842D7D32068BDE8F840012240F2277138
:1032B000FEF7C5BAF8BD000010B50A4BB2F5167F8F
:1032C0000BDD02EB4204C4EBC212074C04EBC2025A
:1032D0004A434FF4401192FBF1F123F8101033F8F8
:1032E000100010BDB40A00200000F4FF00B5284B08
:1032F00021F0004287B09A42DCBF0022134631DD44
:10330000244B9A420DD168B94FF00100EDF7FDF85A
:10331000002207B01346104611465DF804EB02F098
:1033200031B806DB07B04FF001025DF804EB03F0A3
:1033300084B802AAFFF786F810F0030104BF0DF16C
:10334000080CBCE80F000DD0012001290ED0022985
:1033500014D00DF1080C0090BCE80F00FFF70AFB39
:1033600007B000BDFFF732FA07B000BD0DF1080C41
:103370000090BCE80F00FFF7FDFA05E00DF1080C26
:10338000BCE80F00FFF722FA07B081F0004100BD52
:10339000FB21E93F0000F07F2DE9F04FF74D8BB0A6
:1033A0004FF6FF74A86D41F678174AF2842C30F876
:1033B000021BA8650388CEB204EA03242E662643C6
:1033C000F14C01F47F4204EB0708CDF8008041F690
:1033D0007E18A044CDF81C8041F68218BF1CA04482
:1033E0002744CDF81880089741F6841841F67C17D9
:1033F00004EB080B274404F5CC5E41F686184444E0
:103400000594DDF8008042EA1322DFF874A3B8F8CF
:10341000004004943C880394BEF800400294DFF816
:103420006493BBF800E0A2EB0C0105F16C0462456B
:103430007BD07BDC48F28667A2EB0701BA4276D0EC
:1034400032DC48F28A4CA2EB0C014FF001076245D6
:103450006ED017DC48F2844CA2EB0C01624568D0B8
:103460000BDCA2F50042803A76D0B2F5007F73D033
:10347000A2F58062023A70D1D5E002296ED004290B
:10348000F9D1E1E0B1F5FB7F69D006DC022967D014
:1034900004297DD00629EED1F0E0B1F5FC7F78D08B
:1034A000B1F5FD7FE7D1F8E0B74B41F66E1C9C44C7
:1034B000CDF800C041F6701C9C44CDF828C041F600
:1034C000721C03EB0C0B41F6741C41F638079C444C
:1034D00003EB0709CDF824C0BF1C41F6761C1F443E
:1034E00003EB0C0A0197DDF828C041F66C17DB5B93
:1034F000BCF80070DDF824C041F6FF18B9F8009060
:10350000BCF800C0A1EB080241456ED017DC41F6C3
:10351000FC18A1EB0802414568D00BDC02296FD0F2
:10352000911C18D00129A6D1E8E0EFE020E0B7E037
:103530008FE07EE0012A1AD0022A9CD1E6E0B2F5A3
:10354000FE7F6ED00DDC012A6CD0022A29D0A2F5B4
:103550008072FB3A8FD1C8E05DE098E06EE093E0C6
:1035600080E0A2F58072FD3A40D0012A88D1ADE01A
:103570004FF4FF78B1F5027F71D022DC40F20123D5
:10358000A1F2012299426BD013DC414569D001E0E0
:103590006EE07DE006DC012927D0022942D0032914
:1035A000C1D1CEE0A1F58071FF396FD00129BAD128
:1035B000E0E0072A6BD2DFE802F06AFDF1F0EFEEFF
:1035C000ED0040F2FF320027A1F2FF3091426ED0B1
:1035D00017DCB1F5037F6BD009DC10F5FB7168D007
:1035E000012967D002299ED129E198E065E0A1F583
:1035F00000710D3978D0A1F58071F13993D136E1A0
:1036000051E043F67E6B0728D4D2DFE800F040F5A6
:10361000F4F3F2F1F0002680801CA86500F08AF92E
:103620005EE06BE084E0D8B2F1F7A2FB00F00F009F
:1036300027E0D8B2F1F79CFBC0B222E0D8B2F1F794
:1036400097FBC0F30B001CE0D8B2F1F791FB80B2FE
:1036500017E0D8B2F1F78CFBC0F3130011E0DBE008
:103660009EE077E0D8B2F1F783FB20F07F4008E0DE
:10367000D8B2F1F77DFB20F0704002E0D8B2F1F74C
:1036800077FB2060EF7120E140490DE066E01FE12B
:1036900006F120263168216018E106EB0A0104E0FA
:1036A00006EB090101E03A4931440968F3E7E5E036
:1036B000D0E0B5E0BFE0098811E0B9192180801C95
:1036C000A86500F037F9BBF8001008E00CEB060124
:1036D0002180801CA86500F02DF9BAF8001008447C
:1036E0006080A86D001FF2E0B8E009EB06012180C0
:1036F000801CA86500F01EF90199DCE7991921806A
:10370000801CA86500F016F90099D4E70499801C84
:1037100031442180A86500F00DF90899CBE70399A1
:10372000801C31442180A86500F004F90799C2E7A4
:103730000299801C31442180A86500F0FBF80699AD
:10374000B9E70EEB06012180801CA86500F0F2F8B5
:103750000599B0E73046EEF7CFF902E03046EEF7D4
:10376000F7F92866C6F30520F1F702FB00F00F0019
:103770002060AAE03046EEF7BFF914E068000020B0
:10378000001A002000300020001000200028002037
:10379000D037002035E030E01FE01AE00EE009E00D
:1037A0003046EEF7D5F92866C6F30520F1F7E0FAC2
:1037B000C0B2DDE73046EEF79FF902E03046EEF7A3
:1037C000C7F92866C6F30520F1F7D2FAC0F30B005B
:1037D000CEE73046EEF790F902E03046EEF7B8F962
:1037E0002866C6F30520F1F7C3FA80B2C0E787E088
:1037F00082E076E05EE052E04BE03046EEF77CF9A6
:1038000002E03046EEF7A4F92866C6F30520F1F78A
:10381000AFFAC0F31300ABE73046EEF76DF902E004
:103820003046EEF795F92866C6F30520F1F7A0FAC1
:1038300020F07F409CE73046EEF75EF902E030462C
:10384000EEF786F92866C6F30520F1F791FA20F025
:1038500070408DE73046EEF74FF902E03046EEF764
:1038600077F92866C6F30520F1F782FA80E730463B
:10387000EEF742F905E000F1202057E03046EEF780
:1038800067F9C6F30D0101EB400080B2404543D219
:10389000F1E73046EEF730F904E0504446E03046B8
:1038A000EEF756F9C6F30D0101EB400080B240453A
:1038B00032D2F2E73046EEF71FF915E041F6322139
:1038C00040F64370F2F714FB2760A86D801CA865D2
:1038D000A86D001DA86520680BB0BDE8F08F4844B6
:1038E00024E03046EEF734F9C6F30D0101EB400059
:1038F00080B25845F3D3E1E73046EEF7FDF802E039
:103900003046EEF725F9C6F30D0101EB400080B219
:1039100043F2AE61884207D341F6322140F643704C
:10392000F2F7E6FA2760D3E70149084400681FE789
:10393000D03700202DE9F04FF74C87B0F74EA06D3F
:10394000DFF8DC93DFF8DCA330F8021BA065078802
:1039500001F47F4242EA17234FF6FF7202EA07257D
:10396000CAB222662A4349F28465591BAB4278D019
:1039700078DCED4D41F63A08A844CDF80C8041F6CC
:103980006E18A844CDF8088041F6721805EB080EB1
:1039900041F67618A844CDF8048041F67A18A84478
:1039A000CDF8008041F67E1805EB080B41F6821831
:1039B000A844CDF8148041F686184544DDF80C8003
:1039C000049549F2870CB8F80050DDF8088003959B
:1039D000A3EB0C01B8F80050DDF804800295BEF8A6
:1039E00000E0B8F80050DDF8008001956345B8F8B4
:1039F00000500095DDF81480049DBBF800B0B8F8C5
:103A000000802D8872D043DC214648F2866CC9893B
:103A1000A3EB0C0563456AD025DC48F28648A3EB8E
:103A2000080C4FF0010543457ED00DDCA3F50043A3
:103A3000803B7AD0B3F5007F77D0A3F58063023B5B
:103A400074D0022B73D11AE1BCF1020F70D0BCF517
:103A5000FD7F6ED0BCF5FE7F6CD0BCF5FF7F66D1DC
:103A600029E19EE14EE040F6FD16A5F6FD13B542B4
:103A700021D008DC022D7CD0DD1C7BD0012D7AD03A
:103A8000022D54D126E1012B76D0022B75D124E1F1
:103A9000B1F57F7F72D019DC40F2FD16A1F2FD1363
:103AA000B142F1D008DC191D64D0012963D002298C
:103AB00065D003293BD192E1012B77D0022B76D040
:103AC000032B13D0B3F5FF7F31D114E140F2014352
:103AD000A1F2014099426BD00ADC011D69D0012995
:103AE00068D0022967D0032921D136E1DDE0E5E085
:103AF00001287DD0B0F5FD7F7BD0A0F58070FB382C
:103B000015D146E1DFF820B241F67C173B1D3BF8AA
:103B10000770019733F80B3040F6014CA1F60145D0
:103B200041F68418009306E0B0E095E096E09DE051
:103B3000B2E0B5E0BAE03BF808E0614578D063DC7C
:103B40005B4641F6380503EB050C41F6741841F667
:103B50006C15984403EB0507CDF8088041F6701505
:103B60001D4441F678184344BCF800B03F882D88C6
:103B700006E0A7E0BBE0BCE0A8E042E0C1E0A6E0D0
:103B8000DDF80880B1F5206FB8F800C0B3F8008008
:103B90000DD01CDC05296ED00EDC01296CD0022969
:103BA0006BD003296AD0042960D10AE124E097E0B0
:103BB000DEE0C0E0C3E0CCE0A1F51061FC391BD031
:103BC000012971D0022970D003294FD103E140F6B9
:103BD000FD36A1F6FD33B14266D00EDC13F5FE7161
:103BE00026D0012972D0022974D0A1F5807101E09C
:103BF000C2E0CAE0FB3939D16FE0012B75D0022B4E
:103C000071D0032B32D16BE0B5F5017F6CD019DC9C
:103C100040F2FF13A5F2FF119D4270D009DC012D87
:103C200054D0022D56D08D1C6AD0012D1ED1DEE05D
:103C3000D5E001297CD002297BD003297AD0042940
:103C400014D1E8E0A5F2FD35082D0FD2DFE805F02C
:103C5000F3F7ECEBEAE9E8E7628305E0F8B2F1F7A5
:103C600087F800F00F000EE0801CA065B4F91A0080
:103C700007B0BDE8F08FA8E097E09AE09DE0F8B2C9
:103C8000F1F776F8C0B26083E57188E0F8B2F1F739
:103C90006FF8C0F30B00F6E7F8B2F1F769F8F2E756
:103CA0001144224A114404E093E01EE0114401F162
:103CB0002021098891E011443144FAE70A4402EBDB
:103CC0000901F6E70A4402EB0A01F2E789E001E0A4
:103CD000114482E00EEB02017FE00BEB02017CE07D
:103CE00008EB020179E076E0A1E0A91875E00399FC
:103CF000EEE70299ECE71046FDF7D0FE04E07AE02B
:103D000071E01046FDF7E8FE2066C2F30520F1F7EA
:103D10002FF800F00F0041E068000020001A00209A
:103D200000300020D03700200010002000280020A4
:103D300065E068E06BE01046FDF7B0FE02E010467B
:103D4000FDF7CAFE2066C2F30520F1F711F8C0B2F4
:103D500024E01046FDF7A2FE02E01046FDF7BCFE8F
:103D60002066C2F30520F1F703F8C0F30B0015E05D
:103D70001046FDF793FE02E01046FDF7ADFE20660B
:103D8000C2F30520F0F7F4FF08E01046FDF786FEC9
:103D900058E01046FDF7A0FE54E000886083A06D57
:103DA00062E71046FDF77AFE5AE01046FDF794FEF2
:103DB00056E01046FDF772FE5FE01046FDF78CFE00
:103DC0005BE01046FDF76AFE65E01046FDF784FEF5
:103DD00061E0B91801E00CEB0201618344E701994D
:103DE00076E7009974E71046FEF718FA8CE710465C
:103DF000FEF732FA88E71046FEF710FAA2E71046FF
:103E0000FEF72AFA9EE71046FEF708FAA8E71046E2
:103E1000FEF722FAA4E71046FEF700FAAFE737E014
:103E200032E027E022E018E013E008E003E010466B
:103E3000FEF712FAA3E71046FEF7F0F902E010468B
:103E4000FEF70AFAC2F30D0101EB400000F1202059
:103E5000A3E71046FEF7E2F902E01046FEF7FCF990
:103E6000C2F30D0101EB4000304496E71046FEF727
:103E7000D5F902E01046FEF7EFF9C2F30D0101EBB0
:103E8000400101EB090088E71046FEF7C7F902E0A0
:103E90001046FEF7E1F9C2F30D0101EB400101EB21
:103EA0000A007AE730B51048522410498481104A3C
:103EB000002000F5406331F81050401C80B222F819
:103EC00013507E28F5D30B4A105D224401020A48A4
:103ED0005278114301800949092008700249C8201D
:103EE00010310870487030BD1E01002008650108BF
:103EF000001000200060000800500020E0110020A9
:103F00002DE9F047434CDFF81081444E6079444F6F
:103F1000A8F10809C82855D342490025EC280B68A8
:103F200008D00A46EF2892680CD0FB2813D0FD2851
:103F300019D01FE08A46012B1CD1EEF7D3FB3A487B
:103F400005600DE08A46012A14D1EEF755FC36488B
:103F50000C3005600CE08A46012B0BD1EEF7C4FC57
:103F6000CAF8005006E08A46012A03D1EEF736FD72
:103F7000CAF80850E08B2D4A06EB400000F50050CF
:103F8000008806EB400101F50051897800EB014003
:103F900081B2E183607952F8202000F560608A42A6
:103FA00007EBD00100F007030A7803DA18F80300E2
:103FB000024002E019F8030002430A70A06D001DE0
:103FC000A06520E0E18B06EB400006EB410101F526
:103FD000005100F520600A88E283606503880D487F
:103FE0000F4D9342407900F5606000F0070105EB4A
:103FF000D000027803D218F801100A4002E019F844
:1040000001100A4302706079BDE8F04700F51C50CA
:10401000F1F7CAB968000020CE6401080010002042
:1040200000100020F8080020901C0020E01800205C
:104030002DE9F047414C424F424EA06DA7F10808D0
:1040400010F8021BA065007801EB002082B2E28329
:104050006079C82850D33C490025EC280B6808D06B
:104060000A46EF2892680CD0FB2813D0FD2819D0FF
:104070001FE08946012B1CD1EEF734FB3348056065
:104080000DE08946012A14D1EEF7B6FB2F480C301B
:1040900005600CE08946012B0BD1EEF725FCC9F831
:1040A000005006E08946012A03D1EEF797FCC9F8D3
:1040B0000850A06DE28B8178001DA06502EB0141E4
:1040C0000078234A01EB006081B2E183607952F805
:1040D000202000F560608A4206EBD0010A7804DAFD
:1040E00000F00700385C024004E000F0070318F815
:1040F000030002430A7019E01649124D01EB40001B
:1041000000F52060206503880C489342407900F553
:10411000606000F0070105EBD000027802D2795C04
:104120000A4002E018F801100A4302706079BDE805
:10413000F04700F51C50F1F737B900006800002087
:10414000CE64010800100020F8080020901C002018
:10415000E01800200010002010B5084C207900F075
:1041600043FF207900F5B050F1F71EF92079BDE842
:10417000104000F5C060F1F717B90000680000209A
:104180002DE9F05F524D514C0126E88B234604EB9C
:10419000400000F50050DFF83CB10288EA836879FE
:1041A000DFF83491010903EB410100F00F0706FA33
:1041B00007F301F59C61C8285AD304EB420404F5C7
:1041C0000054B246A478464E02EB04421FFA82FC29
:1041D000A5F81EC0414A9FB2336802EB80044FF03D
:1041E0000008EC281FD03246EF28926824D0FB2824
:1041F0002BD0FD282ED02068604504DA09888F4333
:1042000001D0401C2060E98B20688842687900F565
:10421000606009EBD00100F007030A781FDA1BF891
:10422000030002401FE0002BEDD1EEF7FDF986F808
:104230000480C6F800A0E6E7002AE4D1EEF77EFA93
:1042400086F80C80C6F808A0DDE7002BDBD1EEF77E
:10425000F7FAD8E7002AD6D1EEF772FBD3E71D486C
:104260000838C05C02430A70A86D001DA86525E0EF
:1042700004EB400000F520609CB2E86403889342A0
:1042800004D209888C4301D05B1C03801048124C77
:104290009BB24079934200F5606000F0070104EBA7
:1042A000D00005D802781BF801100A40027005E022
:1042B000084A0378083A515C0B4303706879BDE8FB
:1042C000F05F00F51C50F1F76FB8000000100020FF
:1042D00068000020CE64010800100020E0180020D3
:1042E000F80800202DE9F05F4E4D01274F4EAC6DD0
:1042F000DFF834B1DFF8389114F8020BAC6521789F
:1043000000EB012083B2EB83687900F00F0107FA1C
:1043100001F2010906EB410101F59C61C82855D362
:10432000A678241DAC6503EB06432478424E03EBCC
:1043300004631FFA83F8A5F81E803E4BD6F800C030
:1043400003EB80044FF0000AEC281FD03346EF281F
:104350009B6824D0FB282AD0FD282ED0206892B25A
:10436000404504DA09888A4301D0401C2060E98B6B
:1043700020688842697901F5606109EBD10001F09C
:10438000070302781EDA1BF803103CE0BCF1000FB3
:10439000EDD1EEF749F986F804A03760E7E7002B86
:1043A000E5D1EEF7CBF986F80CA0B760DFE7BCF1FA
:1043B000000FDCD1EEF744FAD9E7002BD7D1EEF7A6
:1043C000BFFAD4E718490839C95C21E006EB400080
:1043D00000F5206094B2A86402889A4204D2098849
:1043E0008C4301D0521C02800E48114C92B240798D
:1043F0009A4200F5606000F0070104EBD0000278FB
:1044000003D21BF801100A4003E0074B083B595C3C
:104410000A4302706879BDE8F05F00F51C50F0F7C0
:10442000C3BF000068000020CE6401080010002017
:1044300000100020E0180020F808002010B50D4CF6
:104440000D4AA06D10F8021BA065007801EB002159
:10445000A183207902EB400202F590526264118040
:1044600000F000FE2079BDE8104000F5B050F0F7F4
:104470009BBF00006800002000100020054B00B525
:10448000986D008820F45040ECF708FB986D801C74
:10449000986500BD6800002010B5054CA06D00882F
:1044A00020F45040ECF7CAFBA06D801CA06510BD45
:1044B0006800002010B5054CA06D008820F4504025
:1044C000EFF752FEA06D801CA06510BD68000020B3
:1044D00010B5054CA06D008820F45040EFF7F6FEB3
:1044E000A06D801CA06510BD6800002010B5054CB3
:1044F000A06D008820F45040F0F768FEA06D801C8D
:10450000A06510BD6800002010B5054CA06D0088A6
:1045100020F45040F0F7D0FEA06D801CA06510BDC7
:104520006800002010B5054CA06D008820F45040B4
:10453000F0F73AFFA06D801CA06510BD6800002058
:1045400010B5054CA06D008820F45040FAF732FFFA
:10455000A06D801CA06510BD6800002010B5054C42
:10456000A06D008820F45040ECF7E0FBA06D801CAB
:10457000A06510BD6800002070B505220C0ACBB202
:10458000A0F500400B4980B247F65C550E5C9E4298
:1045900005D10E187678A64201D1002201E0801CD8
:1045A00080B2A84201D8032AF0D800F5004080B2BA
:1045B00070BD0000006000082DE9F0411A4C1B4D51
:1045C0006179A07901EB002081B2E889FFF7D4FF7F
:1045D000E881022161703121A170010AC2B2144840
:1045E000032700EB111301F00F011B78E370415C0E
:1045F000217100EB121602F00F0236786671825CB0
:104600003133194431441144A271C91CC9B200EBC1
:104610001112E771127801F00F012272405C607292
:1046200009206881BDE8F081B4A100201E010020AE
:1046300008670108044810B50449062304890122CB
:104640004B70428110BD00001E010020B4A100206B
:1046500070B50C4B0A480C4D98650020B02443F609
:104660007F66996D0A88B4EB122F02D1D2B245F859
:104670002210891C401C80B29965B042F1D370BDF4
:104680005C6000086800002074010020094A0848A6
:1046900043F67E6390650020916D401C891C9165F6
:1046A000098880B20F2901D09842F5D370470000E5
:1046B0005A6000086800002010B5FEF715FB074A95
:1046C0000749138821F8103001EB400052884280DE
:1046D00002486838816D091D816510BDD000002039
:1046E000001000202DE9F041254D4FF6FF7CAC6D08
:1046F00022886088237902F47F4141EA10210CEA84
:104700000027A41DD0B2AC652688DAB20CEA0626D2
:104710003843324305F16C031E1FA1F50047803F6B
:1047200002D0B7F5007705D118805A80186801F0DB
:1047300093FC1FE0A1F50642803A01D1114917E030
:10474000A1F50642823A02D100F1202011E0A1F544
:104750000642843A01D10C490AE0A1F50642863AA4
:1047600001D10A4904E0A1F50642883A05D1084979
:1047700008440068A41C3060AC653068BDE8F08176
:104780006800002000280020001A002000300020CF
:10479000D037002070B50025012310E00C1A641CEE
:1047A00005EB5404A24201D2012600E000269E42FD
:1047B00008D003B125460844401C40080023884225
:1047C000ECD370BD03B925460144491E4908E3E70F
:1047D0002DE9F041FFF7AEF80446FFF7ABF81A49B0
:1047E00001F174054A7A012A0BD0AA78012A1FD058
:1047F0008A785206120E8A70844223DA42F001004F
:104800001FE08A785206120E8A7084420DDA0B8CF1
:104810000E4E0F4F06EBD30603F007033678FB5C12
:104820001E4202D042F001028A70AA78012A09D100
:10483000844205DA2888C20702D000F0010000E0B7
:1048400000208870BDE8F081680000200010002082
:10485000C66401082DE9F041FFF76CF80446FFF744
:1048600069F81C491C4D1D4E4A7A01F17403012A56
:104870000BD09A78012A1AD08A785206120E8A70C2
:10488000844225DC42F0010021E0844208DC0A8CED
:1048900005EBD20702F007023F78B25C174203D162
:1048A0008A7802F0FE028A709A78012A10D1844236
:1048B0000CDC088C05EBD00200F007001278305CAD
:1048C000024203D0187800F0010000E00020887058
:1048D000BDE8F0816800002000100020C6640108D7
:1048E000F1F73CFAFFF7DEFAF1F71EFBFCF7BEFE2C
:1048F000FEF7D1FB124901200880091D08801149EB
:104900000870EBF7B3FFECF789FCFAF755FAFAF702
:104910008BFAF1F76FFBECF7FDFBFDF7FBF80120DD
:10492000F0F78CFBFDF756FD074CF9F7D1FD207829
:1049300008B1FCF7CBFCEBF7E1FEEFF797FBF4E7F0
:10494000F228002031010020240100202DE9F0414F
:10495000FEF7F0FF0446FEF7EDFF1A4901F174057A
:104960004A7A012A0BD0AA78012A1FD08A785206E7
:10497000120E8A70844223D042F001001FE08A7830
:104980005206120E8A7084420DD00B8C0E4E0F4FC1
:1049900006EBD30603F007033678FB5C1E4202D019
:1049A00042F001028A70AA78012A09D1844205D016
:1049B0002888C20702D000F0010000E000208870C3
:1049C000BDE8F0816800002000100020C6640108E6
:1049D00070B4194AF83808289178D67801F0FE05A5
:1049E00006F0010345EA030420D2DFE800F00409E1
:1049F0001014161A1F0E41F0FE0000EA510003E0E9
:104A000001F0010040EA5100907070BC704766F3FD
:104A10005F01D170F9E79470F7E794707008D07077
:104A2000F3E70120884305439570EEE770BC02214F
:104A30004FF47460F1F75CBA680000202DE9F04390
:104A400002211F480024234641701E4F1E4E8146FE
:104A50001FE0B089184480B2F1F780F8DFF86C806D
:104A600009EB430510F8080007EB10100178A97056
:104A7000B089184480B2F1F771F810F808005B1C97
:104A800000F00F009BB2385CE870A978084420441D
:104A9000C4B270798342DCD309EB430003218170F7
:104AA000E41CE1B207EB111201F00F011278C270A1
:104AB000795C0171042000EB43007081BDE8F08354
:104AC000B4A10020086701081E010020001000208A
:104AD000F8B51B491B4FDFF874C031F81000009087
:104AE0000220787000210846174DEE469CF80560BC
:104AF00010E01EF8004007EB400305EB141204F031
:104B00000F0412789A702C5D401C22441144DC7012
:104B1000C9B280B2B042ECD307EB40020323C91CF8
:104B20009370C9B205EB111301F00F011B78D3701C
:104B3000695C1171042101EB4000ACF80A00F8BD7A
:104B400008650108B4A10020086701081E010020C3
:104B50000349C878897801EB0020024988817047B1
:104B6000B4A100201E0100200349C878097901EB97
:104B700000200249C8817047B4A100201E01002016
:104B800000B5294B21F0004287B09A4203DC002295
:104B90001346009233E0254B9A420DD168B94FF08D
:104BA0000100EBF7B2FC002207B013461046114695
:104BB0005DF804EB00F0E6BB06DB07B04FF0010246
:104BC0005DF804EB01F039BC02AAFDF73BFC10F0E4
:104BD00003014FF001000DD0012914D002291AD091
:104BE0000DF1080CBCE80F00FDF7F0FD07B081F0F7
:104BF000004100BD0DF1080C0090BCE80F00FDF76E
:104C0000B9FE07B000BD0DF1080CBCE80F00FDF7C0
:104C1000DDFD07B000BD0DF1080C0090BCE80F00F1
:104C2000FDF7A8FEE2E70000FB21E93F0000F07F6E
:104C30002DE9F04106460F4600F08EFE04000D46B9
:104C400018BF0120284320F00040C0F17F6000F130
:104C5000E040C00F0ED0301C18BF0120384320F0B8
:104C60000040C0F17F6000F1E040C00F04BF0120B0
:104C7000EBF74BFC20462946BDE8F081F0B50E4924
:104C80000B4C04200B890B4DA4F262269B1E0BE0FB
:104C90002718215C7F7806EB5002695CEF5D801C71
:104CA00007EB0111117080B29842F1DBF0BD0000FA
:104CB00016A400201C6701081E01002010B51A4B25
:104CC00021F00042012486B09A4203DC0022134600
:104CD000009424E0154B9A420DD168B94FF00100C1
:104CE000EBF713FC002206B01346BDE81040104657
:104CF000114600F047BB06DB06B04FF00102BDE8ED
:104D0000104001F09ABB02AAFDF79CFB00F00100E5
:104D1000A4EB40000DF1080C0090BCE80F00FDF77B
:104D20009FFE06B010BD0000FB21E93F0000F07FB0
:104D30002DE9F05FA74C4FF6FF7549F28566A06D2F
:104D4000DFF89892DFF898A230F8022BA06501886E
:104D500002F47F438B4643EA112305EA0121D2B2D4
:104D600022660A43991B9C4D4FF4FD7EB34275D0D9
:104D70004BDC49F28346A3EB0601B34236D02ADC72
:104D8000214648F2826CD1F86480C989A3EB0C07F4
:104D90000FFA88F6634575D013DC48F28647A3EB1B
:104DA0000705BB4204D004DC281D01D002286AD1CB
:104DB00080E0022D7ED0754565D11144894A1144A9
:104DC00089E0022F72D0042F71D0062F70D0B7F572
:104DD000606F7BD19BE005296BD008DC012968D08E
:104DE000022903D0032964D004296FD193E0062956
:104DF00073D0A1F58071FF3970D001296FD00229DD
:104E000064D11046FCF74AFECDE040F60366A1F6F9
:104E10000360B14218D022DC40F6FE55A1F6FE50E8
:104E2000A9421AD011DC03296FD007DC01296DD00B
:104E300002294BD11046FCF74FFEC1E004296ED089
:104E4000A1F55061FD3941D19AE0012868D00228CE
:104E500003D0032864D0042838D195E072E040F2F2
:104E6000FD16A0F2FD11B04270D00EDC01286ED00C
:104E700070456DD0881C6CD0012827D11046FDF7F5
:104E8000CDF990E024E021E014E0012971D002295D
:104E900070D003296FD0042918D11046FDF7DCF932
:104EA000C2F30D0101EB4001514453E018E01AE058
:104EB0001DE02CE00BF0FF021FFA88F1D8B2EFF7EB
:104EC00073FFA06D801CA0650120A071BDE8F09F5C
:104ED000114401F120210E8040E01CE021E024E09B
:104EE00011442944F7E70A4402EB0901F3E70A44B5
:104EF00002EB0A01EFE72066B4F86400C2F3052272
:104F000081B2D8B2EFF750FF27E02EE029E010463B
:104F1000FCF7C4FDEFE71046FCF7DEFDEBE72BE006
:104F20002EE01046FCF7BAFD02E01046FCF7D4FD77
:104F3000C2F30D0101EB400000F12020B4F8641031
:104F400001800AE01046FCF7C7FD2CE028E01BE0DA
:104F50001EE021E0B4F864000880A06D801CA0650C
:104F6000B4E71046FCF79AFD2AE01046FCF796FDE0
:104F700096E71EE021E029E01046FCF7ADFD8FE743
:104F80001046FDF74BF9B6E71046FDF765F9B2E7B5
:104F90001046FDF743F9CBE71046FDF75DF9C7E78B
:104FA0001046FDF759F9C2F30D0101EB400041191C
:104FB000D0E71046FDF732F902E01046FDF74CF954
:104FC000C2F30D0101EB40014944C3E71046FDF770
:104FD00025F965E768000020001A00200030002055
:104FE000D037002000280020F0B51A491A4C01EBF8
:104FF000400101F5905201F58051C4E902211346A8
:1050000000F5C0621546154C05F00707144D04EB7A
:10501000D2021678EF5D3E40167000F5B05216468B
:1050200004EBD20206F007061778AE5D3740177022
:1050300000F56052164604EBD20206F0070614781B
:10504000AD5D2C401470F62802D200201880088034
:10505000F0BD0000001000203400002000100020EF
:10506000CE640108F0B51C491C4A01EB400303F56E
:10507000905103F58053C2E900131E88B1F800C0B7
:1050800000F5C061174C164F01F0070504EBD10481
:105090007A5D217866451CD2114200F56050DFF838
:1050A00044C000F007020CEBD00003D00178BA5CDA
:1050B00011430CE00C4E755D294021700178BC5CF9
:1050C000214205D0002119800178B25C11400170A5
:1050D000F0BD11432170F0BD00100020340000200D
:1050E000C664010800100020CE6401081FB54FF40B
:1050F000806100900020ADF80400ADF80600ADF826
:105100000810ADF80C000C20ADF80A006946024802
:10511000FCF7AEFB1FBD0000003801402DE9F04157
:105120000546112821D2EDF7A9FD114E06EBC52049
:10513000EDF718FD00240F4FED024FF4806807EBE8
:10514000840237F82410927805EB4400304401EBD8
:10515000022180B289B2EDF74FFD641CA4B2444530
:10516000EDD3BDE8F041EDF73FBDBDE8F0810000B3
:1051700000600008B0910020CB085B4201EBC30344
:105180000121914002784078491E42EA0020D8402F
:105190000840C0B2704710B5CC08644201EBC401AE
:1051A0008B4001249440641E8C400178427841EA8F
:1051B0000221A14319430170090A417010BD00008A
:1051C00021F00042A2F16052B2F5801F01F00043CD
:1051D00028BFD2F17F6C0BD95FEA001C43EAC20200
:1051E00042EB507018BF704728BF20F00100704795
:1051F000B2F5801FBCBF184670474FEA410C1CF542
:10520000001F02D2084601F03AB870B500F044FB26
:1052100000000089FFF7F6BF4FF00040A0F58000C6
:105220007047000010B591EA030F48BF83F00043B8
:1052300000F18084841A71EB030C05D2121943EB40
:105240000C03001B61EB0C01DFF824E14FEA115461
:10525000A4EB135C1EEA430F18BF9EEA445F73D0B1
:1052600023EA0E03DCF1200E21EA045143F48013FB
:1052700032D322FA0CFE10EB0E0023FA0CFE41EBA7
:105280000E01CCF1200E03FA0EFE10EB0E0051F1D0
:105290000001B1F5801FCCF1200E32D201EB045198
:1052A00012FA0EF2BDE8104058BF7047401C38BFDC
:1052B0005FEA420218BF7047002814BF20F00100C7
:1052C00041F100014FEA410313F5001F38BF704759
:1052D000A1F1C04100F02EBB012A43EB0302ACF167
:1052E000200CDCF11F0E32BF4FF0000E23FA0CF33E
:1052F00010EB030041EB0451B4EB115FD0D0A1EBF4
:10530000045101F5801149085FEA300001EB0451B6
:105310000ED350F1000038BF12FA0EFE08D1BDE8DE
:105320001040C9E7401C38BF5FEA4202CAD1C3E758
:10533000BDE810404FEA410313F5001F38BF704726
:10534000A1F1C04100F0F6BA9EEA445F08D011EA2C
:105350005E0FBDE8104004BF01F00041002070471F
:10536000BDE8104070B500F097FA00BF64FBBE3E88
:105370000000E0FF02494FF0000001F02CB800BF30
:105380000000F87F2DE9C04130B4DFF8A0C23CEA4C
:10539000111418BF3CEA131400F0EC8081EA0305F5
:1053A0001CEA111444EAD57418BF1CEA131500F066
:1053B000C780A4EB05044FF0004545EAC12145EA4A
:1053C000C32341EA505143EA525304F17F74994296
:1053D00004F500344FEAC0204FEAC22208BF9042D1
:1053E00000F09C804FEA13650FF24016765D4FEA9D
:1053F000134506FB05F7C7F1807706FB07F74FEA71
:10540000D737A7FB03687642C8F58038A7FB06CEDE
:1054100038BFA8F1010807FB08E64FF0000EA6FB15
:10542000028CE6FB03CEDCF1000CCEF1004E38BF5F
:10543000AEF1010EA6FB0C584FF000074FF000052F
:10544000E6FB0E87A1FB08C6A0FB07CE16EB0E06F7
:1054500045F10005E1FB076515F1E04E7EBFA4F5BF
:1054600080345FEA46066D4116F1800745F100057C
:105470004FEA17274FEA066647EA0567A6F1DE46B8
:10548000B6F1805F4FEA15251FD9384624F0010C8C
:1054900005EBC471BCF1FE6F01EB0C1102D8F0BC3E
:1054A000BDE8008124425CBF01F5801E9EEAC47FF6
:1054B00002D4F0BCBDE80081244238D4F0BCA1F194
:1054C000C041BDE8004100F035BA4FEAD22242EABD
:1054D00043524FEAD323A7FB02864FEAD02040EA8B
:1054E000415007FB03661EEA0E0F4FEAD12105FB70
:1054F000026658BFA6EB0056B6EB00564FEA520EB6
:105500004EEAC37E18EB0E0E56EB530EBDD518EBCC
:1055100002085E417F1C55F10005B6E74FF4801587
:105520004FF000074FF000064FF00008ADE7F0BC69
:105530004FF0000001F1C04101F00041BDE80081E1
:1055400011EA0C1F0CEA131500D00CE013EA0C1F33
:1055500000F025804FF00000F0BC81EA030101F06B
:105560000041BDE80081F0BCBDE8004181EA0301D3
:1055700000F0E0B9F0BCBDE8004170B500F08CF976
:10558000097EFC3E00F007B881EA03014FF00000FD
:1055900001F00041704781EA030100F0CBB9F0BC93
:1055A000BDE800414FF0000021497047FFFDFBF9C5
:1055B000F7F5F4F2F0EEEDEBE9E8E6E4E3E1E0DE46
:1055C000DDDBDAD8D7D5D4D3D1D0CFCDCCCBCAC8B8
:1055D000C7C6C5C4C2C1C0BFBEBDBCBBBAB9B8B7DF
:1055E000B6B5B4B3B2B1B0AFAEADACABAAA9A8A8D2
:1055F000A7A6A5A4A3A3A2A1A09F9F9E9D9C9C9BA0
:105600009A9999989797969595949393929191904A
:105610008F8F8E8E8D8C8C8B8B8A898988888787DB
:105620008685858484838382828181800000FF0750
:105630000000F87F4FEA41034FEA5353A3F580631C
:10564000D3F11E03C8BFD3F1210C0CDD4FF0004293
:1056500042EAC12242EA505232FA03FC8CEAE17C6F
:10566000ACEBE1707047102BC4BF0020704703F50E
:10567000787CBCF1FF3F04D06FF0004282EA210049
:10568000704770B500F008F94992248000207047F7
:10569000F2E700004FEA1153A3F58063D3F11E0334
:1056A000A8BFD3F1200C08DB4FF0004242EAC12230
:1056B00052EA505232FA03F0704709420BD4102BD1
:1056C000C4BF0020704703F5787CBCF1FF3F05D0D4
:1056D0004FF0FF3070474FF00000704770B500F09A
:1056E000DBF800BF4992248000207047F0E710F0FB
:1056F000004248BF4042B0FA80F310FA03F10AD0EA
:10570000C3F11D0303F580634FEA415002EB0352DE
:1057100002EBD12170474FF000007047B0FA80F3E0
:1057200010FA03F10AD0C3F11D0303F580634FEAB9
:1057300041504FEA035202EBD12170474FF0000075
:1057400070470000DFF848C170B51CEA111E1EBF8B
:105750001CEA13159EEA0C0F95EA0C0F00F06F80FF
:1057600081EA030423EA4C134EEAD47E21EA4C1169
:1057700041F4801143F48013AE44A1FB024CA0FB22
:105780000365AEF17F7E361955EB0C05A1FB034C8A
:105790004CF10003A0FB021C16EB0C06654153F113
:1057A0000003094218BF46F0010613F4007F0BD135
:1057B0004FEA03314FEA0530340341EA155140EA1C
:1057C00016506FF003020AE04FEAC3214FEAC520EA
:1057D000F40241EA555140EA56506FF0020202EBE2
:1057E0002E4201EB025585EACE710AD05FEA440CE5
:1057F00018BF24F0004450F1000041F1000120EAFC
:10580000D47040F2FE7C624500D270BDA84214BF45
:105810004FF080444FF04044002E08BF0024BEF1FA
:10582000806FA8BFA1F1C041BDE8704080F28280C6
:105830004FF0000001F1C04101F0004170479EEAC5
:105840000C0F0CEA131518BF95EA0C0F06D04FF099
:10585000000081EA030E0EF0004170BD00F01CF85C
:105860008900013E00F007B800F009B84FEA430C88
:105870005FEA5C5C08D081EA030100F05BB84FEAA4
:10588000410C5FEA5C5CF6D14FF0000001497047C3
:105890000000FF070000F87F0EF1020E2EF0030E4D
:1058A0005EF8046B364205D4012A43EB030515F577
:1058B000001F12D8012841EB010C1CF5001F0CD869
:1058C0000ED14FEAD17C15F5001F0CEB4C0C0CF1FE
:1058D000020C08BF4CEBD37C04E04FF0080C01E055
:1058E0004FEAD37C0CEB4C0526FA05F606F00706CA
:1058F000B6F1040C06D20EEB860CBDE870404CF0FD
:10590000010C6047DFE80CF0090B02024FF0004188
:105910004FF00000A1F5002170BD19461046012886
:1059200051EB010418BFD4F5001484BF002001F02E
:10593000004170BD0808A0F500114FEA3101704721
:1059400091EA030F10B581F000413FF573AC83F08D
:10595000004300F0EFB800002DE9F04101F5801C94
:10596000BCF5001FC0F2C3804FEA115C21EA0C5164
:105970000CF1FD0C41F480115FEA5C0C0CF5C07C6D
:1059800001D3400049413DA4890241EA9051870278
:105990008E0E0A0CA45D04FB04F602FB06F6C6F1AB
:1059A0004046A4FB0662F60D46EA422606FB06F4D4
:1059B000A4FB01235242C3F1404338BF5B1EA6FB48
:1059C00002420024E6FB0324D20B42EA4446A6FB33
:1059D0000623A1FB02E2A3FB07E4A4184FF0000298
:1059E00052F10002E3FB01426442C2F1404E38BF73
:1059F000AEF1010EA6FB04234FF00002E6FB0E32CF
:105A0000A2FB03464FF00004B61954F10004E2FB78
:105A10000264A1FB06E6A4FB07E816EB08064FF0BC
:105A2000000858F10008E4FB01687642C8F14058CC
:105A300038BFA8F10108A2FB06E4A3FB08E52D1975
:105A40004FF0000454F10004E2FB0854A1FB05E60A
:105A5000A7FB04E818EB06084FF0000656F1000615
:105A6000E1FB048618F1200556F10006A809A8F10B
:105A70001B08B10908F03F08B8F10A0F40EA866038
:105A80001CD901EB0C51BDE8F08100BFFCF5EEE83C
:105A9000E2DDD8D3CFCBC7C3C0BDB9B6B4B1AEACCD
:105AA000A9A7A5A3A19F9D9B9A9896959392908F45
:105AB0008D8C8B898887868584838281A0FB006892
:105AC00000FB01F208EB4208B8EB872807D5341831
:105AD00058EB0104D5D5401C51F10001D1E7341A2F
:105AE00078EB0104CDD4401E71F10001C9E75FEAF3
:105AF0004C0C5FEA9C5C0DD105D34FF0000001F027
:105B00000041BDE8F081BDE8F04170B5FFF7C4FE8B
:105B10006DDBFFBEBDE8F0414FF00000004970476B
:105B20000000F87F10B591EA030F48BF83F00043EF
:105B30003FF580AB841A71EB030C07D212198CF07D
:105B4000004C43EB0C03001B61EB0C01DFF8A4E1FC
:105B50004FEA1154A4EB135C1EEA430F18BF9EEAF0
:105B6000445F00F0B08023EA6E03524221EA045100
:105B7000C3EB6E0338BF5B1EDCF1200E25D322FA87
:105B80000CFE10EB0E0043FA0CFE41EB0E01CCF1C3
:105B9000200E03FA0EFE10EB0E0051F10001CCF1C5
:105BA000200E29D412FA0EF201EB0451BDE8104088
:105BB00058BF7047401C1CBFB2F1004F704700280F
:105BC0000CBF491C20F00100704712EB020E43EBA2
:105BD000030218BF4FF0010E4EEA4202ACF1200C56
:105BE000DCF11E0E54D943FA0CFE10EB0E0051F1FD
:105BF000FF31CCF11E0ED5D50EF1010E12FA0EFEBC
:105C0000404141EB010101EB445C5FEA5C5C10D96F
:105C100010EBDE7001EB045138BFBEF1004FBDE860
:105C2000104018BF704700280CBF491C20F001002D
:105C3000704730D24FEAD42C11F5001124F40064DF
:105C40001BD0B1FA81F20B3AA41AA41ED2F12003A0
:105C5000914030FA03F31943904001EBCC71002CD2
:105C600001EB0451BDE81040A8BF704701F1C041ED
:105C70004FF0000001F000417047B0FA80F310FAD5
:105C800003F100D110BDE41A173C4805C90AE4E746
:105C900001EB045110BD491001EB0451BDE8104067
:105CA0004FEA300002E04FF0000170474A0008BFA1
:105CB0000042F8D0B2F5001F28BF704701F0004144
:105CC0004FF0000070479EEA445F07D011EA5E0F74
:105CD000BDE8104004BF002100207047BDE810401F
:105CE00070B5FFF7D9FD00BF40DFF63E83F00041FD
:105CF000104670470000E0FF43004FEAD30C4FEA24
:105D00003C0C43401FBF40070CF1605113F0FE4FA5
:105D100070471CF0006F03D100200CF00041704769
:105D20000CF0004343EA507010B540EACC0000F09C
:105D300060FA00BF000000924FEA0001FFF7FABDD1
:105D40004FF000414FF00000A1F500217047000026
:105D500090EA010F48BF81F0004100F1CE82421A63
:105D60003CBF801A89184FEAD0524FF07F4C1CEA92
:105D7000410FA2EBD15318BF9CEA026F00F03B80A9
:105D80004FF0004C4CEA00204CEA012121FA03FCC0
:105D900010EB0C0C1ED202F1FF325FEA1C2040EB2C
:105DA000C25038BF70471CF07F0F4FEA400C18BF3D
:105DB000BCF17F4F38BF7047C3F12003994008BF43
:105DC00020F00100BCF17F4F38BF7047A0F1C04008
:105DD00000F055BA4FEA3C00000A40EBC25028BF21
:105DE0001CF0FF0F4FEA400CE6D018BFBCF17F4F0C
:105DF00038BF7047EAE79CEA026F05D010EA5C0FF3
:105E000008BF00F00040704710B500F0F2F900BF85
:105E100064FBBE3E401058BFC0F14040491058BF1F
:105E2000C1F140418142EFF3008070474FF47F0C95
:105E30001CEAD0121EBF1CEAD11392EA0C0F93EA9F
:105E40000C0F00F0858090EA010F48BF42F4807289
:105E500040F4000C41F400002CF07F4120F07F4022
:105E600000B58142A2EB03020FF2081CACEB504ECE
:105E7000C0F100009EF800E04FEA4E0E00FB0EFC61
:105E800038BF49004FEA2C1C02F5FA020CFB0EF356
:105E90004FEACE1E4FEA112C4FEAC1210EEB635E92
:105EA00042EB22420EFB0CFC4FEA1C5300FB031199
:105EB0004FEA112C4FEA01310EFB0CFC4FEADC4C8F
:105EC00000FB0C11C14228BF09184CEB03335DF8ED
:105ED00004EB10EB410143EBC250B2F57C0F38BF2D
:105EE000704729D512F0F00F1CBF00F1C04000F040
:105EF00000407047008182838485868788898B8CE7
:105F00008D8E8F919293959697999A9C9D9FA0A222
:105F1000A3A5A7A8AAACAEB0B2B3B5B7B9BCBEC072
:105F2000C2C5C7C9CCCED1D4D7D9DCDFE2E6E9EC13
:105F3000F0F3F7FAFE0000004FEA400C0CF1807C11
:105F4000BCF17E4F28BF7047B0F1C04000F097B958
:105F500090EA010F0CEAD11348BF42F48072624507
:105F600038BF634507D213F47F0F16D080EA0100D3
:105F700000F00040704710B500F03BF9097EFC3E90
:105F800000F005B880EA010000F00040704780EAA8
:105F9000010000F0004000F072B912F47F0F04BF5E
:105FA0000248704780EA010000F069B90000C07F34
:105FB00050EA010C00F113801CF5000F58BFBCF52E
:105FC000000F01D48842704707D710F5000F58BF63
:105FD00011F5000F15D488427047894270471CF5AF
:105FE000000F04D5BCF5000FF7D5814270474FF084
:105FF000807C1CEB400F38BF1CEB410F01D281426B
:10600000704710B500F0F5F8922449004FF00050A9
:106010004FF08051FFF7FEBEC10DD1F19E0206DBAD
:106020004FEA002343F0004323FA02F07047004296
:1060300007D54FEA4001B1F1FE4F02D24FF0000008
:10604000704710B500F0D5F84992248000207047C1
:106050006FEA20007047000010F0004148BF404246
:10606000B0FA80F310FA03F2C3F19D030BD051EAAA
:10607000C35101EB1220530638BF704700F10100F5
:1060800008BF20F00100704750EA010C00F11380B6
:106090001CF5000F58BFBCF5000F01D488427047B3
:1060A00007D710F5000F58BF11F5000F15D488421F
:1060B0007047894270471CF5000F04D5BCF5000FEE
:1060C000F7D5814270474FF0807C1CEB400F38BF02
:1060D0001CEB410F01D28142704710B500F089F8E6
:1060E000922449004FF000504FF08051FFF792BECC
:1060F0004FF47F0C1CEAD0121EBF1CEAD11392EAA7
:106100000C0F93EA0C0F00F0478090EA010F48BF94
:1061100042F480724FF0004C4CEA00204CEA01211E
:1061200002EB0302A0FB0113A2F50002002918BF35
:1061300043F001035B0028BF4FEA330342EB2242E6
:106140005FEA132C4CEBC2502EBFBCEB436FB2F591
:106150007C0F70474FEA036CBCF1004F08BF20F082
:106160000100B2F57C0F38BF70470BD582F0FF02FB
:1061700012F5803FC8BF704700F1C040D8BF00F0A3
:106180000040704700F5000C5FEA4C0C48BF7047B8
:10619000B0F1C04000F073B890EA010F0CEAD113DF
:1061A00048BF42F48072624538BF634504D280EA3A
:1061B000010000F00040704710B500F01AF800BF71
:1061C0008900013E00F007B800F009B85FEA410C11
:1061D0005FEA1C6C08D080EA010000F050B85FEA6A
:1061E000400C5FEA1C6CF6D14FF00040A0F5800037
:1061F00070470EF1020E2EF0030E5EF8044B24429F
:1062000004D44FEA4102B2F17F4F11D84FEA400364
:10621000B3F17F4F0CD80ED14FEAD07CB2F17F4F53
:106220000CEB4C0C0CF1020C08BF4CEBD17C04E0E5
:106230004FF0080C01E04FEAD17C0CEB4C0324FA40
:1062400003F404F00704B4F1040C06D20EEB840C42
:10625000BDE810404CF0010C6047DFE80CF0070887
:1062600002024FF00040A0F5800010BD0846420039
:1062700018BFD2F1807288BF00F0004010BDFF212E
:1062800041EAD050C005704751EA000C00F113807C
:106290001CF5000F58BFBCF5000F01D481427047B8
:1062A00007D711F5000F58BF10F5000F15D4814224
:1062B0007047894270471CF5000F04D5BCF5000FEC
:1062C000F7D5884270474FF0807C1CEB410F38BFF8
:1062D0001CEB400F01D28842704780EA010081EA3E
:1062E000000180EA0100FFF7F8BE000090EA010F0C
:1062F00048BF81F000413FF532AD421A04D882F028
:106300000042A0EB020011444FEAD0524FF07F4C04
:106310001CEA410FA2EBD15318BF9CEA026F4AD08E
:106320004FF0004C4CEA00204CEA012121FA03FC1A
:10633000B0EB0C0C0FD412F0FE0F36D05FEA4C001D
:106340001DD5001240EBC25038BF70471CF03F0F04
:1063500018BF70470BE0A2F101025FEA1C2040EB7E
:10636000C25038BF70471CF07F0F18BF7047C3F191
:106370002003994014BF401E20F0010070478008A0
:106380004FEA122308BF7047B0FA80FCA2EB0C0260
:10639000CCF1280C60FA0CF093EA122F04BF00EB4A
:1063A000C25070474FEAC3707047130A5FEADC10AF
:1063B00008BF7047F6E79CEA026F04D010EA5C0F52
:1063C00008BF0020704710B5FFF713FF40DFF63E0F
:1063D00081F0004070470CF00F03092B08BF082024
:1063E00000F059800A2B0BD0082B18BF704708BF4C
:1063F0001CF0400F0AD04FF000004FF00001704732
:106400001CF0400F18BF4FF0004070471CF0100FF9
:1064100008D020F0704300F07F4242EAD3014FEAF7
:106420004370704700F0604021F07F4242EA000272
:1064300001F07F4040EA727070474FF0FF0C4CF45F
:10644000E06C1CEA11531CBF9CEA030C9445C2BFCC
:10645000DA4201EB02517047002B0DD0BCF1000F66
:106460000FD0002A01F00041A4BF41F0E04141F00B
:106470007F614FF00000704701F000414FF00000D5
:10648000704750EA01334FF09B0C18BF4CF0806C02
:106490007EF470AF70471CF4801F11D01CF4E02F05
:1064A00003D06FEACC31490070474FF04050EFF312
:1064B000008222F0704242EA000282F300887047B4
:1064C0004FF0000070470102040810204080FEFDDC
:1064D000FBF7EFDFBF7F00000100030007000F00A4
:1064E0001F003F007F00FF00FF01FF03FF07FF0FBA
:1064F000FF1FFF3FFF7FFFFF3F065B4F666D7D275E
:106500007F6F777C395E7971C800A85E0800100043
:10651000821F20001B0003000A0000000000000092
:10652000000000000000000000000000000000006B
:106530000A00000000000000000000000000000051
:10654000000000003D001C00000000001400FF00DF
:10655000D703000000000000FFFFFFFFFFFFFFFF69
:10656000FFFFFFFFFFFFFFFF0000FFFF0000000035
:10657000000000000000000000000000000000001B
:10658000000000003B1800000000000000000000B8
:1065900000000000F4010000000000000000000006
:1065A00000000000000000000000000000000000EB
:1065B00000000000000000000000000000000000DB
:1065C00000000000000000000000000000000000CB
:1065D0006400683F080000000000000000000000A8
:1065E00000000000000000000000000000000000AB
:1065F000DC0DB63D000000000000000000000000BF
:106600000200030000000000000000000000000085
:10661000000000000000000000000000000000007A
:10662000000000000000000000000000000000006A
:10663000000000000000000000000000000000005A
:10664000000000000000000000000000000000004A
:10665000000000000000000000000000000000003A
:10666000000000000000000000000000000000002A
:10667000000000000000000000000000000000001A
:10668000000000000000000000000000000000000A
:1066900000000000000000000000000000000000FA
:1066A00000000000000000000000000000000000EA
:1066B00000000000000000000000000000000000DA
:1066C00000000000000000000000000000000000CA
:1066D00000000000000000000000000000000000BA
:1066E00000000000000000000000000000000000AA
:1066F000000000000000000000000000000000009A
:1067000000000000000000003031323334353637ED
:106710003839414243444546000000000000000073
:106720000000000000000000000000000000000069
:106730000000000000000000000000000000000059
:106740000000000000000000000000000001020343
:10675000040506070809000000000000000A0B0CF1
:106760000D0E0F00000000000000C1814001C0803C
:106770004101C0804100C1814001C0804100C18110
:106780004000C1814001C0804101C0804100C18101
:106790004000C1814001C0804100C1814001C080F2
:1067A0004101C0804100C1814001C0804100C181E0
:1067B0004000C1814001C0804100C1814001C080D2
:1067C0004101C0804100C1814000C1814001C080C1
:1067D0004101C0804100C1814001C0804100C181B0
:1067E0004000C1814001C0804101C0804100C181A1
:1067F0004000C1814001C0804100C1814001C08092
:106800004101C0804100C1814000C1814001C08080
:106810004101C0804100C1814001C0804100C1816F
:106820004000C1814001C0804100C1814001C08061
:106830004101C0804100C1814001C0804100C1814F
:106840004000C1814001C0804101C0804100C18140
:106850004000C1814001C0804100C1814001C08031
:106860004101C0804100C1814000C0C101C3030299
:10687000C2C60607C705C5C404CC0C0DCD0FCFCECC
:106880000E0ACACB0BC90908C8D81819D91BDBDAFC
:106890001A1EDEDF1FDD1D1CDC14D4D515D717161C
:1068A000D6D21213D311D1D010F03031F133F3F22C
:1068B0003236F6F737F53534F43CFCFD3DFF3F3E0C
:1068C000FEFA3A3BFB39F9F83828E8E929EB2B2A9C
:1068D000EAEE2E2FEF2DEDEC2CE42425E527E7E65C
:1068E0002622E2E323E12120E0A06061A163A3A2CC
:1068F0006266A6A767A56564A46CACAD6DAF6F6E4C
:10690000AEAA6A6BAB69A9A86878B8B979BB7B7A7B
:10691000BABE7E7FBF7DBDBC7CB47475B577B7B69B
:106920007672B2B373B17170B0509091519353526B
:106930009296565797559594549C5C5D9D5F9F9E8B
:106940005E5A9A9B5B99595898884849894B8B8A1B
:106950004A4E8E8F4F8D4D4C8C44848545874746DB
:10696000868242438341818040030103000000008E
:106970004C5555555555A53F7751C1166CC156BF5D
:106980009015CB19A001FA3EAD529C804F7E92BE6D
:10699000C4B1B4BD9EEE213ED43888BEE9FAA8BD8C
:1069A00000004054FB21F93F3163621A61B4D03DCD
:1069B0000000601A61B4D03D7370032E8A19A33BA6
:1069C0000000002E8A19A33BC14920259A837B39F8
:1069D00000000000000000006E83F9A22915444E5B
:1069E000D15727FCC0DD34F5999562DB4190433CDB
:1069F000AB6351FE61C5BBDE3A6E24B7E0D24D42B7
:106A0000EA2E49061C92D1091CEB1DFE3EA729B1B6
:106A1000F53582E88444BB2E26709CE9417E5FB444
:106A200039D69139F43953838B5F849C3B28F9BD67
:106A3000FF97F81F0F9805DE8B112FEF1F6D0A5A75
:106A4000CF7E366DB709CB27663F464F2DEA5F9E56
:106A5000C7BA27757BF1E5EBF739073DEA92528A11
:106A6000B15FFB6B085D8D1FA6F810111111813FFE
:106A7000D561C119A0012ABF7DFEB157E31DC73EF4
:106A8000EB9C2B8AE6E55ABE7CD5CF5A3AD9E53D38
:106A90007AFE10111111C13F37D60684F464963F77
:106AA000280356C9226D6D3F0165F2F2D844433F79
:106AB000A69237A0887E143F735360DBCB75F3BE7C
:106AC000FE41B31BBAA1AB3F93846EE9E326823F3C
:106AD0001583E0FEC8DB573F68108D1AF726303F5C
:106AE000E9A7F0320FB8123FD47ABF74702AFB3E88
:106AF000106B010800000020500100006C0100082C
:106B00003C6B01085001002000CB0000C8010008C8
:106B100045020406082D01020304041506070809AE
:106B200084A24A047914A102340A0277FF12015A9E
:0C6B3000100509343E21022D0400000075
:0400000508000131BD
:00000001FF
